:020000040000FA
:0600000002010A022213B6
:03002B0002266D3D
:03003B0002268E0C
:0300430002262171
:0300530002228600
:03006B0002264723
:1000830002207FE5C754F84401F5C7790122000037
:100093000080FB120086B900030200F4E4792178A2
:1000A30008B800028004F709D8FCE479297802B87B
:1000B30000028004F709D8FCE49002817852790A9F
:1000C3008002F0A3D8FCD9FA900BD2AA82AB83901A
:1000D300013A783F79048015E493A3AC82AD838A17
:1000E300828B83F0A3AA82AB838C828D83D8E9D9D8
:1000F300E77582FC7583B2740312011C75829175D6
:100103008300740012011C75D00075813F7518813E
:10011300751902759F00020096C09FF59FE473D086
:100123009F22D083D082C09FE493C0E0740193C028
:10013300E0740293F59F22FF0000B400002800281A
:1001430000283075A000A000A000A000000800084F
:10015300E001F0001000100010001000100010006B
:1001630050005000500010001000D00700000000A5
:1001730000000F00010005003075070010000100AA
:1001830081FF00000000FF760694067C06FF020252
:100193000208025000A0000000E803026D83010082
:1001A300001783025783010000290C0251830100C9
:1001B30000B3020257830100002A0C024F8301009F
:1001C30000C9020257830100002B0C024183010086
:1001D30000CB020257830100002C0C023F8308006E
:1001E30000CC020257830100002D0C02378301006B
:1001F300002E0CFF0100FF20026D83010000148319
:10020300025783010000920C0233830000000000B8
:100213000253830300001903460C460C460C460C9C
:10022300460C460C460C460C460C460C460C460C3B
:10023300460CC80EE00EC20EFFFF49020003041273
:1002430064026D830100002383025783010000DAF7
:100253000C023983010000DB0C02538303000067A7
:1002630007020202020202020202010D0000001054
:1002730001026D830100002083025783010000FC0B
:100283000C0231830100006D07025783010000FD5A
:100293000C022F830100002682025783010000FE17
:1002A3000C022D830100000B82025783010000FF23
:1002B3000C022B83010000288102578301000000F8
:1002C3000D025B83010000168102578301000001C8
:1002D3000D0261830100004C81025783010000027B
:1002E3000D0263830100003A81025783010000037A
:1002F3000D026583010000FD8102578301000004A4
:100303000D023D83010000050D01E803053F100ABE
:10031300FF0012026D830100002683025783010050
:1003230000AD0D027E82010000340A0253830300F4
:1003330000350A01307503020106000000000000C9
:1003430000000000000000000000000000000000AA
:10035300000000000000FFFF0600800CE80309090D
:100363005465704865617441051214001400020A53
:10037300000201050302F0FF546570486561744192
:10038300000000000000000000000000009C1300BB
:1003930000A2130A436861726163746572697374BE
:1003A3006963203100024368617261637465726935
:1003B300737469632032001A436861726163746500
:1003C30072697374696320330010436861726163F7
:1003D30074657269737469632034000243686172DF
:1003E30061637465726973746963203500026D8398
:1003F3000100001D830257830100002E0E02698352
:100403000300009D0B0255830100002F0E0257834A
:10041300010000400E026B83010000B10B02558303
:10042300010000410E025783010000520E024D836A
:10043300030000B20B025583010000530E025783E1
:10044300010000640E024B83000000C60B025383BD
:10045300030000C70B025583010000650E0257839A
:10046300010000760E024983040000CD0B02558380
:10047300010000770E120125E39F03120125FA9F65
:10048300031201252BA00312012566A003120125E7
:1004930090A003120125BAA003120125D1A00312D3
:1004A3000125E8A003120125FFA00312012528A1BD
:1004B300031201253BA10312012551A103120125BA
:1004C30064A1031201258BA10312012582F50112F8
:1004D300012586F601120125BEF601120125E1F67A
:1004E30001120125ECF6011201250FF70112012576
:1004F3001EF801120125F3F8011201256EF901120C
:100503000125F6F90112012531FA0112012568FAD4
:1005130001120125F6FA01120125CFFB0112012573
:100523002FFC011201253AFC01120125B9FC01122D
:100533000125BCFC01120125BFFC011201254EFD62
:100543000112012551FD0112012581FD0112012531
:10055300ABFD0112012599FE011201254BFF01128A
:1005630001258AE902120125B2E902120125E0E917
:100573000212012517EA0212012575EA021201256A
:10058300C0EA021201250BEB021201254BEB02120A
:10059300012591EB02120125BFEB021201257CEC30
:1005A3000212012586EC0212012593EC02120125A9
:1005B300C6EC0212012592ED021201259EED0212F4
:1005C3000125B6ED02120125C0ED021201258BAD06
:1005D3000312012599AD03120125B1AD03120125C3
:1005E300C9AD03120125F7BB01120125A3BC0112FA
:1005F30001251EBD011201253FBE011201257BBE4F
:100603000112012524BF011201250BC0011201258E
:100613006FC101120125C6C10112012547C2011292
:10062300012537C30112012584C3011201250AC420
:10063300011201253CC40112012550C601120125F6
:1006430092C601120125B0C60112012533C701125A
:10065300012507C801120125CFC80112012540DD7C
:100663000212012513DE02120125BCDE021201254E
:100673000FDF02120125BFDF021201254BE0021238
:10068300012537E10212012566E10212012579E213
:1006930002120125C1E20212012596E3021201258D
:1006A300D2E302120125EEE302120125FFB0031289
:1006B3000125CF8303120125E583031201250B8452
:1006C3000312012527850312012531850312012514
:1006D3006686031201255E870312012563E4021275
:1006E300012593E502120125C6E50212012510E654
:1006F30002120125D7E702120125D26E001201254D
:100703003C6F001201259B7000120125AB70001293
:100713000125D870001201252F7100120125D8710F
:1007230000120125DF7200120125A97300120125B1
:100733000975001201254C7500120125F17500128F
:1007430001253E7600120125647600120125727898
:10075300001201257778001201257C7A0012012509
:10076300C97A001201253C7B001201256F7B001220
:100773000125117C00120125BA7C00120125F27CAF
:1007830000120125F57C001201253D7D0012012593
:100793007D7D00120125D47D00120125FF930312F4
:1007A30001251794031201255F9403120125759403
:1007B30003120125BC9403120125D09503120125D0
:1007C3005D9603120125A896031201250027001246
:1007D30001250C27001201254727001201258C272C
:1007E300001201254C2800120125D22800120125F0
:1007F3003729001201256329001201259C290012C3
:100803000125DA2B00120125BE2D00120125A42F8C
:1008130000120125E73000120125353300120125AE
:10082300473400120125923500120125A236001229
:100833000125BF3600120125FA36001201251C37A7
:10084300001201257F3700120125403C00120125CB
:10085300D53C00120125263D001201254D3D001215
:1008630001259F3D00120125BD3D00120125173EC4
:1008730000120125003F00120125764000120125D8
:10088300FA400012012547EE0212012551EE021231
:10089300012594EE02120125AFEE021201253FEF6E
:1008A3000212012567EF02120125A4EF02120125AE
:1008B300DBEF0212012504F00212012579F0021286
:1008C30001258EF002120125A3F002120125D4F0B6
:1008D30002120125E8F0021201250DF10212012591
:1008E30047F10212012573F102120125ABF1021245
:1008F30001252AF20212012573F2021201259DF24B
:1009030002120125C8F202120125C17E001201253F
:10091300E99A02120125179B02120125659C021216
:100923000125459D02120125649D02120125E19DC9
:1009330002120125249E021201257A9F021201252B
:100943003BA002120125C2A20212012563A30212D7
:10095300012559A40212012556A502120125B0A6AC
:10096300021201253BA70212012508A80312012543
:1009730071A803120125C5A803120125ECA80312CF
:1009830001251DA903120125F0F2021201255DF3D1
:1009930002120125A4F302120125BCF4021201255F
:1009A300B8F5021201259BF602120125C2BC021200
:1009B300012504BD02120125D6BD02120125AFBED9
:1009C30002120125A9BF021201258BC002120125C3
:1009D300F4C002120125AAC1021201251EC202128D
:1009E30001258AC202120125B3C2021201252DC3B9
:1009F30002120125C6C3021201252BC402120125CE
:100A030040C40212012586C4021201259FC40212AA
:100A1300012504C50212012507C5021201251B8EFB
:100A230003120125438E03120125818E0312012532
:100A33003F8F03120125A68F03120125C28F0312D4
:100A43000125EA8F031201251A900312012529902B
:100A530003120125A69003120125CC900312012550
:100A630095AC0112012573AE01120125A5B0011247
:100A73000125E1B0011201250EB101120125F8B1E2
:100A83000112012543B2011201258EB20112012583
:100A9300A0B201120125E0B20112012515B3011222
:100AA300012563B30112012592B301120125B5B3E8
:100AB3000112012502B40112012587B40112012597
:100AC300A1B601120125E0B80112012521B90112D5
:100AD3000125C3BA0112012504BB0112012577BB0D
:100AE30001120125CDBB01120125D48D021201256E
:100AF300D28E021201256B95021201258C970212E8
:100B03000125579902120125BF9A0212012561415D
:100B13000012012510420012012556420012012540
:100B23009643001201252C4500120125A64500120B
:100B33000125C145001201253C46001201259647B7
:100B430000120125F64800120125FC490012012577
:100B53005D4B00120125764B00120125D44B001288
:100B63000125C24C00120125F54C00120125654DEB
:100B730000120125DF4D00120125294E0012012527
:100B8300F34E00120125C84F00120125A750001291
:100B93000125325100120125A051001201251452E2
:100BA300001201253F5200120125FE5200120125B9
:100BB3006354001201258054001201259F54001232
:100BC3000125905500120125B55500120125DF5569
:100BD300001201255A5600120125B45600120125B0
:100BE3001D5800120125CB58001201250C59001283
:100BF30001250080021201254E80021201255A8030
:100C03000212012538810212012569810212012590
:100C13009A81021201251A820212012552820212BE
:100C23000125A48202120125E18202120125FE841C
:100C3300021201252487021201250F8902120125C0
:100C4300F98A02120125F87F001201258298011208
:100C53000125B298011201258B9F0112012510A1D4
:100C6300011201250DA701120125F5A70112012586
:100C730032A80112012555A80112012586A80112E7
:100C830001258FA80112012599A80112012587A921
:100C9300011201257DAA0112012573830112012589
:100CA300728701120125788701120125B38E011283
:100CB3000125CC9301120125D48A03120125CE8B81
:100CC30003120125428C03120125808C0312012596
:100CD300F48C031201256D8D03120125768D031209
:100CE3000125828D03120125978D03120125D58DD0
:100CF30003120125EB8D031201255DF70212012575
:100D03006AF70212012584F702120125C3F70212C2
:100D1300012501F80212012566F8021201257BF86C
:100D23000212012586F80212012593F80212012509
:100D3300AAF802120125B8F802120125C3F802121B
:100D43000125CFF802120125DEF802120125E9F888
:100D5300021201250CF902120125B3F90212012531
:100D6300C3F902120125DDF902120125FAF9021273
:100D7300012516FA021201253BFA0212012546FA51
:100D8300021201255BFA021201256FFA02120125F4
:100D9300D0FA02120125D6FA02120125DCFA021258
:100DA3000125E2FA02120125FAFA021201252DFBAE
:100DB3000212012559D901120125DDD9011201259C
:100DC3008CDA01120125EBDB011201250CDE011285
:100DD3000125F8DE011201252DDF011201254FDF68
:100DE30001120125FEDF01120125F6E101120125A1
:100DF3001FE201120125B1E201120125E3E2011212
:100E03000125F0E20112012547E3011201256DE3FB
:100E130001120125DAE501120125DDE601120125A2
:100E230035E701120125E8CA01120125F2CB0112AF
:100E33000125D9CC01120125E3CC0112012505CDF1
:100E43000112012511CD01120125AACE011201259E
:100E5300D9CE01120125F5CF011201254ED0011281
:100E63000125B4D10112012593D201120125EFD23C
:100E7300011201255CD30112012597D3011201252B
:100E8300D6D3011201258FD601120125A9D601124D
:100E9300012535D70112012543D7011201259CD71E
:100EA30001120125AAD7011201251DD8011201251E
:100EB30081D801120125CBD801120125BCA702124A
:100EC3000125DEA70212012504AA0212012519AD8C
:100ED3000212012531AE02120125E4AE02120125F0
:100EE300C6AF021201254AA3031201256FA3031201
:100EF3000125E1A303120125C6D502120125CFD591
:100F030002120125D8D502120125AFD602120125FE
:100F130060D80212012596D802120125D0D80212F8
:100F2300012506D90212012540D90212012574D9DF
:100F330002120125A0D902120125E9D902120125C5
:100F430023DA021201256CDA02120125C4DA021235
:100F53000125F9DA0212012554DB021201258EDB89
:100F630002120125DFDB0212012515DC0212012525
:100F73004FDC021201257DDC02120125A0DC0212E6
:100F8300012523AF031201254FAF03120125AAAF99
:100F930003120125B4AF03120125C4AF03120125C7
:100FA3002BC50212012535C50212012573C5021294
:100FB3000125BCC502120125F6C50212012550C642
:100FC3000212012571C60212012549C90212012527
:100FD30052C9021201259FC902120125C8C9021272
:100FE3000125D2C9021201253ECA02120125D0CA27
:100FF300021201251ACB0212012550CB0212012540
:10100300DCCB021201251DCC0212012554CC0212A5
:10101300012566CC0212012585CC021201258ECC56
:101023000212012556CD02120125AAAB0312012596
:10103300F29D03120125289E031201255E9E0312D1
:101043000125A99F0312012583B10312012599B13B
:1010530003120125A3B103120125EDB103120125EA
:10106300AAFB02120125BFFB0212012572FC021228
:101073000125B2FC02120125CBFC0212012506FD5B
:101083000212012553FD0212012585FD02120125DD
:10109300C7FD0212012591A603120125BAA6031268
:1010A3000125E9A60312012581A703120125C3A780
:1010B3000312012514910312012522910312012524
:1010C300939103120125579303120125759303127C
:1010D3000125E39B03120125139C03120125839C25
:1010E30003120125239D03120125D2960312012524
:1010F300F79603120125219703120125A6B20312C5
:1011030001253C5900120125A15B00120125425D16
:1011130000120125F65D00120125895E00120125EA
:101123000E5F00120125335F001201258962001250
:1011330001250F63001201254264001201257C641E
:1011430000120125B1640012012571660012012508
:10115300CE6600120125176700120125826700126F
:101163000125F367001201252568001201253D685A
:1011730000120125866900120125966900120125D6
:10118300B16A00120125D36A00120125096B00120E
:101193000125BD6C001201254A6D00120125896DE0
:1011A30000120125AD6E0012012562AE0312012566
:1011B30073AE0312012518AF031201254FB30312B7
:1011C30001258EB303120125C0B3031201256AB0B2
:1011D300031201257AB0031201258FB003120125F2
:1011E300F5B003120125A6AA031201252BAB0312A6
:1011F300012591AB0312012563A90312012597A9C8
:1012030003120125C0A90312012537AA03120125E0
:10121300A1AC03120125C2AC0312012516AD0312C2
:10122300012560AD03120125D3B3031201254CB28E
:10123300031201255BB203120125688703120125FE
:10124300F887031201258488031201251D890312DF
:101253000125AE8903120125B78903120125358AB9
:1012630003120125488A031201255E8A0312012510
:10127300BE8A03120125D18A03120125B1A10312EB
:101283000125C6A103120125DBA103120125E6A155
:1012930003120125F8A10312012538A20312012527
:1012A30066A203120125B1A20312012547A303126B
:1012B3000125EFA40312012541A503120125CBA5A6
:1012C3000312012532A6031201259E99031201255B
:1012D300C89903120125969A03120125719B0312E3
:1012E300012584CD021201254BCE0212012582CEA7
:1012F30002120125ACCE021201250CCF02120125E8
:1013030062CF02120125C7CF021201255FD002125C
:1013130001256ED10212012505D30212012592D3B4
:1013230002120125F9D30212012510D4021201255C
:101333002AD50212012568D502120125CEAF031268
:101343000125FEAF0312012503B00312012583E734
:101353000112012504EB011201258CEC0112012578
:10136300E3EC0112012502ED0112012580ED0112CA
:10137300012516EF01120125FBEF0112012509F4E6
:1013830001120125DFF401120125EAB2021201253F
:101393000CB60212012543B602120125B6BA021297
:1013A3000125B1BB021201250080031201254580EE
:1013B30003120125628003120125278103120125EF
:1013C3009081031201255D82031201259683031286
:1013D3000125D2FF02120125BCFF0112012598B39A
:1013E30003120125DA7F00E066701008A3E066703F
:1013F3000A08A3E066700408A3E06622C3E7960820
:1014030009E7960809E7960809E79622C3E09608D4
:10141300A3E09608A3E09608A3E09622C008C3E0E1
:1014230096F50808A3E096420808A3E09642080848
:10143300A3E09645087001D3D00822080808EAC043
:10144300E0EBC0E086F0E7A4FA180986F0E7A42AE7
:10145300FA180986F0E7A42AFA180986F0E7A42AFD
:10146300FA1986F0E7A4FBE5F02AFA190886F0E7F3
:10147300A42BFBE5F03AFA190886F0E7A42BFBE569
:10148300F03AFA18180986F0E7A4C5F02BFBE43A02
:10149300FA1908E7C5F0C6A426F6E5F03BFBE43AE3
:1014A300FA1886F0E7A4F6E5F00826F6E43B08F61A
:1014B300E43A08F6D0E0FBD0E0FA22E4CFC0E0E45F
:1014C300CEC0E0E4CDC0E0E4CCC0E075F020C3E6DC
:1014D30033F608E633F608E633F608E633F618186B
:1014E30018EC33FCED33FDEE33FEEF33FFC3EC9723
:1014F30009ED9709EE9709EF97191919400FFFECBA
:1015030097FC09ED97FD09EE97FE191906D5F0BE74
:10151300ECF709EDF709EEF709EFF7191919D0E020
:10152300FCD0E0FDD0E0FED0E0FF22601608080802
:10153300C6C313C618C613C618C613C618C613C621
:10154300D5E0EA227009080808226016181818C6A0
:10155300C333C608C633C608C633C608C633C6D5A2
:10156300E0EA22E627F60809E637F60809E637F641
:101573000809E637F622E026F608A3E036F608A3C4
:10158300E036F608A3E036F622E026F008A3E036BC
:10159300F008A3E036F008A3E036F022C3E697F69E
:1015A3000809E697F60809E697F60809E697F6228A
:1015B300C3E096F008A3E096F008A3E096F008A332
:1015C300E096F022E657F60809E657F60809E657CB
:1015D300F60809E657F622E056F608A3E056F608A1
:1015E300A3E056F608A3E056F622E056F008A3E07F
:1015F30056F008A3E056F008A3E056F022E0F60800
:10160300A3E0F608A3E0F608A3E0F622E6F008A3B9
:10161300E6F008A3E6F008A3E6F022E0FAA3E0FB75
:10162300A3E0FCA3E0FD22EAF0A3EBF0A3ECF0A31C
:10163300EDF022CAC0E0E6F0A308DAFAD0E0FA221D
:10164300CAC0E0E0A3C582CCC582C583CDC583F003
:10165300A3C582CCC582C583CDC583DAE6D0E0CAF3
:1016630022C3E498F8E499F91216A58026C3E49AF4
:10167300FAE49BFBE920E7E91216A5E498F8E4995C
:10168300F922C3E498F8E499F91216A5E498F8E46A
:1016930099F9C3E49AFAE49BFB22EB20E7CFE92014
:1016A300E7E0B90010BB0008E88AF084F8AAF0224A
:1016B300E4FBC8FA22EB70227B10C833C8C933C9D4
:1016C300335007C39AC3DBF280069A50012ADBEA40
:1016D300C833F4C8C933F4C9FA2275F008E4C8332F
:1016E300C8C933C933C99AC99B5004C92AC93BD550
:1016F300F0ECFBC833F4C8E4C9FA22600D08C6A2B3
:10170300E713C618C613C6D5E0F322600C08C6C398
:1017130013C618C613C6D5E0F422700422600D1850
:10172300C6C333C608C633C6D5E0F418222518103D
:10173300AF08F518400215198008F518400215196D
:10174300D2AF22C0D0251810AF08F51850020519E2
:101753008008F51850020519D2AFD0D0222518F50C
:101763008210AF08F518400215198008F5184002D9
:101773001519D2AF85198322C5822518C582C58361
:10178300351910AF07F5198582188007F519858279
:1017930018D2AFC583222518F582E43519F58322C3
:1017A300E4732518C582C0E0E51934FFC583C0E0A2
:1017B300E518C3958224F810AF088583198582182C
:1017C3008008858319858218D2AFCEF0A3E520F077
:1017D300A37808E608F0A3DEFAEFF0A3E58124FA84
:1017E300F8E608F0A3E608F0A3E608F0A30808E685
:1017F30008F0A3E608F0A315811581D0E0FED0E040
:10180300F8158115811581E8C0E0EEC0E0222518A6
:10181300C582C0E0E51934FFC583C0E0E518C39570
:101823008224F910AF08858319858218800885837F
:1018330019858218D2AFCEF0A3E520F0A37808E68D
:1018430008F0A3DEFAEFF0A3E58124FBF8E608F045
:10185300A3E608F0A30808E608F0A3E608F0A3153A
:10186300811581D0E0FED0E0F815811581E8C0E054
:10187300EEC0E022851983851882E0A3FEE0A3F57C
:10188300207808E0A3F608DFFAE0A3FFE0A3C0E0B6
:10189300E0A3C0E0E0A3C0E0E0A3C0E0E0A3C0E0B9
:1018A30010AF08858218858319800885821885837F
:1018B30019D2AFD083D08202012285198385188281
:1018C300E0A3FEE0A3F5207808E0A3F608DFFAE042
:1018D300A3FFE0A3C0E0E0A3C0E0E0A3C0E0E0A377
:1018E300C0E010AF088582188583198008858218A7
:1018F300858319D2AFD083D08222C0D02518C58268
:10190300C0E0E51934FFC583C0E0E518C395822420
:10191300F310AF088583198582188008858319859C
:101923008218D2AFC8F0A3E9F0A3EAF0A3EBF0A3C7
:101933007908E709F0A3D8FAECF0A3EDF0A3EEF0F1
:10194300A3EFF0A3D0E0F0A3D0E0F0A3D0E0F0A3A6
:10195300E520F0A3E5F0F0A322851983851882E042
:10196300C0E0A3E0F9A3E0FAA3E0FBA37808E0F664
:1019730008A3DFFAE0FCA3E0FDA3E0FEA3E0FFA3DE
:10198300E0C0E0A3E0C0E0A3E0F5D0A3E0F520A32E
:10199300E0A3F5F010AF08858319858218800885C8
:1019A3008319858218D2AFD082D083D0E0F8D0E0FB
:1019B3003274048006740280027401C0E0F40412DD
:1019C3001760D0E01216362274048004740280007B
:1019D300CCC0E0EDC0E0E518C39CCCAD1950011DAF
:1019E30010AF068C188D1980068C188D19D2AF1282
:1019F3001643D0E0FDD0E0FC22D083D082E9C0E0E2
:101A0300E493A3C386F0C5F095F0F908E493A386A5
:101A1300F0C5F095F0700BE493A3C3994005E90476
:101A23008002A3E475F002A42582F582E5F03583F4
:101A3300F583D0E0F9E493A3C0E0E493C0E022D0BF
:101A430083D082ECC0E0EDC0E0E493A3FCE493A375
:101A5300FDED4C600D121A8EEC24FFFCED34FFFDFE
:101A630080EFE493A3FCE493A3FDED4C600D121A05
:101A7300CDEC24FFFCED34FFFD80EFD0E0FDD0E0A2
:101A8300FCE493A3C0E0E493C0E022C0E0C3E4938A
:101A930096087401939618400FE4936670080874CF
:101AA3000193661870007019A3A3C3E49396087496
:101AB30001939618A3A3400DD0E0D0E0D0E0021A22
:101AC3007EA3A3A3A3A3A3D0E022C0E0C0F088F029
:101AD300E4936670080874019366187000A8F0A375
:101AE300A3700BD0F0D0E0D0E0D0E0021A7EA3A325
:101AF300D0F0D0E02274F5121811EAFEEBFFEE24C9
:101B030034F8EF3400F988088909EE2435F582EFBB
:101B13003400F583E0F8EE2437F582EF3400F583E3
:101B2300E0F50AEC850AF0A4FCAAF0850AF0EDA41E
:101B33002AFDE82CF8E43DF97A257B001216A5EA84
:101B4300850882850983F0F8740758F97401B90090
:101B5300028004C333D9FCFAE8131313541FF8EEBD
:101B630028F8EF3400F9E8245DF582E93400F583C1
:101B7300E05A6008EE2434F582EF802CEE2434F52D
:101B830082EF3400F583E0C0E0EE2436F582EF34D3
:101B930000F583E0F5F0D0E084A8F0EE28F8EF3408
:101BA30000F9E82438F582E93400F583E0F97F048D
:101BB3000218BD74F5121811EAFEEBFFEE2434F59A
:101BC30082EF3400F583E0C0E0EE2435F582EF3494
:101BD30000F583D0E0F08E828F83A3A3A3A3A3A3F6
:101BE300A3C082C0838E828F83A3A3A3A3A3E0F8A1
:101BF300A3E0F9D083D082E0C398F508A3E099F578
:101C030009EE247FF582EF3400F583E06401706907
:101C1300EE2480F582EF3400F583E0F8A3E0F98E3B
:101C2300828F83A3A3A3A3A3A3A3E0FCA3E0FD8EBE
:101C3300828F83A3A3A3A3A3E0FAA3E0FBC3EA9C3D
:101C4300EB9D5010C3EC98ED99402EC3EA98EB99A5
:101C53005027800EC3EA98EB994007C3EC98ED999F
:101C630040177CDC7D04EEFAEFFB120BA4EE247F1D
:101C7300F582EF3400F583E4F0EE2434F8EF34001A
:101C8300F9E8FCE9FDEE2435F582EF3400F583E055
:101C9300F8EE2437F582EF3400F583E0F50AE50822
:101CA300850AF0A4F508AAF0850AF0E509A42AF547
:101CB30009E82508F8E43509F97A257B001216A509
:101CC300EA8C828D83F0F8740758F97401B9000225
:101CD3008004C333D9FCFAE8131313541FF8EE2816
:101CE300F8EF3400F9E8245DF582E93400F583E088
:101CF3005A6008EE2434F582EF802CEE2434F5820A
:101D0300EF3400F583E0C0E0EE2436F582EF3400D3
:101D1300F583E0F5F0D0E084A8F0EE28F8EF340086
:101D2300F9E82438F582E93400F583E0F912260D49
:101D3300021BB1C082C083851882851983E0F8A392
:101D4300E0F9C3EA9CEB9D5010C3EC98ED99401B5E
:101D5300C3EA98EB995014800EC3EA98EB994007B5
:101D6300C3EC98ED994004790180027900D083D0C7
:101D73008222EAC39CFAEB9DFB2274EF12181190A6
:101D830003A2E064086005E06407702A9061C8E07C
:101D930060249003D0E0F4601DE0F875F003A4C85C
:101DA300AAF02AF974D228FE740339FF8E828F8336
:101DB300A3A3A3E07003021EAD906060E0C0E0EE59
:101DC3002468F582EF3400F583D0E0F0750C457597
:101DD3000D05750800750900E5D914F50AE5D95410
:101DE30003F50E60177403650E605CE50A6010EE80
:101DF3002467F582EF3400F583E07003021E9290AE
:101E03000540E06401602AEE2482F582EF3400F598
:101E130083E06004780480027800850A08E508C33B
:101E230098FA95E0FB120A728A088B09EA45097051
:101E330005120D968074EE2482F582EF3400F5834B
:101E4300E070048A0C8B0DE50A6012850C82850D07
:101E530083F50BE5D9F0A3150BE50B70F6EE2482A1
:101E6300F582EF3400F583E0604474FC250AF50A3B
:101E7300780C1219B8AC0AA90EEEFAEFFB120C405B
:101E83007402121746E97026AA08AB091212B87930
:101E93003D8E828F83A3A3A3A3E0FA7B001209469E
:101EA300EEFAEFFB120BBC120C5279008074740330
:101EB300650E6056850A1075110078101219B8ACBA
:101EC3000CAD0DAA08AB09120C1C7402121746EED6
:101ED3002468F582EF3400F583E064807004747F36
:101EE3008001E0F50C780C1219BCE50EF50C780CAA
:101EF3001219BCA90AAC08AD099003D0E0FA7B0023
:101F030012090A740212174680139003A2E06408B0
:101F1300600BAC0CAD0DEEFAEFFB120CAC120DA284
:101F230079017F0A0218BD74F512181174FC121797
:101F330030EAFEEBFF8908A2AFE433F509C2AF80B4
:101F43006AEE2463F8EF3400F97A007B00A2AFE471
:101F530033F50AC2AF88828983E0FCA3E0FDEC4D30
:101F6300603A88828983E0FAA3E0FB8A828B83E06C
:101F7300FCA3E0FD88828983ECF0A3EDF08A828BD9
:101F830083E4F0A3F088828983E0FCA3E0FDEC4DB9
:101F9300700A88828983A3A3E4F0A3F0E50AA2E090
:101FA30092AF1212B89004E3E004F0EE2463F582DA
:101FB300EF3400F583E0F8A3E0F9E849603DEE244F
:101FC30063F582EF3400F583E02402FAA3E03400E2
:101FD300FBEA2402F50AEB3400F50B780A1219B870
:101FE3008A828B83E0FCA3E0F9EEFAEFFB120BE0AD
:101FF3007402121746E97003021F449004E3E06081
:10200300639004E4E0F89004E3E0C398500C740296
:10201300650870509004E5E0604A8E828F83A3A325
:10202300A3A3E0851882851983F0A3E4F09004E369
:10203300E0F87402121799E8F0A3E4F09004E3E0E7
:10204300F89004E2E028F07402121799AC82AD8391
:10205300851882851983AA82AB83790112091690A8
:1020630004E3E4F0E509A2E092AF74041217460218
:102073001BB10000008521878522C622C0E0C0D0A5
:10208300E8C0E0E9C0E0EAC0E0EBC0E0ECC0E0EDAE
:10209300C0E0EEC0E0C008C009C00AC00BC082C0E7
:1020A30083C0F0A2AFE433FEC2AF759B00906182A0
:1020B300E0A2E05012E591A2E0500C7591FE74018C
:1020C30065217003121D7DE0A2E55051E591A2E563
:1020D300504B7591DF9003A2E064076005E064084C
:1020E300702374016521703579019003D0E0FA758E
:1020F300F003A4CAA8F028FB74D22AFA74033BFBAA
:10210300121F2A8018E0640D70139003C4E004F0DA
:1021130064287002E4F07A00E0F9120DA89061825D
:10212300E0A2E640030221C6E591A2E640030221B4
:10213300C67591BF9003A2E064057008120CD61215
:102143000CE28003120CDC752100120D36E99003BA
:10215300A3F07900120D2A120B1A7A017B00900367
:10216300A1E0F9121000907803E0644270559005E5
:1021730044E014F0704DC2AF12217E00782AD0E003
:10218300F618D0E0F6E59F540770057509FF800344
:1021930075097FC4C0E07829E6F50808E65509F516
:1021A30009740B780812170ED0E02508F8906270B6
:1021B300E0A2E740F8E8C333906272F0906270E007
:1021C300D2E0F0906181E0A2E35009E5E9A2E35097
:1021D3000375E9F7A3E0A2E75009E591A2E75003ED
:1021E30075917FEEA2E092AFD0F0D083D082D00B76
:1021F300D00AD009D008D0E0FED0E0FDD0E0FCD07A
:10220300E0FBD0E0FAD0E0F9D0E0F8D0D0D0E03273
:10221300C0E0C0D0C082C083906183E0A2E05009D7
:10222300E5BFA2E0500375BFFEE0A2E15009E5BFA0
:10223300A2E1500375BFFDE0A2E25009E5BFA2E2AF
:10224300500375BFFBE0A2E35009E5BFA2E35003CF
:1022530075BFF7E0A2E45009E5BFA2E4500375BFE0
:10226300EFE0A2E55009E5BFA2E5500375BFDFE04B
:10227300A2E65009E5BFA2E6500375BFBFD083D0E5
:10228300828088C0E0C0D0E8C0E0E9C0E0EAC0E0F6
:10229300EBC0E0ECC0E0EDC0E0C0F0E5A7A2E65083
:1022A3000FE5A1A2E6500953A7BF75A1BF1222EB08
:1022B300E5A7A2E5500CE5A1A2E5500653A7DF75FB
:1022C300A1DFE5A7A2E15009E5A1A2E1500375A1B1
:1022D300FDE5A7A2E2500CE5A1A2E2500653A7FB3D
:1022E30075A1FBD0F00221FC74F8121811752101BD
:1022F3009003A2E064067015120C708A828B83A38C
:10230300A3A3A3A3A3E0FAA3E0FB120CC4A2AFE42C
:1023130033FED2AF9003A8E0640170187A207B00EB
:102323009003A1E0F91210847A207B009003A1E0CE
:10233300F9121006906182E0D2E6F0900541E06068
:102343002185C62280169003A7E064017008E5C6C4
:1023530054F84405F5C653BEFC1220787401652178
:1023630060E4EEA2E092AF7F010218BD008E238FDE
:1023730024858228858327851882851983E0CEA347
:10238300E0CF852882852783EBC9EAC8EDCBECCA69
:1023930075F010C3E833C8E933C9EA33CAEB33CB6A
:1023A300C3EA9EF526EB9FF525B35004AB25AA2679
:1023B300EC33CCED33CDD5F0DAAE23AF242274ED7C
:1023C3001218118A088B098C0A8D0B741312179932
:1023D300780C1216007808790C1213FF751001752A
:1023E30011C875120075130050127808790C121574
:1023F3009F781079081213FF50168010780C790813
:1024030012159F7810790C1213FF40047901800292
:1024130079007F0C0218BD74ED1218118A088B091C
:102423008C0A8D0B7413121799780C121600780C02
:1024330079081213FF40117808790C12159FAA0826
:10244300AB09AC0AAD0B8022751000751100751233
:10245300007513017810790C12159F781079081202
:102463001566AA10AB11AC12AD1380A68A828B83BA
:102473007508FF7509FF750AFF750B0078081215BB
:10248300ED7F040218BD74F51218118C828D8378C8
:10249300081216008A828B8378081215B3EA240483
:1024A300F8EB3400F98C828D83A3A3A3A3E0FCA3F0
:1024B300E0FD88828983C3E09CF0A3E09DF08882DD
:1024C3008983C3E09420A3E0944E40268A828B83C1
:1024D3007508FF7509FF750AFF750BFF780812155C
:1024E3008C8A828B83A3A3A3A3E02420F0A3E034EC
:1024F3004EF002246F74F5121811E9FE9004F7E010
:10250300FAA3E0FBEEC333F8E433F974C028F58291
:10251300748139F583E02AF508A3E03BF5097808CF
:102523001219B87A407B427C0F7D0012237074022B
:102533001217468A088B098C0A8D0B7410780812BF
:10254300152EAA08AB097F040218BD74F1121811E5
:102553008A0C8B0D8C0E8D0F740F121799E0FAA352
:10256300E0FB7411121799E0F508A3E0F509780868
:102573001219B8EA2401F508EB3400F509E4F50A69
:10258300F50B780C790812143E75087175090278F9
:102593000C790812143EAA0CAB0DAC0EAD0F12232E
:1025A3007074021217468B09EA450960047A0180A8
:1025B300027A00EC2AFCED3400FD7413121799E043
:1025C300F8A3E0F9E8FEE9FFECF8EDF97A717B0294
:1025D3001216A5880889098E828F83780812160F30
:1025E300ECF8EDF97A717B021216A58A088B09744F
:1025F30005780812171D8E828F83A3A3A3A3E50872
:10260300F0A3E509F07F080218BDC082C083E990FA
:102613006000F0D083D08222C2AF02000022C0E06B
:1026230074F21218FDA2AFE433FED2AFC2C0E5D1FB
:10263300A2E4500653D1EF121276EEA2E092AF7FDE
:102643000102195CC0E074F21218FDA2AFE433FE7C
:10265300D2AFE589A2E05003121222758900C2C5E8
:10266300EEA2E092AF7F0102195CC0E0C0D0E8C0E7
:10267300E0E9C0E0E5A8D2AFC2C7A2E7A2E792AF04
:10268300D0E0F9D0E0F8D0D0D0E032C0E0C0D0E85C
:10269300C0E0E9C0E0C008C009C082C083A2AFE4C3
:1026A30033F9D2AF9009E2E0F8A3E0687008539AD7
:1026B300FBA374018026C2E99009E2E0F5087401E6
:1026C3002508F074622508F58274093400F583E067
:1026D300F5C19009E2E0C394804002E4F0E9A2E08E
:1026E30092AFD083D082D009D008D0E0F9D0E0F8FF
:1026F300D0D0D0E032FFFFFFFFFFFFFFFFC082C05B
:1027030083E9900C91F002298F74F71217A5E990D1
:1027130002E1F07C197D037AFF7BFF12085C9002D3
:10272300E274FFF0A3F0A3E4F0A3F079051207E449
:102733009002E1E0F91207067A7A7B08120A247FF5
:102743000102187774F41217A58A088B09EB5480D9
:1027530060309002E1E0F9120FE88A0A8B0BAE0AAF
:10276300AF0BEE4F60138E828F83E064B070031261
:1027730007FCEEFAEFFB120FD6AA08E5096480FB0B
:1027830080047A007B0002295E74F21217A574FCA0
:10279300121730EAFEEBFFEE4F60387402121799FE
:1027A300EEF0A3EF122BC3ECF0A3ED122BC3AA821E
:1027B300AB83120700E9F5087073741212179912AC
:1027C3003777E50A450B60658E828F8312283AEED0
:1027D3004F700575080280557A067B0012103C8AFB
:1027E3000C8B0DA80CA90DE8497005750813803DE5
:1027F30088828983E4122844A3A3EEF0A3EF123C5A
:1028030010E50AF0A3E50BF09002E71228CC900242
:10281300E76017E0FCA3E08003EAFCEBFD8C828D0C
:10282300831228CC70F38C828D8312369CA9087492
:1028330004121746023E12A3A3A3A3E0FEA3E0FFE4
:1028430022F0A3F0888289832274F21217A5890AE1
:10285300E975F017A4FEAFF09002E6E4F09002E40D
:102863001228CC600A1210429002E4E4F0A3F0EEC6
:10287300FAEFFB12103C8A088B09EA4509602FEE38
:10288300FCEFFD7900120FBE9002E4E508F0A3E52A
:1028930009F07B0080081228B6E4F0A3F00BEBC329
:1028A300950A40F2E50A9002E6F079008002791376
:1028B300023E12EB75F017A4F8A9F09002E4E028A9
:1028C300FAA3E0398A82F58322123432EA4B227466
:1028D300F41217A5750800750900740C12179912E4
:1028E3003BE4FEE9FF800CE5082401F508E5093423
:1028F30000F509C3E5089CE5099D503285080A8562
:10290300090B7403780A12171DEA250AF8EB350B35
:10291300F988828983A3A3A3A3A3A3123777EE65C0
:102923000A7003EF650B70BFE8FAE9FB80047A00D5
:102933007B00802774F41217A57900EAA2E0501BEC
:102943007508A575098278081219B87C047D007A88
:10295300937B0C1207DE74021217467F040218776A
:10296300C082C0839002E7122996601C8882898303
:10297300A3A3E06A7003A3E06B8882898370E8A352
:10298300A3A3A312342E80047A007B00D083D082C9
:10299300020122123EE5E8492274EE1217A574FCE7
:1029A300121730EAFEEBFF851882851983E4F0A342
:1029B300F0EE2402123680EE2405122BB1EE24042D
:1029C300F50EEF122F96E024FE603924FC604624B6
:1029D300FE605224FE605E24FE7003022AB624FECB
:1029E3007003022B2E24FE7003022B3D24FE700382
:1029F300022B4C24FC7003022B5B24FE7003022B7E
:102A03006A022BA79003007417F0A3E4122BCB12D6
:102A1300047E022BA7851882851983AC82AD8312AD
:102A23000802022B77851882851983AC82AD831245
:102A33000808022B77850C08850D09740212179973
:102A4300AC82AD8385088285098312342E12072454
:102A53008A0C8B0DAC0CAD0DEC4D6042E4F50CF51E
:102A63000D780C1219B8750C00750D03780C12193A
:102A7300B8750C01750D03780C1219B87408121788
:102A8300991219CF791612342812084474081217B0
:102A930046E9F50C700B123424120496800F750C62
:102AA30001850882850983122BB912369C850C088F
:102AB300022B7A7402121799AC82AD83850C82853E
:102AC3000D8312342E1207248A108B11AC10AD1112
:102AD300EC4D6043850C82850D83A3A31219CF753A
:102AE300100075110378101219B8751001751103D0
:102AF30078101219B874081217991219CF7916128F
:102B030034281208447408121746E9F509700B12A9
:102B1300342412049C800F750901850C82850D8372
:102B2300122BB912369C850908804C8518828519A9
:102B330083AC82AD8312080E803A8518828519838F
:102B4300AC82AD83120814802B851882851983AC5F
:102B530082AD8312081A801C851882851983AC8282
:102B6300AD83120820800D851882851983AC82AD50
:102B730083120826E9F508E50860298E828F83A36E
:102B8300E06414601F850E82850F83E090030012BA
:102B93002BC3123EE190030112369CE508A3122BCE
:102BA300CB120478EEFAEFFB1207A2023588F50C7C
:102BB300EF3400F50D22123EE58518828519832234
:102BC300F085188285198322F07C007D03850A82B3
:102BD300850B831234322274EE1217A574FC12177C
:102BE300308A0A8B0B8C0E8D0FEA2405F508EB3423
:102BF30000F5097C157D0079007A007B03120FBE76
:102C0300E5082402F50CE509122BB4851882851911
:102C13008385821085831178101219B885088285FF
:102C23000983A3A3A3A31230DE1219B8E508240570
:102C3300F510E5093400F51178101219B8850C82E6
:102C4300850D8312343812071E74061217468A1034
:102C53008B11AE10AF11E50A2402F50AE50B12360B
:102C630083EE4F7003022DA080177402121799127E
:102C7300342E88828983EAF0A3EBF0900300E0040A
:102C8300F0900300E0C394054003022DA0E4F51087
:102C9300F51178101219B87510E975110278101230
:102CA30019B87510EA75110278101219B874061262
:102CB30017991219CF7910EEFCEFFD123428120880
:102CC300447408121746E9705E850882850983A358
:102CD300A3A3A3A3A3A3E0F89002E9E068704812BA
:102CE30030DE1219B87CEA7D02E5082408FAE5090A
:102CF3003400FB120FB87402121746E960298E8262
:102D03008F83A3A3A3A312342E900300E0F51074C2
:102D130002781012171D74012510F5827403351102
:102D2300F583EAF0A3EBF0740212179985821085FC
:102D3300831178101219B874021217991219CF85DA
:102D43000C82850D83123EF612072A74041217466D
:102D53008A108B11AE10AF11900300E0F5107511BE
:102D6300007402781012171D74002510F8740335CF
:102D730011F988828983A31228CC7003022C64E89A
:102D83002403F8E93400F9EE4F6003022C6D8882C6
:102D9300898374FFF0A3F0900300E004F090030034
:102DA300E0600A12342412048A7900800B850882B9
:102DB300850983123693790A02358874EA1217A5B6
:102DC30074FE1217308C128D13EA2405F50CEB12E6
:102DD300406012283E750800750900EA2402F510C8
:102DE300EB3400F51185188285198385820A858362
:102DF3000B780A1219B8850C82850D83A3A3A3A3AC
:102E0300122FA01219B8E50C2405F50AE50D1236A8
:102E130083780A1219B8850C82850D83123EF41249
:102E2300071E74061217468A0A8B0BEA450B7003BA
:102E3300022F51EA2404F50EEB122F9612283E8A34
:102E4300828B83A3A3A3E0F98510828511831234B7
:102E53002E12070CE9F5096003022F51E4F514F56E
:102E63001578141219B87514E97515027814121926
:102E7300B87514EA75150278141219B87406121786
:102E8300991219CF7913AC0AAD0B85108285118382
:102E930012342E1208447408121746E9F509600328
:102EA300022F519002E9E0F8E5087009E02402904E
:102EB3000301F08017900301E0FCE82402FAE434F4
:102EC30000FBEA6C7001EB6003022F55850882AAB0
:102ED300821230D594141230CD5073850E82850F33
:102EE30083E0C0E074022A122F8DD0E0F00508853C
:102EF3000E82850F83A3E0C0E085080A7402250AC9
:102F0300122F8DD0E0F005089002E9122FA01219BC
:102F1300B87CEA7D0285080A7402250AFA74033430
:102F230000FB120FA674021217469002E9E025086F
:102F3300F50874FF6E700374FF6F6012EE24010EC8
:102F4300EF3400FFE508C394145003022DE8E508AD
:102F5300601312331985108285118312342E1204E3
:102F63009079008014E509700375090A851282853A
:102F73001383EEF0A3EFF0A90974021217467F0E34
:102F830002187785080C7402250CF582740334004B
:102F9300F583223400F50F850E82F58322123C233C
:102FA3002274EE1217A574FE1217308C0E8D0FEAE1
:102FB3002405F50CEB122BB4750B00900300E4F021
:102FC300F50AEA2402F508EB3400F5098049900379
:102FD30000E0FA9002E9E0F81230D594171230CDF0
:102FE300400D900300E0F87416C3989002E9F012C4
:102FF30030DE1219B87CEA7D0274012AFA740334B4
:1030030000FB120FA674021217469002E9E0F89033
:103013000300E028F0050AE50C2416F582E50D12FD
:103023002F91E0F8E50AC39840030230B6900300FD
:10303300E0C39416507DE50AC333F8E433F9E50C95
:1030430028FEE50D39FF851882851983AC82AD838F
:103053008E828F8312342E1207248A108B11AC10A8
:10306300AD11EC4D7005750B018043E4F510F511BE
:1030730078101219B87510E975110278101219B881
:103083007510EA75110278101219B874061217999F
:103093001219CF791685088285098312342E1208F6
:1030A300447408121746E9F50B7003022FD1123648
:1030B3008F80107C007D0385088285098312342E5E
:1030C3001204A2A90B740202358AE99400C365D0E5
:1030D3003322EA28F8E43400F9E822E0F510751108
:1030E3000078102274EA1217A574FC1217308A0CA8
:1030F3008B0D8C128D13EA2405F50AEB12368375BA
:103103000800750900E50A2402F510E50B3400F503
:1031130011740212179985820E85830F780E121986
:10312300B8850A82850B83A3A3A3A3123BCF1219ED
:10313300B8E50A2405F50EE50B3400F50F780E12F9
:1031430019B8851082851183123689123428120723
:103153001E74061217468A0E8B0FAE0EAF0FE50CC8
:103163002402F50EE50D3400F50F80408882898333
:1031730074FFF00508122F8674FFF005089002E92A
:10318300E0F50C750D00780C1219B87CEA7D028508
:10319300080C7402250CFA74033400FB120FA67496
:1031A300021217469002E9E02508F508EE4F607118
:1031B3008E828F83A3A3A3E0F9850E82850F8312EA
:1031C300342E12070CE9F509EE2404122BB1E97031
:1031D30044E4F514F51578141219B87514E9751546
:1031E3000278141219B87514EA75150278141219B5
:1031F300B874081217991219CF7911EEFCEFFD85F7
:103203000E82850F8312342E120844740812174657
:10321300E9F5096027850C82850D8312330F123679
:103223009CE50870030232F5123319850E82850F6F
:103233008312342E1204A8790002330A850882AA65
:1032430082EA9002E97009E02404900301F08022ED
:10325300E0F8900301E0F514E82404FCE43400FDF5
:10326300EC65147001ED70C01230D594121230CD9C
:1032730050B6850C82850D83E0C0E074022A122FBC
:103283008DD0E0F00508850C82850D83A3E0C0E0B6
:10329300122F86D0E012332B85820C85830D780C98
:1032A3001219B874041217991219CF851082851157
:1032B30083123EF612072A74041217468A0C8B0DEA
:1032C300AE0CAF0D85080C7402250CF874033400A2
:1032D300F9EE4F700302316F851882851983E088F8
:1032E30082898312332BA3E0C0E0122F86D0E00241
:1032F300317DE509700375090A850A82850B8312FE
:10330300330F12369CA9097404022F7E123EE58501
:10331300128285138322900301E0F5F0E50884907F
:103323000300F07C007D0322F005088518828519CF
:10333300832274EC1217A574FE1217308A088B09C6
:103343008C0E8D0FEA2405FEEB3400FF8518828571
:103353001983AC82AD838E828F8312342E1207249D
:103363008A0A8B0BEE2418122BB1EA450B70030269
:1033730033FF123571503285188285198312342E2A
:103383001208388A108B11EA4511606B7912AC0A66
:10339300AD0B85088285098312342E851082851131
:1033A300831217A3E9F50A7058E4F50AF50B780AB6
:1033B3001219B88E828F83A3A3E0F50A780A121933
:1033C300B8EE2403123680780A1219B88E828F83DE
:1033D30012343812084A7406121746E9F50A7021A6
:1033E300850C82850D83E0701F8508828509831211
:1033F300342E1204AE8011750A0E8009750A0180FD
:1034030004E50A600312368F850C82850D83E06024
:103413000479008002A90A74021217467F0C02186D
:10342300777C007D03850A82850B8312343222E088
:10343300FAA3E0FB22E0FCA3E0FD85088285098373
:103443001234322274EE1217A574FE1217308A0852
:103453008B098C0C8D0DEA2405FEEB3400FF750EF1
:1034630000851882851983AC82AD838E828F831287
:10347300342E1207248A0A8B0BEA450B700302359C
:103483005D123571503585188285198312342E12D9
:1034930008388A0E8B0FEA450F605E7912AC0AADCD
:1034A3000B85088285098312342E850E82850F834E
:1034B3001217A3E9F50E60030235608508828509BA
:1034C30083123777AA0AFB12082C8A108B11A810D3
:1034D300A911E849701E7AFF7BFF12082C8A108B12
:1034E30011A810A911E849606C88828983E50AF064
:1034F300A3E50BF0750A008007750E0E805F050AC1
:103503009002E6E0FAE50AC39A504AE50A75F01715
:10351300A4FAABF088828983A3A3E02AFAA3E03B51
:10352300FB8A828B83123689EC4D70D2750A17752C
:103533000B00780A1219B8EEFCEFFD120FA6740205
:10354300121746EEFCEFFD85088285098312342E9F
:103553001204B48014750E098003750E01123EDD4A
:10356300850C82850D8312369CA90E0230C8E508AE
:103573002402F508E5093400F5098A828B83A3A3A5
:10358300A3E0A2E52274041217467F0A0218777497
:10359300EC1217A58C108D11EA2405F50CEB122BF8
:1035A300B4750F00EA2402F50AEB123683850A820A
:1035B300F58312342E12082C8A088B09EA45097008
:1035C30003023675750E008071850C82850D83E0CC
:1035D3006401704F8E828F83A3A31219CF8E828FC3
:1035E30083A3A3A3A3E0F51275130078121219B8ED
:1035F300EE2405F512EF3400F51378121219B81200
:10360300342812084A7406121746E9F50F60148528
:103613000C82850D83E4F0123EDD851082851183D3
:1036230012369C7C177D007900EEFAEFFB120FBE79
:103633008E828F83E4F0A3F0050E9002E6E0F8E5B6
:103643000EC398501EE50E75F017A4F8A9F085086F
:1036530082850983A3A312406A123689EC4D600365
:103663000235CC85088285098374FFF0A3F0E50F4A
:1036730070061234281204BAA90F02341FF50AEF98
:103683003400F50B22A3E0FCA3E0FD228E828F839E
:10369300123EE5850E82850F83E8F0A3E9F022C090
:1036A30082C0839002E2E06A7003A3E06B70067A43
:1036B300E27B0280047A007B0002298FC082C083F0
:1036C30078008C828D83E06A7003A3E06B7010E84E
:1036D30075F003A4F8A9F0EC28FAED39FB8015087E
:1036E3008C828D83A3A3A3E06A7003A3E06B60DFE6
:1036F3007A007B0002298F74F61217A51207F68A47
:10370300828B83E582458370067A007B008007A362
:10371300A3A3A312342E023D8E74F21217A5E9FE61
:10372300740E1217991237777410121799123BEF10
:103733008C828D83E064027036A3123EEBF50CA3FA
:10374300E0F9A80C74026870037429697021750C80
:1037530002750D00780C1219B878081219B8780A96
:103763001219B8EEF912086E740612174680027920
:1037730001023E12E0F50AA3E0F50B2274E81217EA
:10378300A574FB121730E9851882851983F08A1610
:103793008B17ECFEEDFF751000741D121799123E86
:1037A300E1741D12179912369C8E828F83A3A3A3F3
:1037B300E0A2E4502D741D12179912342E1208380A
:1037C3008A828B83E58245837003023BC0790AEECC
:1037D300FCEFFDAA16AB171217A3E9F5106003025D
:1037E3003BC3741F121799123BEF742112179912DE
:1037F30037777423121799E0F50EA3E0F50F8E8245
:103803008F83E064026003023B6EA3123EE18508EE
:1038130082850983A3858212858313EE2406122BE6
:10382300B188828983E0FAA3E0F9EA2400F514E47D
:1038330039F5157814121A4201000028012863385B
:103843000700022828390328953800295F3A0129FF
:103853008A3A02292B3A03295F3A0429093B6E3B32
:10386300E50E450F6003023B69850C82850D8312CB
:103873003BE4FAE9FB8A828B83E0850A82850B832A
:10388300123C1A1219B88A828B83A3E0FCA3E002CC
:103893003AF3E50E450F6003023B69850A82850B07
:1038A300837401F0123BF7850882850983F07C005D
:1038B3007D008E828F83A3A3A3A3E02401FAA3E058
:1038C3003400FB120724EA4B60418A828B83E02495
:1038D30002F8850A82850B83E028F0EA2404F8EBDA
:1038E3003400F988828983E0851282851383123C30
:1038F3002C123C1A1219B88A828B83123688E50877
:103903002403FAE5093400FB023AF8850A82850BA1
:1039130083E02404F07C047D007900AA12AB131227
:103923000FBE023BC3E50E450F6003023B69123B2A
:10393300F7FEA3E0FF850A82850B837404F0EE850E
:103943000882850983F0EF851282851383F074035F
:10395300121799AC82AD83EEFAEFFB1207248A0C9F
:103963008B0DEA450D7003023A0C8A828B83A3A365
:1039730012283A740112179985820E85830F780EE7
:103983001219B874051217991219CF7CFF7DFF1213
:10399300072A74041217468B0FEA450F7033850C00
:1039A30082850D83123BCF1219B8850C82850D8356
:1039B300A31219CF7C027D007A597B8312055674BA
:1039C30004121746E9700A740112179974FFF0A3E1
:1039D300F08E828F83E064027039750C02750D00DE
:1039E300780C1219B88E828F83123688E508240466
:1039F300FAE5093400FB120FA67402121746850A72
:103A030082850B83E0240280097401121799EEF07A
:103A1300A3EFF07401121799123BE0F0740112172F
:103A230099A3123BD8023B63E50E450F6003023BAB
:103A330069850C82850D83123689AA16AB17120885
:103A430062850A82850B837402F0EA850882850900
:103A530083F0851282851383EB023B66E50E450FE7
:103A63006003023B69123BF7F8A3E0F9850A8285FC
:103A73000B837402F0E8850882850983F0E98512D7
:103A830082851383023B66850C82850D8312342E57
:103A9300120FA0EAFC8C82A882C3950EE4950F4016
:103AA3005FE8650E7002E50F70047C0080228518C4
:103AB30082851983E0FAE50E2AFAE50F3400FBC389
:103AC300EA98EB94005003E08005E50ECCC39CFC20
:103AD300EC850A82850B83F08C0A750B00780A1239
:103AE30019B8850C82850D83E0250EFCA3E0350F04
:103AF300FDAA08AB09120FA67402121746023BC3B4
:103B0300751007023BC3E50E450F705A850C82857D
:103B13000D83123EE1850A82850B837407122846C2
:103B2300123BD8122846A3E0851282851383F0E85E
:103B33002402FAE93400FB8A828B83123BD8123CBD
:103B430007123BE0A3123C10123BE9F0E82405F80E
:103B5300E93400F988828983123BE9A3123C2CA340
:103B6300A3A3A3F0805A75100B8055741D121799E7
:103B730012342E1207F68A828B83E5824583603DD9
:103B8300123EE1880C890DE8450D6031780E12195B
:103B9300B8780A1219B878081219B8740612179966
:103BA300E0F9EEFCEFFDAA16AB17850C82850D83B9
:103BB3001217A37406121746E9F510800375100E49
:103BC300A91074051217467F10021877E0F50E75D9
:103BD3000F00780E22E085088285098322123C3685
:103BE30022123EE5E822123C36A3A322E0F508A305
:103BF300E0F50922850C82850D83E0F8A3E0F583C7
:103C03008882E022A3A3F08A828B83A322F0888296
:103C13008983A3A3A3A322F08A828B83123C23224A
:103C2300E0F50A750B00780A22F088828983A312D3
:103C33003C3622E0850882850983A3A32274EE1211
:103C430017A574FE1217308A0A8B0BECFAEDFB747E
:103C530014121799E0F510A3E0F5117416121799D1
:103C6300E0FE7418121799E0F50EA3E0F50F85181E
:103C730082851983AC82AD831207248A0C8B0DEAEB
:103C8300450D604985188285198312342E1207F673
:103C93008A828B83E5824583602FA3A3123BEFE5E2
:103CA3000845096024780E1219B878101219B8EE75
:103CB300F9AC0CAD0DAA0AAB0B85088285098312FA
:103CC30017A374041217468006790E800279010245
:103CD30030C874F61217A574FE121730740C12173D
:103CE30099123BE4851882851983F07401121799A0
:103CF300E9F0E4F508F50978081219B875080278AF
:103D0300081219B8740412179985820885830978F3
:103D1300081219B812084A740612174674021217C9
:103D230046806874F71217A5EAFEEBFF89087C1931
:103D33007D03120862EA5402600BA908EEFAEFFB56
:103D43001207188002790102274274F61217A5742C
:103D5300FF6A700374FF6B70168C828D83123D9320
:103D6300E4F08C828D83A3A3A3123D93A380181246
:103D730008328A088B09A808A909E849600D8882D6
:103D8300898374FF122844A3A3E4F07F0202187707
:103D930074FFF0A3F08C828D83A3A32274F6121711
:103DA300A51208328A828B83E58245836006A3A32A
:103DB300E0FA80027A007B0080D174F21217A58AA0
:103DC300088B09ECFEEDFF740E121799E0F50A1249
:103DD30008328A0C8B0DA80CA90DE8497026EEFC5D
:103DE300EFFD7AFF7BFF1208328A0C8B0DA80CA91A
:103DF3000DE84970047911801688828983E508F0FB
:103E0300A3E509F088828983A3A3E50AF079007FFB
:103E13000602187774EE1217A5EAFEEBFF8C088DE5
:103E230009890C7414121799123EE174161217992A
:103E330012342E750D00E8496003023ED574026505
:103E43000C6003023ED07412121799123EEBFCA3CE
:103E5300E0F9EC2400F50EE439F50FEAF4F8EBF49D
:103E6300F9EC58F8E50F59F9E849705CE5082406C0
:103E7300F8ED3400F9880A890B8882F583123EF63F
:103E83001208628A108B11E50E65107004E50F6548
:103E9300116042780E1219B8850A82850B83123E8F
:103EA300F61208687402121746E9F50D7027780EAA
:103EB3001219B8850882850983A3A3123EF4120858
:103EC300807402121746800D750D808008750D0DE4
:103ED3008003750D0BA90D02358D8E828F83123EE3
:103EE300E522E0F8A3E0F922123EE588828983E027
:103EF30022A3A3E0FCA3E0FDEEFAEFFB2274E81299
:103F030017A574E7121730851882851983EAF0A381
:103F1300EBF08C168D17890E750800750900743146
:103F2300121799E0F512A3E0F5137433121799E011
:103F3300F514A3E0F5157435121799E0F50FE509AB
:103F430075F003A4F8A9F085188285198312406AD5
:103F5300E0F47003A3E0F4700302404DEE2402F595
:103F63000CEF124060E0700302404D85160A85177E
:103F73000B780A1219B8AC14AD15AA12AB131207B9
:103F8300EA74021217468A0A8B0BEA450B70030286
:103F9300404DE4F510F51178101219B87406121794
:103FA3009985821085831178101219B87409121734
:103FB3009985821085831178101219B8851282852C
:103FC3001383A3A3A3A31219CF7914AC0AAD0B8E49
:103FD300828F8312342E1208447408121746E97034
:103FE30069850A82850B83A3A3A3A3123EE174020E
:103FF30012179912369C850C82850D83E0A2E0503E
:1040030018A90E7402121799AC82AD838E828F8326
:1040130012342E12073CE94208850C82850D83E099
:10402300A2E15026E50FF50A780A1219BCA90E740D
:1040330003121799AC82AD838E828F8312342E12B2
:1040430007367401121746E942080509E509C394C6
:10405300025003023F41A9087419023BC73400F51B
:104063000D850C82F58322E028FEA3E039FF8E82C2
:104073008F832274F21217A5EAFEEBFF890B7401FA
:10408300650B600E7402650B706A7901120A42E9CE
:104093007062EEFAEFFB12082C8A088B09EA4509D5
:1040A3006047750A00800B7C177D007900120FBEF4
:1040B300050A9002E6E0F8E50AC3985021E50A757F
:1040C300F017A4F8A9F0850882850983A3A3E02843
:1040D300FAA3E039FB8A828B8312299670C985087B
:1040E3008285098374FFF0A3F07C197D03EEFAEF58
:1040F300FB12085C023E1274F21217A58A088B09A0
:10410300ECFEEDFF740E121799123777900C91E0C5
:10411300F4603D7A097B00120FD0EA4B60328A8249
:104123008B8374B1F0A3E4123C09A3123C07A3E50B
:1041330008F0A3E509124156EEF0A3EF124156A38E
:10414300A3E50AF0A3E50BF0900C91E0F9120FDC64
:10415300023E12F08A828B83A3A3A3A3A322C0826D
:10416300C0839061907404F0A37448F0A37402F0C8
:104173009061807440F09061BC7403F09061877427
:1041830019F0906265741BF0906249E0C394139038
:10419300619C400A7409F090606674018007740D95
:1041A300F0906066E4F090619A7433F0A37455F074
:1041B3009061A0743AF090053FE064017009C291E8
:1041C3009003A6746780059003A67461F09026FEA1
:1041D300E493906186F09026F8E493F46027E493E7
:1041E300540FF8906185E0686012E5C65480444935
:1041F300F5C6E59E547F644970F8E8F053C680E540
:104203009E547F70FA7905120D8A02438FC082C0D3
:1042130083E5A8F853A87E906181E4F0A3F0A3F0AE
:10422300C2BA539AFEC289759B00C2C275E9007572
:10423300910075BF0075A91175B905906181F0A34F
:1042430074C0F0A3E4F0D2BA439A0174805842A830
:1042530002438FC082C08374F81217309003A4E026
:10426300F8A3E0F9E84970030243849003A4E054FF
:104273004060237908851882851983AA82AB83124B
:104283000BFE851882851983AA82AB831208F290EC
:1042930003A4E054BFF0E054806010790C7A657B8E
:1042A30005120BFE9003A4E0547FF0E0A2E050312E
:1042B30090619A7433F0A37455F09061A0743AF04E
:1042C30090053FE064017009C2919003A674678072
:1042D300059003A67461F01208F89003A4E054FE5D
:1042E300F0E05402603190619A743FF0A3745AF085
:1042F3009061A0747FF090053FE064017009D29152
:104303009003A6747180059003A6746AF01208F8EE
:104313009003A4E054FDF0E0540460139026FCE401
:1043230093906186F01208FE9003A4E054FBF0E042
:10433300540860139026FDE493906186F01208FE02
:104343009003A4E054F7F0E0541060139026FEE4C9
:1043530093906186F01208FE9003A4E054EFF0E01E
:104363005420600A1208FE9003A4E054DFF0A3E097
:104373005401600D120B261209049003A5E054FEAC
:10438300F0740812174602438FF0A3F0D083D08253
:1043930002012274EC1217A574F4121730851882E7
:1043A300851983AC82AD8375838375820874041287
:1043B30016439026FC93F46003024522907808E0AC
:1043C300C3940250030245027404121799AC82ADE0
:1043D30083758382758286740812164385188285D5
:1043E30019838582128583137404121799AC82ADE5
:1043F30083750EFF750FFF7FFF7E00750C48750DEB
:1044030078801574086E700302449674096E700305
:10441300024496740A6E607B850C82850D8378084E
:104423001216008C828D83A909E50AC9F8881074D5
:1044330018780812152EE5104508F8C3E098A3E094
:1044430099850C82850D83780812160040188C829A
:104453008D837418780812152EE5104508F8E0C30B
:1044630098F8A3E0801C7418780812152EE51045FF
:1044730008FAE9FB8C828D83E0F8A3E0F9EAC3989C
:10448300F8EB99F9C3E8950EE9950F5006880E8964
:104493000FEEFF0EE50C2404F50CE50D3400F50DCD
:1044A300EEC39413500302440674FF650E70047444
:1044B300FF650F60238F087402780812171D744874
:1044C3002508F58274783509F58378081216008576
:1044D3001282851383E508F0EC2402FCED3400FD21
:1044E300851282851383A3858212858313740C122C
:1044F3001799E5826C7003E5836D60030243F475DD
:10450300080175090078081219B87402121799ACDA
:1045130082AD837ABF7B091211EC740212174674C1
:104523000C1217467F0C021877C082C0839061AECD
:104533007468F0A3746AF090624574FBF0A304F00E
:1045430053F4FD43FE0290053F7401F09061A0E037
:10455300643A90619A70237433F0A37455F09061B8
:10456300A0743AF0740164017009C2919003A674B7
:104573006780289003A674618021743FF0A3745A66
:10458300F09061A0747FF0740164017009D291907E
:1045930003A6747180059003A6746A02438E7F0894
:1045A300021877C082C0839004F1E06401700A901E
:1045B30004F6E06004790C8002790002438FC08224
:1045C300C08375E1F19004F4E0605B14600914604A
:1045D3005F14605714705E120B389004EAE0F97AA6
:1045E300EB7B04120D0C7AD67BBE7C897D8E120D7B
:1045F300427A557B557C557D00120D189004F5E0E9
:10460300F9120D247901120D7E9004E8E0F8A3E07D
:10461300C82416F582E83400F5837450F0A3740BB4
:10462300F0790002438F120B3E80AF120B4480AA35
:10463300120B4A80A5791280EA74F01217A575D976
:104643000D9004D5E0A2E0E4331313F89004EAE0FC
:10465300C4333354C0484401F5D978E879048882D7
:104663008983A3A3A3E0F5D988828983A3A882A918
:1046730083E864EE7003E9640470E378D579048811
:10468300828983A3E0F5D988828983A3A882A98339
:10469300E864DB7003E9640470E575E1959004D583
:1046A300E0F97AD67B04120D12900CB374EAF0A3EE
:1046B300740AF0A37446F0A3740CF0A37446F0A339
:1046C300740CF0A37446F0A3740CF0A374F0F0A37D
:1046D300740AF0A37446F0A3740CF0A37408F0A357
:1046E300740BF0900CC17446F0A3740CF0A37446E1
:1046F300F0A3740CF0A37446F0A3740CF0A37446F7
:10470300F0A3740CF0A37446F0A3740CF0A37446E6
:10471300F0A3740CF09004F4E064019004E87012C8
:10472300E0F8A3E0F5838882A3A375080075090860
:104733008010E0F8A3E0F5838882A3A375080475CD
:104743000900750A00750B007808121579750CFFBE
:10475300750DFF750EFF750F007808790C1215C7DC
:104763009004E8E0F8A3E0C8240EF582E83400F5ED
:1047730083780812160F9004E8E0F8A3E0C8241425
:10478300F582E83400F5837413F09003A27402F009
:104793000245A174F71217A59004FAE02407F5D98E
:1047A3009004EAE0C4333354C0F5D978E879048837
:1047B300828983A3A3A3E0F5D988828983A3A882EE
:1047C300A983E864EE7003E9640470E39004FAE0FB
:1047D300601F78E87904FAE82413F582E93400F5D8
:1047E30083E0F5D988828983A3A882A9831AEA7012
:1047F300E690051AE02407F5D99004EAE0C43333C0
:1048030054C04404F5D978E8790488828983A3A342
:10481300A3E0F5D988828983A3A882A983E864EEFB
:104823007003E9640470E390051AE0601F78E87987
:1048330004FAE82433F582E93400F583E0F5D988F6
:10484300828983A3A882A9831AEA70E675E1959009
:104853000CB374F6F0A3740AF0A37446F0A3740CBB
:10486300F0A37446F0A3740CF0A37446F0A3740C85
:10487300F0A374F0F0A3740AF0A37446F0A3740CCD
:10488300F0A37408F0A3740BF0900CC17446F0A36A
:10489300740CF0A37446F0A3740CF0A37446F0A355
:1048A300740CF0A37446F0A3740CF0A37446F0A345
:1048B300740CF0A37446F0A3740CF09004E8E0F8D1
:1048C300A3E0C8240EF582E83400F58374FFF0A357
:1048D300F0A3F0A3F09004E8E0F8A3E0C82414F5F3
:1048E30082E83400F5837412F09003A27401F0FFA0
:1048F30002187774F71217A59004FAE02407F5D984
:104903009004EAE0C4333354C04402F5D978E8791B
:104913000488828983A3A3A3E0F5D988828983A32A
:10492300A882A983E864EE7003E9640470E3900449
:10493300FAE0601F78E87904FAE82413F582E93491
:1049430000F583E0F5D988828983A3A882A9831A15
:10495300EA70E675E195900CB37402F0A3740BF062
:10496300A37402F0A3740BF0A37402F0A3740BF00E
:10497300A37402F0A3740BF0A37402F0A3740BF0FE
:10498300A37402F0A3740BF0A37408F0A3740BF0E8
:10499300900CC17446F0A3740CF0A37446F0A37496
:1049A3000CF0A37446F0A3740CF0A37446F0A37444
:1049B3000CF0A37446F0A3740CF0A37446F0A37434
:1049C3000CF09004E8E0F8A3E0C8240EF582E83484
:1049D30000F58374FFF0A3F0A3F0A3F09004E8E0E4
:1049E300F8A3E0C82414F582E83400F5837414F0C6
:1049F3009003A27404F0024CBD74F71217A590043F
:104A0300FAE02407F5D99004EAE0C4333354C044F0
:104A130006F5D978E8790488828983A3A3A3E0F50E
:104A2300D988828983A3A882A983E864EE7003E905
:104A3300640470E39004FAE0601F78E87904FAE80C
:104A43002413F582E93400F583E0F5D9888289835C
:104A5300A3A882A9831AEA70E690051AE02407F551
:104A6300D99004EAE0C4333354C04404F5D978E858
:104A7300790488828983A3A3A3E0F5D988828983F3
:104A8300A3A882A983E864EE7003E9640470E39049
:104A9300051AE0601F78E87904FAE82433F582E91F
:104AA3003400F583E0F5D988828983A3A882A9839A
:104AB3001AEA70E675E195900CB374FCF0A3740ADE
:104AC300F0A37446F0A3740CF0A37446F0A3740C23
:104AD300F0A37446F0A3740CF0A37446F0A3740C13
:104AE300F0A37446F0A3740CF0A37408F0A3740B42
:104AF300F0900CC17446F0A3740CF0A37446F0A3B9
:104B0300740CF0A37446F0A3740CF0A37446F0A3E2
:104B1300740CF0A37446F0A3740CF0A37446F0A3D2
:104B2300740CF09004E8E0F8A3E0C8240EF582E8E2
:104B33003400F58374FFF0A3F0A3F0A3F09004E82E
:104B4300E0F8A3E0C82414F582E83400F583741573
:104B5300F09003A27403F0024CBDC082C0839004A2
:104B6300E8E0F8A3E0C82406F582E83400F583E41E
:104B730002438C74F71217A59003D0E0F875F00385
:104B8300A4C8AAF02AF974D228F8740339F9E824DE
:104B930005FAE93400FB8A828B83E0FCA3E0FD88FD
:104BA300828983A3A3A3A3A3A3A3A3A3ECF0A3ED4D
:104BB300F088828983A3A3A3A3A3A3A3E024FFF87C
:104BC300A3E034FFF98A828B83E8F0A3E9F0024C77
:104BD300BD74F71217A5EAFEEBFF9061D0E0600306
:104BE300024CB175D90E75D90375D904EE248BF532
:104BF30082EF3400F583E5822408F8E5833400F975
:104C0300E0F5D9A3E865827003E9658370F2EE24C9
:104C130083F582EF3400F583E5822404F8E58334D9
:104C230000F9E0F5D9A3E865827003E9658370F2C2
:104C330075E1957908EE248BFAEF3400FB120BF241
:104C43007904EE2483FAEF3400FB120BF27C00EEBE
:104C5300F8EFF9ECFAC3E49AFA95E0FBEE2AFAEFDF
:104C63003BFBEA248AF582EB3400F583E0C0E0E8FD
:104C730024AAF582E93400F583D0E0F00C88828918
:104C830083A3A882A983ECC3940840C7EE246FF5DD
:104C930082EF3400F583E0F8A3E0F9EE2471F582A6
:104CA300EF3400F583E8F0A3E9F07901800279009D
:104CB3008008F0EEA2E092AF79007F01021877C07E
:104CC30082C08375D90275D90375D90575E195EA53
:104CD300246FF582EB3400F583E0F8A3E0F9EA24CE
:104CE30071F582EB3400F583E8F0A3E9F079010272
:104CF300438F74F61217A5EAFEEBFF900545740681
:104D0300F075084575090578081219B87C0179030F
:104D1300120C3A740212174675D90675D9037582B7
:104D230045758305E0F5D9A3E582644A7004E583FC
:104D3300640570F075E1959003A2E06408701EEEBF
:104D4300246FF582EF3400F583E0F8A3E0F9EE2455
:104D530071F582EF3400F583E8F0A3E9F0790102FD
:104D63004FC374F61217A5EAFEEBFF9061D0E07013
:104D7300667801900545740BF09003A2E064077018
:104D83001975084575090578081219B87C01790366
:104D9300120C3A74021217467805740128F5D97576
:104DA300D903758245758305E8FAE0F5D9A31AEAB4
:104DB30070F875E195EE246FF582EF3400F583E02A
:104DC300F8A3E0F9EE2471F582EF3400F583E8F0FF
:104DD300A3E9F0790180027900024FC374F7121737
:104DE300A5EAFEEBFF75D90375D90375D90DEE243A
:104DF300DDF582EF3400F583E0F5D975E1957904AB
:104E0300120D48EE246FF582EF3400F583E0F8A32A
:104E1300E0F9EE2471F582EF3400F583E8F0A3E9BD
:104E2300F07901024CBD74F61217A5EAFEEBFF9070
:104E330061D0E0F87480C398FAEE2482F582EF34EF
:104E430000F583E06004780480027800E8240BF81E
:104E5300EAC3985003024EEE7D09900545EDF0EE4E
:104E630024E2F8EF3400F97A467B057C08888289CE
:104E730083E08A828B83F088828983A3A882A983B3
:104E83008A828B83A3AA82AB831CEC70E0EE24821C
:104E9300F582EF3400F583E0601D7508457509055B
:104EA30078081219B87C097903EEFAEFFB120C3A71
:104EB30074021217467D0D74012DF5D975D903754A
:104EC30082457583058D08E0F5D9A31508E50870BB
:104ED300F675E1957904120D48EE241DF582EF3441
:104EE30000F583E4F0A3F0790180027900024FC357
:104EF30074F61217A5EAFEEBFF9061D0E0F8748018
:104F0300C398FAEE2482F582EF3400F583E060045F
:104F1300780480027800E82408F8EAC39850030272
:104F23004FC17806900545740CF09003BFE09005DF
:104F330046F09003C0E0900547F09003C1E0900570
:104F430048F09003C2E0900549F09003C3E0900558
:104F53004AF0EE2482F582EF3400F583E0601B759E
:104F6300084575090578081219B87C067903EEFA25
:104F7300120C3A7402121746780A740128F5D9758F
:104F8300D9037582457583058808E0F5D9A315080B
:104F9300E50870F675E1957904120D48EE246FF576
:104FA30082EF3400F583E0F8A3E0F9EE2471F58293
:104FB300EF3400F583E8F0A3E9F07901800279008A
:104FC3007F0202187774F61217A5EAFEEBFF9061D1
:104FD300D0E0F87480C398FAEE2482F582EF3400AF
:104FE300F583E06004780480027800E82404F8EA9A
:104FF300C39850030250A27802900545E8F0EE24CE
:10500300F4F582EF3400F583E0900546F0EE248258
:10501300F582EF3400F583E0601B750845750905DB
:1050230078081219B87C027903EEFA120C3A74026A
:105033001217467806740128F5D975D90375824588
:105043007583058808E0F5D9A31508E50870F6759A
:10505300E195EE2473F582EF3400F583E4F0EE245A
:105063007FF582EF3400F583E4F0EE241DF582EF43
:105073003400F583E4F0A3F07904120D48EE240D17
:10508300F582EF3400F583E0F8A3E0F9EE2471F53F
:1050930082EF3400F583E8F0A3E9F0790180027927
:1050A30000024FC374F61217A59061D0E0F8748024
:1050B300C398FCEA2482F582EB3400F583E06004B4
:1050C300780480027800E82404F8ECC398405B7904
:1050D300029005457407F0EA24F5F582EB3400F5F8
:1050E30083E0900546F0EA2482F582EB3400F583F1
:1050F300E0601875084575090578081219B87C022F
:1051030009120C3A74021217467906740129F5D96B
:1051130075D903758245758305E9F8E0F5D9A318B8
:10512300E870F875E195790180027900024FC37444
:10513300F51217A5E9FCA2AFE433F50AC2AF7D006F
:1051430080010DEA246EF582EB3400F583E0F8ED7F
:10515300C398501A8D08EA2508F8EB3400F9E824BF
:105163006AF582E93400F583E06C70D68024EA2482
:105173006EF8EB3400F9E0FEEA2EFAEB3400FBEABA
:10518300246AF582EB3400F583ECF088828983E0AE
:1051930004F0E50AA2E092AF7F0302187774F612D7
:1051A30017A5A2AFE433FDC2AFEA246EF582EB3458
:1051B30000F583E014F07C0060368C08EA2508F8DB
:1051C300EB3400F9E8246BF582E93400F583E0C0A1
:1051D300E0E8246AF582E93400F583D0E0F00CEAD4
:1051E300246EF582EB3400F583E0F8ECC39840CAF3
:1051F300EA246DF582EB3400F58374FFF0EA246949
:10520300F582EB3400F583E4F0EDA2E092AF024FB8
:10521300C3C082C083E5A8F8C2AFEA246AF582EB73
:105223003400F583E9F0EA2469F582EB3400F58371
:10523300E4F0E8A2E7A2E792AF02438F74F31217F8
:10524300A5EAFEEBFFECFAEDFB8A828B83A3A3A313
:10525300A3E0541FF0EE2436F582EF3400F583E427
:10526300F0F50AEEFCEFFD8A828B83E0C0E0EC24CC
:105273005DF582ED3400F583D0E0F0750B00E50AAF
:1052830033333354F8F50C8A828B83E0F5087509C0
:1052930000E50B78081216FEE508A2E0502FEE2475
:1052A30036F8EF3400F988828983E0F508EE2508A3
:1052B300F508EF3400F509E5082438F582E50934EB
:1052C30000F583E50CF088828983E004F0050B0583
:1052D3000CE50BC3940840AF050A8A828B83A3AA0B
:1052E30082AB838C828D83A3AC82AD83E50AC394A6
:1052F30005500302526A7F0502187774F71217A547
:105303009003CEE06401700302545C7A009003D4EE
:10531300E0600302545C7401F0A3E4F0A3F0900492
:105323003404F0900439F09003D7E4F0A3F0A3F031
:10533300A3F09003E104F0900407E4F09003EAF093
:10534300A3F0A3F0A3F0A3F0A3F0A3F0900451F013
:10535300900445F090043A7480F0A3E4F090044084
:10536300F09004BCF0A3F0A3F0A3F0A3F0A3F0A388
:10537300F0A3F09004C5F0900454F09004A4F0A3BB
:10538300F0A3F0A3F0A3F0A3F0A3F0A3F0A3F0A382
:10539300F09004B0F09004B2F09004AEF09004C822
:1053A300F0A3F0A3F0A3F0A3F0A3F0A3F0A3F0788D
:1053B300CE7903E8246EF582E93400F58374FFF0B7
:1053C3000A88828983A3A882A983EAC3940440E359
:1053D3007ACE7B0378DC790488828983E0C0E0EAB3
:1053E3002461F582EB3400F583D0E0F08882898371
:1053F300A3A882A9838A828B83A3AA82AB83E8644E
:10540300E17003E9640470D07ACE7B0378B5790345
:1054130088828983A3E0C0E0EA24E6F582EB3400C6
:10542300F583D0E0F088828983A3A882A9838A8246
:105433008B83A3AA82AB83E864BD7003E964037022
:10544300CF9003CEE004F0640170089003D6E0909F
:1054530003D0F07AD27B0380047A007B00024CBD38
:10546300C082C0839003D5E4F09003D4F09003CEC0
:10547300F0A3F0A374FFF075E1F102438FC082C083
:1054830083780079009003D5E0600478D2790388AB
:10549300828983A3A3A3A3E0F902438F74F61217AF
:1054A300A5EAFEEBFFEE2463F582EF3400F583E01B
:1054B300F8A3E0F9E8497003025544EE2463F8EFDA
:1054C3003400F97A007B00A2AFE433F508C2AF8859
:1054D300828983E0FCA3E0FDEC4D603A88828983F6
:1054E300E0FAA3E0FB8A828B83E0FCA3E0FD8882E1
:1054F3008983ECF0A3EDF08A828B83E4F0A3F08838
:10550300828983E0FCA3E0FDEC4D700A88828983E5
:10551300A3A3E4F0A3F0E508A2E092AF1212B890BF
:1055230004E2E004F09004E3E004F0EE2463F58287
:10553300EF3400F583E0F8A3E0F9E849600302548F
:10554300BE8E828F83A3A3A3E0600F8E828F83A37B
:10555300A3A3E4F09003CFE014F09003CEE014F0A3
:1055630070069003D074FFF08E828F83A3A3E4F0C0
:105573009004E1E0700D9003CFE0640170057900C1
:10558300120D2AEEFAEFFB120C6A024FC374F712E4
:1055930017A5EAFEEBFF8E828F83A3A3A3A3E0FAF2
:1055A3007B00120946EEFAEFFB120BBC120C5202FF
:1055B3004CBDC082C08378B5790388828983A3E414
:1055C300F088828983A3A882A983E864BD7003E974
:1055D300640370E69003B6740102438E74F61217E7
:1055E300A5EAFEEBFFEC2403F8ED3400F988088903
:1055F30009EC2407F8ED3400F9E8FCE9FD8C828D11
:1056030083E0F8A3E0F9850882850983E0FAA3E043
:10561300FB1216A5EE240DF582EF3400F583E8F0B6
:10562300A3E9F08C828D83E0F8A3E0F985088285F5
:105633000983E0FAA3E0FB1216A58B09EA4509608A
:1056430013EE240DF582EF3400F583E02401F0A37B
:10565300E03400F0024FC374F61217A5EAFEEBFF25
:10566300EE242EF582EF3400F583E0FCA3E0FD7811
:105673000079FAECFAEDFB1216A5EE246FF582EF32
:105683003400F583E8F0A3E9F0780079FAECFAED59
:10569300FB1216A58B09EA45096013EE246FF58208
:1056A300EF3400F583E02401F0A3E03400F0024F6F
:1056B300C374EC1217A5EAFEEBFF74141217997862
:1056C30008121600120CEE8A0C8B0D8C0E8D0F75C2
:1056D3001002751100751200751300780C79101201
:1056E30015667510FF7511FF7512FF780C7910128E
:1056F30015C7780C1219B48E828F83E0F8A3E0F5F6
:10570300838882A3A312161E1223C17404121746A0
:10571300E960030258188E828F83E02402F8A3E025
:105723003400F9E8FAE9FB8A828B83780812158C36
:105733008A828B837508FF7509FF750AFF750B0055
:1057430078081215EDEE240BF582EF3400F583C0D3
:1057530082C0838E828F83A3A3A3A3A3E02401F833
:10576300A3E03400F9D083D082E0687003A3E0693A
:105773007005790102581A8E828F83A3A3A3A3A372
:10578300A3A3E02401F0A3E03400F0EE2473F58238
:10579300EF3400F583E064017036EE2474F582EF94
:1057A3003400F583E0F8A3E0F98E828F83A3A3A3EB
:1057B300A3A3A3A3E0687003A3E0697013EE2474AA
:1057C300F582EF3400F583E02401F0A3E03400F028
:1057D300EE247FF582EF3400F583E064017036EE4A
:1057E3002480F582EF3400F583E0F8A3E0F98E829C
:1057F3008F83A3A3A3A3A3A3A3E0687003A3E06978
:105803007013EE2480F582EF3400F583E02401F079
:10581300A3E03400F0790002452774F61217A5E9D6
:10582300FEECFFEA2462F582EB3400F583E06401C9
:1058330060030258C69061D0E0F508EA2482F5823D
:10584300EB3400F583E06004780480027800748010
:10585300C39508FC95E0FDEF28F8E43400F9E8244B
:1058630002F8E93400F9EC98ED99A2D265D03340FF
:105873004E740A121799E0F508A3E0F509EA2482A9
:10588300F582EB3400F583E0601578081219B8EF60
:10589300FCEEF9120C3A740212174674042FFF74CB
:1058A300012FF5D98ED9EF600F850882850983F81A
:1058B300E0F5D9A318E870F875E1957900800679C9
:1058C30007800279FF024FC374F71217A5A2AFE452
:1058D30033FEC2AF8A828B83E0F8A3E0F9E8498AFA
:1058E300828B83600AA3A3E0F8A3E0F5838882ECAC
:1058F300F0A3EDF08A828B83A3A3ECF0A3EDF08CED
:10590300828D83E4F0A3024CB574F71217A5E96006
:1059130021F88C828D83E08A828B83F08C828D8345
:10592300A3AC82AD838A828B83A3AA82AB8318E85C
:1059330070E0ECFAEDFB024CBD74F01217A574FA9B
:10594300121730890BECFEEDFF750A008A088B09EC
:1059530078081219FC0004106F5B7F599D59B759E1
:10596300CF59ED59055A285A405A545A7E5A065B64
:10597300175B2E5B495B6F5B6F5B945A7401650B1E
:105983006003025B6A8E828F83E0F8C39403400353
:10599300025B6AE8900DA4025B467402650B600328
:1059A300025B6A8E828F8312626C900DA5E8F0A36E
:1059B300E9025B467401650B6003025B6A125B9745
:1059C3004003025B6AE8900776025B467401650B4D
:1059D3006003025B6A8E828F83E0F8C39405400301
:1059E300025B6AE8900777025B467401650B60030C
:1059F300025B6A125B974003025B6AE890077802D6
:105A03005B467410650B6003025B6A7508107509C9
:105A13000078081219B87A797B07120FA67402125C
:105A23001746025B907401650B6003025B6A125BAD
:105A3300974003025B6AE8900789025B467401653D
:105A43000B6003025B6A8E828F83E0900DA8025B7A
:105A5300467404650B6003025B6A8E828F83780C45
:105A63001216009082E4780C12141F5003025B6A32
:105A730090078B780C12160F025B90E96003025BB0
:105A83006A1206C4E97005121168806090081E80CE
:105A93006E7407650B6003025B6A7508067509007F
:105AA30078081219B88E828F83A3AC82AD837402F7
:105AB300121799AA82AB83120FAC74021217467C99
:105AC300007D00851882851983AA82AB838E828F1D
:105AD30083E0F912110EE9F508C3940A4003025B4F
:105AE3008D1206C4E9700CA90812116E79501213B5
:105AF30036806F741F2508F58274083400F58374AB
:105B03000180407401650B705E125B975059E890F9
:105B1300078A802F7401650B704D8E828F83E0F8A6
:105B2300C3940A5042E8900DA780187401650B7066
