:020000040000FA
:0600000002010A02220FBA
:03002B0002266941
:03003B0002268A10
:0300430002261D75
:0300530002228204
:03006B0002264327
:1000830002207BE5C754F84401F5C779012200003B
:100093000080FB120086B900030200F4E4792178A2
:1000A30008B800028004F709D8FCE479297802B87B
:1000B30000028004F709D8FCE49002817844790AAD
:1000C3008002F0A3D8FCD9FA900BC4AA82AB839028
:1000D300013A783F79048015E493A3AC82AD838A17
:1000E300828B83F0A3AA82AB838C828D83D8E9D9D8
:1000F300E775824D7583B3740312011C7582917584
:100103008300740012011C75D00075813F7518813E
:10011300751902759F00020096C09FF59FE473D086
:100123009F22D083D082C09FE493C0E0740193C028
:10013300E0740293F59F22FF0000B400002800281A
:1001430000283075A000A000A000A000000800084F
:10015300E001F0001000100010001000100010006B
:1001630050005000500010001000D00700000000A5
:1001730000000F00010005003075070010000100AA
:1001830081FF00000000FF760694067C06FF020252
:100193000208025000A0000000E8030233840100BB
:1001A30000EF83022D840100001B0C023B8401003D
:1001B30000B302022D840100001C0C0225840100FF
:1001C30000C902022D840100001D0C0221840100DC
:1001D30000CB02022D840100001E0C021F840800C4
:1001E30000CC02022D840100001F0C0219840100BF
:1001F30000200CFF0100FF20023384010000E6838E
:10020300022D84010000840C020F84000000000012
:100213000229840300001903460C460C460C460CC5
:10022300460C460C460C460C460C460C460C460C3B
:10023300460CC80EE00EC20EFFFF49020003041273
:1002430064023384010000F283022D84010000CC98
:100253000C021D84010000CD0C02298403000067F9
:1002630007020202020202020202010D0000001054
:1002730001023384010000E383022D84010000EEB8
:100283000C02FD830100006D07022D84010000EFC5
:100293000C02FB83010000DF82022D84010000F0C9
:1002A3000C023184010000D182022D84010000F18F
:1002B3000C02F783010000EB81022D84010000F2A0
:1002C3000C02F5830100000F82022D84010000F36C
:1002D3000C020184010000D981022D84010000F485
:1002E3000C0203840100002182022D84010000F529
:1002F3000C020784010000B582022D84010000F680
:100303000C021B84010000F70C01E803053F100AEF
:10031300FF0012023384010000E983022D840100EF
:10032300009F0D02F9830100002A0A0229840300B9
:10033300002B0A01307503020106000000000000D3
:1003430000000000000000000000000000000000AA
:10035300000000000000FFFF0600800CE80309090D
:100363005465704865617441051214001400020A53
:10037300000201050302F0FF546570486561744192
:1003830000000000000000000000000000961300C1
:10039300009C130A436861726163746572697374C4
:1003A3006963203100024368617261637465726935
:1003B300737469632032001A436861726163746500
:1003C30072697374696320330010436861726163F7
:1003D30074657269737469632034000243686172DF
:1003E30061637465726973746963203500023384D1
:1003F300010000EC83022D84010000200E023784EB
:100403000300008F0B022B84010000210E022D84B8
:10041300010000320E023984010000A30B022B8479
:10042300010000330E022D84010000440E021784E4
:10043300030000A40B022B84010000450E022D844F
:10044300010000560E021584000000B80B02298437
:10045300030000B90B022B84010000570E022D8408
:10046300010000680E021384040000BF0B022B84FA
:10047300010000690E120125C6A103120125DDA1A9
:10048300031201250EA20312012549A2031201251D
:1004930073A2031201259DA203120125B4A2031224
:1004A3000125CBA203120125E2A2031201250BA30E
:1004B300031201251EA30312012534A303120125F0
:1004C30047A3031201256EA303120125EAB2021208
:1004D3000125EEB30212012526B40212012549B407
:1004E3000212012554B40212012577B40212012528
:1004F30086B5021201255BB602120125D6B6021299
:1005030001255EB70212012599B702120125D0B762
:10051300021201255EB80212012537B90212012524
:1005230097B902120125A2B90212012521BA0212BA
:10053300012524BA0212012527BA02120125B6BAEF
:1005430002120125B9BA02120125E9BA02120125E4
:1005530013BB0212012501BC02120125B3BC021216
:10056300012580EB02120125A8EB02120125D6EB2F
:10057300021201250DEC021201256BEC021201257A
:10058300B6EC0212012501ED0212012541ED021222
:10059300012587ED02120125B5ED0212012572EE48
:1005A300021201257CEE0212012589EE02120125B9
:1005B300BCEE0212012588EF0212012594EF02120C
:1005C3000125ACEF02120125B6EF02120125DCADC5
:1005D30003120125EAAD0312012502AE0312012520
:1005E3001AAE03120125C5BC0112012571BD01120A
:1005F3000125ECBD011201250DBF0112012549BFE3
:1006030001120125F2BF01120125D9C001120125F2
:100613003DC20112012594C20112012515C3011225
:10062300012505C40112012552C401120125D8C4B4
:10063300011201250AC5011201251EC70112012558
:1006430060C7011201257EC70112012501C80112ED
:100653000125D5C8011201259DC90112012536DFE7
:100663000212012509E002120125B2E0021201255E
:1006730005E102120125B5E10212012541E2021250
:1006830001252DE3021201255CE3021201256FE42B
:1006930002120125B7E4021201258CE5021201259D
:1006A300C8E502120125E4E50212012550B1031247
:1006B3000125F787031201250D88031201253388CD
:1006C300031201254F8903120125598903120125BC
:1006D3008E8A03120125868B0312012559E6021225
:1006E300012589E702120125BCE70212012506E86C
:1006F30002120125CDE902120125CE6E0012012559
:10070300386F00120125977000120125A77000129F
:100713000125D470001201252B7100120125D4711B
:1007230000120125DB7200120125A57300120125B9
:10073300057500120125487500120125ED7500129B
:1007430001253A76001201256076001201256E78A4
:1007530000120125737800120125787A0012012511
:10076300C57A00120125387B001201256B7B00122C
:1007730001250D7C00120125B67C00120125EE7CBB
:1007830000120125F17C00120125397D001201259B
:10079300797D00120125D07D0012012527980312CF
:1007A30001253F98031201258798031201259D987F
:1007B30003120125E49803120125F8990312012578
:1007C300859A03120125D09A03120125FC260012F3
:1007D3000125082700120125432700120125882738
:1007E30000120125482800120125CE2800120125F8
:1007F3003329001201255F290012012598290012CF
:100803000125D62B00120125BA2D00120125A02F98
:1008130000120125E33000120125313300120125B6
:100823004334001201258E35001201259E36001235
:100833000125BB3600120125F636001201251837B3
:10084300001201257B37001201253C3C00120125D3
:10085300D13C00120125223D00120125493D001221
:1008630001259B3D00120125B93D00120125133ED0
:1008730000120125FC3E00120125724000120125E1
:10088300F640001201253DF00212012547F0021245
:1008930001258AF002120125A5F00212012535F186
:1008A300021201255DF1021201259AF102120125BE
:1008B300D1F102120125FAF1021201256FF202129F
:1008C300012584F20212012599F202120125CAF2CE
:1008D30002120125DEF20212012503F302120125A1
:1008E3003DF30212012569F302120125A1F302125D
:1008F300012520F40212012569F40212012593F463
:1009030002120125BEF402120125B9FE01120125CE
:10091300E99A02120125179B02120125659C021216
:100923000125459D02120125649D02120125E19DC9
:1009330002120125249E021201257A9F021201252B
:100943003BA002120125C2A20212012563A30212D7
:10095300012559A40212012556A502120125B0A6AC
:10096300021201253BA7021201259CA903120125AE
:1009730005AA0312012559AA0312012580AA03120D
:100983000125B1AA03120125E6F40212012553F54C
:10099300021201259AF502120125B2F6021201256F
:1009A300AEF70212012591F80212012550F6011249
:1009B300012592F60112012564F7011201253DF884
:1009C3000112012537F90112012519FA0112012536
:1009D30082FA0112012538FB01120125ACFB011239
:1009E300012518FC0112012541FC01120125BBFC64
:1009F3000112012554FD01120125B9FD0112012542
:100A0300CEFD0112012514FE011201252DFE011256
:100A1300012592FE0112012595FE01120125439243
:100A2300031201256B9203120125A99203120125DA
:100A3300679303120125CE9303120125EA93031250
:100A430001251294031201254294031201255194A6
:100A530003120125CE9403120125F49403120125F8
:100A630063AD0112012541AF0112012573B10112DA
:100A73000125AFB101120125DCB101120125C6B276
:100A83000112012511B3011201255CB301120125E5
:100A93006EB301120125AEB301120125E3B30112B6
:100AA300012531B40112012560B40112012583B47B
:100AB30001120125D0B40112012555B501120125FA
:100AC3006FB701120125AEB901120125EFB9011269
:100AD300012591BB01120125D2BB0112012545BCA1
:100AE300011201259BBC01120125D48D021201259F
:100AF300D28E021201256B95021201258C970212E8
:100B03000125579902120125BF9A021201255D4161
:100B1300001201250C420012012552420012012548
:100B2300924300120125284500120125A245001217
:100B33000125BD45001201253846001201259247C3
:100B430000120125F24800120125F849001201257F
:100B5300594B00120125724B00120125D04B001294
:100B63000125BE4C00120125F14C00120125614DF7
:100B730000120125DB4D00120125254E001201252F
:100B8300EF4E00120125C44F00120125A35000129D
:100B930001252E51001201259C51001201251052EE
:100BA300001201253B5200120125FA5200120125C1
:100BB3005F54001201257C54001201259B5400123E
:100BC30001258C5500120125B15500120125DB5575
:100BD30000120125565600120125B05600120125B8
:100BE300195800120125C75800120125085900128F
:100BF30001250080021201254E80021201255A8030
:100C03000212012538810212012569810212012590
:100C13009A81021201251A820212012552820212BE
:100C23000125A48202120125E18202120125FE841C
:100C3300021201252487021201250F8902120125C0
:100C4300F98A02120125F8FF0212012550990112B7
:100C5300012580990112012559A001120125DEA168
:100C630001120125DBA701120125C3A801120125E9
:100C730000A90112012523A90112012554A901127A
:100C830001255DA90112012567A90112012555AAB4
:100C9300011201254BAB01120125418401120125EB
:100CA300408801120125468801120125818F011216
:100CB30001259A9401120125FC8E03120125F68F5A
:100CC300031201256A9003120125A890031201253E
:100CD3001C91031201259591031201259E91031284
:100CE3000125AA9103120125BF9103120125FD914C
:100CF3000312012513920312012553F90212012550
:100D030060F9021201257AF902120125B9F90212DA
:100D13000125F7F9021201255CFA0212012571FA85
:100D2300021201257CFA0212012589FA0212012519
:100D3300A0FA02120125AEFA02120125B9FA021233
:100D43000125C5FA02120125D4FA02120125DFFAA0
:100D53000212012502FB02120125A9FB0212012541
:100D6300B9FB02120125D3FB02120125F0FB02128B
:100D730001250CFC0212012531FC021201253CFC69
:100D83000212012551FC0212012565FC0212012504
:100D9300C6FC02120125CCFC02120125D2FC021270
:100DA3000125D8FC02120125F0FC0212012523FDC6
:100DB3000212012527DA01120125ABDA01120125FE
:100DC3005ADB01120125B9DC01120125DADE011219
:100DD3000125C6DF01120125FBDF011201251DE0FC
:100DE30001120125CCE001120125C4E20112012503
:100DF300EDE2011201257FE301120125B1E30112A6
:100E03000125BEE30112012515E4011201253BE48E
:100E130001120125A8E601120125ABE70112012504
:100E230003E801120125B6CB01120125C0CC011242
:100E33000125A7CD01120125B1CD01120125D3CD85
:100E430001120125DFCD0112012578CF0112012501
:100E5300A7CF01120125C3D0011201251CD1011214
:100E6300012582D20112012561D301120125BDD3CF
:100E7300011201252AD40112012565D4011201258D
:100E8300A4D4011201255DD70112012577D70112E0
:100E9300012503D80112012511D8011201256AD8B1
:100EA3000112012578D801120125EBD80112012581
:100EB3004FD90112012599D901120125BCA70212AC
:100EC3000125DEA70212012504AA0212012519AD8C
:100ED3000212012531AE02120125E4AE02120125F0
:100EE300C6AF0212012580A303120125A5A3031295
:100EF300012517A403120125BCD702120125C5D76A
:100F030002120125CED702120125A5D8021201250E
:100F130056DA021201258CDA02120125C6DA021210
:100F23000125FCDA0212012536DB021201256ADBF8
:100F33000212012596DB02120125DFDB02120125D5
:100F430019DC0212012562DC02120125BADC02124D
:100F53000125EFDC021201254ADD0212012584DDA1
:100F630002120125D5DD021201250BDE0212012535
:100F730045DE0212012573DE0212012596DE0212FE
:100F8300012574AF03120125A0AF03120125FBAFA6
:100F93000312012505B00312012515B00312012523
:100FA30021C7021201252BC70212012569C70212AC
:100FB3000125B2C702120125ECC70212012546C85A
:100FC3000212012567C8021201253FCB0212012537
:100FD30048CB0212012595CB02120125BECB02128A
:100FE3000125C8CB0212012534CC02120125C6CC3F
:100FF3000212012510CD0212012546CD0212012550
:10100300D2CD0212012513CE021201254ACE0212BD
:1010130001255CCE021201257BCE0212012584CE6E
:10102300021201254CCF02120125FBAB031201254D
:10103300D59F031201250BA00312012541A0031222
:1010430001258CA103120125D4B103120125EAB1B4
:1010530003120125F4B1031201253EB20312012547
:10106300008003120125158003120125C880031295
:1010730001250881031201252181031201255C81C9
:1010830003120125A98103120125DB810312012526
:101093001D8203120125C7A603120125F0A6031220
:1010A30001251FA703120125B7A703120125F9A7DD
:1010B300031201253C95031201254A9503120125CC
:1010C300BB95031201257F97031201259D970312F8
:1010D3000125C69D03120125F69D03120125669E77
:1010E30003120125069F03120125FA9A0312012513
:1010F3001F9B03120125499B03120125F7B203121B
:1011030001253859001201259D5B001201253E5D22
:1011130000120125F25D00120125855E00120125F2
:101123000A5F001201252F5F00120125856200125C
:1011330001250B63001201253E640012012578642A
:1011430000120125AD64001201256D660012012510
:10115300CA66001201251367001201257E6700127B
:101163000125EF6700120125216800120125396866
:1011730000120125826900120125926900120125DE
:10118300AD6A00120125CF6A00120125056B00121A
:101193000125B96C00120125466D00120125856DEC
:1011A30000120125A96E00120125B3AE0312012519
:1011B300C4AE0312012569AF03120125A0B30312C4
:1011C3000125DFB303120125E5FF02120125BBB0A0
:1011D30003120125CBB003120125E0B00312012550
:1011E30046B103120125F7AA031201257CAB0312B2
:1011F3000125E2AB03120125BD7E00120125F17E1C
:10120300001201251A7F00120125917F001201258A
:10121300F2AC0312012513AD0312012567AD0312CE
:101223000125B1AD0312012565B4031201259DB259
:1012330003120125ACB203120125908B0312012581
:10124300208C03120125AC8C03120125458D03125A
:101253000125D68D03120125DF8D031201255D8E35
:1012630003120125708E03120125868E03120125B8
:10127300E68E03120125F98E0312012552A80312EB
:10128300012567A8031201257CA8031201258EA856
:1012930003120125CEA803120125FCA80312012580
:1012A30047A90312012599A90312012525A50312B4
:1012B300012577A50312012501A60312012568A6BE
:1012C30003120125A0FD02120125CAFD0212012508
:1012D30098FE0212012573FF021201257ACF021232
:1012E300012541D00212012578D002120125A2D096
:1012F3000212012502D10212012558D10212012541
:10130300BDD10212012555D20212012564D3021266
:101313000125FBD40212012588D502120125EFD540
:101323000212012506D60212012520D70212012539
:101333005ED7021201251FB0031201254FB003121D
:10134300012554B00312012551E801120125D2EB06
:10135300011201255AED01120125B1ED01120125FA
:10136300D0ED011201254EEE01120125E4EF011229
:101373000125C9F001120125D7F401120125ADF5AC
:101383000112012524BD0212012546C002120125C6
:101393007DC0021201251AC50212012515C60212CB
:1013A30001252884031201256D84031201258A84F3
:1013B300031201254F8503120125B8850312012568
:1013C300858603120125BE8703120125D2FF011270
:1013D3000125E9B3031201251FB40312012547B404
:1013E30003E066701008A3E066700A08A3E0667065
:1013F3000408A3E06622C3E7960809E7960809E70D
:10140300960809E79622C3E09608A3E09608A3E0AE
:101413009608A3E09622C008C3E096F50808A3E067
:1014230096420808A3E096420808A3E09645087090
:1014330001D3D00822080808EAC0E0EBC0E086F038
:10144300E7A4FA180986F0E7A42AFA180986F0E750
:10145300A42AFA180986F0E7A42AFA1986F0E7A461
:10146300FBE5F02AFA190886F0E7A42BFBE5F03A2E
:10147300FA190886F0E7A42BFBE5F03AFA181809E5
:1014830086F0E7A4C5F02BFBE43AFA1908E7C5F0A8
:10149300C6A426F6E5F03BFBE43AFA1886F0E7A487
:1014A300F6E5F00826F6E43B08F6E43A08F6D0E061
:1014B300FBD0E0FA22E4CFC0E0E4CEC0E0E4CDC04C
:1014C300E0E4CCC0E075F020C3E633F608E633F67B
:1014D30008E633F608E633F6181818EC33FCED3358
:1014E300FDEE33FEEF33FFC3EC9709ED9709EE975B
:1014F30009EF97191919400FFFEC97FC09ED97FDB8
:1015030009EE97FE191906D5F0BEECF709EDF709B8
:10151300EEF709EFF7191919D0E0FCD0E0FDD0E0A0
:10152300FED0E0FF226016080808C6C313C618C61B
:1015330013C618C613C618C613C6D5E0EA22700927
:10154300080808226016181818C6C333C608C6331D
:10155300C608C633C608C633C6D5E0EA22E627F670
:101563000809E637F60809E637F60809E637F622EA
:10157300E026F608A3E036F608A3E036F608A3E073
:1015830036F622E026F008A3E036F008A3E036F0B2
:1015930008A3E036F022C3E697F60809E697F608B3
:1015A30009E697F60809E697F622C3E096F008A342
:1015B300E096F008A3E096F008A3E096F022E65741
:1015C300F60809E657F60809E657F60809E657F656
:1015D30022E056F608A3E056F608A3E056F608A361
:1015E300E056F622E056F008A3E056F008A3E056D2
:1015F300F008A3E056F022E0F608A3E0F608A3E023
:10160300F608A3E0F622E6F008A3E6F008A3E6F066
:1016130008A3E6F022E0FAA3E0FBA3E0FCA3E0FDCD
:1016230022EAF0A3EBF0A3ECF0A3EDF022CAC0E0B2
:10163300E6F0A308DAFAD0E0FA22CAC0E0E0A3C5D4
:1016430082CCC582C583CDC583F0A3C582CCC582B8
:10165300C583CDC583DAE6D0E0CA22C3E498F8E4B3
:1016630099F912169F8026C3E49AFAE49BFBE920BA
:10167300E7E912169FE498F8E499F922C3E498F88D
:10168300E499F912169FE498F8E499F9C3E49AFAF5
:10169300E49BFB22EB20E7CFE920E7E0B90010BB96
:1016A3000008E88AF084F8AAF022E4FBC8FA22EBE7
:1016B30070227B10C833C8C933C9335007C39AC3D8
:1016C300DBF280069A50012ADBEAC833F4C8C93337
:1016D300F4C9FA2275F008E4C833C8C933C933C959
:1016E3009AC99B5004C92AC93BD5F0ECFBC833F413
:1016F300C8E4C9FA22600D08C6A2E713C618C613C8
:10170300C6D5E0F322600C08C6C313C618C613C6B9
:10171300D5E0F422700422600D18C6C333C608C690
:1017230033C6D5E0F41822251810AF08F518400287
:1017330015198008F51840021519D2AF22C0D0251B
:101743001810AF08F518500205198008F518500253
:101753000519D2AFD0D0222518F58210AF08F5189D
:10176300400215198008F51840021519D2AF8519E2
:101773008322C5822518C582C583351910AF07F5A5
:10178300198582188007F519858218D2AFC583227F
:101793002518F582E43519F58322E4732518C582EB
:1017A300C0E0E51934FFC583C0E0E518C395822482
:1017B300F810AF08858319858218800885831985F9
:1017C3008218D2AFCEF0A3E520F0A37808E608F0A4
:1017D300A3DEFAEFF0A3E58124FAF8E608F0A3E626
:1017E30008F0A3E608F0A30808E608F0A3E608F06B
:1017F300A315811581D0E0FED0E0F8158115811580
:1018030081E8C0E0EEC0E0222518C582C0E0E519FA
:1018130034FFC583C0E0E518C3958224F910AF08EF
:101823008583198582188008858319858218D2AF2C
:10183300CEF0A3E520F0A37808E608F0A3DEFAEFE4
:10184300F0A3E58124FBF8E608F0A3E608F0A3087B
:1018530008E608F0A3E608F0A315811581D0E0FEA1
:10186300D0E0F815811581E8C0E0EEC0E0228519CB
:1018730083851882E0A3FEE0A3F5207808E0A3F6B1
:1018830008DFFAE0A3FFE0A3C0E0E0A3C0E0E0A329
:10189300C0E0E0A3C0E0E0A3C0E010AF0885821879
:1018A3008583198008858218858319D2AFD083D0A8
:1018B30082020122851983851882E0A3FEE0A3F545
:1018C300207808E0A3F608DFFAE0A3FFE0A3C0E076
:1018D300E0A3C0E0E0A3C0E0E0A3C0E010AF088550
:1018E30082188583198008858218858319D2AFD021
:1018F30083D08222C0D02518C582C0E0E51934FF09
:10190300C583C0E0E518C3958224F310AF0885832F
:10191300198582188008858319858218D2AFC8F08B
:10192300A3E9F0A3EAF0A3EBF0A37908E709F0A396
:10193300D8FAECF0A3EDF0A3EEF0A3EFF0A3D0E020
:10194300F0A3D0E0F0A3D0E0F0A3E520F0A3E5F00E
:10195300F0A322851983851882E0C0E0A3E0F9A3F0
:10196300E0FAA3E0FBA37808E0F608A3DFFAE0FCC3
:10197300A3E0FDA3E0FEA3E0FFA3E0C0E0A3E0C07B
:10198300E0A3E0F5D0A3E0F520A3E0A3F5F010AFCA
:10199300088583198582188008858319858218D262
:1019A300AFD082D083D0E0F8D0E0327404800674E4
:1019B3000280027401C0E0F40412175AD0E0121638
:1019C30030227404800474028000CCC0E0EDC0E0D7
:1019D300E518C39CCCAD1950011D10AF068C188DB2
:1019E3001980068C188D19D2AF12163DD0E0FDD0A8
:1019F300E0FC22D083D082E9C0E0E493A3C386F065
:101A0300C5F095F0F908E493A386F0C5F095F0705E
:101A13000BE493A3C3994005E9048002A3E475F0A2
:101A230002A42582F582E5F03583F583D0E0F9E45D
:101A330093A3C0E0E493C0E022D083D082ECC0E063
:101A4300EDC0E0E493A3FCE493A3FDED4C600D1221
:101A53001A88EC24FFFCED34FFFD80EFE493A3FC34
:101A6300E493A3FDED4C600D121AC7EC24FFFCEDCB
:101A730034FFFD80EFD0E0FDD0E0FCE493A3C0E0B1
:101A8300E493C0E022C0E0C3E49396087401939604
:101A930018400FE493667008087401936618700089
:101AA3007019A3A3C3E49396087401939618A3A390
:101AB300400DD0E0D0E0D0E0021A78A3A3A3A3A303
:101AC300A3D0E022C0E0C0F088F0E4936670080879
:101AD30074019366187000A8F0A3A3700BD0F0D024
:0F1AE300E0D0E0D0E0021A78A3A3D0F0D0E02248
:101AF40074F512180BEAFEEBFFEE2434F8EF340011
:101B0400F988088909EE2435F582EF3400F583E07D
:101B1400F8EE2437F582EF3400F583E0F50AEC851E
:101B24000AF0A4FCAAF0850AF0EDA42AFDE82CF83A
:101B3400E43DF97A257B0012169FEA85088285091F
:101B440083F0F8740758F97401B900028004C333B0
:101B5400D9FCFAE8131313541FF8EE28F8EF3400F5
:101B6400F9E8245DF582E93400F583E05A6008EE73
:101B74002434F582EF802CEE2434F582EF3400F522
:101B840083E0C0E0EE2436F582EF3400F583E0F51F
:101B9400F0D0E084A8F0EE28F8EF3400F9E8243817
:101BA400F582E93400F583E0F97F040218B774F58F
:101BB40012180BEAFEEBFFEE2434F582EF3400F545
:101BC40083E0C0E0EE2435F582EF3400F583D0E005
:101BD400F08E828F83A3A3A3A3A3A3A3C082C083F5
:101BE4008E828F83A3A3A3A3A3E0F8A3E0F9D083F9
:101BF400D082E0C398F508A3E099F509EE247FF5B7
:101C040082EF3400F583E064017069EE2480F5828C
:101C1400EF3400F583E0F8A3E0F98E828F83A3A369
:101C2400A3A3A3A3A3E0FCA3E0FD8E828F83A3A3BD
:101C3400A3A3A3E0FAA3E0FBC3EA9CEB9D5010C36B
:101C4400EC98ED99402EC3EA98EB995027800EC387
:101C5400EA98EB994007C3EC98ED9940177CDC7D3A
:101C640004EEFAEFFB120BA4EE247FF582EF3400AE
:101C7400F583E4F0EE2434F8EF3400F9E8FCE9FDF0
:101C8400EE2435F582EF3400F583E0F8EE2437F5E1
:101C940082EF3400F583E0F50AE508850AF0A4F53F
:101CA40008AAF0850AF0E509A42AF509E82508F848
:101CB400E43509F97A257B0012169FEA8C828D831C
:101CC400F0F8740758F97401B900028004C333D9D9
:101CD400FCFAE8131313541FF8EE28F8EF3400F954
:101CE400E8245DF582E93400F583E05A6008EE24C7
:101CF40034F582EF802CEE2434F582EF3400F58342
:101D0400E0C0E0EE2436F582EF3400F583E0F5F030
:101D1400D0E084A8F0EE28F8EF3400F9E82438F590
:101D240082E93400F583E0F9122609021BADC08272
:101D3400C083851882851983E0F8A3E0F9C3EA9C7F
:101D4400EB9D5010C3EC98ED99401BC3EA98EB99B6
:101D54005014800EC3EA98EB994007C3EC98ED99B0
:101D64004004790180027900D083D08222EAC39CA6
:101D7400FAEB9DFB2274EF12180B9003A2E06408A7
:101D84006005E06407702A9061C8E060249003D085
:101D9400E0F4601DE0F875F003A4C8AAF02AF97411
:101DA400D228FE740339FF8E828F83A3A3A3E0702D
:101DB40003021EA9906060E0C0E0EE2468F582EFA3
:101DC4003400F583D0E0F0750C45750D05750800F9
:101DD400750900E5D914F50AE5D95403F50E601721
:101DE4007403650E605CE50A6010EE2467F582EF0B
:101DF4003400F583E07003021E8E900540E0640118
:101E0400602AEE2482F582EF3400F583E0600478E2
:101E14000480027800850A08E508C398FA95E0FB77
:101E2400120A728A088B09EA45097005120D968018
:101E340074EE2482F582EF3400F583E070048A0C9A
:101E44008B0DE50A6012850C82850D83F50BE5D9AF
:101E5400F0A3150BE50B70F6EE2482F582EF340047
:101E6400F583E0604474FC250AF50A780C1219B273
:101E7400AC0AA90EEEFAEFFB120C407402121740E2
:101E8400E97026AA08AB091212B2793D8E828F83BB
:101E9400A3A3A3A3E0FA7B00120946EEFAEFFB1218
:101EA4000BBC120C52790080747403650E60568565
:101EB4000A1075110078101219B2AC0CAD0DAA08F5
:101EC400AB09120C1C7402121740EE2468F582EF61
:101ED4003400F583E064807004747F8001E0F50CC5
:101EE400780C1219B6E50EF50C780C1219B6A90A7D
:101EF400AC08AD099003D0E0FA7B0012090A740221
:101F040012174080139003A2E06408600BAC0CAD80
:101F14000DEEFAEFFB120CAC120DA279017F0A024E
:101F240018B774F512180B74FC12172AEAFEEBFFAB
:101F34008908A2AFE433F509C2AF806AEE2463F8DE
:101F4400EF3400F97A007B00A2AFE433F50AC2AFA4
:101F540088828983E0FCA3E0FDEC4D603A888289A5
:101F640083E0FAA3E0FB8A828B83E0FCA3E0FD8894
:101F7400828983ECF0A3EDF08A828B83E4F0A3F0F2
:101F840088828983E0FCA3E0FDEC4D700A88828995
:101F940083A3A3E4F0A3F0E50AA2E092AF1212B285
:101FA4009004E3E004F0EE2463F582EF3400F5835B
:101FB400E0F8A3E0F9E849603DEE2463F582EF34EC
:101FC40000F583E02402FAA3E03400FBEA2402F5DE
:101FD4000AEB3400F50B780A1219B28A828B83E07B
:101FE400FCA3E0F9EEFAEFFB120BE07402121740C7
:101FF400E97003021F409004E3E060639004E4E0AE
:10200400F89004E3E0C398500C7402650870509093
:1020140004E5E0604A8E828F83A3A3A3A3E085181E
:1020240082851983F0A3E4F09004E3E0F8740212CB
:102034001793E8F0A3E4F09004E3E0F89004E2E0FE
:1020440028F07402121793AC82AD83851882851927
:1020540083AA82AB8379011209169004E3E4F0E5C4
:1020640009A2E092AF7404121740021BAD000000F5
:102074008521878522C622C0E0C0D0E8C0E0E9C03F
:10208400E0EAC0E0EBC0E0ECC0E0EDC0E0EEC0E0B0
:10209400C008C009C00AC00BC082C083C0F0A2AF90
:1020A400E433FEC2AF759B00906182E0A2E050125F
:1020B400E591A2E0500C7591FE7401652170031244
:1020C4001D79E0A2E55051E591A2E5504B7591DFF1
:1020D4009003A2E064076005E0640870237401655E
:1020E40021703579019003D0E0FA75F003A4CAA8F1
:1020F400F028FB74D22AFA74033BFB121F268018C3
:10210400E0640D70139003C4E004F064287002E4EA
:10211400F07A00E0F9120DA8906182E0A2E6400393
:102124000221C2E591A2E640030221C27591BF904B
:1021340003A2E064057008120CD6120CE2800312AC
:102144000CDC752100120D36E99003A3F07900121E
:102154000D2A120B1A7A017B009003A1E0F91210E8
:1021640000907803E064427055900544E014F070E8
:102174004DC2AF12217A00782AD0E0F618D0E0F6EA
:10218400E59F540770057509FF800375097FC4C076
:10219400E07829E6F50808E65509F509740B78088E
:1021A400121708D0E02508F8906270E0A2E740F822
:1021B400E8C333906272F0906270E0D2E0F0906114
:1021C40081E0A2E35009E5E9A2E3500375E9F7A32E
:1021D400E0A2E75009E591A2E7500375917FEEA2D2
:1021E400E092AFD0F0D083D082D00BD00AD009D007
:1021F40008D0E0FED0E0FDD0E0FCD0E0FBD0E0FA77
:10220400D0E0F9D0E0F8D0D0D0E032C0E0C0D0C007
:1022140082C083906183E0A2E05009E5BFA2E05050
:102224000375BFFEE0A2E15009E5BFA2E1500375CA
:10223400BFFDE0A2E25009E5BFA2E2500375BFFB77
:10224400E0A2E35009E5BFA2E3500375BFF7E0A2A3
:10225400E45009E5BFA2E4500375BFEFE0A2E550E6
:1022640009E5BFA2E5500375BFDFE0A2E65009E52A
:10227400BFA2E6500375BFBFD083D0828088C0E080
:10228400C0D0E8C0E0E9C0E0EAC0E0EBC0E0ECC0E8
:10229400E0EDC0E0C0F0E5A7A2E6500FE5A1A2E69C
:1022A400500953A7BF75A1BF1222E7E5A7A2E550C5
:1022B4000CE5A1A2E5500653A7DF75A1DFE5A7A2AF
:1022C400E15009E5A1A2E1500375A1FDE5A7A2E251
:1022D400500CE5A1A2E2500653A7FB75A1FBD0F078
:1022E4000221F874F812180B7521019003A2E0641E
:1022F400067015120C708A828B83A3A3A3A3A3A3D5
:10230400E0FAA3E0FB120CC4A2AFE433FED2AF9018
:1023140003A8E0640170187A207B009003A1E0F91F
:102324001210847A207B009003A1E0F91210069029
:102334006182E0D2E6F0900541E0602185C622800A
:10234400169003A7E064017008E5C654F84405F547
:10235400C653BEFC1220747401652160E4EEA2E051
:1023640092AF7F010218B7008E238F2485822885BF
:102374008327851882851983E0CEA3E0CF85288240
:10238400852783EBC9EAC8EDCBECCA75F010C3E826
:1023940033C8E933C9EA33CAEB33CBC3EA9EF52623
:1023A400EB9FF525B35004AB25AA26EC33CCED33D3
:1023B400CDD5F0DAAE23AF242274ED12180B8A08BF
:1023C4008B098C0A8D0B7413121793780C1215FA5F
:1023D4007808790C1213F97510017511C87512007B
:1023E40075130050127808790C1215997810790831
:1023F4001213F950168010780C7908121599781078
:10240400790C1213F940047901800279007F0C02DF
:1024140018B774ED12180B8A088B098C0A8D0B748B
:1024240013121793780C1215FA780C79081213F911
:1024340040117808790C121599AA08AB09AC0AADB9
:102444000B80227510007511007512007513017848
:1024540010790C12159978107908121560AA10AB2E
:1024640011AC12AD1380A68A828B837508FF75099F
:10247400FF750AFF750B0078081215E77F04021830
:10248400B774F512180B8C828D8378081215FA8AAA
:10249400828B8378081215ADEA2404F8EB3400F932
:1024A4008C828D83A3A3A3A3E0FCA3E0FD8882898F
:1024B40083C3E09CF0A3E09DF088828983C3E09409
:1024C40020A3E0944E40268A828B837508FF750909
:1024D400FF750AFF750BFF78081215868A828B83B5
:1024E400A3A3A3A3E02420F0A3E0344EF002246BC2
:1024F40074F512180BE9FE9004F7E0FAA3E0FBEE82
:10250400C333F8E433F9745528F582748239F583BA
:10251400E02AF508A3E03BF50978081219B27A40DD
:102524007B427C0F7D0012236C74021217408A08D0
:102534008B098C0A8D0B74107808121528AA08AB25
:10254400097F040218B774F112180B8A0C8B0D8CD6
:102554000E8D0F740F121793E0FAA3E0FB7411129F
:102564001793E0F508A3E0F50978081219B2EA24F4
:1025740001F508EB3400F509E4F50AF50B780C795C
:1025840008121438750871750902780C7908121448
:1025940038AA0CAB0DAC0EAD0F12236C74021217DB
:1025A400408B09EA450960047A0180027A00EC2A2A
:1025B400FCED3400FD7413121793E0F8A3E0F9E87E
:1025C400FEE9FFECF8EDF97A717B0212169F880898
:1025D40089098E828F837808121609ECF8EDF97A4E
:1025E400717B0212169F8A088B09740578081217EA
:1025F400178E828F83A3A3A3A3E508F0A3E509F0B4
:102604007F080218B7C082C083E9906000F0D083CD
:10261400D08222C2AF02000022C0E074F21218F786
:10262400A2AFE433FED2AFC2C0E5D1A2E450065358
:10263400D1EF121276EEA2E092AF7F01021956C0DA
:10264400E074F21218F7A2AFE433FED2AFE589A228
:10265400E05003121222758900C2C5EEA2E092AFC7
:102664007F01021956C0E0C0D0E8C0E0E9C0E0E54F
:10267400A8D2AFC2C7A2E7A2E792AFD0E0F9D0E0F8
:10268400F8D0D0D0E032C0E0C0D0E8C0E0E9C0E08B
:10269400C008C009C082C083A2AFE433F9D2AF90AE
:1026A40009E2E0F8A3E0687008539AFBA374018080
:1026B40026C2E99009E2E0F50874012508F0746285
:1026C4002508F58274093400F583E0F5C19009E228
:1026D400E0C394804002E4F0E9A2E092AFD083D05A
:1026E40082D009D008D0E0F9D0E0F8D0D0D0E032E0
:1026F400FFFFFFFFFFFFFFFFC082C083E9900C8351
:10270400F002298B74F712179FE99002E1F07C190B
:102714007D037AFF7BFF12085C9002E274FFF0A352
:10272400F0A3E4F0A3F079051207E49002E1E0F9E4
:102734001207067A7A7B08120A247F010218717440
:10274400F412179F8A088B09EB548060309002E1E1
:10275400E0F9120FE88A0A8B0BAE0AAF0BEE4F605A
:10276400138E828F83E064B070031207FCEEFAEFDD
:10277400FB120FD6AA08E5096480FB80047A007B6B
:102784000002295A74F212179F74FC12172AEAFEE7
:10279400EBFFEE4F60387402121793EEF0A3EF12C2
:1027A4002BBFECF0A3ED122BBFAA82AB8312070060
:1027B400E9F50870737412121793123773E50A451A
:1027C4000B60658E828F83122836EE4F7005750874
:1027D4000280557A067B0012103C8A0C8B0DA80CE3
:1027E400A90DE8497005750813803D88828983E442
:1027F400122840A3A3EEF0A3EF123C0CE50AF0A3C9
:10280400E50BF09002E71228C89002E76017E0FC9D
:10281400A3E08003EAFCEBFD8C828D831228C87050
:10282400F38C828D83123698A9087404121740021F
:102834003E0EA3A3A3A3E0FEA3E0FF22F0A3F0882F
:102844008289832274F212179F890AE975F017A40A
:10285400FEAFF09002E6E4F09002E41228C8600AA9
:102864001210429002E4E4F0A3F0EEFAEFFB12102F
:102874003C8A088B09EA4509602FEEFCEFFD7900DC
:10288400120FBE9002E4E508F0A3E509F07B008096
:10289400081228B2E4F0A3F00BEBC3950A40F2E56A
:1028A4000A9002E6F0790080027913023E0EEB757D
:1028B400F017A4F8A9F09002E4E028FAA3E0398A1A
:1028C40082F5832212342EEA4B2274F412179F7578
:1028D4000800750900740C121793123BE0FEE9FF1F
:1028E400800CE5082401F508E5093400F509C3E581
:1028F400089CE5099D503285080A85090B74037804
:102904000A121717EA250AF8EB350BF9888289832E
:10291400A3A3A3A3A3A3123773EE650A7003EF6501
:102924000B70BFE8FAE9FB80047A007B008027740F
:10293400F412179F7900EAA2E0501B75087B750911
:102944008378081219B27C047D007A857B0C120707
:10295400DE74021217407F04021871C082C0839093
:1029640002E7122992601C88828983A3A3E06A701B
:1029740003A3E06B8882898370E8A3A3A3A3123422
:102984002A80047A007B00D083D082020122123E86
:10299400E1E8492274EE12179F74FC12172AEAFE2A
:1029A400EBFF851882851983E4F0A3F0EE2402126C
:1029B400367CEE2405122BADEE2404F50EEF122F17
:1029C40092E024FE603924FC604624FE605224FE1A
:1029D400605E24FE7003022AB224FE7003022B2AD6
:1029E40024FE7003022B3924FE7003022B4824FCBE
:1029F4007003022B5724FE7003022B66022BA39054
:102A040003007417F0A3E4122BC712047E022BA355
:102A1400851882851983AC82AD83120802022B7358
:102A2400851882851983AC82AD83120808022B7342
:102A3400850C08850D097402121793AC82AD838549
:102A4400088285098312342A1207248A0C8B0DAC60
:102A54000CAD0DEC4D6042E4F50CF50D780C12193B
:102A6400B2750C00750D03780C1219B2750C017552
:102A74000D03780C1219B274081217931219C9793C
:102A8400161234241208447408121740E9F50C7025
:102A94000B123420120496800F750C018508828570
:102AA4000983122BB5123698850C08022B76740212
:102AB400121793AC82AD83850C82850D8312342A60
:102AC4001207248A108B11AC10AD11EC4D604385B4
:102AD4000C82850D83A3A31219C975100075110307
:102AE40078101219B275100175110378101219B209
:102AF40074081217931219C979161234241208444F
:102B04007408121740E9F509700B12342012049C62
:102B1400800F750901850C82850D83122BB5123641
:102B240098850908804C851882851983AC82AD8309
:102B340012080E803A851882851983AC82AD8312FF
:102B44000814802B851882851983AC82AD83120802
:102B54001A801C851882851983AC82AD83120820E3
:102B6400800D851882851983AC82AD83120826E90D
:102B7400F508E50860298E828F83A3E06414601F42
:102B8400850E82850F83E0900300122BBF123EDD79
:102B9400900301123698E508A3122BC7120478EEAD
:102BA400FAEFFB1207A2023584F50CEF3400F50DA1
:102BB40022123EE185188285198322F085188285C8
:102BC400198322F07C007D03850A82850B831234ED
:102BD4002E2274EE12179F74FC12172A8A0A8B0B8A
:102BE4008C0E8D0FEA2405F508EB3400F5097C15ED
:102BF4007D0079007A007B03120FBEE5082402F5FC
:102C04000CE509122BB085188285198385821085FD
:102C1400831178101219B2850882850983A3A3A3AE
:102C2400A31230DA1219B2E5082405F510E50934C7
:102C340000F51178101219B2850C82850D831234B7
:102C44003412071E74061217408A108B11AE10AF8F
:102C540011E50A2402F50AE50B12367FEE4F7003E4
:102C6400022D9C8017740212179312342A888289C9
:102C740083EAF0A3EBF0900300E004F0900300E09B
:102C8400C394054003022D9CE4F510F5117810124D
:102C940019B27510E975110278101219B27510EA9B
:102CA40075110278101219B274061217931219C909
:102CB4007910EEFCEFFD1234241208447408121744
:102CC40040E9705E850882850983A3A3A3A3A3A317
:102CD400A3E0F89002E9E06870481230DA1219B201
:102CE4007CEA7D02E5082408FAE5093400FB120FAA
:102CF400B87402121740E960298E828F83A3A3A3BC
:102D0400A312342A900300E0F5107402781012170D
:102D14001774012510F58274033511F583EAF0A3C5
:102D2400EBF07402121793858210858311781012C8
:102D340019B274021217931219C9850C82850D8376
:102D4400123EF212072A74041217408A108B11AE35
:102D540010AF11900300E0F51075110074027810A3
:102D640012171774002510F874033511F988828935
:102D740083A31228C87003022C60E82403F8E93402
:102D840000F9EE4F6003022C698882898374FFF096
:102D9400A3F0900300E004F0900300E0600A123412
:102DA4002012048A7900800B8508828509831236F3
:102DB4008F790A02358474EA12179F74FE12172A57
:102DC4008C128D13EA2405F50CEB12405C12283AA0
:102DD400750800750900EA2402F510EB3400F511BA
:102DE40085188285198385820A85830B780A1219CE
:102DF400B2850C82850D83A3A3A3A3122F9C121961
:102E0400B2E50C2405F50AE50D12367F780A12198D
:102E1400B2850C82850D83123EF012071E740612D1
:102E240017408A0A8B0BEA450B7003022F4DEA24E4
:102E340004F50EEB122F9212283A8A828B83A3A3F5
:102E4400A3E0F985108285118312342A12070CE954
:102E5400F5096003022F4DE4F514F51578141219E1
:102E6400B27514E975150278141219B27514EA755D
:102E7400150278141219B274061217931219C9792B
:102E840013AC0AAD0B85108285118312342A120803
:102E9400447408121740E9F5096003022F4D9002AB
:102EA400E9E0F8E5087009E02402900301F08017D6
:102EB400900301E0FCE82402FAE43400FBEA6C70BD
:102EC40001EB6003022F51850882AA821230D1944B
:102ED400141230C95073850E82850F83E0C0E074EC
:102EE400022A122F89D0E0F00508850E82850F830F
:102EF400A3E0C0E085080A7402250A122F89D0E0F5
:102F0400F005089002E9122F9C1219B27CEA7D02A6
:102F140085080A7402250AFA74033400FB120FA60A
:102F240074021217409002E9E02508F50874FF6E58
:102F3400700374FF6F6012EE24010EEF3400FFE59E
:102F440008C394145003022DE4E5086013123315EA
:102F540085108285118312342A120490790080141A
:102F6400E509700375090A851282851383EEF0A3BF
:102F7400EFF0A90974021217407F0E021871850838
:102F84000C7402250CF58274033400F5832234009A
:102F9400F50F850E82F58322123C1F2274EE121760
:102FA4009F74FE12172A8C0E8D0FEA2405F50CEB84
:102FB400122BB0750B00900300E4F0F50AEA24022A
:102FC400F508EB3400F5098049900300E0FA90021B
:102FD400E9E0F81230D194171230C9400D90030083
:102FE400E0F87416C3989002E9F01230DA1219B2BC
:102FF4007CEA7D0274012AFA74033400FB120FA6E2
:1030040074021217409002E9E0F8900300E028F0FF
:10301400050AE50C2416F582E50D122F8DE0F8E57E
:103024000AC39840030230B2900300E0C3941650E0
:103034007DE50AC333F8E433F9E50C28FEE50D39E0
:10304400FF851882851983AC82AD838E828F8312AB
:10305400342A1207248A108B11AC10AD11EC4D7078
:1030640005750B018043E4F510F51178101219B2BF
:103074007510E975110278101219B27510EA7511FC
:103084000278101219B274061217931219C979161C
:1030940085088285098312342A1208447408121799
:1030A40040E9F50B7003022FCD12368B80107C00A3
:1030B4007D0385088285098312342A1204A2A90B90
:1030C4007402023586E99400C365D03322EA28F8F5
:1030D400E43400F9E822E0F5107511007810227448
:1030E400EA12179F74FC12172A8A0C8B0D8C128D0E
:1030F40013EA2405F50AEB12367F750800750900FA
:10310400E50A2402F510E50B3400F51174021217D8
:103114009385820E85830F780E1219B2850A8285F3
:103124000B83A3A3A3A3123BCB1219B2E50A240574
:10313400F50EE50B3400F50F780E1219B2851082E6
:1031440085118312368512342412071E7406121751
:10315400408A0E8B0FAE0EAF0FE50C2402F50EE580
:103164000D3400F50F80408882898374FFF00508D0
:10317400122F8274FFF005089002E9E0F50C750D3A
:1031840000780C1219B27CEA7D0285080C740225C1
:103194000CFA74033400FB120FA674021217409049
:1031A40002E9E02508F508EE4F60718E828F83A353
:1031B400A3A3E0F9850E82850F8312342A12070C2B
:1031C400E9F509EE2404122BADE97044E4F514F595
:1031D4001578141219B27514E975150278141219B8
:1031E400B27514EA75150278141219B2740812171C
:1031F400931219C97911EEFCEFFD850E82850F83B8
:1032040012342A1208447408121740E9F509602799
:10321400850C82850D8312330B123698E5087003F2
:103224000232F1123315850E82850F8312342A126D
:1032340004A87900023306850882AA82EA9002E98A
:103244007009E02404900301F08022E0F890030167
:10325400E0F514E82404FCE43400FDEC651470018A
:10326400ED70C01230D194121230C950B6850C8260
:10327400850D83E0C0E074022A122F89D0E0F005A6
:1032840008850C82850D83A3E0C0E0122F82D0E074
:1032940012332785820C85830D780C1219B27404BD
:1032A4001217931219C9851082851183123EF212E6
:1032B400072A74041217408A0C8B0DAE0CAF0D85CF
:1032C400080C7402250CF874033400F9EE4F7003F3
:1032D40002316B851882851983E0888289831233D1
:1032E40027A3E0C0E0122F82D0E0023179E5097013
:1032F4000375090A850A82850B8312330B123698EB
:10330400A9097404022F7A123EE18512828513837F
:1033140022900301E0F5F0E50884900300F07C00BE
:103324007D0322F005088518828519832274EC1226
:10333400179F74FE12172A8A088B098C0E8D0FEAC8
:103344002405FEEB3400FF851882851983AC82AD19
:10335400838E828F8312342A1207248A0A8B0BEEFF
:103364002418122BADEA450B70030233FB12356DA2
:10337400503285188285198312342A1208388A102B
:103384008B11EA4511606B7912AC0AAD0B8508828A
:1033940085098312342A85108285118312179DE9C9
:1033A400F50A7058E4F50AF50B780A1219B28E8200
:1033B4008F83A3A3E0F50A780A1219B2EE2403124C
:1033C400367C780A1219B28E828F83123434120832
:1033D4004A7406121740E9F50A7021850C82850D9E
:1033E40083E0701F85088285098312342A1204AE93
:1033F4008011750A0E8009750A018004E50A6003CC
:1034040012368B850C82850D83E06004790080027E
:10341400A90A74021217407F0C0218717C007D0304
:10342400850A82850B8312342E22E0FAA3E0FB2264
:10343400E0FCA3E0FD85088285098312342E227402
:10344400EE12179F74FE12172A8A088B098C0C8DB2
:103454000DEA2405FEEB3400FF750E008518828505
:103464001983AC82AD838E828F8312342A1207248F
:103474008A0A8B0BEA450B700302355912356D50DD
:103484003585188285198312342A1208388A0E8BDE
:103494000FEA450F605E7912AC0AAD0B8508828590
:1034A400098312342A850E82850F8312179DE9F54C
:1034B4000E600302355C850882850983123773AA7E
:1034C4000AFB12082C8A108B11A810A911E8497064
:1034D4001E7AFF7BFF12082C8A108B11A810A911E9
:1034E400E849606C88828983E50AF0A3E50BF075EE
:1034F4000A008007750E0E805F050A9002E6E0FA66
:10350400E50AC39A504AE50A75F017A4FAABF088A5
:10351400828983A3A3E02AFAA3E03BFB8A828B83FC
:10352400123685EC4D70D2750A17750B00780A12A5
:1035340019B2EEFCEFFD120FA67402121740EEFC56
:10354400EFFD85088285098312342A1204B480149D
:10355400750E098003750E01123ED9850C82850D06
:1035640083123698A90E0230C4E5082402F508E552
:10357400093400F5098A828B83A3A3A3E0A2E52280
:1035840074041217407F0A02187174EC12179F8C8E
:10359400108D11EA2405F50CEB122BB0750F00EA1F
:1035A4002402F50AEB12367F850A82F58312342A47
:1035B40012082C8A088B09EA4509700302367175D2
:1035C4000E008071850C82850D83E06401704F8E3E
:1035D400828F83A3A31219C98E828F83A3A3A3A36B
:1035E400E0F51275130078121219B2EE2405F512E3
:1035F400EF3400F51378121219B212342412084A67
:103604007406121740E9F50F6014850C82850D834A
:10361400E4F0123ED98510828511831236987C1706
:103624007D007900EEFAEFFB120FBE8E828F83E4E9
:10363400F0A3F0050E9002E6E0F8E50EC398501EE4
:10364400E50E75F017A4F8A9F0850882850983A30F
:10365400A3124066123685EC4D60030235C8850816
:103664008285098374FFF0A3F0E50F7006123424F9
:103674001204BAA90F02341BF50AEF3400F50B2229
:10368400A3E0FCA3E0FD228E828F83123EE1850E2F
:1036940082850F83E8F0A3E9F022C082C083900200
:1036A400E2E06A7003A3E06B70067AE27B028004B6
:1036B4007A007B0002298BC082C08378008C828DC3
:1036C40083E06A7003A3E06B7010E875F003A4F85C
:1036D400A9F0EC28FAED39FB8015088C828D83A3C0
:1036E400A3A3E06A7003A3E06B60DF7A007B0002AF
:1036F400298B74F612179F1207F68A828B83E58250
:10370400458370067A007B008007A3A3A3A3123429
:103714002A023D8A74F212179FE9FE740E1217935F
:103724001237737410121793123BEB8C828D83E063
:1037340064027036A3123EE7F50CA3E0F9A80C74FA
:10374400026870037429697021750C02750D007884
:103754000C1219B278081219B2780A1219B2EEF9D9
:1037640012086E740612174080027901023E0EE0C0
:10377400F50AA3E0F50B2274E812179F74FB1217E5
:103784002AE9851882851983F08A168B17ECFEEDD9
:10379400FF751000741D121793123EDD741D12176D
:1037A400931236988E828F83A3A3A3E0A2E4502DB4
:1037B400741D12179312342A1208388A828B83E5F7
:1037C4008245837003023BBC790AEEFCEFFDAA1626
:1037D400AB1712179DE9F5106003023BBF741F126B
:1037E4001793123BEB74211217931237737423123D
:1037F4001793E0F50EA3E0F50F8E828F83E0640249
:103804006003023B6AA3123EDD850882850983A317
:10381400858212858313EE2406122BAD8882898358
:10382400E0FAA3E0F9EA2400F514E439F515781474
:10383400121A3C0100002801285F380700022824DE
:10384400390328913800295B3A0129863A0229274D
:103854003A03295B3A0429053B6A3BE50E450F60B0
:1038640003023B65850C82850D83123BE0FAE9FB7C
:103874008A828B83E0850A82850B83123C16121997
:10388400B28A828B83A3E0FCA3E0023AEFE50E4503
:103894000F6003023B65850A82850B837401F01275
:1038A4003BF3850882850983F07C007D008E828F3E
:1038B40083A3A3A3A3E02401FAA3E03400FB12072B
:1038C40024EA4B60418A828B83E02402F8850A82D1
:1038D400850B83E028F0EA2404F8EB3400F98882AD
:1038E4008983E0851282851383123C28123C1612C8
:1038F40019B28A828B83123684E5082403FAE50917
:103904003400FB023AF4850A82850B83E02404F038
:103914007C047D007900AA12AB13120FBE023BBFD8
:10392400E50E450F6003023B65123BF3FEA3E0FF87
:10393400850A82850B837404F0EE850882850983E9
:10394400F0EF851282851383F07403121793AC820F
:10395400AD83EEFAEFFB1207248A0C8B0DEA450DBA
:103964007003023A088A828B83A3A3122836740157
:1039740012179385820E85830F780E1219B274057F
:103984001217931219C97CFF7DFF12072A740412BF
:1039940017408B0FEA450F7033850C82850D831217
:1039A4003BCB1219B2850C82850D83A31219C97CF5
:1039B400027D007A2F7B841205567404121740E9A5
:1039C400700A740112179374FFF0A3F08E828F8330
:1039D400E064027039750C02750D00780C1219B28E
:1039E4008E828F83123684E5082404FAE5093400B4
:1039F400FB120FA67402121740850A82850B83E01E
:103A0400240280097401121793EEF0A3EFF07401FD
:103A1400121793123BDCF07401121793A3123BD4D8
:103A2400023B5FE50E450F6003023B65850C828512
:103A34000D83123685AA16AB17120862850A828591
:103A44000B837402F0EA850882850983F08512826B
:103A5400851383EB023B62E50E450F6003023B6571
:103A6400123BF3F8A3E0F9850A82850B837402F014
:103A7400E8850882850983F0E9851282851383022B
:103A84003B62850C82850D8312342A120FA0EAFC56
:103A94008C82A882C3950EE4950F405FE8650E7092
:103AA40002E50F70047C008022851882851983E06A
:103AB400FAE50E2AFAE50F3400FBC3EA98EB94000A
:103AC4005003E08005E50ECCC39CFCEC850A82859E
:103AD4000B83F08C0A750B00780A1219B2850C82DC
:103AE400850D83E0250EFCA3E0350FFDAA08AB0984
:103AF400120FA67402121740023BBF751007023B57
:103B0400BFE50E450F705A850C82850D83123EDD8C
:103B1400850A82850B837407122842123BD412282B
:103B240042A3E0851282851383F0E82402FAE93483
:103B340000FB8A828B83123BD4123C03123BDCA32E
:103B4400123C0C123BE5F0E82405F8E93400F9884E
:103B5400828983123BE5A3123C28A3A3A3A3F0808C
:103B64005A75100B8055741D12179312342A1207BC
:103B7400F68A828B83E5824583603D123EDD880CA4
:103B8400890DE8450D6031780E1219B2780A1219C0
:103B9400B278081219B27406121793E0F9EEFCEF2A
:103BA400FDAA16AB17850C82850D8312179D74062A
:103BB400121740E9F510800375100EA91074051250
:103BC40017407F10021871E0F50E750F00780E2271
:103BD400E085088285098322123C3222123EE1E804
:103BE40022123C32A3A322E0F508A3E0F5092285C2
:103BF4000C82850D83E0F8A3E0F5838882E022A39C
:103C0400A3F08A828B83A322F088828983A3A3A34F
:103C1400A322F08A828B83123C1F22E0F50A750BE3
:103C240000780A22F088828983A3123C3222E0853C
:103C34000882850983A3A32274EE12179F74FE12CF
:103C4400172A8A0A8B0BECFAEDFB7414121793E013
:103C5400F510A3E0F5117416121793E0FE74181210
:103C64001793E0F50EA3E0F50F851882851983AC50
:103C740082AD831207248A0C8B0DEA450D604985B9
:103C8400188285198312342A1207F68A828B83E5F7
:103C9400824583602FA3A3123BEBE508450960240A
:103CA400780E1219B278101219B2EEF9AC0CAD0DEF
:103CB400AA0AAB0B85088285098312179D74041226
:103CC40017408006790E800279010230C474F6121E
:103CD400179F74FE12172A740C121793123BE08577
:103CE4001882851983F07401121793E9F0E4F5083A
:103CF400F50978081219B275080278081219B27415
:103D04000412179385820885830978081219B21260
:103D1400084A74061217407402121740806874F738
:103D240012179FEAFEEBFF89087C197D03120862D3
:103D3400EA5402600BA908EEFAEFFB12071880029E
:103D4400790102273E74F612179F74FF6A70037498
:103D5400FF6B70168C828D83123D8FE4F08C828D04
:103D640083A3A3A3123D8FA380181208328A088B61
:103D740009A808A909E849600D8882898374FF129B
:103D84002840A3A3E4F07F0202187174FFF0A3F0AB
:103D94008C828D83A3A32274F612179F1208328A91
:103DA400828B83E58245836006A3A3E0FA80027ACE
:103DB400007B0080D174F212179F8A088B09ECFEF5
:103DC400EDFF740E121793E0F50A1208328A0C8B79
:103DD4000DA80CA90DE8497026EEFCEFFD7AFF7BD7
:103DE400FF1208328A0C8B0DA80CA90DE849700447
:103DF4007911801688828983E508F0A3E509F088A3
:103E0400828983A3A3E50AF079007F0602187174FE
:103E1400EE12179FEAFEEBFF8C088D09890C7414CF
:103E2400121793123EDD741612179312342A750D6D
:103E340000E8496003023ED17402650C6003023E4F
:103E4400CC7412121793123EE7FCA3E0F9EC2400A1
:103E5400F50EE439F50FEAF4F8EBF4F9EC58F8E56B
:103E64000F59F9E849705CE5082406F8ED3400F9C7
:103E7400880A890B8882F583123EF21208628A103E
:103E84008B11E50E65107004E50F65116042780E24
:103E94001219B2850A82850B83123EF212086874E5
:103EA40002121740E9F50D7027780E1219B2850831
:103EB40082850983A3A3123EF012088074021217AC
:103EC40040800D750D808008750D0D8003750D0BF8
:103ED400A90D0235898E828F83123EE122E0F8A378
:103EE400E0F922123EE188828983E022A3A3E0FC68
:103EF400A3E0FDEEFAEFFB2274E812179F74E712B9
:103F0400172A851882851983EAF0A3EBF08C168DA5
:103F140017890E7508007509007431121793E0F5BE
:103F240012A3E0F5137433121793E0F514A3E0F52C
:103F3400157435121793E0F50FE50975F003A4F82D
:103F4400A9F0851882851983124066E0F47003A3F2
:103F5400E0F47003024049EE2402F50CEF12405CD9
:103F6400E0700302404985160A85170B780A121976
:103F7400B2AC14AD15AA12AB131207EA74021217ED
:103F8400408A0A8B0BEA450B7003024049E4F510A2
:103F9400F51178101219B2740612179385821085E0
:103FA400831178101219B27409121793858210853F
:103FB400831178101219B2851282851383A3A3A3E7
:103FC400A31219C97914AC0AAD0B8E828F831234F3
:103FD4002A1208447408121740E97069850A828518
:103FE4000B83A3A3A3A3123EDD740212179312360C
:103FF40098850C82850D83E0A2E05018A90E740206
:10400400121793AC82AD838E828F8312342A1207E7
:104014003CE94208850C82850D83E0A2E15026E547
:104024000FF50A780A1219B6A90E7403121793AC85
:1040340082AD838E828F8312342A12073674011262
:104044001740E942080509E509C394025003023FF9
:104054003DA9087419023BC33400F50D850C82F5A3
:104064008322E028FEA3E039FF8E828F832274F23C
:1040740012179FEAFEEBFF890B7401650B600E7447
:1040840002650B706A7901120A42E97062EEFAEF76
:10409400FB12082C8A088B09EA45096047750A0057
:1040A400800B7C177D007900120FBE050A9002E692
:1040B400E0F8E50AC3985021E50A75F017A4F8A9B9
:1040C400F0850882850983A3A3E028FAA3E039FBDD
:1040D4008A828B8312299270C98508828509837428
:1040E400FFF0A3F07C197D03EEFAEFFB12085C02EB
:1040F4003E0E74F212179F8A088B09ECFEEDFF74D2
:104104000E121793123773900C83E0F4603D7A0912
:104114007B00120FD0EA4B60328A828B8374B1F039
:10412400A3E4123C05A3123C03A3E508F0A3E509AC
:10413400124152EEF0A3EF124152A3A3E50AF0A3F9
:10414400E50BF0900C83E0F9120FDC023E0EF08ACE
:10415400828B83A3A3A3A3A322C082C08390619074
:104164007404F0A37448F0A37402F0906180744066
:10417400F09061BC7403F09061877419F0906265EB
:10418400741BF0906249E0C3941390619C400A74DC
:1041940009F090606674018007740DF0906066E425
:1041A400F090619A7433F0A37455F09061A0743A5E
:1041B400F090053FE064017009C2919003A6746712
:1041C40080059003A67461F09026FAE493906186CA
:1041D400F09026F4E493F46027E493540FF890618C
:1041E40085E0686012E5C654804449F5C6E59E54EE
:1041F4007F644970F8E8F053C680E59E547F70FAF6
:104204007905120D8A02438BC082C083E5A8F85356
:10421400A87E906181E4F0A3F0A3F0C2BA539AFEA1
:10422400C289759B00C2C275E90075910075BF0013
:1042340075A91175B905906181F0A374C0F0A3E468
:10424400F0D2BA439A0174805842A802438BC082C8
:10425400C08374F812172A9003A4E0F8A3E0F9E8E5
:104264004970030243809003A4E05440602379081A
:10427400851882851983AA82AB83120BFE85188266
:10428400851983AA82AB831208F29003A4E054BF79
:10429400F0E054806010790C7A657B05120BFE9077
:1042A40003A4E0547FF0E0A2E0503190619A7433AB
:1042B400F0A37455F09061A0743AF090053FE06467
:1042C400017009C2919003A6746780059003A674D7
:1042D40061F01208F89003A4E054FEF0E054026088
:1042E4003190619A743FF0A3745AF09061A0747F86
:1042F400F090053FE064017009D2919003A67471B7
:1043040080059003A6746AF01208F89003A4E054A0
:10431400FDF0E0540460139026F8E493906186F075
:104324001208FE9003A4E054FBF0E05408601390DC
:1043340026F9E493906186F01208FE9003A4E054F9
:10434400F7F0E0541060139026FAE493906186F03D
:104354001208FE9003A4E054EFF0E05420600A1227
:1043640008FE9003A4E054DFF0A3E05401600D12B2
:104374000B261209049003A5E054FEF074081217EA
:104384004002438BF0A3F0D083D08202012274EC6C
:1043940012179F74F412172A851882851983AC8228
:1043A400AD837583837582B8740412163D9026F824
:1043B40093F4600302451E907808E0C3940250030E
:1043C4000244FE7404121793AC82AD837583837523
:1043D4008252740812163D851882851983858212CB
:1043E4008583137404121793AC82AD83750EFF7525
:1043F4000FFF7FFF7E00750C48750D7880157408DB
:104404006E700302449274096E7003024492740A3B
:104414006E607B850C82850D8378081215FA8C8278
:104424008D83A909E50AC9F888107418780812154B
:1044340028E5104508F8C3E098A3E099850C828527
:104444000D8378081215FA40188C828D83741878BD
:1044540008121528E5104508F8E0C398F8A3E08091
:104464001C74187808121528E5104508FAE9FB8C25
:10447400828D83E0F8A3E0F9EAC398F8EB99F9C3D5
:10448400E8950EE9950F5006880E890FEEFF0EE5AC
:104494000C2404F50CE50D3400F50DEEC394135013
:1044A4000302440274FF650E700474FF650F6023F9
:1044B4008F087402780812171774482508F5827457
:1044C400783509F58378081215FA851282851383E5
:1044D400E508F0EC2402FCED3400FD85128285131E
:1044E40083A3858212858313740C121793E5826C5F
:1044F4007003E5836D60030243F0750801750900DC
:1045040078081219B27402121793AC82AD837ABE82
:104514007B091211EC7402121740740C1217407FBD
:104524000C021871C082C0839061AE7468F0A374E9
:104534006AF090624574FBF0A304F053F4FD43FE6B
:104544000290053F7401F09061A0E0643A90619A92
:1045540070237433F0A37455F09061A0743AF0742E
:104564000164017009C2919003A6746780289003C6
:10457400A674618021743FF0A3745AF09061A07412
:104584007FF0740164017009D2919003A674718064
:10459400059003A6746A02438A7F08021871C082D8
:1045A400C0839004F1E06401700A9004F6E06004B2
:1045B400790C8002790002438BC082C08375E1F1DB
:1045C4009004F4E0605B14600914605F1460571495
:1045D400705E120B389004EAE0F97AEB7B04120D5A
:1045E4000C7AD67BBE7C897D8E120D427A557B5522
:1045F4007C557D00120D189004F5E0F9120D247914
:1046040001120D7E9004E8E0F8A3E0C82416F582B8
:10461400E83400F5837450F0A3740BF0790002437E
:104624008B120B3E80AF120B4480AA120B4A80A55A
:10463400791280EA74F012179F75D90D9004D5E0B1
:10464400A2E0E4331313F89004EAE0C4333354C013
:10465400484401F5D978E8790488828983A3A3A31F
:10466400E0F5D988828983A3A882A983E864EE70DF
:1046740003E9640470E378D5790488828983A3E02C
:10468400F5D988828983A3A882A983E864DB7003AF
:10469400E9640470E575E1959004D5E0F97AD67B78
:1046A40004120D12900CA574EAF0A3740AF0A3741A
:1046B40046F0A3740CF0A37446F0A3740CF0A37436
:1046C40046F0A3740CF0A374F0F0A3740AF0A3747E
:1046D40046F0A3740CF0A37408F0A3740BF0900CD0
:1046E400B37446F0A3740CF0A37446F0A3740CF0F6
:1046F400A37446F0A3740CF0A37446F0A3740CF0F6
:10470400A37446F0A3740CF0A37446F0A3740CF0E5
:104714009004F4E064019004E87012E0F8A3E0F57A
:10472400838882A3A37508007509088010E0F8A3A4
:10473400E0F5838882A3A3750804750900750A004F
:10474400750B007808121573750CFF750DFF750E47
:10475400FF750F007808790C1215C19004E8E0F891
:10476400A3E0C8240EF582E83400F5837808121615
:10477400099004E8E0F8A3E0C82414F582E83400C2
:10478400F5837413F09003A27402F002459D74F74C
:1047940012179F9004FAE02407F5D99004EAE0C4C4
:1047A400333354C0F5D978E8790488828983A3A384
:1047B400A3E0F5D988828983A3A882A983E864EE5B
:1047C4007003E9640470E39004FAE0601F78E87908
:1047D40004FAE82413F582E93400F583E0F5D98876
:1047E400828983A3A882A9831AEA70E690051AE055
:1047F4002407F5D99004EAE0C4333354C04404F5E3
:10480400D978E8790488828983A3A3A3E0F5D988B9
:10481400828983A3A882A983E864EE7003E964040F
:1048240070E390051AE0601F78E87904FAE824330D
:10483400F582E93400F583E0F5D988828983A3A859
:1048440082A9831AEA70E675E195900CA574F6F0D6
:10485400A3740AF0A37446F0A3740CF0A37446F096
:10486400A3740CF0A37446F0A3740CF0A374F0F0DA
:10487400A3740AF0A37446F0A3740CF0A37408F0B4
:10488400A3740BF0900CB37446F0A3740CF0A374EF
:1048940046F0A3740CF0A37446F0A3740CF0A37454
:1048A40046F0A3740CF0A37446F0A3740CF0A37444
:1048B40046F0A3740CF09004E8E0F8A3E0C8240EDA
:1048C400F582E83400F58374FFF0A3F0A3F0A3F0BD
:1048D4009004E8E0F8A3E0C82414F582E83400F575
:1048E400837412F09003A27401F0FF02187174F73C
:1048F40012179F9004FAE02407F5D99004EAE0C463
:10490400333354C04402F5D978E879048882898322
:10491400A3A3A3E0F5D988828983A3A882A983E805
:1049240064EE7003E9640470E39004FAE0601F78B5
:10493400E87904FAE82413F582E93400F583E0F514
:10494400D988828983A3A882A9831AEA70E675E1CB
:1049540095900CA57402F0A3740BF0A37402F0A359
:10496400740BF0A37402F0A3740BF0A37402F0A30D
:10497400740BF0A37402F0A3740BF0A37402F0A3FD
:10498400740BF0A37408F0A3740BF0900CB374468A
:10499400F0A3740CF0A37446F0A3740CF0A3744653
:1049A400F0A3740CF0A37446F0A3740CF0A3744643
:1049B400F0A3740CF0A37446F0A3740CF09004E814
:1049C400E0F8A3E0C8240EF582E83400F58374FF10
:1049D400F0A3F0A3F0A3F09004E8E0F8A3E0C82467
:1049E40014F582E83400F5837414F09003A274047F
:1049F400F0024CB974F712179F9004FAE02407F5FB
:104A0400D99004EAE0C4333354C04406F5D978E8B5
:104A1400790488828983A3A3A3E0F5D98882898352
:104A2400A3A882A983E864EE7003E9640470E390A8
:104A340004FAE0601F78E87904FAE82413F582E9BF
:104A44003400F583E0F5D988828983A3A882A983F9
:104A54001AEA70E690051AE02407F5D99004EAE012
:104A6400C4333354C04404F5D978E879048882897E
:104A740083A3A3A3E0F5D988828983A3A882A98309
:104A8400E864EE7003E9640470E390051AE0601FC3
:104A940078E87904FAE82433F582E93400F583E010
:104AA400F5D988828983A3A882A9831AEA70E67556
:104AB400E195900CA574FCF0A3740AF0A37446F07D
:104AC400A3740CF0A37446F0A3740CF0A37446F022
:104AD400A3740CF0A37446F0A3740CF0A37446F012
:104AE400A3740CF0A37408F0A3740BF0900CB374CB
:104AF40046F0A3740CF0A37446F0A3740CF0A374F2
:104B040046F0A3740CF0A37446F0A3740CF0A374E1
:104B140046F0A3740CF0A37446F0A3740CF0900454
:104B2400E8E0F8A3E0C8240EF582E83400F58374C5
:104B3400FFF0A3F0A3F0A3F09004E8E0F8A3E0C82A
:104B44002414F582E83400F5837415F09003A274FC
:104B540003F0024CB9C082C0839004E8E0F8A3E0FB
:104B6400C82406F582E83400F583E402438874F728
:104B740012179F9003D0E0F875F003A4C8AAF02A96
:104B8400F974D228F8740339F9E82405FAE93400F1
:104B9400FB8A828B83E0FCA3E0FD88828983A3A344
:104BA400A3A3A3A3A3A3A3ECF0A3EDF0888289831A
:104BB400A3A3A3A3A3A3A3E024FFF8A3E034FFF9D2
:104BC4008A828B83E8F0A3E9F0024CB974F71217D8
:104BD4009FEAFEEBFF9061D0E06003024CAD75D913
:104BE4000E75D90375D904EE248BF582EF3400F5E4
:104BF40083E5822408F8E5833400F9E0F5D9A3E8D5
:104C040065827003E9658370F2EE2483F582EF34E4
:104C140000F583E5822404F8E5833400F9E0F5D94E
:104C2400A3E865827003E9658370F275E1957908FC
:104C3400EE248BFAEF3400FB120BF27904EE24839A
:104C4400FAEF3400FB120BF27C00EEF8EFF9ECFA09
:104C5400C3E49AFA95E0FBEE2AFAEF3BFBEA248AD6
:104C6400F582EB3400F583E0C0E0E824AAF582E99C
:104C74003400F583D0E0F00C88828983A3A882A94C
:104C840083ECC3940840C7EE246FF582EF3400F53B
:104C940083E0F8A3E0F9EE2471F582EF3400F583A4
:104CA400E8F0A3E9F07901800279008008F0EEA22F
:104CB400E092AF79007F01021871C082C08375D978
:104CC4000275D90375D90575E195EA246FF582EB70
:104CD4003400F583E0F8A3E0F9EA2471F582EB34BB
:104CE40000F583E8F0A3E9F0790102438B74F6122E
:104CF400179FEAFEEBFF9005457406F075084575AD
:104D0400090578081219B27C017903120C3A74026D
:104D140012174075D90675D903758245758305E068
:104D2400F5D9A3E582644A7004E583640570F075DF
:104D3400E1959003A2E06408701EEE246FF582EF03
:104D44003400F583E0F8A3E0F9EE2471F582EF3442
:104D540000F583E8F0A3E9F07901024FBF74F6127D
:104D6400179FEAFEEBFF9061D0E070667801900532
:104D740045740BF09003A2E064077019750845753B
:104D8400090578081219B27C017903120C3A7402ED
:104D94001217407805740128F5D975D90375824531
:104DA400758305E8FAE0F5D9A31AEA70F875E19578
:104DB400EE246FF582EF3400F583E0F8A3E0F9EE1A
:104DC4002471F582EF3400F583E8F0A3E9F079016A
:104DD40080027900024FBF74F712179FEAFEEBFFBF
:104DE40075D90375D90375D90DEE24DDF582EF3439
:104DF40000F583E0F5D975E1957904120D48EE24A8
:104E04006FF582EF3400F583E0F8A3E0F9EE247146
:104E1400F582EF3400F583E8F0A3E9F07901024C60
:104E2400B974F612179FEAFEEBFF9061D0E0F874B4
:104E340080C398FAEE2482F582EF3400F583E060B3
:104E440004780480027800E8240BF8EAC39850033D
:104E5400024EEA7D09900545EDF0EE24E2F8EF34C8
:104E640000F97A467B057C0888828983E08A828BF4
:104E740083F088828983A3A882A9838A828B83A3EF
:104E8400AA82AB831CEC70E0EE2482F582EF34003E
:104E9400F583E0601D75084575090578081219B297
:104EA4007C097903EEFAEFFB120C3A7402121740F4
:104EB4007D0D74012DF5D975D9037582457583056A
:104EC4008D08E0F5D9A31508E50870F675E1957924
:104ED40004120D48EE241DF582EF3400F583E4F04E
:104EE400A3F0790180027900024FBF74F612179F74
:104EF400EAFEEBFF9061D0E0F87480C398FAEE24E8
:104F040082F582EF3400F583E0600478048002784F
:104F140000E82408F8EAC3985003024FBD780690CD
:104F24000545740CF09003BFE0900546F09003C073
:104F3400E0900547F09003C1E0900548F09003C26B
:104F4400E0900549F09003C3E090054AF0EE248216
:104F5400F582EF3400F583E0601B7508457509059B
:104F640078081219B27C067903EEFA120C3A74022C
:104F7400121740780A740128F5D975D9037582454A
:104F84007583058808E0F5D9A31508E50870F6755A
:104F9400E1957904120D48EE246FF582EF3400F5A3
:104FA40083E0F8A3E0F9EE2471F582EF3400F58391
:104FB400E8F0A3E9F07901800279007F0202187118
:104FC40074F612179FEAFEEBFF9061D0E0F874804C
:104FD400C398FAEE2482F582EF3400F583E060048E
:104FE400780480027800E82404F8EAC398500302A5
:104FF400509E7802900545E8F0EE24F4F582EF34F3
:1050040000F583E0900546F0EE2482F582EF34004B
:10501400F583E0601B75084575090578081219B217
:105024007C027903EEFA120C3A74021217407806E5
:10503400740128F5D975D9037582457583058808E7
:10504400E0F5D9A31508E50870F675E195EE24732B
:10505400F582EF3400F583E4F0EE247FF582EF343B
:1050640000F583E4F0EE241DF582EF3400F583E4CB
:10507400F0A3F07904120D48EE240DF582EF34000C
:10508400F583E0F8A3E0F9EE2471F582EF3400F53E
:1050940083E8F0A3E9F0790180027900024FBF743C
:1050A400F612179F9061D0E0F87480C398FCEA244C
:1050B40082F582EB3400F583E060047804800278A2
:1050C40000E82404F8ECC398405B79029005457429
:1050D40007F0EA24F5F582EB3400F583E090054609
:1050E400F0EA2482F582EB3400F583E06018750859
:1050F4004575090578081219B27C0209120C3A7434
:10510400021217407906740129F5D975D9037582FD
:1051140045758305E9F8E0F5D9A318E870F875E159
:1051240095790180027900024FBF74F512179FE947
:10513400FCA2AFE433F50AC2AF7D0080010DEA247E
:105144006EF582EB3400F583E0F8EDC398501A8DC8
:1051540008EA2508F8EB3400F9E8246AF582E93412
:1051640000F583E06C70D68024EA246EF8EB3400FA
:10517400F9E0FEEA2EFAEB3400FBEA246AF582EB4E
:105184003400F583ECF088828983E004F0E50AA218
:10519400E092AF7F0302187174F612179FA2AFE476
:1051A40033FDC2AFEA246EF582EB3400F583E014DC
:1051B400F07C0060368C08EA2508F8EB3400F9E846
:1051C400246BF582E93400F583E0C0E0E8246AF555
:1051D40082E93400F583D0E0F00CEA246EF582EB2A
:1051E4003400F583E0F8ECC39840CAEA246DF582F4
:1051F400EB3400F58374FFF0EA2469F582EB3400A4
:10520400F583E4F0EDA2E092AF024FBFC082C08309
:10521400E5A8F8C2AFEA246AF582EB3400F583E925
:10522400F0EA2469F582EB3400F583E4F0E8A2E7C0
:10523400A2E792AF02438B74F312179FEAFEEBFFCF
:10524400ECFAEDFB8A828B83A3A3A3A3E0541FF0A3
:10525400EE2436F582EF3400F583E4F0F50AEEFC33
:10526400EFFD8A828B83E0C0E0EC245DF582ED34AF
:1052740000F583D0E0F0750B00E50A33333354F8BE
:10528400F50C8A828B83E0F508750900E50B780834
:105294001216F8E508A2E0502FEE2436F8EF340099
:1052A400F988828983E0F508EE2508F508EF3400D3
:1052B400F509E5082438F582E5093400F583E50CA1
:1052C400F088828983E004F0050B050CE50BC39498
:1052D4000840AF050A8A828B83A3AA82AB838C829F
:1052E4008D83A3AC82AD83E50AC3940550030252B7
:1052F400667F0502187174F712179F9003CEE0645D
:105304000170030254587A009003D4E060030254FD
:10531400587401F0A3E4F0A3F090043404F0900472
:1053240039F09003D7E4F0A3F0A3F0A3F09003E1E5
:1053340004F0900407E4F09003EAF0A3F0A3F0A3D0
:10534400F0A3F0A3F0A3F0900451F0900445F09082
:10535400043A7480F0A3E4F0900440F09004BCF0AC
:10536400A3F0A3F0A3F0A3F0A3F0A3F0A3F09004A0
:10537400C5F0900454F09004A4F0A3F0A3F0A3F0BB
:10538400A3F0A3F0A3F0A3F0A3F0A3F09004B0F073
:105394009004B2F09004AEF09004C8F0A3F0A3F02F
:1053A400A3F0A3F0A3F0A3F0A3F078CE7903E8244C
:1053B4006EF582E93400F58374FFF00A88828983EC
:1053C400A3A882A983EAC3940440E37ACE7B03783A
:1053D400DC790488828983E0C0E0EA2461F582EB09
:1053E4003400F583D0E0F088828983A3A882A9835E
:1053F4008A828B83A3AA82AB83E864E17003E964A5
:105404000470D07ACE7B0378B5790388828983A32C
:10541400E0C0E0EA24E6F582EB3400F583D0E0F066
:1054240088828983A3A882A9838A828B83A3AA8280
:10543400AB83E864BD7003E9640370CF9003CEE0EE
:1054440004F0640170089003D6E09003D0F07AD29F
:105454007B0380047A007B00024CB9C082C0839035
:1054640003D5E4F09003D4F09003CEF0A3F0A3743A
:10547400FFF075E1F102438BC082C08378007900AC
:105484009003D5E0600478D2790388828983A3A34A
:10549400A3A3E0F902438B74F612179FEAFEEBFF15
:1054A400EE2463F582EF3400F583E0F8A3E0F9E835
:1054B400497003025540EE2463F8EF3400F97A0092
:1054C4007B00A2AFE433F508C2AF88828983E0FC95
:1054D400A3E0FDEC4D603A88828983E0FAA3E0FB07
:1054E4008A828B83E0FCA3E0FD88828983ECF0A3AD
:1054F400EDF08A828B83E4F0A3F088828983E0FC58
:10550400A3E0FDEC4D700A88828983A3A3E4F0A391
:10551400F0E508A2E092AF1212B29004E2E004F0C7
:105524009004E3E004F0EE2463F582EF3400F583A5
:10553400E0F8A3E0F9E84960030254BA8E828F834D
:10554400A3A3A3E0600F8E828F83A3A3A3E4F090B0
:1055540003CFE014F09003CEE014F070069003D073
:1055640074FFF08E828F83A3A3E4F09004E1E070D3
:105574000D9003CFE0640170057900120D2AEEFA54
:10558400EFFB120C6A024FBF74F712179FEAFEEB8F
:10559400FF8E828F83A3A3A3A3E0FA7B00120946A4
:1055A400EEFAEFFB120BBC120C52024CB9C082C0D3
:1055B4008378B5790388828983A3E4F08882898318
:1055C400A3A882A983E864BD7003E9640370E6902C
:1055D40003B6740102438A74F612179FEAFEEBFFC6
:1055E400EC2403F8ED3400F988088909EC2407F861
:1055F400ED3400F9E8FCE9FD8C828D83E0F8A3E04A
:10560400F9850882850983E0FAA3E0FB12169FEE70
:10561400240DF582EF3400F583E8F0A3E9F08C82E1
:105624008D83E0F8A3E0F9850882850983E0FAA375
:10563400E0FB12169F8B09EA45096013EE240DF571
:1056440082EF3400F583E02401F0A3E03400F0029B
:105654004FBF74F612179FEAFEEBFFEE242EF5827D
:10566400EF3400F583E0FCA3E0FD780079FAECFA6E
:10567400EDFB12169FEE246FF582EF3400F583E8FC
:10568400F0A3E9F0780079FAECFAEDFB12169F8B9F
:1056940009EA45096013EE246FF582EF3400F583BF
:1056A400E02401F0A3E03400F0024FBF74EC1217C1
:1056B4009FEAFEEBFF741412179378081215FA127E
:1056C4000CEE8A0C8B0D8C0E8D0F7510027511006B
:1056D400751200751300780C79101215607510FF9F
:1056E4007511FF7512FF780C79101215C1780C1220
:1056F40019AE8E828F83E0F8A3E0F5838882A3A39A
:105704001216181223BD7404121740E960030258DC
:10571400148E828F83E02402F8A3E03400F9E8FABF
:10572400E9FB8A828B8378081215868A828B8375BB
:1057340008FF7509FF750AFF750B0078081215E755
:10574400EE240BF582EF3400F583C082C0838E8291
:105754008F83A3A3A3A3A3E02401F8A3E03400F957
:10576400D083D082E0687003A3E0697005790102F8
:1057740058168E828F83A3A3A3A3A3A3A3E024011B
:10578400F0A3E03400F0EE2473F582EF3400F583E7
:10579400E064017036EE2474F582EF3400F583E0A2
:1057A400F8A3E0F98E828F83A3A3A3A3A3A3A3E00A
:1057B400687003A3E0697013EE2474F582EF34007B
:1057C400F583E02401F0A3E03400F0EE247FF582B9
:1057D400EF3400F583E064017036EE2480F582EF47
:1057E4003400F583E0F8A3E0F98E828F83A3A3A3AA
:1057F400A3A3A3A3E0687003A3E0697013EE24805D
:10580400F582EF3400F583E02401F0A3E03400F0E6
:10581400790002452374F612179FE9FEECFFEA248F
:1058240062F582EB3400F583E0640160030258C240
:105834009061D0E0F508EA2482F582EB3400F58328
:10584400E060047804800278007480C39508FC95B5
:10585400E0FDEF28F8E43400F9E82402F8E9340024
:10586400F9EC98ED99A2D265D033404E740A121720
:1058740093E0F508A3E0F509EA2482F582EB34000D
:10588400F583E0601578081219B2EFFCEEF9120CFA
:105894003A740212174074042FFF74012FF5D98E45
:1058A400D9EF600F850882850983F8E0F5D9A3183C
:1058B400E870F875E195790080067907800279FF30
:1058C400024FBF74F712179FA2AFE433FEC2AF8A30
:1058D400828B83E0F8A3E0F9E8498A828B83600A2B
:1058E400A3A3E0F8A3E0F5838882ECF0A3EDF08AAB
:1058F400828B83A3A3ECF0A3EDF08C828D83E4F080
:10590400A3024CB174F712179FE96021F88C828DC1
:1059140083E08A828B83F08C828D83A3AC82AD83F7
:105924008A828B83A3AA82AB8318E870E0ECFAED39
:10593400FB024CB974F012179F74FA12172A890BE0
:10594400ECFEEDFF750A008A088B0978081219F637
:105954000004106B5B7B599959B359CB59E9590130
:105964005A245A3C5A505A7A5A025B135B2A5B45B2
:105974005B6B5B6B5B905A7401650B6003025B6647
:105984008E828F83E0F8C394034003025B66E89041
:105994000D96025B427402650B6003025B668E82A5
:1059A4008F83126268900D97E8F0A3E9025B42745A
:1059B40001650B6003025B66125B934003025B6646
:1059C400E8900776025B427401650B6003025B6634
:1059D4008E828F83E0F8C394054003025B66E890EF
:1059E4000777025B427401650B6003025B66125B1E
:1059F400934003025B66E8900778025B427410658B
:105A04000B6003025B6675081075090078081219AB
:105A1400B27A797B07120FA67402121740025B8CCC
:105A24007401650B6003025B66125B934003025BC7
:105A340066E8900789025B427401650B6003025BB0
:105A4400668E828F83E0900D9A025B427404650B2C
:105A54006003025B668E828F83780C1215FA908342
:105A6400DC780C1214195003025B6690078B780CD7
:105A7400121609025B8CE96003025B661206C4E934
:105A84007005121168806090081E806E7407650BA3
:105A94006003025B6675080675090078081219B27E
:105AA4008E828F83A3AC82AD837402121793AA8271
:105AB400AB83120FAC74021217407C007D00851872
:105AC40082851983AA82AB838E828F83E0F91211B7
:105AD4000EE9F508C3940A4003025B891206C4E97F
:105AE400700CA90812116E7950121330806F741F54
:105AF4002508F58274083400F5837401804074012C
:105B0400650B705E125B935059E890078A802F747E
:105B140001650B704D8E828F83E0F8C3940A504266
:105B2400E8900D9980187401650B70368E828F830E
