:020000040000FA
:0600000002010A0221FFCB
:03002B0002265951
:03003B0002267A20
:0300430002260D85
:0300530002227214
:03006B0002263337
:1000830002206BE5C754F84401F5C779012200004B
:100093000080FB120086B900030200F4E4792178A2
:1000A30008B800028004F709D8FCE479297802B87B
:1000B30000028004F709D8FCE49002817830790BC0
:1000C3008002F0A3D8FCD9FA900CB0AA82AB83903B
:1000D300013A784379048015E493A3AC82AD838A13
:1000E300828B83F0A3AA82AB838C828D83D8E9D9D8
:1000F300E77582357583BB740312011C7582917594
:100103008300740012011C75D00075813F7518813E
:10011300751902759F00020096C09FF59FE473D086
:100123009F22D083D082C09FE493C0E0740193C028
:10013300E0740293F59F22FF0000B400002800281A
:1001430000283075A000A000A000A000000800084F
:10015300E001F0001000100010001000100010006B
:1001630050005000500010001000D00700000000A5
:1001730000000F00010005003075070010000100AA
:1001830081FF00000000FF7A0698068006FF020246
:100193000208025000A0000000E803029B84010053
:1001A30000808402B584010000070D02C3840100AE
:1001B30000B30202B584010000080D02C5840100EA
:1001C30000C90202B584010000090D02C7840100C1
:1001D30000CB0202B5840100000A0D02CD840800A1
:1001E30000CC0202B5840100000B0D02CF84010094
:1001F300000C0DFF0100FF20029B8401000092848C
:1002030002B584010000700D02D1840000000000DB
:1002130002C18403000019034A0C4A0C4A0C4A0C1D
:100223004A0C4A0C4A0C4A0C4A0C4A0C4A0C4A0C1B
:100233004A0CCC0EE40EC60EFFFF49020003041263
:1002430064029B84010000868402B584010000B827
:100253000D02AD84010000B90D02C18403000067E3
:1002630007020202020202020202010D0000001054
:1002730001029B840100008C8402B584010000DA32
:100283000D02A7840100006D0702B584010000DBA5
:100293000D02A584010000D58202B584010000DCB3
:1002A3000D02A384010000AB8202B584010000DDCE
:1002B3000D02A184010000A18102B584010000DECA
:1002C3000D029F84010000C58102B584010000DF97
:1002D3000D029D84010000B38102B584010000E09A
:1002E3000D02D584010000D78102B584010000E12D
:1002F3000D029984010000B98202B584010000E275
:100303000D029784010000E30D01E803053F100A85
:10031300FF0012029B84010000898402B58401005E
:10032300008B0E02DD84010000290A02C184030050
:10033300002A0A01307503020106000000000000D4
:1003430000000000000000000000000000000000AA
:10035300000000000000FFFF0600800CE80300011E
:100363000000090954657048656174420512140060
:100373001400020A000201050302F0FF54657048ED
:1003830065617442000000000000000000000000EE
:1003930000881300008E130A4368617261637465F9
:1003A3007269737469632031000243686172616327
:1003B30074657269737469632032001A43686172E9
:1003C30061637465726973746963203300104368F1
:1003D30061726163746572697374696320340002C6
:1003E300436861726163746572697374696320350C
:1003F30000029B84010000838402B5840100001085
:100403000F02D9840300007B0C02B98401000011A0
:100413000F02B584010000220F02DB840100008F6C
:100423000C02B984010000230F02B58401000034DB
:100433000F02BF84030000900C02B9840100003551
:100443000F02B584010000460F02BD84000000A422
:100453000C02C184030000A50C02B984010000470B
:100463000F02B584010000580F02BB84040000ABE7
:100473000C02B984010000590F120125FFA90312D0
:10048300012516AA0312012547AA0312012582AAF0
:1004930003120125ACAA03120125D6AA03120125D2
:1004A300EDAA0312012504AB031201251BAB0312B2
:1004B300012544AB0312012557AB031201256DAB94
:1004C3000312012580AB03120125A7AB03120125FB
:1004D300E9C002120125EDC10212012525C2021253
:1004E300012548C20212012553C20212012576C218
:1004F3000212012585C3021201255AC402120125E5
:10050300D5C4021201255DC50212012598C5021248
:100513000125CFC5021201255DC60212012536C78A
:100523000212012596C702120125A1C70212012555
:1005330020C80212012523C80212012526C802126F
:100543000125B5C802120125B8C802120125E8C861
:100553000212012512C90212012500CA0212012545
:10056300B2CA02120125EBF70212012513F8021297
:10057300012541F80212012578F802120125D6F867
:100583000212012521F9021201256CF9021201253B
:10059300ACF902120125F2F90212012520FA021226
:1005A3000125DDFA02120125E7FA02120125F4FA08
:1005B3000212012527FB02120125F3FB021201257A
:1005C300FFFB0212012517FC0212012521FC021276
:1005D30001251EB6031201252CB60312012544B6CC
:1005E300031201255CB60312012549D0011201252E
:1005F300F5D00112012570D10112012591D201120A
:100603000125CDD20112012576D3011201255DD436
:1006130001120125C1D50112012518D601120125A8
:1006230099D60112012589D701120125D6D70112C6
:1006330001255CD8011201258ED801120125A2DA09
:1006430001120125E4DA0112012502DB0112012561
:1006530085DB0112012559DC0112012521DD01127F
:100663000125A1EB0212012574EC021201251DEDF7
:100673000212012570ED0212012520EE021201255E
:10068300ACEE0212012598EF02120125C7EF021208
:100693000125DAF00212012522F102120125F7F1F8
:1006A3000212012533F2021201254FF20212012533
:1006B30092B90312012532910312012548910312C5
:1006C30001256E91031201258A920312012594924A
:1006D30003120125C99303120125C19403120125B5
:1006E300C4F202120125F4F30212012527F40212C7
:1006F300012571F40212012538F602120125BE6E9E
:1007030000120125286F00120125877000120125B0
:10071300977000120125C470001201251B7100128D
:100723000125C47100120125CB72001201259573B6
:1007330000120125F57400120125387500120125F8
:10074300DD75001201252A7600120125507600126C
:1007530001255E7800120125637800120125687A6D
:1007630000120125B57A00120125287B001201250C
:100773005B7B00120125FD7B00120125A67C001284
:100783000125DE7C00120125E17C00120125297D73
:1007930000120125697D00120125C07D001201258B
:1007A3001B9E03120125339E031201257B9E031218
:1007B3000125919E03120125D89E03120125EC9F6A
:1007C3000312012579A003120125C4A003120125F8
:1007D300EC2600120125F82600120125332700120A
:1007E3000125782700120125382800120125BE288B
:1007F300001201252329001201254F29001201258A
:10080300882900120125C62B00120125AA2D0012EA
:100813000125902F00120125D33000120125213329
:10082300001201253334001201257E350012012503
:100833008E3600120125AB3600120125E636001272
:1008430001250837001201256B37001201252C3CC6
:1008530000120125C13C00120125123D00120125A1
:10086300393D001201258B3D00120125A93D0012DF
:100873000125033E00120125EC3E001201256240D2
:1008830000120125E6400012012500800312012514
:100893000A80031201254D8003120125688003128B
:1008A3000125F880031201252081031201255D81B2
:1008B30003120125948103120125BD810312012531
:1008C3003282031201254782031201255C8203123F
:1008D30001258D8203120125A18203120125C682FF
:1008E300031201250083031201252C830312012522
:1008F300648303120125E383031201252C8403126D
:100903000125568403120125818403120125AD7E3E
:1009130000120125E8A80212012516A902120125D9
:1009230064AA0212012544AB0212012563AB021231
:100933000125E0AB0212012523AC0212012579AD9A
:10094300021201253AAE02120125C1B0021201259D
:1009530062B10212012558B20212012555B30212E7
:100963000125AFB4021201253AB502120125DEB109
:100973000312012547B2031201259BB2031201257D
:10098300C2B203120125F3B203120125A984031293
:1009930001251685031201255D8503120125758640
:1009A30003120125718703120125548803120125BF
:1009B30023CB0212012565CB0212012537CC02128B
:1009C300012510CD021201250ACE02120125ECCE1B
:1009D3000212012555CF021201250BD00212012567
:1009E3007FD002120125EBD00212012514D102128D
:1009F30001258ED10212012527D2021201258CD2A4
:100A030002120125A1D202120125E7D20212012509
:100A130000D30212012565D30212012568D3021205
:100A230001253798031201255F98031201259D982C
:100A3300031201255B9903120125C29903120125B3
:100A4300DE9903120125069A03120125369A031231
:100A53000125459A03120125C29A03120125E89A3A
:100A630003120125E7C001120125C5C201120125A8
:100A7300F7C40112012533C50112012560C5011216
:100A830001254AC60112012595C601120125E0C6BA
:100A930001120125F2C60112012532C701120125F7
:100AA30067C701120125B5C701120125E4C7011269
:100AB300012507C80112012554C801120125D9C80F
:100AC30001120125F3CA0112012532CD01120125BC
:100AD30073CD0112012515CF0112012556CF011245
:100AE3000125C9CF011201251FD001120125D39B76
:100AF30002120125D19C021201256AA302120125CB
:100B03008BA50212012556A702120125BEA80212C7
:100B130001254D4100120125FC41001201254242ED
:100B230000120125824300120125184500120125F8
:100B3300924500120125AD450012012528460012F9
:100B43000125824700120125E24800120125E849E8
:100B530000120125494B00120125624B00120125A9
:100B6300C04B00120125AE4C00120125E14C0012CE
:100B73000125514D00120125CB4D00120125154EC3
:100B830000120125DF4E00120125B44F001201258A
:100B93009350001201251E51001201258C510012A1
:100BA30001250052001201252B5200120125EA52A1
:100BB300001201254F54001201256C540012012527
:100BC3008B54001201257C5500120125A1550012FA
:100BD3000125CB5500120125465600120125A056CA
:100BE30000120125095800120125B75800120125EA
:100BF300F85800120125FF8D021201254D8E0212B5
:100C03000125598E02120125378F02120125688FA3
:100C130002120125998F0212012519900212012552
:100C2300519002120125A39002120125E0900212B5
:100C33000125FD92021201252395021201250E972B
:100C430002120125F89802120125FC7F00120125EA
:100C5300F29901120125229A01120125FBA001122A
:100C6300012580A2011201257DA80112012565A994
:100C730001120125A2A901120125C5A9011201250D
:100C8300F6A901120125FFA90112012509AA0112E2
:100C93000125F7AA01120125EDAB01120125E38419
:100CA30001120125E28801120125E88801120125BC
:100CB3002390011201253C9501120125A8FC021283
:100CC3000125A2FD0212012516FE0212012554FE82
:100CD30002120125C8FE0212012541FF021201255D
:100CE3004AFF0212012556FF021201256BFF021271
:100CF3000125A9FF02120125BFFF02120125168952
:100D0300031201252389031201253D8903120125BD
:100D13007C8903120125BA89031201251F8A031254
:100D23000125348A031201253F8A031201254C8AC7
:100D330003120125638A03120125718A0312012517
:100D43007C8A03120125888A03120125978A0312DC
:100D53000125A28A03120125C58A031201256C8B82
:100D6300031201257C8B03120125968B03120125A7
:100D7300B38B03120125CF8B03120125F48B0312CE
:100D83000125FF8B03120125148C03120125288CE6
:100D930003120125898C031201258F8C031201256F
:100DA300958C031201259B8C03120125B38C03122E
:100DB3000125E68C03120125ABED011201252FEE6F
:100DC30001120125DEEE011201253DF0011201257C
:100DD3005EF2011201254AF3011201257FF301128C
:100DE3000125A1F30112012550F40112012548F652
:100DF3000112012571F60112012503F701120125E4
:100E030035F70112012542F70112012599F7011265
:100E13000125BFF7011201252CFA011201252FFB31
:100E23000112012587FB011201253ADF0112012579
:100E330044E0011201252BE10112012535E10112E4
:100E4300012557E10112012563E101120125FCE2AD
:100E5300011201252BE30112012547E401120125AB
:100E6300A0E40112012506E601120125E5E60112BF
:100E7300012541E701120125AEE701120125E9E74A
:100E83000112012528E801120125E1EA01120125D9
:100E9300FBEA0112012587EB0112012595EB0112F3
:100EA3000125EEEB01120125FCEB011201256FEC8C
:100EB30001120125D3EC011201251DED01120125BB
:100EC300BBB502120125DDB50212012503B80212DA
:100ED300012518BB0212012530BC02120125E3BC17
:100EE30002120125C5BD02120125B9AB031201256A
:100EF300DEAB0312012550AC0312012527E40212D5
:100F0300012530E40212012539E40212012510E51E
:100F130002120125C1E602120125F7E6021201259C
:100F230031E70212012567E702120125A1E7021248
:100F33000125D5E70212012501E8021201254AE83D
:100F43000212012584E802120125CDE802120125CF
:100F530025E9021201255AE902120125B5E9021217
:100F63000125EFE90212012540EA0212012576EA82
:100F730002120125B0EA02120125DEEA021201255E
:100F830001EB02120125B6B703120125E2B70312E2
:100F930001253DB80312012547B80312012557B8AF
:100FA300031201258CD30212012596D302120125C7
:100FB300D4D3021201251DD40212012557D40212E3
:100FC3000125B1D402120125D2D402120125AAD7D8
:100FD30002120125B3D70212012500D802120125FE
:100FE30029D80212012533D8021201259FD80212F3
:100FF300012531D9021201257BD902120125B1D96C
:10100300021201253DDA021201257EDA02120125C0
:10101300B5DA02120125C7DA02120125E6DA021255
:101023000125EFDA02120125B7DB021201253DB4D7
:10103300031201250EA80312012544A8031201255A
:101043007AA803120125C5A90312012516BA0312B2
:1010530001252CBA0312012536BA0312012580BAE1
:1010630003120125D5FB01120125EAFB011201251B
:101073009DFC01120125DDFC01120125F6FC011284
:10108300012531FD011201257EFD01120125B0FD6F
:1010930001120125F2FD0112012500AF0312012502
:1010A30029AF0312012558AF03120125F0AF031234
:1010B300012532B003120125309B031201253E9B0B
:1010C30003120125AF9B03120125739D0312012512
:1010D300919D03120125FFA5031201252FA60312DB
:1010E30001259FA6031201253FA703120125EEA0A8
:1010F3000312012513A1031201253DA103120125AA
:10110300DFBA031201252859001201258D5B001255
:1011130001252E5D00120125E25D00120125755E99
:1011230000120125FA5E001201251F5F001201253E
:10113300756200120125FB62001201252E64001264
:1011430001256864001201259D64001201255D6676
:1011530000120125BA66001201250367001201255A
:101163006E6700120125DF67001201251168001266
:10117300012529680012012572690012012582697F
:10118300001201259D6A00120125BF6A0012012584
:10119300F56A00120125A96C00120125366D0012B3
:1011A3000125756D00120125996E00120125F5B612
:1011B3000312012506B703120125ABB7031201255C
:1011C30088BB03120125C7BB0312012543BC0312CD
:1011D3000125FDB8031201250DB90312012522B91A
:1011E3000312012588B90312012539B3031201251E
:1011F300BEB30312012524B40312012534B503122F
:10120300012555B503120125A9B503120125F3B52F
:1012130003120125EFFF02120125CB9403120125CE
:101223005B9503120125E7950312012580960312AE
:1012330001251197031201251A9703120125989787
:1012430003120125AB9703120125C1970312012550
:101253002198031201253498031201258BB0031240
:101263000125A0B003120125B5B003120125BEB0BC
:1012730003120125D0B00312012510B10312012579
:101283003EB10312012589B103120125DBB103121B
:1012930001255EAD03120125B0AD031201253AAE5F
:1012A30003120125A1AE03120125BAA303120125DE
:1012B300E4A303120125B2A4031201258DA5031291
:1012C3000125E5DB02120125ACDC02120125E3DC7A
:1012D300021201250DDD021201256DDD0212012529
:1012E300C3DD0212012528DE02120125C0DE02122F
:1012F3000125CFDF0212012566E102120125F3E188
:10130300021201255AE20212012571E2021201259D
:101313008BE302120125C9E30212012561B803120E
:10132300012591B80312012596B803120125008007
:10133300021201258183021201250985021201256A
:101343006085021201257F8502120125FD850212A7
:101353000125938702120125788802120125868CC4
:10136300021201255C8D0212012505AE0112012531
:101373001AAE0112012524AE01120125EEB00112AD
:10138300012549B10112012531BE0112012558BFC2
:1013930001120125638D03120125A88D0312012576
:1013A300C58D031201258A8E03120125F38E0312C4
:1013B3000125C08F03120125F99003120125D1BB2A
:1013C30003120125C67F00120125FDBB031201256F
:1013D30025BC03E066701008A3E066700A08A3E06A
:1013E30066700408A3E06622C3E7960809E7960837
:1013F30009E7960809E79622C3E09608A3E0960852
:10140300A3E09608A3E09622C008C3E096F5080877
:10141300A3E096420808A3E096420808A3E0964595
:10142300087001D3D00822080808EAC0E0EBC0E046
:1014330086F0E7A4FA180986F0E7A42AFA180986C1
:10144300F0E7A42AFA180986F0E7A42AFA1986F025
:10145300E7A4FBE5F02AFA190886F0E7A42BFBE5DD
:10146300F03AFA190886F0E7A42BFBE5F03AFA18EC
:10147300180986F0E7A4C5F02BFBE43AFA1908E74C
:10148300C5F0C6A426F6E5F03BFBE43AFA1886F06D
:10149300E7A4F6E5F00826F6E43B08F6E43A08F696
:1014A300D0E0FBD0E0FA22E4CFC0E0E4CEC0E0E439
:1014B300CDC0E0E4CCC0E075F020C3E633F608E627
:1014C30033F608E633F608E633F6181818EC33FC5F
:1014D300ED33FDEE33FEEF33FFC3EC9709ED9709D0
:1014E300EE9709EF97191919400FFFEC97FC09EDD7
:1014F30097FD09EE97FE191906D5F0BEECF709ED35
:10150300F709EEF709EFF7191919D0E0FCD0E0FD60
:10151300D0E0FED0E0FF226016080808C6C313C659
:1015230018C613C618C613C618C613C6D5E0EA22D2
:101533007009080808226016181818C6C333C608AD
:10154300C633C608C633C608C633C6D5E0EA22E6A4
:1015530027F60809E637F60809E637F60809E637F5
:10156300F622E026F608A3E036F608A3E036F608EE
:10157300A3E036F622E026F008A3E036F008A3E065
:1015830036F008A3E036F022C3E697F60809E6979B
:10159300F60809E697F60809E697F622C3E096F0FF
:1015A30008A3E096F008A3E096F008A3E096F022E3
:1015B300E657F60809E657F60809E657F60809E676
:1015C30057F622E056F608A3E056F608A3E056F6CF
:1015D30008A3E056F622E056F008A3E056F008A36D
:1015E300E056F008A3E056F022E0F608A3E0F60880
:1015F300A3E0F608A3E0F622E6F008A3E6F008A3CA
:10160300E6F008A3E6F022E0FAA3E0FBA3E0FCA3E4
:10161300E0FD22EAF0A3EBF0A3ECF0A3EDF022CA85
:10162300C0E0E6F0A308DAFAD0E0FA22CAC0E0E0AC
:10163300A3C582CCC582C583CDC583F0A3C582CCA7
:10164300C582C583CDC583DAE6D0E0CA22C3E49858
:10165300F8E499F91216918026C3E49AFAE49BFB05
:10166300E920E7E9121691E498F8E499F922C3E432
:1016730098F8E499F9121691E498F8E499F9C3E417
:101683009AFAE49BFB22EB20E7CFE920E7E0B900DD
:1016930010BB0008E88AF084F8AAF022E4FBC8FA39
:1016A30022EB70227B10C833C8C933C9335007C338
:1016B3009AC3DBF280069A50012ADBEAC833F4C8E6
:1016C300C933F4C9FA2275F008E4C833C8C933C969
:1016D30033C99AC99B5004C92AC93BD5F0ECFBC84E
:1016E30033F4C8E4C9FA22600D08C6A2E713C6188A
:1016F300C613C6D5E0F322600C08C6C313C618C6CA
:1017030013C6D5E0F422700422600D18C6C333C695
:1017130008C633C6D5E0F41822251810AF08F5180B
:10172300400215198008F51840021519D2AF22C0DE
:10173300D0251810AF08F518500205198008F518C0
:1017430050020519D2AFD0D0222518F58210AF0868
:10175300F518400215198008F51840021519D2AF83
:1017630085198322C5822518C582C583351910AF13
:1017730007F5198582188007F519858218D2AFC538
:1017830083222518F582E43519F58322E47325189D
:10179300C582C0E0E51934FFC583C0E0E518C395F1
:1017A3008224F810AF088583198582188008858301
:1017B30019858218D2AFCEF0A3E520F0A37808E60E
:1017C30008F0A3DEFAEFF0A3E58124FAF8E608F0C7
:1017D300A3E608F0A3E608F0A30808E608F0A3E6EA
:1017E30008F0A315811581D0E0FED0E0F81581152E
:1017F300811581E8C0E0EEC0E0222518C582C0E073
:10180300E51934FFC583C0E0E518C3958224F910B8
:10181300AF08858319858218800885831985821806
:10182300D2AFCEF0A3E520F0A37808E608F0A3DE5C
:10183300FAEFF0A3E58124FBF8E608F0A3E608F04D
:10184300A30808E608F0A3E608F0A315811581D0E4
:10185300E0FED0E0F815811581E8C0E0EEC0E0229B
:10186300851983851882E0A3FEE0A3F5207808E0BC
:10187300A3F608DFFAE0A3FFE0A3C0E0E0A3C0E023
:10188300E0A3C0E0E0A3C0E0E0A3C0E010AF0885A0
:1018930082188583198008858218858319D2AFD071
:1018A30083D082020122851983851882E0A3FEE09A
:1018B300A3F5207808E0A3F608DFFAE0A3FFE0A38E
:1018C300C0E0E0A3C0E0E0A3C0E0E0A3C0E010AF4D
:1018D300088582188583198008858218858319D223
:1018E300AFD083D08222C0D02518C582C0E0E519CD
:1018F30034FFC583C0E0E518C3958224F310AF0815
:101903008583198582188008858319858218D2AF4B
:10191300C8F0A3E9F0A3EAF0A3EBF0A37908E70981
:10192300F0A3D8FAECF0A3EDF0A3EEF0A3EFF0A34D
:10193300D0E0F0A3D0E0F0A3D0E0F0A3E520F0A343
:10194300E5F0F0A322851983851882E0C0E0A3E0C7
:10195300F9A3E0FAA3E0FBA37808E0F608A3DFFA13
:10196300E0FCA3E0FDA3E0FEA3E0FFA3E0C0E0A34F
:10197300E0C0E0A3E0F5D0A3E0F520A3E0A3F5F0F9
:1019830010AF08858319858218800885831985829D
:1019930018D2AFD082D083D0E0F8D0E03274048084
:1019A30006740280027401C0E0F40412174CD0E004
:1019B300121622227404800474028000CCC0E0ED6D
:1019C300C0E0E518C39CCCAD1950011D10AF068CC7
:1019D300188D1980068C188D19D2AF12162FD0E0EE
:1019E300FDD0E0FC22D083D082E9C0E0E493A3C31E
:1019F30086F0C5F095F0F908E493A386F0C5F09559
:101A0300F0700BE493A3C3994005E9048002A3E4B7
:101A130075F002A42582F582E5F03583F583D0E0E5
:101A2300F9E493A3C0E0E493C0E022D083D082EC36
:101A3300C0E0EDC0E0E493A3FCE493A3FDED4C60B0
:101A43000D121A7AEC24FFFCED34FFFD80EFE493D2
:101A5300A3FCE493A3FDED4C600D121AB9EC24FF33
:101A6300FCED34FFFD80EFD0E0FDD0E0FCE493A378
:101A7300C0E0E493C0E022C0E0C3E493960874019D
:101A8300939618400FE493667008087401936618E0
:101A930070007019A3A3C3E4939608740193961876
:101AA300A3A3400DD0E0D0E0D0E0021A6AA3A3A321
:101AB300A3A3A3D0E022C0E0C0F088F0E493667053
:101AC300080874019366187000A8F0A3A3700BD0E4
:101AD300F0D0E0D0E0D0E0021A6AA3A3D0F0D0E0C7
:101AE3002274F51217FDEAFEEBFFEE2434F8EF340F
:101AF30000F988088909EE2435F582EF3400F5836F
:101B0300E0F8EE2437F582EF3400F583E0F50AECD4
:101B1300850AF0A4FCAAF0850AF0EDA42AFDE82CBE
:101B2300F8E43DF97A257B00121691EA850882854F
:101B33000983F0F8740758F97401B900028004C3EB
:101B430033D9FCFAE8131313541FF8EE28F8EF34D3
:101B530000F9E8245DF582E93400F583E05A600872
:101B6300EE2434F582EF802CEE2434F582EF34003A
:101B7300F583E0C0E0EE2436F582EF3400F583E030
:101B8300F5F0D0E084A8F0EE28F8EF3400F9E8246B
:101B930038F582E93400F583E0F97F040218A9746B
:101BA300F51217FDEAFEEBFFEE2434F582EF340065
:101BB300F583E0C0E0EE2435F582EF3400F583D001
:101BC300E0F08E828F83A3A3A3A3A3A3A3C082C0A9
:101BD300838E828F83A3A3A3A3A3E0F8A3E0F9D00A
:101BE30083D082E0C398F508A3E099F509EE247F3A
:101BF300F582EF3400F583E064017069EE2480F52B
:101C030082EF3400F583E0F8A3E0F98E828F83A39B
:101C1300A3A3A3A3A3A3E0FCA3E0FD8E828F83A3CE
:101C2300A3A3A3A3E0FAA3E0FBC3EA9CEB9D50109C
:101C3300C3EC98ED99402EC3EA98EB995027800E98
:101C4300C3EA98EB994007C3EC98ED9940177CDC05
:101C53007D04EEFAEFFB120BA8EE247FF582EF343E
:101C630000F583E4F0EE2434F8EF3400F9E8FCE9FE
:101C7300FDEE2435F582EF3400F583E0F8EE2437EA
:101C8300F582EF3400F583E0F50AE508850AF0A450
:101C9300F508AAF0850AF0E509A42AF509E825085C
:101CA300F8E43509F97A257B00121691EA8C828DC6
:101CB30083F0F8740758F97401B900028004C33340
:101CC300D9FCFAE8131313541FF8EE28F8EF340085
:101CD300F9E8245DF582E93400F583E05A6008EE03
:101CE3002434F582EF802CEE2434F582EF3400F5B2
:101CF30083E0C0E0EE2436F582EF3400F583E0F5AF
:101D0300F0D0E084A8F0EE28F8EF3400F9E82438A6
:101D1300F582E93400F583E0F91225F9021B9DC031
:101D230082C083851882851983E0F8A3E0F9C3EAAA
:101D33009CEB9D5010C3EC98ED99401BC3EA98EBC4
:101D4300995014800EC3EA98EB994007C3EC98EDC1
:101D5300994004790180027900D083D08222EAC3BA
:101D63009CFAEB9DFB2274EF1217FD9003A2E06433
:101D7300086005E06407702A9061C8E0602490035E
:101D8300D0E0F4601DE0F875F003A4C8AAF02AF9C6
:101D930074D228FE740339FF8E828F83A3A3A3E03A
:101DA3007003021E99906060E0C0E0EE2468F58243
:101DB300EF3400F583D0E0F0750C45750D0575081B
:101DC30000750900E5D914F50AE5D95403F50E6049
:101DD300177403650E605CE50A6010EE2467F582F4
:101DE300EF3400F583E07003021E7E900540E0644B
:101DF30001602AEE2482F582EF3400F583E060046B
:101E0300780480027800850A08E508C398FA95E00B
:101E1300FB120A768A088B09EA45097005120D9AA6
:101E23008074EE2482F582EF3400F583E070048A37
:101E33000C8B0DE50A6012850C82850D83F50BE58D
:101E4300D9F0A3150BE50B70F6EE2482F582EF347F
:101E530000F583E0604474FC250AF50A780C121936
:101E6300A4AC0AA90EEEFAEFFB120C44740212178B
:101E730032E97026AA08AB09121298793D8E828F37
:101E830083A3A3A3A3E0FA7B0012094AEEFAEFFBB4
:101E9300120BC0120C56790080747403650E6056E1
:101EA300850A1075110078101219A4AC0CAD0DAA97
:101EB30008AB09120C207402121732EE2468F58263
:101EC300EF3400F583E064807004747F8001E0F5F3
:101ED3000C780C1219A8E50EF50C780C1219A8A9A8
:101EE3000AAC08AD099003D0E0FA7B0012090E7426
:101EF3000212173280139003A2E06408600BAC0C4B
:101F0300AD0DEEFAEFFB120CB0120DA679017F0AAC
:101F13000218A974F51217FD74FC12171CEAFEEBE4
:101F2300FF8908A2AFE433F509C2AF806AEE2463E8
:101F3300F8EF3400F97A007B00A2AFE433F50AC26C
:101F4300AF88828983E0FCA3E0FDEC4D603A888290
:101F53008983E0FAA3E0FB8A828B83E0FCA3E0FDA4
:101F630088828983ECF0A3EDF08A828B83E4F0A36B
:101F7300F088828983E0FCA3E0FDEC4D700A88823F
:101F83008983A3A3E4F0A3F0E50AA2E092AF1212BF
:101F9300989004E3E004F0EE2463F582EF3400F557
:101FA30083E0F8A3E0F9E849603DEE2463F582EFAE
:101FB3003400F583E02402FAA3E03400FBEA2402B0
:101FC300F50AEB3400F50B780A1219A48A828B8385
:101FD300E0FCA3E0F9EEFAEFFB120BE47402121734
:101FE30032E97003021F309004E3E060639004E47D
:101FF300E0F89004E3E0C398500C74026508705055
:102003009004E5E0604A8E828F83A3A3A3A3E085B7
:102013001882851983F0A3E4F09004E3E0F87402D6
:10202300121785E8F0A3E4F09004E3E0F89004E2EB
:10203300E028F07402121785AC82AD83851882857F
:102043001983AA82AB83790112091A9004E3E4F09D
:10205300E509A2E092AF7404121732021B9D00003F
:10206300008521878522C622C0E0C0D0E8C0E0E910
:10207300C0E0EAC0E0EBC0E0ECC0E0EDC0E0EEC0E1
:10208300E0C008C009C00AC00BC082C083C0F0A270
:10209300AFE433FEC2AF759B00906182E0A2E050D3
:1020A30012E591A2E0500C7591FE74016521700355
:1020B300121D69E0A2E55051E591A2E5504B7591DF
:1020C300DF9003A2E064076005E0640870237401F5
:1020D3006521703579019003D0E0FA75F003A4CA45
:1020E300A8F028FB74D22AFA74033BFB121F168054
:1020F30018E0640D70139003C4E004F064287002C8
:10210300E4F07A00E0F9120DAC906182E0A2E640BF
:10211300030221B2E591A2E640030221B27591BF09
:102123009003A2E064057008120CDA120CE6800337
:10213300120CE0752100120D3AE99003A3F0790027
:10214300120D2E120B1E7A017B009003A1E0F912EF
:102153001004907803E064427055900544E014F055
:10216300704DC2AF12216A00782AD0E0F618D0E091
:10217300F6E59F540770057509FF800375097FC451
:10218300C0E07829E6F50808E65509F509740B78E7
:10219300081216FAD0E02508F8906270E0A2E74032
:1021A300F8E8C333906272F0906270E0D2E0F0908E
:1021B3006181E0A2E35009E5E9A2E3500375E9F781
:1021C300A3E0A2E75009E591A2E7500375917FEEE2
:1021D300A2E092AFD0F0D083D082D00BD00AD00946
:1021E300D008D0E0FED0E0FDD0E0FCD0E0FBD0E0B2
:1021F300FAD0E0F9D0E0F8D0D0D0E032C0E0C0D0DF
:10220300C082C083906183E0A2E05009E5BFA2E0F1
:10221300500375BFFEE0A2E15009E5BFA2E1500300
:1022230075BFFDE0A2E25009E5BFA2E2500375BF0E
:10223300FBE0A2E35009E5BFA2E3500375BFF7E05B
:10224300A2E45009E5BFA2E4500375BFEFE0A2E5A5
:102253005009E5BFA2E5500375BFDFE0A2E65009D0
:10226300E5BFA2E6500375BFBFD083D0828088C08C
:10227300E0C0D0E8C0E0E9C0E0EAC0E0EBC0E0ECD9
:10228300C0E0EDC0E0C0F0E5A7A2E6500FE5A1A2D3
:10229300E6500953A7BF75A1BF1222D7E5A7A2E550
:1022A300500CE5A1A2E5500653A7DF75A1DFE5A712
:1022B300A2E15009E5A1A2E1500375A1FDE5A7A2A2
:1022C300E2500CE5A1A2E2500653A7FB75A1FBD097
:1022D300F00221E874F81217FD7521019003A2E0C2
:1022E30064067015120C748A828B83A3A3A3A3A321
:1022F300A3E0FAA3E0FB120CC8A2AFE433FED2AF13
:102303009003A8E0640170187A207B009003A1E099
:10231300F91210887A207B009003A1E0F912100AC9
:10232300906182E0D2E6F0900541E0602185C6220B
:1023330080169003A7E064017008E5C654F84405CD
:10234300F5C653BEFC1220647401652160E4EEA25D
:10235300E092AF7F010218A9008E238F2485822883
:10236300858327851882851983E0CEA3E0CF85284E
:1023730082852783EBC9EAC8EDCBECCA75F010C39D
:10238300E833C8E933C9EA33CAEB33CBC3EA9EF572
:1023930026EB9FF525B35004AB25AA26EC33CCEDF1
:1023A30033CDD5F0DAAE23AF242274ED1217FD8AB4
:1023B300088B098C0A8D0B7413121785780C121570
:1023C300EC7808790C1213EB7510017511C87512AE
:1023D3000075130050127808790C12158B78107958
:1023E300081213EB50168010780C790812158B78AD
:1023F30010790C1213EB40047901800279007F0CF1
:102403000218A974ED1217FD8A088B098C0A8D0B2B
:102413007413121785780C1215EC780C79081213C3
:10242300EB40117808790C12158BAA08AB09AC0A9A
:10243300AD0B802275100075110075120075130124
:102443007810790C12158B78107908121552AA108E
:10245300AB11AC12AD1380A68A828B837508FF750E
:1024630009FF750AFF750B0078081215D97F04025E
:1024730018A974F51217FD8C828D8378081215EC58
:102483008A828B83780812159FEA2404F8EB3400C0
:10249300F98C828D83A3A3A3A3E0FCA3E0FD888230
:1024A3008983C3E09CF0A3E09DF088828983C3E025
:1024B3009420A3E0944E40268A828B837508FF758F
:1024C30009FF750AFF750BFF78081215788A828B4E
:1024D30083A3A3A3A3E02420F0A3E0344EF00224BB
:1024E3005B74F51217FDE9FE9004F7E0FAA3E0FB35
:1024F300EEC333F8E433F9743D28F582748239F579
:1025030083E02AF508A3E03BF50978081219A47AB9
:10251300407B427C0F7D0012235C74021217328AC7
:10252300088B098C0A8D0B7410780812151AAA08E7
:10253300AB097F040218A974F11217FD8A0C8B0DE5
:102543008C0E8D0F740F121785E0FAA3E0FB741144
:10255300121785E0F508A3E0F50978081219A4EA33
:102563002401F508EB3400F509E4F50AF50B780CC2
:10257300790812142A750871750902780C79081202
:10258300142AAA0CAB0DAC0EAD0F12235C7402120D
:1025930017328B09EA450960047A0180027A00EC5C
:1025A3002AFCED3400FD7413121785E0F8A3E0F95B
:1025B300E8FEE9FFECF8EDF97A717B0212169188D7
:1025C3000889098E828F8378081215FBECF8EDF9E0
:1025D3007A717B021216918A088B097405780812A6
:1025E30017098E828F83A3A3A3A3E508F0A3E509AC
:1025F300F07F080218A9C082C083E9906000F0D080
:1026030083D08222C2AF02000022C0E074F212180B
:10261300E9A2AFE433FED2AFC2C0E5D1A2E45006D3
:1026230053D1EF121256EEA2E092AF7F0102194886
:10263300C0E074F21218E9A2AFE433FED2AFE58929
:10264300A2E0500312120E758900C2C5EEA2E092F9
:10265300AF7F01021948C0E0C0D0E8C0E0E9C0E0A4
:10266300E5A8D2AFC2C7A2E7A2E792AFD0E0F9D004
:10267300E0F8D0D0D0E032C0E0C0D0E8C0E0E9C09C
:10268300E0C008C009C082C083A2AFE433F9D2AF6F
:102693009009E1E0F8A3E0687008539AFBA3740182
:1026A3008026C2E99009E1E0F50874012508F07479
:1026B300612508F58274093400F583E0F5C19009BA
:1026C300E1E0C394804002E4F0E9A2E092AFD0835A
:1026D300D082D009D008D0E0F9D0E0F8D0D0D0E053
:1026E30032FFFFFFFFFFFFFFFFC082C083E9900DB2
:1026F3006FF002297B74F7121791E99002E1F07CE5
:10270300197D037AFF7BFF1208609002E274FFF0E9
:10271300A3F0A3E4F0A3F079051207E89002E1E047
:10272300F912070A7A7E7B08120A287F01021863CE
:1027330074F41217918A088B09EB5480603090026D
:10274300E1E0F9120FEC8A0A8B0BAE0AAF0BEE4FE6
:1027530060138E828F83E064B07003120800EEFA78
:10276300EFFB120FDAAA08E5096480FB80047A0004
:102773007B0002294A74F212179174FC12171CEAA7
:10278300FEEBFFEE4F60387402121785EEF0A3EFF5
:10279300122BAFECF0A3ED122BAFAA82AB8312077F
:1027A30004E9F50870737412121785123763E50A8A
:1027B300450B60658E828F83122826EE4F70057558
:1027C300080280557A067B001210408A0C8B0DA8F4
:1027D3000CA90DE8497005750813803D888289832B
:1027E300E4122830A3A3EEF0A3EF123BFCE50AF0BA
:1027F300A3E50BF09002E71228B89002E76017E018
:10280300FCA3E08003EAFCEBFD8C828D831228B8E5
:1028130070F38C828D83123688A9087404121732E0
:10282300023DFEA3A3A3A3E0FEA3E0FF22F0A3F0D7
:10283300888289832274F2121791890AE975F01745
:10284300A4FEAFF09002E6E4F09002E41228B86030
:102853000A1210469002E4E4F0A3F0EEFAEFFB1242
:1028630010408A088B09EA4509602FEEFCEFFD79D9
:1028730000120FC29002E4E508F0A3E509F07B0023
:1028830080081228A2E4F0A3F00BEBC3950A40F2F0
:10289300E50A9002E6F0790080027913023DFEEB2F
:1028A30075F017A4F8A9F09002E4E028FAA3E03940
:1028B3008A82F5832212341EEA4B2274F412179192
:1028C300750800750900740C121785123BD0FEE9D8
:1028D300FF800CE5082401F508E5093400F509C378
:1028E300E5089CE5099D503285080A85090B7403A8
:1028F300780A121709EA250AF8EB350BF988828959
:1029030083A3A3A3A3A3A3123763EE650A7003EF04
:10291300650B70BFE8FAE9FB80047A007B0080272F
:1029230074F41217917900EAA2E0501B75080D7533
:10293300098478081219A47C047D007A717B0D1236
:1029430007E274021217327F04021863C082C08345
:102953009002E7122982601C88828983A3A3E06A1C
:102963007003A3E06B8882898370E8A3A3A3A312F7
:10297300341A80047A007B00D083D08202012212B1
:102983003ED1E8492274EE12179174FC12171CEA27
:10299300FEEBFF851882851983E4F0A3F0EE240291
:1029A30012366CEE2405122B9DEE2404F50EEF1265
:1029B3002F82E024FE603924FC604624FE6052240A
:1029C300FE605E24FE7003022AA224FE7003022B23
:1029D3001A24FE7003022B2924FE7003022B3824D1
:1029E300FC7003022B4724FE7003022B56022B9329
:1029F3009003007417F0A3E4122BB7120482022B86
:102A030093851882851983AC82AD83120806022B45
:102A130063851882851983AC82AD8312080C022B5F
:102A230063850C08850D097402121785AC82AD838A
:102A330085088285098312341A1207288A0C8B0DA4
:102A4300AC0CAD0DEC4D6042E4F50CF50D780C12B9
:102A530019A4750C00750D03780C1219A4750C01DB
:102A6300750D03780C1219A474081217851219BB7B
:102A730079161234141208487408121732E9F50C47
:102A8300700B12341012049A800F750C01850882A2
:102A9300850983122BA5123688850C08022B6674D0
:102AA30002121785AC82AD83850C82850D831234A7
:102AB3001A1207288A108B11AC10AD11EC4D60432C
:102AC300850C82850D83A3A31219BB7510007511A4
:102AD3000378101219A475100175110378101219D7
:102AE300A474081217851219BB791612341412082C
:102AF300487408121732E9F509700B1234101204E6
:102B0300A0800F750901850C82850D83122BA512F8
:102B13003688850908804C851882851983AC82AD77
:102B230083120812803A851882851983AC82AD839B
:102B3300120818802B851882851983AC82AD831205
:102B4300081E801C851882851983AC82AD83120808
:102B530024800D851882851983AC82AD8312082ADF
:102B6300E9F508E50860298E828F83A3E064146089
:102B73001F850E82850F83E0900300122BAF123E58
:102B8300CD900301123688E508A3122BB712047CFB
:102B9300EEFAEFFB1207A6023574F50CEF3400F5DD
:102BA3000D22123ED185188285198322F085188261
:102BB30085198322F07C007D03850A82850B8312AD
:102BC300341E2274EE12179174FC12171C8A0A8B9E
:102BD3000B8C0E8D0FEA2405F508EB3400F5097C08
:102BE300157D0079007A007B03120FC2E5082402E9
:102BF300F50CE509122BA0851882851983858210AF
:102C030085831178101219A4850882850983A3A3EB
:102C1300A3A31230CA1219A4E5082405F510E50987
:102C23003400F51178101219A4850C82850D8312D6
:102C3300342412072274061217328A108B11AE1035
:102C4300AF11E50A2402F50AE50B12366FEE4F7059
:102C530003022D8C8017740212178512341A88828E
:102C63008983EAF0A3EBF0900300E004F090030003
:102C7300E0C394054003022D8CE4F510F5117810A0
:102C83001219A47510E975110278101219A47510A0
:102C9300EA75110278101219A47406121785121915
:102CA300BB7910EEFCEFFD123414120848740812BD
:102CB3001732E9705E850882850983A3A3A3A3A3C2
:102CC300A3A3E0F89002E9E06870481230CA121931
:102CD300A47CEA7D02E5082408FAE5093400FB1226
:102CE3000FBC7402121732E960298E828F83A3A36B
:102CF300A3A312341A900300E0F5107402781012A3
:102D0300170974012510F58274033511F583EAF070
:102D1300A3EBF07402121785858210858311781056
:102D23001219A474021217851219BB850C82850D22
:102D330083123EE212072E74041217328A108B118B
:102D4300AE10AF11900300E0F51075110074027816
:102D53001012170974002510F874033511F98882CD
:102D63008983A31228B87003022C50E82403F8E9DE
:102D73003400F9EE4F6003022C598882898374FF73
:102D8300F0A3F0900300E004F0900300E0600A1267
:102D9300341012048E7900800B8508828509831212
:102DA300367F790A02357474EA12179174FE12178A
:102DB3001C8C128D13EA2405F50CEB12404C1228DF
:102DC3002A750800750900EA2402F510EB3400F5B2
:102DD3001185188285198385820A85830B780A12E7
:102DE30019A4850C82850D83A3A3A3A3122F8C1290
:102DF30019A4E50C2405F50AE50D12366F780A12BD
:102E030019A4850C82850D83123EE01207227406F5
:102E13001217328A0A8B0BEA450B7003022F3DEA25
:102E23002404F50EEB122F8212282A8A828B83A3A5
:102E3300A3A3E0F985108285118312341A120710B7
:102E4300E9F5096003022F3DE4F514F51578141232
:102E530019A47514E975150278141219A47514EAE6
:102E630075150278141219A474061217851219BB6A
:102E73007913AC0AAD0B85108285118312341A12B3
:102E830008487408121732E9F5096003022F3D90D0
:102E930002E9E0F8E5087009E02402900301F080FC
:102EA30017900301E0FCE82402FAE43400FBEA6C27
:102EB3007001EB6003022F41850882AA821230C1A0
:102EC30094141230B95073850E82850F83E0C0E0ED
:102ED30074022A122F79D0E0F00508850E82850F3F
:102EE30083A3E0C0E085080A7402250A122F79D073
:102EF300E0F005089002E9122F8C1219A47CEA7DF8
:102F03000285080A7402250AFA74033400FB120FBF
:102F1300AA74021217329002E9E02508F50874FF3B
:102F23006E700374FF6F6012EE24010EEF3400FF26
:102F3300E508C394145003022DD4E508601312333B
:102F43000585108285118312341A12049479008046
:102F530014E509700375090A851282851383EEF05F
:102F6300A3EFF0A90974021217327F0E02186385CA
:102F7300080C7402250CF58274033400F5832234A3
:102F830000F50F850E82F58322123C0F2274EE1298
:102F9300179174FE12171C8C0E8D0FEA2405F50C85
:102FA300EB122BA0750B00900300E4F0F50AEA2462
:102FB30002F508EB3400F5098049900300E0FA902C
:102FC30002E9E0F81230C194171230B9400D9003B2
:102FD30000E0F87416C3989002E9F01230CA12198F
:102FE300A47CEA7D0274012AFA74033400FB120FF5
:102FF300AA74021217329002E9E0F8900300E02865
:10300300F0050AE50C2416F582E50D122F7DE0F894
:10301300E50AC39840030230A2900300E0C394166C
:10302300507DE50AC333F8E433F9E50C28FEE50DDA
:1030330039FF851882851983AC82AD838E828F8395
:1030430012341A1207288A108B11AC10AD11EC4DF3
:103053007005750B018043E4F510F5117810121912
:10306300A47510E975110278101219A47510EA7588
:10307300110278101219A474061217851219BB795C
:103083001685088285098312341A120848740812B7
:103093001732E9F50B7003022FBD12367B80107CCB
:1030A300007D0385088285098312341A1204A6A9B8
:1030B3000B7402023576E99400C365D03322EA2803
:1030C300F8E43400F9E822E0F510751100781022D5
:1030D30074EA12179174FC12171C8A0C8B0D8C1254
:1030E3008D13EA2405F50AEB12366F75080075098E
:1030F30000E50A2402F510E50B3400F51174021201
:10310300178585820E85830F780E1219A4850A828E
:10311300850B83A3A3A3A3123BBB1219A4E50A2423
:1031230005F50EE50B3400F50F780E1219A4851082
:103133008285118312367512341412072274061213
:1031430017328A0E8B0FAE0EAF0FE50C2402F50E6D
:10315300E50D3400F50F80408882898374FFF00504
:1031630008122F7274FFF005089002E9E0F50C7560
:103173000D00780C1219A47CEA7D0285080C7402F8
:10318300250CFA74033400FB120FAA7402121732CF
:103193009002E9E02508F508EE4F60718E828F8377
:1031A300A3A3A3E0F9850E82850F8312341A1207B5
:1031B30010E9F509EE2404122B9DE97044E4F5149B
:1031C300F51578141219A47514E9751502781412FB
:1031D30019A47514EA75150278141219A474081247
:1031E30017851219BB7911EEFCEFFD850E82850F51
:1031F3008312341A1208487408121732E9F5096069
:1032030027850C82850D831232FB123688E5087000
:10321300030232E1123305850E82850F8312341ABD
:103223001204AC79000232F6850882AA82EA90027F
:10323300E97009E02404900301F08022E0F8900390
:1032430001E0F514E82404FCE43400FDEC6514709B
:1032530001ED70C01230C194121230B950B6850C12
:1032630082850D83E0C0E074022A122F79D0E0F04A
:103273000508850C82850D83A3E0C0E0122F72D070
:10328300E012331785820C85830D780C1219A47410
:10329300041217851219BB851082851183123EE231
:1032A30012072E74041217328A0C8B0DAE0CAF0D5D
:1032B30085080C7402250CF874033400F9EE4F7082
:1032C3000302315B851882851983E0888289831222
:1032D3003317A3E0C0E0122F72D0E0023169E50991
:1032E300700375090A850A82850B831232FB123635
:1032F30088A9097404022F6A123ED18512828513AC
:103303008322900301E0F5F0E50884900300F07C4C
:10331300007D0322F005088518828519832274EC49
:1033230012179174FE12171C8A088B098C0E8D0FCD
:10333300EA2405FEEB3400FF851882851983AC82ED
:10334300AD838E828F8312341A1207288A0A8B0B5D
:10335300EE2418122B9DEA450B70030233EB123552
:103363005D503285188285198312341A12083C8AFB
:10337300108B11EA4511606B7912AC0AAD0B85080D
:103383008285098312341A85108285118312178F5F
:10339300E9F50A7058E4F50AF50B780A1219A48EB8
:1033A300828F83A3A3E0F50A780A1219A4EE2403FB
:1033B30012366C780A1219A48E828F831234241267
:1033C300084E7406121732E9F50A7021850C8285BE
:1033D3000D83E0701F85088285098312341A120455
:1033E300B28011750A0E8009750A018004E50A602E
:1033F3000312367B850C82850D83E060047900809F
:1034030002A90A74021217327F0C0218637C007D32
:1034130003850A82850B8312341E22E0FAA3E0FBA4
:1034230022E0FCA3E0FD85088285098312341E2275
:1034330074EE12179174FE12171C8A088B098C0CF8
:103443008D0DEA2405FEEB3400FF750E008518820E
:10345300851983AC82AD838E828F8312341A12074F
:10346300288A0A8B0BEA450B700302354912355D36
:10347300503585188285198312341A12083C8A0E36
:103483008B0FEA450F605E7912AC0AAD0B8508829B
:1034930085098312341A850E82850F8312178FE9EB
:1034A300F50E600302354C85088285098312376364
:1034B300AA0AFB1208308A108B11A810A911E84937
:1034C300701E7AFF7BFF1208308A108B11A810A997
:1034D30011E849606C88828983E50AF0A3E50BF063
:1034E300750A008007750E0E805F050A9002E6E0FC
:1034F300FAE50AC39A504AE50A75F017A4FAABF045
:1035030088828983A3A3E02AFAA3E03BFB8A828B08
:1035130083123675EC4D70D2750A17750B00780A55
:103523001219A4EEFCEFFD120FAA7402121732EE69
:10353300FCEFFD85088285098312341A1204B880D2
:1035430014750E098003750E01123EC9850C828520
:103553000D83123688A90E0230B4E5082402F5085B
:10356300E5093400F5098A828B83A3A3A3E0A2E5CE
:103573002274041217327F0A02186374EC12179133
:103583008C108D11EA2405F50CEB122BA0750F009E
:10359300EA2402F50AEB12366F850A82F5831234A8
:1035A3001A1208308A088B09EA450970030236614A
:1035B300750E008071850C82850D83E06401704F68
:1035C3008E828F83A3A31219BB8E828F83A3A3A39F
:1035D300A3E0F51275130078121219A4EE2405F571
:1035E30012EF3400F51378121219A41234141208CE
:1035F3004E7406121732E9F50F6014850C82850D9F
:1036030083E4F0123EC98510828511831236887CCB
:10361300177D007900EEFAEFFB120FC28E828F83C3
:10362300E4F0A3F0050E9002E6E0F8E50EC398502F
:103633001EE50E75F017A4F8A9F0850882850983A5
:10364300A3A3124056123675EC4D60030235B885BC
:10365300088285098374FFF0A3F0E50F7006123426
:10366300141204BEA90F02340BF50AEF3400F50B54
:1036730022A3E0FCA3E0FD228E828F83123ED1853C
:103683000E82850F83E8F0A3E9F022C082C0839005
:1036930002E2E06A7003A3E06B70067AE27B0280C9
:1036A300047A007B0002297BC082C08378008C826D
:1036B3008D83E06A7003A3E06B7010E875F003A4D8
:1036C300F8A9F0EC28FAED39FB8015088C828D837C
:1036D300A3A3A3E06A7003A3E06B60DF7A007B001F
:1036E30002297B74F61217911207FA8A828B83E5FB
:1036F30082458370067A007B008007A3A3A3A312ED
:10370300341A023D7A74F2121791E9FE740E1217FD
:10371300851237637410121785123BDB8C828D83FD
:10372300E064027036A3123ED7F50CA3E0F9A80CAF
:1037330074026870037429697021750C02750D0099
:10374300780C1219A478081219A4780A1219A4EE95
:10375300F9120872740612173280027901023DFED3
:10376300E0F50AA3E0F50B2274E812179174FB123B
:10377300171CE9851882851983F08A168B17ECFECE
:10378300EDFF751000741D121785123ECD741D12C6
:1037930017851236888E828F83A3A3A3E0A2E450F9
:1037A3002D741D12178512341A12083C8A828B83DA
:1037B300E58245837003023BAC790AEEFCEFFDAA78
:1037C30016AB1712178FE9F5106003023BAF741F96
:1037D300121785123BDB742112178512376374238A
:1037E300121785E0F50EA3E0F50F8E828F83E06458
:1037F300026003023B5AA3123ECD850882850983EA
:10380300A3858212858313EE2406122B9D88828959
:1038130083E0FAA3E0F9EA2400F514E439F5157816
:1038230014121A2E0100002801284F38070002281D
:1038330014390328813800294B3A0129763A0229A1
:10384300173A03294B3A0429F53A5A3BE50E450F3B
:103853006003023B55850C82850D83123BD0FAE948
:10386300FB8A828B83E0850A82850B83123C0612D6
:1038730019A48A828B83A3E0FCA3E0023ADFE50E5E
:10388300450F6003023B55850A82850B837401F063
:10389300123BE3850882850983F07C007D008E82DC
:1038A3008F83A3A3A3A3E02401FAA3E03400FB12B4
:1038B3000728EA4B60418A828B83E02402F8850A59
:1038C30082850B83E028F0EA2404F8EB3400F988BE
:1038D300828983E0851282851383123C18123C0689
:1038E3001219A48A828B83123674E5082403FAE53D
:1038F300093400FB023AE4850A82850B83E0240441
:10390300F07C047D007900AA12AB13120FC2023BB4
:10391300AFE50E450F6003023B55123BE3FEA3E008
:10392300FF850A82850B837404F0EE85088285097E
:1039330083F0EF851282851383F07403121785AC2D
:1039430082AD83EEFAEFFB1207288A0C8B0DEA4552
:103953000D70030239F88A828B83A3A3122826747D
:103963000112178585820E85830F780E1219A474B0
:10397300051217851219BB7CFF7DFF12072E7404F5
:103983001217328B0FEA450F7033850C82850D8336
:10399300123BBB1219A4850C82850D83A31219BB9C
:1039A3007C027D007AAB7B8412055A7404121732B1
:1039B300E9700A740112178574FFF0A3F08E828FE9
:1039C30083E064027039750C02750D00780C1219CE
:1039D300A48E828F83123674E5082404FAE5093431
:1039E30000FB120FAA7402121732850A82850B8319
:1039F300E0240280097401121785EEF0A3EFF0743E
:103A030001121785123BCCF07401121785A3123BE8
:103A1300C4023B4FE50E450F6003023B55850C8204
:103A2300850D83123675AA16AB17120866850A82AE
:103A3300850B837402F0EA850882850983F0851279
:103A430082851383EB023B52E50E450F6003023B75
:103A530055123BE3F8A3E0F9850A82850B837402D0
:103A6300F0E8850882850983F0E98512828513834E
:103A7300023B52850C82850D8312341A120FA4EA7D
:103A8300FC8C82A882C3950EE4950F405FE8650E17
:103A93007002E50F70047C008022851882851983EB
:103AA300E0FAE50E2AFAE50F3400FBC3EA98EB943B
:103AB300005003E08005E50ECCC39CFCEC850A8234
:103AC300850B83F08C0A750B00780A1219A4850CF8
:103AD30082850D83E0250EFCA3E0350FFDAA08AB1C
:103AE30009120FAA7402121732023BAF75100702B4
:103AF3003BAFE50E450F705A850C82850D83123E50
:103B0300CD850A82850B837407122832123BC412B7
:103B13002832A3E0851282851383F0E82402FAE9B0
:103B23003400FB8A828B83123BC4123BF3123BCCDF
:103B3300A3123BFC123BD5F0E82405F8E93400F965
:103B430088828983123BD5A3123C18A3A3A3A3F0B5
:103B5300805A75100B8055741D12178512341A1272
:103B630007FA8A828B83E5824583603D123ECD88C6
:103B73000C890DE8450D6031780E1219A4780A12EC
:103B830019A478081219A47406121785E0F9EEFC3B
:103B9300EFFDAA16AB17850C82850D8312178F7460
:103BA30006121732E9F510800375100EA91074057B
:103BB3001217327F10021863E0F50E750F00780EAE
:103BC30022E085088285098322123C2222123ED1FB
:103BD300E822123C22A3A322E0F508A3E0F5092280
:103BE300850C82850D83E0F8A3E0F5838882E022CB
:103BF300A3A3F08A828B83A322F088828983A3A361
:103C0300A3A322F08A828B83123C0F22E0F50A756C
:103C13000B00780A22F088828983A3123C2222E0D7
:103C2300850882850983A3A32274EE12179174FE7B
:103C330012171C8A0A8B0BECFAEDFB74141217850E
:103C4300E0F510A3E0F5117416121785E0FE741861
:103C5300121785E0F50EA3E0F50F85188285198309
:103C6300AC82AD831207288A0C8B0DEA450D60499F
:103C730085188285198312341A1207FA8A828B8374
:103C8300E5824583602FA3A3123BDBE5084509606A
:103C930024780E1219A478101219A4EEF9AC0CAD05
:103CA3000DAA0AAB0B85088285098312178F74044A
:103CB3001217328006790E800279010230B474F64D
:103CC30012179174FE12171C740C121785123BD035
:103CD300851882851983F07401121785E9F0E4F5DC
:103CE30008F50978081219A475080278081219A4AE
:103CF300740412178585820885830978081219A42C
:103D030012084E7406121732740212173280687446
:103D1300F7121791EAFEEBFF89087C197D0312085D
:103D230066EA5402600BA908EEFAEFFB12071C8047
:103D330002790102272E74F612179174FF6A700339
:103D430074FF6B70168C828D83123D7FE4F08C823E
:103D53008D83A3A3A3123D7FA380181208368A087C
:103D63008B09A808A909E849600D8882898374FF33
:103D7300122830A3A3E4F07F0202186374FFF0A3B8
:103D8300F08C828D83A3A32274F612179112083646
:103D93008A828B83E58245836006A3A3E0FA8002CF
:103DA3007A007B0080D174F21217918A088B09EC98
:103DB300FEEDFF740E121785E0F50A1208368A0C21
:103DC3008B0DA80CA90DE8497026EEFCEFFD7AFFD8
:103DD3007BFF1208368A0C8B0DA80CA90DE84970DD
:103DE300047911801688828983E508F0A3E509F038
:103DF30088828983A3A3E50AF079007F060218630A
:103E030074EE121791EAFEEBFF8C088D09890C748E
:103E130014121785123ECD741612178512341A75B3
:103E23000D00E8496003023EC17402650C600302A1
:103E33003EBC7412121785123ED7FCA3E0F9EC24A2
:103E430000F50EE439F50FEAF4F8EBF4F9EC58F861
:103E5300E50F59F9E849705CE5082406F8ED3400EC
:103E6300F9880A890B8882F583123EE21208668A72
:103E7300108B11E50E65107004E50F651160427833
:103E83000E1219A4850A82850B83123EE212086C76
:103E93007402121732E9F50D7027780E1219A485F2
:103EA3000882850983A3A3123EE0120884740212D8
:103EB3001732800D750D808008750D0D8003750D0B
:103EC3000BA90D0235798E828F83123ED122E0F841
:103ED300A3E0F922123ED188828983E022A3A3E0E2
:103EE300FCA3E0FDEEFAEFFB2274E812179174E7EE
:103EF30012171C851882851983EAF0A3EBF08C1640
:103F03008D17890E7508007509007431121785E045
:103F1300F512A3E0F5137433121785E0F514A3E04B
:103F2300F5157435121785E0F50FE50975F003A44F
:103F3300F8A9F0851882851983124056E0F47003BE
:103F4300A3E0F47003024039EE2402F50CEF1240B3
:103F53004CE0700302403985160A85170B780A1264
:103F630019A4AC14AD15AA12AB131207EE74021206
:103F730017328A0A8B0BEA450B7003024039E4F5CA
:103F830010F51178101219A4740612178585821082
:103F930085831178101219A474091217858582106C
:103FA30085831178101219A4851282851383A3A324
:103FB300A3A31219BB7914AC0AAD0B8E828F8312A3
:103FC300341A1208487408121732E97069850A8294
:103FD300850B83A3A3A3A3123ECD740212178512EC
:103FE3003688850C82850D83E0A2E05018A90E74F3
:103FF30002121785AC82AD838E828F8312341A121C
:104003000740E94208850C82850D83E0A2E1502632
:10401300E50FF50A780A1219A8A90E740312178579
:10402300AC82AD838E828F8312341A12073A7401E5
:10403300121732E942080509E509C3940250030245
:104043003F2DA9087419023BB33400F50D850C828A
:10405300F58322E028FEA3E039FF8E828F8322744A
:10406300F2121791EAFEEBFF890B7401650B600EE8
:104073007402650B706A7901120A46E97062EEFAFE
:10408300EFFB1208308A088B09EA45096047750A75
:1040930000800B7C177D007900120FC2050A900285
:1040A300E6E0F8E50AC3985021E50A75F017A4F88D
:1040B300A9F0850882850983A3A3E028FAA3E03940
:1040C300FB8A828B8312298270C9850882850983C2
:1040D30074FFF0A3F07C197D03EEFAEFFB12086086
:1040E300023DFE74F21217918A088B09ECFEEDFF74
:1040F300740E121785123763900D6FE0F4603D7AEA
:10410300097B00120FD4EA4B60328A828B8374B12D
:10411300F0A3E4123BF5A3123BF3A3E508F0A3E5F8
:1041230009124142EEF0A3EF124142A3A3E50AF0C4
:10413300A3E50BF0900D6FE0F9120FE0023DFEF0E6
:104143008A828B83A3A3A3A3A322C082C08390618B
:10415300907404F0A37448F0A37402F09061807427
:1041630040F09061BC7403F09061877419F0906221
:1041730065741BF0906249E0C3941390619C400AFC
:104183007409F090606674018007740DF0906066A6
:10419300E4F090619A7433F0A37455F09061A074C5
:1041A3003AF090053FE064017009C2919003A67450
:1041B3006780059003A67461F09026EAE49390610A
:1041C30086F09026E4E493F46027E493540FF89088
:1041D3006185E0686012E5C654804449F5C6E59EF2
:1041E300547F644970F8E8F053C680E59E547F70AD
:1041F300FA7905120D8E02437BC082C083E5A8F8CD
:1042030053A87E906181E4F0A3F0A3F0C2BA539A5D
:10421300FEC289759B00C2C275E90075910075BF26
:104223000075A91175B905906181F0A374C0F0A35D
:10423300E4F0D2BA439A0174805842A802437BC087
:1042430082C08374F812171C9003A4E0F8A3E0F96A
:10425300E84970030243709003A4E054406023795B
:1042630008851882851983AA82AB83120C028518EC
:1042730082851983AA82AB831208F69003A4E054C3
:10428300BFF0E054806010790C7A657B05120C0254
:104293009003A4E0547FF0E0A2E0503190619A745F
:1042A30033F0A37455F09061A0743AF090053FE0A9
:1042B30064017009C2919003A6746780059003A6F8
:1042C3007461F01208FC9003A4E054FEF0E0540281
:1042D300603190619A743FF0A3745AF09061A074B6
:1042E3007FF090053FE064017009D2919003A674BA
:1042F3007180059003A6746AF01208FC9003A4E091
:1043030054FDF0E0540460139026E8E49390618632
:10431300F01209029003A4E054FBF0E05408601388
:104323009026E9E493906186F01209029003A4E0D9
:1043330054F7F0E0541060139026EAE493906186FA
:10434300F01209029003A4E054EFF0E05420600A55
:104353001209029003A4E054DFF0A3E05401600DBE
:10436300120B2A1209089003A5E054FEF0740812F8
:10437300173202437BF0A3F0D083D0820201227470
:10438300EC12179174F412171C851882851983ACEB
:1043930082AD83758384758278740412162F9026F8
:1043A300E893F4600302450E907808E0C39402504A
:1043B300030244EE7404121785AC82AD83758383C4
:1043C3007582EE740812162F8518828519838582EB
:1043D300128583137404121785AC82AD83750EFFA7
:1043E300750FFF7FFF7E00750C48750D788015747F
:1043F300086E700302448274096E7003024482746F
:104403000A6E607B850C82850D8378081215EC8C0F
:10441300828D83A909E50AC9F888107418780812EF
:10442300151AE5104508F8C3E098A3E099850C82B6
:10443300850D8378081215EC40188C828D837418CF
:10444300780812151AE5104508F8E0C398F8A3E0B8
:10445300801C7418780812151AE5104508FAE9FB50
:104463008C828D83E0F8A3E0F9EAC398F8EB99F91D
:10447300C3E8950EE9950F5006880E890FEEFF0EDF
:10448300E50C2404F50CE50D3400F50DEEC394138F
:1044930050030243F274FF650E700474FF650F60EE
:1044A300238F087402780812170974482508F582C7
:1044B30074783509F58378081215EC851282851313
:1044C30083E508F0EC2402FCED3400FD85128285BF
:1044D3001383A3858212858313740C121785E582D7
:1044E3006C7003E5836D60030243E0750801750991
:1044F3000078081219A47402121785AC82AD837A6E
:10450300BA7B091211F07402121732740C121732AB
:104513007F0C021863C082C0839061AE7468F0A3FD
:10452300746AF090624574FBF0A304F053F4FD4306
:10453300FE0290053F7401F09061A0E0643A90613F
:104543009A70237433F0A37455F09061A0743AF019
:10455300740164017009C2919003A6746780289066
:1045630003A674618021743FF0A3745AF09061A094
:10457300747FF0740164017009D2919003A6747181
:1045830080059003A6746A02437A7F08021863C009
:1045930082C0839004F1E06401700A9004F6E06045
:1045A30004790C8002790002437BC082C08375E1E9
:1045B300F19004F4E0605B14600914605F146057C9
:1045C30014705E120B3C9004EAE0F97AEB7B041260
:1045D3000D107AD67BBE7C897D8E120D467A557B73
:1045E300557C557D00120D1C9004F5E0F9120D2841
:1045F3007901120D829004E8E0F8A3E0C82416F5CF
:1046030082E83400F5837454F0A3740BF07900024C
:10461300437B120B4280AF120B4880AA120B4E80D1
:10462300A5791280EA74F012179175D90D9004D50B
:10463300E0A2E0E4331313F89004EAE0C433335404
:10464300C0484401F5D978E8790488828983A3A313
:10465300A3E0F5D988828983A3A882A983E864EEBD
:104663007003E9640470E378D5790488828983A3AD
:10467300E0F5D988828983A3A882A983E864DB70E3
:1046830003E9640470E575E1959004D5E0F97AD601
:104693007B04120D16900D9174EEF0A3740AF0A32F
:1046A300744AF0A3740CF0A3744AF0A3740CF0A33F
:1046B300744AF0A3740CF0A374F4F0A3740AF0A387
:1046C300744AF0A3740CF0A3740CF0A3740BF09071
:1046D3000D9F744AF0A3740CF0A3744AF0A3740CF6
:1046E300F0A3744AF0A3740CF0A3744AF0A3740CFF
:1046F300F0A3744AF0A3740CF0A3744AF0A3740CEF
:10470300F09004F4E064019004E87012E0F8A3E090
:10471300F5838882A3A37508007509088010E0F863
:10472300A3E0F5838882A3A3750804750900750ABD
:1047330000750B007808121565750CFF750DFF7574
:104743000EFF750F007808790C1215B39004E8E09A
:10475300F8A3E0C8240EF582E83400F58378081244
:1047630015FB9004E8E0F8A3E0C82414F582E834CC
:1047730000F5837413F09003A27402F002458D7464
:10478300F71217919004FAE02407F5D99004EAE0B0
:10479300C4333354C0F5D978E8790488828983A374
:1047A300A3A3E0F5D988828983A3A882A983E864B7
:1047B300EE7003E9640470E39004FAE0601F78E8A4
:1047C3007904FAE82413F582E93400F583E0F5D996
:1047D30088828983A3A882A9831AEA70E690051ABE
:1047E300E02407F5D99004EAE0C4333354C0440409
:1047F300F5D978E8790488828983A3A3A3E0F5D95E
:1048030088828983A3A882A983E864EE7003E9649C
:104813000470E390051AE0601F78E87904FAE8244D
:1048230033F582E93400F583E0F5D988828983A3DF
:10483300A882A9831AEA70E675E195900D9174FA3E
:10484300F0A3740AF0A3744AF0A3740CF0A3744A9F
:10485300F0A3740CF0A3744AF0A3740CF0A374F4E3
:10486300F0A3740AF0A3744AF0A3740CF0A3740CBD
:10487300F0A3740BF0900D9F744AF0A3740CF0A393
:10488300744AF0A3740CF0A3744AF0A3740CF0A35D
:10489300744AF0A3740CF0A3744AF0A3740CF0A34D
:1048A300744AF0A3740CF09004E8E0F8A3E0C82481
:1048B3000EF582E83400F58374FFF0A3F0A3F0A3B0
:1048C300F09004E8E0F8A3E0C82414F582E834008B
:1048D300F5837412F09003A27401F0FF021863745D
:1048E300F71217919004FAE02407F5D99004EAE04F
:1048F300C4333354C04402F5D978E87904888289F3
:1049030083A3A3A3E0F5D988828983A3A882A9837B
:10491300E864EE7003E9640470E39004FAE0601F56
:1049230078E87904FAE82413F582E93400F583E0A2
:10493300F5D988828983A3A882A9831AEA70E675C8
:10494300E195900D917406F0A3740BF0A37406F037
:10495300A3740BF0A37406F0A3740BF0A37406F016
:10496300A3740BF0A37406F0A3740BF0A37406F006
:10497300A3740BF0A3740CF0A3740BF0900D9F744D
:104983004AF0A3740CF0A3744AF0A3740CF0A3745C
:104993004AF0A3740CF0A3744AF0A3740CF0A3744C
:1049A3004AF0A3740CF0A3744AF0A3740CF09004BF
:1049B300E8E0F8A3E0C8240EF582E83400F5837438
:1049C300FFF0A3F0A3F0A3F09004E8E0F8A3E0C89D
:1049D3002414F582E83400F5837414F09003A27470
:1049E30004F0024CA974F71217919004FAE024071B
:1049F300F5D99004EAE0C4333354C04406F5D978BA
:104A0300E8790488828983A3A3A3E0F5D9888289FE
:104A130083A3A882A983E864EE7003E9640470E3C6
:104A23009004FAE0601F78E87904FAE82413F58229
:104A3300E93400F583E0F5D988828983A3A882A9A4
:104A4300831AEA70E690051AE02407F5D99004EA80
:104A5300E0C4333354C04404F5D978E87904888238
:104A63008983A3A3A3E0F5D988828983A3A882A914
:104A730083E864EE7003E9640470E390051AE06070
:104A83001F78E87904FAE82433F582E93400F583E2
:104A9300E0F5D988828983A3A882A9831AEA70E6FC
:104AA30075E195900D917400F0A3740BF0A3744A13
:104AB300F0A3740CF0A3744AF0A3740CF0A3744A2B
:104AC300F0A3740CF0A3744AF0A3740CF0A3744A1B
:104AD300F0A3740CF0A3740CF0A3740BF0900D9F6F
:104AE300744AF0A3740CF0A3744AF0A3740CF0A3FB
:104AF300744AF0A3740CF0A3744AF0A3740CF0A3EB
:104B0300744AF0A3740CF0A3744AF0A3740CF090ED
:104B130004E8E0F8A3E0C8240EF582E83400F58346
:104B230074FFF0A3F0A3F0A3F09004E8E0F8A3E08F
:104B3300C82414F582E83400F5837415F09003A2B9
:104B43007403F0024CA9C082C0839004E8E0F8A388
:104B5300E0C82406F582E83400F583E40243787460
:104B6300F71217919003D0E0F875F003A4C8AAF0E8
:104B73002AF974D228F8740339F9E82405FAE934D8
:104B830000FB8A828B83E0FCA3E0FD88828983A3F8
:104B9300A3A3A3A3A3A3A3A3ECF0A3EDF08882890B
:104BA30083A3A3A3A3A3A3A3E024FFF8A3E034FF59
:104BB300F98A828B83E8F0A3E9F0024CA974F71217
:104BC3001791EAFEEBFF9061D0E06003024C9D7504
:104BD300D90E75D90375D904EE248BF582EF340011
:104BE300F583E5822408F8E5833400F9E0F5D9A3D9
:104BF300E865827003E9658370F2EE2483F582EF42
:104C03003400F583E5822404F8E5833400F9E0F504
:104C1300D9A3E865827003E9658370F275E195793C
:104C230008EE248BFAEF3400FB120BF67904EE2422
:104C330083FAEF3400FB120BF67C00EEF8EFF9EC8D
:104C4300FAC3E49AFA95E0FBEE2AFAEF3BFBEA2477
:104C53008AF582EB3400F583E0C0E0E824AAF5820C
:104C6300E93400F583D0E0F00C88828983A3A8821D
:104C7300A983ECC3940840C7EE246FF582EF340098
:104C8300F583E0F8A3E0F9EE2471F582EF3400F543
:104C930083E8F0A3E9F07901800279008008F0EE5F
:104CA300A2E092AF79007F01021863C082C08375CE
:104CB300D90275D90375D90575E195EA246FF58293
:104CC300EB3400F583E0F8A3E0F9EA2471F582EB15
:104CD3003400F583E8F0A3E9F0790102437B74F62D
:104CE300121791EAFEEBFF9005457406F07508452F
:104CF30075090578081219A47C017903120C3E7416
:104D03000212173275D90675D90375824575830565
:104D1300E0F5D9A3E582644A7004E583640570F085
:104D230075E1959003A2E06408701EEE246FF5828E
:104D3300EF3400F583E0F8A3E0F9EE2471F582EF98
:104D43003400F583E8F0A3E9F07901024FAF74F67C
:104D5300121791EAFEEBFF9061D0E0706678019044
:104D63000545740BF09003A2E064077019750845BC
:104D730075090578081219A47C017903120C3E7495
:104D8300021217327805740128F5D975D903758293
:104D930045758305E8FAE0F5D9A31AEA70F875E1D9
:104DA30095EE246FF582EF3400F583E0F8A3E0F984
:104DB300EE2471F582EF3400F583E8F0A3E9F0798E
:104DC3000180027900024FAF74F7121791EAFEEBEC
:104DD300FF75D90375D90375D90DEE24DDF582EF7F
:104DE3003400F583E0F5D975E1957904120D4CEEA5
:104DF300246FF582EF3400F583E0F8A3E0F9EE24A5
:104E030071F582EF3400F583E8F0A3E9F07901024C
:104E13004CA974F6121791EAFEEBFF9061D0E0F80B
:104E23007480C398FAEE2482F582EF3400F583E0B0
:104E33006004780480027800E8240BF8EAC39850F1
:104E430003024EDA7D09900545EDF0EE24E2F8EF1A
:104E53003400F97A467B057C0888828983E08A825C
:104E63008B83F088828983A3A882A9838A828B8318
:104E7300A3AA82AB831CEC70E0EE2482F582EF34AC
:104E830000F583E0601D750845750905780812195A
:104E9300A47C097903EEFAEFFB120C3E740212179D
:104EA300327D0D74012DF5D975D90375824575834E
:104EB300058D08E0F5D9A31508E50870F675E195A9
:104EC3007904120D4CEE241DF582EF3400F583E4D2
:104ED300F0A3F0790180027900024FAF74F6121744
:104EE30091EAFEEBFF9061D0E0F87480C398FAEE8C
:104EF3002482F582EF3400F583E0600478048002B5
:104F03007800E82408F8EAC3985003024FAD780606
:104F1300900545740CF09003BFE0900546F09003B4
:104F2300C0E0900547F09003C1E0900548F090037E
:104F3300C2E0900549F09003C3E090054AF0EE24E7
:104F430082F582EF3400F583E0601B75084575092F
:104F53000578081219A47C067903EEFA120C3E7444
:104F630002121732780A740128F5D975D9037582AC
:104F7300457583058808E0F5D9A31508E50870F69B
:104F830075E1957904120D4CEE246FF582EF340030
:104F9300F583E0F8A3E0F9EE2471F582EF3400F530
:104FA30083E8F0A3E9F07901800279007F02021817
:104FB3006374F6121791EAFEEBFF9061D0E0F87488
:104FC30080C398FAEE2482F582EF3400F583E06023
:104FD30004780480027800E82404F8EAC3985003B4
:104FE30002508E7802900545E8F0EE24F4F582EF46
:104FF3003400F583E0900546F0EE2482F582EF3429
:1050030000F583E0601B75084575090578081219DA
:10501300A47C027903EEFA120C3E74021217327862
:1050230006740128F5D975D90375824575830588FA
:1050330008E0F5D9A31508E50870F675E195EE24A7
:1050430073F582EF3400F583E4F0EE247FF582EF0D
:105053003400F583E4F0EE241DF582EF3400F5838C
:10506300E4F0A3F07904120D4CEE240DF582EF3435
:1050730000F583E0F8A3E0F9EE2471F582EF340044
:10508300F583E8F0A3E9F0790180027900024FAFDC
:1050930074F61217919061D0E0F87480C398FCEA1B
:1050A3002482F582EB3400F583E060047804800207
:1050B3007800E82404F8ECC398405B790290054536
:1050C3007407F0EA24F5F582EB3400F583E09005EC
:1050D30046F0EA2482F582EB3400F583E06018752C
:1050E300084575090578081219A47C0209120C3EBB
:1050F30074021217327906740129F5D975D903752B
:105103008245758305E9F8E0F5D9A318E870F875C9
:10511300E195790180027900024FAF74F51217917E
:10512300E9FCA2AFE433F50AC2AF7D0080010DEACA
:10513300246EF582EB3400F583E0F8EDC398501A42
:105143008D08EA2508F8EB3400F9E8246AF582E9CA
:105153003400F583E06C70D68024EA246EF8EB34D7
:1051630000F9E0FEEA2EFAEB3400FBEA246AF5824A
:10517300EB3400F583ECF088828983E004F0E50AE0
:10518300A2E092AF7F0302186374F6121791A2AFE5
:10519300E433FDC2AFEA246EF582EB3400F583E01D
:1051A30014F07C0060368C08EA2508F8EB3400F92B
:1051B300E8246BF582E93400F583E0C0E0E8246A73
:1051C300F582E93400F583D0E0F00CEA246EF58231
:1051D300EB3400F583E0F8ECC39840CAEA246DF59C
:1051E30082EB3400F58374FFF0EA2469F582EB3433
:1051F30000F583E4F0EDA2E092AF024FAFC082C0AE
:1052030083E5A8F8C2AFEA246AF582EB3400F5839C
:10521300E9F0EA2469F582EB3400F583E4F0E8A2CF
:10522300E7A2E792AF02437B74F3121791EAFEEB16
:10523300FFECFAEDFB8A828B83A3A3A3A3E0541FA5
:10524300F0EE2436F582EF3400F583E4F0F50AEE50
:10525300FCEFFD8A828B83E0C0E0EC245DF582EDF8
:105263003400F583D0E0F0750B00E50A3333335493
:10527300F8F50C8A828B83E0F508750900E50B7855
:10528300081216EAE508A2E0502FEE2436F8EF34B0
:1052930000F988828983E0F508EE2508F508EF34E4
:1052A30000F509E5082438F582E5093400F583E5BE
:1052B3000CF088828983E004F0050B050CE50BC331
:1052C300940840AF050A8A828B83A3AA82AB838C9E
:1052D300828D83A3AC82AD83E50AC3940550030298
:1052E30052567F0502186374F71217919003CEE0AC
:1052F300640170030254487A009003D4E06003020F
:1053030054487401F0A3E4F0A3F090043404F09043
:105313000439F09003D7E4F0A3F0A3F0A3F09003D3
:10532300E104F0900407E4F09003EAF0A3F0A3F0A3
:10533300A3F0A3F0A3F0A3F0900451F0900445F080
:1053430090043A7480F0A3E4F0900440F09004BC1D
:10535300F0A3F0A3F0A3F0A3F0A3F0A3F0A3F090C5
:1053630004C5F0900454F09004A4F0A3F0A3F0A3B8
:10537300F0A3F0A3F0A3F0A3F0A3F0A3F09004B084
:10538300F09004B2F09004AEF09004C8F0A3F0A340
:10539300F0A3F0A3F0A3F0A3F0A3F078CE7903E891
:1053A300246EF582E93400F58374FFF00A8882895C
:1053B30083A3A882A983EAC3940440E37ACE7B0340
:1053C30078DC790488828983E0C0E0EA2461F5828D
:1053D300EB3400F583D0E0F088828983A3A882A907
:1053E300838A828B83A3AA82AB83E864E17003E997
:1053F300640470D07ACE7B0378B57903888289837D
:10540300A3E0C0E0EA24E6F582EB3400F583D0E0C4
:10541300F088828983A3A882A9838A828B83A3AA23
:1054230082AB83E864BD7003E9640370CF9003CE5D
:10543300E004F0640170089003D6E09003D0F07AA2
:10544300D27B0380047A007B00024CA9C082C08314
:105453009003D5E4F09003D4F09003CEF0A3F0A32F
:1054630074FFF075E1F102437BC082C08378007959
:10547300009003D5E0600478D2790388828983A3FE
:10548300A3A3A3E0F902437B74F6121791EAFEEBA0
:10549300FFEE2463F582EF3400F583E0F8A3E0F92F
:1054A300E8497003025530EE2463F8EF3400F97ACB
:1054B300007B00A2AFE433F508C2AF88828983E0A2
:1054C300FCA3E0FDEC4D603A88828983E0FAA3E017
:1054D300FB8A828B83E0FCA3E0FD88828983ECF066
:1054E300A3EDF08A828B83E4F0A3F088828983E0C2
:1054F300FCA3E0FDEC4D700A88828983A3A3E4F04A
:10550300A3F0E508A2E092AF1212989004E2E0043F
:10551300F09004E3E004F0EE2463F582EF3400F549
:1055230083E0F8A3E0F9E84960030254AA8E828F6E
:1055330083A3A3A3E0600F8E828F83A3A3A3E4F0CE
:105543009003CFE014F09003CEE014F070069003C4
:10555300D074FFF08E828F83A3A3E4F09004E1E084
:10556300700D9003CFE0640170057900120D2EEEEB
:10557300FAEFFB120C6E024FAF74F7121791EAFEAB
:10558300EBFF8E828F83A3A3A3A3E0FA7B00120910
:105593004AEEFAEFFB120BC0120C56024CA9C08262
:1055A300C08378B5790388828983A3E4F0888289EC
:1055B30083A3A882A983E864BD7003E9640370E64A
:1055C3009003B6740102437A74F6121791EAFEEB64
:1055D300FFEC2403F8ED3400F988088909EC24076B
:1055E300F8ED3400F9E8FCE9FD8C828D83E0F8A343
:1055F300E0F9850882850983E0FAA3E0FB1216919E
:10560300EE240DF582EF3400F583E8F0A3E9F08C86
:10561300828D83E0F8A3E0F9850882850983E0FAA7
:10562300A3E0FB1216918B09EA45096013EE240DE2
:10563300F582EF3400F583E02401F0A3E03400F0B9
:10564300024FAF74F6121791EAFEEBFFEE242EF52C
:1056530082EF3400F583E0FCA3E0FD780079FAECF7
:10566300FAEDFB121691EE246FF582EF3400F58309
:10567300E8F0A3E9F0780079FAECFAEDFB12169161
:105683008B09EA45096013EE246FF582EF3400F5C8
:1056930083E02401F0A3E03400F0024FAF74EC1276
:1056A3001791EAFEEBFF741412178578081215ECB4
:1056B300120CF28A0C8B0D8C0E8D0F751002751166
:1056C30000751200751300780C79101215527510BD
:1056D300FF7511FF7512FF780C79101215B3780C52
:1056E3001219A08E828F83E0F8A3E0F5838882A34A
:1056F300A312160A1223AD7404121732E9600302CF
:1057030058048E828F83E02402F8A3E03400F9E882
:10571300FAE9FB8A828B8378081215788A828B8355
:105723007508FF7509FF750AFF750B0078081215D8
:10573300D9EE240BF582EF3400F583C082C0838E4B
:10574300828F83A3A3A3A3A3E02401F8A3E03400DF
:10575300F9D083D082E0687003A3E0697005790112
:105763000258068E828F83A3A3A3A3A3A3A3E0243B
:1057730001F0A3E03400F0EE2473F582EF3400F57A
:1057830083E064017036EE2474F582EF3400F58310
:10579300E0F8A3E0F98E828F83A3A3A3A3A3A3A31B
:1057A300E0687003A3E0697013EE2474F582EF34AC
:1057B30000F583E02401F0A3E03400F0EE247FF54C
:1057C30082EF3400F583E064017036EE2480F582C5
:1057D300EF3400F583E0F8A3E0F98E828F83A3A36F
:1057E300A3A3A3A3A3E0687003A3E0697013EE244B
:1057F30080F582EF3400F583E02401F0A3E0340068
:10580300F0790002451374F6121791E9FEECFFEAF2
:105813002462F582EB3400F583E0640160030258EF
:10582300B29061D0E0F508EA2482F582EB3400F50A
:1058330083E060047804800278007480C39508FCD8
:1058430095E0FDEF28F8E43400F9E82402F8E934A0
:1058530000F9EC98ED99A2D265D033404E740A1248
:105863001785E0F508A3E0F509EA2482F582EB3415
:1058730000F583E0601578081219A4EFFCEEF91225
:105883000C3E740212173274042FFF74012FF5D9E2
:105893008ED9EF600F850882850983F8E0F5D9A3D7
:1058A30018E870F875E19579008006790780027928
:1058B300FF024FAF74F7121791A2AFE433FEC2AFEA
:1058C3008A828B83E0F8A3E0F9E8498A828B8360BC
:1058D3000AA3A3E0F8A3E0F5838882ECF0A3EDF03C
:1058E3008A828B83A3A3ECF0A3EDF08C828D83E4F7
:1058F300F0A3024CA174F7121791E96021F88C828E
:105903008D83E08A828B83F08C828D83A3AC82ADFE
:10591300838A828B83A3AA82AB8318E870E0ECFAB4
:10592300EDFB024CA974F012179174FA12171C893B
:105933000BECFEEDFF750A008A088B097808121933
:10594300E80004105B5B6B598959A359BB59D959BA
:10595300F159145A2C5A405A6A5AF25A035B1A5B89
:10596300355B5B5B5B5B805A7401650B6003025BB9
:10597300568E828F83E0F8C394034003025B56E89C
:10598300900E82025B327402650B6003025B568EDB
:10599300828F83126258900E83E8F0A3E9025B3290
:1059A3007401650B6003025B56125B834003025B69
:1059B30056E8900776025B327401650B6003025B65
:1059C300568E828F83E0F8C394054003025B56E84A
:1059D300900777025B327401650B6003025B56121A
:1059E3005B834003025B56E8900778025B327410D6
:1059F300650B6003025B5675081075090078081281
:105A030019A47A797B07120FAA7402121732025B68
:105A13007C7401650B6003025B56125B83400302D7
:105A23005B56E8900789025B327401650B600302E1
:105A33005B568E828F83E0900E86025B3274046520
:105A43000B6003025B568E828F83780C1215EC90E9
:105A53008468780C12140B5003025B5690078B7802
:105A63000C1215FB025B7CE96003025B561206C84D
:105A7300E9700512116C806090081E806E740765D2
:105A83000B6003025B567508067509007808121946
:105A9300A48E828F83A3AC82AD837402121785AA6E
:105AA30082AB83120FB074021217327C007D008523
:105AB3001882851983AA82AB838E828F83E0F912C1
:105AC3001112E9F508C3940A4003025B791206C870
:105AD300E9700CA9081211727950121316806F74B1
:105AE3001F2508F58274083400F58374018040741F
:105AF30001650B705E125B835059E890078A802F13
:105B03007401650B704D8E828F83E0F8C3940A5045
:105B130042E8900E8580187401650B70368E828F73
:105B230083E0F874F928C3940A5028E8900E87F0AC
