:020000040000FA
:100800004A65FFFF2C07007C41414141FFFFFFFF8C
:10081000FFFFFFFFFFFFFFFFFFFFFFFFFFFFFFFFE8
:10082000000102030405060708090A0BFFFFFFFF8A
:10083000020DE3021C1FFFFFFFFFFFFFFFFFFFFF93
:10084000FFFFFFFFFFFFFFFFFFFFFFFFFFFFFFFFB8
:10085000FFFFFFFFFFFFFFFFFFFFFF02237CFFFF04
:10086000FFFFFFFFFFFFFFFFFFFFFFFFFFFFFFFF98
:10087000FFFFFFFFFFFFFFFFFFFFFFFFFFFFFFFF88
:10088000FFFFFF021C92FFFFFFFFFFFFFFFFFFFFC5
:10089000FFFFFFFFFFFFFFFFFFFFFF022353FFFFED
:1008A000FFFFFFFFFFFFFFFFFFFFFFFFFFFFFFFF58
:1008B000FFFFFF021A8B01FF0000B4000028002890
:1008C00000283075A000A000A000A00000080008CB
:1008D000E001F000100010001000100010001000E7
:1008E00050005000500010001000D0070000000021
:1008F00000000F0001000500307507001000010026
:1009000081FF00000000FF9E25BC25A425FF0202F8
:100910000208025000A0000000E80302CE8201009D
:10092000008982028E82010000EF09029682010096
:1009300000B202028E82010000F0090298820100DA
:1009400000C802028E82010000F10902A6820100A5
:1009500000CA02028E82010000F20902A882080089
:1009600000CB02028E82010000F30902C082010066
:1009700000F409FF0100FF2002CE820100007A820C
:10098000028E82010000580A02B0820000000000BE
:1009900002B2820300001803742B742B742B742B87
:1009A000742B742B742B742B742B742B742B742B4F
:1009B000742B082E202E022EFFFF49020003041282
:1009C0006402CE820100008382028E82010000A0B8
:1009D0000A029A82010000A10A02B28203000066A4
:1009E00007020202020202020202010D00000010D0
:1009F0000102CE820100007782028E82010000C2D5
:100A00000A0292820100006C07028E82010000C37C
:100A10000A029E820100006781028E82010000C4EA
:100A20000A02AC820100003E81028E82010000C5F4
:100A30000A02B482010000EC80028E82010000C62E
:100A40000A02B682010000DA80028E82010000C72D
:100A50000A02B882010000C880028E82010000C82C
:100A60000A02BA82010000B680028E82010000C92B
:100A70000A02BC820100004C81028E82010000CA81
:100A80000A02BE82010000CB0A01E803053F100AFA
:100A90001C02CE820100008682028E82010000715B
:100AA0000B103080020000790802B2820300007B44
:100AB00008028C820100005A81028E8201000071BE
:100AC0000B1040800200007A0802B282030000810D
:100AD00008028C820100009681FFFFFF001202CE07
:100AE000820100008082028E82010000BE0B02A4FF
:100AF00082010000CB0802B282030000CC08013062
:100B00007503020106000000000000000000000064
:100B100000000000000000000000000000000000D5
:100B200000FFFF0600800CE803000000000000004A
:100B300000000000000000000010000000000000A5
:100B40000000000000000000000000100000000095
:100B50000000000000000000000000000010000085
:100B60000000000000000000000000000000000085
:100B70000000000010000000000000000000000065
:100B8000000000000000000000000000000008005D
:100B90000000000000000000000000000000000055
:100BA0000000000000000004000000000000000041
:100BB0000000000000000000000004000000000031
:100BC0000000000000000000000000000200000023
:100BD0000000000000000000000000000000000015
:100BE0000001000000000000000000000000000004
:100BF00000000000000000000000000100000000F4
:100C000000000000000000000000000000000000E4
:100C100000000000000100000000000000000000D3
:100C200000110011121B00110C1500110000000032
:100C3000001A800808093635304C697465051214AD
:100C4000001400020A000201050302F0FF363530ED
:100C50004C69746500000000000000000000000006
:100C6000000000330000063340010A4368617261EE
:100C7000637465726973746963203100024368614B
:100C800072616374657269737469632032001A4318
:100C9000686172616374657269737469632033009B
:100CA000104368617261637465726973746963206B
:100CB00034000243686172616374657269737469B8
:100CC0006320350002CE820100007D82028E820107
:100CD00000004B0D02C4820300006309028C8201F4
:100CE00000004C0D028E820100005D0D02C68201E3
:100CF00000007709028C820100005E0D028E8201E5
:100D000000006F0D02C8820300007809028C820186
:100D10000000700D028E82010000810D02CA820067
:100D200000008C0902B2820300008D09028C82014E
:100D30000000820D028E82010000930D02CC82041D
:100D400000009309028C82010000940DE5C754F85D
:100D50004405F5C779012200000080FB120D4CB953
:100D60000003020DCDE479217808B800028004F771
:100D700009D8FCE479297802B800028004F709D880
:100D8000FCE4900280781979088002F0A3D8FCD99D
:100D9000FA781C9008B67A01BA00028007E493A39F
:100DA000F608DAF9900998AA82AB839008B778968A
:100DB00079058015E493A3AC82AD838A828B83F09E
:100DC000A3AA82AB838C828D83D8E9D9E77582DAB6
:100DD0007583AC7407120DF575825775830D740019
:100DE000120DF575D00075813F751A80751B02755F
:100DF0009F00020D5CC09FF59FE473D09F22D083BB
:100E0000D082C09FE493C0E0740193C0E074029369
:100E1000F59F22E066701008A3E066700A08A3E060
:100E200066700408A3E06622C3E7960809E79608FF
:100E300009E7960809E79622C3E09608A3E096081A
:100E4000A3E09608A3E09622C00AC3E096F50A083C
:100E5000A3E096420A08A3E096420A08A3E096455A
:100E60000A7001D3D00A22080808EAC0E0EBC0E00B
:100E700086F0E7A4FA180986F0E7A42AFA1809868A
:100E8000F0E7A42AFA180986F0E7A42AFA1986F0EE
:100E9000E7A4FBE5F02AFA190886F0E7A42BFBE5A6
:100EA000F03AFA190886F0E7A42BFBE5F03AFA18B5
:100EB000180986F0E7A4C5F02BFBE43AFA1908E715
:100EC000C5F0C6A426F6E5F03BFBE43AFA1886F036
:100ED000E7A4F6E5F00826F6E43B08F6E43A08F65F
:100EE000D0E0FBD0E0FA22E4CFC0E0E4CEC0E0E402
:100EF000CDC0E0E4CCC0E075F020C3E633F608E6F0
:100F000033F608E633F608E633F6181818EC33FC27
:100F1000ED33FDEE33FEEF33FFC3EC9709ED970998
:100F2000EE9709EF97191919400FFFEC97FC09ED9F
:100F300097FD09EE97FE191906D5F0BEECF709EDFD
:100F4000F709EEF709EFF7191919D0E0FCD0E0FD29
:100F5000D0E0FED0E0FF226016080808C6C313C622
:100F600018C613C618C613C618C613C6D5E0EA229B
:100F70007009080808226016181818C6C333C60876
:100F8000C633C608C633C608C633C6D5E0EA22E66D
:100F900027F60809E637F60809E637F60809E637BE
:100FA000F622E026F608A3E036F608A3E036F608B7
:100FB000A3E036F622E026F008A3E036F008A3E02E
:100FC00036F008A3E036F022C3E697F60809E69764
:100FD000F60809E697F60809E697F622C3E096F0C8
:100FE00008A3E096F008A3E096F008A3E096F022AC
:100FF000E657F60809E657F60809E657F60809E63F
:1010000057F622E056F608A3E056F608A3E056F697
:1010100008A3E056F622E056F008A3E056F008A335
:10102000E056F008A3E056F022E0F608A3E0F60848
:10103000A3E0F608A3E0F622E6F008A3E6F008A392
:10104000E6F008A3E6F022E0FAA3E0FBA3E0FCA3AD
:10105000E0FD22EAF0A3EBF0A3ECF0A3EDF022CA4E
:10106000C0E0E6F0A308DAFAD0E0FA22CAC0E0E075
:10107000A3C582CCC582C583CDC583F0A3C582CC70
:10108000C582C583CDC583DAE6D0E0CA22C3E49821
:10109000F8E499F91210CE8026C3E49AFAE49BFB97
:1010A000E920E7E91210CEE498F8E499F922C3E4C4
:1010B00098F8E499F91210CEE498F8E499F9C3E4A9
:1010C0009AFAE49BFB22EB20E7CFE920E7E0B900A6
:1010D00010BB0008E88AF084F8AAF022E4FBC8FA02
:1010E00022EB70227B10C833C8C933C9335007C301
:1010F0009AC3DBF280069A50012ADBEAC833F4C8AF
:10110000C933F4C9FA2275F008E4C833C8C933C931
:1011100033C99AC99B5004C92AC93BD5F0ECFBC816
:1011200033F4C8E4C9FA22600D08C6A2E713C61852
:10113000C613C6D5E0F322600C08C6C313C618C692
:1011400013C6D5E0F422700422600D18C6C333C65E
:1011500008C633C6D5E0F41822251A10AF08F51AD0
:101160004002151B8008F51A4002151BD2AF22C0A1
:10117000D0251A10AF08F51A5002051B8008F51A81
:101180005002051BD2AFD0D022251AF58210AF082D
:10119000F51A4002151B8008F51A4002151BD2AF44
:1011A000851B8322251AF582E4351BF58322E4731F
:1011B000251AC582C0E0E51B34FFC583C0E0E51AEF
:1011C000C3958224F810AF0885831B85821A800896
:1011D00085831B85821AD2AFCEF0A3E520F0A378D9
:1011E0000AE608F0A3DEFAEFF0A3E58124FAF8E6B8
:1011F00008F0A3E608F0A3E608F0A30808E608F064
:10120000A3E608F0A315811581D0E0FED0E0F81523
:101210008115811581E8C0E0EEC0E022251AC58263
:10122000C0E0E51B34FFC583C0E0E51AC395822406
:10123000F910AF0885831B85821A800885831B857A
:10124000821AD2AFCEF0A3E520F0A3780AE608F028
:10125000A3DEFAEFF0A3E58124FBF8E608F0A3E6AD
:1012600008F0A30808E608F0A3E608F0A315811526
:1012700081D0E0FED0E0F815811581E8C0E0EEC035
:10128000E022851B83851A82E0A3FEE0A3F5207887
:101290000AE0A3F608DFFAE0A3FFE0A3C0E0E0A3C2
:1012A000C0E0E0A3C0E0E0A3C0E0E0A3C0E010AF76
:1012B0000885821A85831B800885821A85831BD244
:1012C000AFD083D082020DFB851B83851A82E0A3F9
:1012D000FEE0A3F520780AE0A3F608DFFAE0A3FF1A
:1012E000E0A3C0E0E0A3C0E0E0A3C0E0E0A3C0E072
:1012F00010AF0885821A85831B800885821A858332
:101300001BD2AFD083D08222C0D0251AC582C0E0C4
:10131000E51B34FFC583C0E0E51AC3958224F310B2
:10132000AF0885831B85821A800885831B85821AF6
:10133000D2AFC8F0A3E9F0A3EAF0A3EBF0A3790AD7
:10134000E709F0A3D8FAECF0A3EDF0A3EEF0A3EFD9
:10135000F0A3D0E0F0A3D0E0F0A3D0E0F0A3E5202C
:10136000F0A3E5F0F0A322851B83851A82E0C0E09C
:10137000A3E0F9A3E0FAA3E0FBA3780AE0F608A350
:10138000DFFAE0FCA3E0FDA3E0FEA3E0FFA3E0C0E2
:10139000E0A3E0C0E0A3E0F5D0A3E0F520A3E0A344
:1013A000F5F010AF0885831B85821A800885831BA2
:1013B00085821AD2AFD082D083D0E0F8D0E03274E8
:1013C000048006740280027401C0E0F404121189E2
:1013D000D0E012105F227404800474028000CCC03C
:1013E000E0EDC0E0E51AC39CCCAD1B50011D10AF71
:1013F000068C1A8D1B80068C1A8D1BD2AF12106CB6
:10140000D0E0FDD0E0FC22D083D082E9C0E0E493BC
:10141000A3C386F0C5F095F0F908E493A386F0C560
:10142000F095F0700BE493A3C3994005E9048002A2
:10143000A3E475F002A42582F582E5F03583F583F7
:10144000D0E0F9E493A3C0E0E493C0E022D083D0DD
:1014500082ECC0E0EDC0E0E493A3FCE493A3FDEDD7
:101460004C600D121499EC24FFFCED34FFFD80EF6D
:10147000E493A3FCE493A3FDED4C600D1214D8ECAF
:1014800024FFFCED34FFFD80EFD0E0FDD0E0FCE474
:1014900093A3C0E0E493C0E022C0E0C3E4939608C5
:1014A0007401939618400FE49366700808740193D2
:1014B000661870007019A3A3C3E49396087401938F
:1014C0009618A3A3400DD0E0D0E0D0E0021489A389
:1014D000A3A3A3A3A3D0E022C0E0C0F088F0E493CC
:1014E0006670080874019366187000A8F0A3A370D2
:1014F0000BD0F0D0E0D0E0D0E0021489A3A3D0F06C
:10150000D0E022FF74F512121CEAFEEBFFEE243449
:10151000F8EF3400F9880A890BEE2435F582EF34B0
:1015200000F583E0F8EE2437F582EF3400F583E030
:10153000F50CEC850CF0A4FCAAF0850CF0EDA42AC7
:10154000FDE82CF8E43DF97A257B001210CEEA85FF
:101550000A82850B83F0F8740758F97401B9000208
:101560008004C333D9FCFAE8131313541FF8EE2890
:10157000F8EF3400F9E8245DF582E93400F583E002
:101580005A6008EE2434F582EF802CEE2434F58284
:10159000EF3400F583E0C0E0EE2436F582EF34004E
:1015A000F583E0F5F0D0E084A8F0EE28F8EF340001
:1015B000F9E82438F582E93400F583E0F97F040284
:1015C00012C874F512121CEAFEEBFFEE2434F58209
:1015D000EF3400F583E0C0E0EE2435F582EF34000F
:1015E000F583D0E0F08E828F83A3A3A3A3A3A3A34C
:1015F000C082C0838E828F83A3A3A3A3A3E0F8A39A
:10160000E0F9D083D082E0C398F50AA3E099F50B06
:10161000EE247FF582EF3400F583E064017069EE1B
:101620002480F582EF3400F583E0F8A3E0F98E82A0
:101630008F83A3A3A3A3A3A3A3E0FCA3E0FD8E82B7
:101640008F83A3A3A3A3A3E0FAA3E0FBC3EA9CEBCD
:101650009D5010C3EC98ED99402EC3EA98EB995039
:1016600027800EC3EA98EB994007C3EC98ED9940A8
:10167000177CDB7D04EEFAEFFB122AD2EE247FF515
:1016800082EF3400F583E4F0EE2434F8EF3400F90F
:10169000E8FCE9FDEE2435F582EF3400F583E0F84F
:1016A000EE2437F582EF3400F583E0F50CE50A858A
:1016B0000CF0A4F50AAAF0850CF0E50BA42AF50BB2
:1016C000E8250AF8E4350BF97A257B001210CEEAFA
:1016D0008C828D83F0F8740758F97401B900028088
:1016E00004C333D9FCFAE8131313541FF8EE28F897
:1016F000EF3400F9E8245DF582E93400F583E05A1F
:101700006008EE2434F582EF802CEE2434F582EF6D
:101710003400F583E0C0E0EE2436F582EF3400F5C6
:1017200083E0F5F0D0E084A8F0EE28F8EF3400F97B
:10173000E82438F582E93400F583E0F912233F020A
:1017400015BDC082C083851A82851B83E0F8A3E0A3
:10175000F9C3EA9CEB9D5010C3EC98ED99401BC374
:10176000EA98EB995014800EC3EA98EB994007C3AE
:10177000EC98ED994004790180027900D083D08201
:1017800022EAC39CFAEB9DFB2274EF12121C900319
:10179000A1E064086005E06407702A9061C8E06019
:1017A000249003CFE0F4601DE0F875F003A4C8AA0C
:1017B000F02AF974D128FE740339FF8E828F83A337
:1017C000A3A3E070030218B9906060E0C0E0EE24CB
:1017D00068F582EF3400F583D0E0F0750E44750FA4
:1017E00005750A00750B00E5D914F50CE5D954030D
:1017F000F510601774036510605CE50C6010EE2452
:1018000067F582EF3400F583E0700302189E9005BF
:101810003FE06401602AEE2482F582EF3400F58314
:10182000E06004780480027800850C0AE50AC39819
:10183000FA95E0FB12299A8A0A8B0BEA450B700590
:10184000122CD68074EE2482F582EF3400F583E00A
:1018500070048A0E8B0FE50C6012850E82850F8353
:10186000F50DE5D9F0A3150DE50D70F6EE2482F522
:1018700082EF3400F583E0604474FC250CF50C78AD
:101880000E1213C3AC0CA910EEFAEFFB122B6E7400
:101890000212116FE97026AA0AAB0B123216793DBB
:1018A0008E828F83A3A3A3A3E0FA7B0012286EEE9F
:1018B000FAEFFB122AEA122B807900807474036518
:1018C000106056850C1275130078121213C3AC0EFB
:1018D000AD0FAA0AAB0B122B4A740212116FEE2441
:1018E00068F582EF3400F583E064807004747F80D3
:1018F00001E0F50E780E1213C7E510F50E780E1202
:1019000013C7A90CAC0AAD0B9003CFE0FA7B001211
:101910002832740212116F80139003A1E0640860F2
:101920000BAC0EAD0FEEFAEFFB122BDA122CE279B4
:10193000017F0A0212C874F512121C74FC121159AC
:10194000EAFEEBFF890AA2AFE433F50BC2AF806A6F
:10195000EE2463F8EF3400F97A007B00A2AFE433A1
:10196000F50CC2AF88828983E0FCA3E0FDEC4D60FA
:101970003A88828983E0FAA3E0FB8A828B83E0FCC9
:10198000A3E0FD88828983ECF0A3EDF08A828B834B
:10199000E4F0A3F088828983E0FCA3E0FDEC4D70C5
:1019A0000A88828983A3A3E4F0A3F0E50CA2E09265
:1019B000AF1232169004E2E004F0EE2463F582EFF9
:1019C0003400F583E0F8A3E0F9E849603DEE2463D4
:1019D000F582EF3400F583E02402FAA3E03400FB43
:1019E000EA2402F50CEB3400F50D780C1213C38ACF
:1019F000828B83E0FCA3E0F9EEFAEFFB122B0E746E
:101A00000212116FE970030219509004E2E0606362
:101A10009004E3E0F89004E2E0C398500C7402658F
:101A20000A70509004E4E0604A8E828F83A3A3A3DF
:101A3000A3E0851A82851B83F0A3E4F09004E2E022
:101A4000F874021211A4E8F0A3E4F09004E2E0F8C4
:101A50009004E1E028F074021211A4AC82AD8385F9
:101A60001A82851B83AA82AB83790112283E9004D7
:101A7000E2E4F0E50BA2E092AF740412116F0215DC
:101A8000BDFFFFFF8521878522C622C0E0C0D0E8C8
:101A9000C0E0E9C0E0EAC0E0EBC0E0ECC0E0EDC0CF
:101AA000E0EEC0E0C00AC00BC00CC00DC082C08315
:101AB000C0F0A2AFE433FEC2AF759B00906182E03C
:101AC000A2E05012E591A2E0500C7591FE74016500
:101AD000217003121789E0A2E55051E591A2E5506B
:101AE0004B7591DF9003A1E064076005E064087026
:101AF0002374016521703579019003CFE0FA75F008
:101B000003A4CAA8F028FB74D12AFA74033BFB1281
:101B100019368018E0640D70139003C3E004F0647C
:101B2000287002E4F07A00E0F9122CE8906182E07B
:101B3000A2E64003021BD2E591A2E64003021BD2BB
:101B40007591BF9003A1E064057008122C10122C4F
:101B50001C8003122C16752100122C76E99003A22A
:101B6000F07900122C6A122A487A017B009003A0B7
:101B7000E0F9122F3A907803E064427055900543E3
:101B8000E014F0704DC2AF121B8A00782AD0E0F644
:101B900018D0E0F6E59F54077005750BFF800375BC
:101BA0000B7FC4C0E07829E6F50A08E6550BF50B73
:101BB000740B780A121137D0E0250AF8906270E0B1
:101BC000A2E740F8E8C333906272F0906270E0D20E
:101BD000E0F0906181E0A2E35009E5E9A2E350035F
:101BE00075E9F7A3E0A2E75009E591A2E750037574
:101BF000917FEEA2E092AFD0F0D083D082D00DD012
:101C00000CD00BD00AD0E0FED0E0FDD0E0FCD0E05C
:101C1000FBD0E0FAD0E0F9D0E0F8D0D0D0E032C08C
:101C2000E0C0D0C082C083906183E0A2E05009E5AB
:101C3000BFA2E0500375BFFEE0A2E15009E5BFA2DC
:101C4000E1500375BFFDE0A2E25009E5BFA2E250FA
:101C50000375BFFBE0A2E35009E5BFA2E3500375A3
:101C6000BFF7E0A2E45009E5BFA2E4500375BFEF5F
:101C7000E0A2E55009E5BFA2E5500375BFDFE0A291
:101C8000E65009E5BFA2E6500375BFBFD083D082FE
:101C90008088C0E0C0D0E8C0E0E9C0E0EAC0E0EB86
:101CA000C0E0ECC0E0EDC0E0C0F0E5A7A2E6500F58
:101CB000E5A1A2E6500953A7BF75A1BF121CF7E525
:101CC000A7A2E5500CE5A1A2E5500653A7DF75A138
:101CD000DFE5A7A2E15009E5A1A2E1500375A1FD4E
:101CE000E5A7A2E2500CE5A1A2E2500653A7FB75BE
:101CF000A1FBD0F0021C0874F812121C752101908F
:101D000003A1E064067015122B9E8A828B83A3A325
:101D1000A3A3A3A3E0FAA3E0FB122BFEA2AFE4333C
:101D2000FED2AF9003A7E0640170187A207B009088
:101D300003A0E0F9122FC47A207B009003A0E0F901
:101D4000122F40906182E0D2E6F0900540E06021E1
:101D500085C62280169003A6E064017008E5C6548B
:101D6000F84405F5C653BEFC121A8474016521605F
:101D7000E4EEA2E092AF7F010212C8FF8E238F240F
:101D8000858228858327851A82851B83E0CEA3E080
:101D9000CF852882852783EBC9EAC8EDCBECCA75CD
:101DA000F010C3E833C8E933C9EA33CAEB33CBC315
:101DB000EA9EF526EB9FF525B35004AB25AA26EC49
:101DC00033CCED33CDD5F0DAAE23AF242274E91253
:101DD000121C74F8121159851A82851B83ECF0A32A
:101DE000EDF08A0A8B0B9003A1E024F7C394055011
:101DF00006750A01021F64122B9E8A0C8B0DAE0C15
:101E0000AF0DEE4F7003021F61AC0AAD0B740212EE
:101E100011A4AA82AB83122C2E8E828F83A3A3756A
:101E20000EFF750FFF7510FF751100780E1210036D
:101E300074021211A47512FF7513FF7514FF751546
:101E4000007812121003780E7912120E28502A7898
:101E50000E7912120FC8750A01750BC8750C007542
:101E60000D00780A790E120E285052850E0A850F41
:101E70000B85100C85110D80507516017517C875EE
:101E8000180075190085120A85130B85140C851529
:101E90000D780A790E120FC87816790A120E2840AA
:101EA0001C750A00750B00750C00750D01780A7918
:101EB00012120FC8780A790E120F8F800C750A0162
:101EC000750B00750C00750D007409780A120F70FF
:101ED000750E19F50FF510F511780A790E120EE747
:101EE0008E828F83A3A3A3A3A3A3E0F8A3E0F97A30
:101EF000D07B031210CE880E890FE4F510F511780F
:101F00000A790E120F8F74061211A4E0F8A3E0F9FB
:101F10007AD07B031210CEE8FA8A0EE4F50F780A25
:101F2000790E120E285007780A790E120FC8900306
:101F3000A1E06408600AE064066005E06405702DB5
:101F4000750E0D780E790A120E284021750EF47563
:101F50000FFF7510FF7511FF780A790E120F8F8031
:101F60000C750A00750B00750C00750D00851A8242
:101F7000851B83E0F8A3E0F5838882780A12103885
:101F8000740812116F7F100212C874F712121C121B
:101F90002C4090053EE064017010906245E4F0A38F
:101FA000F053F4F343FE0C5390F3122BECE5C654BC
:101FB000804449F5C6E59E547F644970F890618578
:101FC000740FF090053CE0F47002A3E0604E9005C1
:101FD0003DE0600814601B14602E8040750A017596
:101FE0000B0090053CE0780A121146E50AF4528095
:101FF000802A750A01750B0090053CE0780A1211E1
:1020000046E50AF452908014750A01750B0090059C
:102010003CE0780A121146E50AF452A079007F02EA
:102020000212C874F712121CE9FEEAFF74016E7006
:102030000C7A807B009003A0E0F9122F3A9033488D
:10204000E493F46008E493F9122A3C800953C680B3
:10205000E59E547F70FA122BF290053EE064017009
:1020600003122A5490053CE0F47002A3E0604B9008
:10207000053DE0600814601A14602C803D750A016B
:10208000750B0090053CE0780A121146E50A428083
:102090008028750A01750B0090053CE0780A121142
:1020A00046E50A42908013750A01750B0090053CC5
:1020B000E0780A121146E50A42A0122C40122B9E2B
:1020C0008A0A8B0BA80AA90BE8496015E5E170FCA8
:1020D000E82414F582E93400F583E0F46003E0F5C8
:1020E000E174016F700A7A019003A0E0F9122F8E5B
:1020F00002201E74ED12121C8A0A8B0B8C0C8D0DA3
:1021000074131211A4780E121029780A790E120E87
:10211000287512017513C8751400751500501278D2
:102120000A790E120FC87812790A120E28501680FA
:1021300010780E790A120FC87812790E120E284004
:10214000047901800279007F0C0212C874ED12122A
:102150001C8A0A8B0B8C0C8D0D74131211A4780E33
:10216000121029780E790A120E284011780A790E79
:10217000120FC8AA0AAB0BAC0CAD0D802275120071
:102180007513007514007515017812790E120FC8B9
:102190007812790A120F8FAA12AB13AC14AD158006
:1021A000A68A828B83750AFF750BFF750CFF750D70
:1021B00000780A1210167F040212C874F512121C5D
:1021C0008C828D83780A1210298A828B83780A1276
:1021D0000FDCEA2404F8EB3400F98C828D83A3A38E
:1021E000A3A3E0FCA3E0FD88828983C3E09CF0A365
:1021F000E09DF088828983C3E09420A3E0944E4060
:10220000268A828B83750AFF750BFF750CFF750D8F
:10221000FF780A120FB58A828B83A3A3A3A3E024BD
:1022200020F0A3E0344EF00221A174F512121CE953
:10223000FE9004F6E0FAA3E0FBEEC333F8E433F9D2
:10224000741E28F582748139F583E02AF50AA3E02B
:102250003BF50B780A1213C37A407B427C0F7D005A
:10226000121D7C740212116F8A0A8B0B8C0C8D0D5F
:102270007410780A120F57AA0AAB0B7F040212C817
:1022800074F112121C8A0E8B0F8C108D11740F12A8
:1022900011A4E0FAA3E0FB74111211A4E0F50AA363
:1022A000E0F50B780A1213C3EA2401F50AEB3400B7
:1022B000F50BE4F50CF50D780E790A120E67750A28
:1022C00071750B02780E790A120E67AA0EAB0FAC6D
:1022D00010AD11121D7C740212116F8B0BEA450BAD
:1022E00060047A0180027A00EC2AFCED3400FD746F
:1022F000131211A4E0F8A3E0F9E8FEE9FFECF8ED11
:10230000F97A717B021210CE880A890B8E828F8334
:10231000780A121038ECF8EDF97A717B021210CEBF
:102320008A0A8B0B7405780A1211468E828F83A35A
:10233000A3A3A3E50AF0A3E50BF07F080212C8C02F
:1023400082C083E9906000F0D083D08222C2AF02C5
:10235000000022C0E074F2121308A2AFE433FED2F0
:10236000AFE589A2E0500312316E758900C2C575D0
:102370001C00EEA2E092AF7F01021367C0E0C0D064
:10238000E8C0E0E9C0E0E5A8D2AFC2C7751C00A272
:10239000E7A2E792AFD0E0F9D0E0F8D0D0D0E032B9
:1023A000120DFEB99E07120DFED09E07120DFE0102
:1023B0009F07120DFE3C9F07120DFE669F07120D30
:1023C000FE909F07120DFEA79F07120DFEBE9F07EE
:1023D000120DFED59F07120DFEFE9F07120DFE1176
:1023E000A007120DFE27A007120DFE3AA007120D3E
:1023F000FE61A007120DFEBBB506120DFEBFB606AC
:10240000120DFEF7B606120DFE1AB706120DFE25C6
:10241000B706120DFE48B706120DFE57B806120D8C
:10242000FE2CB906120DFEA7B906120DFE2FBA0634
:10243000120DFE6ABA06120DFEA1BA06120DFE2F8B
:10244000BB06120DFE08BC06120DFE68BC06120D7E
:10245000FE73BC06120DFEF2BC06120DFEF5BC06A4
:10246000120DFEF8BC06120DFE87BD06120DFE8A87
:10247000BD06120DFEBABD06120DFEE4BD06120D1C
:10248000FED2BE06120DFE84BF06120DFE3DE8060A
:10249000120DFE65E806120DFE93E806120DFECA47
:1024A000E806120DFE28E906120DFE73E906120D6C
:1024B000FEBEE906120DFEFEE906120DFE44EA0616
:1024C000120DFE72EA06120DFE2FEB06120DFE39FA
:1024D000EB06120DFE46EB06120DFE79EB06120D11
:1024E000FE45EC06120DFE51EC06120DFE69EC06DF
:1024F000120DFE73EC06120DFE9BA807120DFEA92D
:10250000A807120DFEC1A807120DFED9A807120DCB
:10251000FE43CB05120DFEEFCB05120DFE6ACC0576
:10252000120DFE8BCD05120DFEC7CD05120DFE70EE
:10253000CE05120DFE57CF05120DFEBBD005120DB4
:10254000FE12D105120DFE93D105120DFE83D205A8
:10255000120DFED0D205120DFE56D305120DFE88C7
:10256000D305120DFE9CD505120DFEDED505120D0C
:10257000FEFCD505120DFE7FD605120DFE53D705C4
:10258000120DFE1BD805120DFEB0CF06120DFE83F4
:10259000D006120DFE2CD106120DFE7FD106120DB3
:1025A000FE2FD206120DFEBBD206120DFEA7D306D9
:1025B000120DFED6D306120DFEE9D406120DFE3121
:1025C000D506120DFE06D606120DFE42D606120DD7
:1025D000FE5ED606120DFE79FF04120DFE9D8707E2
:1025E000120DFEB38707120DFED98707120DFEF5F7
:1025F0008807120DFEFF8807120DFE348A07120DA0
:10260000FE2C8B07120DFE16E306120DFE46E406A5
:10261000120DFE79E406120DFEC3E406120DFE8AC9
:10262000E606120DFEF2AB05120DFE5CAC05120DB6
:10263000FEBBAD05120DFECBAD05120DFEF8AD05CE
:10264000120DFE4FAE05120DFEF8AE05120DFEFF87
:10265000AF05120DFEC9B005120DFE29B205120D0F
:10266000FE6CB205120DFE11B305120DFE5EB30530
:10267000120DFE84B305120DFE92B505120DFE97E4
:10268000B505120DFE9CB705120DFEE9B705120D3A
:10269000FE5CB805120DFE8FB805120DFE31B905AE
:1026A000120DFEDAB905120DFE12BA05120DFE1555
:1026B000BA05120DFE5DBA05120DFE9DBA05120D8A
:1026C000FEF4BA05120DFE2F8E07120DFE478E077F
:1026D000120DFE8F8E07120DFEA58E07120DFEEC59
:1026E0008E07120DFE009007120DFE8D9007120D41
:1026F000FED89007120DFE00B004120DFE0CB004BF
:10270000120DFE47B004120DFE8CB004120DFE4CEB
:10271000B104120DFED2B104120DFE37B204120D37
:10272000FE63B204120DFE9CB204120DFEDAB40474
:10273000120DFEBEB604120DFEA4B804120DFEE783
:10274000B904120DFE35BC04120DFE47BD04120D76
:10275000FE92BE04120DFEA2BF04120DFEBFBF0406
:10276000120DFEFABF04120DFE1CC004120DFE7FF6
:10277000C004120DFE40C504120DFED5C504120D95
:10278000FE26C604120DFE4DC604120DFE9FC604A1
:10279000120DFEBDC604120DFE17C704120DFE0079
:1027A000C804120DFE76C904120DFEFAC904120DFA
:1027B000FEFAEC06120DFE04ED06120DFE47ED06C4
:1027C000120DFE62ED06120DFEF2ED06120DFE1A5E
:1027D000EE06120DFE57EE06120DFE8EEE06120DDF
:1027E000FEB7EE06120DFE2CEF06120DFE41EF06AF
:1027F000120DFE56EF06120DFE87EF06120DFE9B20
:10280000EF06120DFEC0EF06120DFEFAEF06120DD6
:10281000FE26F006120DFE5EF006120DFEDDF0063D
:10282000120DFE26F106120DFE50F106120DFE7B72
:10283000F106120DFEBAA307120DFEE8A806120D4E
:10284000FE16A906120DFE64AA06120DFE44AB0682
:10285000120DFE63AB06120DFEE0AB06120DFE2359
:10286000AC06120DFE79AD06120DFE3AAE06120D43
:10287000FEC1B006120DFE62B106120DFE58B20680
:10288000120DFE55B306120DFEAFB406120DFE3A40
:10289000B506120DFE7A3E00120DFEE33E00120D4B
:1028A000FE373F00120DFE5E3F00120DFE8F3F000F
:1028B000120DFE30F606120DFE9DF606120DFEE418
:1028C000F606120DFEFCF706120DFEF8F806120DC4
:1028D000FEDBF906120DFECFF605120DFE11F7050F
:1028E000120DFEE3F705120DFEBCF805120DFEB643
:1028F000F905120DFE98FA05120DFE01FB05120DE9
:10290000FEB7FB05120DFE2BFC05120DFE97FC0514
:10291000120DFEC0FC05120DFE3AFD05120DFED390
:10292000FD05120DFE38FE05120DFE4DFE05120DC1
:10293000FE93FE05120DFEACFE05120DFE11FF0505
:10294000120DFE14FF05120DFE368B07120DFE5EF2
:102950008B07120DFE9C8B07120DFE5A8C07120D71
:10296000FEC18C07120DFEDD8C07120DFE058D07D2
:10297000120DFE358D07120DFE448D07120DFEC19E
:102980008D07120DFEE78D07120DFEE1BB05120D3E
:10299000FEBFBD05120DFEF1BF05120DFE2DC005D7
:1029A000120DFE5AC005120DFE44C105120DFE8F18
:1029B000C105120DFEDAC105120DFEECC105120DA6
:1029C000FE2CC205120DFE61C205120DFEAFC2053E
:1029D000120DFEDEC205120DFE01C305120DFE4EE4
:1029E000C305120DFED3C305120DFEEDC505120D74
:1029F000FE2CC805120DFE6DC805120DFE0FCA058E
:102A0000120DFE50CA05120DFEC3CA05120DFE19A5
:102A1000CB05120DFED39B06120DFED19C06120DA6
:102A2000FE6AA306120DFE8BA506120DFE56A70622
:102A3000120DFEBEA806120DFE61CA04120DFE1094
:102A4000CB04120DFE3DCB04120DFE83CB04120D00
:102A5000FEC3CC04120DFE59CE04120DFED3CE04DB
:102A6000120DFEEECE04120DFE69CF04120DFEC350
:102A7000D004120DFE23D204120DFE29D304120D30
:102A8000FE8AD404120DFEA3D404120DFE01D50457
:102A9000120DFEEFD504120DFE22D604120DFE9289
:102AA000D604120DFE0CD704120DFE56D704120DDB
:102AB000FE20D804120DFEF5D804120DFED4D90460
:102AC000120DFE5FDA04120DFECDDA04120DFE4186
:102AD000DB04120DFE6CDB04120DFE2BDC04120D68
:102AE000FE90DD04120DFEADDD04120DFECCDD0402
:102AF000120DFEBDDE04120DFEE2DE04120DFE0C10
:102B0000DF04120DFE87DF04120DFEE1DF04120D5B
:102B1000FE4AE104120DFEF8E104120DFE39E20452
:102B2000120DFEFF8D06120DFE4D8E06120DFE5982
:102B30008E06120DFE378F06120DFE688F06120DDF
:102B4000FE998F06120DFE199006120DFE51900689
:102B5000120DFEA39006120DFEE09006120DFEFD72
:102B60009206120DFE239506120DFE0E9706120D0B
:102B7000FEF89806120DFEF33F00120DFEDF9705DA
:102B8000120DFE0F9805120DFEE89E05120DFE6D4A
:102B9000A005120DFE6AA605120DFE52A705120D24
:102BA000FE8FA705120DFEB2A705120DFEE3A705C5
:102BB000120DFEECA705120DFEF6A705120DFEE4A0
:102BC000A805120DFEDAA905120DFED08205120D20
:102BD000FECF8605120DFED58605120DFE108E0560
:102BE000120DFE299305120DFECF8307120DFE650F
:102BF0008407120DFE7B8407120DFEF18407120D6F
:102C0000FE658507120DFEA38507120DFE178607C8
:102C1000120DFE908607120DFE998607120DFEA575
:102C20008607120DFEBA8607120DFEF88607120DF2
:102C3000FE0E8707120DFE6D8707120DFE9DFA0628
:102C4000120DFEAAFA06120DFEC4FA06120DFE03BC
:102C5000FB06120DFE41FB06120DFEA6FB06120D31
:102C6000FEBBFB06120DFEC6FB06120DFED3FB06D5
:102C7000120DFEEAFB06120DFEF8FB06120DFE0316
:102C8000FC06120DFE0FFC06120DFE1EFC06120DB8
:102C9000FE29FC06120DFE4CFC06120DFEF3FC068E
:102CA000120DFE03FD06120DFE1DFD06120DFE3A6D
:102CB000FD06120DFE56FD06120DFE7BFD06120DE1
:102CC000FE86FD06120DFE9BFD06120DFEAFFD06F3
:102CD000120DFE10FE06120DFE16FE06120DFE1C53
:102CE000FE06120DFE22FE06120DFE3AFE06120D23
:102CF000FE6DFE06120DFEA5E805120DFE29E90582
:102D0000120DFED8E905120DFE37EB05120DFE5827
:102D1000ED05120DFE44EE05120DFE79EE05120DC5
:102D2000FE9BEE05120DFE4AEF05120DFE42F10567
:102D3000120DFE6BF105120DFEFDF105120DFE2FB9
:102D4000F205120DFE3CF205120DFE93F205120D76
:102D5000FEB9F205120DFE26F505120DFE29F60547
:102D6000120DFE81F605120DFE34DA05120DFE3E3F
:102D7000DB05120DFE25DC05120DFE2FDC05120D04
:102D8000FE51DC05120DFE5DDC05120DFEF6DD05C3
:102D9000120DFE25DE05120DFE41DF05120DFE9A15
:102DA000DF05120DFE00E105120DFEDFE105120D3B
:102DB000FE3BE205120DFEA8E205120DFEE3E20560
:102DC000120DFE22E305120DFEDBE505120DFEF5E8
:102DD000E505120DFE81E605120DFE8FE605120DCA
:102DE000FEE8E605120DFEF6E605120DFE69E705A2
:102DF000120DFECDE705120DFE17E805120DFE4C73
:102E00003300120DFE6E3300120DFE943500120DCC
:102E1000FEA93800120DFEC13900120DFE743A00F1
:102E2000120DFE563B00120DFE73A007120DFE9808
:102E3000A007120DFE0AA107120DFEFFF704120DE6
:102E4000FE08F804120DFE11F804120DFEE8F80455
:102E5000120DFE99FA04120DFECFFA04120DFE09AE
:102E6000FB04120DFE3FFB04120DFE79FB04120D54
:102E7000FEADFB04120DFED9FB04120DFE22FC0474
:102E8000120DFE5CFC04120DFEA5FC04120DFEFDED
:102E9000FC04120DFE32FD04120DFE8DFD04120D18
:102EA000FEC7FD04120DFE18FE04120DFE4EFE04B8
:102EB000120DFE88FE04120DFEB6FE04120DFED9A0
:102EC000FE04120DFE3EAA07120DFE6AAA07120D9D
:102ED000FEC5AA07120DFECFAA07120DFEDFAA0734
:102EE000120DFE90DD06120DFE9ADD06120DFED8C3
:102EF000DD06120DFE21DE06120DFE5BDE06120D52
:102F0000FEB5DE06120DFED6DE06120DFEDFDE0673
:102F1000120DFE2CDF06120DFE55DF06120DFE5FB0
:102F2000DF06120DFECBDF06120DFE5DE006120D70
:102F3000FEA7E006120DFEDDE006120DFE69E106B9
:102F4000120DFEAAE106120DFEE1E106120DFEF3DE
:102F5000E106120DFE12E206120DFE1BE206120D34
:102F6000FEE8E206120DFED3A507120DFEC89C076F
:102F7000120DFEFE9C07120DFE349D07120DFE7F02
:102F80009E07120DFE85AB07120DFE9BAB07120DBF
:102F9000FEA5AB07120DFEEFAB07120DFE1DAC0731
:102FA000120DFEA3F106120DFEB8F106120DFE6819
:102FB000F206120DFEA8F206120DFEC1F206120D67
:102FC000FEFCF206120DFE49F306120DFE7BF3061F
:102FD000120DFEBDF306120DFEBEF506120DFECA61
:102FE000A607120DFEF3A607120DFE22A707120D6B
:102FF000FE3AA707120DFE7CA707120DFECE93071F
:10300000120DFEDC9307120DFE4D9407120DFE11FA
:103010009607120DFEB99A07120DFEE99A07120DD6
:10302000FE599B07120DFEF99B07120DFE02910738
:10303000120DFE279107120DFE519107120DFE325F
:10304000AD07120DFE69E204120DFECEE404120D6E
:10305000FE6FE604120DFE23E704120DFEB6E70430
:10306000120DFE3BE804120DFE60E804120DFEB6E0
:10307000EB04120DFE3CEC04120DFE6FED04120D7C
:10308000FEA9ED04120DFEDEED04120DFE9EEF040E
:10309000120DFEFBEF04120DFE44F004120DFEAF04
:1030A000F004120DFE20F104120DFE52F104120D77
:1030B000FE6AF104120DFEB3F204120DFEC3F20417
:1030C000120DFEDEF304120DFE00F404120DFE36A6
:1030D000F404120DFEEAF504120DFE77F604120D4B
:1030E000FEB6F604120DFEDAF704120DFE38FF05E7
:1030F000120DFE49FF05120DFEEEFF05120DFE88B2
:10310000AD07120DFEC7AD07120DFEFDAD07120D86
:10311000FE08AE07120DFEEEFF06120DFEC1A70758
:10312000120DFED1A707120DFEE3A707120DFE95A3
:10313000A807120DFEEAFE06120DFE6FFF06120D25
:10314000FED5FF06120DFE72A907120DFEA6A907F5
:10315000120DFECFA907120DFED3A407120DFEF427
:10316000A407120DFE48A507120DFE52A507120D69
:10317000FE9CA507120DFEC7A507120DFECAA507E6
:10318000120DFE14AE07120DFE24AE07120DFE271F
:10319000AE07120DFE7CAC07120DFE8BAC07120DB4
:1031A000FEF83F00120DFE749807120DFE0F9A07ED
:1031B000120DFE709A07120DFEB69A07120DFE2A26
:1031C000AE07120DFE2FAE07120DFE36AE07120D22
:1031D000FE38AE07120DFED3D606120DFE10D7062E
:1031E000120DFE2BD706120DFEFCD706120DFEEABD
:1031F000D806120DFE52DA06120DFEC4DA06120DC2
:10320000FEACDB06120DFE33DC06120DFE4CDD06B5
:10321000120DFE18A207120DFE6AA207120DFEF48F
:10322000A207120DFE5BA307120DFE2F9607120DCB
:10323000FE599607120DFE279707120DFE029807FA
:10324000120DFEF5BF06120DFEBCC006120DFEF3F8
:10325000C006120DFE1DC106120DFE7DC106120D27
:10326000FED3C106120DFE38C206120DFED0C206F4
:10327000120DFEDFC306120DFE76C506120DFE030B
:10328000C606120DFE6AC606120DFE81C606120D96
:10329000FE9BC706120DFED9C706120DFEE9AA074E
:1032A000120DFE19AB07120DFE1EAB07120DFE002C
:1032B0008006120DFE818306120DFE098506120D91
:1032C000FE608506120DFE7F8506120DFEFD850649
:1032D000120DFE938706120DFE788806120DFE86EB
:1032E0008C06120DFE5C8D06120DFE37C806120DFF
:1032F000FEFCCA06120DFE17CB06120DFE33CE06DB
:10330000120DFEA2CE06120DFE47CF06120DFE00D4
:103310008007120DFE458007120DFE628007120D18
:10332000FE278107120DFE908107120DFE5D8207B8
:10333000120DFE968307120DFED1AD07120DFED5BC
:103340003F00FFFFFFFFFFFFFFFFFFFFC082C083C3
:10335000900280E0A2E250067A937B0A80047A0011
:103360007B00122D727900D083D082020DFB74F2A3
:103370001211B074E01211598A0A8B0BECFEEDFFAA
:103380007C107D007900851A82851B83AA82AB831D
:10339000122EFE742E1211A4E0F50CA3E0F50D9090
:1033A00007321238A1700302347712388D650A7023
:1033B00004A3E0650B60030234779007331238866C
:1033C0006003023477123892F8740668704B7410F8
:1033D0001211A485820E85830F780E1213C39007F5
:1033E00032E0244BF50EA3E03400F50F780E1213F3
:1033F000C312357B122D30740412116FE9707812EC
:103400002DF0E9F50C750D00780C1213C37412122F
:1034100011A4AC82AD830234EB900732E0F9A3E053
:10342000C9245BF582E9123E59604C123B1D123EE5
:1034300013741168600302350FE0650C7004A3E09B
:10344000650D702E750E08750F00780E1213C312DD
:103450003561122EF8740212116FE96401701312B3
:103460002DF0E9F50C750D00780C1213C312356EB2
:1034700080797932122DEAAA0AAB0B12295E8A0EE4
:103480008B0FA80EA90FE849700302354EE82421DE
:10349000F50EE93400F50F850E82123E5B700302D3
:1034A000354E123B1D123866650C7004A3E0650DA5
:1034B000600302354E750C08750D00780C1213C3AD
:1034C000123561122EF8740212116FE96401707ED8
:1034D000850E82850F83E0FCA3E0FDEC241AF582C3
:1034E000ED123866F50C780C1213C374021211A495
:1034F000AA82AB83122EE6740212116FAA0AAB0BDA
:10350000851A82851B83AC82AD831228088046E031
:10351000650C7004A3E0650D6003023477750E0836
:10352000750F00780E1213C3123561122EF8740253
:1035300012116FE96401600302347712356EEC24D6
:103540001AF582ED123866F50C750D008098AA0AFE
:10355000AB0B12280E7901742012116F7F06021234
:1035600082EA2412FCEB3400FDEEFAEFFB22123962
:10357000B8245B123B33FCA3E0FD22900732E02429
:103580002BFCA3E03400FD900732E02407FAA3E00F
:103590003400FB2274F21211B0890FECFEEDFF75BE
:1035A0000E008A828B83A385820C85830D8E828F89
:1035B00083A385820A85830B9007321238A1705F3E
:1035C0007401650F7054EE2402FAEF3400FB122DE3
:1035D0003C8E828F83A3A3A3A3A374021213DE8E57
:1035E000828F83A3A3A3A3E0F50E780E1213C7E97D
:1035F000F50E780E1213C7850A82850B83E0FD8EC7
:10360000828F83E0FC850C82850D83E0FAA3E0FBCA
:103610007900122574740412116F79000238601257
:10362000388DF8A3E0F9850C82850D83E06870037E
:10363000A3E069600579080238601238806401707F
:10364000057907023860E50F14603124FE603714F5
:1036500070030236EA147003023855147003023600
:10366000F3147003023754147003023761147003AB
:103670000237AB1470030237E802374EEEFAEFFB65
:10368000122E0E02375B750A00750C10750D00784E
:103690000C1213C3900732E0243B123A58122EE664
:1036A000740212116F900732E0240112386AE0644C
:1036B0000470047403802C900732E0241BF50CA3E3
:1036C000E03400F50D780C1213C312357B122D9CDB
:1036D000740212116F122DB4E96003750A08123AD0
:1036E0005F7405F0850A0E02385EEEFAEFFB122ECB
:1036F000148068123892640C7054900733E0C82428
:103700005D12389A700F7A1B7B00122F7612387573
:10371000245D123E18123E516034750A10750B007C
:10372000780A1213C3EEFCEFFD122EE6740212119A
:103730006F122DF012399C245D123E1012399F2415
:103740001A123E10E9F0123A5F740D0237E5750E59
:103750000702385EEEFAEFFB122E1AE9F50E023878
:103760005E123892640E70E6900733E0C8245F1250
:10377000389A700F7A167B00122F76123875245FF4
:10378000123E1812399C245F123E566017750A10BB
:10379000750B00780A1213C3EEFCEFFD122EE674CF
:1037A0000212116F123A5F740F803A123892640F4E
:1037B000709C750C06750D00780C1213C3AC0AAD25
:1037C0000B12399C245F1238632410123A58122EBF
:1037D000E6740212116F123B2454206074123B3CB9
:1037E000606F123E3BF08076900733E0C824611290
:1037F000389A70237A147B00122F76900732E024D7
:103800006112386AEAF0A3EBF0888289831238A14A
:103810007005750E08804712399C2461123E56606F
:1038200030750A10750B00780A1213C3EEFCEFFD19
:10383000122EE6740212116F12399C2461123E108E
:1038400012399F2410123E1074FFF0A3F0A3F0A3CE
:10385000F0790080068E828F83E0F9122DEAA90E9E
:1038600002355CF582E8123B3622F8A3E03400F919
:1038700088828983228A0A900732E0FAA3E0CA226A
:10388000900732E0F8A3E0F5838882E022123E4BF5
:10389000E022900733123A6DE022F582E83400F519
:1038A00083E0F8A3E0F9E8492274F61211B07E0033
:1038B000122DC0E9F86003023976122DAE9007325E
:1038C000E0F8A3123E41C82412123863A2E0501D52
:1038D00012399C2418123E10123989E054036401F5
:1038E000700B12399C2417123863D2E0F01239A3FE
:1038F000F8740268601D74036860057404687017CA
:103900007901123E6D12257A1239AC123A5F7404B5
:10391000F0806F790280EB7401686005740568704F
:1039200061123A5F7402F01239A3640170147C10C2
:103930007D007900900732E02407123A58122EFEDB
:103940008024750A108E0B780A1213C39007321266
:103950003989A3A3A3E02402123581122EE6740252
:1039600012116F1239AC7910900732E0242B123A01
:1039700058122D36800C74186870050E0E0E8002D9
:103980007E08EEF97F0202128212398D22123991DD
:1039900022E0F8A3E0F5838882A3A32290073212E5
:1039A00039BB221239B8241A123B33221239B824F7
:1039B00017123B33D2E2F022900732E0F8A3E0C8BE
:1039C0002274F61211B074F01211597E00750A10AB
:1039D0008E0B780A1213C3EAFCEBFD900732E02449
:1039E0004B123A58122EE6740212116F851A828514
:1039F0001B8385820A85830B780A1213C3900732D2
:103A0000E0244B123581122D9C740212116F750A3D
:103A1000108E0B780A1213C3900732E0243BFCA3EC
:103A2000E03400FD74021211A4AA82AB83122EF8B6
:103A3000740212116FE964017012122DBAE9600468
:103A40007E08800A123A5F7406F080027E04EEF966
:103A5000741012116F023984FAA3E03400FB2212B1
:103A60003A6322900732E0F8A3123A6D22E0F58320
:103A70008882A32274F61211B0EAFCEBFD123E51CB
:103A80007003023B18123E30640D6003023B188C39
:103A9000828D83E0F8A3E0F9123B1D123E13E8F09B
:103AA000A3E9F0750A08750B00780A1213C3EC2419
:103AB00002FCED3400FDEA2412FAEB3400FB122E76
:103AC000E6740212116F123B24F8900732E02401D1
:103AD000123A58E854106024900732E0FCA3E0CC7E
:103AE0002418F582EC123E13123E26A3A3A3A3E0F2
:103AF000541060088A828B83740E8010E854206012
:103B00000E123B3C60098A828B837410F080057929
:103B100000122DEA790080027907023984EA241024
:103B2000F582EB22900732123B4F1239BB2413125D
:103B30003B3322F582E83400F583E0221239B824C1
:103B400018F582E83400F583123B4FE0542022122E
:103B50003991A3A3A32274F01211B012388060032C
:103B6000023E0B900733123E41F91238772418F5C4
:103B700082EA123866FAA3E0FB900732123E26E092
:103B8000F50CEA2405FEEB3400FFE82413F50EE9FA
:103B90003400F50F7406650C7067850E82850F83FF
:103BA000E0F8A2E0500E8E828F83E0A2E05005750F
:103BB0000C078067E8540260178E828F83E05402FE
:103BC000600E750C091224EA123E65122DD2802077
:103BD000E854047003023D418E828F83E0540470E8
:103BE00003023D41750C0B1224C6123E65122DDEF8
:103BF0007407650C6003023CF2123A5F7408023DE0
:103C00008AE50C24F96014147003023C961460B524
:103C1000147003023CC41460CE80D5123E351238B5
:103C20009A700F7A1B7B00122F76123875245B1264
:103C30003E18123E35123863F50AA3E0F50BE50A8B
:103C4000450B60AC7C107D007900AA0AAB0B122EEC
:103C5000FE122DF0AA0AAB0B122D36122F04E50A24
:103C60002410F582E50B123E13EAF0A3EBF079087D
:103C7000E50A2412FAE50B3400FB122D36122DF062
:103C8000E50A241AF582E50B123E13E9F0123E69AB
:103C9000122DC6023BF0123E35123E56605AEA24FF
:103CA00012F50AEB3400F50B780A1213C3123B1D10
:103CB000123866FCA3E0FD123E6D122DCC74021288
:103CC000116F8034750B011224DEE9F50A74016569
:103CD0000A7005750B008003750A00A90B1224E415
:103CE0008A0C8B0DAC0CAD0DA90A123E6D122DD8AD
:103CF00080347408650C701B850E82850F83E05438
:103D00000260238E828F83E05402601A123A5F743D
:103D10000980777409650C7007123A5F740A806A2B
:103D2000740A650C701B850E82850F83E054046055
:103D3000108E828F83E054046007123A5F740B8008
:103D400049850E82850F83E0F8540860108E828FBB
:103D500083E054086007123A5F740C802DE8541019
:103D600060108E828F83E054106007123A5F740EE9
:103D70008018E85420600E8E828F83E05420600506
:103D8000123E3B8005123A5F7412F0123E30F87416
:103D900007686014740868600F740968600A740A20
:103DA000686005740B687063123E6D12295E8A0AA2
:103DB0008B0BA80AA90BE849602FE8240BF582E9D0
:103DC000123866F8A3E0F9880E890FE4F510F511B2
:103DD000E9C313F9E813F8880A890BE4F50CF50D2B
:103DE000780E790A120F8F800C750EF4750F01751D
:103DF0001000751100780E1213BF7A027B00900735
:103E000038E0F9122FB8740412116F7F0802128281
:103E1000F582E83400F58322F582EA3400F583E583
:103E20000AF0A3EBF022E0FCA3E0F5838C82A3224E
:103E3000123A63E0221239B8245B22123A637410FA
:103E400022123E4BA3A3E0F8A3E022123A6DA3A3F3
:103E5000221239B8245DF582E83400F583E0FAA334
:103E6000E0FBEA4B228A0A8B0BAC0AAD0B900732BF
:103E700012398DA3E0FAA3E0FB22C082C083E9FDE2
:103E800074076A7001EB601874056A7001EB6010CA
:103E900074046A7001EB600874066A7001EB703A92
:103EA000EAF8EBF9E875F003A4F8ACF075F003E973
:103EB000A42CF9742E28F8740339F9E824F4F58257
:103EC000E934FFF583EAF0A3EBF0E824F6F582E9A4
:103ED00034FFF583EDF0790080027902D083D0823F
:103EE000020DFB74F61211B0EAFEEBFF8C0A8D0B8B
:103EF0008C828D83E0F8A3E0F97407687001E960B3
:103F00001C7405687001E960147404687001E9604C
:103F10000C7406687001E960047902801779011257
:103F2000296AE970047914800BAC0AAD0BEEFAEF44
:103F3000FB1228E6023F8A74F61211B0E9FE750AF8
:103F4000F2750B28780A1213C38C0A8D0B780A12AB
:103F500013C3EEFC7901023F821228DA802774F63F
:103F60001211B0E9F50A780A1213C7750A03780A24
:103F70001213C7750AFE750B28780A1213C379123B
:103F800080D71228E0740412116F7F02021282C0DF
:103F900082C08374FC12115974021211A4EAF0A3B6
:103FA000EBF0851A82851B83ECF0A3EDF090032CD7
:103FB000E064017018851A82851B83AC82AD83741E
:103FC000021211A4AA82AB8379011227C0740412D1
:103FD000116F023EDCC082C0838A828B838001A382
:103FE000E070FCE582C39AFAE5839BFBD083D08224
:103FF000020DFB020DFBFFFF851C87C2AF020DFB0C
:020000040002F8
:10300000C082C083E9900A57F002B28F74F71211A0
:10301000B0E99002E0F07C187D037AFF7BFF122775
:10302000849002E174FFF0A3F0A3E4F0A3F079052B
:1030300012270C9002E0E0F912262E7AA27B2712CA
:10304000294C7F0102128274F41211B08A0A8B0B90
:10305000EB548060309002E0E0F9122F228A0C8B52
:103060000DAE0CAF0DEE4F60138E828F83E064B017
:103070007003122724EEFAEFFB122F10AA0AE50BB9
:103080006480FB80047A007B0002B25E74F212114D
:10309000B074FC121159EAFEEBFFEE4F6038740277
:1030A0001211A4EEF0A3EF12B4C3ECF0A3ED12B42E
:1030B000C3AA82AB83122628E9F50A707374121230
:1030C00011A412C077E50C450D60658E828F8312C6
:1030D000B13AEE4F7005750A0280557A067B0012F0
:1030E0002F768A0E8B0FA80EA90FE8497005750A76
:1030F00013803D88828983E412B144A3A3EEF0A338
:10310000EF12C510E50CF0A3E50DF09002E612B148
:10311000CC9002E66017E0FCA3E08003EAFCEBFD44
:103120008C828D8312B1CC70F38C828D8312BF9C04
:10313000A90A740412116F02C712A3A3A3A3E0FE8D
:10314000A3E0FF22F0A3F0888289832274F2121197
:10315000B0890CE975F017A4FEAFF09002E5E4F039
:103160009002E312B1CC600A122F7C9002E3E4F0EB
:10317000A3F0EEFAEFFB122F768A0A8B0BEA450BCF
:10318000602FEEFCEFFD7900122EFE9002E3E50ABF
:10319000F0A3E50BF07B00800812B1B6E4F0A3F0D9
:1031A0000BEBC3950C40F2E50C9002E5F079008042
:1031B00002791302C712EB75F017A4F8A9F0900278
:1031C000E3E028FAA3E0398A82F5832212BD32EACD
:1031D0004B2274F41211B0750A00750B00740C12B6
:1031E00011A412C4E4FEE9FF800CE50A2401F50AEB
:1031F000E50B3400F50BC3E50A9CE50B9D503285C9
:103200000A0C850B0D7403780C121146EA250CF894
:10321000EB350DF988828983A3A3A3A3A3A312C0CE
:1032200077EE650C7003EF650D70BFE8FAE9FB807F
:10323000047A007B00802774F41211B07900EAA2AE
:10324000E0501B750AFC750B81780A1213C37C04CD
:103250007D007A597B0A122706740212116F7F04CF
:10326000021282C082C0839002E612B296601C886D
:10327000828983A3A3E06A7003A3E06B88828983B9
:1032800070E8A3A3A3A312BD2E80047A007B00D014
:1032900083D082020DFB12C7E5E8492274EE1211B9
:1032A000B074FC121159EAFEEBFF851A82851B836C
:1032B000E4F0A3F0EE240212BF80EE240512B4B1B4
:1032C000EE2404F510EF12B896E024FE603924FCD9
:1032D000604624FE605224FE605E24FE700302B34A
:1032E000B624FE700302B42E24FE700302B43D2403
:1032F000FE700302B44C24FC700302B45B24FE7025
:103300000302B46A02B4A79002FF7417F0A3E41298
:10331000B4CB1223A602B4A7851A82851B83AC8284
:10332000AD8312272A02B477851A82851B83AC826B
:10333000AD8312273002B477850E0A850F0B740215
:103340001211A4AC82AD83850A82850B8312BD2E37
:1033500012264C8A0E8B0FAC0EAD0FEC4D6042E482
:10336000F50EF50F780E1213C3750EFF750F027868
:103370000E1213C3750E00750F03780E1213C3746B
:10338000081211A41213DA791612BD2812276C74D0
:103390000812116FE9F50E700B12BD241223BE80C6
:1033A0000F750E01850A82850B8312B4B912BF9C7A
:1033B000850E0A02B47A74021211A4AC82AD838520
:1033C0000E82850F8312BD2E12264C8A128B13ACEF
:1033D00012AD13EC4D6043850E82850F83A3A312BB
:1033E00013DA7512FF75130278121213C3751200E7
:1033F00075130378121213C374081211A41213DA8E
:10340000791612BD2812276C740812116FE9F50B9A
:10341000700B12BD241223C4800F750B01850E8220
:10342000850F8312B4B912BF9C850B0A804C851A94
:1034300082851B83AC82AD83122736803A851A823F
:10344000851B83AC82AD8312273C802B851A828535
:103450001B83AC82AD83122742801C851A82851B98
:1034600083AC82AD83122748800D851A82851B8329
:10347000AC82AD8312274EE9F50AE50A60298E82F7
:103480008F83A3E06414601F851082851183E09010
:1034900002FF12B4C312C7E190030012BF9CE50AF9
:1034A000A312B4CB1223A0EEFAEFFB1226CA02BE7F
:1034B00088F50EEF3400F50F2212C7E5851A8285D4
:1034C0001B8322F0851A82851B8322F07CFF7D02FC
:1034D000850C82850D8312BD322274EE1211B074F8
:1034E000FC1211598A0C8B0D8C108D11EA2405F5F4
:1034F0000AEB3400F50B7C157D0079007AFF7B0226
:10350000122EFEE50A2402F50EE50B12B4B4851A5C
:1035100082851B8385821285831378121213C385DB
:103520000A82850B83A3A3A3A312B9DE1213C3E5FA
:103530000A2405F512E50B3400F51378121213C3B3
:10354000850E82850F8312BD38122646740612112D
:103550006F8A128B13AE12AF13E50C2402F50CE543
:103560000D12BF83EE4F700302B6A08017740212D3
:1035700011A412BD2E88828983EAF0A3EBF0900299
:10358000FFE004F09002FFE0C39405400302B6A000
:10359000E4F512F51378121213C37512E8751302CD
:1035A00078121213C37512E975130278121213C33D
:1035B00074061211A41213DA7910EEFCEFFD12BD9D
:1035C0002812276C740812116FE9705E850A8285D3
:1035D0000B83A3A3A3A3A3A3A3E0F89002E8E0684E
:1035E000704812B9DE1213C37CE97D02E50A240893
:1035F000FAE50B3400FB122EF8740212116FE96029
:10360000298E828F83A3A3A3A312BD2E9002FFE075
:10361000F5127402781212114674002512F58274A4
:10362000033513F583EAF0A3EBF074021211A485BD
:10363000821285831378121213C374021211A4121A
:1036400013DA850E82850F8312C7F6122652740490
:1036500012116F8A128B13AE12AF139002FFE0F5B6
:10366000127513007402781212114674FF2512F8B5
:1036700074023513F988828983A312B1CC700302D6
:10368000B564E82403F8E93400F9EE4F600302B5AD
:103690006D8882898374FFF0A3F09002FFE004F04C
:1036A0009002FFE0600A12BD241223B27900800B61
:1036B000850A82850B8312BF93790A02BE8874EA59
:1036C0001211B074FE1211598C148D15EA2405F5EF
:1036D0000EEB12C96012B13E750A00750B00EA24A8
:1036E00002F512EB3400F513851A82851B8385825F
:1036F0000C85830D780C1213C3850E82850F83A36E
:10370000A3A3A312B8A01213C3E50E2405F50CE57C
:103710000F12BF83780C1213C3850E82850F83129C
:10372000C7F4122646740612116F8A0C8B0DEA45F7
:103730000D700302B851EA2404F510EB12B896128A
:10374000B13E8A828B83A3A3A3E0F98512828513FD
:103750008312BD2E122634E9F50B600302B851E442
:10376000F516F51778161213C37516E87517027853
:10377000161213C37516E975170278161213C3745F
:10378000061211A41213DA7913AC0CAD0D85128256
:1037900085138312BD2E12276C740812116FE9F580
:1037A0000B600302B8519002E8E0F8E50A7009E006
:1037B0002402900300F08017900300E0FCE824024C
:1037C000FAE43400FBEA6C7001EB600302B8558543
:1037D0000A82AA8212B9D5941412B9CD50738510F9
:1037E00082851183E0C0E074012A12B88DD0E0F028
:1037F000050A851082851183A3E0C0E0850A0C7458
:1038000001250C12B88DD0E0F0050A9002E812B83C
:10381000A01213C37CE97D02850A0C7401250CFA01
:1038200074033400FB122EE6740212116F9002E84A
:10383000E0250AF50A74FF6E700374FF6F6012EEE4
:1038400024010EEF3400FFE50AC39414500302B6BE
:10385000E8E50A601312BC1985128285138312BD34
:103860002E1223B879008014E50B7003750B0A85BE
:103870001482851583EEF0A3EFF0A90B74021211E8
:103880006F7F0E021282850A0E7401250EF5827476
:10389000033400F583223400F511851082F583226C
:1038A00012C5232274EE1211B074FE1211598C103D
:1038B0008D11EA2405F50EEB12B4B4750D009002DB
:1038C000FFE4F0F50CEA2402F50AEB3400F50B8076
:1038D000499002FFE0FA9002E8E0F812B9D5941797
:1038E00012B9CD400D9002FFE0F87416C398900213
:1038F000E8F012B9DE1213C37CE97D0274002AFAE3
:1039000074033400FB122EE6740212116F9002E869
:10391000E0F89002FFE028F0050CE50E2416F58291
:10392000E50F12B891E0F8E50CC398400302B9B670
:103930009002FFE0C39416507DE50CC333F8E433E6
:10394000F9E50E28FEE50F39FF851A82851B83AC49
:1039500082AD838E828F8312BD2E12264C8A128BEB
:1039600013AC12AD13EC4D7005750D018043E4F5F9
:1039700012F51378121213C37512E8751302781238
:103980001213C37512E975130278121213C3740669
:103990001211A41213DA7916850A82850B8312BDDF
:1039A0002E12276C740812116FE9F50D700302B81E
:1039B000D112BF8F80107CFF7D02850A82850B8328
:1039C00012BD2E1223CAA90D740202BE8AE9940008
:1039D000C365D03322EA28F8E43400F9E822E0F5A0
:1039E0001275130078122274EA1211B074FC1211CD
:1039F000598A0E8B0F8C148D15EA2405F50CEB12E9
:103A0000BF83750A00750B00E50C2402F512E50D65
:103A10003400F51374021211A48582108583117885
:103A2000101213C3850C82850D83A3A3A3A312C414
:103A3000CF1213C3E50C2405F510E50D3400F51184
:103A400078101213C385128285138312BF8912BDA9
:103A500028122646740612116F8A108B11AE10AF11
:103A600011E50E2402F510E50F3400F511804088B1
:103A700082898374FFF0050A12B88674FFF0050A84
:103A80009002E8E0F50E750F00780E1213C37CE982
:103A90007D02850A0E7401250EFA74033400FB12B0
:103AA0002EE6740212116F9002E8E0250AF50AEE84
:103AB0004F60718E828F83A3A3A3E0F98510828566
:103AC000118312BD2E122634E9F50BEE240412B434
:103AD000B1E97044E4F516F51778161213C375169C
:103AE000E875170278161213C37516E97517027870
:103AF000161213C374081211A41213DA7911EEFC12
:103B0000EFFD85108285118312BD2E12276C74087B
:103B100012116FE9F50B6027850E82850F8312BCA9
:103B20000F12BF9CE50A700302BBF512BC19851089
:103B30008285118312BD2E1223D0790002BC0A8522
:103B40000A82AA82EA9002E87009E0240490030045
:103B5000F08022E0F8900300E0F516E82404FCE48D
:103B60003400FDEC65167001ED70C012B9D59412E9
:103B700012B9CD50B6850E82850F83E0C0E0740186
:103B80002A12B88DD0E0F0050A850E82850F83A336
:103B9000E0C0E012B886D0E012BC2B85820E85838F
:103BA0000F780E1213C374041211A41213DA8512C3
:103BB0008285138312C7F6122652740412116F8A7B
:103BC0000E8B0FAE0EAF0F850A0E7401250EF87422
:103BD000033400F9EE4F700302BA6F851A82851B19
:103BE00083E08882898312BC2BA3E0C0E012B886F0
:103BF000D0E002BA7DE50B7003750B0A850C828557
:103C00000D8312BC0F12BF9CA90B740402B87E1264
:103C1000C7E585148285158322900300E0F5F0E561
:103C20000A849002FFF07CFF7D0222F0050A851ACB
:103C300082851B832274EC1211B074FE1211598A12
:103C40000A8B0B8C108D11EA2405FEEB3400FF85E6
:103C50001A82851B83AC82AD838E828F8312BD2E28
:103C600012264C8A0C8B0DEE241812B4B1EA450DC5
:103C7000700302BCFF12BE715032851A82851B830D
:103C800012BD2E1227608A128B13EA4513606B79DE
:103C900012AC0CAD0D850A82850B8312BD2E8512E8
:103CA000828513831211AEE9F50C7058E4F50CF51A
:103CB0000D780C1213C38E828F83A3A3E0F50C78CA
:103CC0000C1213C3EE240312BF80780C1213C38EA0
:103CD000828F8312BD38122772740612116FE9F5B4
:103CE0000C7021850E82850F83E0701F850A828506
:103CF0000B8312BD2E1223D68011750C0E80097510
:103D00000C018004E50C600312BF8F850E82850FC5
:103D100083E0600479008002A90C740212116F7FA5
:103D20000C0212827CFF7D02850C82850D8312BD00
:103D30003222E0FAA3E0FB22E0FCA3E0FD850A8248
:103D4000850B8312BD322274EE1211B074FE121173
:103D5000598A0A8B0B8C0E8D0FEA2405FEEB34007A
:103D6000FF751000851A82851B83AC82AD838E821D
:103D70008F8312BD2E12264C8A0C8B0DEA450D70D6
:103D80000302BE5D12BE715035851A82851B8312F7
:103D9000BD2E1227608A108B11EA4511605E7912E0
:103DA000AC0CAD0D850A82850B8312BD2E85108269
:103DB0008511831211AEE9F510600302BE60850A19
:103DC00082850B8312C077AA0CFB1227548A128BB0
:103DD00013A812A913E849701E7AFF7BFF1227541B
:103DE0008A128B13A812A913E849606C8882898310
:103DF000E50CF0A3E50DF0750C00800775100E8042
:103E00005F050C9002E5E0FAE50CC39A504AE50C18
:103E100075F017A4FAABF088828983A3A3E02AFA8D
:103E2000A3E03BFB8A828B8312BF89EC4D70D27575
:103E30000C17750D00780C1213C3EEFCEFFD122E5B
:103E4000E6740212116FEEFCEFFD850A82850B838A
:103E500012BD2E1223DC8014751009800375100129
:103E600012C7DD850E82850F8312BF9CA91002B98F
:103E7000C8E50A2402F50AE50B3400F50B8A828BAB
:103E800083A3A3A3E0A2E522740412116F7F0A02A8
:103E9000128274EC1211B08C128D13EA2405F50E07
:103EA000EB12B4B4751100EA2402F50CEB12BF83D7
:103EB000850C82F58312BD2E1227548A0A8B0BEAD9
:103EC000450B700302BF757510008071850E8285E9
:103ED0000F83E06401704F8E828F83A3A31213DAE5
:103EE0008E828F83A3A3A3A3E0F514751500781425
:103EF0001213C3EE2405F514EF3400F515781412EF
:103F000013C312BD28122772740612116FE9F5113E
:103F10006014850E82850F83E4F012C7DD8512825E
:103F200085138312BF9C7C177D007900EEFAEFFBAE
:103F3000122EFE8E828F83E4F0A3F005109002E52E
:103F4000E0F8E510C398501EE51075F017A4F8A925
:103F5000F0850A82850B83A3A312C96A12BF89EC7C
:103F60004D600302BECC850A82850B8374FFF0A3EB
:103F7000F0E511700612BD281223E2A91102BD1F3F
:103F8000F50CEF3400F50D22A3E0FCA3E0FD228E3A
:103F9000828F8312C7E5851082851183E8F0A3E93B
:103FA000F022C082C0839002E1E06A7003A3E06B5C
:103FB00070067AE17B0280047A007B0002B28FC037
:103FC00082C08378008C828D83E06A7003A3E06BEB
:103FD0007010E875F003A4F8A9F0EC28FAED39FBAD
:103FE0008015088C828D83A3A3A3E06A7003A3E0ED
:103FF0006B60DF7A007B0002B28F74F61211B01290
:10400000271E8A828B83E582458370067A007B00B7
:104010008007A3A3A3A312BD2E02C68E74F21211B1
:10402000B0E9FE740E1211A412C07774101211A41C
:1040300012C4EF8C828D83E064027036A312C7EB4A
:10404000F50EA3E0F9A80E74026870037429697074
:1040500021750E02750F00780E1213C3780A121321
:10406000C3780C1213C3EEF9122796740612116F5F
:104070008002790102C712E0F50CA3E0F50D22746D
:10408000E81211B074FB121159E9851A82851B835D
:10409000F08A188B19ECFEEDFF751200741D1211D9
:1040A000A412C7E1741D1211A412BF9C8E828F83CB
:1040B000A3A3A3E0A2E4502D741D1211A412BD2EDF
:1040C0001227608A828B83E5824583700302C4C015
:1040D000790AEEFCEFFDAA18AB191211AEE9F51240
:1040E000600302C4C3741F1211A412C4EF7421121E
:1040F00011A412C07774231211A4E0F510A3E0F507
:10410000118E828F83E06402600302C46EA312C723
:10411000E1850A82850B83A3858214858315EE24AD
:104120000612B4B188828983E0FAA3E0F9EA240098
:10413000F516E439F517781612144D010000280120
:104140002863C10700022828C2032895C100295FFF
:10415000C301298AC302292BC303295FC304290988
:10416000C46EC4E5104511600302C469850E8285E2
:104170000F8312C4E4FAE9FB8A828B83E0850C8208
:10418000850D8312C51A1213C38A828B83A3E0FCA8
:10419000A3E002C3F3E5104511600302C469850C76
:1041A00082850D837401F012C4F7850A82850B8322
:1041B000F07C007D008E828F83A3A3A3A3E0240163
:1041C000FAA3E03400FB12264CEA4B60418A828B52
:1041D00083E02402F8850C82850D83E028F0EA2430
:1041E00004F8EB3400F988828983E0851482851510
:1041F0008312C52C12C51A1213C38A828B8312BF75
:1042000088E50A2403FAE50B3400FB02C3F8850CA9
:1042100082850D83E02404F07C047D007900AA14DB
:10422000AB15122EFE02C4C3E5104511600302C493
:104230006912C4F7FEA3E0FF850C82850D83740428
:10424000F0EE850A82850B83F0EF85148285158355
:10425000F074031211A4AC82AD83EEFAEFFB1226C8
:104260004C8A0E8B0FEA450F700302C30C8A828BB7
:1042700083A3A312B13A74011211A485821085831D
:104280001178101213C374051211A41213DA7CFFF3
:104290007DFF122652740412116F8B11EA451170C2
:1042A00033850E82850F8312C4CF1213C3850E820D
:1042B000850F83A31213DA7C027D007A907B821231
:1042C000247E740412116FE9700A74011211A4742F
:1042D000FFF0A3F08E828F83E064027039750E02C6
:1042E000750F00780E1213C38E828F8312BF88E57C
:1042F0000A2404FAE50B3400FB122EE674021211B4
:104300006F850C82850D83E02402800974011211EF
:10431000A4EEF0A3EFF074011211A412C4E0F07443
:10432000011211A4A312C4D802C463E510451160A0
:104330000302C469850E82850F8312BF89AA18AB58
:104340001912278A850C82850D837402F0EA850A8A
:1043500082850B83F0851482851583EB02C466E5A4
:10436000104511600302C46912C4F7F8A3E0F9858F
:104370000C82850D837402F0E8850A82850B83F038
:10438000E985148285158302C466850E82850F83B4
:1043900012BD2E122EE0EAFC8C82A882C39510E496
:1043A0009511405FE865107002E51170047C008093
:1043B00022851A82851B83E0FAE5102AFAE511347A
:1043C00000FBC3EA98EB94005003E08005E510CCB5
:1043D000C39CFCEC850C82850D83F08C0C750D0064
:1043E000780C1213C3850E82850F83E02510FCA381
:1043F000E03511FDAA0AAB0B122EE6740212116F02
:1044000002C4C375120702C4C3E5104511705A8572
:104410000E82850F8312C7E1850C82850D83740798
:1044200012B14612C4D812B146A3E0851482851594
:1044300083F0E82402FAE93400FB8A828B8312C4F9
:10444000D812C50712C4E0A312C51012C4E9F0E8DF
:104450002405F8E93400F98882898312C4E9A3129B
:10446000C52CA3A3A3A3F0805A75120B8055741D0D
:104470001211A412BD2E12271E8A828B83E582455B
:1044800083603D12C7E1880E890FE8450F603178DF
:10449000101213C3780C1213C3780A1213C37406D4
:1044A0001211A4E0F9EEFCEFFDAA18AB19850E82FB
:1044B000850F831211AE740612116FE9F512800395
:1044C00075120EA912740512116F7F10021282E08C
:1044D000F510751100781022E0850A82850B832281
:1044E00012C5362212C7E5E82212C536A3A322E080
:1044F000F50AA3E0F50B22850E82850F83E0F8A371
:10450000E0F5838882E022A3A3F08A828B83A32232
:10451000F088828983A3A3A3A322F08A828B8312CB
:10452000C52322E0F50C750D00780C22F0888289F5
:1045300083A312C53622E0850A82850B83A3A322BA
:1045400074EE1211B074FE1211598A0C8B0DECFA34
:10455000EDFB74141211A4E0F512A3E0F513741628
:104560001211A4E0FE74181211A4E0F510A3E0F5F6
:1045700011851A82851B83AC82AD8312264C8A0E6C
:104580008B0FEA450F6049851A82851B8312BD2E69
:1045900012271E8A828B83E5824583602FA3A31294
:1045A000C4EFE50A450B602478101213C378121289
:1045B00013C3EEF9AC0EAD0FAA0CAB0D850A8285C4
:1045C0000B831211AE740412116F8006790E8002F3
:1045D000790102B9C874F61211B074FE121159743F
:1045E0000C1211A412C4E4851A82851B83F0740195
:1045F0001211A4E9F0E4F50AF50B780A1213C37559
:104600000A02780A1213C374041211A485820A855F
:10461000830B780A1213C3122772740612116F7477
:104620000212116F806874F71211B0EAFEEBFF8975
:104630000A7C187D0312278AEA5402600BA90AEE4D
:10464000FAEFFB1226408002790102B04274F612A2
:1046500011B074FF6A700374FF6B70168C828D83C7
:1046600012C693E4F08C828D83A3A3A312C693A3F6
:10467000801812275A8A0A8B0BA80AA90BE84960EE
:104680000D8882898374FF12B144A3A3E4F07F02F2
:1046900002128274FFF0A3F08C828D83A3A3227494
:1046A000F61211B012275A8A828B83E58245836005
:1046B00006A3A3E0FA80027A007B0080D174F21294
:1046C00011B08A0A8B0BECFEEDFF740E1211A4E000
:1046D000F50C12275A8A0E8B0FA80EA90FE8497005
:1046E00026EEFCEFFD7AFF7BFF12275A8A0E8B0F16
:1046F000A80EA90FE8497004791180168882898371
:10470000E50AF0A3E50BF088828983A3A3E50CF00A
:1047100079007F0602128274EE1211B0EAFEEBFFFE
:104720008C0A8D0B890E74141211A412C7E1741631
:104730001211A412BD2E750F00E849600302C7D5FF
:104740007402650E600302C7D074121211A412C75E
:10475000EBFCA3E0F9EC2400F510E439F511EAF4E0
:10476000F8EBF4F9EC58F8E51159F9E849705CE513
:104770000A2406F8ED3400F9880C890D8882F58347
:1047800012C7F612278A8A128B13E510651270047D
:10479000E5116513604278101213C3850C82850DF4
:1047A0008312C7F6122790740212116FE9F50F7089
:1047B0002778101213C3850A82850B83A3A312C71F
:1047C000F41227A8740212116F800D750F808008F3
:1047D000750F0D8003750F0BA90F02BE8D8E828F92
:1047E0008312C7E522E0F8A3E0F92212C7E5888228
:1047F0008983E022A3A3E0FCA3E0FDEEFAEFFB2215
:1048000074E81211B074E7121159851A82851B835E
:10481000EAF0A3EBF08C188D198910750A00750B5E
:104820000074311211A4E0F514A3E0F515743312ED
:1048300011A4E0F516A3E0F51774351211A4E0F504
:1048400011E50B75F003A4F8A9F0851A82851B8386
:1048500012C96AE0F47003A3E0F4700302C94DEEDC
:104860002402F50EEF12C960E0700302C94D8518ED
:104870000C85190D780C1213C3AC16AD17AA14AB26
:1048800015122712740212116F8A0C8B0DEA450D56
:10489000700302C94DE4F512F51378121213C374B4
:1048A000061211A485821285831378121213C37421
:1048B000091211A485821285831378121213C385FD
:1048C0001482851583A3A3A3A31213DA7914AC0C65
:1048D000AD0D8E828F8312BD2E12276C74081211BB
:1048E0006FE97069850C82850D83A3A3A3A312C70A
:1048F000E174021211A412BF9C850E82850F83E021
:10490000A2E05018A91074021211A4AC82AD838EDB
:10491000828F8312BD2E122664E9420A850E82859B
:104920000F83E0A2E15026E511F50C780C1213C7B5
:10493000A91074031211A4AC82AD838E828F8312EE
:10494000BD2E12265E740112116FE9420A050BE5B5
:104950000BC39402500302C841A90A741902C4C7C8
:104960003400F50F850E82F58322E028FEA3E0399E
:10497000FF8E828F832274F21211B0EAFEEBFF8960
:104980000D7401650D600E7402650D706A79011277
:10499000296AE97062EEFAEFFB1227548A0A8B0B40
:1049A000EA450B6047750C00800B7C177D00790091
:1049B000122EFE050C9002E5E0F8E50CC39850219C
:1049C000E50C75F017A4F8A9F0850A82850B83A37E
:1049D000A3E028FAA3E039FB8A828B8312B2967097
:1049E000C9850A82850B8374FFF0A3F07C187D03D0
:1049F000EEFAEFFB12278402C71274F21211B08A8A
:104A00000A8B0BECFEEDFF740E1211A412C077900E
:104A10000A57E0F4603D7A097B00122F0AEA4B60E6
:104A2000328A828B8374B1F0A3E412C509A312C544
:104A300007A3E50AF0A3E50B12CA56EEF0A3EF12A6
:104A4000CA56A3A3E50CF0A3E50DF0900A57E0F9D0
:104A5000122F1602C712F08A828B83A3A3A3A3A3EB
:104A600022C082C0839061907404F0A37448F0A3C4
:104A70007402F09061807440F09061BC7403F09017
:104A800061877419F0906265741BF0906249E0C30D
:104A9000941390619C400A7409F0906066740180E0
:104AA00007740DF0906066E4F090619A7433F0A39F
:104AB0007455F09061A0743AF090053EE064017086
:104AC00009C2919003A5746780059003A57461F0F5
:104AD000903346E493906186F0903348E493F46019
:104AE00027E493540FF8906185E0686012E5C6549E
:104AF000804449F5C6E59E547F644970F8E8F05358
:104B0000C680E59E547F70FA7905122CCA02CCBC8F
:104B1000C082C083E9540FF9906185E0696012E5B5
:104B2000C654804449F5C6E59E547F644970F8E94F
:104B3000F053C680E59E547F70FA02CCBCC082C0A0
:104B400083E5A8F853A87E906181E4F0A3F0A3F078
:104B5000C2BA539AFEC289759B00C2C275E900753C
:104B6000910075BF0075A91175B905906181F0A319
:104B700074C0F0A3E4F0D2BA439A0174805842A8FA
:104B800002CCBCC082C08374F81211599003A3E018
:104B9000F8A3E0F9E849700302CCB19003A3E05414
:104BA0004060237908851A82851B83AA82AB831211
:104BB0002B2C851A82851B83AA82AB8312281A901C
:104BC00003A3E054BFF0E054806010790C7A647B5A
:104BD00005122B2C9003A3E0547FF0E0A2E05031AB
:104BE00090619A7433F0A37455F09061A0743AF018
:104BF00090053EE064017009C2919003A57467803E
:104C0000059003A57461F01228209003A3E054FEE0
:104C1000F0E05402603190619A743FF0A3745AF04E
:104C20009061A0747FF090053EE064017009D2911C
:104C30009003A5747180059003A5746AF012282072
:104C40009003A3E054FDF0E054046013903344E477
:104C500093906186F01228269003A3E054FBF0E0C5
:104C600054086013903345E493906186F01228262F
:104C70009003A3E054F7F0E054106013903346E43F
:104C800093906186F01228269003A3E054EFF0E0A1
:104C90005420600A1228269003A3E054DFF0A3E01A
:104CA0005401600D122A5412282C9003A4E054FEE3
:104CB000F0740812116F02CCBCF0A3F0D083D08244
:104CC000020DFB74EC1211B074F4121159851A82A2
:104CD000851B83AC82AD8375838275824374041215
:104CE000106C90334493F4600302CE4F907808E048
:104CF000C39402500302CE2F74041211A4AC82ADEF
:104D0000837583817582D7740812106C851A828529
:104D10001B8385821485831574041211A4AC82ADA3
:104D2000837510FF7511FF7FFF7E00750E48750FAC
:104D300078801574086E700302CDC374096E700319
:104D400002CDC3740A6E607B850E82850F83780A5C
:104D50001210298C828D83A90BE50CC9F888127476
:104D600018780A120F57E512450AF8C3E098A3E035
:104D700099850E82850F83780A12102940188C823B
:104D80008D837418780A120F57E512450AF8E0C3AC
:104D900098F8A3E0801C7418780A120F57E51245A2
:104DA0000AFAE9FB8C828D83E0F8A3E0F9EAC39864
:104DB000F8EB99F9C3E89510E99511500688108928
:104DC00011EEFF0EE50E2404F50EE50F3400F50F8D
:104DD000EEC39413500302CD3374FF651070047456
:104DE000FF651160238F0A7402780A121146744815
:104DF000250AF5827478350BF583780A1210298517
:104E00001482851583E50AF0EC2402FCED3400FDE4
:104E1000851482851583A3858214858315740C12ED
:104E200011A4E5826C7003E5836D600302CD2175EA
:104E30000A01750B00780A1213C374021211A4AC94
:104E400082AD837AD17B0C123138740212116F74E7
:104E50000C12116F7F0C021282C082C0839061AE6F
:104E60007468F0A3746AF090624574FBF0A304F0D8
:104E700053F4FD43FE0290053E7401F09061A0E002
:104E8000643A90619A70237433F0A37455F0906182
:104E9000A0743AF0740164017009C2919003A57482
:104EA0006780289003A574618021743FF0A3745A31
:104EB000F09061A0747FF0740164017009D2919048
:104EC00003A5747180059003A5746A02CCBB7F08AA
:104ED000021282C082C0839004F0E06401700A90E4
:104EE00004F5E06004790C8002790002CCBCC08239
:104EF000C08375E1F19004F3E0605B146009146015
:104F00005F14605714705E122A669004E9E0F97A23
:104F1000EA7B04122C4C7AD67BBE7C897D8E122CC7
:104F2000827A557B557C557D00122C589004F4E014
:104F3000F9122C647901122CBE9004E7E0F8A3E08A
:104F4000C82416F582E83400F583747EF0A3742A31
:104F5000F0790002CCBC122A6C80AF122A7280AAAF
:104F6000122A7880A5791280EA74F01211B075D9EE
:104F70000D9004D4E0A2E0E4331313F89004E9E0C8
:104F8000C4333354C0484401F5D978E779048882A2
:104F90008983A3A3A3E0F5D988828983A3A882A9E2
:104FA00083E864ED7003E9640470E378D4790488DD
:104FB000828983A3E0F5D988828983A3A882A98303
:104FC000E864DA7003E9640470E575E1959004D44F
:104FD000E0F97AD57B04122C52900A797412F0A36E
:104FE000742AF0A37474F0A3742BF0A37474F0A368
:104FF000742BF0A37474F0A3742BF0A37418F0A3B3
:10500000742AF0A37474F0A3742BF0A37430F0A38B
:10501000742AF0900A877474F0A3742BF0A374744C
:10502000F0A3742BF0A37474F0A3742BF0A3747426
:10503000F0A3742BF0A37474F0A3742BF0A3747416
:10504000F0A3742BF09004F3E064019004E7701275
:10505000E0F8A3E0F5838882A3A3750A00750B0826
:105060008010E0F8A3E0F5838882A3A3750A047595
:105070000B00750C00750D00780A120FA2750EFF5B
:10508000750FFF7510FF751100780A790E120FF079
:105090009004E7E0F8A3E0C8240EF582E83400F5B8
:1050A00083780A1210389004E7E0F8A3E0C82414CB
:1050B000F582E83400F5837413F09003A17402F0D4
:1050C00002CECE74F71211B09004F9E02407F5D99E
:1050D0009004E9E0C4333354C0F5D978E779048803
:1050E000828983A3A3A3E0F5D988828983A3A882B8
:1050F000A983E864ED7003E9640470E39004F9E0C7
:10510000601F78E77904FAE82413F582E93400F5A2
:1051100083E0F5D988828983A3A882A9831AEA70DB
:10512000E6900519E02407F5D99004E9E0C433338B
:1051300054C04404F5D978E7790488828983A3A30D
:10514000A3E0F5D988828983A3A882A983E864EDC6
:105150007003E9640470E3900519E0601F78E77953
:1051600004FAE82433F582E93400F583E0F5D988C0
:10517000828983A3A882A9831AEA70E675E19590D3
:105180000A79741EF0A3742AF0A37474F0A3742B2C
:10519000F0A37474F0A3742BF0A37474F0A3742BB5
:1051A000F0A37418F0A3742AF0A37474F0A3742B02
:1051B000F0A37430F0A3742AF0900A877474F0A3FB
:1051C000742BF0A37474F0A3742BF0A37474F0A385
:1051D000742BF0A37474F0A3742BF0A37474F0A375
:1051E000742BF0A37474F0A3742BF09004E7E0F830
:1051F000A3E0C8240EF582E83400F58374FFF0A321
:10520000F0A3F0A3F09004E7E0F8A3E0C82414F5BD
:1052100082E83400F5837412F09003A17401F0FF6A
:1052200002128274F71211B09004F9E02407F5D944
:105230009004E9E0C4333354C04402F5D978E779E7
:105240000488828983A3A3A3E0F5D988828983A3F4
:10525000A882A983E864ED7003E9640470E3900414
:10526000F9E0601F78E77904FAE82413F582E9345D
:1052700000F583E0F5D988828983A3A882A9831ADF
:10528000EA70E675E195900A79742AF0A3742AF021
:10529000A3742AF0A3742AF0A3742AF0A3742AF04A
:1052A000A3742AF0A3742AF0A3742AF0A3742AF03A
:1052B000A3742AF0A3742AF0A37430F0A3742AF024
:1052C000900A877474F0A3742BF0A37474F0A37421
