:020000040000FA
:0600000002011D0227E7CA
:03002B00022F9C05
:03003300022F7425
:0300530002285A26
:03006B00022F1B46
:03007B00022F430E
:10008300022653E5C754F84401F5C779012200005D
:100093000080FB120086B90003020107E47921788E
:1000A30008B800028004F709D8FCE479297802B87B
:1000B30000028004F709D8FCE4900281787A790879
:1000C3008002F0A3D8FCD9FA781A90014D7A01BACC
:1000D30000028007E493A3F608DAF99009FAAA82EA
:1000E300AB8390014E787B79078015E493A3AC82B0
:1000F300AD838A828B83F0A3AA82AB838C828D83A8
:10010300D8E9D9E775821875838D740412012F75A8
:100113008291758300740012012F75D00075813FA1
:10012300751881751902759F00020096C09FF59F8F
:10013300E473D09F22D083D082C09FE493C0E07445
:100143000193C0E0740293F59F2201FF0000B40005
:100153000028002800283075A000A000A000A000FF
:1001630000080008E001F00010001000100010006B
:100173001000100050005000500010001000D00775
:100183000000000000000F000100050030750700AB
:100193001000010081FF00000000FFC609E409CC44
:1001A30009FF02020208025000A0000000E8030257
:1001B300F283010000C58302EC83010000510A02AF
:1001C300E483010000B30202EC83010000520A023F
:1001D300E083010000C90202EC83010000530A021C
:1001E300FE83010000CB0202EC83010000540A02EB
:1001F300DC83080000CC0202EC83010000550A02F4
:10020300DA83010000560AFF0100FF2002F2830196
:100213000000B68302EC83010000BA0A02DE830009
:100223000000000002E68303000019039C0F9C0FEB
:100233009C0F9C0F9C0F9C0F9C0F9C0F9C0F9C0F63
:100243009C0F9C0F9C0F301248122A12FFFF0A09C1
:1002530053656E736F725461670512500020030279
:100263000A00020105544920424C452053656E7330
:100273006F722054616700D007E803E803E803E8DE
:1002830003E80352140000821488148E149A149401
:1002930014A014A614AC14B21412416363656C2E3B
:1002A3002044617461000A416363656C2E20436FCF
:1002B3006E662E000A0A416363656C2E20506572D8
:1002C300696F640002F283010000C88302EC8301BA
:1002D3000000480B10D581010000730702E6830379
:1002E3000000760702E883010000490B02EC83015A
:1002F3000000550B10E5810300007C0702E8830131
:100303000000560B02EC83010000630B10F5810320
:100313000000640B02E883010000650B1242617266
:100323006F6D2E2044617461000A4261726F6D2EFD
:1003330020436F6E662E00024261726F6D2E204362
:10034300616C6962722E000A0A4261726F6D2E201F
:10035300506572696F640002F283010000CB83026F
:10036300EC83010000CB0B1035820100007F0702F4
:10037300E683030000830702E883010000CC0B023D
:10038300EC83010000D80B104582030000890702AB
:10039300E883010000D90B02EC83010000F60B1087
:1003A3006582030000F70B02E883010000F80B02EB
:1003B300EC83010000E60B1055820100008A07025E
:1003C300E6830300009A0702E883010000E70B12AB
:1003D300436F6E6E2E20506172616D730008436F20
:1003E3006E6E2E20506172616D732052657100082C
:1003F300446973636F6E6E656374205265710002A6
:10040300F283010000D18302EC830100007E0C1013
:10041300A582010000A20702E683030000A80702E9
:10042300E8830100007F0C02EC830100008C0C10B8
:10043300B582020000AE0702E8830100008D0C02C2
:10044300EC830100009E0C108582020000B60702B7
:10045300E8830100009F0C02020202020202020270
:10046300010D000000100102F283010000BF8302AE
:10047300EC83010000060D02D683010000B70702DA
:10048300EC83010000070D02D8830100004A8302B8
:10049300EC83010000080D02E283010000408302A7
:1004A300EC830100000A0D02FC830100009380022B
:1004B300EC830100000B0D02FA8301000045830267
:1004C300EC83010000090D02EE830100004F83025B
:1004D300EC830100000C0D02EA830100008180021D
:1004E300EC830100000D0D020284010000D582029D
:1004F300EC830100000E0D0204840100000F0D01C6
:10050300E803053F100A124779726F204461746152
:10051300000A4779726F20436F6E662E000A0A47FE
:1005230079726F20506572696F640002F283010073
:1005330000B38302EC83010000B50D10B580010008
:10054300007B0802E683030000810802E8830100C0
:1005530000B60D02EC83010000C00D1045810300BD
:1005630000870802E883010000C10D02EC8301004B
:1005730000CC0D10D580030000CD0D02E8830100EF
:1005830000CE0D0380000080700061801248756DFD
:1005930069642E2044617461000A48756D69642E94
:1005A30020436F6E662E000A0A48756D69642E201B
:1005B300506572696F640002F283010000CE83020A
:1005C300EC830100003B0E1085810100001209023B
:1005D300E683030000160902E8830100003C0E02D3
:1005E300EC83010000480E1015820300001C090271
:1005F300E883010000490E02EC83010000560E104F
:100603007582030000570E02E883010000580E12A2
:1006130054656D702E2044617461000A54656D70D9
:100623002E20436F6E662E000A1E54656D702E20B9
:10063300506572696F640002F283010000B08302A7
:10064300EC83010000BE0E10B5810100001F0902FA
:10065300E683030000230902E883010000BF0E02C2
:10066300EC83010000CA0E10A581030000290902D2
:10067300E883010000CB0E02EC83010000D70E10CB
:100683009581030000D80E02E883010000D90E1201
:100693004D61676E2E2044617461000A4D61676E7F
:1006A3002E20436F6E662E000A0A4D61676E2E2060
:1006B300506572696F640002F283010000BC83021B
:1006C300EC830100003E0F1065810100002C09023C
:1006D300E683030000320902E8830100003F0F02B2
:1006E300EC830100004A0F10558103000038090212
:1006F300E8830100004B0F02EC83010000570F1049
:100703003581030000580F02E883010000590FFFF1
:100713000001307503020106000000000000000024
:1007230000000000000000000000000000000000C6
:1007330000000000FFFF0600800CE803104B657902
:100743002050726573732053746174650002F283E1
:10075300010000B98302EC83010000EB0F02F88370
:10076300000000E80902E683030000E90902E883C8
:10077300010000EC0F02546573742044617461003E
:100783000A5465737420436F6E6669670002F283CF
:10079300010000C28302EC83010000241010E580F5
:1007A300030000F10902E883010000251002EC8335
:1007B3000100002F10102581030000F90902E883CE
:1007C300010000301012013886F7031201389DF73B
:1007D30003120138CEF70312013809F80312013866
:1007E30033F8031201385DF80312013874F8031269
:1007F30001388BF803120138A2F803120138CBF841
:1008030003120138DEF803120138F4F80312013839
:1008130007F9031201382EF903120138BCF501124E
:100823000138C0F601120138F8F6011201381BF73E
:100833000112013826F70112013849F70112013874
:1008430058F8011201382DF901120138A8F90112E3
:10085300013830FA011201386BFA01120138A2FA99
:100863000112013830FB0112013809FC0112013871
:1008730069FC0112013874FC01120138F3FC011206
:100883000138F6FC01120138F9FC0112013888FD28
:10089300011201388BFD01120138BBFD0112013831
:1008A300E5FD01120138D3FE0112013885FF011263
:1008B30001381F9E03120138479E03120138759EAB
:1008C30003120138AC9E031201380A9F0312013848
:1008D300559F03120138A09F03120138E09F0312B2
:1008E300013826A00312013854A00312013811A1C4
:1008F300031201381BA10312013828A10312013886
:100903005BA10312013827A20312013833A2031299
:1009130001384BA20312013855A20312013827FFF5
:100923000212013835FF021201384DFF021201385D
:1009330065FF02120138008002120138AC800212F6
:100943000138278102120138488202120138848259
:10095300021201382D830212013814840212013865
:10096300788502120138CF850212013850860212AF
:1009730001384087021201388D870212013813882B
:1009830002120138458802120138598A02120138CD
:100993009B8A02120138B98A021201383C8B021277
:1009A3000138108C02120138D88C021201387A8770
:1009B300031201384D8803120138F68803120138F7
:1009C300498903120138F98903120138858A031210
:1009D3000138718B03120138A08B03120138B38CD9
:1009E30003120138FB8C03120138D08D0312013836
:1009F3000C8E03120138288E03120138948C0412D2
:100A0300013863D70312013879D7031201389FD70E
:100A130003120138BBD803120138C5D803120138B9
:100A2300FAD903120138F2DA0312013802940312DD
:100A33000138329503120138659503120138AF95D9
:100A4300031201387697031201386BD6011201386D
:100A5300D5D60112013834D80112013844D8011215
:100A6300013871D801120138C8D80112013871D97F
:100A73000112013878DA0112013842DB0112013820
:100A8300A2DC01120138E5DC011201388ADD011212
:100A93000138D7DD01120138FDDD011201380BE009
:100AA3000112013810E00112013815E20112013878
:100AB30062E201120138D5E20112013808E30112A2
:100AC3000138AAE30112013853E4011201388BE41F
:100AD300011201388EE401120138D6E40112013803
:100AE30016E5011201386DE50112013851E70312D1
:100AF300013869E703120138B1E703120138C7E788
:100B0300031201380EE80312013822E903120138F7
:100B1300AFE903120138FAE903120138D94D001283
:100B23000138E54D00120138204E00120138654EA0
:100B330000120138254F00120138AB4F0012013863
:100B43001050001201383C50001201387550001249
:100B53000138B352001201389754001201387D5600
:100B630000120138C057001201380E5A0012013822
:100B7300205B001201386B5C001201387B5D0012B0
:100B83000138985D00120138D35D00120138F55D1C
:100B930000120138585E001201381963001201383F
:100BA300AE6300120138FF6300120138266400129D
:100BB3000138786400120138966400120138F06439
:100BC30000120138D965001201384F67001201384D
:100BD300D36700120138DCA203120138E6A2031224
:100BE300013829A30312013844A303120138D4A303
:100BF30003120138FCA30312013839A4031201388C
:100C030070A40312013899A4031201380EA503122C
:100C1300013823A50312013838A50312013869A549
:100C2300031201387DA503120138A2A5031201386E
:100C3300DCA50312013808A60312013840A60312EB
:100C43000138BFA60312013808A70312013832A7DF
:100C5300031201385DA703120138298804120138F1
:100C630075C602120138A3C602120138F1C7021277
:100C73000138D1C802120138F0C8021201386DC917
:100C830002120138B0C90212013806CB0212013830
:100C9300C7CB021201384ECE02120138EFCE021238
:100CA3000138E5CF02120138E2D0021201383CD2FA
:100CB30002120138C7D2021201382283041201380A
:100CC3008B8304120138DF83041201380684041273
:100CD30001383784041201383CBE03120138A9BE1F
:100CE30003120138F0BE0312013808C003120138A1
:100CF30004C103120138E7C103120138DFE802120D
:100D0300013821E902120138F3E902120138CCEA71
:100D130002120138C6EB02120138A8EC02120138A4
:100D230011ED02120138C7ED021201383BEE021237
:100D33000138A7EE02120138D0EE021201384AEF51
:100D430002120138E3EF0212013848F002120138AF
:100D53005DF002120138A3F002120138BCF0021256
:100D6300013821F10212013824F1021201387BE12A
:100D730003120138A3E103120138E1E10312013840
:100D83009FE20312013806E30312013822E3031240
:100D930001384AE3031201387AE30312013889E385
:100DA3000312013806E4031201382CE4031201385C
:100DB3005AE60112013838E8011201386AEA0112D1
:100DC3000138A6EA01120138D3EA01120138BDEB5A
:100DD3000112013808EC0112013853EC01120138F9
:100DE30065EC01120138A5EC01120138DAEC0112AD
:100DF300013828ED0112013857ED011201387AED5F
:100E030001120138C7ED011201384CEE011201380D
:100E130066F001120138A5F201120138E6F201125F
:100E2300013888F401120138C9F4011201383CF584
:100E33000112013892F50112013860B9021201382A
:100E43005EBA02120138F7C00212013818C3021247
:100E53000138E3C4021201384BC60212013806847A
:100E630001120138B58401120138E28401120138FC
:100E7300288501120138688601120138FE870112A4
:100E830001387888011201389388011201380E89DC
:100E930001120138688A01120138C88B0112013826
:100EA300CE8C011201382F8E01120138488E0112A7
:100EB3000138A68E01120138948F01120138C78FB1
:100EC30001120138379001120138B1900112013833
:100ED300FB9001120138C591011201389A92011257
:100EE3000138799301120138049401120138729484
:100EF30001120138E69401120138119501120138EB
:100F0300D095011201383597011201385297011219
:100F130001387197011201386298011201388798DC
:100F230001120138B198011201382C9901120138CC
:100F3300869901120138EF9A011201389D9B011223
:100F43000138DE9B011201388CAB02120138DAAB97
:100F530002120138E6AB02120138C4AC02120138A6
:100F6300F5AC0212013826AD02120138A6AD021209
:100F73000138DEAD0212013830AE021201386DAE17
:100F8300021201388AB002120138B0B202120138DB
:100F93009BB40212013885B602120138F6FF011222
:100FA30001380E9C011201383E9C0112013817A32F
:100FB300011201389CA40112013899AA01120138C7
:100FC30081AB01120138BEAB01120138E1AB011252
:100FD300013812AC011201381BAC0112013825ACE7
:100FE3000112013813AD0112013809AE01120138A3
:100FF3003A6800120138396C001201383F6C001254
:1010030001387A730012013893780012013895D3AE
:10101300031201382BD40312013841D403120138CF
:10102300B7D4031201382BD50312013869D5031243
:101033000138DDD50312013856D6031201385FD6C5
:10104300031201386BD60312013880D6031201381C
:10105300BED603120138D4D60312013833D7031294
:10106300013813C70312013820C7031201383AC7E6
:101073000312013879C703120138B7C703120138C5
:101083001CC80312013831C8031201383CC80312CB
:10109300013849C80312013860C8031201386EC809
:1010A3000312013879C80312013885C803120138C5
:1010B30094C8031201389FC803120138C2C803122F
:1010C300013869C90312013879C90312013893C978
:1010D30003120138B0C903120138CCC90312013815
:1010E300F1C903120138FCC90312013811CA0312F2
:1010F300013825CA0312013886CA031201388CCA83
:101103000312013892CA0312013898CA0312013834
:10111300B0CA03120138E3CA03120138629D0212F6
:101123000138E69D02120138959E02120138F49FA0
:101133000212013815A20212013801A3021201386A
:1011430036A30212013858A30212013807A402126F
:101153000138FFA50212013828A602120138BAA6E7
:1011630002120138ECA602120138F9A60212013864
:1011730050A70212013876A702120138E3A902121E
:101183000138E6AA021201383EAB02120138F18E91
:1011930002120138FB8F02120138E2900212013869
:1011A300EC90021201380E91021201381A910212C8
:1011B3000138B39202120138E29202120138FE930F
:1011C30002120138579402120138BD9502120138F8
:1011D3009C9602120138F8960212013865970212A2
:1011E3000138A09702120138DF9702120138989A4A
:1011F30002120138B29A021201383E9B02120138E0
:101203004C9B02120138A59B02120138B39B0212B8
:101213000138269C021201388A9C02120138D49CA0
:101223000212013848D3021201386AD3021201387C
:1012330090D502120138A5D802120138BDD9021285
:10124300013870DA0212013852DB02120138F9FA5E
:10125300031201381EFB0312013890FB03120138FD
:10126300008003120138098003120138128003122F
:101273000138E980031201389A8203120138D082BF
:10128300031201380A830312013840830312013821
:101293007A8303120138AE8303120138DA8303120F
:1012A30001382384031201385D8403120138A684B4
:1012B30003120138FE840312013833850312013807
:1012C3008E8503120138C88503120138198603126B
:1012D30001384F8603120138898603120138B78615
:1012E30003120138DA8603120138BC8A041201386A
:1012F300E88A04120138438B041201384D8B04121F
:1013030001385D8B0412013848F1021201385DF196
:1013130002120138B5F1021201381CF2021201382F
:1013230064F202120138DAF20212013809F30212EE
:10133300013817F3021201387BF302120138B9F3B3
:1013430002120138D4F3021201386CF4021201388C
:1013530015F50212013898F502120138D1F502127F
:1013630001385CF602120138B3F60212013812F7A3
:101373000212013824F7021201384AF70212013827
:1013830053F702120138B2F802120138BF85041272
:1013930001389E86041201388BEC03120138D0EC1D
:1013A3000312013816ED03120138A9EE03120138B6
:1013B3004289041201385D89041201386D890412CF
:1013C3000138C48904120138678B04120138E9F823
:1013D3000212013809F9021201380DFA021201381A
:1013E30059FA0212013879FA02120138CCFA0212C0
:1013F300013839FB021201387FFB02120138E3FB8B
:101403000212013895FE0212013816FF021201384A
:101413007D8404120138AD8404120138DD84041282
:101423000138FD84041201385785041201384EC374
:101433000112013840C6011201382ECA01120138C7
:1014430060CA011201388BCA0112013891CB011213
:10145300013814CC01120138F2CC0112013829CD24
:101463000112013860CD0112013897CD0112013804
:10147300CECD0112013805CE011201383CCE011246
:10148300013873CE0112013825CF01120138D5CFAF
:101493000112013887D00112013837D10112013806
:1014A300EBD1011201389DD20112013851D301123F
:1014B300013824D401120138B1D40112013876D590
:1014C300011201389BB003120138EEB00312013848
:1014D30017B103120138CDB1031201382EB2031232
:1014E30001383EB303120138E9B4031201389D8E6B
:1014F30003120138F08E03120138198F03120138D9
:101503003A9003120138C590031201381692031260
:101513000138C5930312013860CB03120138B3CBF2
:1015230003120138D0CB03120138A5CC03120138C2
:1015330022CD03120138FFCD0312013874CF0312F9
:1015430001382999031201384E99031201388999F8
:10155300031201380A8C04120138CC2F001201380F
:10156300DA32001201389A3400120138453500127C
:101573000138E93500120138823600120138B136DC
:10158300001201388B3B00120138363C001201383F
:10159300A63D001201380E3E00120138C23E001271
:1015A3000138844100120138C34100120138374227
:1015B30000120138964200120138F5420012013838
:1015C3006443001201385744001201389D4400124D
:1015D3000138E24400120138054500120138804603
:1015E300001201389346001201389C47001201385B
:1015F300DB47001201380748001201385A4800122D
:1016030001387B4800120138BF4800120138114BE2
:1016130000120138524B00120138FD4B0012013801
:10162300684C00120138A54D00120138B1B90312FC
:10163300013804BA031201382DBA03120138E3BA90
:101643000312013844BB0312013854BC031201389E
:10165300FFBD031201388EF5031201389EF5031204
:101663000138E3F503120138C3F60312013874F7A6
:101673000312013840F90312013879F903120138D2
:1016830097F90312013820FA031201383DFA0312C5
:101693000138E7FA03120138BB8D04120138FA86C8
:1016A300041201380A87041201381B870412013817
:1016B30023880412013874E4031201381AE5031273
:1016C300013836E703120138EDEE0312013807EF54
:1016D3000312013869EF03120138E1EF03120138F5
:1016E30089F003120138A8F003120138B8F003128D
:1016F3000138F7F0031201383AF1031201383EFEC4
:101703000312013878FE03120138EBFE031201388D
:1017130025FF031201386AFF031201387CFF03120D
:101723000138B3FF031201389EFC03120138EDFCAC
:10173300031201381FFD03120138B0FD03120138F3
:101743002CFE03120138FCDA0312013810DB0312FA
:10175300013839DB0312013862DB0312013822DC62
:101763000312013873DC0312013843DE031201381C
:10177300958104120138C88104120138448204128D
:101783000138648204120138C982041201381183BA
:1017930004120138148304120138A9C20312013858
:1017A3003EC30312013821C40312013873C6031266
:1017B3000138B3C603120138F5C6031201384CF1E0
:1017C300031201385DF103120138ACF10312013841
:1017D300D8F103120138F8F10312013885F203122C
:1017E30001387DF30312013800800412013851805F
:1017F30004120138DB8004120138688104120138B5
:10180300F87F00120138497D00120138407F001231
:101813000138AC7F00120138F37F0012013885A72D
:1018230003120138D8A70312013801A803120138A3
:10183300B7A80312013818A90312013828AA031202
:101843000138D3AB0312013810AC0312013863AC77
:10185300031201388CAC0312013842AD0312013874
:10186300A3AD03120138B3AE031201385EB0031205
:10187300013826B50312013879B503120138A2B530
:101883000312013858B603120138B9B603120138EE
:10189300C9B70312013874B9031201388FF3031265
:1018A3000138F8F303120138B6F40312013835F5A1
:1018B3000312013855DE0312013887DE03120138A3
:1018C3008FDF03120138B4E00312013876DE02120F
:1018D30001385CDF02120138A9DF02120138ECDFA4
:1018E3000212013861E002120138C2E0021201382B
:1018F30037E10212013813E2021201381EE3021229
:1019030001389FE30212013846E502120138DCE593
:10191300021201384FE602120138CBE602120138F7
:10192300E2E60212013819E80212013873E80212E2
:10193300013821B001120138B9B4011201388DB751
:1019430001120138B6B701120138CDB701120138BF
:10195300F6B701120138A8B8011201388EBA011284
:101963000138C9BB01120138FFC00112013838C167
:10197300011201387CC1011201388EC201120138F3
:1019830024EA0312013877EA03120138DCEA03126E
:101993000138A4EB031201384EEC03120138108A0C
:1019A30004120138A4CF03120138F7CF0312013810
:1019B30020D003120138BCD0031201380FD1031217
:1019C300013814D20312013858D3031201388F8D12
:1019D30004120138D7FF03E066701008A3E06670B5
:1019E3000A08A3E066700408A3E06622C3E796082A
:1019F30009E7960809E7960809E79622C3E09608DF
:101A0300A3E09608A3E09608A3E09622C008C3E0EB
:101A130096F50808A3E096420808A3E09642080852
:101A2300A3E09645087001D3D00822080808EAC04D
:101A3300E0EBC0E086F0E7A4FA180986F0E7A42AF1
:101A4300FA180986F0E7A42AFA180986F0E7A42A07
:101A5300FA1986F0E7A4FBE5F02AFA190886F0E7FD
:101A6300A42BFBE5F03AFA190886F0E7A42BFBE573
:101A7300F03AFA18180986F0E7A4C5F02BFBE43A0C
:101A8300FA1908E7C5F0C6A426F6E5F03BFBE43AED
:101A9300FA1886F0E7A4F6E5F00826F6E43B08F624
:101AA300E43A08F6D0E0FBD0E0FA22E4CFC0E0E469
:101AB300CEC0E0E4CDC0E0E4CCC0E075F020C3E6E6
:101AC30033F608E633F608E633F608E633F6181875
:101AD30018EC33FCED33FDEE33FEEF33FFC3EC972D
:101AE30009ED9709EE9709EF97191919400FFFECC4
:101AF30097FC09ED97FD09EE97FE191906D5F0BE7F
:101B0300ECF709EDF709EEF709EFF7191919D0E02A
:101B1300FCD0E0FDD0E0FED0E0FF2260160808080C
:101B2300C6C313C618C613C618C613C618C613C62B
:101B3300D5E0EA227009080808226016181818C6AA
:101B4300C333C608C633C608C633C608C633C6D5AC
:101B5300E0EA22E627F60809E637F60809E637F64B
:101B63000809E637F622E026F608A3E036F608A3CE
:101B7300E036F608A3E036F622E026F008A3E036C6
:101B8300F008A3E036F008A3E036F022C3E697F6A8
:101B93000809E697F60809E697F60809E697F62294
:101BA300C3E096F008A3E096F008A3E096F008A33C
:101BB300E096F022E657F60809E657F60809E657D5
:101BC300F60809E657F622E056F608A3E056F608AB
:101BD300A3E056F608A3E056F622E056F008A3E089
:101BE30056F008A3E056F008A3E056F022E0F6080A
:101BF300A3E0F608A3E0F608A3E0F622E6F008A3C4
:101C0300E6F008A3E6F008A3E6F022E0FAA3E0FB7F
:101C1300A3E0FCA3E0FD22EAF0A3EBF0A3ECF0A326
:101C2300EDF022CAC0E0E6F0A308DAFAD0E0FA2227
:101C3300CAC0E0E0A3C582CCC582C583CDC583F00D
:101C4300A3C582CCC582C583CDC583DAE6D0E0CAFD
:101C530022C3E498F8E499F9121C958026C3E49A08
:101C6300FAE49BFBE920E7E9121C95E498F8E49970
:101C7300F922C3E498F8E499F9121C95E498F8E47E
:101C830099F9C3E49AFAE49BFB22EB20E7CFE9201E
:101C9300E7E0B90010BB0008E88AF084F8AAF02254
:101CA300E4FBC8FA22EB70227B10C833C8C933C9DE
:101CB300335007C39AC3DBF280069A50012ADBEA4A
:101CC300C833F4C8C933F4C9FA2275F008E4C83339
:101CD300C8C933C933C99AC99B5004C92AC93BD55A
:101CE300F0ECFBC833F4C8E4C9FA22600D08C6A2BD
:101CF300E713C618C613C6D5E0F322600C08C6C3A3
:101D030013C618C613C6D5E0F422700422600D185A
:101D1300C6C333C608C633C6D5E0F4182225181047
:101D2300AF08F518400215198008F5184002151977
:101D3300D2AF22C0D0251810AF08F51850020519EC
:101D43008008F51850020519D2AFD0D0222518F516
:101D53008210AF08F518400215198008F5184002E3
:101D63001519D2AF851983222518F582E43519F5A3
:101D73008322E4732518C582C0E0E51934FFC583C7
:101D8300C0E0E518C3958224F810AF088583198550
:101D930082188008858319858218D2AFCEF0A3E517
:101DA30020F0A37808E608F0A3DEFAEFF0A3E581BC
:101DB30024FAF8E608F0A3E608F0A3E608F0A3087F
:101DC30008E608F0A3E608F0A315811581D0E0FE2C
:101DD300D0E0F8158115811581E8C0E0EEC0E0225E
:101DE3002518C582C0E0E51934FFC583C0E0E518B6
:101DF300C3958224F910AF0885831985821880085A
:101E0300858319858218D2AFCEF0A3E520F0A3789D
:101E130008E608F0A3DEFAEFF0A3E58124FBF8E679
:101E230008F0A3E608F0A30808E608F0A3E608F024
:101E3300A315811581D0E0FED0E0F815811581E866
:101E4300C0E0EEC0E022851983851882E0A3FEE09E
:101E5300A3F5207808E0A3F608DFFAE0A3FFE0A3E8
:101E6300C0E0E0A3C0E0E0A3C0E0E0A3C0E0E0A3E3
:101E7300C0E010AF08858218858319800885821811
:101E8300858319D2AFD083D082020135851983852A
:101E93001882E0A3FEE0A3F5207808E0A3F608DFAC
:101EA300FAE0A3FFE0A3C0E0E0A3C0E0E0A3C0E04A
:101EB300E0A3C0E010AF08858218858319800885E8
:101EC3008218858319D2AFD083D08222C0D025183F
:101ED300C582C0E0E51934FFC583C0E0E518C395AA
:101EE3008224F310AF0885831985821880088583BF
:101EF30019858218D2AFC8F0A3E9F0A3EAF0A3EBE7
:101F0300F0A37908E709F0A3D8FAECF0A3EDF0A366
:101F1300EEF0A3EFF0A3D0E0F0A3D0E0F0A3D0E085
:101F2300F0A3E520F0A3E5F0F0A32285198385183B
:101F330082E0C0E0A3E0F9A3E0FAA3E0FBA3780802
:101F4300E0F608A3DFFAE0FCA3E0FDA3E0FEA3E0D4
:101F5300FFA3E0C0E0A3E0C0E0A3E0F5D0A3E0F579
:101F630020A3E0A3F5F010AF0885831985821880BC
:101F730008858319858218D2AFD082D083D0E0F848
:101F8300D0E03274048006740280027401C0E0F46D
:101F930004121D50D0E0121C262274048004740223
:101FA3008000CCC0E0EDC0E0E518C39CCCAD195077
:101FB300011D10AF068C188D1980068C188D19D24F
:101FC300AF121C33D0E0FDD0E0FC22D083D082E9F5
:101FD300C0E0E493A3C386F0C5F095F0F908E49359
:101FE300A386F0C5F095F0700BE493A3C399400565
:101FF300E9048002A3E475F002A42582F582E5F0EA
:102003003583F583D0E0F9E493A3C0E0E493C0E023
:1020130022D083D082ECC0E0EDC0E0E493A3FCE4E3
:1020230093A3FDED4C600D122060EC24FFFCED3416
:10203300FFFD80EFE493A3FCE493A3FDED4C600D5F
:1020430012209FEC24FFFCED34FFFD80EFD0E0FD78
:10205300D0E0FCE493A3C0E0E493C0E022C0E0C37B
:10206300E49396087401939618400FE493667008FE
:1020730008740193661870007019A3A3C3E49396C0
:10208300087401939618A3A3400DD0E0D0E0D0E0EC
:10209300022050A3A3A3A3A3A3D0E022C0E0C0F0D7
:1020A30088F0E4936670080874019366187000A8BA
:1020B300F0A3A3700BD0F0D0E0D0E0D0E00220502A
:0720C300A3A3D0F0D0E0223E
:1020CC0074F5121DE3EAFEEBFFEE2434F8EF340056
:1020DC00F988088909EE2435F582EF3400F583E0A0
:1020EC00F8EE2437F582EF3400F583E0F50AEC8541
:1020FC000AF0A4FCAAF0850AF0EDA42AFDE82CF85D
:10210C00E43DF97A257B00121C95EA850882850945
:10211C0083F0F8740758F97401B900028004C333D2
:10212C00D9FCFAE8131313541FF8EE28F8EF340017
:10213C00F9E8245DF582E93400F583E05A6008EE95
:10214C002434F582EF802CEE2434F582EF3400F544
:10215C0083E0C0E0EE2436F582EF3400F583E0F541
:10216C00F0D0E084A8F0EE28F8EF3400F9E8243839
:10217C00F582E93400F583E0F97F04021E8F74F5D3
:10218C00121DE3EAFEEBFFEE2434F582EF3400F58A
:10219C0083E0C0E0EE2435F582EF3400F583D0E027
:1021AC00F08E828F83A3A3A3A3A3A3A3C082C08317
:1021BC008E828F83A3A3A3A3A3E0F8A3E0F9D0831B
:1021CC00D082E0C398F508A3E099F509EE247FF5D9
:1021DC0082EF3400F583E064017069EE2480F582AF
:1021EC00EF3400F583E0F8A3E0F98E828F83A3A38C
:1021FC00A3A3A3A3A3E0FCA3E0FD8E828F83A3A3E0
:10220C00A3A3A3E0FAA3E0FBC3EA9CEB9D5010C38D
:10221C00EC98ED99402EC3EA98EB995027800EC3A9
:10222C00EA98EB994007C3EC98ED9940177CDC7D5C
:10223C0004EEFAEFFB120EFAEE247FF582EF340077
:10224C00F583E4F0EE2434F8EF3400F9E8FCE9FD12
:10225C00EE2435F582EF3400F583E0F8EE2437F503
:10226C0082EF3400F583E0F50AE508850AF0A4F561
:10227C0008AAF0850AF0E509A42AF509E82508F86A
:10228C00E43509F97A257B00121C95EA8C828D8342
:10229C00F0F8740758F97401B900028004C333D9FB
:1022AC00FCFAE8131313541FF8EE28F8EF3400F976
:1022BC00E8245DF582E93400F583E05A6008EE24E9
:1022CC0034F582EF802CEE2434F582EF3400F58364
:1022DC00E0C0E0EE2436F582EF3400F583E0F5F053
:1022EC00D0E084A8F0EE28F8EF3400F9E82438F5B3
:1022FC0082E93400F583E0F9122F07022185C082B0
:10230C00C083851882851983E0F8A3E0F9C3EA9CA1
:10231C00EB9D5010C3EC98ED99401BC3EA98EB99D8
:10232C005014800EC3EA98EB994007C3EC98ED99D2
:10233C004004790180027900D083D08222EAC39CC8
:10234C00FAEB9DFB2274EF121DE39003A2E06408EC
:10235C006005E06407702A9061C8E060249003D0A7
:10236C00E0F4601DE0F875F003A4C8AAF02AF97433
:10237C00D228FE740339FF8E828F83A3A3A3E0704F
:10238C0003022481906060E0C0E0EE2468F582EFE7
:10239C003400F583D0E0F0750C45750D057508001B
:1023AC00750900E5D914F50AE5D95403F50E601743
:1023BC007403650E605CE50A6010EE2467F582EF2D
:1023CC003400F583E07003022466900540E064015C
:1023DC00602AEE2482F582EF3400F583E060047805
:1023EC000480027800850A08E508C398FA95E0FB9A
:1023FC00120DC28A088B09EA450970051210FE807D
:10240C0074EE2482F582EF3400F583E070048A0CBC
:10241C008B0DE50A6012850C82850D83F50BE5D9D1
:10242C00F0A3150BE50B70F6EE2482F582EF340069
:10243C00F583E0604474FC250AF50A780C121F8AB7
:10244C00AC0AA90EEEFAEFFB120F967402121D36AF
:10245C00E97026AA08AB091218A2793D8E828F83E7
:10246C00A3A3A3A3E0FA7B00120C96EEFAEFFB12E7
:10247C000F12120FA8790080747403650E605685D4
:10248C000A107511007810121F8AAC0CAD0DAA0839
:10249C00AB09120F727402121D36EE2468F582EF2E
:1024AC003400F583E064807004747F8001E0F50CE7
:1024BC00780C121F8EE50EF50C780C121F8EA90AE3
:1024CC00AC08AD099003D0E0FA7B00120C5A7402F0
:1024DC00121D3680139003A2E06408600BAC0CADA7
:1024EC000DEEFAEFFB12100212110A79017F0A02AB
:1024FC001E8F74F5121DE374FC121D20EAFEEBFF17
:10250C008908A2AFE433F509C2AF806AEE2463F800
:10251C00EF3400F97A007B00A2AFE433F50AC2AFC6
:10252C0088828983E0FCA3E0FDEC4D603A888289C7
:10253C0083E0FAA3E0FB8A828B83E0FCA3E0FD88B6
:10254C00828983ECF0A3EDF08A828B83E4F0A3F014
:10255C0088828983E0FCA3E0FDEC4D700A888289B7
:10256C0083A3A3E4F0A3F0E50AA2E092AF1218A2B1
:10257C009004E3E004F0EE2463F582EF3400F5837D
:10258C00E0F8A3E0F9E849603DEE2463F582EF340E
:10259C0000F583E02402FAA3E03400FBEA2402F500
:1025AC000AEB3400F50B780A121F8A8A828B83E0BF
:1025BC00FCA3E0F9EEFAEFFB120F367402121D3693
:1025CC00E970030225189004E3E060639004E4E0F2
:1025DC00F89004E3E0C398500C74026508705090B6
:1025EC0004E5E0604A8E828F83A3A3A3A3E0851841
:1025FC0082851983F0A3E4F09004E3E0F8740212EE
:10260C001D6BE8F0A3E4F09004E3E0F89004E2E042
:10261C0028F07402121D6BAC82AD8385188285196B
:10262C0083AA82AB837901120C669004E3E4F0E593
:10263C0009A2E092AF7404121D360221850000003D
:10264C008521878522C622C0E0C0D0E8C0E0E9C061
:10265C00E0EAC0E0EBC0E0ECC0E0EDC0E0EEC0E0D2
:10266C00C008C009C00AC00BC082C083C0F0A2AFB2
:10267C00E433FEC2AF759B00906182E0A2E0501281
:10268C00E591A2E0500C7591FE7401652170031266
:10269C002351E0A2E55051E591A2E5504B7591DF35
:1026AC009003A2E064076005E06408702374016580
:1026BC0021703579019003D0E0FA75F003A4CAA813
:1026CC00F028FB74D22AFA74033BFB1224FE801808
:1026DC00E0640D70139003C4E004F064287002E40D
:1026EC00F07A00E0F9121110906182E0A2E640034A
:1026FC0002279AE591A2E6400302279A7591BF90B2
:10270C0003A2E06405700812103812104480031202
:10271C00103E75210012109EE99003A3F07900126F
:10272C001092120E707A017B009003A1E0F9121343
:10273C0062907803E064427055900544E014F070A8
:10274C004DC2AF12275200782AD0E0F618D0E0F62E
:10275C00E59F540770057509FF800375097FC4C098
:10276C00E07829E6F50808E65509F509740B7808B0
:10277C00121CFED0E02508F8906270E0A2E740F849
:10278C00E8C333906272F0906270E0D2E0F0906136
:10279C0081E0A2E35009E5E9A2E3500375E9F7A350
:1027AC00E0A2E75009E591A2E7500375917FEEA2F4
:1027BC00E092AFD0F0D083D082D00BD00AD009D029
:1027CC0008D0E0FED0E0FDD0E0FCD0E0FBD0E0FA99
:1027DC00D0E0F9D0E0F8D0D0D0E032C0E0C0D0C02A
:1027EC0082C083906183E0A2E05009E5BFA2E05073
:1027FC000375BFFEE0A2E15009E5BFA2E1500375ED
:10280C00BFFDE0A2E25009E5BFA2E2500375BFFB99
:10281C00E0A2E35009E5BFA2E3500375BFF7E0A2C5
:10282C00E45009E5BFA2E4500375BFEFE0A2E55008
:10283C0009E5BFA2E5500375BFDFE0A2E65009E54C
:10284C00BFA2E6500375BFBFD083D0828088C0E0A2
:10285C00C0D0E8C0E0E9C0E0EAC0E0EBC0E0ECC00A
:10286C00E0EDC0E0C0F0E5A7A2E6500FE5A1A2E6BE
:10287C00500953A7BF75A1BF1228BFE5A7A2E55009
:10288C000CE5A1A2E5500653A7DF75A1DFE5A7A2D1
:10289C00E15009E5A1A2E1500375A1FDE5A7A2E273
:1028AC00500CE5A1A2E2500653A7FB75A1FBD0F09A
:1028BC000227D074F8121DE37521019003A2E06485
:1028CC00067015120FC68A828B83A3A3A3A3A3A39E
:1028DC00E0FAA3E0FB121026A2AFE433FED2AF90D5
:1028EC0003A8E0640170187A207B009003A1E0F942
:1028FC001213F27A207B009003A1E0F91213689076
:10290C006182E0D2E6F0900541E0602185C622802C
:10291C00169003A7E064017008E5C654F84405F569
:10292C00C653BEFC12264C7401652160E4EEA2E095
:10293C0092AF7F01021E8F008E238F248582288503
:10294C008327851882851983E0CEA3E0CF85288262
:10295C00852783EBC9EAC8EDCBECCA75F010C3E848
:10296C0033C8E933C9EA33CAEB33CBC3EA9EF52645
:10297C00EB9FF525B35004AB25AA26EC33CCED33F5
:10298C00CDD5F0DAAE23AF242274E9121DE374F82E
:10299C00121D20851882851983ECF0A3EDF08A08AE
:1029AC008B099003A2E024F7C39405500675080127
:1029BC00022B2C120FC68A0A8B0BAE0AAF0BEE4FF2
:1029CC007003022B29AC08AD097402121D6BAA828C
:1029DC00AB831210568E828F83A3A3750CFF750DDB
:1029EC00FF750EFF750F00780C121BCA7402121DB6
:1029FC006B7510FF7511FF7512FF751300781012AF
:102A0C001BCA780C79101219EF502A780C79101215
:102A1C001B8F7508017509C8750A00750B007808BD
:102A2C00790C1219EF5052850C08850D09850E0A88
:102A3C00850F0B80507514017515C8751600751728
:102A4C000085100885110985120A85130B78087901
:102A5C000C121B8F781479081219EF401C750800A2
:102A6C00750900750A00750B0178087910121B8F17
:102A7C007808790C121B56800C75080175090075C5
:102A8C000A00750B0074097808121B37750C19F5C0
:102A9C000DF50EF50F7808790C121AAE8E828F8315
:102AAC00A3A3A3A3A3A3E0F8A3E0F97AD07B03121A
:102ABC001C95880C890DE4F50EF50F7808790C122D
:102ACC001B567406121D6BE0F8A3E0F97AD07B0359
:102ADC00121C95E8FA8A0CE4F50D7808790C121999
:102AEC00EF50077808790C121B8F9003A2E0640852
:102AFC00600AE064066005E06405702D750C0D78C5
:102B0C000C79081219EF4021750CF4750DFF750E38
:102B1C00FF750FFF7808790C121B56800C75080096
:102B2C00750900750A00750B00851882851983E0FC
:102B3C00F8A3E0F58388827808121BFF7408121D35
:102B4C00367F10021E8F74F7121DE3121068900569
:102B5C003FE064017010906245E4F0A3F053F4F38D
:102B6C0043FE0C5390F3121014E5C654804449F5FF
:102B7C00C6E59E547F644970F8906185740FF0909F
:102B8C00053DE0F47002A3E0604E90053EE0600865
:102B9C0014601B14602E80407508017509009005A7
:102BAC003DE07808121D0DE508F45280802A750866
:102BBC000175090090053DE07808121D0DE508F43B
:102BCC005290801475080175090090053DE0780855
:102BDC00121D0DE508F452A079007F02021E8F74BD
:102BEC00F7121DE3E9FEEAFF74016E700C7A807B2C
:102BFC00009003A1E0F9121362902FC4E493F460E7
:102C0C0008E493F9120E64800953C680E59E547F44
:102C1C0070FA12101A90053FE064017003120E7CDA
:102C2C0090053DE0F47002A3E0604B90053EE0603F
:102C3C000814601A14602C803D7508017509009009
:102C4C00053DE07808121D0DE508428080287508C6
:102C5C000175090090053DE07808121D0DE508424C
:102C6C0090801375080175090090053DE0780812F5
:102C7C001D0DE50842A0121068120FC68A088B09B8
:102C8C00A808A909E8496015E5E170FCE82414F5E9
:102C9C0082E93400F583E0F46003E0F5E174016F40
:102CAC00700A7A019003A1E0F91213BC022BE674AE
:102CBC00ED121DE38A088B098C0A8D0B7413121DFF
:102CCC006B780C121BF07808790C1219EF75100147
:102CDC007511C875120075130050127808790C1212
:102CEC001B8F781079081219EF50168010780C7918
:102CFC0008121B8F7810790C1219EF40047901809F
:102D0C000279007F0C021E8F74ED121DE38A088B72
:102D1C00098C0A8D0B7413121D6B780C121BF07836
:102D2C000C79081219EF40117808790C121B8FAA34
:102D3C0008AB09AC0AAD0B8022751000751100753B
:102D4C0012007513017810790C121B8F781079080A
:102D5C00121B56AA10AB11AC12AD1380A68A828B33
:102D6C00837508FF7509FF750AFF750B007808124B
:102D7C001BDD7F04021E8F74F5121DE38C828D8384
:102D8C007808121BF08A828B837808121BA3EA2422
:102D9C0004F8EB3400F98C828D83A3A3A3A3E0FC8D
:102DAC00A3E0FD88828983C3E09CF0A3E09DF088BA
:102DBC00828983C3E09420A3E0944E40268A828BC0
:102DCC00837508FF7509FF750AFF750BFF780812EC
:102DDC001B7C8A828B83A3A3A3A3E02420F0A3E013
:102DEC00344EF0022D6974F5121DE3E9FE9004F7E0
:102DFC00E0FAA3E0FBEEC333F8E433F974F528F5FD
:102E0C0082748039F583E02AF508A3E03BF5097854
:102E1C0008121F8A7A407B427C0F7D001229447471
:102E2C0002121D368A088B098C0A8D0B74107808D7
:102E3C00121B1EAA08AB097F04021E8F74F1121D0F
:102E4C00E38A0C8B0D8C0E8D0F740F121D6BE0FA38
:102E5C00A3E0FB7411121D6BE0F508A3E0F50978F3
:102E6C0008121F8AEA2401F508EB3400F509E4F591
:102E7C000AF50B780C7908121A2E7508717509026F
:102E8C00780C7908121A2EAA0CAB0DAC0EAD0F12E1
:102E9C0029447402121D368B09EA450960047A0133
:102EAC0080027A00EC2AFCED3400FD7413121D6BC9
:102EBC00E0F8A3E0F9E8FEE9FFECF8EDF97A717BB4
:102ECC0002121C95880889098E828F837808121B40
:102EDC00FFECF8EDF97A717B02121C958A088B09CC
:102EEC0074057808121D0D8E828F83A3A3A3A3E50E
:102EFC0008F0A3E509F07F08021E8FC082C083E9A9
:102F0C00906000F0D083D08222C2AF02000022C0B9
:102F1C00E074F2121ECFA2AFE433FED2AFE589A269
:102F2C00E05003121788758900C2C5EEF8EEA2E0D6
:102F3C0092AF7F01021F2EC0E074F2121ECFA2AF1F
:102F4C00E433FED2AFE58AA2E64006E58AA2E7505A
:102F5C0003121788758A00758A00C2EBEEF8EEA290
:102F6C00E092AF7F01021F2EC0E0C0D0E8C0E0E9C4
:102F7C00C0E0A2AFE433F8D2AF758B00C2E8E8F939
:102F8C00E8A2E092AFD0E0F9D0E0F8D0D0D0E032B7
:102F9C00C0E0C0D0E8C0E0E9C0E0A2AFE433F8D2B2
:102FAC00AFC2C7751A00E8F9E8A2E092AFD0E0F919
:102FBC00D0E0F8D0D0D0E032FFFFFFFFFFFFFFFFE3
:102FCC0074EE121D7774FA121D208A0A8B0B890974
:102FDC00ECFEEDFF750800850A0C850B0D780C12C4
:102FEC001FCE000410A53215303630553076309790
:102FFC0030B830EB300C31233151310F323032508C
:10300C00327A32A532A5327C317401650970158E85
:10301C00828F83E0C39403500B8E828F83E0900DDC
:10302C00AEF080037508180232CE74026509701375
:10303C008E828F83E0F8A3E0F9900DAFE8F0A3E95E
:10304C00F080037508180232CE7401650970158E74
:10305C00828F83E0C39402500B8E828F83E09007A3
:10306C00C0F080037508180232CE74016509701522
:10307C008E828F83E0C39405500B8E828F83E090F9
:10308C0007C1F080037508180232CE74016509700F
:10309C00158E828F83E0C39402500B8E828F83E057
:1030AC009007C2F080037508180232CE74106509BF
:1030BC007027750C10750D00780C121F8AEEFCEF42
:1030CC00FD7AC37B0712130E7402121D368A0C8B09
:1030DC000D850C82850D8380037508180232CE7421
:1030EC0001650970158E828F83E0C39402500B8E9C
:1030FC00828F83E09007D3F080037508180232CEDC
:10310C0074016509700B8E828F83E0900DB2F08094
:10311C00037508180232CE74046509702290835C22
:10312C00780C121BF08E828F83780C1219FF500FC3
:10313C008E828F83121C0E9007D5121C1A80037579
:10314C0008180232CEE5097021120A14E970131224
:10315C0015D2E9F50C795012192CE9F50D1215C0A0
:10316C00800B9008687401F080037508180232CE49
:10317C00740765096003023209750E06750F007835
:10318C000E121F8A8E828F83A3AC82AD83740212BF
:10319C001D6BAA82AB831213147402121D368A1093
:1031AC008B1185100E85110F7C007D008518828592
:1031BC001983AA82AB838E828F83E0F9121566E99C
:1031CC00F50CE50CC3940A502F120A14E97015A9DA
:1031DC000C1215D8E9F50D795012192CE9F50E12CF
:1031EC0015C0801C750D007469250CF582740835AA
:1031FC000DF5837401F080087508028003750818BA
:10320C000232CE7401650970158E828F83E0C394EF
:10321C0002500B8E828F83E09007D4F080037508E8
:10322C00180232CE7401650970158E828F83E0C34B
:10323C00940A500B8E828F83E0900DB1F080037551
:10324C000818807E74016509701F8E828F83E0C31D
:10325C00940740158E828F83E0C39411500B8E829D
:10326C008F83E0900DB3F080597508188054740169
:10327C0065097020900867E0F50C8E828F83E090D2
:10328C000867F0E50C703B900867E064017033123E
:10329C0015C0802E7508188029C3E50A9427E50B04
:1032AC009400501B7402650970158E828F83E0FCAC
:1032BC00A3E0FDAA0AAB0B1208B2E9F5088003756E
:1032CC000802A9087406121D367F0A021E4974EC06
:1032DC00121D7774DA121D20890D8A128B138C0A39
:1032EC008D0B743A121D6BE0F50C90831CC082C0E0
:1032FC0083851882851983AC82AD83D083D0827488
:10330C0006121C33851882851983AC82AD83AA12F0
:10331C00AB13A90D121566E9FEEEC3940A40030225
:10332C003479EEF91215A2E9FF900DAEE06402704B
:10333C0004740180027400F5087808121F8EAD0C1D
:10334C00EFFCEEF9AA0AAB0B1216147401121D361F
:10335C007C147D0079007412121D6BAA82AB83124F
:10336C0013268A0E8B0F850E08850F097412121DF9
:10337C006BAC82AD837A1075F006EEA42424F9129E
:10338C001926E970437C1079FF7412121D6BAA8206
:10339C00AB83121386E970307422121D6BAC82ADB4
:1033AC00837A0475F006EEA42425F9121926E9F5A2
:1033BC00087412121D6BAC82AD83EFA2E0E433F9FA
:1033CC00AA0AAB0B12093CE97406121D6BAC82AD58
:1033DC00837A0C74702EF9121926E9707E74061219
:1033EC001D6BAA82AB83121596750E00E50EC39465
:1033FC00045068E50EA80E7900E875F003A4C8AA7D
:10340C00F075F000A42AFA75F003E9A42AF9740601
:10341C00121D6BE58228F508E58339F509850882CC
:10342C00850983E0F8A3E0F9E849602B85088285DB
:10343C000983A3A3E0F5107511007810121F8A857B
:10344C000882850983E0FCA3E0FDAA0AAB0B120BF2
:10345C00A07402121D36E9050E8091EFA2E1500D09
:10346C009007BFE0F9AA0AAB0B120BA6E97404652E
:10347C000C700F900DAEE064027007AA0AAB0B1231
:10348C00160E79007426121D367F0C021E4974F23A
:10349C00121D77890BEAFEEBFF8C088D09750A0A61
:1034AC00E50B600C14600914604414606402353E32
:1034BC00EEFAEFFB1215B4E9F50AE50AC3940A50CB
:1034CC0071E5084509606B750C06750D00780C12DA
:1034DC001F8AEEFCEFFDAA08AB0912130E74021240
:1034EC001D368A0C8B0D850C82850D838044EEFA7B
:1034FC00EFFB1215AEE9F50AE50AC3940A5033E561
:10350C00084509602DAA08AB09A90A1215A8E9807B
:10351C0021EEFAEFFB1215BAE9F50AE50AC3940A93
:10352C005010E5084509600AAA08AB09A90A12154A
:10353C00A8E9A90A7F06021E4974F2121D778A0CAB
:10354C008B0DE9FE7F1574FF650C700474FF650D1F
:10355C00702A750800E508C3940A5014EEFC7A0230
:10356C007B00A908121584E960027F00050880E53C
:10357C00EE60637AFC7B15120DA4805AAA0CAB0D7D
:10358C00120D868A0A8B0B850A08850B09E50845FE
:10359C000960417C007D00E5082405FAE50934004A
:1035AC00FB850882850983A3A3A3A3E0F912156602
:1035BC00E9F50AE50AC3940A500EEEFC7A027B0088
:1035CC00A90A121584E97F00EE600BAA08AB091258
:1035DC0015FC80027F14EFF97F06021E4974EE126F
:1035EC001D778A0E8B0F8C0A8D0B7412121D6BE0DB
:1035FC00F50CA3E0F50D75081574FF650E700474D9
:10360C00FF650F701E7E00EEC3940A5062AC0CADC9
:10361C000DAA0AAB0BEEF912158AE96003750800C6
:10362C000E80E4AA0EAB0F120D868A108B11AE1011
:10363C00AF11EE4F60367C007D00EE2405FAEF34BE
:10364C0000FB8E828F83A3A3A3A3E0F9121566E976
:10365C00F509E509C3940A5016AC0CAD0DAA0AABDA
:10366C000BA90912158AE97508008003750814A9BD
:10367C00087F0A021E4974F7121D77EAFEEBFF90D1
:10368C0007D9EEF0A3EFF09007BFE0FC7D007A269F
:10369C007B001208B2E9F5089007BFE0F9120B1C89
:1036AC007F01021E4974F2121D7774EC121D208AE0
:1036BC000A8B0B850A82850B83A3A3E024FA700383
:1036CC00023B1124FD70030239871470030237A4E6
:1036DC0014601024FD700302392F1470030239C7D3
:1036EC00023B7FAE0AAF0B9007D9E0F8A3E0F9E8F4
:1036FC004960699007D9E0F8A3E0F5838882E0F887
:10370C00A3E0F9E8496055EE240CF582EF3400F59E
:10371C0083E0F5087808121F8EEE240BF582EF3447
:10372C0000F583E0F98E828F83A3A3A3A3A3A3A3A5
:10373C00A3A3E0FCA3E0FDEE2403FAEF3400FB901E
:10374C0007D9E0F8A3E0F5838882E0F8A3E0F583DD
:10375C008882121D757401121D3680398E828F83FA
:10376C00A3A3A3A3A3A3A3A3A3121FA19007D51242
:10377C001C0E12094E7402121D36E9601879018E66
:10378C00828F83A3A3A3A3A3A3A3A3A3E0FAA3E081
:10379C00FB120948E9023B7FAE0AAF0B8E828F8386
:1037AC00A3E060030238DD8E828F83A3A3A3A3A3BF
:1037BC00E0A2E040030238DD900873E0F8A3E0F9E2
:1037CC00E84960030238DD7C0E7D007900851882A3
:1037DC00851983AA82AB831213268A088B09AA083F
:1037EC00AB09EE240CF582EF3400F583E0F8A3E08E
:1037FC00F9E849603B7508067509007808121F8ABC
:10380C00EE240CF582EF3400F583E02410FCA3E0E9
:10381C003400FD7402121D6BAA82AB8312130E745A
:10382C0002121D368A088B0985088285098380540B
:10383C008E828F83A3A3A3E0FAA3E0FB120D868AEA
:10384C000C8B0D850C08850D09E508450960327552
:10385C000C06750D00780C121F8AE5082405FCE592
:10386C00093400FD7402121D6BAA82AB8312130E75
:10387C007402121D368A0C8B0D850C82850D83808B
:10388C0003023B7F8E828F83A3A3A3A3A3E0A2E2B8
:10389C005004D2F08002C2F0A2F0E433F879007444
:1038AC000C121D6BE048F0A3E049F0EEFCEFFD8537
:1038BC001882851983AA82AB8312159CE970127A3F
:1038CC00027B009007BFE0F9121362E97900023B1A
:1038DC00819007D9E0F8A3E0F9E84960439007D953
:1038EC00E0F8A3E0F5838882A3A3E0F8A3E0F9E86D
:1038FC0049602D8E828F83A3E0FC79018E828F83A9
:10390C00A3A3A3E0FAA3E0FB9007D9E0F8A3E0F5AA
:10391C00838882A3A3E0F8A3E0F5838882121D7547
:10392C00023B7FAE0AAF0B9007D9E0F8A3E0F9E8B1
:10393C004960459007D9E0F8A3E0F5838882A3A3FA
:10394C00E0F8A3E0F9E849602F850A82850B83A390
:10395C00E0FC79028E828F83A3A3A3E0FAA3E0FBA1
:10396C009007D9E0F8A3E0F5838882A3A3E0F8A33D
:10397C00E0F5838882121D75023B7FAE0AAF0B7C8B
:10398C00007D00EE2404FAEF3400FB8E828F83A3BB
:10399C00A3A3E0F9121566E9F508E508C3940A50EB
:1039AC0017EE240AFCEF3400FD7A0475F006E508E6
:1039BC00A42425F9121920E9023B7FAE0AAF0B9023
:1039CC0007D4E06018900DB1E0F98E828F83A3A329
:1039DC00A3E0FAA3E0FB120948E9023B7F900DAE8D
:1039EC00E0701579058E828F83A3A3A3E0FAA3E080
:1039FC00FB120948E9023B7F8E828F83A3A3A3E0CD
:103A0C00FAA3E0FB120D868A0C8B0D850C08850D34
:103A1C00098E828F83A3A3A3A3A3A3A3E0A2E05048
:103A2C0075E5084509606C850882850983A3A3A305
:103A3C00A3E060628E828F83A3A3A3A3A3A3A3A3FB
:103A4C00A3E0F8A3E0F9E8C4540FF879005401F8A6
:103A5C00E95400F9E8A2E0403D740E121D6BAC82F3
:103A6C00AD83E5082405FAE5093400FB8508828559
:103A7C000983A3A3A3A3E0F9121566E970187903CF
:103A8C008E828F83A3A3A3E0FAA3E0FB120948E97B
:103A9C00023B7F023B7FEE2405FCEF3400FD8508E2
:103AAC0082850983A3A3A3A3E0F98E828F83A3A3AA
:103ABC00A3E0FAA3E0FB1216089007D9E0F8A3E004
:103ACC00F9E849603E9007D9E0F8A3E0F5838882D5
:103ADC00A3A3E0F8A3E0F9E84960287C0079008E04
:103AEC00828F83A3A3A3E0FAA3E0FB9007D9E0F8AD
:103AFC00A3E0F5838882A3A3E0F8A3E0F583888292
:103B0C00121D75806E120A14E97068900868E064E2
:103B1C0001701A1215D2E9FE9008687400F07C0A44
:103B2C007D0079007A697B08121326803C7E00EEBA
:103B3C00C3940A50348E0875090074692508F582FF
:103B4C0074083509F583E06401701BEEF91215D881
:103B5C00E9F88E0875090074692508F58274083532
:103B6C0009F5837400F00E80C6795012192CE9FE09
:103B7C001215C079017414121D367F06021E497489
:103B8C00F3121D7774F2121D208909EAFEEBFF8CEB
:103B9C000C851882851983AC82AD837A0E75F0067C
:103BAC00E509A42420F9121926E970727C0679FF24
:103BBC00851882851983AA82AB83121386E9705EFD
:103BCC00740C121D6BE0F8A3E0F9E8F508E50C6045
:103BDC0005EE42088004EEF4520885080A750B00C5
:103BEC00740C121D6BE0650A7004A3E0650B602A6F
:103BFC00E508A8087900740C121D6BE508F0A3E920
:103C0C00F0851882851983AC82AD837A0E75F00627
:103C1C00E509A42420F9121920E979018002790020
:103C2C00740E121D367F05021E4974F0121D777436
:103C3C00E6121D20890B8A0C8B0DECFEEDFF740C2B
:103C4C00121D6BAC82AD837A0E75F006E50BA424C5
:103C5C0020F9121926E96003023D9A7C0679FF745B
:103C6C000C121D6BAA82AB83121386E96003023D12
:103C7C009A851882851983AC82AD837A0C74702571
:103C8C000BF9121926E96003023D96750A00851896
:103C9C0082851983AA82AB83121596E50C450D70AB
:103CAC003A7C0C7900851882851983AA82AB831221
:103CBC001386E96003023D707C0C7D007900851849
:103CCC0082851983AA82AB831213268A088B0985F5
:103CDC000882850983750A01023D70851882851951
:103CEC0083AC82AD83AA0CAB0D1215908A0E8B0F90
:103CFC00850E08850F09E50845097036EE4F6021E1
:103D0C00851882851983AC82AD837A007B001215ED
:103D1C00908A0E8B0FA80EA90F88088909E84970A4
:103D2C00047900806B850882850983E50CF0A3E596
:103D3C000DF0850882850983A3A3E0F87900EE686D
:103D4C007002EF69601EEE850882850983A3A3F0DB
:103D5C00EE4F700D8508828509837400F0A3740002
:103D6C00F0750A01E50A6022851882851983AA82FA
:103D7C00AB83121596851882851983AC82AD837A34
:103D8C000C7470250BF9121920E979018002790065
:103D9C00741A121D367F08021E4974F7121D77EA39
:103DAC00FEEBFF7B00EBC39404504EEBF87900E87C
:103DBC0075F003A4C8AAF075F000A42AFA75F003F4
:103DCC00E9A42AF9EC28F582ED39F583E06E70034D
:103DDC00A3E06F7021EBF87900E875F003A4C8AA92
:103DEC00F075F000A42AFA75F003E9A42AF9EC287E
:103DFC00FAED39FB80070B80AC7A007B007F010267
:103E0C001E4974F7121D777F00EFC3940440030220
:103E1C003EBDEFF87900E875F003A4C8ACF075F07E
:103E2C0000A42CFC75F003E9A42CF9EA28F582EB2C
:103E3C0039F583E0F4FCA3E0F4FDEFF87900E875C4
:103E4C00F003A4C8AEF075F000A42EFE75F003E9E3
:103E5C00A42EF9EA28F582EB39F583ECF0A3EDF00A
:103E6C00EFF87900E875F003A4C8ACF075F000A485
:103E7C002CFC75F003E9A42CF9EA28F582EB39F552
:103E8C0083A3A3E0F4C0E0EFF87900E875F003A495
:103E9C00C8ACF075F000A42CFC75F003E9A42CF967
:103EAC00EA28F582EB39F583A3A3D0E0F00F023EAC
:103EBC00157F01021E4974F0121D7774F4121D2037
:103ECC00EAFEEBFF8C088D09900873E0F8A3E0F98B
:103EDC00E849702CEE4F6006E5084509700579013C
:103EEC0002417AEEFAEFFB1215B4E9900DB4F090A2
:103EFC000DB4E0C3940A40081215C6E9900DB4F055
:103F0C00900DB4E0C3940A4003024178900873E02A
:103F1C00F8A3E0F9E8496003023FC4EEFCEFFD7A38
:103F2C000E75F006900DB4E0A42420F9121920E9C6
:103F3C00F50C7C0C7D0079FF851882851983AA828B
:103F4C00AB831213268A0E8B0F850E0A850F0B85F9
:103F5C001882851983AC82AD837A0C900DB4E02461
:103F6C0070F9121920E9F50D750E0E750F00780E0B
:103F7C00121F8AEEFCEFFD900DB4E0F87900E875A5
:103F8C00F00EA4C8AAF075F000A42AFA75F00EE998
:103F9C00A42AF974DB28FA740739FB12130E740285
:103FAC00121D368A0E8B0FA80EA90F900873E50808
:103FBC00F0A3E509F0024174900873E0F8A3E0C89F
:103FCC002406F582E83400F583E0F8A3E0F9E8492B
:103FDC006043900873E0F8A3E0C82406F582E83447
:103FEC0000F583E0FCA3E0FD7A1B75F006900DB4A0
:103FFC00E0A42421F9121920E9F8900873E0F9A340
:10400C00E0C92406F582E93400F5837400F0A3744A
:10401C0000F0024174900873E0F8A3E0C8240AF59C
:10402C0082E83400F583E0F8A3E0F9E849604390B6
:10403C000873E0F8A3E0C8240AF582E83400F5839D
:10404C00E0FCA3E0FD7A1B75F006900DB4E0A4240F
:10405C0022F9121920E9F8900873E0F9A3E0C924B9
:10406C000AF582E93400F5837400F0A37400F002C1
:10407C004174900873E0F8A3E0C8240CF582E8348E
:10408C0000F583E0F8A3E0F9E8496043900873E099
:10409C00F8A3E0C8240CF582E83400F583E0FCA317
:1040AC00E0FD7A1075F006900DB4E0A42423F9120B
:1040BC001920E9F8900873E0F9A3E0C9240CF58203
:1040CC00E93400F5837400F0A37400F0024174909D
:1040DC000873E0F8A3E0C82408F582E83400F583FF
:1040EC00E0F8A3E0F9E849606F900873E0F8A3E00A
:1040FC00C82408F582E83400F583E0FCA3E0FD7ADF
:10410C001075F006900DB4E0A42424F9121920E9DE
:10411C00F50A900873E0F8A3E0C82408F582E834A7
:10412C0000F583E02410FCA3E03400FD7A0475F064
:10413C0006900DB4E0A42425F9121920E9F8900892
:10414C0073E0F9A3E0C92408F582E93400F583741F
:10415C0000F0A37400F08010900867E06003121662
:10416C001A12160279018006790080027901740C0A
:10417C00121D367F08021E4974F7121D7774F21255
:10418C001D20E9FE851882851983AC82AD837A0ED9
:10419C0075F006A42420F9121926E9700E740C127D
:1041AC001D6BE0F8A3E0F9E8F980027900740E12B7
:1041BC001D367F01021E4974F4121D7774F2121D14
:1041CC00208909EAFEEBFFE509C3940A5004EE4F7F
:1041DC0070047902804B851882851983AC82AD837B
:1041EC007A0E75F006E509A42420F9121926E9F5D2
:1041FC0008E508702A750A06750B00780A121F8AE2
:10420C007402121D6BAC82AD83EEFAEFFB12130E2F
:10421C007402121D368A0A8B0B850A82850B83A9C0
:10422C0008740E121D367F04021E4974F4121D7799
:10423C00EAFEEBFF750800E508C3940A5045750AC1
:10424C0006750B00780A121F8AEEFCEFFDE508A834
:10425C00087900E875F00EA4C8AAF075F000A42A3D
:10426C00FA75F00EE9A42AF974E128FA740739FBFF
:10427C001213207402121D36E96004A90880060589
:10428C000880B4790A7F04021E4974F4121D77EA7F
:10429C00FEEBFF750800E508C3940A5045750A0645
:1042AC00750B00780A121F8AEEFCEFFDE508A808D2
:1042BC007900E875F00EA4C8AAF075F000A42AFAEB
:1042CC0075F00EE9A42AF974DB28FA740739FB128D
:1042DC0013207402121D36E96004A9088006050833
:1042EC0080B4790A7F04021E4974F7121D7774F0AA
:1042FC00121D20EAFEEBFF750800E508C3940A5076
:10430C004B851882851983AC82AD837A1075F006C3
:10431C00E508A42423F9121926E9702C7C1079FFE6
:10432C00851882851983AA82AB83121386E97018CB
:10433C00EEFCEFFD851882851983AA82AB831209E6
:10434C001EE97004A9088006050880AE790A74106D
:10435C00121D367F01021E4974F4121D7775080078
:10436C00E508C3940A4003024446E508A80879000E
:10437C00E875F00EA4C8AAF075F000A42AFA75F03E
:10438C000EE9A42AF974DB28FC740739FD7A0E7542
:10439C00F006E508A42420F9121926E9700302445A
:1043AC00417C067D0079FFE508AA087B00EA75F0E0
:1043BC000EA4CAA8F075F000A428F875F00EEBA4B2
:1043CC0028FB74DB2AFA74073BFB1213268A0A8B30
:1043DC000BAE0AAF0B7C067D0079FFE508AA087BC3
:1043EC0000EA75F00EA4CAA8F075F000A428F875C0
:1043FC00F00EEBA428FB74E12AFA74073BFB1213B2
:10440C00268A0A8B0BAC0AAD0BE508A8087900E8E4
:10441C0075F00EA4C8AAF075F000A42AFA75F00E77
:10442C00E9A42AF974E728F582740739F583740036
:10443C00F0A37400F0050802436C900867E0600379
:10444C0012161A1216027F04021E4974F7121D77F7
:10445C007E00EEC3940A50327C0679FFEEFA7B00A4
:10446C00EA75F00EA4CAA8F075F000A428F875F04F
:10447C000EEBA428FB74DB2AFA74073BFB121386A1
:10448C00E96004EEF980050E80C8790A7F01021EEE
:10449C004974F7121D777E007F00EFC3940A502FEA
:1044AC007C0679FFEFFA7B00EA75F00EA4CAA8F03F
:1044BC0075F000A428F875F00EEBA428FB74DB2A29
:1044CC00FA74073BFB121386E970010E0F80CBEEDA
:1044DC00F97F01021E4974F7121D777E007F00EFF1
:1044EC00C3940A500DEE700AEFF91215D8E9FE0FBD
:1044FC0080EDEEF97F01021E4974F0121D7774CB2A
:10450C00121D208909900DB4E06509701D7A017B9C
:10451C00009007BFE0F9121368E97A027B0090075C
:10452C00BFE0F9121368E91216267427121D6BAC42
:10453C0082AD837A0E75F006E509A42420F91219D0
:10454C0026E960030246717C0679FF7427121D6B05
:10455C00AA82AB83121386E960030246717C0E7D3E
:10456C000079FF7427121D6BAA82AB831213268A63
:10457C000A8B0B850A0C850B0D7C1B7D0079FF7457
:10458C000C121D6BAA82AB831213268A0E8B0F851D
:10459C000E0A850F0B7C0C7D0079FF85188285191E
:1045AC0083AA82AB831213268A0E8B0FAE0EAF0F2B
:1045BC007427121D6BAC82AD837A0E75F006E5097B
:1045CC00A42420F9121920E9F508740C121D6BAC07
:1045DC0082AD837A1B75F006E509A42421F9121922
:1045EC0020E94208740C121D6BAC82AD837A1B75EA
:1045FC00F006E509A42422F9121920E94208740CEA
:10460C00121D6BAC82AD837A1075F006E509A424FB
:10461C0023F9121920E94208740C121D6BAC82ADFF
:10462C00837A1075F006E509A42424F9121920E9FF
:10463C004208740C121D6BAC82AD837A0475F006C3
:10464C00E509A42425F9121920E942088518828568
:10465C001983AC82AD837A0C74702509F912192078
:10466C00E942088003750800A9087435121D367FCD
:10467C0008021E4974F7121D77E9FE9007BFF0126D
:10468C0015C07F01021E4974F2121D77890AEAFED9
:10469C00EBFFEE5400F8EF5480F9E84960359007D1
:1046AC00BFE0F912134A8A0C8B0DA80CA90D8808CF
:1046BC008909E8496012AA08AB091215EAE96008F1
:1046CC00AA08AB09121338E9EE6400FAEF6480FB18
:1046DC00024797EE5402602D7C007D007A007B002F
:1046EC0012159CE960187A017B009007BFE0F91263
:1046FC001362E9EE6402FAEF6400FB0247977A0258
:10470C007B00024797EEA2E0507D900873E0F8A37F
:10471C00E0F5838882A3A3A3E0FAA3E0FB121620A2
:10472C00E9605E9007D9E0F8A3E0F9E849604590AC
:10473C0007D9E0F8A3E0F5838882A3A3E0F8A3E00F
:10474C00F9E849602F7C007901900873E0F8A3E048
:10475C00F5838882A3A3A3E0FAA3E0FB9007D9E03A
:10476C00F8A3E0F5838882A3A3E0F8A3E0F583889F
:10477C0082121D75121626EE6401FAEF6400FB809E
:10478C000A7A017B0080047A007B007F06021E49B6
:10479C0074F7121D77EAFEEBFF7508018E828F838A
:1047AC00E02450601314601924E1701CEEFAEFFB46
:1047BC0012157EE9F5088010EEFAEFFB1215F08069
:1047CC0007EEFAEFFB1215F6A9087F01021E4974D9
:1047DC00F7121D77EAFEEBFF8E828F83A3A3A3A3B0
:1047EC00E0641E701179008E828F83A3A3E0FAA37C
:1047FC00E0FB12156CE97F01021E4974F6121D775D
:10480C00EAFEEBFF8E828F83A3A3A3A3E0703A8E04
:10481C00088F09850882850983A3A3A3A3A3A3A357
:10482C00121FA1850882850983A3A3A3A3A3E0FC7F
:10483C00A3E0FD850882850983A3A3E0FAA3E0FB2E
:10484C001215727402121D36E97F02021E4974F7AA
:10485C00121D77EAFEEBFF9007BFE0F98E828F8383
:10486C00A3E0FAA3E0FB120BA6E97F01021E49C0EC
:10487C0082C08374FF121D201215CCE9C394024030
:10488C000B8518828519837402F08009851882853E
:10489C001983740AF0851882851983AC82AD837AEA
:1048AC00017905120A2CE97401121D36D083D082CD
:1048BC0002013574F2121D7774E8121D20EAFEEB2A
:1048CC00FF890A8C088D097C187D00790085188277
:1048DC00851983AA82AB831213268A0C8B0DAC0C20
:1048EC00AD0D851882851983EEF0A3EFF09007C10A
:1048FC00E0C0E07402121D6BD0E0F09007C2E0C083
:10490C00E07403121D6BD0E0F0900DB3E0C0E074C6
:10491C0017121D6BD0E0F07415121D6BE054FEF8ED
:10492C00A3E054FFF9900DB2E0A2E0E433FA7B006F
:10493C00E84AF8E94BF97415121D6BE8F0A3E9F09D
:10494C00900DB2E0A2E15004D2F08002C2F07415D6
:10495C00121D6BE054FDFAA3E054FFFBA2F0E4330C
:10496C00F87900C333F8E933F9EA48F8EB49F974FC
:10497C0015121D6BE8F0A3E9F0900DB2E0A2E35024
:10498C0004D2F08002C2F07415121D6BE054F7FAD9
:10499C00A3E054FFFBA2F0E433F50C750D00740397
:1049AC00780C121D0DEA450CF8EB450DF974151237
:1049BC001D6BE8F0A3E9F0900DB2E0A2E45004D234
:1049CC00F08002C2F07415121D6BE054EFFAA3E0F4
:1049DC0054FFFBA2F0E433F50C750D007404780C55
:1049EC00121D0DEA450CF8EB450DF97415121D6BF3
:1049FC00E8F0A3E9F0900DB2E0A2E55004D2F0800B
:104A0C0002C2F07415121D6BE054DFFAA3E054FFE0
:104A1C00FBA2F0E433F50C750D007405780C121D37
:104A2C000DEA450CF8EB450DF97415121D6BE8F009
:104A3C00A3E9F0900DB2E0A2E25004D2F08002C2E1
:104A4C00F07415121D6BE054FBFAA3E054FFFBA2AB
:104A5C00F0E433F50C750D007402780C121D0DEAA0
:104A6C00450CF8EB450DF97415121D6BE8F0A3E934
:104A7C00F09007C2E0602A750C10750D00780C12CE
:104A8C001F8A7CC37D077406121D6BAA82AB83122E
:104A9C00130E7402121D368A0C8B0D850C82850D3B
:104AAC00839007D3E06012E50A600E7415121D6B3B
:104ABC00E04402F0A3E04400F09007D3E0600678F5
:104ACC000179008004780079007414121D6BE048A1
:104ADC00F09007C0E06006780479008004780079D3
:104AEC00007414121D6BE048F0AC08AD09851882F7
:104AFC00851983AA82AB83120942E97418121D36F8
:104B0C007F06021E4974F7121D77EAFEEBFF75084B
:104B1C00009007D3E0600678017900800478007972
:104B2C0000E842089007C0E0600678047900800431
:104B3C0078007900E84208A908EEFAEFFB1209FCAC
:104B4C00E97F01021E4974EE121D7774E5121D20D7
:104B5C008A0C8B0DE9FF8C088D09742D121D6BE0EE
:104B6C00F50A74086509700A75F006EFA42422FE94
:104B7C00800875F006EFA42421FE7C1B7D007900D3
:104B8C00851882851983AA82AB831213268A108B0F
:104B9C001185100E85110F851882851983AC82AD95
:104BAC00837A1BEEF9121926E9703C741A121D6BEC
:104BBC00E0C394074031741A121D6BE0C39411507A
:104BCC0026E50AF50B780B121F8E7401121D6BACC7
:104BDC0082AD83E508A2E0E433F9AA0CAB0D12090F
:104BEC00547401121D36E9741B121D367F0A021E05
:104BFC004974F7121D77120C1EE97E00EEC3940A5D
:104C0C0050557C0679FFEEFA7B00EA75F00EA4CACB
:104C1C00A8F075F000A428F875F00EEBA428FB742E
:104C2C00DB2AFA74073BFB121386E97027EEF8793E
:104C3C0000E875F00EA4C8AAF075F000A42AFA7565
:104C4C00F00EE9A42AF974DB28FA740739FB790011
:104C5C00120C24E90E80A57F01021E4974F6121D68
:104C6C007774FD121D20EAFEEBFF900875E0F8A3A7
:104C7C00E0F9E84970397508777509087808121F4A
:104C8C008A7508027509007808121F8A7508E6757E
:104C9C0009837808121F8A7CFF7DFF7A017B001242
:104CAC000A6E7406121D36900875EAF0A3EBF090AC
:104CBC000875E0F8A3E0F9E8497003024D89E4F5C2
:104CCC0008F5097808121F8A7404121D6B85820876
:104CDC008583097808121F8A7404121D6B8582085B
:104CEC008583097808121F8A900877121FA1790210
:104CFC00900875E0FCA3E0FDEEFAEFFB120B947448
:104D0C0008121D36E9704A851882851983E0FA7BF2
:104D1C00007401121D6BE0F87900E4C8F9EA28F57B
:104D2C0008EB39F509E508450960267808121F8A51
:104D3C00900875E0F8A3E0F5838882A3A3A3A3E011
:104D4C00FCA3E0FDEEFAEFFB1215727402121D3695
:104D5C00E9E4F508F5097808121F8A900877121F04
:104D6C00A17CFF7DFF900875E0FAA3E0FB120A7AA4
:104D7C007404121D36900875EAF0A3EBF0900875D8
:104D8C00E0F8A3E0F9E84970047901800279007435
:104D9C0003121D367F02021E49C082C08390087325
:104DAC00E0F8A3E0F9E8496017900873E0FAA3E093
:104DBC00FB121338E9F89008737400F0A37400F038
:104DCC00900DB4740AF0D083D082020135C082C039
:104DDC0083E9900AB9F002506874F7121D77E990D4
:104DEC0002E1F07C197D037AFF7BFF120BAC900281
:104DFC00E274FFF0A3F0A3E4F0A3F07905120B34F6
:104E0C009002E1E0F9120A567ACA7B0B120D747FFC
:104E1C0001021E4974F4121D778A088B09EB548029
:104E2C0060309002E1E0F912134A8A0A8B0BAE0A49
:104E3C00AF0BEE4F60138E828F83E064B070031261
:104E4C000B4CEEFAEFFB121338AA08E5096480FB51
:104E5C0080047A007B0002503774F2121D7774FCC8
:104E6C00121D20EAFEEBFFEE4F60387402121D6B30
:104E7C00EEF0A3EF12529CECF0A3ED12529CAA821E
:104E8C00AB83120A50E9F50870737412121D6B1281
:104E9C005E50E50A450B60658E828F83124F13EED0
:104EAC004F700575080280557A067B001213A48A90
:104EBC000C8B0DA80CA90DE8497005750813803DE5
:104ECC0088828983E4124F1DA3A3EEF0A3EF126234
:104EDC00E9E50AF0A3E50BF09002E7124FA590026A
:104EEC00E76017E0FCA3E08003EAFCEBFD8C828D0D
:104EFC0083124FA570F38C828D83125D75A9087493
:104F0C0004121D360264EBA3A3A3A3E0FEA3E0FFEF
:104F1C0022F0A3F0888289832274F2121D77890A09
:104F2C00E975F017A4FEAFF09002E6E4F09002E40D
:104F3C00124FA5600A1213AA9002E4E4F0A3F0EE5B
:104F4C00FAEFFB1213A48A088B09EA4509602FEECD
:104F5C00FCEFFD79001213269002E4E508F0A3E5BE
:104F6C0009F07B008008124F8FE4F0A3F00BEBC329
:104F7C00950A40F2E50A9002E6F079008002791376
:104F8C000264EBEB75F017A4F8A9F09002E4E028AA
:104F9C00FAA3E0398A82F58322125B0BEA4B227466
:104FAC00F4121D77750800750900740C121D6B1234
:104FBC0062BDFEE9FF800CE5082401F508E5093423
:104FCC0000F509C3E5089CE5099D503285080A8562
:104FDC00090B7403780A121D0DEA250AF8EB350B40
:104FEC00F988828983A3A3A3A3A3A3125E50EE65C1
:104FFC000A7003EF650B70BFE8FAE9FB80047A00D6
:10500C007B00802774F4121D777900EAA2E0501B14
:10501C007508107509837808121F8A7C047D007A44
:10502C00BB7B0A120B2E7402121D367F04021E4922
:10503C00C082C0839002E712506F601C8882898303
:10504C00A3A3E06A7003A3E06B8882898370E8A352
:10505C00A3A3A3125B0780047A007B00D083D082C9
:10506C000201351265BEE8492274EE121D7774FCFC
:10507C00121D20EAFEEBFF851882851983E4F0A34C
:10508C00F0EE2402125D59EE240512528AEE24042D
:10509C00F50EEF12566FE024FE603924FC604624B6
:1050AC00FE605224FE605E24FE700302518F24FECB
:1050BC00700302520724FE700302521624FE700382
:1050CC0002522524FC700302523424FE7003025257
:1050DC00430252809003007417F0A3E41252A412FE
:1050EC0007CE025280851882851983AC82AD83125B
:1050FC000B52025250851882851983AC82AD8312F3
:10510C000B58025250850C08850D097402121D6B48
:10511C00AC82AD83850882850983125B07120A7401
:10512C008A0C8B0DAC0CAD0DEC4D6042E4F50CF51E
:10513C000D780C121F8A750C00750D03780C121F5C
:10514C008A750C01750D03780C121F8A7408121DD8
:10515C006B121FA17916125B01120B947408121DAD
:10516C0036E9F50C700B125AFD1207E6800F750C20
:10517C0001850882850983125292125D75850C088F
:10518C000252537402121D6BAC82AD83850C828566
:10519C000D83125B07120A748A108B11AC10AD11BF
:1051AC00EC4D6043850C82850D83A3A3121FA17562
:1051BC0010007511037810121F8A751001751103F8
:1051CC007810121F8A7408121D6B121FA179161207
:1051DC005B01120B947408121D36E9F509700B1261
:1051EC005AFD1207EC800F750901850C82850D8321
:1051FC00125292125D75850908804C8518828519AA
:10520C0083AC82AD83120B5E803A8518828519833C
:10521C00AC82AD83120B64802B851882851983AC0C
:10522C0082AD83120B6A801C851882851983AC822F
:10523C00AD83120B70800D851882851983AC82ADFD
:10524C0083120B76E9F508E50860298E828F83A31B
:10525C00E06414601F850E82850F83E090030012BA
:10526C00529C1265BA900301125D75E508A31252A7
:10527C00A41207C8EEFAEFFB120AF2025C61F50CFD
:10528C00EF3400F50D221265BE8518828519832234
:10529C00F085188285198322F07C007D03850A82B3
:1052AC00850B83125B0B2274EE121D7774FC121D9E
:1052BC00208A0A8B0B8C0E8D0FEA2405F508EB3433
:1052CC0000F5097C157D0079007A007B031213260A
:1052DC00E5082402F50CE50912528D851882851912
:1052EC00838582108583117810121F8A8508828528
:1052FC000983A3A3A3A31257B7121F8AE508240599
:10530C00F510E5093400F5117810121F8A850C820E
:10531C00850D83125B11120A6E7406121D368A10EB
:10532C008B11AE10AF11E50A2402F50AE50B125DE4
:10533C005CEE4F700302547980177402121D6B12CD
:10534C005B0788828983EAF0A3EBF0900300E0040A
:10535C00F0900300E0C394054003025479E4F51087
:10536C00F5117810121F8A7510E975110278101258
:10537C001F8A7510EA7511027810121F8A740612B2
:10538C001D6B121FA17910EEFCEFFD125B01120BCD
:10539C00947408121D36E9705E850882850983A312
:1053AC00A3A3A3A3A3A3E0F89002E9E068704812BA
:1053BC0057B7121F8A7CEA7D02E5082408FAE50932
:1053CC003400FB1213207402121D36E960298E8200
:1053DC008F83A3A3A3A3125B07900300E0F51074C3
:1053EC00027810121D0D74012510F582740335110D
:1053FC00F583EAF0A3EBF07402121D6B8582108525
:10540C0083117810121F8A7402121D6B121FA18552
:10541C000C82850D831265CF120A7A7404121D3624
:10542C008A108B11AE10AF11900300E0F5107511BE
:10543C000074027810121D0D74002510F8740335D9
:10544C0011F988828983A3124FA5700302533DE89A
:10545C002403F8E93400F9EE4F60030253468882C6
:10546C00898374FFF0A3F0900300E004F090030034
:10547C00E0600A125AFD1207DA7900800B85088267
:10548C00850983125D6C790A025C6174EA121D77DE
:10549C0074FE121D208C128D13EA2405F50CEB12F0
:1054AC006739124F17750800750900EA2402F510C8
:1054BC00EB3400F51185188285198385820A858362
:1054CC000B780A121F8A850C82850D83A3A3A3A3D4
:1054DC00125679121F8AE50C2405F50AE50D125DAA
:1054EC005C780A121F8A850C82850D831265CD1299
:1054FC000A6E7406121D368A0A8B0BEA450B700372
:10550C0002562AEA2404F50EEB12566F124F178A34
:10551C00828B83A3A3A3E0F9851082851183125B90
:10552C0007120A5CE9F509600302562AE4F514F542
:10553C00157814121F8A7514E97515027814121F48
:10554C008A7514EA7515027814121F8A7406121DD6
:10555C006B121FA17913AC0AAD0B851082851183D8
:10556C00125B07120B947408121D36E9F5096003DF
:10557C0002562A9002E9E0F8E5087009E02402904E
:10558C000301F08017900301E0FCE82402FAE434F4
:10559C0000FBEA6C7001EB600302562E850882AAB0
:1055AC00821257AE94141257A65073850E82850F33
:1055BC0083E0C0E074022A125666D0E0F00508853C
:1055CC000E82850F83A3E0C0E085080A7402250AC9
:1055DC00125666D0E0F005089002E9125679121FB7
:1055EC008A7CEA7D0285080A7402250AFA7403345F
:1055FC0000FB12130E7402121D369002E9E025080E
:10560C00F50874FF6E700374FF6F6012EE24010EC8
:10561C00EF3400FFE508C3941450030254C1E508AD
:10562C0060131259F2851082851183125B071207E1
:10563C00E079008014E509700375090A85128285EA
:10564C001383EEF0A3EFF0A9097402121D367F0E3E
:10565C00021E4985080C7402250CF5827403340073
:10566C00F583223400F50F850E82F583221262FC3D
:10567C002274EE121D7774FE121D208C0E8D0FEA13
:10568C002405F50CEB12528D750B00900300E4F021
:10569C00F50AEA2402F508EB3400F5098049900379
:1056AC0000E0FA9002E9E0F81257AE94171257A6F0
:1056BC00400D900300E0F87416C3989002E9F012C4
:1056CC0057B7121F8A7CEA7D0274012AFA740334DC
:1056DC0000FB12130E7402121D369002E9E0F890D2
:1056EC000300E028F0050AE50C2416F582E50D12FE
:1056FC00566AE0F8E50AC398400302578F900300FE
:10570C00E0C39416507DE50AC333F8E433F9E50C95
:10571C0028FEE50D39FF851882851983AC82AD838F
:10572C008E828F83125B07120A748A108B11AC1055
:10573C00AD11EC4D7005750B018043E4F510F511BE
:10574C007810121F8A7510E97511027810121F8AD1
:10575C007510EA7511027810121F8A7406121D6BEF
:10576C00121FA17916850882850983125B07120B1B
:10577C00947408121D36E9F50B70030256AA125DDB
:10578C006880107C007D03850882850983125B0785
:10579C001207F2A90B7402025C63E99400C365D092
:1057AC003322EA28F8E43400F9E822E0F510751108
:1057BC000078102274EA121D7774FC121D208A0CDA
:1057CC008B0D8C128D13EA2405F50AEB125D5C75BA
:1057DC000800750900E50A2402F510E50B3400F504
:1057EC00117402121D6B85820E85830F780E121FA9
:1057FC008A850A82850B83A3A3A3A31262A8121F16
:10580C008AE50A2405F50EE50B3400F50F780E1227
:10581C001F8A851082851183125D62125B01120A48
:10582C006E7406121D368A0E8B0FAE0EAF0FE50C82
:10583C002402F50EE50D3400F50F80408882898333
:10584C0074FFF0050812565F74FFF005089002E92A
:10585C00E0F50C750D00780C121F8A7CEA7D028530
:10586C00080C7402250CFA74033400FB12130E742A
:10587C0002121D369002E9E02508F508EE4F607122
:10588C008E828F83A3A3A3E0F9850E82850F8312EA
:10589C005B07120A5CE9F509EE240412528AE970DE
:1058AC0044E4F514F5157814121F8A7514E975156E
:1058BC00027814121F8A7514EA7515027814121FD7
:1058CC008A7408121D6B121FA17911EEFCEFFD8575
:1058DC000E82850F83125B07120B947408121D360F
:1058EC00E9F5096027850C82850D831259E8125D54
:1058FC0075E50870030259CE1259F2850E82850F98
:10590C0083125B071207F879000259E3850882AA13
:10591C0082EA9002E97009E02404900301F08022ED
:10592C00E0F8900301E0F514E82404FCE43400FDF5
:10593C00EC65147001ED70C01257AE94121257A69C
:10594C0050B6850C82850D83E0C0E074022A125695
:10595C0066D0E0F00508850C82850D83A3E0C0E0DD
:10596C0012565FD0E0125A0485820C85830D780C98
:10597C00121F8A7404121D6B121FA18510828511CF
:10598C00831265CF120A7A7404121D368A0C8B0DA1
:10599C00AE0CAF0D85080C7402250CF874033400A2
:1059AC00F9EE4F7003025848851882851983E088F8
:1059BC00828983125A04A3E0C0E012565FD0E00241
:1059CC005856E509700375090A850A82850B8312FE
:1059DC0059E8125D75A90974040256571265BE8503
:1059EC00128285138322900301E0F5F0E508849080
:1059FC000300F07C007D0322F005088518828519D0
:105A0C00832274EC121D7774FE121D208A088B09F8
:105A1C008C0E8D0FEA2405FEEB3400FF8518828571
:105A2C001983AC82AD838E828F83125B07120A744A
:105A3C008A0A8B0BEE241812528AEA450B70030269
:105A4C005AD8125C4A5032851882851983125B072A
:105A5C00120B888A108B11EA4511606B7912AC0A13
:105A6C00AD0B850882850983125B07851082851131
:105A7C0083121D75E9F50A7058E4F50AF50B780ADE
:105A8C00121F8A8E828F83A3A3E0F50A780A121F55
:105A9C008AEE2403125D59780A121F8A8E828F8334
:105AAC00125B11120B9A7406121D36E9F50A70215D
:105ABC00850C82850D83E0701F8508828509831211
:105ACC005B071207FE8011750A0E8009750A0180AA
:105ADC0004E50A6003125D68850C82850D83E06025
:105AEC000479008002A90A7402121D367F0C021E72
:105AFC00497C007D03850A82850B83125B0B22E0B7
:105B0C00FAA3E0FB22E0FCA3E0FD85088285098373
:105B1C00125B0B2274EE121D7774FE121D208A0884
:105B2C008B098C0C8D0DEA2405FEEB3400FF750EF1
