:020000040000FA
:1040000088D1FFFF3107007C42424242FFFFFFFFA1
:10401000FFFFFFFFFFFFFFFFFFFFFFFFFFFFFFFFB0
:10402000000102030405060708090A0BFFFFFFFF52
:10403000024A780258D3FFFFFFFFFFFFFFFFFFFF99
:10404000FFFFFFFFFFFFFFFFFFFFFFFFFFFFFFFF80
:10405000FFFFFFFFFFFFFFFFFFFFFF026030FFFFDB
:10406000FFFFFFFFFFFFFFFFFFFFFFFFFFFFFFFF60
:10407000FFFFFFFFFFFFFFFFFFFFFFFFFFFFFFFF50
:10408000FFFFFF025946FFFFFFFFFFFFFFFFFFFF9C
:10409000FFFFFFFFFFFFFFFFFFFFFF026007FFFFC4
:1040A000FFFFFFFFFFFFFFFFFFFFFFFFFFFFFFFF20
:1040B000FFFFFF02573F01FF0000B4000028002867
:1040C00000283075A000A000A000A0000008000893
:1040D000E001F000100010001000100010001000AF
:1040E00050005000500010001000D00700000000E9
:1040F00000000F00010005003075070010000100EE
:1041000081FF00000000FF526270625862FF0202ED
:104110000208025000A0000000E80302A68301008C
:1041200000818302C083010000000A02C8830100ED
:1041300000B20202C083010000010A02CA8301002A
:1041400000C80202C083010000020A02CC83010001
:1041500000CA0202C083010000030A02DA830800D9
:1041600000CB0202C083010000040A02D0830100D8
:1041700000050AFF0100FF2002A6830100008783DB
:1041800002C083010000690A02CE83000000000023
:1041900002C4830300001803286828682868286878
:1041A000286828682868286828682868286828688F
:1041B0002868BC6AD46AB66AFFFF49020003041289
:1041C0006402A683010000938302C083010000B152
:1041D0000A02A483010000B20A02C483030000663D
:1041E00007020202020202020202010D0000001098
:1041F0000102A683010000848302C083010000D372
:104200000A029C830100006C0702C083010000D4F5
:104210000A029A83010000A68102C083010000D532
:104220000A0298830100007D8102C083010000D64C
:104230000A029683010000FF8002C083010000D7BC
:104240000A02A283010000C98002C083010000D8D5
:104250000A02D283010000ED8002C083010000D970
:104260000A02AA83010000DB8002C083010000DA99
:104270000A02AE830100006F8102C083010000DBEF
:104280000A02BA83010000DC0A01E803053F100AB4
:104290001C02A683010000908302C08301000082FB
:1042A0000B105080020000790802C4830300007BD9
:1042B0000802C283010000998102C08301000082CC
:1042C0000B1060800200007A0802C48303000081A2
:1042D0000802C2830100002382FFFFFF001202A632
:1042E000830100008A8302C083010000CF0B02B863
:1042F00083010000CB0802C483030000CC08013016
:10430000750302010600000000000000000000002C
:10431000000000000000000000000000000000009D
:1043200000FFFF0600800CE803420B400101021B66
:10433000800864070F020F020907091F1F1A001FD8
:10434000160200070F0000000F0E1E041E04120EBE
:10435000121E1E14001E0C04000E1E0000001E1C67
:104360001C081C08041C041C1C08001C1808001C49
:104370001C0000001C181810191009180918191031
:104380000118111001181800010018101000120077
:10439000121012101200021002000210100002008F
:1043A00010000002000200020002010200020002EE
:1043B00001000002010000000000090108010B00DB
:1043C000080009010A0109000201090000000001BA
:1043D0001000120211031601100012021403030050
:1043E0001403030000020000040403060C02000092
:1043F0000404080606000906060000040101090875
:10440000060C180500000908100C0C01120D0D0017
:104410000008020313100D18110A010013100118EF
:104420001902051B1B000010040606001A100214D6
:1044300002000600021012040A1616000000080C02
:104440000C001401050904010D0004000408140CFB
:104450000C0000001118180008030A1308031A00C2
:1044600008000810081818000001031110011007B7
:10447000140711061401110010011110100000039F
:1044800007020102010E090F030C080303000002DA
:104490000201010000060E040204021C121F06198C
:1044A00010070601000504030200000C1C080408A4
:1044B0000518041E0C12000E0C02000A0806040067
:1044C0000018191108100A10081C1804001C180400
:1044D0000014100C08010110120210001400101832
:1044E0001008011911090008001910020201040442
:1044F0000100090001110010021202120010001246
:104500000004040208080200120002020000040471
:104510000404000000040008080410100400040053
:104520000404000008080808000000080010100833
:10453000000008000800080800001010101000001B
:10454000001000000010000010001000101000000B
:10455000000000000000000000000000000000005B
:10456000000000000000000000100000000000003B
:10457000000000000000000000000010000000002B
:10458000000000000000000000000000001000001B
:10459000000000000000000000000000000000001B
:1045A00000000000100000000000000000000000FB
:1045B00000000000000000000000000000000800F3
:1045C00000000000000000000000000000000000EB
:1045D00000000000000000040000000000000000D7
:1045E00000000000000000000000040000000000C7
:1045F00000000000000000000000000002000000B9
:1046000000000000000000000000000000000000AA
:104610000001000000000000000000000000000099
:104620000000000000000000000000010000000089
:10463000000000000000000000000000000000007A
:104640000000000000010000000000000000000069
:1046500000110011121B00110C15001100000000C8
:104660000000000000000006000604000406040626
:1046700000000000000000000000000000060A0624
:104680000E060406040600000000000000000008FA
:10469000020A0A060C060C0404060C0208000000BC
:1046A00000000000000000090A0F0A060E060E06B0
:1046B0000E060A060A0000000000000911091B0F7F
:1046C0001B0F0E0F0E0F0E0F0A0F0A000A0000003C
:1046D00000000000000000000000000000000000DA
:1046E000000E0E00000000000000000000000000AE
:1046F00000000000000E0E0E0E0000000000000082
:104700000000000000000000000E0E0E0E0E0E0055
:10471000000000000000000000000000000E0E0E6F
:104720000E0E0E0E0E000000000000000000000043
:10473000000E0E0E0E0E0E0E0E0E0E0000000000ED
:1047400000000000000E0E0E0E0E0E0E0E0E0E0ECF
:104750000E00000000000000000E0E0E0E0E0E0EE9
:104760000E0E0E0E0E0E0E0000000000000E0E0EBD
:104770000E0E0E0E0E0E0E0E0E0E0E0E0E00000083
:104780000004040E0E0E0E0E0E0E0E0E0E0E0E0E6B
:104790000E0E0E00000000000000000000040404E3
:1047A00004040400000000000000000000000000FD
:1047B00000000C0E0C0E0C040C04000000000000A5
:1047C0000000000000000C0E0C0E1E0E1E0E0C044D
:1047D0000C0400000000000000000002080E0E0F94
:1047E0001E0F1E0F1E0E0E060C040400000000001B
:1047F0000002080C06011001100110080202080452
:104800000400000000000002080E0E0D1609120937
:10481000120A0A060C040400000000000002080E40
:104820000E0F1E0B1A0B1A0E0E060C0404000000CD
:1048300000000002080E0E0F1E0F1E0F1E0E0E06A9
:104840000C0404000000000000091212090000001E
:10485000000000080202080404000000000000003C
:1048600000000009121209000008020208040400F6
:1048700000000004040E0E080208020802080208E4
:104880000208020E0E00000000040004000E0004E6
:104890001211001100110000120A00040C000004A3
:1048A0000406100C0206080404040406080C0206A0
:1048B00010040400000404040404040404040404B4
:1048C00004040400000404000008093635304C6973
:1048D0007465051214001400020A000201050302A7
:1048E000F0FF3635304C69746500000000000000B0
:1048F00000000000000000F06F0000F66F40300A7A
:1049000043686172616374657269737469632031AD
:1049100000024368617261637465726973746963EC
:104920002032001A4368617261637465726973743E
:104930006963203300104368617261637465726952
:104940007374696320340002436861726163746543
:1049500072697374696320350002A6830100008DBB
:104960008302C083010000F11102D68303000074AA
:104970000902C283010000F21102C083010000039A
:104980001202D883010000880902C28301000004DA
:104990001202C083010000151202B68303000089D1
:1049A0000902C283010000161202C0830100002721
:1049B0001202B4830000009D0902C4830300009E1C
:1049C0000902C283010000281202C08301000039DD
:1049D0001202B283040000A40902C2830100003A5B
:1049E00012E5C754F84404F5C7790122000000809D
:1049F000FB1249E1B90003024A62E479217808B860
:104A000000028004F709D8FCE479297802B8000292
:104A10008004F709D8FCE4900280782A79088002A3
:104A2000F0A3D8FCD9FA781C9040B67A01BA0002FB
:104A30008007E493A3F608DAF99009A9AA82AB8368
:104A40009040B7782B790A8015E493A3AC82AD83AC
:104A50008A828B83F0A3AA82AB838C828D83D8E970
:104A6000D9E77582F375838A7404124A8A7582ECD9
:104A70007583497400124A8A75D00075813F751A92
:104A800080751B02759F000249F1C09FF59FE4737A
:104A9000D09F22D083D082C09FE493C0E074019362
:104AA000C0E0740293F59F22E066701008A3E066F0
:104AB000700A08A3E066700408A3E06622C3E796C4
:104AC0000809E7960809E7960809E79622C3E096E1
:104AD00008A3E09608A3E09608A3E09622C00AC3C4
:104AE000E096F50A08A3E096420A08A3E096420A77
:104AF00008A3E096450A7001D3D00A22080808EA04
:104B0000C0E0EBC0E086F0E7A4FA180986F0E7A45D
:104B10002AFA180986F0E7A42AFA180986F0E7A409
:104B20002AFA1986F0E7A4FBE5F02AFA190886F0BC
:104B3000E7A42BFBE5F03AFA190886F0E7A42BFB73
:104B4000E5F03AFA18180986F0E7A4C5F02BFBE463
:104B50003AFA1908E7C5F0C6A426F6E5F03BFBE4EF
:104B60003AFA1886F0E7A4F6E5F00826F6E43B08E2
:104B7000F6E43A08F6D0E0FBD0E0FA22E4CFC0E059
:104B8000E4CEC0E0E4CDC0E0E4CCC0E075F020C3EA
:104B9000E633F608E633F608E633F608E633F618A9
:104BA0001818EC33FCED33FDEE33FEEF33FFC3ECAE
:104BB0009709ED9709EE9709EF97191919400FFF1B
:104BC000EC97FC09ED97FD09EE97FE191906D5F053
:104BD000BEECF709EDF709EEF709EFF7191919D04F
:104BE000E0FCD0E0FDD0E0FED0E0FF226016080837
:104BF00008C6C313C618C613C618C613C618C613EC
:104C0000C6D5E0EA227009080808226016181818AC
:104C1000C6C333C608C633C608C633C608C633C6BD
:104C2000D5E0EA22E627F60809E637F60809E6376E
:104C3000F60809E637F622E026F608A3E036F6087D
:104C4000A3E036F608A3E036F622E026F008A3E05B
:104C500036F008A3E036F008A3E036F022C3E6976A
:104C6000F60809E697F60809E697F60809E697F6C2
:104C700022C3E096F008A3E096F008A3E096F008BF
:104C8000A3E096F022E657F60809E657F60809E68B
:104C900057F60809E657F622E056F608A3E056F65E
:104CA00008A3E056F608A3E056F622E056F008A363
:104CB000E056F008A3E056F008A3E056F022E0F634
:104CC00008A3E0F608A3E0F608A3E0F622E6F00861
:104CD000A3E6F008A3E6F008A3E6F022E0FAA3E0DA
:104CE000FBA3E0FCA3E0FD22EAF0A3EBF0A3ECF0D1
:104CF000A3EDF022CAC0E0E6F0A308DAFAD0E0FAA9
:104D000022CAC0E0E0A3C582CCC582C583CDC583DD
:104D1000F0A3C582CCC582C583CDC583DAE6D0E0D9
:104D2000CA22C3E498F8E499F9124D638026C3E4DB
:104D30009AFAE49BFBE920E7E9124D63E498F8E472
:104D400099F922C3E498F8E499F9124D63E498F8CC
:104D5000E499F9C3E49AFAE49BFB22EB20E7CFE95C
:104D600020E7E0B90010BB0008E88AF084F8AAF058
:104D700022E4FBC8FA22EB70227B10C833C8C93387
:104D8000C9335007C39AC3DBF280069A50012ADB6D
:104D9000EAC833F4C8C933F4C9FA2275F008E4C884
:104DA00033C8C933C933C99AC99B5004C92AC93BFE
:104DB000D5F0ECFBC833F4C8E4C9FA22600D08C68C
:104DC000A2E713C618C613C6D5E0F322600C08C6C6
:104DD000C313C618C613C6D5E0F422700422600DB2
:104DE00018C6C333C608C633C6D5E0F41822251A40
:104DF00010AF08F51A4002151B8008F51A4002157D
:104E00001BD2AF22C0D0251A10AF08F51A500205E8
:104E10001B8008F51A5002051BD2AFD0D022251AEC
:104E2000F58210AF08F51A4002151B8008F51A40EC
:104E300002151BD2AF851B8322C582251AC582C5E8
:104E400083351B10AF07F51B85821A8007F51B857C
:104E5000821AD2AFC58322251AF582E4351BF58369
:104E600022E473251AC582C0E0E51B34FFC583C068
:104E7000E0E51AC3958224F810AF0885831B85826C
:104E80001A800885831B85821AD2AFCEF0A3E52055
:104E9000F0A3780AE608F0A3DEFAEFF0A3E5812498
:104EA000FAF8E608F0A3E608F0A3E608F0A308087D
:104EB000E608F0A3E608F0A315811581D0E0FED046
:104EC000E0F8158115811581E8C0E0EEC0E02225EB
:104ED0001AC582C0E0E51B34FFC583C0E0E51AC3F4
:104EE000958224F910AF0885831B85821A80088576
:104EF000831B85821AD2AFCEF0A3E520F0A3780AF7
:104F0000E608F0A3DEFAEFF0A3E58124FBF8E6085B
:104F1000F0A3E608F0A30808E608F0A3E608F0A36B
:104F200015811581D0E0FED0E0F815811581E8C02B
:104F3000E0EEC0E022851B83851A82E0A3FEE0A399
:104F4000F520780AE0A3F608DFFAE0A3FFE0A3C0AB
:104F5000E0E0A3C0E0E0A3C0E0E0A3C0E0E0A3C0C5
:104F6000E010AF0885821A85831B800885821A8528
:104F7000831BD2AFD083D082024A90851B83851ACF
:104F800082E0A3FEE0A3F520780AE0A3F608DFFAAA
:104F9000E0A3FFE0A3C0E0E0A3C0E0E0A3C0E0E046
:104FA000A3C0E010AF0885821A85831B8008858224
:104FB0001A85831BD2AFD083D08222C0D0251AC5D8
:104FC00082C0E0E51B34FFC583C0E0E51AC39582CB
:104FD00024F310AF0885831B85821A800885831B04
:104FE00085821AD2AFC8F0A3E9F0A3EAF0A3EBF0F0
:104FF000A3790AE709F0A3D8FAECF0A3EDF0A3EE49
:10500000F0A3EFF0A3D0E0F0A3D0E0F0A3D0E0F065
:10501000A3E520F0A3E5F0F0A322851B83851A8287
:10502000E0C0E0A3E0F9A3E0FAA3E0FBA3780AE084
:10503000F608A3DFFAE0FCA3E0FDA3E0FEA3E0FF97
:10504000A3E0C0E0A3E0C0E0A3E0F5D0A3E0F5203A
:10505000A3E0A3F5F010AF0885831B85821A8008B2
:1050600085831B85821AD2AFD082D083D0E0F8D05E
:10507000E03274048006740280027401C0E0F4041B
:10508000124E1ED0E0124CF422740480047402808C
:1050900000CCC0E0EDC0E0E51AC39CCCAD1B5001D4
:1050A0001D10AF068C1A8D1B80068C1A8D1BD2AF7B
:1050B000124D01D0E0FDD0E0FC22D083D082E9C0C7
:1050C000E0E493A3C386F0C5F095F0F908E493A358
:1050D00086F0C5F095F0700BE493A3C3994005E901
:1050E000048002A3E475F002A42582F582E5F03580
:1050F00083F583D0E0F9E493A3C0E0E493C0E02219
:10510000D083D082ECC0E0EDC0E0E493A3FCE49354
:10511000A3FDED4C600D12514CEC24FFFCED34FF6F
:10512000FD80EFE493A3FCE493A3FDED4C600D122E
:10513000518BEC24FFFCED34FFFD80EFD0E0FDD07F
:10514000E0FCE493A3C0E0E493C0E022C0E0C3E449
:105150009396087401939618400FE49366700808BC
:10516000740193661870007019A3A3C3E4939608A2
:105170007401939618A3A3400DD0E0D0E0D0E002D4
:10518000513CA3A3A3A3A3A3D0E022C0E0C0F08816
:10519000F0E4936670080874019366187000A8F034
:1051A000A3A3700BD0F0D0E0D0E0D0E002513CA33C
:1051B000A3D0F0D0E022FFFF74F5124ECFEAFEEB51
:1051C000FFEE2434F8EF3400F9880A890BEE243519
:1051D000F582EF3400F583E0F8EE2437F582EF3402
:1051E00000F583E0F50CEC850CF0A4FCAAF0850C2E
:1051F000F0EDA42AFDE82CF8E43DF97A257B0012B5
:105200004D63EA850A82850B83F0F8740758F974B8
:1052100001B900028004C333D9FCFAE81313135414
:105220001FF8EE28F8EF3400F9E8245DF582E93440
:1052300000F583E05A6008EE2434F582EF802CEE0E
:105240002434F582EF3400F583E0C0E0EE2436F537
:1052500082EF3400F583E0F5F0D0E084A8F0EE288A
:10526000F8EF3400F9E82438F582E93400F583E0FA
:10527000F97F04024F7B74F5124ECFEAFEEBFFEE8E
:105280002434F582EF3400F583E0C0E0EE2435F5F8
:1052900082EF3400F583D0E0F08E828F83A3A3A346
:1052A000A3A3A3A3C082C0838E828F83A3A3A3A33F
:1052B000A3E0F8A3E0F9D083D082E0C398F50AA375
:1052C000E099F50BEE247FF582EF3400F583E0647E
:1052D000017069EE2480F582EF3400F583E0F8A3D5
:1052E000E0F98E828F83A3A3A3A3A3A3A3E0FCA3CF
:1052F000E0FD8E828F83A3A3A3A3A3E0FAA3E0FB28
:10530000C3EA9CEB9D5010C3EC98ED99402EC3EA84
:1053100098EB995027800EC3EA98EB994007C3ECAD
:1053200098ED9940177CDB7D04EEFAEFFB1267865F
:10533000EE247FF582EF3400F583E4F0EE2434F8B8
:10534000EF3400F9E8FCE9FDEE2435F582EF340096
:10535000F583E0F8EE2437F582EF3400F583E0F5CD
:105360000CE50A850CF0A4F50AAAF0850CF0E50B13
:10537000A42AF50BE8250AF8E4350BF97A257B0019
:10538000124D63EA8C828D83F0F8740758F974012A
:10539000B900028004C333D9FCFAE8131313541F75
:1053A000F8EE28F8EF3400F9E8245DF582E93400DE
:1053B000F583E05A6008EE2434F582EF802CEE2469
:1053C00034F582EF3400F583E0C0E0EE2436F58258
:1053D000EF3400F583E0F5F0D0E084A8F0EE28F893
:1053E000EF3400F9E82438F582E93400F583E0F978
:1053F000125FF3025271C082C083851A82851B83BB
:10540000E0F8A3E0F9C3EA9CEB9D5010C3EC98EDE3
:1054100099401BC3EA98EB995014800EC3EA98EBAD
:10542000994007C3EC98ED99400479018002790016
:10543000D083D08222EAC39CFAEB9DFB2274EF1248
:105440004ECF9003A1E064086005E06407702A90E5
:1054500061C8E060249003CFE0F4601DE0F875F0CF
:1054600003A4C8AAF02AF974D128FE740339FF8E68
:10547000828F83A3A3A3E0700302556D906060E068
:10548000C0E0EE2468F582EF3400F583D0E0F075DB
:105490000E44750F05750A00750B00E5D914F50C5F
:1054A000E5D95403F510601774036510605CE50CD2
:1054B0006010EE2467F582EF3400F583E07003029C
:1054C000555290053FE06401602AEE2482F582EF98
:1054D0003400F583E06004780480027800850C0ACB
:1054E000E50AC398FA95E0FB12664E8A0A8B0BEA2E
:1054F000450B700512698A8074EE2482F582EF34C0
:1055000000F583E070048A0E8B0FE50C6012850EA7
:1055100082850F83F50DE5D9F0A3150DE50D70F625
:10552000EE2482F582EF3400F583E0604474FC25BC
:105530000CF50C780E125076AC0CA910EEFAEFFBBD
:105540001268227402124E04E97026AA0AAB0B12EA
:105550006EE8793D8E828F83A3A3A3A3E0FA7B003C
:10556000126522EEFAEFFB12679E12683479008012
:1055700074740365106056850C127513007812124E
:105580005076AC0EAD0FAA0AAB0B1267FE74021276
:105590004E04EE2468F582EF3400F583E0648070F9
:1055A00004747F8001E0F50E780E12507AE510F554
:1055B0000E780E12507AA90CAC0AAD0B9003CFE016
:1055C000FA7B001264E67402124E0480139003A169
:1055D000E06408600BAC0EAD0FEEFAEFFB12688EC4
:1055E00012699679017F0A024F7B74F5124ECF74CF
:1055F000FC124DEEEAFEEBFF890AA2AFE433F50B95
:10560000C2AF806AEE2463F8EF3400F97A007B00C1
:10561000A2AFE433F50CC2AF88828983E0FCA3E03B
:10562000FDEC4D603A88828983E0FAA3E0FB8A8230
:105630008B83E0FCA3E0FD88828983ECF0A3EDF08E
:105640008A828B83E4F0A3F088828983E0FCA3E064
:10565000FDEC4D700A88828983A3A3E4F0A3F0E5F2
:105660000CA2E092AF126EE89004E2E004F0EE24A7
:1056700063F582EF3400F583E0F8A3E0F9E84960D0
:105680003DEE2463F582EF3400F583E02402FAA3B3
:10569000E03400FBEA2402F50CEB3400F50D780C45
:1056A0001250768A828B83E0FCA3E0F9EEFAEFFBDE
:1056B0001267C27402124E04E97003025604900489
:1056C000E2E060639004E3E0F89004E2E0C3985005
:1056D0000C7402650A70509004E4E0604A8E828F78
:1056E00083A3A3A3A3E0851A82851B83F0A3E4F020
:1056F0009004E2E0F87402124E57E8F0A3E4F09050
:1057000004E2E0F89004E1E028F07402124E57AC95
:1057100082AD83851A82851B83AA82AB83790112AD
:1057200064F29004E2E4F0E50BA2E092AF7404129C
:105730004E04025271FFFFFF8521878522C622C0D9
:10574000E0C0D0E8C0E0E9C0E0EAC0E0EBC0E0ECD7
:10575000C0E0EDC0E0EEC0E0C00AC00BC00CC00D60
:10576000C082C083C0F0A2AFE433FEC2AF759B001D
:10577000906182E0A2E05012E591A2E0500C759198
:10578000FE74016521700312543DE0A2E55051E51D
:1057900091A2E5504B7591DF9003A1E0640760058D
:1057A000E06408702374016521703579019003CF9E
:1057B000E0FA75F003A4CAA8F028FB74D12AFA74A1
:1057C000033BFB1255EA8018E0640D70139003C38D
:1057D000E004F064287002E4F07A00E0F912699CB9
:1057E000906182E0A2E64003025886E591A2E6407D
:1057F000030258867591BF9003A1E06405700812FA
:1058000068C41268D080031268CA75210012692A20
:10581000E99003A2F0790012691E1266FC7A017BFE
:10582000009003A0E0F9126BF4907803E0644270FA
:1058300055900543E014F0704DC2AF12583E007809
:105840002AD0E0F618D0E0F6E59F54077005750BF6
:10585000FF8003750B7FC4C0E07829E6F50A08E6EF
:10586000550BF50B740B780A124DCCD0E0250AF8D5
:10587000906270E0A2E740F8E8C333906272F09063
:105880006270E0D2E0F0906181E0A2E35009E5E9C6
:10589000A2E3500375E9F7A3E0A2E75009E591A25E
:1058A000E7500375917FEEA2E092AFD0F0D083D0A5
:1058B00082D00DD00CD00BD00AD0E0FED0E0FDD0CD
:1058C000E0FCD0E0FBD0E0FAD0E0F9D0E0F8D0D0B6
:1058D000D0E032C0E0C0D0C082C083906183E0A23B
:1058E000E05009E5BFA2E0500375BFFEE0A2E15021
:1058F00009E5BFA2E1500375BFFDE0A2E25009E552
:10590000BFA2E2500375BFFBE0A2E35009E5BFA2CE
:10591000E3500375BFF7E0A2E45009E5BFA2E450ED
:105920000375BFEFE0A2E55009E5BFA2E55003759E
:10593000BFDFE0A2E65009E5BFA2E6500375BFBF96
:10594000D083D0828088C0E0C0D0E8C0E0E9C0E069
:10595000EAC0E0EBC0E0ECC0E0EDC0E0C0F0E5A7DD
:10596000A2E6500FE5A1A2E6500953A7BF75A1BF5B
:105970001259ABE5A7A2E5500CE5A1A2E5500653EC
:10598000A7DF75A1DFE5A7A2E15009E5A1A2E150DB
:105990000375A1FDE5A7A2E2500CE5A1A2E2500625
:1059A00053A7FB75A1FBD0F00258BC74F8124ECF80
:1059B0007521019003A1E0640670151268528A8275
:1059C0008B83A3A3A3A3A3A3E0FAA3E0FB1268B273
:1059D000A2AFE433FED2AF9003A7E0640170187A5F
:1059E000207B009003A0E0F9126C7E7A207B00906F
:1059F00003A0E0F9126BFA906182E0D2E6F0900524
:105A000040E0602185C62280169003A6E064017004
:105A100008E5C654F84405F5C653BEFC1257387461
:105A200001652160E4EEA2E092AF7F01024F7BFFAF
:105A30008E238F24858228858327851A82851B8360
:105A4000E0CEA3E0CF852882852783EBC9EAC8EDA5
:105A5000CBECCA75F010C3E833C8E933C9EA33CADE
:105A6000EB33CBC3EA9EF526EB9FF525B35004AB91
:105A700025AA26EC33CCED33CDD5F0DAAE23AF2416
:105A80002274E9124ECF74F8124DEE851A82851BEE
:105A900083ECF0A3EDF08A0A8B0B9003A1E024F7CE
:105AA000C394055006750A01025C181268528A0CEC
:105AB0008B0DAE0CAF0DEE4F7003025C15AC0AAD52
:105AC0000B7402124E57AA82AB831268E28E828F49
:105AD00083A3A3750EFF750FFF7510FF7511007876
:105AE0000E124C987402124E577512FF7513FF7503
:105AF00014FF7515007812124C98780E7912124A1C
:105B0000BD502A780E7912124C5D750A01750BC8CA
:105B1000750C00750D00780A790E124ABD50528539
:105B20000E0A850F0B85100C85110D80507516011E
:105B30007517C875180075190085120A85130B852D
:105B4000140C85150D780A790E124C5D7816790AB9
:105B5000124ABD401C750A00750B00750C00750DCE
:105B600001780A7912124C5D780A790E124C248061
:105B70000C750A01750B00750C00750D0074097821
:105B80000A124C05750E19F50FF510F511780A7902
:105B90000E124B7C8E828F83A3A3A3A3A3A3E0F852
:105BA000A3E0F97AD07B03124D63880E890FE4F5E8
:105BB00010F511780A790E124C247406124E57E033
:105BC000F8A3E0F97AD07B03124D63E8FA8A0EE479
:105BD000F50F780A790E124ABD5007780A790E122D
:105BE0004C5D9003A1E06408600AE064066005E093
:105BF0006405702D750E0D780E790A124ABD40218C
:105C0000750EF4750FFF7510FF7511FF780A790E88
:105C1000124C24800C750A00750B00750C00750D74
:105C200000851A82851B83E0F8A3E0F583888278DB
:105C30000A124CCD7408124E047F10024F7B74F789
:105C4000124ECF1268F490053EE06401701090622D
:105C500045E4F0A3F053F4F343FE0C5390F31268C1
:105C6000A0E5C654804449F5C6E59E547F6449705A
:105C7000F8906185740FF090053CE0F47002A3E0A9
:105C8000604E90053DE0600814601B14602E80405B
:105C9000750A01750B0090053CE0780A124DDBE5B2
:105CA0000AF45280802A750A01750B0090053CE0C9
:105CB000780A124DDBE50AF452908014750A0175DA
:105CC0000B0090053CE0780A124DDBE50AF452A087
:105CD00079007F02024F7B74F7124ECFE9FEEAFF94
:105CE00074016E700C7A807B009003A0E0F9126B57
:105CF000F4907044E493F46008E493F91266F08041
:105D00000953C680E59E547F70FA1268A690053E3E
:105D1000E06401700312670890053CE0F47002A390
:105D2000E0604B90053DE0600814601A14602C8020
:105D30003D750A01750B0090053CE0780A124DDBB9
:105D4000E50A42808028750A01750B0090053CE049
:105D5000780A124DDBE50A42908013750A01750B33
:105D60000090053CE0780A124DDBE50A42A012687B
:105D7000F41268528A0A8B0BA80AA90BE84960152D
:105D8000E5E170FCE82414F582E93400F583E0F4E1
:105D90006003E0F5E174016F700A7A019003A0E0FE
:105DA000F9126C48025CD274ED124ECF8A0A8B0B4A
:105DB0008C0C8D0D7413124E57780E124CBE780A4F
:105DC000790E124ABD7512017513C8751400751548
:105DD000005012780A790E124C5D7812790A124A34
:105DE000BD50168010780E790A124C5D7812790E2B
:105DF000124ABD40047901800279007F0C024F7B7A
:105E000074ED124ECF8A0A8B0B8C0C8D0D7413120D
:105E10004E57780E124CBE780E790A124ABD4011C8
:105E2000780A790E124C5DAA0AAB0BAC0CAD0D8052
:105E3000227512007513007514007515017812791A
:105E40000E124C5D7812790A124C24AA12AB13ACD4
:105E500014AD1580A68A828B83750AFF750BFF75BA
:105E60000CFF750D00780A124CAB7F04024F7B7457
:105E7000F5124ECF8C828D83780A124CBE8A828BAB
:105E800083780A124C71EA2404F8EB3400F98C820E
:105E90008D83A3A3A3A3E0FCA3E0FD88828983C331
:105EA000E09CF0A3E09DF088828983C3E09420A366
:105EB000E0944E40268A828B83750AFF750BFF752E
:105EC0000CFF750DFF780A124C4A8A828B83A3A3BC
:105ED000A3A3E02420F0A3E0344EF0025E5574F555
:105EE000124ECFE9FE9004F6E0FAA3E0FBEEC333D6
:105EF000F8E433F9744128F582748139F583E02A96
:105F0000F50AA3E03BF50B780A1250767A407B4203
:105F10007C0F7D00125A307402124E048A0A8B0BD9
:105F20008C0C8D0D7410780A124BECAA0AAB0B7F07
:105F300004024F7B74F1124ECF8A0E8B0F8C108DA2
:105F400011740F124E57E0FAA3E0FB7411124E5772
:105F5000E0F50AA3E0F50B780A125076EA2401F581
:105F60000AEB3400F50BE4F50CF50D780E790A1206
:105F70004AFC750A71750B02780E790A124AFCAA5E
:105F80000EAB0FAC10AD11125A307402124E048BCE
:105F90000BEA450B60047A0180027A00EC2AFCEDE2
:105FA0003400FD7413124E57E0F8A3E0F9E8FEE95F
:105FB000FFECF8EDF97A717B02124D63880A890BC8
:105FC0008E828F83780A124CCDECF8EDF97A717BD2
:105FD00002124D638A0A8B0B7405780A124DDB8E10
:105FE000828F83A3A3A3A3E50AF0A3E50BF07F08A8
:105FF000024F7BC082C083E9906000F0D083D082E2
:1060000022C2AF02000022C0E074F2124FBBA2AF66
:10601000E433FED2AFE589A2E05003126E407589E9
:1060200000C2C5751C00EEA2E092AF7F0102501ABB
:10603000C0E0C0D0E8C0E0E9C0E0E5A8D2AFC2C788
:10604000751C00A2E7A2E792AFD0E0F9D0E0F8D04B
:10605000D0D0E032124A9383F503124A939AF503A3
:10606000124A93CBF503124A9306F603124A933071
:10607000F603124A935AF603124A9371F603124A30
:106080009388F603124A939FF603124A93C8F603C5
:10609000124A93DBF603124A93F1F603124A930471
:1060A000F703124A932BF703124A932FF502124A71
:1060B0009333F602124A936BF602124A938EF6025B
:1060C000124A9399F602124A93BCF602124A93CBF3
:1060D000F702124A93A0F802124A931BF902124ADD
:1060E00093A3F902124A93DEF902124A9315FA02B7
:1060F000124A93A3FA02124A937CFB02124A93DCDF
:10610000FB02124A93E7FB02124A9366FC02124A10
:106110009369FC02124A936CFC02124A93FBFC0244
:10612000124A93FEFC02124A932EFD02124A935821
:10613000FD02124A9346FE02124A93F8FE02124AE8
:106140009304BF03124A932CBF03124A935ABF030E
:10615000124A9391BF03124A93EFBF03124A933A34
:10616000C003124A9385C003124A93C5C003124A62
:10617000930BC103124A9339C103124A93F6C10328
:10618000124A9300C203124A930DC203124A93406B
:10619000C203124A930CC303124A9318C303124A50
:1061A0009330C303124A933AC303124A93B086044E
:1061B000124A93BE8604124A93D68604124A93EE7C
:1061C0008604124A9354A202124A9300A302124A6E
:1061D000937BA302124A939CA402124A93D8A4026E
:1061E000124A9381A502124A9368A602124A93CCDE
:1061F000A702124A9323A802124A93A4A802124AA1
:106200009394A902124A93E1A902124A9367AA023F
:10621000124A9399AA02124A93ADAC02124A93EF22
:10622000AC02124A930DAD02124A9390AD02124A8B
:106230009364AE02124A932CAF02124A93B1AB039D
:10624000124A9384AC03124A932DAD03124A9380F1
:10625000AD03124A9330AE03124A93BCAE03124A06
:1062600093A8AF03124A93D7AF03124A93EAB0033D
:10627000124A9332B103124A9307B203124A93436C
:10628000B203124A935FB203124A9369FF02124AA1
:10629000934EDD03124A9364DD03124A938ADD03B1
:1062A000124A93A6DE03124A93B0DE03124A93E524
:1062B000DF03124A93DDE003124A93DDB903124A69
:1062C000930DBB03124A9340BB03124A938ABB034C
:1062D000124A9351BD03124A93659202124A93CF18
:1062E0009202124A932E9402124A933E9402124A48
:1062F000936B9402124A93C29402124A936B9502D2
:10630000124A93729602124A933C9702124A939C45
:106310009802124A93DF9802124A93849902124A11
:1063200093D19902124A93F79902124A93059C025B
:10633000124A930A9C02124A930F9E02124A935CDD
:106340009E02124A93CF9E02124A93029F02124A61
:1063500093A49F02124A934DA002124A9385A00271
:10636000124A9388A002124A93D0A002124A9310B4
:10637000A102124A9367A102124A93CBE603124A82
:1063800093E3E603124A932BE703124A9341E70390
:10639000124A9388E703124A939CE803124A93290E
:1063A000E903124A9374E903124A93008001124AE6
:1063B000930C8001124A93478001124A938C80010A
:1063C000124A934C8101124A93D28101124A9337A7
:1063D0008201124A93638201124A939C8201124AFB
:1063E00093DA8401124A93BE8601124A93A488016B
:1063F000124A93E78901124A93358C01124A934756
:106400008D01124A93928E01124A93A28F01124A71
:1064100093BF8F01124A93FA8F01124A931C900185
:10642000124A937F9001124A93409501124A93D5E4
:106430009501124A93269601124A934D9601124AEB
:10644000939F9601124A93BD9601124A93179701A2
:10645000124A93009801124A93769901124A93FACC
:106460009901124A93C1C303124A93CBC303124A40
:10647000930EC403124A9329C403124A93B9C40366
:10648000124A93E1C403124A931EC503124A93555C
:10649000C503124A937EC503124A93F3C503124AF9
:1064A0009308C603124A931DC603124A934EC603AD
:1064B000124A9362C603124A9387C603124A93C1D3
:1064C000C603124A93EDC603124A9325C703124A24
:1064D00093A4C703124A93EDC703124A9317C80344
:1064E000124A9342C803124A936EFD03124A935C08
:1064F000E802124A938AE802124A93D8E902124A41
:1065000093B8EA02124A93D7EA02124A9354EB0272
:10651000124A9397EB02124A93EDEC02124A93AEA1
:10652000ED02124A9335F002124A93D6F002124A53
:1065300093CCF102124A93C9F202124A9323F40255
:10654000124A93AEF402124A9313FC03124A937C4C
:10655000FC03124A93D0FC03124A93F7FC03124A3D
:106560009328FD03124A93F7CC03124A9364CD0398
:10657000124A93ABCD03124A93C3CE03124A93BF80
:10658000CF03124A93A2D003124A932E8B03124ACE
:1065900093708B03124A93428C03124A931B8D0310
:1065A000124A93158E03124A93F78E03124A936090
:1065B0008F03124A93169003124A938A9003124A49
:1065C00093F69003124A931F9103124A93999103F1
:1065D000124A93329203124A93979203124A93AC4F
:1065E0009203124A93F29203124A930B9303124AB4
:1065F00093709303124A93739303124A93E7E00351
:10660000124A930FE103124A934DE103124A930B8E
:10661000E203124A9372E203124A938EE203124A91
:1066200093B6E203124A93E6E203124A93F5E203B9
:10663000124A9372E303124A9398E303124A93486F
:106640007000124A93267200124A93587400124A3C
:1066500093947400124A93C17400124A93AB75006C
:10666000124A93F67500124A93417600124A9353E8
:106670007600124A93937600124A93C87600124A23
:1066800093167700124A93457700124A9368770071
:10669000124A93B57700124A933A7800124A9354FB
:1066A0007A00124A93937C00124A93D47C00124AD7
:1066B00093767E00124A93B77E00124A932A7F0097
:1066C000124A93807F00124A9347DB02124A934595
:1066D000DC02124A93DEE202124A93FFE402124AFB
:1066E00093CAE602124A9332E802124A93619A016F
:1066F000124A93109B01124A933D9B01124A9383C5
:106700009B01124A93C39C01124A93599E01124A5B
:1067100093D39E01124A93EE9E01124A93699F0100
:10672000124A93C3A001124A9323A201124A932949
:10673000A301124A938AA401124A93A3A401124A04
:106740009301A501124A93EFA501124A9322A601D3
:10675000124A9392A601124A930CA701124A935629
:10676000A701124A9320A801124A93F5A801124AE0
:1067700093D4A901124A935FAA01124A93CDAA01A8
:10678000124A9341AB01124A936CAB01124A932B0C
:10679000AC01124A9390AD01124A93ADAD01124A79
:1067A00093CCAD01124A93BDAE01124A93E2AE0101
:1067B000124A930CAF01124A9387AF01124A93E138
:1067C000AF01124A934AB101124A93F8B101124A39
:1067D0009339B201124A9373CD02124A93C1CD028A
:1067E000124A93CDCD02124A93ABCE02124A93DCE9
:1067F000CE02124A930DCF02124A938DCF02124A53
:1068000093C5CF02124A9317D002124A9354D00272
:10681000124A9371D202124A9397D402124A938277
:10682000D602124A936CD802124A93F37F00124A9E
:10683000930EDD01124A933EDD01124A9317E401E3
:10684000124A939CE501124A9399EB01124A9381F3
:10685000EC01124A93BEEC01124A93E1EC01124A98
:106860009312ED01124A931BED01124A9325ED019B
:10687000124A9313EE01124A9309EF01124A93FF51
:10688000C701124A93FECB01124A9304CC01124A6B
:10689000933FD301124A9358D801124A9380D903E7
:1068A000124A9316DA03124A932CDA03124A93A27D
:1068B000DA03124A9316DB03124A9354DB03124A9B
:1068C00093C8DB03124A9341DC03124A934ADC0368
:1068D000124A9356DC03124A936BDC03124A93A9C3
:1068E000DC03124A93BFDC03124A931EDD03124AF3
:1068F0009364D103124A9371D103124A938BD1034B
:10690000124A93CAD103124A9308D203124A936DD2
:10691000D203124A9382D203124A938DD203124AAF
:10692000939AD203124A93B1D203124A93BFD2036D
:10693000124A93CAD203124A93D6D203124A93E55B
:10694000D203124A93F0D203124A9313D303124A8A
:1069500093BAD303124A93CAD303124A93E4D303DC
:10696000124A9301D403124A931DD403124A93424C
:10697000D403124A934DD403124A9362D403124AA9
:106980009376D403124A93D7D403124A93DDD403E7
:10699000124A93E3D403124A93E9D403124A9301AF
:1069A000D503124A9334D503124A934AB102124ACC
:1069B00093CEB102124A937DB202124A93DCB30223
:1069C000124A93FDB502124A93E9B602124A931E87
:1069D000B702124A9340B702124A93EFB702124A23
:1069E00093E7B902124A9310BA02124A93A2BA026A
:1069F000124A93D4BA02124A93E1BA02124A933865
:106A0000BB02124A935EBB02124A93CBBD02124AEA
:106A100093CEBE02124A9326BF02124A9321F1017D
:106A2000124A932BF201124A9312F301124A931C59
:106A3000F301124A933EF301124A934AF301124AB8
:106A400093E3F401124A9312F501124A932EF601D0
:106A5000124A9387F601124A93EDF701124A93CC3A
:106A6000F801124A9328F901124A9395F901124A42
:106A700093D0F901124A930FFA01124A93C8FC010C
:106A8000124A93E2FC01124A936EFD01124A937C72
:106A9000FD01124A93D5FD01124A93E3FD01124A0A
:106AA0009356FE01124A93BAFE01124A9304FF0163
:106AB000124A93008003124A93228003124A934899
:106AC0008203124A935D8503124A93758603124A24
:106AD00093288703124A930A8803124A933DF703C7
:106AE000124A9362F703124A93D4F703124A933778
:106AF000A403124A9340A403124A9349A403124ADE
:106B00009320A503124A93D1A603124A9307A70321
:106B1000124A9341A703124A9377A703124A93B1EB
:106B2000A703124A93E5A703124A9311A803124A36
:106B3000935AA803124A9394A803124A93DDA80318
:106B4000124A9335A903124A936AA903124A93C5BC
:106B5000A903124A93FFA903124A9350AA03124AA7
:106B60009386AA03124A93C0AA03124A93EEAA0379
:106B7000124A9311AB03124A93148904124A9340A8
:106B80008904124A939B8904124A93A58904124AE4
:106B900093B58904124A93979303124A93A19303DE
:106BA000124A93DF9303124A93289403124A936282
:106BB0009403124A93BC9403124A93DD9403124A3D
:106BC00093B59703124A93BE9703124A930B980307
:106BD000124A93349803124A933E9803124A93AA96
:106BE0009803124A933C9903124A93869903124AD6
:106BF00093BC9903124A93489A03124A93899A03C1
:106C0000124A93C09A03124A93D29A03124A93F1FA
:106C10009A03124A93FA9A03124A93C79B03124AA1
:106C200093DF8404124A9392F303124A93C8F30346
:106C3000124A93FEF303124A9349F503124A935BF7
:106C40008A04124A93718A04124A937B8A04124A74
:106C500093C58A04124A938DFF01124A936AC803AE
:106C6000124A937FC803124A932FC903124A936FA3
:106C7000C903124A9388C903124A93C3C903124A2B
:106C80009310CA03124A9342CA03124A9384CA0356
:106C9000124A9385CC03124A9384FA03124A93ADA5
:106CA000FA03124A93DCFA03124A9374FB03124A62
:106CB000938CFB03124A93CEFB03124A93E0E30347
:106CC000124A93EEE303124A935FE403124A9323BA
:106CD000E603124A9341E603124A936AEC03124A0E
:106CE000939AEC03124A93B2EC03124A9322ED03F7
:106CF000124A93B9ED03124A9339EE03124A939E56
:106D0000E903124A93C3E903124A93EDE903124AD5
:106D1000934B8B04124A9369B201124A93CEB40189
:106D2000124A936FB601124A9323B701124A93B6DF
:106D3000B701124A933BB801124A9360B801124A54
:106D400093B6BB01124A933CBC01124A936FBD013A
:106D5000124A93A9BD01124A93DEBD01124A939EC5
:106D6000BF01124A93FBBF01124A9344C001124A69
:106D700093AFC001124A9320C101124A9352C1013C
:106D8000124A936AC101124A93B3C201124A93C3D1
:106D9000C201124A93DEC301124A9300C401124A8F
:106DA0009336C401124A93EAC501124A9377C60189
:106DB000124A93B6C601124A93DAC701124A935394
:106DC0008804124A93648804124A93098904124A77
:106DD00093AA7F00124A93E97F00124A93E9FF03C6
:106DE000124A93F4FF03124A93ECFF01124A93D61E
:106DF0008504124A93E68504124A93F88504124AE0
:106E000093AA8604124A9387FE03124A930CFF0347
:106E1000124A9372FF03124A93878704124A93BB64
:106E20008704124A93E48704124A93DF8304124AC8
:106E300093008404124A93548404124A935E840497
:106E4000124A93A88404124A93D38404124A93D614
:106E50008404124A93498C04124A93598C04124AAE
:106E6000935C8C04124A938BFF03124A939AFF039C
:106E7000124A93F87F00124A934DF103124A93E8A5
:106E8000F203124A9349F303124A938FF303124A0F
:106E900093EDFF02124A93F2FF02124A93F9FF02A6
:106EA000124A93FBFF02124A93D4B203124A93117F
:106EB000B303124A932CB303124A93FDB303124A4D
:106EC00093EBB403124A9398B603124A930AB7039A
:106ED000124A93F2B703124A9379B803124A93996C
:106EE000B903124A93E2F803124A9334F903124A9F
:106EF00093BEF903124A9325FA03124A9308EF034B
:106F0000124A9332EF03124A9300F003124A93DBC2
:106F1000F003124A93F59B03124A93BC9C03124A56
:106F200093F39C03124A931D9D03124A937D9D0384
:106F3000124A93D39D03124A93389E03124A93D068
:106F40009E03124A93DF9F03124A9376A103124ACB
:106F50009303A203124A936AA203124A9381A203E3
:106F6000124A939BA303124A93D9A303124A93BFD5
:106F70008904124A93EF8904124A93F48904124A4D
:106F80009374BF02124A93F5C202124A937DC4025F
:106F9000124A93D4C402124A93F3C402124A937160
:106FA000C502124A9307C702124A93ECC702124A5B
:106FB00093FACB02124A93D0CC02124A9300800279
:106FC000124A93C78202124A93D18202124A93DB79
:106FD0008202124A93F68202124A933B8302124AB9
:106FE00093CC8302124A93A78E02124A93468F02D1
:106FF000124A931C9002124A93719102124A93B161
:10700000D503124A93F6D503124A9313D603124AB4
:1070100093D8D603124A9341D703124A930ED8034A
:10702000124A9347D903124A93D78B04124A93A169
:107030008B04124A93038C04124A932B8C04FFFF97
:10704000FFFFFFFFFFFFFFFF74F4124E63E99003A1
:10705000A0F01268EE907800E0C4540F5407640367
:107060007004793F8002797F750A06750B00780AF3
:107070001250767C8E7D037AEA7B07126E047402CE
:10708000124E0490038EE0F47049A3E0F47044A320
:10709000E0F4703FA3E0F4703AA3E0F47035A3E0AD
:1070A000F4703090780EE090038EF090780FE090BE
:1070B000038FF0907810E0900390F0907811E090BA
:1070C0000391F0907812E0900392F0907813E090A2
:1070D0000393F090039474FFF0A3F0A3F0A3F0A344
:1070E000F0A3F090038EE090039AF090038FE0906D
:1070F000039BF0900390E090039CF0900391E0904C
:10710000039DF0900392E090039EF0900393E09033
:10711000039FF09003BE7406F0A3740DF0A3E4F097
:10712000A37440F0A37401F09004EA74FFF0A3F09C
:10713000A3F0A3F0A3F0A3F09004E9E4F09004F02E
:10714000F0A374A0F0A3E4F0A37403F0A37407F019
:10715000A3E4F0A37428F0A3E4F0A304F0A3E4F004
:10716000900519F090053C74FFF0A3E4F090053E03
:10717000F090054004F09005417490F0A37401F084
:1071800012670212665412689A79017A437B0512DB
:1071900067E0900543E075F01484E5F004F0790CA5
:1071A0007A647B051267E01267F87A009003A0E02A
:1071B000F9126C48907803E064427055900543E002
:1071C00014F0704DC2AF1271C900782AD0E0F618E1
:1071D000D0E0F6E59F54077005750BFF8003750B33
:1071E0007FC4C0E07829E6F50A08E6550BF50B7474
:1071F0000B780A124DCCD0E0250AF8906270E0A21C
:10720000E740F8E8C333906272F0906270E0D2E039
:10721000F09003CBE4F0A3F07A80FB9003A0E0F9B8
:10722000126BF402771174F4124E63EAFEEBFFEE78
:10723000A2E050459003A2E0C39480E0500FC33316
:10724000F8E433F9748A28F582740A800EF4C333A3
:10725000F8E433F9749828F582740A39F583E0F874
:10726000A3E0F5838882124E617A009003A0E0F9D2
:10727000126C48EE640102744C54026040750A00BE
:10728000780A12507AE4F50B780A125076780A12CE
:107290005076780A125076750AD5750B04780A1262
:1072A00050769004D4E0FD7C017A007B00793C129A
:1072B000651C7409124E04EE640202744CEE540410
:1072C00070030273629003CFE0F875F003A4C8AABC
:1072D000F02AF974D128FA740339FBEA242AF582DA
:1072E000EB3400F583E0F50A780A12507AEA24328A
:1072F000F582EB3400F583E0F50AA3E0F50B7404A6
:10730000780A124DCC780A125076EA2420F582EBE6
:107310003400F58312508DEA242EF582EB3400F50B
:1073200083E0F50AA3E0C313F50BE50A13F50A7829
:107330000A125076750AD5750B04780A12507690A9
:1073400004D4E0FD7C018A828B83A3A3A3A3E0FA8B
:107350007B00790012651C7409124E04EE6404026D
:10736000744CEE54406040750A00780A12507AE47A
:10737000F50B780A125076780A125076780A125075
:1073800076750AD5750B04780A1250769004D4E00D
:10739000FD7C017A007B00793B12651C7409124E5A
:1073A00004EE644002744CEE5480603B900541E072
:1073B000F8A3E0F9E849602A7900126C429005418F
:1073C000E0F50AA3E0F50BE4F50CF50D780A125090
:1073D000727A007B019003A0E0F9126C72740412BF
:1073E0004E04EE64808065EF5401600C7901126CEC
:1073F00042EEFAEF64018056EF5402600AC2AF75A4
:10740000C9AB75C95B80FEEF5404600A126001EEDF
:10741000FAEF640480389003A7E064017033EE54FF
:1074200020602E9003A1E024F9600314701B793FC3
:107430009003CFE0FA75F003A4CAA8F028FB74D13A
:107440002AFA74033BFB1267A4EE6420FAEFFB8078
:10745000047A007B0002771174F6124E63C3EA943B
:1074600011EB940050047A1080027A20EA2408FA82
:10747000E43400FB126EE28A0A8B0BA80AA90BE81F
:1074800049600AE82404FAE93400FB80047A007BAE
:1074900000027A4F74F6124E63EA2405FAEB3400C8
:1074A000FB126EE28A0A8B0BA80AA90BE849600A54
:1074B000E82405FAE93400FB80047A007B00027AB4
:1074C0004FC082C083C2AF1268CAE5E170FC75E1AB
:1074D000011266F675E1F11268FA1266EA7907128E
:1074E000696C790112697279021269241269421277
:1074F0006960790012696679011269667A557B556F
:107500007C557D0012690C9004D4E4F0A3F0A3F044
:10751000A3F0A3F0A3F0A3F09004F0F0A3F0A3F085
:107520009004F47407F09004F37403F09004F9E409
:10753000F09004F8F0900519F012679212682E127C
:1075400067AA79001269789004DB74FFF0A3F0A3B6
:10755000F0A3F0A3741FF0906012E4F0A3F0906029
:1075600063F07521009003A1F09004E0F09004E135
:10757000740CF09004E2E4F09004E304F09004E46E
:10758000E4F09004E504F09004E6E4F09003A3F046
:10759000A3F09003A6F09003A704F09003BD04F0BD
:1075A00090053FE4F0D2AFF9027F79C082C08390AA
:1075B000038EE08A828B83F090038FE08A828B8334
:1075C000A3F0900390E08A828B83A3A3F0900391B1
:1075D000E08A828B83A3A3A3F0900392E08A828B3C
:1075E00083A3A3A3A3F0900393E08A828B83A3A336
:1075F000A3A3A3027F76C082C0838A828B83E0909C
:107600000394F08A828B83A3E0900395F08A828BA7
:1076100083A3A3E0900396F08A828B83A3A3A3E0C5
:10762000900397F08A828B83A3A3A3A3E09003988F
:10763000F08A828B83A3A3A3A3A3E0900399027F84
:1076400076C082C08312670EE97005126942790024
:10765000027F7974F7124E63EAFEEBFF890A126724
:107660000EE9702CE50A600A7401650A600A791255
:10767000801E7C00790080047C007901EEFAEFFB2B
:10768000126948E9F8740368700479078002790088
:10769000027A4A74F6124E63EA4B6016EC4D6012A1
:1076A000740A124E57E0F50AA3E0F50BE50A450B04
:1076B00070047912800F780A1250761267F2740201
:1076C000124E047900027A4F74F4124E63EAFEEB14
:1076D000FF890A9003A1E064096014E0640A600F66
:1076E000E0640B600AE0640C6005E0640D700479EE
:1076F0000C801E1268528B0DEA450D700BA90AEE24
:10770000FAEFFB1267E080099003A3E04440F079B0
:107710000D7F04024F3574F6124E63EA4B6003E9A5
:1077200070047912801CEAFEEBFF890A1267DAE91D
:107730008E828F83F0A3AE82AF83150AE50A70ECC8
:107740007900027A4FC082C083E9F8740168700B37
:1077500090053F7401F07900027F79E8700690058A
:107760003FE480F1791280F0C082C0839003A1E0F1
:10777000640C701290618EE0F974806970258C82BF
:107780008D83747F8029C3EB940F5013EA4B700FE5
:107790009003D4E070047902801890043980D8797D
:1077A00012800F9003A5E0F8E9C3988C828D83F0D6
:1077B0007900027F7974F7124E63E9FE74056E60FA
:1077C0001E74136E601974146E601474156E600F5D
:1077D000741A6E600A74296E6005743B6E7026C35D
:1077E000EB940F5020EA4B701C9003D4E0700479A6
:1077F00002804490043AE064017025A3E0640270C2
:1078000008793A80327912802EEE9004C5F0900308
:10781000EEE4F0A3F079027AD17B03126780801541
:10782000EE9004C5F09003EEE4F0A3F079027AD173
:107830007B031267747900027A4A74EA124E63EC91
:107840004D6014E9C3941C500E7416124E57E0F8A4
:10785000600A74016860057912027A45C3EB940FDF
:107860005019EA4B70159003D4E070047902800D32
:107870009004E1E0700A7907027A457912027A45AC
:10788000EC24FEFCED34FFFD8C828D83E9F0E87082
:1078900004740280027401A3F0EC24FEFCED34FFBA
:1078A000FD7A347B041267C89004E1E014F0900381
:1078B000A1E064086008E064076003027A43900373
:1078C000CFE06003027A4379007AD17B031255EA54
:1078D0009061D0E07003027A439004E5E0640160B7
:1078E00003027A439003EEE0F8A3E0F9E84970035D
:1078F000027A43A2AFE433F516C2AF1268528A0A85
:107900008B0BAE0AAF0B1268DC8A128B138C148DB2
:10791000158A0A8B0B8C0C8D0D750E01750F007579
:107920001000751100780A790E124C24780A125052
:10793000728E828F83A3A3124CDC125DA774041293
:107940004E04E964016003027A3D9003FFE02406DF
:10795000F50AA3E03400F50BE4F50CF50D78127987
:107960000A124C2478121250728E828F83A3A312B3
:107970004CDC125DA77404124E04E964016003023A
:107980007A3DEE2408F50EEF3400F50F850E82F5F2
:1079900083125089AA12AB13AC14AD15125E007499
:1079A00004124E049003FF12508D125A30740212CA
:1079B0004E048A0A8B0B8C0C8D0D7410780A124BB6
:1079C000EC9003DAE0F8A3E0F99003D6E8F0A3E93D
:1079D000F0E8250AF8E9350BF9A3E8F0A3E9F0850A
:1079E0000E82850F83C082C0839003FFE0F50EA353
:1079F000E0F50F780A790E124AFCD083D082780A1B
:107A0000124C37750EFF750FFF7510FF780A790E4F
:107A1000124C858E828F83A3A3E50AF0A3E50BF0B9
:107A2000A3E50CF0A3E4F0900406E0900405F07ADE
:107A3000D17B03125276EEFAEFFB12683AE516A2FA
:107A4000E092AF79007F0E024F357F01024F357F04
:107A500002024F3574F6124E63EAFEEBFF890A7498
:107A60000B124E57E0F50B740C124E57E0F8A3E0E2
:107A7000F9E50A605F7401650A60157403650A60C0
:107A80002F7402650A60297404650A6003027B2F63
:107A9000E8497003027B2FE50B60097401650B60F8
:107AA00003027B2F7403650A60067402650A704640
:107AB000EE2460FAEF34FFFBC3EA9461EB943F508D
:107AC0006EEC2460FAED34FFFBC3EA9461EB943F63
:107AD0004024805BEE24E0FAEF34FFFBC3EA94E13C
:107AE000EB943F504AEC24E0FAED34FFFBC3EA94F8
:107AF000E1EB943F5039C3EC9EED9F4032740A1283
:107B00004E57E0FA600574016A7024740F124E57E4
:107B1000E0FC600F74016C600A74026C6005740311
:107B20006C700C740E124E57E0FB74075B70057995
:107B300012027C909004F0E064017005790C027CE4
:107B400090E50A9004F3F074075BA3F0ECA3F0EA6D
:107B50009004E9702FE4F090038EE09004EAF09036
:107B6000038FE09004EBF0900390E09004ECF09031
:107B70000391E09004EDF0900392E09004EEF09019
:107B80000393802E7401F0900394E09004EAF09047
:107B90000395E09004EBF0900396E09004ECF090F5
:107BA0000397E09004EDF0900398E09004EEF090DD
:107BB0000399E09004EFF07401650A7053E50B90AF
:107BC00004D4F088828983E09004D5F08882898388
:107BD000A3E09004D6F088828983A3A3E09004D721
:107BE000F088828983A3A3A3E09004D8F0888289D7
:107BF00083A3A3A3A3E09004D9F088828983A3A3DD
:107C0000A3A3A3E09004DAF09004F1E4F0A3807D54
:107C10007404650A704DE50B9004D4F08882898362
:107C2000E09004D5F088828983A3E09004D6F088A0
:107C3000828983A3A3E09004D7F088828983A3A3D9
:107C4000A3E09004D8F088828983A3A3A3A3E09043
:107C500004D9F088828983A3A3A3A3A3E09004DAC4
:107C6000F08023EC70047900801974016C70047941
:107C700001801074026C70047902800774036C70C8
:107C800005790312694E9004F1EEF0A3EFF079004C
:107C9000027A4F74F6124E63E9FEC39420500BEE45
:107CA0009004F9F06023EA4B700479128023E0F528
:107CB0000A750B00780A125076EAFCEBFD7AFA7B23
:107CC00004126B9A7402124E049004F87401F07955
:107CD00000027A4F74F0124E63E9FE9003A1E06453
:107CE000097003027DFDE0640A7003027DFDE0641B
:107CF0000B7003027DFDE0640C7003027DFDE06407
:107D00000D7003027DFD9004F3E0601664016012C3
:107D1000E06403600DE064026008E0640460030254
:107D20007E729004E9E0600764016003027E729055
:107D300004F3E064036005E0640270109004F1C392
:107D4000E094A0A3E094005003027E72EE70030260
:107D50007E0B146003027E729004F0E064017003F5
:107D6000027DFD9004F3E0600964016005E06404B5
:107D7000700B12685EE954FD6003027DFD7901120B
:107D800068469004E7EAF0A3EBF09004F07401F089
:107D90009003A1E0706E1268DC8A0A8B0B8C0C8D4C
:107DA0000D750E03750F00751000751100780A79B6
:107DB0000E124C24750EFF750FFF7510FF780A79AF
:107DC0000E124C859004E7E0F8A3E0F5838882A3C7
:107DD000A3780A124CCD9004E7E0F8A3E0C824068B
:107DE000F582E83400F583E4F0A3F0126714E9604B
:107DF000107AE77B0412684C9004F0E4F07921805B
:107E00000512683479007F08024F359004F0E06075
:107E1000ECA2AFE433FFC2AF7AE77B0412684C9068
:107E200004F0E4F0126864E970411268CA9061825B
:107E3000E0C2E6F0E5E170FC75E1017591BF75E126
:107E4000F19003A7E0640170187A207B009003A0F2
:107E5000E0F9126C7E7A207B009003A0E0F9126BAF
:107E6000FA7A009003A0E0F9126C48EFA2E092AF1A
:107E700080927912809074F6124E63E9FEC39420CA
:107E8000500BEE900519F06023EA4B7004791280D4
:107E900023E0F50A750B00780A125076EAFCEBFD38
:107EA0007A1A7B05126B9A7402124E049004F874CD
:107EB00001F07900027A4FC082C0839003A1E06490
:107EC000076004790C805CEC4D605BC3EB940F5051
:107ED00055EA4B70519003D4E07004790280447AE3
:107EE000008C828D83E0C0E0EAF8C3E498F895E066
:107EF000F9749E28F582740439F583A3A3A3A3D053
:107F0000E0F00A8C828D83A3AC82AD83EAC3941027
:107F100040CF9004A47401F079057AD17B031267F5
:107F2000747900027F79791280F9C082C08390034E
:107F3000A1E064076004790C8039C3EB940F5020F2
:107F4000EA4B701C9003D4E0700479028025900401
:107F5000ADE06401700E9004C57406F07902800AE9
:107F60007912800FA37406F0790D7AD17B03126722
:107F7000747900027F79F07900D083D082024A9030
:107F8000C082C083E9F8900540E07004790C800E4F
:107F9000E8600D1470109003A67401F0790080D988
:107FA0009003A6E480F5791280F4C082C083900823
:107FB000397470F0A374B1F0A3E0541FF090083D41
:107FC000741DF0A37442F0A37470F0A374B2F09027
:107FD0000843E0541FF0900845741EF0A37412F09B
:107FE0008000D083D082024A90C082C083126DCEBE
:107FF000027FE2024A90FFFF851C87C2AF024A90CF
:10800000C082C083E9900A68F002828F74F7124E32
:1080100063E99002E0F07C187D037AFF7BFF126435
:10802000389002E174FFF0A3F0A3E4F0A3F0790527
:108030001263C09002E0E0F91262E27A567B6412A9
:1080400066007F01024F3574F4124E638A0A8B0B6F
:10805000EB548060309002E0E0F9126BDC8A0C8B0C
:108060000DAE0CAF0DEE4F60138E828F83E064B0C7
:1080700070031263D8EEFAEFFB126BCAAA0AE50B83
:108080006480FB80047A007B0002825E74F2124EF0
:108090006374FC124DEEEAFEEBFFEE4F60387402A3
:1080A000124E57EEF0A3EF1284C3ECF0A3ED12844E
:1080B000C3AA82AB831262DCE9F50A7073741212F0
:1080C0004E57129077E50C450D60658E828F8312B6
:1080D000813AEE4F7005750A0280557A067B0012D0
:1080E0006C308A0E8B0FA80EA90FE8497005750A2F
:1080F00013803D88828983E4128144A3A3EEF0A318
:10810000EF129510E50CF0A3E50DF09002E6128158
:10811000CC9002E66017E0FCA3E08003EAFCEBFDF4
:108120008C828D831281CC70F38C828D83128F9C14
:10813000A90A7404124E04029712A3A3A3A3E0FE9B
:10814000A3E0FF22F0A3F0888289832274F2124E0A
:1081500063890CE975F017A4FEAFF09002E5E4F036
:108160009002E31281CC600A126C369002E3E4F0D4
:10817000A3F0EEFAEFFB126C308A0A8B0BEA450B88
:10818000602FEEFCEFFD7900126BB29002E3E50A7E
:10819000F0A3E50BF07B0080081281B6E4F0A3F0B9
:1081A0000BEBC3950C40F2E50C9002E5F0790080F2
:1081B000027913029712EB75F017A4F8A9F0900258
:1081C000E3E028FAA3E0398A82F58322128D32EAAD
:1081D0004B2274F4124E63750A00750B00740C1276
:1081E0004E571294E4FEE9FF800CE50A2401F50ADB
:1081F000E50B3400F50BC3E50A9CE50B9D50328579
:108200000A0C850B0D7403780C124DDBEA250CF873
:10821000EB350DF988828983A3A3A3A3A3A31290AE
:1082200077EE650C7003EF650D70BFE8FAE9FB802F
:10823000047A007B00802774F4124E637900EAA26E
:10824000E0501B750AF2750B82780A1250767C0496
:108250007D007A6A7B0A1263BA7402124E047F04AC
:10826000024F35C082C0839002E6128296601C885D
:10827000828983A3A3E06A7003A3E06B8882898369
:1082800070E8A3A3A3A3128D2E80047A007B00D0F4
:1082900083D082024A901297E5E8492274EE124E8A
:1082A0006374FC124DEEEAFEEBFF851A82851B8398
:1082B000E4F0A3F0EE2402128F80EE24051284B1C4
:1082C000EE2404F510EF128896E024FE603924FCB9
:1082D000604624FE605224FE605E24FE700302832A
:1082E000B624FE700302842E24FE700302843D2413
:1082F000FE700302844C24FC700302845B24FE7035
:108300000302846A0284A79002FF7417F0A3E412A8
:1083100084CB12605A0284A7851A82851B83AC82A3
:10832000AD831263DE028477851A82851B83AC825B
:10833000AD831263E4028477850E0A850F0B740205
:10834000124E57AC82AD83850A82850B83128D2E27
:108350001263008A0E8B0FAC0EAD0FEC4D6042E441
:10836000F50EF50F780E125076750EFF750F027828
:108370000E125076750E00750F03780E125076743B
:1083800008124E5712508D7916128D2812642074DF
:1083900008124E04E9F50E700B128D2412607280E3
:1083A0000F750E01850A82850B831284B9128F9C8A
:1083B000850E0A02847A7402124E57AC82AD838510
:1083C0000E82850F83128D2E1263008A128B13ACDE
:1083D00012AD13EC4D6043850E82850F83A3A3126B
:1083E000508D7512FF7513027812125076751200B7
:1083F00075130378121250767408124E5712508D6E
:108400007916128D281264207408124E04E9F50BB7
:10841000700B128D24126078800F750B01850E820F
:10842000850F831284B9128F9C850B0A804C851AA4
:1084300082851B83AC82AD831263EA803A851A82FF
:10844000851B83AC82AD831263F0802B851A8285F5
:108450001B83AC82AD831263F6801C851A82851B58
:1084600083AC82AD831263FC800D851A82851B83E9
:10847000AC82AD83126402E9F50AE50A60298E82B6
:108480008F83A3E06414601F851082851183E090C0
:1084900002FF1284C31297E1900300128F9CE50A39
:1084A000A31284CB126054EEFAEFFB12637E028EAD
:1084B00088F50EEF3400F50F221297E5851A8285B4
:1084C0001B8322F0851A82851B8322F07CFF7D02AC
:1084D000850C82850D83128D322274EE124E6374E8
:1084E000FC124DEE8A0C8B0D8C108D11EA2405F5D3
:1084F0000AEB3400F50B7C157D0079007AFF7B02D6
:10850000126BB2E50A2402F50EE50B1284B4851A4B
:1085100082851B838582128583137812125076859B
:108520000A82850B83A3A3A3A31289DE125076E5EA
:108530000A2405F512E50B3400F513781212507673
:10854000850E82850F83128D381262FA7406124EE0
:10855000048A128B13AE12AF13E50C2402F50CE55E
:108560000D128F83EE4F70030286A08017740212E3
:108570004E57128D2E88828983EAF0A3EBF0900289
:10858000FFE004F09002FFE0C3940540030286A0E0
:10859000E4F512F51378121250767512E87513028D
:1085A00078121250767512E975130278121250760D
:1085B0007406124E5712508D7910EEFCEFFD128D9D
:1085C000281264207408124E04E9705E850A8285C0
:1085D0000B83A3A3A3A3A3A3A3E0F89002E8E068FE
:1085E00070481289DE1250767CE97D02E50A240883
:1085F000FAE50B3400FB126BAC7402124E04E96016
:10860000298E828F83A3A3A3A3128D2E9002FFE055
:10861000F51274027812124DDB74002512F5827483
:10862000033513F583EAF0A3EBF07402124E57857D
:10863000821285831378121250767402124E5712EA
:10864000508D850E82850F831297F612630674048F
:10865000124E048A128B13AE12AF139002FFE0F594
:108660001275130074027812124DDB74FF2512F894
:1086700074023513F988828983A31281CC700302B6
:108680008564E82403F8E93400F9EE4F60030285BD
:108690006D8882898374FFF0A3F09002FFE004F0FC
:1086A0009002FFE0600A128D241260667900800B50
:1086B000850A82850B83128F93790A028E8874EA69
:1086C000124E6374FE124DEE8C148D15EA2405F5DE
:1086D0000EEB12996012813E750A00750B00EA24B8
:1086E00002F512EB3400F513851A82851B8385820F
:1086F0000C85830D780C125076850E82850F83A32E
:10870000A3A3A31288A0125076E50E2405F50CE56C
:108710000F128F83780C125076850E82850F83128C
:1087200097F41262FA7406124E048A0C8B0DEA4515
:108730000D7003028851EA2404F510EB128896129A
:10874000813E8A828B83A3A3A3E0F98512828513DD
:1087500083128D2E1262E8E9F50B6003028851E462
:10876000F516F51778161250767516E87517027813
:10877000161250767516E97517027816125076742F
:1087800006124E5712508D7913AC0CAD0D85128226
:10879000851383128D2E1264207408124E04E9F59D
:1087A0000B60030288519002E8E0F8E50A7009E0E6
:1087B0002402900300F08017900300E0FCE82402FC
:1087C000FAE43400FBEA6C7001EB60030288558523
:1087D0000A82AA821289D594141289CD5073851009
:1087E00082851183E0C0E074012A12888DD0E0F008
:1087F000050A851082851183A3E0C0E0850A0C7408
:1088000001250C12888DD0E0F0050A9002E812884C
:10881000A01250767CE97D02850A0C7401250CFAC1
:1088200074033400FB126B9A7402124E049002E837
:10883000E0250AF50A74FF6E700374FF6F6012EE94
:1088400024010EEF3400FFE50AC39414500302869E
:10885000E8E50A6013128C19851282851383128D44
:108860002E12606C79008014E50B7003750B0A857D
:108870001482851583EEF0A3EFF0A90B7402124E5B
:10888000047F0E024F35850A0E7401250EF58274A1
:10889000033400F583223400F511851082F583221C
:1088A0001295232274EE124E6374FE124DEE8C105C
:1088B0008D11EA2405F50EEB1284B4750D009002BB
:1088C000FFE4F0F50CEA2402F50AEB3400F50B8026
:1088D000499002FFE0FA9002E8E0F81289D5941777
:1088E0001289CD400D9002FFE0F87416C3989002F3
:1088F000E8F01289DE1250767CE97D0274002AFAD3
:1089000074033400FB126B9A7402124E049002E856
:10891000E0F89002FFE028F0050CE50E2416F58241
:10892000E50F128891E0F8E50CC39840030289B680
:108930009002FFE0C39416507DE50CC333F8E43396
:10894000F9E50E28FEE50F39FF851A82851B83ACF9
:1089500082AD838E828F83128D2E1263008A128BDA
:1089600013AC12AD13EC4D7005750D018043E4F5A9
:1089700012F51378121250767512E87513027812F8
:108980001250767512E97513027812125076740639
:10899000124E5712508D7916850A82850B83128DDF
:1089A0002E1264207408124E04E9F50D700302883B
:1089B000D1128F8F80107CFF7D02850A82850B8308
:1089C000128D2E12607EA90D7402028E8AE9940027
:1089D000C365D03322EA28F8E43400F9E822E0F550
:1089E0001275130078122274EA124E6374FC124D51
:1089F000EE8A0E8B0F8C148D15EA2405F50CEB1204
:108A00008F83750A00750B00E50C2402F512E50D45
:108A10003400F5137402124E578582108583117845
:108A200010125076850C82850D83A3A3A3A3129404
:108A3000CF125076E50C2405F510E50D3400F51144
:108A40007810125076851282851383128F89128DC9
:108A5000281262FA7406124E048A108B11AE10AFFF
:108A600011E50E2402F510E50F3400F51180408861
:108A700082898374FFF0050A12888674FFF0050A64
:108A80009002E8E0F50E750F00780E1250767CE942
:108A90007D02850A0E7401250EFA74033400FB1260
:108AA0006B9A7402124E049002E8E0250AF50AEE71
:108AB0004F60718E828F83A3A3A3E0F98510828516
:108AC0001183128D2E1262E8E9F50BEE2404128454
:108AD000B1E97044E4F516F517781612507675165C
:108AE000E875170278161250767516E97517027830
:108AF000161250767408124E5712508D7911EEFCF2
:108B0000EFFD851082851183128D2E12642074086A
:108B1000124E04E9F50B6027850E82850F83128CB7
:108B20000F128F9CE50A7003028BF5128C198510C9
:108B300082851183128D2E1260847900028C0A8541
:108B40000A82AA82EA9002E87009E02404900300F5
:108B5000F08022E0F8900300E0F516E82404FCE43D
:108B60003400FDEC65167001ED70C01289D59412C9
:108B70001289CD50B6850E82850F83E0C0E0740166
:108B80002A12888DD0E0F0050A850E82850F83A316
:108B9000E0C0E0128886D0E0128C2B85820E85839F
:108BA0000F780E1250767404124E5712508D8512A3
:108BB000828513831297F61263067404124E048A98
:108BC0000E8B0FAE0EAF0F850A0E7401250EF874D2
:108BD000033400F9EE4F7003028A6F851A82851BF9
:108BE00083E088828983128C2BA3E0C0E012888600
:108BF000D0E0028A7DE50B7003750B0A850C828537
:108C00000D83128C0F128F9CA90B740402887E12A4
:108C100097E585148285158322900300E0F5F0E541
:108C20000A849002FFF07CFF7D0222F0050A851A7B
:108C300082851B832274EC124E6374FE124DEE8A01
:108C40000A8B0B8C108D11EA2405FEEB3400FF8596
:108C50001A82851B83AC82AD838E828F83128D2E08
:108C60001263008A0C8B0DEE24181284B1EA450DB4
:108C70007003028CFF128E715032851A82851B831D
:108C8000128D2E1264148A128B13EA4513606B79CD
:108C900012AC0CAD0D850A82850B83128D2E8512C8
:108CA00082851383124E61E9F50C7058E4F50CF5DA
:108CB0000D780C1250768E828F83A3A3E0F50C788A
:108CC0000C125076EE2403128F80780C1250768EA0
:108CD000828F83128D381264267406124E04E9F5D1
:108CE0000C7021850E82850F83E0701F850A8285B6
:108CF0000B83128D2E12608A8011750C0E800975FF
:108D00000C018004E50C6003128F8F850E82850FA5
:108D100083E0600479008002A90C7402124E047F83
:108D20000C024F357CFF7D02850C82850D83128DF0
:108D30003222E0FAA3E0FB22E0FCA3E0FD850A82F8
:108D4000850B83128D322274EE124E6374FE124D27
:108D5000EE8A0A8B0B8C0E8D0FEA2405FEEB340095
:108D6000FF751000851A82851B83AC82AD838E82CD
:108D70008F83128D2E1263008A0C8B0DEA450D70C5
:108D800003028E5D128E715035851A82851B831207
:108D90008D2E1264148A108B11EA4511605E7912CF
:108DA000AC0CAD0D850A82850B83128D2E85108249
:108DB000851183124E61E9F5106003028E60850A09
:108DC00082850B83129077AA0CFB1264088A128B9F
:108DD00013A812A913E849701E7AFF7BFF126408DA
:108DE0008A128B13A812A913E849606C88828983C0
:108DF000E50CF0A3E50DF0750C00800775100E80F2
:108E00005F050C9002E5E0FAE50CC39A504AE50CC8
:108E100075F017A4FAABF088828983A3A3E02AFA3D
:108E2000A3E03BFB8A828B83128F89EC4D70D27555
:108E30000C17750D00780C125076EEFCEFFD126BDE
:108E40009A7402124E04EEFCEFFD850A82850B83B4
:108E5000128D2E1260908014751009800375100118
:108E60001297DD850E82850F83128F9CA9100289CF
:108E7000C8E50A2402F50AE50B3400F50B8A828B5B
:108E800083A3A3A3E0A2E5227404124E047F0A0286
:108E90004F3574EC124E638C128D13EA2405F50ED7
:108EA000EB1284B4751100EA2402F50CEB128F83E7
:108EB000850C82F583128D2E1264088A0A8B0BEAC8
:108EC000450B7003028F757510008071850E8285C9
:108ED0000F83E06401704F8E828F83A3A312508DA5
:108EE0008E828F83A3A3A3A3E0F5147515007814D5
:108EF000125076EE2405F514EF3400F515781412AF
:108F00005076128D281264267406124E04E9F5116B
:108F10006014850E82850F83E4F01297DD8512823E
:108F2000851383128F9C7C177D007900EEFAEFFB8E
:108F3000126BB28E828F83E4F0A3F005109002E5ED
:108F4000E0F8E510C398501EE51075F017A4F8A9D5
:108F5000F0850A82850B83A3A312996A128F89EC8C
:108F60004D6003028ECC850A82850B8374FFF0A3CB
:108F7000F0E5117006128D28126096A911028D1F5E
:108F8000F50CEF3400F50D22A3E0FCA3E0FD228EEA
:108F9000828F831297E5851082851183E8F0A3E91B
:108FA000F022C082C0839002E1E06A7003A3E06B0C
:108FB00070067AE17B0280047A007B0002828FC017
:108FC00082C08378008C828D83E06A7003A3E06B9B
:108FD0007010E875F003A4F8A9F0EC28FAED39FB5D
:108FE0008015088C828D83A3A3A3E06A7003A3E09D
:108FF0006B60DF7A007B0002828F74F6124E631280
:1090000063D28A828B83E582458370067A007B0077
:109010008007A3A3A3A3128D2E02968E74F2124E84
:1090200063E9FE740E124E571290777410124E5769
:109030001294EF8C828D83E064027036A31297EB5A
:10904000F50EA3E0F9A80E74026870037429697024
:1090500021750E02750F00780E125076780A1250A4
:1090600076780C125076EEF912644A7406124E04A9
:1090700080027901029712E0F50CA3E0F50D22744D
:10908000E8124E6374FB124DEEE9851A82851B834C
:10909000F08A188B19ECFEEDFF751200741D124E4C
:1090A000571297E1741D124E57128F9C8E828F8338
:1090B000A3A3A3E0A2E4502D741D124E57128D2ECF
:1090C0001264148A828B83E582458370030294C004
:1090D000790AEEFCEFFDAA18AB19124E61E9F51200
:1090E00060030294C3741F124E571294EF7421123E
:1090F0004E571290777423124E57E0F510A3E0F507
:10910000118E828F83E06402600302946EA3129733
:10911000E1850A82850B83A3858214858315EE245D
:10912000061284B188828983E0FAA3E0F9EA240078
:10913000F516E439F51778161251000100002801E0
:109140002863910700022828920328959100295F3F
:109150009301298A9302292B9303295F93042909F8
:10916000946E94E51045116003029469850E828522
:109170000F831294E4FAE9FB8A828B83E0850C82E8
:10918000850D8312951A1250768A828B83A3E0FC98
:10919000A3E00293F3E51045116003029469850C86
:1091A00082850D837401F01294F7850A82850B8302
:1091B000F07C007D008E828F83A3A3A3A3E0240113
:1091C000FAA3E03400FB126300EA4B60418A828B11
:1091D00083E02402F8850C82850D83E028F0EA24E0
:1091E00004F8EB3400F988828983E08514828515C0
:1091F0008312952C12951A1250768A828B83128FC5
:1092000088E50A2403FAE50B3400FB0293F8850C89
:1092100082850D83E02404F07C047D007900AA148B
:10922000AB15126BB20294C3E510451160030294B2
:10923000691294F7FEA3E0FF850C82850D83740408
:10924000F0EE850A82850B83F0EF85148285158305
:10925000F07403124E57AC82AD83EEFAEFFB12634B
:10926000008A0E8B0FEA450F700302930C8A828BE3
:1092700083A3A312813A7401124E5785821085830D
:109280001178101250767405124E5712508D7CFFD3
:109290007DFF1263067404124E048B11EA451170AF
:1092A00033850E82850F831294CF125076850E82FD
:1092B000850F83A312508D7C027D007AAC7B8312D4
:1092C00061327404124E04E9700A7401124E57742C
:1092D000FFF0A3F08E828F83E064027039750E0276
:1092E000750F00780E1250768E828F83128F88E56C
:1092F0000A2404FAE50B3400FB126B9A7402124E36
:1093000004850C82850D83E0240280097401124ECD
:1093100057EEF0A3EFF07401124E571294E0F07480
:1093200001124E57A31294D8029463E510451160C0
:1093300003029469850E82850F83128F89AA18AB68
:109340001912643E850C82850D837402F0EA850A49
:1093500082850B83F0851482851583EB029466E584
:1093600010451160030294691294F7F8A3E0F9859F
:109370000C82850D837402F0E8850A82850B83F0E8
:10938000E9851482851583029466850E82850F8394
:10939000128D2E126B94EAFC8C82A882C39510E485
:1093A0009511405FE865107002E51170047C008043
:1093B00022851A82851B83E0FAE5102AFAE511342A
:1093C00000FBC3EA98EB94005003E08005E510CC65
:1093D000C39CFCEC850C82850D83F08C0C750D0014
:1093E000780C125076850E82850F83E02510FCA341
:1093F000E03511FDAA0AAB0B126B9A7402124E04EF
:109400000294C37512070294C3E5104511705A8582
:109410000E82850F831297E1850C82850D83740778
:109420001281461294D8128146A3E08514828515D4
:1094300083F0E82402FAE93400FB8A828B831294D9
:10944000D81295071294E0A31295101294E9F0E84F
:109450002405F8E93400F9888289831294E9A3127B
:10946000952CA3A3A3A3F0805A75120B8055741DED
:10947000124E57128D2E1263D28A828B83E582455B
:1094800083603D1297E1880E890FE8450F603178BF
:1094900010125076780C125076780A1250767406B4
:1094A000124E57E0F9EEFCEFFDAA18AB19850E82BB
:1094B000850F83124E617406124E04E9F512800383
:1094C00075120EA9127405124E047F10024F35E07A
:1094D000F510751100781022E0850A82850B832231
:1094E000129536221297E5E822129536A3A322E0C0
:1094F000F50AA3E0F50B22850E82850F83E0F8A321
:10950000E0F5838882E022A3A3F08A828B83A322E2
:10951000F088828983A3A3A3A322F08A828B83127B
:10952000952322E0F50C750D00780C22F0888289D5
:1095300083A312953622E0850A82850B83A3A3229A
:1095400074EE124E6374FE124DEE8A0C8B0DECFA23
:10955000EDFB7414124E57E0F512A3E0F5137416E8
:10956000124E57E0FE7418124E57E0F510A3E0F5C6
:1095700011851A82851B83AC82AD831263008A0E2B
:109580008B0FEA450F6049851A82851B83128D2E49
:109590001263D28A828B83E5824583602FA3A31254
:1095A00094EFE50A450B6024781012507678121279
:1095B0005076EEF9AC0EAD0FAA0CAB0D850A828584
:1095C0000B83124E617404124E048006790E8002E1
:1095D00079010289C874F6124E6374FE124DEE745E
:1095E0000C124E571294E4851A82851B83F0740185
:1095F000124E57E9F0E4F50AF50B780A1250767529
:109600000A02780A1250767404124E5785820A852F
:10961000830B780A1250761264267406124E047474
:1096200002124E04806874F7124E63EAFEEBFF8963
:109630000A7C187D0312643EEA5402600BA90AEE0C
:10964000FAEFFB1262F48002790102804274F61292
:109650004E6374FF6A700374FF6B70168C828D8387
:10966000129693E4F08C828D83A3A3A3129693A306
:10967000801812640E8A0A8B0BA80AA90BE84960AD
:109680000D8882898374FF128144A3A3E4F07F02D2
:10969000024F3574FFF0A3F08C828D83A3A3227454
:1096A000F6124E6312640E8A828B83E582458360D4
:1096B00006A3A3E0FA80027A007B0080D174F21244
:1096C0004E638A0A8B0BECFEEDFF740E124E57E0D0
:1096D000F50C12640E8A0E8B0FA80EA90FE84970C4
:1096E00026EEFCEFFD7AFF7BFF12640E8A0E8B0FD5
:1096F000A80EA90FE8497004791180168882898321
:10970000E50AF0A3E50BF088828983A3A3E50CF0BA
:1097100079007F06024F3574EE124E63EAFEEBFFCE
:109720008C0A8D0B890E7414124E571297E1741621
:10973000124E57128D2E750F00E84960030297D51F
:109740007402650E60030297D07412124E5712977E
:10975000EBFCA3E0F9EC2400F510E439F511EAF490
:10976000F8EBF4F9EC58F8E51159F9E849705CE5C3
:109770000A2406F8ED3400F9880C890D8882F583F7
:109780001297F612643E8A128B13E510651270046C
:10979000E511651360427810125076850C82850DB4
:1097A000831297F61264447402124E04E9F50F70A6
:1097B000277810125076850A82850B83A3A312970F
:1097C000F412645C7402124E04800D750F808008E0
:1097D000750F0D8003750F0BA90F028E8D8E828F72
:1097E000831297E522E0F8A3E0F9221297E5888238
:1097F0008983E022A3A3E0FCA3E0FDEEFAEFFB22C5
:1098000074E8124E6374E7124DEE851A82851B834D
:10981000EAF0A3EBF08C188D198910750A00750B0E
:10982000007431124E57E0F514A3E0F515743312AD
:109830004E57E0F516A3E0F5177435124E57E0F5D4
:1098400011E50B75F003A4F8A9F0851A82851B8336
:1098500012996AE0F47003A3E0F4700302994DEEEC
:109860002402F50EEF129960E0700302994D8518FD
:109870000C85190D780C125076AC16AD17AA14ABE6
:10988000151263C67402124E048A0C8B0DEA450D44
:10989000700302994DE4F512F513781212507674A4
:1098A00006124E57858212858313781212507674F1
:1098B00009124E57858212858313781212507685CD
:1098C0001482851583A3A3A3A312508D7914AC0C25
:1098D000AD0D8E828F83128D2E1264207408124E6D
:1098E00004E97069850C82850D83A3A3A3A3129755
:1098F000E17402124E57128F9C850E82850F83E011
:10990000A2E05018A9107402124E57AC82AD838E9B
:10991000828F83128D2E126318E9420A850E82858A
:109920000F83E0A2E15026E511F50C780C12507A75
:10993000A9107403124E57AC82AD838E828F8312AE
:109940008D2E1263127401124E04E9420A050BE5D2
:109950000BC394025003029841A90A74190294C7D8
:109960003400F50F850E82F58322E028FEA3E0394E
:10997000FF8E828F832274F2124E63EAFEEBFF8920
:109980000D7401650D600E7402650D706A79011227
:10999000661EE97062EEFAEFFB1264088A0A8B0B0E
:1099A000EA450B6047750C00800B7C177D00790041
:1099B000126BB2050C9002E5E0F8E50CC39850215B
:1099C000E50C75F017A4F8A9F0850A82850B83A32E
:1099D000A3E028FAA3E039FB8A828B831282967077
:1099E000C9850A82850B8374FFF0A3F07C187D0380
:1099F000EEFAEFFB12643802971274F2124E638A89
:109A00000A8B0BECFEEDFF740E124E5712907790FE
:109A10000A68E0F4603D7A097B00126BC4EA4B608F
:109A2000328A828B8374B1F0A3E4129509A3129554
:109A300007A3E50AF0A3E50B129A56EEF0A3EF1286
:109A40009A56A3A3E50CF0A3E50DF0900A68E0F99F
:109A5000126BD0029712F08A828B83A3A3A3A3A3D5
:109A600022C082C0839061907404F0A37448F0A374
:109A70007402F09061807440F09061BC7403F090C7
:109A800061877419F0906265741BF0906249E0C3BD
:109A9000941390619C400A7409F090606674018090
:109AA00007740DF0906066E4F090619A7433F0A34F
:109AB0007455F09061A0743AF090053EE064017036
:109AC00009C2919003A5746780059003A57461F0A5
:109AD000907042E493906186F0907044E493F46057
