:020000040000FA
:104000001F42FFFF2D07007C42424242FFFFFFFF9D
:10401000FFFFFFFFFFFFFFFFFFFFFFFFFFFFFFFFB0
:10402000000102030405060708090A0BFFFFFFFF52
:104030000245E302541FFFFFFFFFFFFFFFFFFFFFEB
:10404000FFFFFFFFFFFFFFFFFFFFFFFFFFFFFFFF80
:10405000FFFFFFFFFFFFFFFFFFFFFF025B7CFFFF94
:10406000FFFFFFFFFFFFFFFFFFFFFFFFFFFFFFFF60
:10407000FFFFFFFFFFFFFFFFFFFFFFFFFFFFFFFF50
:10408000FFFFFF025492FFFFFFFFFFFFFFFFFFFF55
:10409000FFFFFFFFFFFFFFFFFFFFFF025B53FFFF7D
:1040A000FFFFFFFFFFFFFFFFFFFFFFFFFFFFFFFF20
:1040B000FFFFFF02528B01FF0000B4000028002820
:1040C00000283075A000A000A000A0000008000893
:1040D000E001F000100010001000100010001000AF
:1040E00050005000500010001000D00700000000E9
:1040F00000000F00010005003075070010000100EE
:1041000081FF00000000FF9E5DBC5DA45DFF020218
:104110000208025000A0000000E80302D282010061
:10412000008782029282010000EF09029A82010058
:1041300000B202029282010000F009029C8201009A
:1041400000C802029282010000F10902AA82010065
:1041500000CA02029282010000F20902AC82080049
:1041600000CB02029282010000F30902B482010036
:1041700000F409FF0100FF2002D2820100007E82CC
:10418000029282010000580A02C48200000000006E
:104190000298820300001803746374637463746389
:1041A0007463746374637463746374637463746357
:1041B0007463086620660266FFFF4902000304126A
:1041C0006402D2820100008A82029282010000A071
:1041D0000A02B682010000A10A029882030000666A
:1041E00007020202020202020202010D0000001098
:1041F0000102D2820100007B82029282010000C291
:104200000A0294820100006C07029282010000C33E
:104210000A02A2820100006781029282010000C4AA
:104220000A02B0820100003E81029282010000C5B4
:104230000A02B882010000EC80029282010000C6EE
:104240000A02BA82010000DA80029282010000C7ED
:104250000A02BC82010000C880029282010000C8EC
:104260000A02BE82010000B680029282010000C9EB
:104270000A02C0820100004C81029282010000CA41
:104280000A02C282010000CB0A01E803053F100ABE
:104290001C02D2820100008D820292820100007114
:1042A0000B10308002000079080298820300007B26
:1042B000080290820100005A81029282010000717E
:1042C0000B1040800200007A0802988203000081EF
:1042D000080290820100009681FFFFFF001202D2C7
:1042E000820100008482029282010000BE0B02A8BB
:1042F00082010000CB08029882030000CC08013044
:10430000750302010600000000000000000000002C
:10431000000000000000000000000000000000009D
:1043200000FFFF0600800CE8030000000000000012
:10433000000000000000000000100000000000006D
:10434000000000000000000000000010000000005D
:10435000000000000000000000000000001000004D
:10436000000000000000000000000000000000004D
:10437000000000001000000000000000000000002D
:104380000000000000000000000000000000080025
:10439000000000000000000000000000000000001D
:1043A0000000000000000004000000000000000009
:1043B00000000000000000000000040000000000F9
:1043C00000000000000000000000000002000000EB
:1043D00000000000000000000000000000000000DD
:1043E00000010000000000000000000000000000CC
:1043F00000000000000000000000000100000000BC
:1044000000000000000000000000000000000000AC
:10441000000000000001000000000000000000009B
:1044200000110011121B00110C15001100000000FA
:10443000001A800808093635304C69746505121475
:10444000001400020A000201050302F0FF363530B5
:104450004C697465000000000000000000000000CE
:104460000000006B0000066B40010A436861726146
:104470006374657269737469632031000243686113
:1044800072616374657269737469632032001A43E0
:104490006861726163746572697374696320330063
:1044A0001043686172616374657269737469632033
:1044B0003400024368617261637465726973746980
:1044C0006320350002D282010000818202928201C3
:1044D00000004B0D02C882030000630902908201B4
:1044E00000004C0D0292820100005D0D02CA8201A3
:1044F000000077090290820100005E0D02928201A5
:1045000000006F0D02CC8203000078090290820146
:104510000000700D029282010000810D02CE820027
:1045200000008C090298820300008D09029082012C
:104530000000820D029282010000930D02D08204DD
:1045400000009309029082010000940DE5C754F821
:104550004404F5C779012200000080FB12454CB9E4
:1045600000030245CDE479217808B800028004F701
:1045700009D8FCE479297802B800028004F709D848
:10458000FCE4900280781979088002F0A3D8FCD965
:10459000FA781C9040B67A01BA00028007E493A32F
:1045A000F608DAF9900998AA82AB839040B778961A
:1045B00079058015E493A3AC82AD838A828B83F066
:1045C000A3AA82AB838C828D83D8E9D9E775822E2A
:1045D0007583F274031245F575825775834574002F
:1045E0001245F575D00075813F751A80751B0275EF
:1045F0009F0002455CC09FF59FE473D09F22D0834B
:10460000D082C09FE493C0E0740193C0E074029331
:10461000F59F22E066701008A3E066700A08A3E028
:1046200066700408A3E06622C3E7960809E79608C7
:1046300009E7960809E79622C3E09608A3E09608E2
:10464000A3E09608A3E09622C00AC3E096F50A0804
:10465000A3E096420A08A3E096420A08A3E0964522
:104660000A7001D3D00A22080808EAC0E0EBC0E0D3
:1046700086F0E7A4FA180986F0E7A42AFA18098652
:10468000F0E7A42AFA180986F0E7A42AFA1986F0B6
:10469000E7A4FBE5F02AFA190886F0E7A42BFBE56E
:1046A000F03AFA190886F0E7A42BFBE5F03AFA187D
:1046B000180986F0E7A4C5F02BFBE43AFA1908E7DD
:1046C000C5F0C6A426F6E5F03BFBE43AFA1886F0FE
:1046D000E7A4F6E5F00826F6E43B08F6E43A08F627
:1046E000D0E0FBD0E0FA22E4CFC0E0E4CEC0E0E4CA
:1046F000CDC0E0E4CCC0E075F020C3E633F608E6B8
:1047000033F608E633F608E633F6181818EC33FCEF
:10471000ED33FDEE33FEEF33FFC3EC9709ED970960
:10472000EE9709EF97191919400FFFEC97FC09ED67
:1047300097FD09EE97FE191906D5F0BEECF709EDC5
:10474000F709EEF709EFF7191919D0E0FCD0E0FDF1
:10475000D0E0FED0E0FF226016080808C6C313C6EA
:1047600018C613C618C613C618C613C6D5E0EA2263
:104770007009080808226016181818C6C333C6083E
:10478000C633C608C633C608C633C6D5E0EA22E635
:1047900027F60809E637F60809E637F60809E63786
:1047A000F622E026F608A3E036F608A3E036F6087F
:1047B000A3E036F622E026F008A3E036F008A3E0F6
:1047C00036F008A3E036F022C3E697F60809E6972C
:1047D000F60809E697F60809E697F622C3E096F090
:1047E00008A3E096F008A3E096F008A3E096F02274
:1047F000E657F60809E657F60809E657F60809E607
:1048000057F622E056F608A3E056F608A3E056F65F
:1048100008A3E056F622E056F008A3E056F008A3FD
:10482000E056F008A3E056F022E0F608A3E0F60810
:10483000A3E0F608A3E0F622E6F008A3E6F008A35A
:10484000E6F008A3E6F022E0FAA3E0FBA3E0FCA375
:10485000E0FD22EAF0A3EBF0A3ECF0A3EDF022CA16
:10486000C0E0E6F0A308DAFAD0E0FA22CAC0E0E03D
:10487000A3C582CCC582C583CDC583F0A3C582CC38
:10488000C582C583CDC583DAE6D0E0CA22C3E498E9
:10489000F8E499F91248CE8026C3E49AFAE49BFB27
:1048A000E920E7E91248CEE498F8E499F922C3E454
:1048B00098F8E499F91248CEE498F8E499F9C3E439
:1048C0009AFAE49BFB22EB20E7CFE920E7E0B9006E
:1048D00010BB0008E88AF084F8AAF022E4FBC8FACA
:1048E00022EB70227B10C833C8C933C9335007C3C9
:1048F0009AC3DBF280069A50012ADBEAC833F4C877
:10490000C933F4C9FA2275F008E4C833C8C933C9F9
:1049100033C99AC99B5004C92AC93BD5F0ECFBC8DE
:1049200033F4C8E4C9FA22600D08C6A2E713C6181A
:10493000C613C6D5E0F322600C08C6C313C618C65A
:1049400013C6D5E0F422700422600D18C6C333C626
:1049500008C633C6D5E0F41822251A10AF08F51A98
:104960004002151B8008F51A4002151BD2AF22C069
:10497000D0251A10AF08F51A5002051B8008F51A49
:104980005002051BD2AFD0D022251AF58210AF08F5
:10499000F51A4002151B8008F51A4002151BD2AF0C
:1049A000851B8322251AF582E4351BF58322E473E7
:1049B000251AC582C0E0E51B34FFC583C0E0E51AB7
:1049C000C3958224F810AF0885831B85821A80085E
:1049D00085831B85821AD2AFCEF0A3E520F0A378A1
:1049E0000AE608F0A3DEFAEFF0A3E58124FAF8E680
:1049F00008F0A3E608F0A3E608F0A30808E608F02C
:104A0000A3E608F0A315811581D0E0FED0E0F815EB
:104A10008115811581E8C0E0EEC0E022251AC5822B
:104A2000C0E0E51B34FFC583C0E0E51AC3958224CE
:104A3000F910AF0885831B85821A800885831B8542
:104A4000821AD2AFCEF0A3E520F0A3780AE608F0F0
:104A5000A3DEFAEFF0A3E58124FBF8E608F0A3E675
:104A600008F0A30808E608F0A3E608F0A3158115EE
:104A700081D0E0FED0E0F815811581E8C0E0EEC0FD
:104A8000E022851B83851A82E0A3FEE0A3F520784F
:104A90000AE0A3F608DFFAE0A3FFE0A3C0E0E0A38A
:104AA000C0E0E0A3C0E0E0A3C0E0E0A3C0E010AF3E
:104AB0000885821A85831B800885821A85831BD20C
:104AC000AFD083D0820245FB851B83851A82E0A389
:104AD000FEE0A3F520780AE0A3F608DFFAE0A3FFE2
:104AE000E0A3C0E0E0A3C0E0E0A3C0E0E0A3C0E03A
:104AF00010AF0885821A85831B800885821A8583FA
:104B00001BD2AFD083D08222C0D0251AC582C0E08C
:104B1000E51B34FFC583C0E0E51AC3958224F3107A
:104B2000AF0885831B85821A800885831B85821ABE
:104B3000D2AFC8F0A3E9F0A3EAF0A3EBF0A3790A9F
:104B4000E709F0A3D8FAECF0A3EDF0A3EEF0A3EFA1
:104B5000F0A3D0E0F0A3D0E0F0A3D0E0F0A3E520F4
:104B6000F0A3E5F0F0A322851B83851A82E0C0E064
:104B7000A3E0F9A3E0FAA3E0FBA3780AE0F608A318
:104B8000DFFAE0FCA3E0FDA3E0FEA3E0FFA3E0C0AA
:104B9000E0A3E0C0E0A3E0F5D0A3E0F520A3E0A30C
:104BA000F5F010AF0885831B85821A800885831B6A
:104BB00085821AD2AFD082D083D0E0F8D0E03274B0
:104BC000048006740280027401C0E0F40412498972
:104BD000D0E012485F227404800474028000CCC0CC
:104BE000E0EDC0E0E51AC39CCCAD1B50011D10AF39
:104BF000068C1A8D1B80068C1A8D1BD2AF12486C46
:104C0000D0E0FDD0E0FC22D083D082E9C0E0E49384
:104C1000A3C386F0C5F095F0F908E493A386F0C528
:104C2000F095F0700BE493A3C3994005E90480026A
:104C3000A3E475F002A42582F582E5F03583F583BF
:104C4000D0E0F9E493A3C0E0E493C0E022D083D0A5
:104C500082ECC0E0EDC0E0E493A3FCE493A3FDED9F
:104C60004C600D124C99EC24FFFCED34FFFD80EFFD
:104C7000E493A3FCE493A3FDED4C600D124CD8EC3F
:104C800024FFFCED34FFFD80EFD0E0FDD0E0FCE43C
:104C900093A3C0E0E493C0E022C0E0C3E49396088D
:104CA0007401939618400FE493667008087401939A
:104CB000661870007019A3A3C3E493960874019357
:104CC0009618A3A3400DD0E0D0E0D0E0024C89A319
:104CD000A3A3A3A3A3D0E022C0E0C0F088F0E49394
:104CE0006670080874019366187000A8F0A3A3709A
:104CF0000BD0F0D0E0D0E0D0E0024C89A3A3D0F0FC
:104D0000D0E022FF74F5124A1CEAFEEBFFEE2434D9
:104D1000F8EF3400F9880A890BEE2435F582EF3478
:104D200000F583E0F8EE2437F582EF3400F583E0F8
:104D3000F50CEC850CF0A4FCAAF0850CF0EDA42A8F
:104D4000FDE82CF8E43DF97A257B001248CEEA858F
:104D50000A82850B83F0F8740758F97401B90002D0
:104D60008004C333D9FCFAE8131313541FF8EE2858
:104D7000F8EF3400F9E8245DF582E93400F583E0CA
:104D80005A6008EE2434F582EF802CEE2434F5824C
:104D9000EF3400F583E0C0E0EE2436F582EF340016
:104DA000F583E0F5F0D0E084A8F0EE28F8EF3400C9
:104DB000F9E82438F582E93400F583E0F97F04024C
:104DC0004AC874F5124A1CEAFEEBFFEE2434F58261
:104DD000EF3400F583E0C0E0EE2435F582EF3400D7
:104DE000F583D0E0F08E828F83A3A3A3A3A3A3A314
:104DF000C082C0838E828F83A3A3A3A3A3E0F8A362
:104E0000E0F9D083D082E0C398F50AA3E099F50BCE
:104E1000EE247FF582EF3400F583E064017069EEE3
:104E20002480F582EF3400F583E0F8A3E0F98E8268
:104E30008F83A3A3A3A3A3A3A3E0FCA3E0FD8E827F
:104E40008F83A3A3A3A3A3E0FAA3E0FBC3EA9CEB95
:104E50009D5010C3EC98ED99402EC3EA98EB995001
:104E600027800EC3EA98EB994007C3EC98ED994070
:104E7000177CDB7D04EEFAEFFB1262D2EE247FF5A5
:104E800082EF3400F583E4F0EE2434F8EF3400F9D7
:104E9000E8FCE9FDEE2435F582EF3400F583E0F817
:104EA000EE2437F582EF3400F583E0F50CE50A8552
:104EB0000CF0A4F50AAAF0850CF0E50BA42AF50B7A
:104EC000E8250AF8E4350BF97A257B001248CEEA8A
:104ED0008C828D83F0F8740758F97401B900028050
:104EE00004C333D9FCFAE8131313541FF8EE28F85F
:104EF000EF3400F9E8245DF582E93400F583E05AE7
:104F00006008EE2434F582EF802CEE2434F582EF35
:104F10003400F583E0C0E0EE2436F582EF3400F58E
:104F200083E0F5F0D0E084A8F0EE28F8EF3400F943
:104F3000E82438F582E93400F583E0F9125B3F029A
:104F40004DBDC082C083851A82851B83E0F8A3E033
:104F5000F9C3EA9CEB9D5010C3EC98ED99401BC33C
:104F6000EA98EB995014800EC3EA98EB994007C376
:104F7000EC98ED994004790180027900D083D082C9
:104F800022EAC39CFAEB9DFB2274EF124A1C9003A9
:104F9000A1E064086005E06407702A9061C8E060E1
:104FA000249003CFE0F4601DE0F875F003A4C8AAD4
:104FB000F02AF974D128FE740339FF8E828F83A3FF
:104FC000A3A3E070030250B9906060E0C0E0EE245B
:104FD00068F582EF3400F583D0E0F0750E44750F6C
:104FE00005750A00750B00E5D914F50CE5D95403D5
:104FF000F510601774036510605CE50C6010EE241A
:1050000067F582EF3400F583E0700302509E90054F
:105010003FE06401602AEE2482F582EF3400F583DC
:10502000E06004780480027800850C0AE50AC398E1
:10503000FA95E0FB12619A8A0A8B0BEA450B700520
:105040001264D68074EE2482F582EF3400F583E09A
:1050500070048A0E8B0FE50C6012850E82850F831B
:10506000F50DE5D9F0A3150DE50D70F6EE2482F5EA
:1050700082EF3400F583E0604474FC250CF50C7875
:105080000E124BC3AC0CA910EEFAEFFB12636E7458
:105090000212496FE97026AA0AAB0B126A16793D13
:1050A0008E828F83A3A3A3A3E0FA7B0012606EEE2F
:1050B000FAEFFB1262EA1263807900807474036570
:1050C000106056850C127513007812124BC3AC0E8B
:1050D000AD0FAA0AAB0B12634A740212496FEE2499
:1050E00068F582EF3400F583E064807004747F809B
:1050F00001E0F50E780E124BC7E510F50E780E1292
:105100004BC7A90CAC0AAD0B9003CFE0FA7B0012A1
:105110006032740212496F80139003A1E06408604A
:105120000BAC0EAD0FEEFAEFFB1263DA1264E2790C
:10513000017F0A024AC874F5124A1C74FC124959CC
:10514000EAFEEBFF890AA2AFE433F50BC2AF806A37
:10515000EE2463F8EF3400F97A007B00A2AFE43369
:10516000F50CC2AF88828983E0FCA3E0FDEC4D60C2
:105170003A88828983E0FAA3E0FB8A828B83E0FC91
:10518000A3E0FD88828983ECF0A3EDF08A828B8313
:10519000E4F0A3F088828983E0FCA3E0FDEC4D708D
:1051A0000A88828983A3A3E4F0A3F0E50CA2E0922D
:1051B000AF126A169004E2E004F0EE2463F582EF89
:1051C0003400F583E0F8A3E0F9E849603DEE24639C
:1051D000F582EF3400F583E02402FAA3E03400FB0B
:1051E000EA2402F50CEB3400F50D780C124BC38A5F
:1051F000828B83E0FCA3E0F9EEFAEFFB12630E74FE
:105200000212496FE970030251509004E2E06063BA
:105210009004E3E0F89004E2E0C398500C74026557
:105220000A70509004E4E0604A8E828F83A3A3A3A7
:10523000A3E0851A82851B83F0A3E4F09004E2E0EA
:10524000F874021249A4E8F0A3E4F09004E2E0F854
:105250009004E1E028F074021249A4AC82AD838589
:105260001A82851B83AA82AB83790112603E900467
:10527000E2E4F0E50BA2E092AF740412496F024D34
:10528000BDFFFFFF8521878522C622C0E0C0D0E890
:10529000C0E0E9C0E0EAC0E0EBC0E0ECC0E0EDC097
:1052A000E0EEC0E0C00AC00BC00CC00DC082C083DD
:1052B000C0F0A2AFE433FEC2AF759B00906182E004
:1052C000A2E05012E591A2E0500C7591FE740165C8
:1052D000217003124F89E0A2E55051E591A2E550FB
:1052E0004B7591DF9003A1E064076005E0640870EE
:1052F0002374016521703579019003CFE0FA75F0D0
:1053000003A4CAA8F028FB74D12AFA74033BFB1249
:1053100051368018E0640D70139003C3E004F0640C
:10532000287002E4F07A00E0F91264E8906182E00B
:10533000A2E640030253D2E591A2E640030253D213
:105340007591BF9003A1E0640570081264101264A7
:105350001C8003126416752100126476E99003A282
:10536000F0790012646A1262487A017B009003A00F
:10537000E0F912673A907803E06442705590054373
:10538000E014F0704DC2AF12538A00782AD0E0F6D4
:1053900018D0E0F6E59F54077005750BFF80037584
:1053A0000B7FC4C0E07829E6F50A08E6550BF50B3B
:1053B000740B780A124937D0E0250AF8906270E041
:1053C000A2E740F8E8C333906272F0906270E0D2D6
:1053D000E0F0906181E0A2E35009E5E9A2E3500327
:1053E00075E9F7A3E0A2E75009E591A2E75003753C
:1053F000917FEEA2E092AFD0F0D083D082D00DD0DA
:105400000CD00BD00AD0E0FED0E0FDD0E0FCD0E024
:10541000FBD0E0FAD0E0F9D0E0F8D0D0D0E032C054
:10542000E0C0D0C082C083906183E0A2E05009E573
:10543000BFA2E0500375BFFEE0A2E15009E5BFA2A4
:10544000E1500375BFFDE0A2E25009E5BFA2E250C2
:105450000375BFFBE0A2E35009E5BFA2E35003756B
:10546000BFF7E0A2E45009E5BFA2E4500375BFEF27
:10547000E0A2E55009E5BFA2E5500375BFDFE0A259
:10548000E65009E5BFA2E6500375BFBFD083D082C6
:105490008088C0E0C0D0E8C0E0E9C0E0EAC0E0EB4E
:1054A000C0E0ECC0E0EDC0E0C0F0E5A7A2E6500F20
:1054B000E5A1A2E6500953A7BF75A1BF1254F7E5B5
:1054C000A7A2E5500CE5A1A2E5500653A7DF75A100
:1054D000DFE5A7A2E15009E5A1A2E1500375A1FD16
:1054E000E5A7A2E2500CE5A1A2E2500653A7FB7586
:1054F000A1FBD0F002540874F8124A1C75210190E7
:1055000003A1E06406701512639E8A828B83A3A3B5
:10551000A3A3A3A3E0FAA3E0FB1263FEA2AFE433CC
:10552000FED2AF9003A7E0640170187A207B009050
:1055300003A0E0F91267C47A207B009003A0E0F991
:10554000126740906182E0D2E6F0900540E0602171
:1055500085C62280169003A6E064017008E5C65453
:10556000F84405F5C653BEFC1252847401652160EF
:10557000E4EEA2E092AF7F01024AC8FF8E238F249F
:10558000858228858327851A82851B83E0CEA3E048
:10559000CF852882852783EBC9EAC8EDCBECCA7595
:1055A000F010C3E833C8E933C9EA33CAEB33CBC3DD
:1055B000EA9EF526EB9FF525B35004AB25AA26EC11
:1055C00033CCED33CDD5F0DAAE23AF242274E9121B
:1055D0004A1C74F8124959851A82851B83ECF0A382
:1055E000EDF08A0A8B0B9003A1E024F7C3940550D9
:1055F00006750A0102576412639E8A0C8B0DAE0C6D
:10560000AF0DEE4F7003025761AC0AAD0B7402127E
:1056100049A4AA82AB8312642E8E828F83A3A375C2
:105620000EFF750FFF7510FF751100780E124803FD
:1056300074021249A47512FF7513FF7514FF7515D6
:10564000007812124803780E7912124628502A78F0
:105650000E79121247C8750A01750BC8750C0075D2
:105660000D00780A790E1246285052850E0A850FD1
:105670000B85100C85110D80507516017517C875B6
:10568000180075190085120A85130B85140C8515F1
:105690000D780A790E1247C87816790A1246284002
:1056A0001C750A00750B00750C00750D01780A79E0
:1056B000121247C8780A790E12478F800C750A01BA
:1056C000750B00750C00750D007409780A1247708F
:1056D000750E19F50FF510F511780A790E1246E7D7
:1056E0008E828F83A3A3A3A3A3A3E0F8A3E0F97AF8
:1056F000D07B031248CE880E890FE4F510F511789F
:105700000A790E12478F74061249A4E0F8A3E0F953
:105710007AD07B031248CEE8FA8A0EE4F50F780AB5
:10572000790E1246285007780A790E1247C890035E
:10573000A1E06408600AE064066005E06405702D7D
:10574000750E0D780E790A1246284021750EF475F3
:105750000FFF7510FF7511FF780A790E12478F80C1
:105760000C750A00750B00750C00750D00851A820A
:10577000851B83E0F8A3E0F5838882780A12483815
:10578000740812496F7F10024AC874F7124A1C123B
:10579000644090053EE064017010906245E4F0A31F
:1057A000F053F4F343FE0C5390F31263ECE5C6544C
:1057B000804449F5C6E59E547F644970F890618540
:1057C000740FF090053CE0F47002A3E0604E900589
:1057D0003DE0600814601B14602E8040750A01755E
:1057E0000B0090053CE0780A124946E50AF4528025
:1057F000802A750A01750B0090053CE0780A124971
:1058000046E50AF452908014750A01750B00900564
:105810003CE0780A124946E50AF452A079007F027A
:10582000024AC874F7124A1CE9FEEAFF74016E705E
:105830000C7A807B009003A0E0F912673A906B48E5
:10584000E493F46008E493F912623C800953C68043
:10585000E59E547F70FA1263F290053EE064017099
:105860000312625490053CE0F47002A3E0604B9098
:10587000053DE0600814601A14602C803D750A0133
:10588000750B0090053CE0780A124946E50A428013
:105890008028750A01750B0090053CE0780A1249D2
:1058A00046E50A42908013750A01750B0090053C8D
:1058B000E0780A124946E50A42A012644012639E4B
:1058C0008A0A8B0BA80AA90BE8496015E5E170FC70
:1058D000E82414F582E93400F583E0F46003E0F590
:1058E000E174016F700A7A019003A0E0F912678EEB
:1058F00002581E74ED124A1C8A0A8B0B8C0C8D0DFB
:1059000074131249A4780E124829780A790E1246A7
:10591000287512017513C87514007515005012789A
:105920000A790E1247C87812790A12462850168052
:1059300010780E790A1247C87812790E124628405C
:10594000047901800279007F0C024AC874ED124A82
:105950001C8A0A8B0B8C0C8D0D74131249A4780EC3
:10596000124829780E790A1246284011780A790ED1
:105970001247C8AA0AAB0BAC0CAD0D802275120001
:105980007513007514007515017812790E1247C849
:105990007812790A12478FAA12AB13AC14AD158096
:1059A000A68A828B83750AFF750BFF750CFF750D38
:1059B00000780A1248167F04024AC874F5124A1C7D
:1059C0008C828D83780A1248298A828B83780A1206
:1059D00047DCEA2404F8EB3400F98C828D83A3A31E
:1059E000A3A3E0FCA3E0FD88828983C3E09CF0A32D
:1059F000E09DF088828983C3E09420A3E0944E4028
:105A0000268A828B83750AFF750BFF750CFF750D57
:105A1000FF780A1247B58A828B83A3A3A3A3E0244D
:105A200020F0A3E0344EF00259A174F5124A1CE9AB
:105A3000FE9004F6E0FAA3E0FBEEC333F8E433F99A
:105A4000741E28F582748139F583E02AF50AA3E0F3
:105A50003BF50B780A124BC37A407B427C0F7D00EA
:105A600012557C740212496F8A0A8B0B8C0C8D0DB7
:105A70007410780A124757AA0AAB0B7F04024AC86F
:105A800074F1124A1C8A0E8B0F8C108D11740F1238
:105A900049A4E0FAA3E0FB74111249A4E0F50AA3BB
:105AA000E0F50B780A124BC3EA2401F50AEB340047
:105AB000F50BE4F50CF50D780E790A124667750AB8
:105AC00071750B02780E790A124667AA0EAB0FACFD
:105AD00010AD1112557C740212496F8B0BEA450B05
:105AE00060047A0180027A00EC2AFCED3400FD7437
:105AF000131249A4E0F8A3E0F9E8FEE9FFECF8EDA1
:105B0000F97A717B021248CE880A890B8E828F83C4
:105B1000780A124838ECF8EDF97A717B021248CE17
:105B20008A0A8B0B7405780A1249468E828F83A3EA
:105B3000A3A3A3E50AF0A3E50BF07F08024AC8C0BF
:105B400082C083E9906000F0D083D08222C2AF028D
:105B5000000022C0E074F2124B08A2AFE433FED280
:105B6000AFE589A2E0500312696E758900C2C57560
:105B70001C00EEA2E092AF7F01024B67C0E0C0D0F4
:105B8000E8C0E0E9C0E0E5A8D2AFC2C7751C00A23A
:105B9000E7A2E792AFD0E0F9D0E0F8D0D0D0E03281
:105BA0001245FEDBE1031245FEF2E1031245FE233E
:105BB000E2031245FE5EE2031245FE88E20312454F
:105BC000FEB2E2031245FEC9E2031245FEE0E20323
:105BD0001245FEF7E2031245FE20E3031245FE33B1
:105BE000E3031245FE49E3031245FE5CE30312455D
:105BF000FE83E3031245FE75EC021245FE79ED02C9
:105C00001245FEB1ED021245FED4ED021245FEDF53
:105C1000ED021245FE02EE021245FE11EF021245A0
:105C2000FEE6EF021245FE61F0021245FEE9F002C7
:105C30001245FE24F1021245FE5BF1021245FEE917
:105C4000F1021245FEC2F2021245FE22F302124593
:105C5000FE2DF3021245FEACF3021245FEAFF30235
:105C60001245FEB2F3021245FE41F4021245FE4413
:105C7000F4021245FE74F4021245FE9EF40212452F
:105C8000FE8CF5021245FE3EF6021245FE0EB003F2
:105C90001245FE36B0031245FE64B0031245FE9B6A
:105CA000B0031245FEF9B0031245FE44B10312459C
:105CB000FE8FB1031245FECFB1031245FE15B203AC
:105CC0001245FE43B2031245FE00B3031245FE0A1D
:105CD000B3031245FE17B3031245FE4AB303124540
:105CE000FE16B4031245FE22B4031245FE3AB40375
:105CF0001245FE44B4031245FE42ED031245FE5028
:105D0000ED031245FE68ED031245FE80ED031245DA
:105D1000FE0080021245FEAC80021245FE27810281
:105D20001245FE4882021245FE8482021245FE2D73
:105D300083021245FE1484021245FE788502124544
:105D4000FECF85021245FE5086021245FE408702B4
:105D50001245FE8D87021245FE1388021245FE454C
:105D600088021245FE598A021245FE9B8A0212459C
:105D7000FEB98A021245FE3C8B021245FE108C02CF
:105D80001245FED88C021245FE3597031245FE08D7
:105D900098031245FEB198031245FE04990312457B
:105DA000FEB499031245FE409A031245FE2C9B0354
:105DB0001245FE5B9B031245FE6E9C031245FEB628
:105DC0009C031245FE8B9D031245FEC79D031245A1
:105DD000FEE39D031245FEEDF0031245FE5FFC015C
:105DE0001245FE75FC011245FE9BFC011245FEB7F3
:105DF000FD011245FEC1FD011245FEF6FE011245F0
:105E0000FEEEFF011245FEE7AA031245FE17AC03A2
:105E10001245FE4AAC031245FE94AC031245FE5BEC
:105E2000AE031245FE0EDD011245FE78DD0112457E
:105E3000FED7DE011245FEE7DE011245FE14DF014A
:105E40001245FE6BDF011245FE14E0011245FE1BF8
:105E5000E1011245FEE5E1011245FE45E30112456F
:105E6000FE88E3011245FE2DE4011245FE7AE401AD
:105E70001245FEA0E4011245FEAEE6011245FEB356
:105E8000E6011245FEB8E8011245FE05E90112459A
:105E9000FE78E9011245FEABE9011245FE4DEA012B
:105EA0001245FEF6EA011245FE2EEB011245FE31C7
:105EB000EB011245FE79EB011245FEB9EB011245EB
:105EC000FE10EC011245FE51D1031245FE69D103CB
:105ED0001245FEB1D1031245FEC7D1031245FE0E95
:105EE000D2031245FE22D3031245FEAFD30312455F
:105EF000FEFAD3031245FE0080011245FE0C80011C
:105F00001245FE4780011245FE8C80011245FE4C71
:105F100081011245FED281011245FE3782011245F0
:105F2000FE6382011245FE9C82011245FEDA840165
:105F30001245FEBE86011245FEA488011245FEE709
:105F400089011245FE358C011245FE478D0112452F
:105F5000FE928E011245FEA28F011245FEBF8F01F7
:105F60001245FEFA8F011245FE1C90011245FE7F7C
:105F700090011245FE4095011245FED5950112454E
:105F8000FE2696011245FE4D96011245FE9F960192
:105F90001245FEBD96011245FE1797011245FE00FF
:105FA00098011245FE7699011245FEFA99011245B3
:105FB000FECBB4031245FED5B4031245FE18B5035B
:105FC0001245FE33B5031245FEC3B5031245FEEB81
:105FD000B5031245FE28B6031245FE5FB60312450F
:105FE000FE88B6031245FEFDB6031245FE12B70346
:105FF0001245FE27B7031245FE58B7031245FE6C43
:10600000B7031245FE91B7031245FECBB703124505
:10601000FEF7B7031245FE2FB8031245FEAEB803D4
:106020001245FEF7B8031245FE21B9031245FE4C96
:10603000B9031245FE37E8031245FE74D402124537
:10604000FEA2D4021245FEF0D5021245FED0D602C1
:106050001245FEEFD6021245FE6CD7021245FEAF86
:10606000D7021245FE05D9021245FEC6D9021245D5
:10607000FE4DDC021245FEEEDC021245FEE4DD02BE
:106080001245FEE1DE021245FE3BE0021245FEC66D
:10609000E0021245FEDCE6031245FE45E703124529
:1060A000FE99E7031245FEC0E7031245FEF1E70340
:1060B0001245FE01BE031245FE6EBE031245FEB53B
:1060C000BE031245FECDBF031245FEC9C0031245F3
:1060D000FEACC1031245FEAFF6021245FEF1F60218
:1060E0001245FEC3F7021245FE9CF8021245FE96C9
:1060F000F9021245FE78FA021245FEE1FA02124553
:10610000FE97FB021245FE0BFC021245FE77FC02D5
:106110001245FEA0FC021245FE1AFD021245FEB316
:10612000FD021245FE18FE021245FE2DFE0212452A
:10613000FE73FE021245FE8CFE021245FEF1FE02C7
:106140001245FEF4FE021245FE58CE031245FE80B3
:10615000CE031245FEBECE031245FE7CCF03124590
:10616000FEE3CF031245FEFFCF031245FE27D00307
:106170001245FE57D0031245FE66D0031245FEE3DA
:10618000D0031245FE09D1031245FEFDEC01124574
:10619000FEDBEE011245FE0DF1011245FE49F10153
:1061A0001245FE76F1011245FE60F2011245FEAB8A
:1061B000F2011245FEF6F2011245FE08F301124506
:1061C000FE48F3011245FE7DF3011245FECBF301BB
:1061D0001245FEFAF3011245FE1DF4011245FE6A56
:1061E000F4011245FEEFF4011245FE09F7011245D4
:1061F000FE48F9011245FE89F9011245FE2BFB010B
:106200001245FE6CFB011245FEDFFB011245FE3517
:10621000FC011245FE5FC7021245FE5DC802124531
:10622000FEF6CE021245FE17D1021245FEE2D20260
:106230001245FE4AD4021245FE619A011245FE1033
:106240009B011245FE3D9B011245FE839B011245B9
:10625000FEC39C011245FE599E011245FED39E01CC
:106260001245FEEE9E011245FE699F011245FEC3D6
:10627000A0011245FE23A2011245FE29A3011245E9
:10628000FE8AA4011245FEA3A4011245FE01A50148
:106290001245FEEFA5011245FE22A6011245FE920F
:1062A000A6011245FE0CA7011245FE56A701124594
:1062B000FE20A8011245FEF5A8011245FED4A90151
:1062C0001245FE5FAA011245FECDAA011245FE410C
:1062D000AB011245FE6CAB011245FE2BAC01124521
:1062E000FE90AD011245FEADAD011245FECCAD01F3
:1062F0001245FEBDAE011245FEE2AE011245FE0C96
:10630000AF011245FE87AF011245FEE1AF01124514
:10631000FE4AB1011245FEF8B1011245FE39B20143
:106320001245FE8BB9021245FED9B9021245FEE5AF
:10633000B9021245FEC3BA021245FEF4BA02124572
:10634000FE25BB021245FEA5BB021245FEDDBB02C7
:106350001245FE2FBC021245FE6CBC021245FE899E
:10636000BE021245FEAFC0021245FE9AC20212459D
:10637000FE84C4021245FEF8FF011245FE4C6B007C
:106380001245FE7C6B001245FE5572001245FEDA86
:1063900073001245FED779001245FEBF7A00124500
:1063A000FEFC7A001245FE1F7B001245FE507B006A
:1063B0001245FE597B001245FE637B001245FE51DB
:1063C0007C001245FE477D001245FEFFC7011245C5
:1063D000FEFECB011245FE04CC011245FE3FD30167
:1063E0001245FE58D8011245FE8ACA031245FE2006
:1063F000CB031245FE36CB031245FEACCB03124550
:10640000FE20CC031245FE5ECC031245FED2CC0327
:106410001245FE4BCD031245FE54CD031245FE60DE
:10642000CD031245FE75CD031245FEB3CD031245D3
:10643000FEC9CD031245FE28CE031245FE6EC203EF
:106440001245FE7BC2031245FE95C2031245FED4DF
:10645000C2031245FE12C3031245FE77C303124561
:10646000FE8CC3031245FE97C3031245FEA4C3036B
:106470001245FEBBC3031245FEC9C3031245FED439
:10648000C3031245FEE0C3031245FEEFC3031245EA
:10649000FEFAC3031245FE1DC4031245FEC4C40325
:1064A0001245FED4C4031245FEEEC4031245FE0B92
:1064B000C5031245FE27C5031245FE4CC503124510
:1064C000FE57C5031245FE6CC5031245FE80C50389
:1064D0001245FEE1C5031245FEE7C5031245FEED78
:1064E000C5031245FEF3C5031245FE0BC603124554
:1064F000FE3EC6031245FE629D021245FEE69D0267
:106500001245FE959E021245FEF49F021245FE15AD
:10651000A2021245FE01A3021245FE36A302124555
:10652000FE58A3021245FE07A4021245FEFFA50273
:106530001245FE28A6021245FEBAA6021245FEEC3E
:10654000A6021245FEF9A6021245FE50A702124508
:10655000FE76A7021245FEE3A9021245FEE6AA0254
:106560001245FE3EAB021245FEF18E021245FEFBC5
:106570008F021245FEE290021245FEEC9002124597
:10658000FE0E91021245FE1A91021245FEB39202CE
:106590001245FEE292021245FEFE93021245FE579C
:1065A00094021245FEBD95021245FE9C96021245CC
:1065B000FEF896021245FE6597021245FEA097026C
:1065C0001245FEDF97021245FE989A021245FEB26E
:1065D0009A021245FE3E9B021245FE4C9B0212455A
:1065E000FEA59B021245FEB39B021245FE269C02AD
:1065F0001245FE8A9C021245FED49C021245FE47BB
:10660000E1021245FE69E1021245FE8FE3021245E6
:10661000FEA4E6021245FEBCE7021245FE6FE80248
:106620001245FE51E9021245FE95E3031245FEBAFA
:10663000E3031245FE2CE4031245FE428803124593
:10664000FE4B88031245FE5488031245FE2B890336
:106650001245FEDC8A031245FE128B031245FE4CE6
:106660008B031245FE828B031245FEBC8B03124541
:10667000FEF08B031245FE1C8C031245FE658C0355
:106680001245FE9F8C031245FEE88C031245FE4026
:106690008D031245FE758D031245FED08D03124504
:1066A000FE0A8E031245FE5B8E031245FE918E0399
:1066B0001245FECB8E031245FEF98E031245FE1CD9
:1066C0008F031245FEA6EF031245FED2EF031245DB
:1066D000FE2DF0031245FE37F0031245FE47F0038E
:1066E0001245FE61A5031245FE6BA5031245FEA9E6
:1066F000A5031245FEF2A5031245FE2CA603124582
:10670000FE86A6031245FEA7A6031245FEB0A60309
:106710001245FEFDA6031245FE26A7031245FE30D4
:10672000A7031245FE9CA7031245FE2EA80312459F
:10673000FE78A8031245FEAEA8031245FE3AA9034F
:106740001245FE7BA9031245FEB2A9031245FEC401
:10675000A9031245FEE3A9031245FEECA903124565
:10676000FEB9AA031245FE54EB031245FEEADF030D
:106770001245FE20E0031245FE56E0031245FEA13D
:10678000E1031245FE5F7F001245FE757F00124552
:10679000FE7F7F001245FEC97F001245FE71F103A6
:1067A0001245FE74B9031245FE89B9031245FE393C
:1067B000BA031245FE79BA031245FE92BA03124596
:1067C000FECDBA031245FE1ABB031245FE4CBB03B5
:1067D0001245FE8EBB031245FE8FBD031245FE4BD4
:1067E000EC031245FE74EC031245FEA3EC031245C4
:1067F000FEBBEC031245FEFDEC031245FEF0D60392
:106800001245FEFED6031245FE6FD7031245FE3336
:10681000D9031245FEDBDD031245FE0BDE031245F4
:10682000FE7BDE031245FE1BDF031245FE24D4036C
:106830001245FE49D4031245FE73D4031245FE8669
:10684000F2031245FE69B2011245FECEB4011245B3
:10685000FE6FB6011245FE23B7011245FEB6B70121
:106860001245FE3BB8011245FE60B8011245FEB666
:10687000BB011245FE3CBC011245FE6FBD01124535
:10688000FEA9BD011245FEDEBD011245FE9EBF01FF
:106890001245FEFBBF011245FE44C0011245FEAF8A
:1068A000C0011245FE20C1011245FE52C101124530
:1068B000FE6AC1011245FEB3C2011245FEC3C20108
:1068C0001245FEDEC3011245FE00C4011245FE362C
:1068D000C4011245FEEAC5011245FE77C601124504
:1068E000FEB6C6011245FEDAC7011245FEE5EE030B
:1068F0001245FEF6EE031245FE9BEF031245FEDC49
:10690000F2031245FE1BF3031245FE6FF30312451B
:10691000FE7AF3031245FE9CF3031245FE18FF02B4
:106920001245FE28FF021245FE3AFF021245FEEC18
:10693000FF021245FE50E9031245FED5E903124558
:10694000FE3BEA031245FE19EE031245FE4DEE032F
:106950001245FE76EE031245FE54EA031245FE751B
:10696000EA031245FEC9EA031245FED3EA031245C3
:10697000FE1DEB031245FE48EB031245FE4BEB03F5
:106980001245FE86F3031245FE96F3031245FE9967
:10699000F3031245FED0F1031245FEDFF103124569
:1069A000FEF87F001245FE96DB031245FE31DD0343
:1069B0001245FE92DD031245FED8DD031245FEAD01
:1069C000F3031245FEB2F3031245FEB9F303124579
:1069D000FEBBF3031245FE589E031245FE959E032F
:1069E0001245FEB09E031245FE819F031245FE6FC5
:1069F000A0031245FE1CA2031245FE8EA2031245FF
:106A0000FE76A3031245FEFDA3031245FE1DA5035A
:106A10001245FE3AE5031245FE8CE5031245FE16CB
:106A2000E6031245FE7DE6031245FE51D9031245E9
:106A3000FE7BD9031245FE49DA031245FE24DB032F
:106A40001245FE0080031245FEC780031245FEFE7C
:106A500080031245FE2881031245FE8881031245FA
:106A6000FEDE81031245FE4382031245FEDB8203F4
:106A70001245FEEA83031245FE8185031245FE0E90
:106A800086031245FE7586031245FE8C8603124569
:106A9000FEA687031245FEE487031245FE51F0036C
:106AA0001245FE81F0031245FE86F0031245FE8C6E
:106AB000AB021245FE0DAF021245FE95B002124523
:106AC000FEECB0021245FE0BB1021245FE89B10286
:106AD0001245FE1FB3021245FE04B4021245FE1217
:106AE000B8021245FEE8B8021245FEBC8F031245FB
:106AF000FE8192031245FE9C92031245FEB8950357
:106B00001245FE2796031245FECC96031245FEBBA6
:106B1000C6031245FE00C7031245FE1DC7031245FA
:106B2000FEE2C7031245FE4BC8031245FE18C90317
:106B30001245FE51CA031245FE25F3031245FE51CC
:106B4000F303FFFFFFFFFFFFFFFFFFFFC082C083D4
:106B5000900576E4F090057574FFF090058EE4F0F2
:106B600090058D74FFF0900572F0900571E4F0903F
:106B70000570F0900573F0A3F0027B1874E81249D9
:106B8000B074FE124959900573E0F516A3E0F517AD
:106B9000E5164517700612624802724B851682850B
:106BA0001783E014601814601524FE601124C4706B
:106BB00003026E2324C07003026E2302724BE0F9BD
:106BC00012638C8A0A8B0BAE0AAF0B9003CEE07077
:106BD00003026D561262E4E9F875F003A4C8AAF046
:106BE0002AF974D128F8740339F9851A82851B8330
:106BF000E8F0A3E9F0851A82851B83E0F8A3E0F5AD
:106C0000838882E0F518A3E0F519EE4F7003026D5A
:106C1000301264288A0A8B0B8C0C8D0D750E017551
:106C20000F00751000751100780A790E12478F75E4
:106C30000EFF750FFF7510FF780A790E1247F07579
:106C4000121A751300751400751500780A124BBFDF
:106C5000851882851983A3A312484712594C7404DE
:106C600012496F8A0E8B0F8C108D117812790E12CB
:106C700046285003026D30851882851983A3A375B9
:106C80000EE7750FFF7510FF7511FF780E1247A202
:106C9000780E124BBF8E828F83A3A31248471258DF
:106CA000F3740412496FE96003026D30750E0775C5
:106CB0000F00751000751100780A790E12478F7851
:106CC0000A124BBF8E828F83A3A31248471258F338
:106CD000740412496FE97053750A008E828F83E045
:106CE0006401600302724BEE65167003EF65176076
:106CF00003126260E50A70301264288A0A8B0B8CDA
:106D00000C8D0D750E03780A790E12478F750EFFE4
:106D1000750FFF7510FF780A790E1247F08E828F7B
:106D200083A3A3780A124838027043750A0180AB26
:106D3000851A82851B83E02404FEA3E03400FF8EC5
:106D4000828F83E0F91263C28E828F83E09003CF3B
:106D5000F0790202714CEE65167003EF651770034F
:106D60000272488E828F83E06401600302724B12CC
:106D700062601264288A0A8B0B8C0C8D0D750E0ACA
:106D8000750F00751000751100780A790E12478F83
:106D9000780A124BBF8E828F83A3A31248471258E2
:106DA000F3740412496FE970771264288A0A8B0B16
:106DB0008C0C8D0D750E03780A790E12478F750EA7
:106DC000FF750FFF7510FF780A790E1247F08E825B
:106DD0008F83A3A3780A1248389003A1E06402705D
:106DE0002C8E828F83A3A3750A00750B08750C0087
:106DF000780A1247A2780A790E1247F0EE240EF5AF
:106E000082EF3400F583780A1248388013EE240E9E
:106E1000F582EF3400F58374FFF0A3F0A3F0A3F044
:106E200002723E9003CEE070030271681262E4E9E0
:106E3000F875F003A4C8AAF02AF974D128F87403ED
:106E400039F9851A82851B83E8F0A3E9F0851A8257
:106E5000851B83E0F8A3E0F5838882E0F518A3E0C2
:106E6000F5199003CFE0F875F003A4C8AAF02AF949
:106E700074D128F516740339F517900571E054079D
:106E80007003027068A3E0F912638C8A0A8B0BAE60
:106E90000AAF0BEE4F70030270681264288A0A8BE7
:106EA0000B8C0C8D0D750E01750F00751000751192
:106EB00000780A790E12478F750EFF750FFF751057
:106EC000FF780A790E1247F075121A7513007514BF
:106ED00000751500780A124BBF851882851983A3A7
:106EE000A312484712594C740412496F8A0E8B0F33
:106EF0008C108D117812790E12462850030270689A
:106F0000851882851983A3A3750EE7750FFF751089
:106F1000FF7511FF780E1247A2780E124BBF8E82BA
:106F20008F83A3A31248471258F3740412496FE9E0
:106F30006003027068750E07750F007510007511FB
:106F400000780A790E12478F780A124BBF8E828F13
:106F500083A3A31248471258F3740412496FE970CF
:106F600005750C008003750C01851682851783A3B7
:106F7000A3A3A3E0F875F08AA4C8AAF02AF974A51F
:106F800028F50A740539F50BAA0AFB1263BCAA0A94
:106F9000AB0B1263B6750E80780E124BC37C007D6E
:106FA00060E50A2406FAE50B3401FB12634A740219
:106FB00012496FA80AA90B906195E0C0E0E8248609
:106FC000F582E93401F583D0E0F0906196E0C0E00D
:106FD000E82487F582E93401F583D0E0F0906197E9
:106FE000E0C0E0E82488F582E93401F583D0E0F0E0
:106FF000906198E0C0E0E82489F582E93401F583E6
:10700000D0E0F08E828F83E06401705C126260E5F4
:107010000C70301264288A0A8B0B8C0C8D0D750E47
:1070200003780A790E12478F750EFF750FFF7510E2
:10703000FF780A790E1247F08E828F83A3A3780A15
:10704000124838851882851983A3A3750AF1750B38
:10705000FF750CFF750DFF780A1247A2750EFF75BC
:107060000FFF7510FF027213851A82851B83E0F8EB
:10707000A3E0F9E516687003E5176970030271462D
:10708000851682851783A3A3A3E07003027125856B
:107090001682851783A3A3A3A3E0F875F08AA4C87A
:1070A000AAF02AF974A528FE740539FFEEFAEFFB61
:1070B0001263BCEEFAEFFB1263B6750A80750B0023
:1070C000780A124BC37C007D60EE2406FAEF34018F
:1070D000FB12634A740212496F906195E0C0E0EEC2
:1070E0002486F582EF3401F583D0E0F0906196E0DC
:1070F000C0E0EE2487F582EF3401F583D0E0F09014
:107100006197E0C0E0EE2488F582EF3401F583D08A
:10711000E0F0906198E0C0E0EE2489F582EF340160
:10712000F583D0E0F0851A82851B83E02404FEA35A
:10713000E03400FF8E828F83E0F91263C28E828F6B
:1071400083E09003CFF079029003CFE0FA75F0036B
:10715000A4CAA8F028FB74D12AFA74033BFB12518D
:1071600036AA18AB19027248900571E054077003F3
:1071700002724BA3E0F912638C8A0A8B0BAE0AAF42
:107180000B8E828F83E06401600302724B12626097
:107190001264288A0A8B0B8C0C8D0D750E0A750FE4
:1071A00000751000751100780A790E12478F780A61
:1071B000124BBF8E828F83A3A31248471258F374D9
:1071C0000412496FE970771264288A0A8B0B8C0CC1
:1071D0008D0D750E03780A790E12478F750EFF75A7
:1071E0000FFF7510FF780A790E1247F08E828F8399
:1071F000A3A3780A1248389003A1E06402702C8E91
:10720000828F83A3A3750A00750B08750C00780A9A
:107210001247A2780A790E1247F0EE240EF582EF9B
:107220003400F583780A1248388013EE240EF58274
:10723000EF3400F58374FFF0A3F0A3F0A3F0900502
:10724000727401F0EEFAEFFB126386740212496F5A
:107250007F10024A8274F01249B0EAFEEBFFEE247E
:1072600002F8EF3400F9880A890BEE2406F8EF34AF
:1072700000F9880C890D8882F583124BDA850A8221
:10728000850B83124847126404740212496F850CFF
:1072900082850D83124BDA850A82850B831248475B
:1072A0001263F8740212496FEE240EF582EF340077
:1072B000F58312484712640A8E828F83E06440701F
:1072C0001CEE2412F8EF3400F988828983E0906084
:1072D00064F088828983A3E0906065800690606492
:1072E000E4F0A3F0900573EEF0A3EFF0EE2416F5B2
:1072F00082EF3400F583E0F8A3E0F5838882124939
:10730000AE906054E4F0A3F0A3F0A3F0A3F0A3F0D8
:10731000A3F0A3F0A3F0A3F0A3F0A3F0906182E0A8
:10732000C2E6F07591BFEE2415F582EF3400F583C7
:10733000E064017003126440E5E170FCEE2414F592
:1073400082EF3400F583E0F46003E0F5E1EE24150C
:10735000F582EF3400F5837401F09003A7E0640137
:1073600070731264288A0A8B0B8C0C8D0D780A12AC
:107370004BBF8E828F83A3A312484712594C7404CB
:1073800012496F8A0A8B0B8C0C8D0D750E05750FCB
:1073900000751000751100780A790E1246677403A3
:1073A000780A124757E50A24F4F50AE50B3401F58B
:1073B0000B900540E06003126764E4F50CF50D786E
:1073C0000A124BBF7A207B009003A0E0F91267B845
:1073D000740412496F7F08024A8274F01249B0891E
:1073E0000A74FF650A6003027532900571E0540764
:1073F00070030279D07800900575E06404703CE871
:1074000075F018A4F8A9F0747628F582740539F59A
:1074100083E06401702E7A00787079058882898310
:10742000A3A3A3A3A3E06404707688828983A3A3A3
:10743000A3A3A3A3E06401706780530890058DE0C7
:10744000640460BB7800900575E064017067E875BE
:10745000F018A4F8A9F0747628F582740539F5833C
:10746000E0640170597A007870790588828983A375
:10747000A3A3A3A3E0640160030275148882898337
:10748000A3A3A3A3A3A3E064016003027514EA7598
:10749000F018A4F8A9F0747528FA7405390279CDAA
:1074A0000AE82418F8E93400F9EAC3940250030208
:1074B000741C0279D00890058DE06401609078001A
:1074C000900575E064027061E875F018A4F8A9F001
:1074D000747628F582740539F583E0640170537A77
:1074E000007870790588828983A3A3A3A3A3E064AD
:1074F00002707488828983A3A3A3A3A3A3E0640179
:107500007065EA75F018A4F8A9F0747528FA740586
:1075100039FB80690AE82418F8E93400F9EAC394D1
:1075200002500302746B0279D00890058DE064026A
:1075300060967A007870790588828983A3A3A3A3D3
:10754000A3E0650A703A88828983A3A3A3A3A3A3B7
:10755000E06401702BEA75F018A4F8A9F07475289E
:10756000FE740539FF802C0AE82418F8E93400F984
:10757000EAC3940250030274E57A007B000279D4D6
:107580000AE82418F8E93400F9EAC3940240A97E15
:10759000007F007800900575E0650A701BE875F0C3
:1075A00018A4F8A9F0747628F582740539F583E0FB
:1075B0006401700D7A01800B0890058DE0650A600A
:1075C000DC7A00E50A14601014700302773724FE99
:1075D00070030278410279D07800900575E064026A
:1075E0007055E875F018A4F8A9F0747628F582743F
:1075F0000539F583E0640170477B00787079058870
:10760000828983A3A3A3A3A3E0640260030276A5F7
:1076100088828983A3A3A3A3A3A3E06401600302D8
:1076200076A5EB75F018A4F8A9F0747528F50C741C
:107630000539F50D0276BD0890058DE0640260A263
:107640007800900575E0640460030276FEE875F04A
:1076500018A4F8A9F0747628F582740539F583E04A
:107660006401600302770A7B00787079058882895B
:1076700083A3A3A3A3A3E064046003027715888215
:107680008983A3A3A3A3A3A3E064016003027715E6
:10769000EB75F018A4F8A9F0747528F50C74053989
:1076A000F50D02772D0BE82418F8E93400F9EBC347
:1076B000940250030275FF750C00750D00EAA2E0FC
:1076C0005035850C82850D83A3A3750EF6750FFFCB
:1076D0007510FF7511FF780E1247A2780E124BBF7E
:1076E0008E828F83A3A31248471258F37404124961
:1076F0006FE970030279CAAA0CAB0D0279D4089025
:10770000058DE06404700302764DEAA2E05021EE9C
:10771000FAEFFB801F0BE82418F8E93400F9EBC3FB
:107720009402500302766D750C00750D00027923EA
:107730007A007B000279D47800900575E0640470CB
:1077400051E875F018A4F8A9F0747628F58274054C
:1077500039F583E0640170437B0078707905888295
:107760008983A3A3A3A3A3E0640460030277F3883F
:10777000828983A3A3A3A3A3A3E064017075EB751F
:10778000F018A4F8A9F0747528F50C740539F50DF6
:1077900080790890058DE0640460A67800900575F6
:1077A000E064017069E875F018A4F8A9F07476280F
:1077B000F582740539F583E06401705B7B007870B5
:1077C000790588828983A3A3A3A3A3E064017052EF
:1077D00088828983A3A3A3A3A3A3E064017043EBDE
:1077E00075F018A4F8A9F0747528F50C740539F52E
:1077F0000D80440BE82418F8E93400F9EBC3940237
:10780000500302775E750C00750D00027923089015
:10781000058DE06401608EEAA2E0501EEEFAEFFBF7
:10782000801C0BE82418F8E93400F9EBC3940240FB
:1078300091750C00750D000279237A007B000279A6
:10784000D47800900575E064017055E875F018A4CF
:10785000F8A9F0747628F582740539F583E064019F
:1078600070477B007870790588828983A3A3A3A3DE
:10787000A3E06401600302790B88828983A3A3A338
:10788000A3A3A3E06401600302790BEB75F018A4D5
:10789000F8A9F0747528F50C740539F50D027923F3
:1078A0000890058DE0640160A27800900575E064A1
:1078B000026003027962E875F018A4F8A9F0747602
:1078C00028F582740539F583E06401600302796E5E
:1078D0007B007870790588828983A3A3A3A3A3E0A2
:1078E0006402600302797588828983A3A3A3A3A39A
:1078F000A3E06401707FEB75F018A4F8A9F074752B
:1079000028F50C740539F50D02798D0BE82418F86B
:10791000E93400F9EBC394025003027868750C0057
:10792000750D00EAA2E040030276F7850C82850D12
:1079300083A3A3750EF6750FFF7510FF7511FF7801
:107940000E1247A2780E124BBF8E828F83A3A31212
:1079500048471258F3740412496FE960030276F73E
:1079600080680890058DE0640270030278B6EAA290
:10797000E0505D80550BE82418F8E93400F9EBC3BA
:10798000940250030278D6750C00750D00EAA2E04F
:1079900040030276F7850C82850D83A3A3750EF64E
:1079A000750FFF7510FF7511FF780E1247A2780E44
:1079B000124BBF8E828F83A3A31248471258F374D1
:1079C0000412496FE960030276F7EEFAEFFB8004D8
:1079D0007A007B000273D574F61249B0890B750AE0
:1079E00000900576E06003027AA8E50A75F018A415
:1079F000F8A9F0747528FE740539FF8E828F83A371
:107A00007401F08E828F83E50BF01264288E828FD2
:107A100083A3A31248538E828F83A3A3A3A3A3A3FC
:107A2000E4F0A3F0EE240EF582EF3400F58374FF4A
:107A3000F0A3F0A3F0A3F0EE2414F582EF3400F5E8
:107A4000837401F0EE2415F582EF3400F5837401A0
:107A5000F0EE2416F582EF3400F583E4F0A3F09005
:107A60000571E0450BF0900570E004F06401600CD6
:107A70007480650B60067440650B7019E50A75F03B
:107A800018A4F8A9F0747528F8740539F9900573ED
:107A9000E8F0A3E9F0E50A75F018A4F8A9F0747508
:107AA00028FA740539FB8010750A0190058EE07084
:107AB000030279EA7A007B0080007F02024A82C0DA
:107AC00082C0838A828B83E0F8A3E0F98A828B8369
:107AD000E4F0A3F088828983A3F088828983E0F4AC
:107AE000F8900571E058F0900570E014F0700B907C
:107AF0000573E4F0A3F09003A1F0801CC082C08362
:107B0000900570E0600A900573E0FAA3E0FB800442
:107B10007A007B008002E0F9D083D0820245FBC06E
:107B200082C083E9FB7800900575E06B7016E875FC
:107B3000F018A4F8A9F0747628F582740539F58355
:107B4000E0F9800A0890058DE06B60E2790080C85A
:107B5000C082C08390057180BDC082C083900570D3
:107B6000027B1674F61249B0EAFEEBFF9061D0E09A
:107B7000C0E0EE2400F582EF3401F583D0E0F09010
:107B800061D7E0F89061D5E0C398547FC0E0EE245F
:107B900001F582EF3401F583D0E0F09061D6E0C3C7
:107BA00098547FC0E0EE2402F582EF3401F583D0D3
:107BB000E0F0701A9061C5E0A2E45012E0A2E75034
:107BC0000DEE2402F582EF3401F5837480F0126427
:107BD000D0EE2401F582EF3401F583E07034EE2419
:107BE00002F582EF3401F583E070279061C5E0A2D1
:107BF000E4501FE0A2E7501AEE2402F582EF3401B0
:107C0000F5837480F0EE2401F582EF3401F583747E
:107C100080F075E1957800EE2400F582EF3401F5EF
:107C200083E060279061D3E0C0E0880AEE250AF582
:107C300082EF3400F583D0E0F008EE2400F582EF07
:107C40003401F583E0F9E8C39940D975E191027AEE
:107C5000BA74F61249B0EAFEEBFF9061C8E0C0E0EA
:107C6000EE2403F582EF3401F583D0E0F09061CF8C
:107C7000E0F89061CDE0C398547FC0E0EE2404F5B5
:107C800082EF3401F583D0E0F09061CEE0C39854E8
:107C90007FC0E0EE2405F582EF3401F583D0E0F0FB
:107CA000701A9061C5E0A2E05012E0A2E3500DEE20
:107CB0002405F582EF3401F5837480F01264D6EE6A
:107CC0002404F582EF3401F583E07034EE2405F5E9
:107CD00082EF3401F583E070279061C5E0A2E050A7
:107CE0001FE0A2E3501AEE2405F582EF3401F5837C
:107CF0007480F0EE2404F582EF3401F5837480F093
:107D00001264DC7A00EE2403F582EF3401F583E09F
:107D1000602F9061CBE0C0E08A0AEE250AF8EF34CC
:107D200000F9E82480F582E93400F583D0E0F00A18
:107D3000EE2403F582EF3401F583E0F8EAC39840BE
:107D4000D175E181027ABA74F21249B0890AA80A9F
:107D5000E875F08AA4C8AAF02AF974A528F8740571
:107D600039F99061C6E0FDE054F0F075E1817C00E6
:107D7000E82403F582E93401F583E0602B8C0CE8FC
:107D8000250CFAE93400FBEA2480F582EB3400F597
:107D900083E09061CAF00CE82403F582E93401F530
:107DA00083E0FAECC39A40D5E82405F582E9340172
:107DB000F583E060049061CEF0E82404F582E934B4
:107DC00001F583E060049061CDF0ED9061C6F0A80C
:107DD0000AE875F08AA4C8AAF02AF974A528F874EC
:107DE0000539F9E0FCE0540FF075E1917A00E824E0
:107DF00000F582E93401F583E060238A0CE8250C64
:107E0000F582E93400F583E09061D2F00AE82400BD
:107E1000F582E93401F583E0FBEAC39B40DDE82409
:107E200002F582E93401F583E060049061D6F0E860
:107E30002401F582E93401F583E060049061D5F016
:107E4000EC9061C6F0850A82AE82EEF875F08AA4E5
:107E5000C8AAF02AF974A528F50C740539F50D7532
:107E60000E80750F00780E124BC3E50C2406FCE55E
:107E70000D3401FD7A007B6012634A740212496F6F
:107E8000A80CA90DE82486F582E93401F583E09079
:107E90006195F0E82487F582E93401F583E090618B
:107EA00096F0E82488F582E93401F583E090619743
:107EB000F0E82489F582E93401F583E0906198F0D7
:107EC000EE75F003A4CEA8F028FF74D12EF58274CD
:107ED000033FF583E0F8A3E0F5838882E0648070D7
:107EE000079003A17408803F900A7974C8F0A374C6
:107EF00063F0A374C8F0A37463F0A374C8F0A37410
:107F000063F0A374C8F0A37463F0A37474F0A37453
:107F100063F0A374C8F0A37463F0A374CEF0A374E9
:107F200063F09003A17407F0900A877474F0A3744F
:107F300063F0A37474F0A37463F0A37474F0A37477
:107F400063F0A37474F0A37463F0A37474F0A37467
:107F500063F0A37474F0A37463F07F06024A82C0D6
:107F600082C083900752E4F090074CF0A3F0D083D6
:107F7000D0820245FBC082C083E990075280EE7434
:107F8000F61249B0E9FB9081E7E0F8EBC3984004B2
:107F900079038030750A01750B00EB780A124946A7
:107FA000AC0AAD0BEA7011ECF4F8EDF4F990074C63
:107FB000E058F0A3E059800990074CE04CF0A3E0B2
:107FC0004DF079007F02024A8274F41249B09007A2
:107FD00052E0601E90074CE0F8A3E0F9E849701207
:107FE000E5A8FEC2AF1267D6EEA2E7A2E792AF12F3
:107FF00069A47F04024A82FF851C87C2AF0245FB49
:10800000C082C083E9900A57F002828F74F7124948
:10801000B0E99002E0F07C187D037AFF7BFF125FED
:10802000849002E174FFF0A3F0A3E4F0A3F07905DB
:10803000125F0C9002E0E0F9125E2E7AA27B5F12D2
:10804000614C7F01024A8274F41249B08A0A8B0B98
:10805000EB548060309002E0E0F91267228A0C8BCA
:108060000DAE0CAF0DEE4F60138E828F83E064B0C7
:108070007003125F24EEFAEFFB126710AA0AE50BF9
:108080006480FB80047A007B0002825E74F21249F5
:10809000B074FC124959EAFEEBFFEE4F60387402EF
:1080A0001249A4EEF0A3EF1284C3ECF0A3ED128406
:1080B000C3AA82AB83125E28E9F50A7073741212A8
:1080C00049A4129077E50C450D60658E828F83126E
:1080D000813AEE4F7005750A0280557A067B0012D0
:1080E00067768A0E8B0FA80EA90FE8497005750AEE
:1080F00013803D88828983E4128144A3A3EEF0A318
:10810000EF129510E50CF0A3E50DF09002E6128158
:10811000CC9002E66017E0FCA3E08003EAFCEBFDF4
:108120008C828D831281CC70F38C828D83128F9C14
:10813000A90A740412496F029712A3A3A3A3E0FE35
:10814000A3E0FF22F0A3F0888289832274F212490F
:10815000B0890CE975F017A4FEAFF09002E5E4F0E9
:108160009002E31281CC600A12677C9002E3E4F093
:10817000A3F0EEFAEFFB1267768A0A8B0BEA450B47
:10818000602FEEFCEFFD79001266FE9002E3E50A37
:10819000F0A3E50BF07B0080081281B6E4F0A3F0B9
:1081A0000BEBC3950C40F2E50C9002E5F0790080F2
:1081B000027913029712EB75F017A4F8A9F0900258
:1081C000E3E028FAA3E0398A82F58322128D32EAAD
:1081D0004B2274F41249B0750A00750B00740C122E
:1081E00049A41294E4FEE9FF800CE50A2401F50A93
:1081F000E50B3400F50BC3E50A9CE50B9D50328579
:108200000A0C850B0D7403780C124946EA250CF80C
:10821000EB350DF988828983A3A3A3A3A3A31290AE
:1082200077EE650C7003EF650D70BFE8FAE9FB802F
:10823000047A007B00802774F41249B07900EAA226
:10824000E0501B750AFC750B81780A124BC37C0445
:108250007D007A597B0A125F06740212496F7F040F
:10826000024A82C082C0839002E6128296601C8815
:10827000828983A3A3E06A7003A3E06B8882898369
:1082800070E8A3A3A3A3128D2E80047A007B00D0F4
:1082900083D0820245FB1297E5E8492274EE124929
:1082A000B074FC124959EAFEEBFF851A82851B83E4
:1082B000E4F0A3F0EE2402128F80EE24051284B1C4
:1082C000EE2404F510EF128896E024FE603924FCB9
:1082D000604624FE605224FE605E24FE700302832A
:1082E000B624FE700302842E24FE700302843D2413
:1082F000FE700302844C24FC700302845B24FE7035
:108300000302846A0284A79002FF7417F0A3E412A8
:1083100084CB125BA60284A7851A82851B83AC825C
:10832000AD83125F2A028477851A82851B83AC8213
:10833000AD83125F30028477850E0A850F0B7402BD
:108340001249A4AC82AD83850A82850B83128D2EDF
:10835000125E4C8A0E8B0FAC0EAD0FEC4D6042E4FA
:10836000F50EF50F780E124BC3750EFF750F0278E0
:108370000E124BC3750E00750F03780E124BC374AB
:10838000081249A4124BDA7916128D28125F6C7408
:108390000812496FE9F50E700B128D24125BBE8036
:1083A0000F750E01850A82850B831284B9128F9C8A
:1083B000850E0A02847A74021249A4AC82AD8385C8
:1083C0000E82850F83128D2E125E4C8A128B13AC97
:1083D00012AD13EC4D6043850E82850F83A3A3126B
:1083E0004BDA7512FF7513027812124BC375120027
:1083F0007513037812124BC374081249A4124BDA96
:108400007916128D28125F6C740812496FE9F50B0A
:10841000700B128D24125BC4800F750B01850E82C8
:10842000850F831284B9128F9C850B0A804C851AA4
:1084300082851B83AC82AD83125F36803A851A82B7
:10844000851B83AC82AD83125F3C802B851A8285AD
:108450001B83AC82AD83125F42801C851A82851B10
:1084600083AC82AD83125F48800D851A82851B83A1
:10847000AC82AD83125F4EE9F50AE50A60298E826F
:108480008F83A3E06414601F851082851183E090C0
:1084900002FF1284C31297E1900300128F9CE50A39
:1084A000A31284CB125BA0EEFAEFFB125ECA028E1F
:1084B00088F50EEF3400F50F221297E5851A8285B4
:1084C0001B8322F0851A82851B8322F07CFF7D02AC
:1084D000850C82850D83128D322274EE1249B074A0
:1084E000FC1249598A0C8B0D8C108D11EA2405F56C
:1084F0000AEB3400F50B7C157D0079007AFF7B02D6
:108500001266FEE50A2402F50EE50B1284B4851A04
:1085100082851B838582128583137812124BC38553
:108520000A82850B83A3A3A3A31289DE124BC3E5A2
:108530000A2405F512E50B3400F5137812124BC32B
:10854000850E82850F83128D38125E46740612499D
:108550006F8A128B13AE12AF13E50C2402F50CE5F3
:108560000D128F83EE4F70030286A08017740212E3
:1085700049A4128D2E88828983EAF0A3EBF0900241
:10858000FFE004F09002FFE0C3940540030286A0E0
:10859000E4F512F5137812124BC37512E875130245
:1085A0007812124BC37512E97513027812124BC37D
:1085B00074061249A4124BDA7910EEFCEFFD128D0D
:1085C00028125F6C740812496FE9705E850A828513
:1085D0000B83A3A3A3A3A3A3A3E0F89002E8E068FE
:1085E00070481289DE124BC37CE97D02E50A24083B
:1085F000FAE50B3400FB1266F8740212496FE96069
:10860000298E828F83A3A3A3A3128D2E9002FFE055
:10861000F5127402781212494674002512F582741C
:10862000033513F583EAF0A3EBF074021249A48535
:1086300082128583137812124BC374021249A4125A
:108640004BDA850E82850F831297F6125E52740400
:1086500012496F8A128B13AE12AF139002FFE0F52E
:10866000127513007402781212494674FF2512F82D
:1086700074023513F988828983A31281CC700302B6
:108680008564E82403F8E93400F9EE4F60030285BD
:108690006D8882898374FFF0A3F09002FFE004F0FC
:1086A0009002FFE0600A128D24125BB27900800B09
:1086B000850A82850B83128F93790A028E8874EA69
:1086C0001249B074FE1249598C148D15EA2405F52F
:1086D0000EEB12996012813E750A00750B00EA24B8
:1086E00002F512EB3400F513851A82851B8385820F
:1086F0000C85830D780C124BC3850E82850F83A3E6
:10870000A3A3A31288A0124BC3E50E2405F50CE524
:108710000F128F83780C124BC3850E82850F831244
:1087200097F4125E46740612496F8A0C8B0DEA4567
:108730000D7003028851EA2404F510EB128896129A
:10874000813E8A828B83A3A3A3E0F98512828513DD
:1087500083128D2E125E34E9F50B6003028851E41A
:10876000F516F5177816124BC37516E875170278CB
:1087700016124BC37516E97517027816124BC3749F
:10878000061249A4124BDA7913AC0CAD0D85128296
:10879000851383128D2E125F6C740812496FE9F5F0
:1087A0000B60030288519002E8E0F8E50A7009E0E6
:1087B0002402900300F08017900300E0FCE82402FC
:1087C000FAE43400FBEA6C7001EB60030288558523
:1087D0000A82AA821289D594141289CD5073851009
:1087E00082851183E0C0E074012A12888DD0E0F008
:1087F000050A851082851183A3E0C0E0850A0C7408
:1088000001250C12888DD0E0F0050A9002E812884C
:10881000A0124BC37CE97D02850A0C7401250CFA79
:1088200074033400FB1266E6740212496F9002E88A
:10883000E0250AF50A74FF6E700374FF6F6012EE94
:1088400024010EEF3400FFE50AC39414500302869E
:10885000E8E50A6013128C19851282851383128D44
:108860002E125BB879008014E50B7003750B0A8536
:108870001482851583EEF0A3EFF0A90B7402124960
:108880006F7F0E024A82850A0E7401250EF58274EE
:10889000033400F583223400F511851082F583221C
:1088A0001295232274EE1249B074FE1249598C10AD
:1088B0008D11EA2405F50EEB1284B4750D009002BB
:1088C000FFE4F0F50CEA2402F50AEB3400F50B8026
:1088D000499002FFE0FA9002E8E0F81289D5941777
:1088E0001289CD400D9002FFE0F87416C3989002F3
:1088F000E8F01289DE124BC37CE97D0274002AFA8B
:1089000074033400FB1266E6740212496F9002E8A9
:10891000E0F89002FFE028F0050CE50E2416F58241
:10892000E50F128891E0F8E50CC39840030289B680
:108930009002FFE0C39416507DE50CC333F8E43396
:10894000F9E50E28FEE50F39FF851A82851B83ACF9
:1089500082AD838E828F83128D2E125E4C8A128B93
:1089600013AC12AD13EC4D7005750D018043E4F5A9
:1089700012F5137812124BC37512E87513027812B0
:10898000124BC37512E97513027812124BC37406A9
:108990001249A4124BDA7916850A82850B83128D4F
:1089A0002E125F6C740812496FE9F50D700302888E
:1089B000D1128F8F80107CFF7D02850A82850B8308
:1089C000128D2E125BCAA90D7402028E8AE99400E0
:1089D000C365D03322EA28F8E43400F9E822E0F550
:1089E0001275130078122274EA1249B074FC12490D
:1089F000598A0E8B0F8C148D15EA2405F50CEB1299
:108A00008F83750A00750B00E50C2402F512E50D45
:108A10003400F51374021249A485821085831178FD
:108A200010124BC3850C82850D83A3A3A3A31294BC
:108A3000CF124BC3E50C2405F510E50D3400F511FC
:108A40007810124BC3851282851383128F89128D81
:108A500028125E46740612496F8A108B11AE10AF51
:108A600011E50E2402F510E50F3400F51180408861
:108A700082898374FFF0050A12888674FFF0050A64
:108A80009002E8E0F50E750F00780E124BC37CE9FA
:108A90007D02850A0E7401250EFA74033400FB1260
:108AA00066E6740212496F9002E8E0250AF50AEEC4
:108AB0004F60718E828F83A3A3A3E0F98510828516
:108AC0001183128D2E125E34E9F50BEE240412840C
:108AD000B1E97044E4F516F5177816124BC3751614
:108AE000E87517027816124BC37516E975170278E8
:108AF00016124BC374081249A4124BDA7911EEFC1A
:108B0000EFFD851082851183128D2E125F6C740823
:108B100012496FE9F50B6027850E82850F83128C51
:108B20000F128F9CE50A7003028BF5128C198510C9
:108B300082851183128D2E125BD07900028C0A85FA
:108B40000A82AA82EA9002E87009E02404900300F5
:108B5000F08022E0F8900300E0F516E82404FCE43D
:108B60003400FDEC65167001ED70C01289D59412C9
:108B70001289CD50B6850E82850F83E0C0E0740166
:108B80002A12888DD0E0F0050A850E82850F83A316
:108B9000E0C0E0128886D0E0128C2B85820E85839F
:108BA0000F780E124BC374041249A4124BDA8512CB
:108BB000828513831297F6125E52740412496F8AEB
:108BC0000E8B0FAE0EAF0F850A0E7401250EF874D2
:108BD000033400F9EE4F7003028A6F851A82851BF9
:108BE00083E088828983128C2BA3E0C0E012888600
:108BF000D0E0028A7DE50B7003750B0A850C828537
:108C00000D83128C0F128F9CA90B740402887E12A4
:108C100097E585148285158322900300E0F5F0E541
:108C20000A849002FFF07CFF7D0222F0050A851A7B
:108C300082851B832274EC1249B074FE1249598A52
:108C40000A8B0B8C108D11EA2405FEEB3400FF8596
:108C50001A82851B83AC82AD838E828F83128D2E08
:108C6000125E4C8A0C8B0DEE24181284B1EA450D6D
:108C70007003028CFF128E715032851A82851B831D
:108C8000128D2E125F608A128B13EA4513606B7986
:108C900012AC0CAD0D850A82850B83128D2E8512C8
:108CA000828513831249AEE9F50C7058E4F50CF592
:108CB0000D780C124BC38E828F83A3A3E0F50C7842
:108CC0000C124BC3EE2403128F80780C124BC38E10
:108CD000828F83128D38125F72740612496FE9F524
:108CE0000C7021850E82850F83E0701F850A8285B6
:108CF0000B83128D2E125BD68011750C0E800975B8
:108D00000C018004E50C6003128F8F850E82850FA5
:108D100083E0600479008002A90C740212496F7F1D
:108D20000C024A827CFF7D02850C82850D83128DA8
:108D30003222E0FAA3E0FB22E0FCA3E0FD850A82F8
:108D4000850B83128D322274EE1249B074FE1249E3
:108D5000598A0A8B0B8C0E8D0FEA2405FEEB34002A
:108D6000FF751000851A82851B83AC82AD838E82CD
:108D70008F83128D2E125E4C8A0C8B0DEA450D707E
:108D800003028E5D128E715035851A82851B831207
:108D90008D2E125F608A108B11EA4511605E791288
:108DA000AC0CAD0D850A82850B83128D2E85108249
:108DB0008511831249AEE9F5106003028E60850AC1
:108DC00082850B83129077AA0CFB125F548A128B58
:108DD00013A812A913E849701E7AFF7BFF125F5493
:108DE0008A128B13A812A913E849606C88828983C0
:108DF000E50CF0A3E50DF0750C00800775100E80F2
:108E00005F050C9002E5E0FAE50CC39A504AE50CC8
:108E100075F017A4FAABF088828983A3A3E02AFA3D
:108E2000A3E03BFB8A828B83128F89EC4D70D27555
:108E30000C17750D00780C124BC3EEFCEFFD12669B
:108E4000E6740212496FEEFCEFFD850A82850B8302
:108E5000128D2E125BDC80147510098003751001D1
:108E60001297DD850E82850F83128F9CA9100289CF
:108E7000C8E50A2402F50AE50B3400F50B8A828B5B
:108E800083A3A3A3E0A2E522740412496F7F0A0220
:108E90004A8274EC1249B08C128D13EA2405F50E47
:108EA000EB1284B4751100EA2402F50CEB128F83E7
:108EB000850C82F583128D2E125F548A0A8B0BEA81
:108EC000450B7003028F757510008071850E8285C9
:108ED0000F83E06401704F8E828F83A3A3124BDA5D
:108EE0008E828F83A3A3A3A3E0F5147515007814D5
:108EF000124BC3EE2405F514EF3400F51578141267
:108F00004BC3128D28125F72740612496FE9F51176
:108F10006014850E82850F83E4F01297DD8512823E
:108F2000851383128F9C7C177D007900EEFAEFFB8E
:108F30001266FE8E828F83E4F0A3F005109002E5A6
:108F4000E0F8E510C398501EE51075F017A4F8A9D5
:108F5000F0850A82850B83A3A312996A128F89EC8C
:108F60004D6003028ECC850A82850B8374FFF0A3CB
:108F7000F0E5117006128D28125BE2A911028D1F17
:108F8000F50CEF3400F50D22A3E0FCA3E0FD228EEA
:108F9000828F831297E5851082851183E8F0A3E91B
:108FA000F022C082C0839002E1E06A7003A3E06B0C
:108FB00070067AE17B0280047A007B0002828FC017
:108FC00082C08378008C828D83E06A7003A3E06B9B
:108FD0007010E875F003A4F8A9F0EC28FAED39FB5D
:108FE0008015088C828D83A3A3A3E06A7003A3E09D
:108FF0006B60DF7A007B0002828F74F61249B01238
:109000005F1E8A828B83E582458370067A007B002F
:109010008007A3A3A3A3128D2E02968E74F2124989
:10902000B0E9FE740E1249A412907774101249A48C
:109030001294EF8C828D83E064027036A31297EB5A
:10904000F50EA3E0F9A80E74026870037429697024
:1090500021750E02750F00780E124BC3780A124B61
:10906000C3780C124BC3EEF9125F96740612496F67
:1090700080027901029712E0F50CA3E0F50D22744D
:10908000E81249B074FB124959E9851A82851B839D
:10909000F08A188B19ECFEEDFF751200741D124951
:1090A000A41297E1741D1249A4128F9C8E828F83A3
:1090B000A3A3A3E0A2E4502D741D1249A4128D2E87
:1090C000125F608A828B83E582458370030294C0BD
:1090D000790AEEFCEFFDAA18AB191249AEE9F512B8
:1090E00060030294C3741F1249A41294EF742112F6
:1090F00049A412907774231249A4E0F510A3E0F577
:10910000118E828F83E06402600302946EA3129733
:10911000E1850A82850B83A3858214858315EE245D
:10912000061284B188828983E0FAA3E0F9EA240078
:10913000F516E439F5177816124C4D010000280198
:109140002863910700022828920328959100295F3F
:109150009301298A9302292B9303295F93042909F8
:10916000946E94E51045116003029469850E828522
:109170000F831294E4FAE9FB8A828B83E0850C82E8
:10918000850D8312951A124BC38A828B83A3E0FC50
:10919000A3E00293F3E51045116003029469850C86
:1091A00082850D837401F01294F7850A82850B8302
:1091B000F07C007D008E828F83A3A3A3A3E0240113
:1091C000FAA3E03400FB125E4CEA4B60418A828BCA
:1091D00083E02402F8850C82850D83E028F0EA24E0
:1091E00004F8EB3400F988828983E08514828515C0
:1091F0008312952C12951A124BC38A828B83128F7D
:1092000088E50A2403FAE50B3400FB0293F8850C89
:1092100082850D83E02404F07C047D007900AA148B
:10922000AB151266FE0294C3E5104511600302946B
:10923000691294F7FEA3E0FF850C82850D83740408
:10924000F0EE850A82850B83F0EF85148285158305
:10925000F074031249A4AC82AD83EEFAEFFB125E08
:109260004C8A0E8B0FEA450F700302930C8A828B97
:1092700083A3A312813A74011249A48582108583C5
:10928000117810124BC374051249A4124BDA7CFFFB
:109290007DFF125E52740412496F8B11EA45117002
:1092A00033850E82850F831294CF124BC3850E82B5
:1092B000850F83A3124BDA7C027D007AA07B821299
:1092C0005C7E740412496FE9700A74011249A47437
:1092D000FFF0A3F08E828F83E064027039750E0276
:1092E000750F00780E124BC38E828F83128F88E524
:1092F0000A2404FAE50B3400FB1266E674021249F4
:109300006F850C82850D83E0240280097401124967
:10931000A4EEF0A3EFF074011249A41294E0F074EB
:10932000011249A4A31294D8029463E51045116078
:1093300003029469850E82850F83128F89AA18AB68
:1093400019125F8A850C82850D837402F0EA850A02
:1093500082850B83F0851482851583EB029466E584
:1093600010451160030294691294F7F8A3E0F9859F
:109370000C82850D837402F0E8850A82850B83F0E8
:10938000E9851482851583029466850E82850F8394
:10939000128D2E1266E0EAFC8C82A882C39510E43E
:1093A0009511405FE865107002E51170047C008043
:1093B00022851A82851B83E0FAE5102AFAE511342A
:1093C00000FBC3EA98EB94005003E08005E510CC65
:1093D000C39CFCEC850C82850D83F08C0C750D0014
:1093E000780C124BC3850E82850F83E02510FCA3F9
:1093F000E03511FDAA0AAB0B1266E6740212496F42
:109400000294C37512070294C3E5104511705A8582
:109410000E82850F831297E1850C82850D83740778
:109420001281461294D8128146A3E08514828515D4
:1094300083F0E82402FAE93400FB8A828B831294D9
:10944000D81295071294E0A31295101294E9F0E84F
:109450002405F8E93400F9888289831294E9A3127B
:10946000952CA3A3A3A3F0805A75120B8055741DED
:109470001249A4128D2E125F1E8A828B83E58245CB
:1094800083603D1297E1880E890FE8450F603178BF
:1094900010124BC3780C124BC3780A124BC37406DC
:1094A0001249A4E0F9EEFCEFFDAA18AB19850E8273
:1094B000850F831249AE740612496FE9F5128003D5
:1094C00075120EA912740512496F7F10024A82E0CC
:1094D000F510751100781022E0850A82850B832231
:1094E000129536221297E5E822129536A3A322E0C0
:1094F000F50AA3E0F50B22850E82850F83E0F8A321
:10950000E0F5838882E022A3A3F08A828B83A322E2
:10951000F088828983A3A3A3A322F08A828B83127B
:10952000952322E0F50C750D00780C22F0888289D5
:1095300083A312953622E0850A82850B83A3A3229A
:1095400074EE1249B074FE1249598A0C8B0DECFA74
:10955000EDFB74141249A4E0F512A3E0F5137416A0
:109560001249A4E0FE74181249A4E0F510A3E0F536
:1095700011851A82851B83AC82AD83125E4C8A0EE4
:109580008B0FEA450F6049851A82851B83128D2E49
:10959000125F1E8A828B83E5824583602FA3A3120C
:1095A00094EFE50A450B60247810124BC378121231
:1095B0004BC3EEF9AC0EAD0FAA0CAB0D850A82853C
:1095C0000B831249AE740412496F8006790E800233
:1095D00079010289C874F61249B074FE12495974AF
:1095E0000C1249A41294E4851A82851B83F074013D
:1095F0001249A4E9F0E4F50AF50B780A124BC37599
:109600000A02780A124BC374041249A485820A859F
:10961000830B780A124BC3125F72740612496F747F
:109620000212496F806874F71249B0EAFEEBFF89B5
:109630000A7C187D03125F8AEA5402600BA90AEEC5
:10964000FAEFFB125E408002790102804274F6124A
:1096500049B074FF6A700374FF6B70168C828D833F
:10966000129693E4F08C828D83A3A3A3129693A306
:109670008018125F5A8A0A8B0BA80AA90BE8496066
:109680000D8882898374FF128144A3A3E4F07F02D2
:10969000024A8274FFF0A3F08C828D83A3A322740C
:1096A000F61249B0125F5A8A828B83E58245836045
:1096B00006A3A3E0FA80027A007B0080D174F21244
:1096C00049B08A0A8B0BECFEEDFF740E1249A4E040
:1096D000F50C125F5A8A0E8B0FA80EA90FE849707D
:1096E00026EEFCEFFD7AFF7BFF125F5A8A0E8B0F8E
:1096F000A80EA90FE8497004791180168882898321
:10970000E50AF0A3E50BF088828983A3A3E50CF0BA
:1097100079007F06024A8274EE1249B0EAFEEBFF3E
:109720008C0A8D0B890E74141249A41297E17416D9
:109730001249A4128D2E750F00E84960030297D5D7
:109740007402650E60030297D074121249A4129736
:10975000EBFCA3E0F9EC2400F510E439F511EAF490
:10976000F8EBF4F9EC58F8E51159F9E849705CE5C3
:109770000A2406F8ED3400F9880C890D8882F583F7
:109780001297F6125F8A8A128B13E5106512700425
:10979000E511651360427810124BC3850C82850D6C
:1097A000831297F6125F90740212496FE9F50F70F9
:1097B000277810124BC3850A82850B83A3A31297C7
:1097C000F4125FA8740212496F800D750F80800833
:1097D000750F0D8003750F0BA90F028E8D8E828F72
:1097E000831297E522E0F8A3E0F9221297E5888238
:1097F0008983E022A3A3E0FCA3E0FDEEFAEFFB22C5
:1098000074E81249B074E7124959851A82851B839E
:10981000EAF0A3EBF08C188D198910750A00750B0E
:109820000074311249A4E0F514A3E0F51574331265
:1098300049A4E0F516A3E0F51774351249A4E0F544
:1098400011E50B75F003A4F8A9F0851A82851B8336
:1098500012996AE0F47003A3E0F4700302994DEEEC
:109860002402F50EEF129960E0700302994D8518FD
:109870000C85190D780C124BC3AC16AD17AA14AB9E
:1098800015125F12740212496F8A0C8B0DEA450D96
:10989000700302994DE4F512F5137812124BC3745C
:1098A000061249A48582128583137812124BC37461
:1098B000091249A48582128583137812124BC3853D
:1098C0001482851583A3A3A3A3124BDA7914AC0CDD
:1098D000AD0D8E828F83128D2E125F6C740812492B
:1098E0006FE97069850C82850D83A3A3A3A31297EA
:1098F000E174021249A4128F9C850E82850F83E0C9
:10990000A2E05018A91074021249A4AC82AD838E53
:10991000828F83128D2E125E64E9420A850E828543
:109920000F83E0A2E15026E511F50C780C124BC72D
:10993000A91074031249A4AC82AD838E828F831266
:109940008D2E125E5E740112496FE9420A050BE525
:109950000BC394025003029841A90A74190294C7D8
:109960003400F50F850E82F58322E028FEA3E0394E
:10997000FF8E828F832274F21249B0EAFEEBFF89D8
:109980000D7401650D600E7402650D706A79011227
:10999000616AE97062EEFAEFFB125F548A0A8B0B80
:1099A000EA450B6047750C00800B7C177D00790041
:1099B0001266FE050C9002E5E0F8E50CC398502114
:1099C000E50C75F017A4F8A9F0850A82850B83A32E
:1099D000A3E028FAA3E039FB8A828B831282967077
:1099E000C9850A82850B8374FFF0A3F07C187D0380
:1099F000EEFAEFFB125F8402971274F21249B08AFA
:109A00000A8B0BECFEEDFF740E1249A412907790B6
:109A10000A57E0F4603D7A097B0012670AEA4B605E
:109A2000328A828B8374B1F0A3E4129509A3129554
:109A300007A3E50AF0A3E50B129A56EEF0A3EF1286
:109A40009A56A3A3E50CF0A3E50DF0900A57E0F9B0
:109A5000126716029712F08A828B83A3A3A3A3A393
:109A600022C082C0839061907404F0A37448F0A374
:109A70007402F09061807440F09061BC7403F090C7
:109A800061877419F0906265741BF0906249E0C3BD
:109A9000941390619C400A7409F090606674018090
:109AA00007740DF0906066E4F090619A7433F0A34F
:109AB0007455F09061A0743AF090053EE064017036
:109AC00009C2919003A5746780059003A57461F0A5
:109AD000906B46E493906186F0906B48E493F46059
