:020000040000FA
:100800006431FFFF3007007C41414141FFFFFFFFA2
:10081000FFFFFFFFFFFFFFFFFFFFFFFFFFFFFFFFE8
:10082000000102030405060708090A0BFFFFFFFF8A
:100830000212780220D3FFFFFFFFFFFFFFFFFFFF41
:10084000FFFFFFFFFFFFFFFFFFFFFFFFFFFFFFFFB8
:10085000FFFFFFFFFFFFFFFFFFFFFF022830FFFF4B
:10086000FFFFFFFFFFFFFFFFFFFFFFFFFFFFFFFF98
:10087000FFFFFFFFFFFFFFFFFFFFFFFFFFFFFFFF88
:10088000FFFFFF022146FFFFFFFFFFFFFFFFFFFF0C
:10089000FFFFFFFFFFFFFFFFFFFFFF022807FFFF34
:1008A000FFFFFFFFFFFFFFFFFFFFFFFFFFFFFFFF58
:1008B000FFFFFF021F3F01FF0000B40000280028D7
:1008C00000283075A000A000A000A00000080008CB
:1008D000E001F000100010001000100010001000E7
:1008E00050005000500010001000D0070000000021
:1008F00000000F0001000500307507001000010026
:1009000081FF00000000FF522A702A582AFF0202CD
:100910000208025000A0000000E80302A2830100C8
:10092000007D8302BC83010000000A02C483010031
:1009300000B20202BC83010000010A02C68301006A
:1009400000C80202BC83010000020A02C883010041
:1009500000CA0202BC83010000030A02D683080019
:1009600000CB0202BC83010000040A02CC83010018
:1009700000050AFF0100FF2002A28301000083831B
:1009800002BC83010000690A02CA83000000000063
:1009900002C0830300001803283028302830283094
:1009A0002830283028302830283028302830283087
:1009B0002830BC32D432B632FFFF490200030412A1
:1009C0006402A2830100008F8302BC83010000B196
:1009D0000A02A083010000B20A02C083030000667D
:1009E00007020202020202020202010D00000010D0
:1009F0000102A283010000808302BC83010000D3B6
:100A00000A0298830100006C0702BC83010000D435
:100A10000A029683010000A68102BC83010000D572
:100A20000A0294830100007D8102BC83010000D68C
:100A30000A029283010000FF8002BC83010000D7FC
:100A40000A029E83010000C98002BC83010000D815
:100A50000A02CE83010000ED8002BC83010000D9B0
:100A60000A02A683010000DB8002BC83010000DAD9
:100A70000A02AA830100006F8102BC83010000DB2F
:100A80000A02B683010000DC0A01E803053F100AF0
:100A90001C02A2830100008C8302BC83010000823F
:100AA0000B105080020000790802C0830300007B15
:100AB0000802BE83010000998102BC83010000820C
:100AC0000B1060800200007A0802C08303000081DE
:100AD0000802BE830100002382FFFFFF001202A272
:100AE00083010000868302BC83010000CF0B02B4A7
:100AF00083010000CB0802C083030000CC08013052
:100B00007503020106000000000000000000000064
:100B100000000000000000000000000000000000D5
:100B200000FFFF0600800CE803420B400101021B9E
:100B3000800864070F020F020907091F1F1A001F10
:100B4000160200070F0000000F0E1E041E04120EF6
:100B5000121E1E14001E0C04000E1E0000001E1C9F
:100B60001C081C08041C041C1C08001C1808001C81
:100B70001C0000001C181810191009180918191069
:100B800001181110011818000100181010001200AF
:100B900012101210120002100200021010000200C7
:100BA0001000000200020002000201020002000226
:100BB00001000002010000000000090108010B0013
:100BC000080009010A0109000201090000000001F2
:100BD0001000120211031601100012021403030088
:100BE0001403030000020000040403060C020000CA
:100BF00004040806060009060600000401010908AD
:100C0000060C180500000908100C0C01120D0D004F
:100C10000008020313100D18110A01001310011827
:100C20001902051B1B000010040606001A1002140E
:100C300002000600021012040A1616000000080C3A
:100C40000C001401050904010D0004000408140C33
:100C50000C0000001118180008030A1308031A00FA
:100C600008000810081818000001031110011007EF
:100C700014071106140111001001111010000003D7
:100C800007020102010E090F030C08030300000212
:100C90000201010000060E040204021C121F0619C4
:100CA00010070601000504030200000C1C080408DC
:100CB0000518041E0C12000E0C02000A080604009F
:100CC0000018191108100A10081C1804001C180438
:100CD0000014100C0801011012021000140010186A
:100CE000100801191109000800191002020104047A
:100CF000010009000111001002120212001000127E
:100D000000040402080802001200020200000404A9
:100D1000040400000004000808041010040004008B
:100D2000040400000808080800000008001010086B
:100D30000000080008000808000010101010000053
:100D40000010000000100000100010001010000043
:100D50000000000000000000000000000000000093
:100D60000000000000000000001000000000000073
:100D70000000000000000000000000100000000063
:100D80000000000000000000000000000010000053
:100D90000000000000000000000000000000000053
:100DA0000000000010000000000000000000000033
:100DB000000000000000000000000000000008002B
:100DC0000000000000000000000000000000000023
:100DD000000000000000000400000000000000000F
:100DE00000000000000000000000040000000000FF
:100DF00000000000000000000000000002000000F1
:100E000000000000000000000000000000000000E2
:100E100000010000000000000000000000000000D1
:100E200000000000000000000000000100000000C1
:100E300000000000000000000000000000000000B2
:100E400000000000000100000000000000000000A1
:100E500000110011121B00110C1500110000000000
:100E6000000000000000000600060400040604065E
:100E700000000000000000000000000000060A065C
:100E80000E06040604060000000000000000000832
:100E9000020A0A060C060C0404060C0208000000F4
:100EA00000000000000000090A0F0A060E060E06E8
:100EB0000E060A060A0000000000000911091B0FB7
:100EC0001B0F0E0F0E0F0E0F0A0F0A000A00000074
:100ED0000000000000000000000000000000000012
:100EE000000E0E00000000000000000000000000E6
:100EF00000000000000E0E0E0E00000000000000BA
:100F00000000000000000000000E0E0E0E0E0E008D
:100F1000000000000000000000000000000E0E0EA7
:100F20000E0E0E0E0E00000000000000000000007B
:100F3000000E0E0E0E0E0E0E0E0E0E000000000025
:100F400000000000000E0E0E0E0E0E0E0E0E0E0E07
:100F50000E00000000000000000E0E0E0E0E0E0E21
:100F60000E0E0E0E0E0E0E0000000000000E0E0EF5
:100F70000E0E0E0E0E0E0E0E0E0E0E0E0E000000BB
:100F80000004040E0E0E0E0E0E0E0E0E0E0E0E0EA3
:100F90000E0E0E000000000000000000000404041B
:100FA0000404040000000000000000000000000035
:100FB00000000C0E0C0E0C040C04000000000000DD
:100FC0000000000000000C0E0C0E1E0E1E0E0C0485
:100FD0000C0400000000000000000002080E0E0FCC
:100FE0001E0F1E0F1E0E0E060C0404000000000053
:100FF0000002080C0601100110011008020208048A
:101000000400000000000002080E0E0D160912096F
:10101000120A0A060C040400000000000002080E78
:101020000E0F1E0B1A0B1A0E0E060C040400000005
:1010300000000002080E0E0F1E0F1E0F1E0E0E06E1
:101040000C04040000000000000912120900000056
:101050000000000802020804040000000000000074
:10106000000000091212090000080202080404002E
:1010700000000004040E0E0802080208020802081C
:101080000208020E0E00000000040004000E00041E
:101090001211001100110000120A00040C000004DB
:1010A0000406100C0206080404040406080C0206D8
:1010B00010040400000404040404040404040404EC
:1010C00004040400000404000008093635304C69AB
:1010D0007465051214001400020A000201050302DF
:1010E000F0FF3635304C69746500000000000000E8
:1010F00000000000000000F0370000F63740300A22
:1011000043686172616374657269737469632031E5
:101110000002436861726163746572697374696324
:101120002032001A43686172616374657269737476
:10113000696320330010436861726163746572698A
:10114000737469632034000243686172616374657B
:1011500072697374696320350002A28301000089FB
:101160008302BC83010000F11102D28303000074EA
:101170000902BE83010000F21102BC8301000003DA
:101180001202D483010000880902BE83010000041A
:101190001202BC83010000151202B2830300008911
:1011A0000902BE83010000161202BC830100002761
:1011B0001202B0830000009D0902C0830300009E5C
:1011C0000902BE83010000281202BC83010000391D
:1011D0001202AE83040000A40902BE830100003A9B
:1011E00012E5C754F84405F5C779012200000080D4
:1011F000FB1211E1B90003021262E479217808B808
:1012000000028004F709D8FCE479297802B80002CA
:101210008004F709D8FCE4900280782A79088002DB
:10122000F0A3D8FCD9FA781C9008B67A01BA00026B
:101230008007E493A3F608DAF99009A9AA82AB83A0
:101240009008B7782B790A8015E493A3AC82AD831C
:101250008A828B83F0A3AA82AB838C828D83D8E9A8
:10126000D9E77582797583C2740712128A7582EC88
:10127000758311740012128A75D00075813F751A3A
:1012800080751B02759F000211F1C09FF59FE473EA
:10129000D09F22D083D082C09FE493C0E07401939A
:1012A000C0E0740293F59F22E066701008A3E06628
:1012B000700A08A3E066700408A3E06622C3E796FC
:1012C0000809E7960809E7960809E79622C3E09619
:1012D00008A3E09608A3E09608A3E09622C00AC3FC
:1012E000E096F50A08A3E096420A08A3E096420AAF
:1012F00008A3E096450A7001D3D00A22080808EA3C
:10130000C0E0EBC0E086F0E7A4FA180986F0E7A495
:101310002AFA180986F0E7A42AFA180986F0E7A441
:101320002AFA1986F0E7A4FBE5F02AFA190886F0F4
:10133000E7A42BFBE5F03AFA190886F0E7A42BFBAB
:10134000E5F03AFA18180986F0E7A4C5F02BFBE49B
:101350003AFA1908E7C5F0C6A426F6E5F03BFBE427
:101360003AFA1886F0E7A4F6E5F00826F6E43B081A
:10137000F6E43A08F6D0E0FBD0E0FA22E4CFC0E091
:10138000E4CEC0E0E4CDC0E0E4CCC0E075F020C322
:10139000E633F608E633F608E633F608E633F618E1
:1013A0001818EC33FCED33FDEE33FEEF33FFC3ECE6
:1013B0009709ED9709EE9709EF97191919400FFF53
:1013C000EC97FC09ED97FD09EE97FE191906D5F08B
:1013D000BEECF709EDF709EEF709EFF7191919D087
:1013E000E0FCD0E0FDD0E0FED0E0FF22601608086F
:1013F00008C6C313C618C613C618C613C618C61324
:10140000C6D5E0EA227009080808226016181818E4
:10141000C6C333C608C633C608C633C608C633C6F5
:10142000D5E0EA22E627F60809E637F60809E637A6
:10143000F60809E637F622E026F608A3E036F608B5
:10144000A3E036F608A3E036F622E026F008A3E093
:1014500036F008A3E036F008A3E036F022C3E697A2
:10146000F60809E697F60809E697F60809E697F6FA
:1014700022C3E096F008A3E096F008A3E096F008F7
:10148000A3E096F022E657F60809E657F60809E6C3
:1014900057F60809E657F622E056F608A3E056F696
:1014A00008A3E056F608A3E056F622E056F008A39B
:1014B000E056F008A3E056F008A3E056F022E0F66C
:1014C00008A3E0F608A3E0F608A3E0F622E6F00899
:1014D000A3E6F008A3E6F008A3E6F022E0FAA3E012
:1014E000FBA3E0FCA3E0FD22EAF0A3EBF0A3ECF009
:1014F000A3EDF022CAC0E0E6F0A308DAFAD0E0FAE1
:1015000022CAC0E0E0A3C582CCC582C583CDC58315
:10151000F0A3C582CCC582C583CDC583DAE6D0E011
:10152000CA22C3E498F8E499F91215638026C3E44B
:101530009AFAE49BFBE920E7E9121563E498F8E4E2
:1015400099F922C3E498F8E499F9121563E498F83C
:10155000E499F9C3E49AFAE49BFB22EB20E7CFE994
:1015600020E7E0B90010BB0008E88AF084F8AAF090
:1015700022E4FBC8FA22EB70227B10C833C8C933BF
:10158000C9335007C39AC3DBF280069A50012ADBA5
:10159000EAC833F4C8C933F4C9FA2275F008E4C8BC
:1015A00033C8C933C933C99AC99B5004C92AC93B36
:1015B000D5F0ECFBC833F4C8E4C9FA22600D08C6C4
:1015C000A2E713C618C613C6D5E0F322600C08C6FE
:1015D000C313C618C613C6D5E0F422700422600DEA
:1015E00018C6C333C608C633C6D5E0F41822251A78
:1015F00010AF08F51A4002151B8008F51A400215B5
:101600001BD2AF22C0D0251A10AF08F51A50020520
:101610001B8008F51A5002051BD2AFD0D022251A24
:10162000F58210AF08F51A4002151B8008F51A4024
:1016300002151BD2AF851B8322C582251AC582C520
:1016400083351B10AF07F51B85821A8007F51B85B4
:10165000821AD2AFC58322251AF582E4351BF583A1
:1016600022E473251AC582C0E0E51B34FFC583C0A0
:10167000E0E51AC3958224F810AF0885831B8582A4
:101680001A800885831B85821AD2AFCEF0A3E5208D
:10169000F0A3780AE608F0A3DEFAEFF0A3E58124D0
:1016A000FAF8E608F0A3E608F0A3E608F0A30808B5
:1016B000E608F0A3E608F0A315811581D0E0FED07E
:1016C000E0F8158115811581E8C0E0EEC0E0222523
:1016D0001AC582C0E0E51B34FFC583C0E0E51AC32C
:1016E000958224F910AF0885831B85821A800885AE
:1016F000831B85821AD2AFCEF0A3E520F0A3780A2F
:10170000E608F0A3DEFAEFF0A3E58124FBF8E60893
:10171000F0A3E608F0A30808E608F0A3E608F0A3A3
:1017200015811581D0E0FED0E0F815811581E8C063
:10173000E0EEC0E022851B83851A82E0A3FEE0A3D1
:10174000F520780AE0A3F608DFFAE0A3FFE0A3C0E3
:10175000E0E0A3C0E0E0A3C0E0E0A3C0E0E0A3C0FD
:10176000E010AF0885821A85831B800885821A8560
:10177000831BD2AFD083D082021290851B83851A3F
:1017800082E0A3FEE0A3F520780AE0A3F608DFFAE2
:10179000E0A3FFE0A3C0E0E0A3C0E0E0A3C0E0E07E
:1017A000A3C0E010AF0885821A85831B800885825C
:1017B0001A85831BD2AFD083D08222C0D0251AC510
:1017C00082C0E0E51B34FFC583C0E0E51AC3958203
:1017D00024F310AF0885831B85821A800885831B3C
:1017E00085821AD2AFC8F0A3E9F0A3EAF0A3EBF028
:1017F000A3790AE709F0A3D8FAECF0A3EDF0A3EE81
:10180000F0A3EFF0A3D0E0F0A3D0E0F0A3D0E0F09D
:10181000A3E520F0A3E5F0F0A322851B83851A82BF
:10182000E0C0E0A3E0F9A3E0FAA3E0FBA3780AE0BC
:10183000F608A3DFFAE0FCA3E0FDA3E0FEA3E0FFCF
:10184000A3E0C0E0A3E0C0E0A3E0F5D0A3E0F52072
:10185000A3E0A3F5F010AF0885831B85821A8008EA
:1018600085831B85821AD2AFD082D083D0E0F8D096
:10187000E03274048006740280027401C0E0F40453
:1018800012161ED0E01214F4227404800474028034
:1018900000CCC0E0EDC0E0E51AC39CCCAD1B50010C
:1018A0001D10AF068C1A8D1B80068C1A8D1BD2AFB3
:1018B000121501D0E0FDD0E0FC22D083D082E9C037
:1018C000E0E493A3C386F0C5F095F0F908E493A390
:1018D00086F0C5F095F0700BE493A3C3994005E939
:1018E000048002A3E475F002A42582F582E5F035B8
:1018F00083F583D0E0F9E493A3C0E0E493C0E02251
:10190000D083D082ECC0E0EDC0E0E493A3FCE4938C
:10191000A3FDED4C600D12194CEC24FFFCED34FFDF
:10192000FD80EFE493A3FCE493A3FDED4C600D1266
:10193000198BEC24FFFCED34FFFD80EFD0E0FDD0EF
:10194000E0FCE493A3C0E0E493C0E022C0E0C3E481
:101950009396087401939618400FE49366700808F4
:10196000740193661870007019A3A3C3E4939608DA
:101970007401939618A3A3400DD0E0D0E0D0E0020C
:10198000193CA3A3A3A3A3A3D0E022C0E0C0F08886
:10199000F0E4936670080874019366187000A8F06C
:1019A000A3A3700BD0F0D0E0D0E0D0E002193CA3AC
:1019B000A3D0F0D0E022FFFF74F51216CFEAFEEBC1
:1019C000FFEE2434F8EF3400F9880A890BEE243551
:1019D000F582EF3400F583E0F8EE2437F582EF343A
:1019E00000F583E0F50CEC850CF0A4FCAAF0850C66
:1019F000F0EDA42AFDE82CF8E43DF97A257B0012ED
:101A00001563EA850A82850B83F0F8740758F97428
:101A100001B900028004C333D9FCFAE8131313544C
:101A20001FF8EE28F8EF3400F9E8245DF582E93478
:101A300000F583E05A6008EE2434F582EF802CEE46
:101A40002434F582EF3400F583E0C0E0EE2436F56F
:101A500082EF3400F583E0F5F0D0E084A8F0EE28C2
:101A6000F8EF3400F9E82438F582E93400F583E032
:101A7000F97F0402177B74F51216CFEAFEEBFFEE36
:101A80002434F582EF3400F583E0C0E0EE2435F530
:101A900082EF3400F583D0E0F08E828F83A3A3A37E
:101AA000A3A3A3A3C082C0838E828F83A3A3A3A377
:101AB000A3E0F8A3E0F9D083D082E0C398F50AA3AD
:101AC000E099F50BEE247FF582EF3400F583E064B6
:101AD000017069EE2480F582EF3400F583E0F8A30D
:101AE000E0F98E828F83A3A3A3A3A3A3A3E0FCA307
:101AF000E0FD8E828F83A3A3A3A3A3E0FAA3E0FB60
:101B0000C3EA9CEB9D5010C3EC98ED99402EC3EABC
:101B100098EB995027800EC3EA98EB994007C3ECE5
:101B200098ED9940177CDB7D04EEFAEFFB122F86CF
:101B3000EE247FF582EF3400F583E4F0EE2434F8F0
:101B4000EF3400F9E8FCE9FDEE2435F582EF3400CE
:101B5000F583E0F8EE2437F582EF3400F583E0F505
:101B60000CE50A850CF0A4F50AAAF0850CF0E50B4B
:101B7000A42AF50BE8250AF8E4350BF97A257B0051
:101B8000121563EA8C828D83F0F8740758F974019A
:101B9000B900028004C333D9FCFAE8131313541FAD
:101BA000F8EE28F8EF3400F9E8245DF582E9340016
:101BB000F583E05A6008EE2434F582EF802CEE24A1
:101BC00034F582EF3400F583E0C0E0EE2436F58290
:101BD000EF3400F583E0F5F0D0E084A8F0EE28F8CB
:101BE000EF3400F9E82438F582E93400F583E0F9B0
:101BF0001227F3021A71C082C083851A82851B8363
:101C0000E0F8A3E0F9C3EA9CEB9D5010C3EC98ED1B
:101C100099401BC3EA98EB995014800EC3EA98EBE5
:101C2000994007C3EC98ED9940047901800279004E
:101C3000D083D08222EAC39CFAEB9DFB2274EF1280
:101C400016CF9003A1E064086005E06407702A9055
:101C500061C8E060249003CFE0F4601DE0F875F007
:101C600003A4C8AAF02AF974D128FE740339FF8EA0
:101C7000828F83A3A3A3E07003021D6D906060E0D8
:101C8000C0E0EE2468F582EF3400F583D0E0F07513
:101C90000E44750F05750A00750B00E5D914F50C97
:101CA000E5D95403F510601774036510605CE50C0A
:101CB0006010EE2467F582EF3400F583E0700302D4
:101CC0001D5290053FE06401602AEE2482F582EF08
:101CD0003400F583E06004780480027800850C0A03
:101CE000E50AC398FA95E0FB122E4E8A0A8B0BEA9E
:101CF000450B700512318A8074EE2482F582EF3430
:101D000000F583E070048A0E8B0FE50C6012850EDF
:101D100082850F83F50DE5D9F0A3150DE50D70F65D
:101D2000EE2482F582EF3400F583E0604474FC25F4
:101D30000CF50C780E121876AC0CA910EEFAEFFB2D
:101D40001230227402121604E97026AA0AAB0B1292
:101D500036E8793D8E828F83A3A3A3A3E0FA7B00AC
:101D6000122D22EEFAEFFB122F9E123034790080F2
:101D700074740365106056850C1275130078121286
:101D80001876AC0EAD0FAA0AAB0B122FFE7402121E
:101D90001604EE2468F582EF3400F583E064807069
:101DA00004747F8001E0F50E780E12187AE510F5C4
:101DB0000E780E12187AA90CAC0AAD0B9003CFE086
:101DC000FA7B00122CE6740212160480139003A111
:101DD000E06408600BAC0EAD0FEEFAEFFB12308E34
:101DE00012319679017F0A02177B74F51216CF74AF
:101DF000FC1215EEEAFEEBFF890AA2AFE433F50B05
:101E0000C2AF806AEE2463F8EF3400F97A007B00F9
:101E1000A2AFE433F50CC2AF88828983E0FCA3E073
:101E2000FDEC4D603A88828983E0FAA3E0FB8A8268
:101E30008B83E0FCA3E0FD88828983ECF0A3EDF0C6
:101E40008A828B83E4F0A3F088828983E0FCA3E09C
:101E5000FDEC4D700A88828983A3A3E4F0A3F0E52A
:101E60000CA2E092AF1236E89004E2E004F0EE2417
:101E700063F582EF3400F583E0F8A3E0F9E8496008
:101E80003DEE2463F582EF3400F583E02402FAA3EB
:101E9000E03400FBEA2402F50CEB3400F50D780C7D
:101EA0001218768A828B83E0FCA3E0F9EEFAEFFB4E
:101EB000122FC27402121604E97003021E04900469
:101EC000E2E060639004E3E0F89004E2E0C398503D
:101ED0000C7402650A70509004E4E0604A8E828FB0
:101EE00083A3A3A3A3E0851A82851B83F0A3E4F058
:101EF0009004E2E0F87402121657E8F0A3E4F090C0
:101F000004E2E0F89004E1E028F07402121657AC05
:101F100082AD83851A82851B83AA82AB83790112E5
:101F20002CF29004E2E4F0E50BA2E092AF7404120C
:101F30001604021A71FFFFFF8521878522C622C081
:101F4000E0C0D0E8C0E0E9C0E0EAC0E0EBC0E0EC0F
:101F5000C0E0EDC0E0EEC0E0C00AC00BC00CC00D98
:101F6000C082C083C0F0A2AFE433FEC2AF759B0055
:101F7000906182E0A2E05012E591A2E0500C7591D0
:101F8000FE740165217003121C3DE0A2E55051E58D
:101F900091A2E5504B7591DF9003A1E064076005C5
:101FA000E06408702374016521703579019003CFD6
:101FB000E0FA75F003A4CAA8F028FB74D12AFA74D9
:101FC000033BFB121DEA8018E0640D70139003C3FD
:101FD000E004F064287002E4F07A00E0F912319C29
:101FE000906182E0A2E64003022086E591A2E640ED
:101FF000030220867591BF9003A1E064057008126A
:1020000030C41230D080031230CA75210012312A38
:10201000E99003A2F0790012311E122EFC7A017BA6
:10202000009003A0E0F91233F4907803E06442706A
:1020300055900543E014F0704DC2AF12203E007879
:102040002AD0E0F618D0E0F6E59F54077005750B2E
:10205000FF8003750B7FC4C0E07829E6F50A08E627
:10206000550BF50B740B780A1215CCD0E0250AF845
:10207000906270E0A2E740F8E8C333906272F0909B
:102080006270E0D2E0F0906181E0A2E35009E5E9FE
:10209000A2E3500375E9F7A3E0A2E75009E591A296
:1020A000E7500375917FEEA2E092AFD0F0D083D0DD
:1020B00082D00DD00CD00BD00AD0E0FED0E0FDD005
:1020C000E0FCD0E0FBD0E0FAD0E0F9D0E0F8D0D0EE
:1020D000D0E032C0E0C0D0C082C083906183E0A273
:1020E000E05009E5BFA2E0500375BFFEE0A2E15059
:1020F00009E5BFA2E1500375BFFDE0A2E25009E58A
:10210000BFA2E2500375BFFBE0A2E35009E5BFA206
:10211000E3500375BFF7E0A2E45009E5BFA2E45025
:102120000375BFEFE0A2E55009E5BFA2E5500375D6
:10213000BFDFE0A2E65009E5BFA2E6500375BFBFCE
:10214000D083D0828088C0E0C0D0E8C0E0E9C0E0A1
:10215000EAC0E0EBC0E0ECC0E0EDC0E0C0F0E5A715
:10216000A2E6500FE5A1A2E6500953A7BF75A1BF93
:102170001221ABE5A7A2E5500CE5A1A2E55006535C
:10218000A7DF75A1DFE5A7A2E15009E5A1A2E15013
:102190000375A1FDE5A7A2E2500CE5A1A2E250065D
:1021A00053A7FB75A1FBD0F00220BC74F81216CF28
:1021B0007521019003A1E0640670151230528A82E5
:1021C0008B83A3A3A3A3A3A3E0FAA3E0FB1230B2E3
:1021D000A2AFE433FED2AF9003A7E0640170187A97
:1021E000207B009003A0E0F912347E7A207B0090DF
:1021F00003A0E0F91233FA906182E0D2E6F0900594
:1022000040E0602185C62280169003A6E06401703C
:1022100008E5C654F84405F5C653BEFC121F3874D1
:1022200001652160E4EEA2E092AF7F0102177BFF1F
:102230008E238F24858228858327851A82851B8398
:10224000E0CEA3E0CF852882852783EBC9EAC8EDDD
:10225000CBECCA75F010C3E833C8E933C9EA33CA16
:10226000EB33CBC3EA9EF526EB9FF525B35004ABC9
:1022700025AA26EC33CCED33CDD5F0DAAE23AF244E
:102280002274E91216CF74F81215EE851A82851B96
:1022900083ECF0A3EDF08A0A8B0B9003A1E024F706
:1022A000C394055006750A010224181230528A0C94
:1022B0008B0DAE0CAF0DEE4F7003022415AC0AADC2
:1022C0000B7402121657AA82AB831230E28E828FF1
:1022D00083A3A3750EFF750FFF7510FF75110078AE
:1022E0000E12149874021216577512FF7513FF75AB
:1022F00014FF7515007812121498780E79121212C4
:10230000BD502A780E791212145D750A01750BC83A
:10231000750C00750D00780A790E1212BD505285A9
:102320000E0A850F0B85100C85110D805075160156
:102330007517C875180075190085120A85130B8565
:10234000140C85150D780A790E12145D7816790A29
:102350001212BD401C750A00750B00750C00750D3E
:1023600001780A791212145D780A790E1214248009
:102370000C750A01750B00750C00750D0074097859
:102380000A121405750E19F50FF510F511780A7972
:102390000E12137C8E828F83A3A3A3A3A3A3E0F8C2
:1023A000A3E0F97AD07B03121563880E890FE4F558
:1023B00010F511780A790E1214247406121657E0DB
:1023C000F8A3E0F97AD07B03121563E8FA8A0EE4E9
:1023D000F50F780A790E1212BD5007780A790E129D
:1023E000145D9003A1E06408600AE064066005E003
:1023F0006405702D750E0D780E790A1212BD4021FC
:10240000750EF4750FFF7510FF7511FF780A790EC0
:10241000121424800C750A00750B00750C00750DE4
:1024200000851A82851B83E0F8A3E0F58388827813
:102430000A1214CD74081216047F1002177B74F769
:102440001216CF1230F490053EE0640170109062D5
:1024500045E4F0A3F053F4F343FE0C5390F3123031
:10246000A0E5C654804449F5C6E59E547F64497092
:10247000F8906185740FF090053CE0F47002A3E0E1
:10248000604E90053DE0600814601B14602E804093
:10249000750A01750B0090053CE0780A1215DBE522
:1024A0000AF45280802A750A01750B0090053CE001
:1024B000780A1215DBE50AF452908014750A01754A
:1024C0000B0090053CE0780A1215DBE50AF452A0F7
:1024D00079007F0202177B74F71216CFE9FEEAFF3C
:1024E00074016E700C7A807B009003A0E0F91233C7
:1024F000F4903844E493F46008E493F9122EF080E9
:102500000953C680E59E547F70FA1230A690053EAE
:10251000E064017003122F0890053CE0F47002A300
:10252000E0604B90053DE0600814601A14602C8058
:102530003D750A01750B0090053CE0780A1215DB29
:10254000E50A42808028750A01750B0090053CE081
:10255000780A1215DBE50A42908013750A01750BA3
:102560000090053CE0780A1215DBE50A42A0123023
:10257000F41230528A0A8B0BA80AA90BE84960159D
:10258000E5E170FCE82414F582E93400F583E0F419
:102590006003E0F5E174016F700A7A019003A0E036
:1025A000F91234480224D274ED1216CF8A0A8B0B2A
:1025B0008C0C8D0D7413121657780E1214BE780AF7
:1025C000790E1212BD7512017513C87514007515B8
:1025D000005012780A790E12145D7812790A1212DC
:1025E000BD50168010780E790A12145D7812790E9B
:1025F0001212BD40047901800279007F0C02177B22
:1026000074ED1216CF8A0A8B0B8C0C8D0D7413127D
:102610001657780E1214BE780E790A1212BD4011A8
:10262000780A790E12145DAA0AAB0BAC0CAD0D80C2
:102630002275120075130075140075150178127952
:102640000E12145D7812790A121424AA12AB13AC7C
:1026500014AD1580A68A828B83750AFF750BFF75F2
:102660000CFF750D00780A1214AB7F0402177B74FF
:10267000F51216CF8C828D83780A1214BE8A828B53
:1026800083780A121471EA2404F8EB3400F98C827E
:102690008D83A3A3A3A3E0FCA3E0FD88828983C369
:1026A000E09CF0A3E09DF088828983C3E09420A39E
:1026B000E0944E40268A828B83750AFF750BFF7566
:1026C0000CFF750DFF780A12144A8A828B83A3A32C
:1026D000A3A3E02420F0A3E0344EF002265574F5C5
:1026E0001216CFE9FE9004F6E0FAA3E0FBEEC33346
:1026F000F8E433F9744128F582748139F583E02ACE
:10270000F50AA3E03BF50B780A1218767A407B4273
:102710007C0F7D0012223074021216048A0A8B0B81
:102720008C0C8D0D7410780A1213ECAA0AAB0B7F77
:102730000402177B74F11216CF8A0E8B0F8C108D4A
:1027400011740F121657E0FAA3E0FB74111216571A
:10275000E0F50AA3E0F50B780A121876EA2401F5F1
:102760000AEB3400F50BE4F50CF50D780E790A123E
:1027700012FC750A71750B02780E790A1212FCAA06
:102780000EAB0FAC10AD1112223074021216048B76
:102790000BEA450B60047A0180027A00EC2AFCED1A
:1027A0003400FD7413121657E0F8A3E0F9E8FEE9CF
:1027B000FFECF8EDF97A717B02121563880A890B38
:1027C0008E828F83780A1214CDECF8EDF97A717B42
:1027D000021215638A0A8B0B7405780A1215DB8EB8
:1027E000828F83A3A3A3A3E50AF0A3E50BF07F08E0
:1027F00002177BC082C083E9906000F0D083D08252
:1028000022C2AF02000022C0E074F21217BBA2AFD6
:10281000E433FED2AFE589A2E05003123640758959
:1028200000C2C5751C00EEA2E092AF7F0102181A2B
:10283000C0E0C0D0E8C0E0E9C0E0E5A8D2AFC2C7C0
:10284000751C00A2E7A2E792AFD0E0F9D0E0F8D083
:10285000D0D0E0321212933FFE0612129356FE06BB
:1028600012129387FE06121293C2FE06121293EC06
:10287000FE0612129316FF061212932DFF06121275
:102880009344FF061212935BFF0612129384FF0615
:1028900012129397FF06121293ADFF06121293C005
:1028A000FF06121293E7FF0612129318CF061212B8
:1028B000931CD00612129354D00612129377D006AE
:1028C00012129382D006121293A5D006121293B45C
:1028D000D10612129389D20612129304D306121251
:1028E000938CD306121293C7D306121293FED3060B
:1028F0001212938CD40612129365D506121293C548
:10290000D506121293D0D5061212934FD606121284
:102910009352D60612129355D606121293E4D60697
:10292000121293E7D60612129317D706121293418A
:10293000D7061212932FD806121293E1D80612125C
:102940009300800712129328800712129356800773
:102950001212938D8007121293EB80071212933696
:102960008107121293818107121293C181071212FB
:1029700093078207121293358207121293F282078D
:10298000121293FC82071212930983071212933CCE
:1029900083071212930884071212931484071212E9
:1029A000932C8407121293368407121293F5BC07F6
:1029B00012129303BD071212931BBD071212933319
:1029C000BD07121293B3DE051212935FDF051212D8
:1029D00093DADF05121293FBE00512129337E1053B
:1029E000121293E0E105121293C7E2051212932B23
:1029F000E40512129382E40512129303E505121204
:102A000093F3E50512129340E605121293C6E6050C
:102A1000121293F8E6051212930CE9051212934E66
:102A2000E9051212936CE905121293EFE9051212EF
:102A300093C3EA051212938BEB05121293FFF7046E
:102A4000121293D2F8041212937BF904121293CE4D
:102A5000F9041212937EFA041212930AFB04121262
:102A600093F6FB0412129325FC0412129338FD0412
:102A700012129380FD0412129355FE0412129391C8
:102A8000FE04121293ADFE0412129338C107121203
:102A9000937B9A07121293919A07121293B79A078F
:102AA000121293D39B07121293DD9B0712129312FB
:102AB0009D071212930A9E0712129318F90612121A
:102AC0009348FA061212937BFA06121293C5FA067D
:102AD0001212938CFC0612129362BF05121293CC51
:102AE000BF051212932BC1051212933BC10512129E
:102AF0009368C105121293BFC10512129368C205F3
:102B00001212936FC30512129339C40512129399CE
:102B1000C505121293DCC50512129381C605121267
:102B200093CEC605121293F4C60512129302C9057C
:102B300012129307C9051212930CCB051212935966
:102B4000CB05121293CCCB05121293FFCB051212B8
:102B500093A1CC051212934ACD0512129382CD0592
:102B600012129385CD05121293CDCD051212930D3D
:102B7000CE0512129364CE05121293F8A307121217
:102B80009310A40712129358A4071212936EA4076D
:102B9000121293B5A407121293C9A50712129356E5
:102BA000A607121293A1A60712129300B0041212E4
:102BB000930CB00412129347B0041212938CB00419
:102BC0001212934CB104121293D2B1041212933721
:102BD000B20412129363B2041212939CB204121242
:102BE00093DAB404121293BEB604121293A4B8047A
:102BF000121293E7B90412129335BC0412129347D0
:102C0000BD0412129392BE04121293A2BF041212B8
:102C100093BFBF04121293FABF041212931CC00494
:102C20001212937FC00412129340C504121293D55E
:102C3000C50412129326C6041212934DC604121232
:102C4000939FC604121293BDC60412129317C704B1
:102C500012129300C80412129376C904121293FA46
:102C6000C904121293BD8407121293C7840712126B
:102C7000930A8507121293258507121293B58507CB
:102C8000121293DD85071212931A860712129351BE
:102C900086071212937A8607121293EF8607121292
:102CA000930487071212931987071212934A870712
:102CB0001212935E8707121293838707121293BD35
:102CC0008707121293E987071212932188071212BD
:102CD00093A08807121293E98807121293138907A9
:102CE0001212933E8907121293E1B807121293173A
:102CF000B70612129345B70612129393B806121232
:102D00009373B90612129392B9061212930FBA0670
:102D100012129352BA06121293A8BB0612129369AA
:102D2000BC06121293F0BE0612129391BF06121245
:102D30009387C00612129384C106121293DEC20654
:102D400012129369C30612129386B707121293EFF9
:102D5000B70712129343B8071212936AB8071212F8
:102D6000939BB807121293F38D07121293608E078C
:102D7000121293A78E07121293BF8F07121293BBE2
:102D800090071212939E910712129352D9061212B3
:102D90009394D90612129366DA061212933FDB0659
:102DA00012129339DC061212931BDD061212938461
:102DB000DD061212933ADE06121293AEDE061212EE
:102DC000931ADF0612129343DF06121293BDDF0639
:102DD00012129356E006121293BBE006121293D021
:102DE000E00612129316E1061212932FE106121258
:102DF0009394E10612129397E106121293149E0720
:102E00001212933C9E071212937A9E071212933865
:102E10009F071212939F9F07121293BB9F071212D4
:102E200093E39F0712129313A00712129322A00795
:102E30001212939FA007121293C5A007121293516A
:102E4000CF051212932FD10512129361D3051212DE
:102E5000939DD305121293CAD305121293B4D405CD
:102E6000121293FFD4051212934AD5051212935CE5
:102E7000D5051212939CD505121293D1D5051212C5
:102E8000931FD6051212934ED60512129371D605D2
:102E9000121293BED60512129343D7051212935DF8
:102EA000D9051212939CDB05121293DDDB05121279
:102EB000937FDD05121293C0DD0512129333DE05F8
:102EC00012129389DE0512129302AA0612129300BF
:102ED000AB0612129399B106121293BAB3061212EC
:102EE0009385B506121293EDB60612129361CA04C9
:102EF00012129310CB041212933DCB04121293833F
:102F0000CB04121293C3CC0412129359CE041212A2
:102F100093D3CE04121293EECE0412129369CF040F
:102F2000121293C3D00412129323D20412129329C3
:102F3000D3041212938AD404121293A3D40412124B
:102F40009301D504121293EFD50412129322D604E2
:102F500012129392D6041212930CD70412129356A3
:102F6000D70412129320D804121293F5D804121227
:102F700093D4D9041212935FDA04121293CDDA04B7
:102F800012129341DB041212936CDB041212932B86
:102F9000DC0412129390DD04121293ADDD041212C0
:102FA00093CCDD04121293BDDE04121293E2DE0410
:102FB0001212930CDF0412129387DF04121293E1B2
:102FC000DF041212934AE104121293F8E104121280
:102FD0009339E2041212932E9C061212937C9C06E3
:102FE000121293889C06121293669D0612129397F2
:102FF0009D06121293C89D06121293489E06121245
:1030000093809E06121293D29E061212930F9F0671
:103010001212932CA10612129352A3061212933D80
:10302000A50612129327A706121293FCFF04121290
:1030300093EA98051212931A9905121293F39F05B9
:1030400012129378A10512129375A7051212935DBF
:10305000A8051212939AA805121293BDA805121280
:1030600093EEA805121293F7A80512129301A90571
:10307000121293EFA905121293E5AA05121293DB1F
:103080008305121293DA8705121293E08705121254
:10309000931B8F05121293349405121293AD960769
:1030A000121293439707121293599707121293CF54
:1030B00097071212934398071212938198071212DE
:1030C00093F598071212936E990712129377990746
:1030D000121293839907121293989907121293D69A
:1030E0009907121293EC99071212934B9A07121236
:1030F000936092071212936D9207121293879207B0
:10310000121293C692071212930493071212936934
:1031100093071212937E9307121293899307121248
:1031200093969307121293AD9307121293BB9307D2
:10313000121293C69307121293D29307121293E1BD
:103140009307121293EC93071212930F9407121223
:1031500093B69407121293C69407121293E0940741
:10316000121293FD94071212931995071212933EAF
:1031700095071212934995071212935E9507121242
:1031800093729507121293D39507121293D995074C
:10319000121293DF9507121293E59507121293FD11
:1031A0009507121293309607121293058006121299
:1031B0009389800612129338810612129397820621
:1031C000121293B88406121293A48506121293D990
:1031D0008506121293FB8506121293AA8606121216
:1031E00093A28806121293CB88061212935D890669
:1031F0001212938F89061212939C8906121293F36E
:103200008906121293198A06121293868C061212DC
:1032100093898D06121293E18D06121293A4ED0587
:10322000121293AEEE0512129395EF051212939FB0
:10323000EF05121293C1EF05121293CDEF05121292
:103240009366F10512129395F105121293B1F205EE
:103250001212930AF30512129370F4051212934F8F
:10326000F505121293ABF50512129318F60512121A
:103270009353F60512129392F6051212934BF90529
:1032800012129365F905121293F1F905121293FFC8
:10329000F90512129358FA0512129366FA051212E2
:1032A00093D9FA051212933DFB0512129387FB0581
:1032B000121293EAC3061212930CC406121293322E
:1032C000C60612129347C9061212935FCA0612125B
:1032D0009312CB06121293F4CB06121293B0B207DC
:1032E000121293D5B20712129347B30712129348E2
:1032F00038001212935138001212935A38001212E9
:1033000093313900121293E23A00121293183B00E3
:10331000121293523B00121293883B00121293C276
:103320003B00121293F63B00121293223C00121241
:10333000936B3C00121293A53C00121293EE3C00DA
:10334000121293463D001212937B3D00121293D647
:103350003D00121293103E00121293613E001212B1
:1033600093973E00121293D13E00121293FF3E003B
:10337000121293223F0012129359BF071212938523
:10338000BF07121293E0BF07121293EABF0712128F
:1033900093FABF07121293BBE106121293C5E1061E
:1033A00012129303E2061212934CE2061212938653
:1033B000E206121293E0E20612129301E3061212E1
:1033C00093D9E506121293E2E5061212932FE60650
:1033D00012129358E60612129362E606121293CE68
:1033E000E60612129360E706121293AAE70612127B
:1033F00093E0E7061212936CE806121293ADE8060A
:10340000121293E4E806121293F6E80612129315CC
:10341000E9061212931EE906121293EBE906121244
:1034200093FEBB07121293BFB007121293F5B007B9
:103430001212932BB10712129376B207121293A0B5
:10344000C007121293B6C007121293C0C00712121F
:10345000930AC107121293BCC1071212936689071F
:103460001212937B89071212932B8A071212936B05
:103470008A07121293848A07121293BF8A071212C4
:10348000930C8B071212933E8B07121293808B07BB
:10349000121293818D07121293F7B507121293201F
:1034A000B6071212934FB607121293E7B60712121D
:1034B00093FFB60712129341B7071212930DA1079B
:1034C0001212931BA1071212938CA1071212935090
:1034D000A3071212936EA30712129397A907121251
:1034E00093C7A907121293DFA9071212934FAA07D5
:1034F000121293E6AA0712129366AB07121293CB2D
:10350000A607121293F0A6071212931AA707121217
:1035100093D1C20712129369E204121293CEE4040B
:103520001212936FE60412129323E704121293B659
:10353000E7041212933BE80412129360E80412129B
:1035400093B6EB041212933CEC041212936FED0449
:10355000121293A9ED04121293DEED041212939E3F
:10356000EF04121293FBEF0412129344F0041212B0
:1035700093AFF00412129320F10412129352F1044B
:103580001212936AF104121293B3F204121293C34B
:10359000F204121293DEF30412129300F4041212D6
:1035A0009336F404121293EAF50412129377F60498
:1035B000121293B6F604121293DAF70412129398C9
:1035C000BE07121293A9BE071212934EBF07121222
:1035D0009327C30712129366C307121293C4C3073B
:1035E000121293CFC307121293F1C3071212932240
:1035F000FF0412129332FF0412129344FF041212BA
:1036000093F6FF04121293FAB9071212937FBA07C6
:10361000121293E5BA07121293CCBD07121293004F
:10362000BE0712129329BE07121293FEBA07121296
:10363000931FBB0712129373BB071212937DBB0734
:10364000121293C7BB07121293F2BB07121293F523
:10365000BB07121293DBC307121293EBC3071212BC
:1036600093EEC3071212931BC2071212932AC207CA
:10367000121293F83F001212937AAE0712129315AA
:10368000B00712129376B007121293BCB007121251
:103690009302C40712129307C4071212930EC407B1
:1036A00012129310C4071212935BF206121293982F
:1036B000F206121293B3F20612129384F306121258
:1036C0009372F406121293DAF5061212934CF60670
:1036D00012129334F706121293BBF706121293D408
:1036E000F80612129355B407121293A7B4071212D8
:1036F0009331B50712129398B50712129335AC07A0
:103700001212935FAC071212932DAD071212930899
:10371000AE0712129319EA06121293E0EA06121289
:103720009317EB0612129341EB06121293A1EB06CC
:10373000121293F7EB061212935CEC06121293F43A
:10374000EC0612129303EE061212939AEF0612126F
:103750009327F0061212938EF006121293A5F0062C
:10376000121293BFF106121293FDF1061212930486
:10377000C00712129334C00712129339C0071212F5
:10378000932F8E06121293B091061212933893065D
:103790001212938F9306121293AE93061212932C69
:1037A0009406121293C29506121293A7960612124D
:1037B00093B59A061212938B9B06121293FDAC05D9
:1037C000121293C4AF05121293CEAF05121293D802
:1037D000AF05121293F3AF0512129338B00512120F
:1037E00093C9B005121293A4BB0512129343BC05F2
:1037F00012129319BD051212936EBE051212931088
:10380000FC0512129355FC0512129372FC0512125C
:103810009337FD05121293A0FD051212936DFE055C
:10382000121293A6FF0512129370C307121293C2CD
:103830003F001212939CC307121293DFFF05FFFF94
:10384000FFFFFFFFFFFFFFFFC082C0837901023B44
:10385000ECC082C0837902023BEC74F51216638AD5
:103860000A8B0BECFEEDFFEE4F6005EA450B700591
:1038700079020239138E828F83E9123C648A828B2B
:10388000831239198A828B83123918EA2402FAEBDF
:103890003400FB1231F0E912391A850A82850B8354
:1038A000A3A3A3123918123ACD88828983E0540861
:1038B0006004D2F08002C2F0A2F0123924541060E9
:1038C000047A0280027A008E828F83E04A12392ABB
:1038D000542060047A0480027A008E828F83E04A4A
:1038E00012391E88828983E0A2E0123924540260D2
:1038F000047A0280027A008E828F83E04A12392A8B
:10390000540460047804800278008E828F83E0483B
:10391000F079007F03021735A3E08E828F83F0A336
:103920000EAF8322E4338E828F83F088828983E016
:103930002274ED121663EAFEEBFF8C0A8D0BEE4F3C
:103940006005EC450B70057902023AC88E828F83C0
:10395000A3AE82AF83E08C828D83123AD88C828DA5
:1039600083A385820C85830D8E828F83E0850C82F4
:10397000850D83123AD8E0F9EC2402FAED3400FB0D
:103980001231F68E828F83A30EAF83E50A2404F5ED
:103990000EE50B3400F50FE0850E82850F83F08E67
:1039A000828F83A3E0F514A30E0EAF83A2E0E4336D
:1039B000F510751100E514A2E15004D2F08002C2A6
:1039C000F0A2F0E433F512751300E514A2E25004FE
:1039D000D2F08002C2F0123ACDE8FAE9FB8A828B7B
:1039E00083E054F7FCA3E0FD740378101215DBECC0
:1039F000451054EFFC740478121215DBEC45125498
:103A0000DFFCA2F0E433F510740578101215DBEC3E
:103A10004510FC8A828B83F0A3EDF08E828F83E0C9
:103A2000F514A2E0E433FEE514A2E15004D2F080E4
:103A300002C2F0A2F0E433F8E514A2E25004D2F09E
:103A40008002C2F0EC54FE4E54FDFCE8C333F8ECA7
:103A500048F8EDF9E8543BFCA2F0E433F5107402A9
:103A600078101215DBEC45108A828B83F0A3E9F005
:103A70007A217B001229448A108B11A810A9118584
:103A80000E82850F83E0C398E499401A7A227B0066
:103A90001229448A10850E82850F83E0FAC3E5104F
:103AA0009AEB940050047912801E850A82850B835C
:103AB000E0C39405500C850C82850D83E0C394020D
:103AC00040047918800279007F0B021735E50A243B
:103AD00005F8E50B3400F922F08E828F83A30EAF38
:103AE000832274F6121663ECFEEDFFEE4F6004EADB
:103AF0004B70047902801E8E828F837403123C58AF
:103B0000121876EAFCEBFDEEFAEFFB12339A740220
:103B10001216047900023D4174F6121663ECFEEDB4
:103B2000FFEA4B6004EE4F700479028022750A10A0
:103B3000750B00780A1218768A828B83A3AC82AD4B
:103B400083EEFAEFFB12339A740212160479000224
:103B50003D4174F6121663ECFEEDFFEE4F6004EA91
:103B60004B70047902801E8E828F837404123C583D
:103B7000121876EAFCEBFDEEFAEFFB12339A7402B0
:103B80001216047900023D4174F6121663ECFEED44
:103B9000FFEA4B6004EE4F700479028022750A1030
:103BA000750B00780A1218768A828B83A3AC82ADDB
:103BB00083EEFAEFFB12339A7402121604790002B4
:103BC0003D41C082C083EC4D6004EA4B7004790231
:103BD00080188C828D837405F0A3AC82AD838A82B9
:103BE0008B83E08C828D83F0790080031232F8D0D1
:103BF00083D082021290C082C083EA4B6004EC4DF5
:103C000070047902801A8A828B83A3E0F88C828DFB
:103C100083F0C3940A5003E8700479188002790095
:103C200080CD74F6121663ECFEEDFFEE4F6004EAF1
:103C30004B70047902801E8E828F837406123C586A
:103C4000121876EAFCEBFDEEFAEFFB12339A7402DF
:103C50001216047900023D41123C64750A10750B7E
:103C600000780A22F0A3AE82AF832274F6121663A4
:103C7000ECFEEDFFEA4B6004EE4F70047902802207
:103C8000750A10750B00780A1218768A828B83A346
:103C9000AC82AD83EEFAEFFB12339A740212160473
:103CA0007900023D4174F6121663EAFEEBFFECFA6E
:103CB000EDFBEA4B6004EE4F70047902802E8A829D
:103CC0008B837407123DBD8E828F83A3123DCB750B
:103CD0000A08750B00780A121876EE2402FCEF34FD
:103CE00000FD12339A74021216047900805374F6A0
:103CF000121663ECFEEDFFEA4B6004EE4F700479A0
:103D000002803E8A828B83A3AA82AB83E0FCA3E07D
:103D1000F8E4C8F9EC8E828F83F0A3E9F0750A0805
:103D2000880B780A121876EA2402FCEB3400FDEEC8
:103D30002402FAEF3400FB12339A7402121604794B
:103D4000007F0202173574F6121663ECFEEDFFEEEB
:103D50004F6004EA4B70047902801E8E828F837458
:103D600008123C58121876EAFCEBFDEEFAEFFB1253
:103D7000339A7402121604790080C674F612166320
:103D8000EAFEEBFFECFAEDFBEA4B6004EE4F700449
:103D9000790280278A828B837409123DBD750A06D9
:103DA000750B00780A1218768E828F83A3AC82ADD1
:103DB0008312339A740212160479008084F0A3AA45
:103DC00082AB838E828F83123DCB22E08A828B83EB
:103DD000F0A30AAB832274F6121663ECFEEDFFEA41
:103DE0004B6004EE4F700479028022750A10750B47
:103DF00000780A1218768A828B83A3AC82AD83EE98
:103E0000FAEFFB12339A74021216047900023D4154
:103E100074F6121663ECFEEDFFEA4B6004EE4F7091
:103E200004790280398A828B83A3AA82AB83E08ED5
:103E3000828F83F08A828B83A30AAB83750A06750F
:103E40000B00780A121876EAFCEBFD8E828F83A3B2
:103E5000AA82AB8312339A74021216047900023DCF
:103E60004174F6121663ECFEEDFFEE4F6004EA4B70
:103E700070047902801E8E828F83740A123C58125D
:103E80001876EAFCEBFDEEFAEFFB12339A7402129D
:103E900016047900023D4174F6121663ECFEEDFF44
:103EA000EA4B6004EE4F700479028022750A1075A7
:103EB0000B00780A1218768A828B83A3AC82AD83BA
:103EC000EEFAEFFB12339A74021216047900023DE7
:103ED0004174F7121663ECFEEDFFEE4F6004EA4BFF
:103EE0007004790280148E828F83740B123C6412EA
:103EF00031F0E98E828F83F079007F01021735C09F
:103F000082C083EA4B6004EC4D7004790280108A11
:103F1000828B83A3E0F9ECFAEDFB1231F679000213
:103F20003BEF74F312166374FA1215EE8A0A8B0BC8
:103F3000890EECFEEDFF7413121657E0F8A3E0F9BA
:103F4000880C890D851A82851B837406F0A3E4F022
:103F5000850E82AA82FB7404121657EAF0A3E4F0DD
:103F6000122DF47402121657EAF0A3EBF074021249
:103F70001657E0FCA3E0FDEC4D6036EEFAEFFB8552
:103F80000C82850D83121661E9FE7013851A8285F5
:103F90001B83AC82AD83AA0AAB0B122D4CE9FEEE5B
:103FA00060117402121657E0FAA3E0FB1236E880A3
:103FB000027E131231C6EEF974061216047F050252
:103FC000173574F7121663EAF8EBF98005A3AA8295
:103FD000AB838A828B83E070F48C828D83E0A3AC08
:103FE00082AD838A828B83F0A3AA82AB8370EAE8D6
:103FF000FAE9FB7F01021735851C87C2AF021290D8
:020000040002F8
:10300000C082C083E9900A68F002B28F74F712168A
:1030100063E99002E0F07C187D037AFF7BFF122CBD
:10302000389002E174FFF0A3F0A3E4F0A3F0790577
:10303000122BC09002E0E0F9122AE27A567B2C12A1
:103040002E007F0102173574F41216638A0A8B0B67
:10305000EB548060309002E0E0F91233DC8A0C8B94
:103060000DAE0CAF0DEE4F60138E828F83E064B017
:103070007003122BD8EEFAEFFB1233CAAA0AE50B43
:103080006480FB80047A007B0002B25E74F2121648
:103090006374FC1215EEEAFEEBFFEE4F603874022B
:1030A000121657EEF0A3EF12B4C3ECF0A3ED12B476
:1030B000C3AA82AB83122ADCE9F50A707374121278
:1030C000165712C077E50C450D60658E828F83120E
:1030D000B13AEE4F7005750A0280557A067B0012F0
:1030E00034308A0E8B0FA80EA90FE8497005750AB7
:1030F00013803D88828983E412B144A3A3EEF0A338
:10310000EF12C510E50CF0A3E50DF09002E612B148
:10311000CC9002E66017E0FCA3E08003EAFCEBFD44
:103120008C828D8312B1CC70F38C828D8312BF9C04
:10313000A90A740412160402C712A3A3A3A3E0FEF3
:10314000A3E0FF22F0A3F0888289832274F2121692
:1031500063890CE975F017A4FEAFF09002E5E4F086
:103160009002E312B1CC600A1234369002E3E4F02C
:10317000A3F0EEFAEFFB1234308A0A8B0BEA450B10
:10318000602FEEFCEFFD79001233B29002E3E50A06
:10319000F0A3E50BF07B00800812B1B6E4F0A3F0D9
:1031A0000BEBC3950C40F2E50C9002E5F079008042
:1031B00002791302C712EB75F017A4F8A9F0900278
:1031C000E3E028FAA3E0398A82F5832212BD32EACD
:1031D0004B2274F4121663750A00750B00740C12FE
:1031E000165712C4E4FEE9FF800CE50A2401F50A33
:1031F000E50B3400F50BC3E50A9CE50B9D503285C9
:103200000A0C850B0D7403780C1215DBEA250CF8FB
:10321000EB350DF988828983A3A3A3A3A3A312C0CE
:1032200077EE650C7003EF650D70BFE8FAE9FB807F
:10323000047A007B00802774F41216637900EAA2F6
:10324000E0501B750AF2750B82780A1218767C041E
:103250007D007A6A7B0A122BBA74021216047F046C
:10326000021735C082C0839002E612B296601C88B5
:10327000828983A3A3E06A7003A3E06B88828983B9
:1032800070E8A3A3A3A312BD2E80047A007B00D014
:1032900083D08202129012C7E5E8492274EE12161A
:1032A0006374FC1215EEEAFEEBFF851A82851B8320
:1032B000E4F0A3F0EE240212BF80EE240512B4B1B4
:1032C000EE2404F510EF12B896E024FE603924FCD9
:1032D000604624FE605224FE605E24FE700302B34A
:1032E000B624FE700302B42E24FE700302B43D2403
:1032F000FE700302B44C24FC700302B45B24FE7025
:103300000302B46A02B4A79002FF7417F0A3E41298
:10331000B4CB12285A02B4A7851A82851B83AC82CB
:10332000AD83122BDE02B477851A82851B83AC82B3
:10333000AD83122BE402B477850E0A850F0B74025D
:10334000121657AC82AD83850A82850B8312BD2E7F
:10335000122B008A0E8B0FAC0EAD0FEC4D6042E4C9
:10336000F50EF50F780E121876750EFF750F0278B0
:103370000E121876750E00750F03780E12187674FB
:103380000812165712188D791612BD28122C2074A7
:1033900008121604E9F50E700B12BD241228728073
:1033A0000F750E01850A82850B8312B4B912BF9C7A
:1033B000850E0A02B47A7402121657AC82AD838568
:1033C0000E82850F8312BD2E122B008A128B13AC36
:1033D00012AD13EC4D6043850E82850F83A3A312BB
:1033E000188D7512FF751302781212187675120077
:1033F0007513037812121876740812165712188D66
:10340000791612BD28122C207408121604E9F50B47
:10341000700B12BD24122878800F750B01850E8267
:10342000850F8312B4B912BF9C850B0A804C851A94
:1034300082851B83AC82AD83122BEA803A851A8287
:10344000851B83AC82AD83122BF0802B851A82857D
:103450001B83AC82AD83122BF6801C851A82851BE0
:1034600083AC82AD83122BFC800D851A82851B8371
:10347000AC82AD83122C02E9F50AE50A60298E823E
:103480008F83A3E06414601F851082851183E09010
:1034900002FF12B4C312C7E190030012BF9CE50AF9
:1034A000A312B4CB122854EEFAEFFB122B7E02BE0D
:1034B00088F50EEF3400F50F2212C7E5851A8285D4
:1034C0001B8322F0851A82851B8322F07CFF7D02FC
:1034D000850C82850D8312BD322274EE1216637440
:1034E000FC1215EE8A0C8B0D8C108D11EA2405F55B
:1034F0000AEB3400F50B7C157D0079007AFF7B0226
:103500001233B2E50A2402F50EE50B12B4B4851AA3
:1035100082851B8385821285831378121218768523
:103520000A82850B83A3A3A3A312B9DE121876E542
:103530000A2405F512E50B3400F5137812121876FB
:10354000850E82850F8312BD38122AFA7406121670
:10355000048A128B13AE12AF13E50C2402F50CE5AE
:103560000D12BF83EE4F700302B6A08017740212D3
:10357000165712BD2E88828983EAF0A3EBF09002E1
:10358000FFE004F09002FFE0C39405400302B6A000
:10359000E4F512F51378121218767512E875130215
:1035A00078121218767512E97513027812121876CD
:1035B000740612165712188D7910EEFCEFFD12BD2D
:1035C00028122C207408121604E9705E850A828580
:1035D0000B83A3A3A3A3A3A3A3E0F89002E8E0684E
:1035E000704812B9DE1218767CE97D02E50A2408DB
:1035F000FAE50B3400FB1233AC7402121604E960D6
:10360000298E828F83A3A3A3A312BD2E9002FFE075
:10361000F512740278121215DB74002512F582740B
:10362000033513F583EAF0A3EBF074021216578505
:1036300082128583137812121876740212165712AA
:10364000188D850E82850F8312C7F6122B0674041F
:103650001216048A128B13AE12AF139002FFE0F51C
:1036600012751300740278121215DB74FF2512F81C
:1036700074023513F988828983A312B1CC700302D6
:10368000B564E82403F8E93400F9EE4F600302B5AD
:103690006D8882898374FFF0A3F09002FFE004F04C
:1036A0009002FFE0600A12BD241228667900800BA8
:1036B000850A82850B8312BF93790A02BE8874EA59
:1036C00012166374FE1215EE8C148D15EA2405F59E
:1036D0000EEB12C96012B13E750A00750B00EA24A8
:1036E00002F512EB3400F513851A82851B8385825F
:1036F0000C85830D780C121876850E82850F83A3B6
:10370000A3A3A312B8A0121876E50E2405F50CE5C4
:103710000F12BF83780C121876850E82850F8312E4
:10372000C7F4122AFA74061216048A0C8B0DEA45A5
:103730000D700302B851EA2404F510EB12B896128A
:10374000B13E8A828B83A3A3A3E0F98512828513FD
:103750008312BD2E122AE8E9F50B600302B851E48A
:10376000F516F51778161218767516E8751702789B
:10377000161218767516E9751702781612187674EF
:103780000612165712188D7913AC0CAD0D851282E6
:1037900085138312BD2E122C207408121604E9F52D
:1037A0000B600302B8519002E8E0F8E50A7009E006
:1037B0002402900300F08017900300E0FCE824024C
:1037C000FAE43400FBEA6C7001EB600302B8558543
:1037D0000A82AA8212B9D5941412B9CD50738510F9
:1037E00082851183E0C0E074012A12B88DD0E0F028
:1037F000050A851082851183A3E0C0E0850A0C7458
:1038000001250C12B88DD0E0F0050A9002E812B83C
:10381000A01218767CE97D02850A0C7401250CFA49
:1038200074033400FB12339A74021216049002E8F7
:10383000E0250AF50A74FF6E700374FF6F6012EEE4
:1038400024010EEF3400FFE50AC39414500302B6BE
:10385000E8E50A601312BC1985128285138312BD34
:103860002E12286C79008014E50B7003750B0A8505
:103870001482851583EEF0A3EFF0A90B74021216E3
:10388000047F0E021735850A0E7401250EF5827429
:10389000033400F583223400F511851082F583226C
:1038A00012C5232274EE12166374FE1215EE8C10EC
:1038B0008D11EA2405F50EEB12B4B4750D009002DB
:1038C000FFE4F0F50CEA2402F50AEB3400F50B8076
:1038D000499002FFE0FA9002E8E0F812B9D5941797
:1038E00012B9CD400D9002FFE0F87416C398900213
:1038F000E8F012B9DE1218767CE97D0274002AFA2B
:1039000074033400FB12339A74021216049002E816
:10391000E0F89002FFE028F0050CE50E2416F58291
:10392000E50F12B891E0F8E50CC398400302B9B670
:103930009002FFE0C39416507DE50CC333F8E433E6
:10394000F9E50E28FEE50F39FF851A82851B83AC49
:1039500082AD838E828F8312BD2E122B008A128B32
:1039600013AC12AD13EC4D7005750D018043E4F5F9
:1039700012F51378121218767512E8751302781280
:103980001218767512E975130278121218767406F9
:1039900012165712188D7916850A82850B8312BD6F
:1039A0002E122C207408121604E9F50D700302B8CB
:1039B000D112BF8F80107CFF7D02850A82850B8328
:1039C00012BD2E12287EA90D740202BE8AE994004F
:1039D000C365D03322EA28F8E43400F9E822E0F5A0
:1039E0001275130078122274EA12166374FC121511
:1039F000EE8A0E8B0F8C148D15EA2405F50CEB1254
:103A0000BF83750A00750B00E50C2402F512E50D65
:103A10003400F513740212165785821085831178CD
:103A200010121876850C82850D83A3A3A3A312C45C
:103A3000CF121876E50C2405F510E50D3400F511CC
:103A4000781012187685128285138312BF8912BDF1
:103A500028122AFA74061216048A108B11AE10AFBF
:103A600011E50E2402F510E50F3400F511804088B1
:103A700082898374FFF0050A12B88674FFF0050A84
:103A80009002E8E0F50E750F00780E1218767CE9CA
:103A90007D02850A0E7401250EFA74033400FB12B0
:103AA000339A74021216049002E8E0250AF50AEE31
:103AB0004F60718E828F83A3A3A3E0F98510828566
:103AC000118312BD2E122AE8E9F50BEE240412B47C
:103AD000B1E97044E4F516F51778161218767516E4
:103AE000E875170278161218767516E975170278B8
:103AF00016121876740812165712188D7911EEFCEA
:103B0000EFFD85108285118312BD2E122C207408C2
:103B1000121604E9F50B6027850E82850F8312BC0F
:103B20000F12BF9CE50A700302BBF512BC19851089
:103B30008285118312BD2E122884790002BC0A8569
:103B40000A82AA82EA9002E87009E0240490030045
:103B5000F08022E0F8900300E0F516E82404FCE48D
:103B60003400FDEC65167001ED70C012B9D59412E9
:103B700012B9CD50B6850E82850F83E0C0E0740186
:103B80002A12B88DD0E0F0050A850E82850F83A336
:103B9000E0C0E012B886D0E012BC2B85820E85838F
:103BA0000F780E121876740412165712188D85129B
:103BB0008285138312C7F6122B0674041216048A28
:103BC0000E8B0FAE0EAF0F850A0E7401250EF87422
:103BD000033400F9EE4F700302BA6F851A82851B19
:103BE00083E08882898312BC2BA3E0C0E012B886F0
:103BF000D0E002BA7DE50B7003750B0A850C828557
:103C00000D8312BC0F12BF9CA90B740402B87E1264
:103C1000C7E585148285158322900300E0F5F0E561
:103C20000A849002FFF07CFF7D0222F0050A851ACB
:103C300082851B832274EC12166374FE1215EE8AC1
:103C40000A8B0B8C108D11EA2405FEEB3400FF85E6
:103C50001A82851B83AC82AD838E828F8312BD2E28
:103C6000122B008A0C8B0DEE241812B4B1EA450D0C
:103C7000700302BCFF12BE715032851A82851B830D
:103C800012BD2E122C148A128B13EA4513606B7925
:103C900012AC0CAD0D850A82850B8312BD2E8512E8
:103CA00082851383121661E9F50C7058E4F50CF562
:103CB0000D780C1218768E828F83A3A3E0F50C7812
:103CC0000C121876EE240312BF80780C1218768E30
:103CD000828F8312BD38122C267406121604E9F561
:103CE0000C7021850E82850F83E0701F850A828506
:103CF0000B8312BD2E12288A8011750C0E80097557
:103D00000C018004E50C600312BF8F850E82850FC5
:103D100083E0600479008002A90C74021216047F0B
:103D20000C0217357CFF7D02850C82850D8312BD48
:103D30003222E0FAA3E0FB22E0FCA3E0FD850A8248
:103D4000850B8312BD322274EE12166374FE1215B7
:103D5000EE8A0A8B0B8C0E8D0FEA2405FEEB3400E5
:103D6000FF751000851A82851B83AC82AD838E821D
:103D70008F8312BD2E122B008A0C8B0DEA450D701D
:103D80000302BE5D12BE715035851A82851B8312F7
:103D9000BD2E122C148A108B11EA4511605E791227
:103DA000AC0CAD0D850A82850B8312BD2E85108269
:103DB000851183121661E9F510600302BE60850A61
:103DC00082850B8312C077AA0CFB122C088A128BF7
:103DD00013A812A913E849701E7AFF7BFF122C0862
:103DE0008A128B13A812A913E849606C8882898310
:103DF000E50CF0A3E50DF0750C00800775100E8042
:103E00005F050C9002E5E0FAE50CC39A504AE50C18
:103E100075F017A4FAABF088828983A3A3E02AFA8D
:103E2000A3E03BFB8A828B8312BF89EC4D70D27575
:103E30000C17750D00780C121876EEFCEFFD12339E
:103E40009A7402121604EEFCEFFD850A82850B833C
:103E500012BD2E1228908014751009800375100170
:103E600012C7DD850E82850F8312BF9CA91002B98F
:103E7000C8E50A2402F50AE50B3400F50B8A828BAB
:103E800083A3A3A3E0A2E52274041216047F0A020E
:103E9000173574EC1216638C128D13EA2405F50E97
:103EA000EB12B4B4751100EA2402F50CEB12BF83D7
:103EB000850C82F58312BD2E122C088A0A8B0BEA20
:103EC000450B700302BF757510008071850E8285E9
:103ED0000F83E06401704F8E828F83A3A312188D2D
:103EE0008E828F83A3A3A3A3E0F514751500781425
:103EF000121876EE2405F514EF3400F51578141237
:103F0000187612BD28122C267406121604E9F51133
:103F10006014850E82850F83E4F012C7DD8512825E
:103F200085138312BF9C7C177D007900EEFAEFFBAE
:103F30001233B28E828F83E4F0A3F005109002E575
:103F4000E0F8E510C398501EE51075F017A4F8A925
:103F5000F0850A82850B83A3A312C96A12BF89EC7C
:103F60004D600302BECC850A82850B8374FFF0A3EB
:103F7000F0E511700612BD28122896A91102BD1F86
:103F8000F50CEF3400F50D22A3E0FCA3E0FD228E3A
:103F9000828F8312C7E5851082851183E8F0A3E93B
:103FA000F022C082C0839002E1E06A7003A3E06B5C
:103FB00070067AE17B0280047A007B0002B28FC037
:103FC00082C08378008C828D83E06A7003A3E06BEB
:103FD0007010E875F003A4F8A9F0EC28FAED39FBAD
:103FE0008015088C828D83A3A3A3E06A7003A3E0ED
:103FF0006B60DF7A007B0002B28F74F612166312D8
:104000002BD28A828B83E582458370067A007B00FF
:104010008007A3A3A3A312BD2E02C68E74F21216AC
:1040200063E9FE740E12165712C0777410121657F9
:1040300012C4EF8C828D83E064027036A312C7EB4A
:10404000F50EA3E0F9A80E74026870037429697074
:1040500021750E02750F00780E121876780A121864
:1040600076780C121876EEF9122C4A7406121604A1
:104070008002790102C712E0F50CA3E0F50D22746D
:10408000E812166374FB1215EEE9851A82851B830C
:10409000F08A188B19ECFEEDFF751200741D1216D4
:1040A0005712C7E1741D12165712BF9C8E828F8360
:1040B000A3A3A3E0A2E4502D741D12165712BD2E27
:1040C000122C148A828B83E5824583700302C4C05C
:1040D000790AEEFCEFFDAA18AB19121661E9F51288
:1040E000600302C4C3741F12165712C4EF74211266
:1040F000165712C0777423121657E0F510A3E0F597
:10410000118E828F83E06402600302C46EA312C723
:10411000E1850A82850B83A3858214858315EE24AD
:104120000612B4B188828983E0FAA3E0F9EA240098
:10413000F516E439F5177816121900010000280168
:104140002863C10700022828C2032895C100295FFF
:10415000C301298AC302292BC303295FC304290988
:10416000C46EC4E5104511600302C469850E8285E2
:104170000F8312C4E4FAE9FB8A828B83E0850C8208
:10418000850D8312C51A1218768A828B83A3E0FCF0
:10419000A3E002C3F3E5104511600302C469850C76
:1041A00082850D837401F012C4F7850A82850B8322
:1041B000F07C007D008E828F83A3A3A3A3E0240163
:1041C000FAA3E03400FB122B00EA4B60418A828B99
:1041D00083E02402F8850C82850D83E028F0EA2430
:1041E00004F8EB3400F988828983E0851482851510
:1041F0008312C52C12C51A1218768A828B8312BFBD
:1042000088E50A2403FAE50B3400FB02C3F8850CA9
:1042100082850D83E02404F07C047D007900AA14DB
:10422000AB151233B202C4C3E5104511600302C4DA
:104230006912C4F7FEA3E0FF850C82850D83740428
:10424000F0EE850A82850B83F0EF85148285158355
:10425000F07403121657AC82AD83EEFAEFFB122B0B
:10426000008A0E8B0FEA450F700302C30C8A828B03
:1042700083A3A312B13A7401121657858210858365
:10428000117810121876740512165712188D7CFFCB
:104290007DFF122B0674041216048B11EA4511706F
:1042A00033850E82850F8312C4CF121876850E8255
:1042B000850F83A312188D7C027D007AA87B831260
:1042C00029327404121604E9700A74011216577424
:1042D000FFF0A3F08E828F83E064027039750E02C6
:1042E000750F00780E1218768E828F8312BF88E5C4
:1042F0000A2404FAE50B3400FB12339A74021216F6
:1043000004850C82850D83E0240280097401121655
:1043100057EEF0A3EFF0740112165712C4E0F074D8
:1043200001121657A312C4D802C463E510451160E8
:104330000302C469850E82850F8312BF89AA18AB58
:1043400019122C3E850C82850D837402F0EA850AD1
:1043500082850B83F0851482851583EB02C466E5A4
:10436000104511600302C46912C4F7F8A3E0F9858F
:104370000C82850D837402F0E8850A82850B83F038
:10438000E985148285158302C466850E82850F83B4
:1043900012BD2E123394EAFC8C82A882C39510E4DD
:1043A0009511405FE865107002E51170047C008093
:1043B00022851A82851B83E0FAE5102AFAE511347A
:1043C00000FBC3EA98EB94005003E08005E510CCB5
:1043D000C39CFCEC850C82850D83F08C0C750D0064
:1043E000780C121876850E82850F83E02510FCA3C9
:1043F000E03511FDAA0AAB0B12339A7402121604AF
:1044000002C4C375120702C4C3E5104511705A8572
:104410000E82850F8312C7E1850C82850D83740798
:1044200012B14612C4D812B146A3E0851482851594
:1044300083F0E82402FAE93400FB8A828B8312C4F9
:10444000D812C50712C4E0A312C51012C4E9F0E8DF
:104450002405F8E93400F98882898312C4E9A3129B
:10446000C52CA3A3A3A3F0805A75120B8055741D0D
:1044700012165712BD2E122BD28A828B83E58245EB
:1044800083603D12C7E1880E890FE8450F603178DF
:1044900010121876780C121876780A1218767406AC
:1044A000121657E0F9EEFCEFFDAA18AB19850E8243
:1044B000850F831216617406121604E9F512800343
:1044C00075120EA91274051216047F10021735E03A
:1044D000F510751100781022E0850A82850B832281
:1044E00012C5362212C7E5E82212C536A3A322E080
:1044F000F50AA3E0F50B22850E82850F83E0F8A371
:10450000E0F5838882E022A3A3F08A828B83A32232
:10451000F088828983A3A3A3A322F08A828B8312CB
:10452000C52322E0F50C750D00780C22F0888289F5
:1045300083A312C53622E0850A82850B83A3A322BA
:1045400074EE12166374FE1215EE8A0C8B0DECFAE3
:10455000EDFB7414121657E0F512A3E0F513741670
:10456000121657E0FE7418121657E0F510A3E0F586
:1045700011851A82851B83AC82AD83122B008A0EB3
:104580008B0FEA450F6049851A82851B8312BD2E69
:10459000122BD28A828B83E5824583602FA3A312DC
:1045A000C4EFE50A450B60247810121876781212D1
:1045B0001876EEF9AC0EAD0FAA0CAB0D850A82850C
:1045C0000B8312166174041216048006790E8002A1
:1045D000790102B9C874F612166374FE1215EE74EE
:1045E0000C12165712C4E4851A82851B83F07401DD
:1045F000121657E9F0E4F50AF50B780A12187675E9
:104600000A02780A121876740412165785820A85EF
:10461000830B780A121876122C267406121604746C
:1046200002121604806874F7121663EAFEEBFF8923
:104630000A7C187D03122C3EEA5402600BA90AEE94
:10464000FAEFFB122AF48002790102B04274F612EA
:10465000166374FF6A700374FF6B70168C828D830F
:1046600012C693E4F08C828D83A3A3A312C693A3F6
:104670008018122C0E8A0A8B0BA80AA90BE8496035
:104680000D8882898374FF12B144A3A3E4F07F02F2
:1046900002173574FFF0A3F08C828D83A3A32274DC
:1046A000F6121663122C0E8A828B83E58245836094
:1046B00006A3A3E0FA80027A007B0080D174F21294
:1046C00016638A0A8B0BECFEEDFF740E121657E090
:1046D000F50C122C0E8A0E8B0FA80EA90FE849704C
:1046E00026EEFCEFFD7AFF7BFF122C0E8A0E8B0F5D
:1046F000A80EA90FE8497004791180168882898371
:10470000E50AF0A3E50BF088828983A3A3E50CF00A
:1047100079007F0602173574EE121663EAFEEBFF8E
:104720008C0A8D0B890E741412165712C7E1741679
:1047300012165712BD2E750F00E849600302C7D547
:104740007402650E600302C7D0741212165712C7A6
:10475000EBFCA3E0F9EC2400F510E439F511EAF4E0
:10476000F8EBF4F9EC58F8E51159F9E849705CE513
:104770000A2406F8ED3400F9880C890D8882F58347
:1047800012C7F6122C3E8A128B13E51065127004C4
:10479000E511651360427810121876850C82850D3C
:1047A0008312C7F6122C447402121604E9F50F7036
:1047B000277810121876850A82850B83A3A312C767
:1047C000F4122C5C7402121604800D750F808008A0
:1047D000750F0D8003750F0BA90F02BE8D8E828F92
:1047E0008312C7E522E0F8A3E0F92212C7E5888228
:1047F0008983E022A3A3E0FCA3E0FDEEFAEFFB2215
:1048000074E812166374E71215EE851A82851B830D
:10481000EAF0A3EBF08C188D198910750A00750B5E
:10482000007431121657E0F514A3E0F51574331235
:104830001657E0F516A3E0F5177435121657E0F594
:1048400011E50B75F003A4F8A9F0851A82851B8386
:1048500012C96AE0F47003A3E0F4700302C94DEEDC
:104860002402F50EEF12C960E0700302C94D8518ED
:104870000C85190D780C121876AC16AD17AA14AB6E
:1048800015122BC674021216048A0C8B0DEA450D04
:10489000700302C94DE4F512F513781212187674FC
:1048A00006121657858212858313781212187674B1
:1048B000091216578582128583137812121876858D
:1048C0001482851583A3A3A3A312188D7914AC0CAD
:1048D000AD0D8E828F8312BD2E122C2074081216FD
:1048E00004E97069850C82850D83A3A3A3A312C775
:1048F000E1740212165712BF9C850E82850F83E069
:10490000A2E05018A9107402121657AC82AD838E23
:10491000828F8312BD2E122B18E9420A850E8285E2
:104920000F83E0A2E15026E511F50C780C12187AFD
:10493000A9107403121657AC82AD838E828F831236
:10494000BD2E122B127401121604E9420A050BE562
:104950000BC39402500302C841A90A741902C4C7C8
:104960003400F50F850E82F58322E028FEA3E0399E
:10497000FF8E828F832274F2121663EAFEEBFF89A8
:104980000D7401650D600E7402650D706A79011277
:104990002E1EE97062EEFAEFFB122C088A0A8B0BCE
:1049A000EA450B6047750C00800B7C177D00790091
:1049B0001233B2050C9002E5E0F8E50CC3985021E3
:1049C000E50C75F017A4F8A9F0850A82850B83A37E
:1049D000A3E028FAA3E039FB8A828B8312B2967097
:1049E000C9850A82850B8374FFF0A3F07C187D03D0
:1049F000EEFAEFFB122C3802C71274F21216638A19
:104A00000A8B0BECFEEDFF740E12165712C0779056
:104A10000A68E0F4603D7A097B001233C4EA4B6017
:104A2000328A828B8374B1F0A3E412C509A312C544
:104A300007A3E50AF0A3E50B12CA56EEF0A3EF12A6
:104A4000CA56A3A3E50CF0A3E50DF0900A68E0F9BF
:104A50001233D002C712F08A828B83A3A3A3A3A32D
:104A600022C082C0839061907404F0A37448F0A3C4
:104A70007402F09061807440F09061BC7403F09017
:104A800061877419F0906265741BF0906249E0C30D
:104A9000941390619C400A7409F0906066740180E0
:104AA00007740DF0906066E4F090619A7433F0A39F
:104AB0007455F09061A0743AF090053EE064017086
:104AC00009C2919003A5746780059003A57461F0F5
:104AD000903842E493906186F0903844E493F46017
:104AE00027E493540FF8906185E0686012E5C6549E
:104AF000804449F5C6E59E547F644970F8E8F05358
:104B0000C680E59E547F70FA790512317E02CCBCD6
:104B1000C082C083E9540FF9906185E0696012E5B5
:104B2000C654804449F5C6E59E547F644970F8E94F
:104B3000F053C680E59E547F70FA02CCBCC082C0A0
:104B400083E5A8F853A87E906181E4F0A3F0A3F078
:104B5000C2BA539AFEC289759B00C2C275E900753C
:104B6000910075BF0075A91175B905906181F0A319
:104B700074C0F0A3E4F0D2BA439A0174805842A8FA
:104B800002CCBCC082C08374F81215EE9003A3E07F
:104B9000F8A3E0F9E849700302CCB19003A3E05414
:104BA0004060237908851A82851B83AA82AB831211
:104BB0002FE0851A82851B83AA82AB83122CCE90AC
:104BC00003A3E054BFF0E054806010790C7A647B5A
:104BD00005122FE09003A3E0547FF0E0A2E05031F3
:104BE00090619A7433F0A37455F09061A0743AF018
:104BF00090053EE064017009C2919003A57467803E
:104C0000059003A57461F0122CD49003A3E054FE28
:104C1000F0E05402603190619A743FF0A3745AF04E
:104C20009061A0747FF090053EE064017009D2911C
:104C30009003A5747180059003A5746AF0122CD4BA
:104C40009003A3E054FDF0E054046013903840E476
:104C500093906186F0122CDA9003A3E054FBF0E00D
:104C600054086013903841E493906186F0122CDA76
:104C70009003A3E054F7F0E054106013903842E43E
:104C800093906186F0122CDA9003A3E054EFF0E0E9
:104C90005420600A122CDA9003A3E054DFF0A3E062
:104CA0005401600D122F08122CE09003A4E054FE72
:104CB000F0740812160402CCBCF0A3F0D083D082AA
:104CC00002129074EC12166374F41215EE851A82B7
:104CD000851B83AC82AD83758383758262740412F5
:104CE000150190384093F4600302CE4F907808E0AD
:104CF000C39402500302CE2F7404121657AC82AD37
:104D0000837583827582A77408121501851A8285BE
:104D10001B838582148583157404121657AC82ADEB
:104D2000837510FF7511FF7FFF7E00750E48750FAC
:104D300078801574086E700302CDC374096E700319
:104D400002CDC3740A6E607B850E82850F83780A5C
:104D50001214BE8C828D83A90BE50CC9F8881274DD
:104D600018780A1213ECE512450AF8C3E098A3E09C
:104D700099850E82850F83780A1214BE40188C82A2
:104D80008D837418780A1213ECE512450AF8E0C313
:104D900098F8A3E0801C7418780A1213ECE5124509
:104DA0000AFAE9FB8C828D83E0F8A3E0F9EAC39864
:104DB000F8EB99F9C3E89510E99511500688108928
:104DC00011EEFF0EE50E2404F50EE50F3400F50F8D
:104DD000EEC39413500302CD3374FF651070047456
:104DE000FF651160238F0A7402780A1215DB74487C
:104DF000250AF5827478350BF583780A1214BE857E
:104E00001482851583E50AF0EC2402FCED3400FDE4
:104E1000851482851583A3858214858315740C12ED
:104E20001657E5826C7003E5836D600302CD217532
:104E30000A01750B00780A1218767402121657AC24
:104E400082AD837A107B0E12360A74021216047435
:104E50000C1216047F0C021735C082C0839061AE1D
:104E60007468F0A3746AF090624574FBF0A304F0D8
:104E700053F4FD43FE0290053E7401F09061A0E002
:104E8000643A90619A70237433F0A37455F0906182
:104E9000A0743AF0740164017009C2919003A57482
:104EA0006780289003A574618021743FF0A3745A31
:104EB000F09061A0747FF0740164017009D2919048
:104EC00003A5747180059003A5746A02CCBB7F08AA
:104ED000021735C082C0839004F0E06401700A902C
:104EE00004F5E06004790C8002790002CCBCC08239
:104EF000C08375E1F19004F3E0605B146009146015
:104F00005F14605714705E122F1A9004E9E0F97A6A
:104F1000EA7B041231007AD67BBE7C897D8E123109
:104F2000367A557B557C557D0012310C9004F4E0A7
:104F3000F912311879011231729004E7E0F8A3E018
:104F4000C82416F582E83400F5837432F0A3742F78
:104F5000F0790002CCBC122F2080AF122F2680AA3D
:104F6000122F2C80A5791280EA74F012166375D97D
:104F70000D9004D4E0A2E0E4331313F89004E9E0C8
:104F8000C4333354C0484401F5D978E779048882A2
:104F90008983A3A3A3E0F5D988828983A3A882A9E2
:104FA00083E864ED7003E9640470E378D4790488DD
:104FB000828983A3E0F5D988828983A3A882A98303
:104FC000E864DA7003E9640470E575E1959004D44F
:104FD000E0F97AD57B04123106900A8A74C6F0A3F0
:104FE000742EF0A37428F0A37430F0A37428F0A3F7
:104FF0007430F0A37428F0A37430F0A374CCF0A341
:10500000742EF0A37428F0A37430F0A374E4F0A31A
:10501000742EF0900A987428F0A37430F0A37428CA
:10502000F0A37430F0A37428F0A37430F0A37428B4
:10503000F0A37430F0A37428F0A37430F0A37428A4
:10504000F0A37430F09004F3E064019004E7701270
:10505000E0F8A3E0F5838882A3A3750A00750B0826
:105060008010E0F8A3E0F5838882A3A3750A047595
:105070000B00750C00750D00780A121437750EFFC1
:10508000750FFF7510FF751100780A790E121485DF
:105090009004E7E0F8A3E0C8240EF582E83400F5B8
:1050A00083780A1214CD9004E7E0F8A3E0C8241432
:1050B000F582E83400F5837413F09003A17402F0D4
:1050C00002CECE74F71216639004F9E02407F5D9E6
:1050D0009004E9E0C4333354C0F5D978E779048803
:1050E000828983A3A3A3E0F5D988828983A3A882B8
:1050F000A983E864ED7003E9640470E39004F9E0C7
:10510000601F78E77904FAE82413F582E93400F5A2
:1051100083E0F5D988828983A3A882A9831AEA70DB
:10512000E6900519E02407F5D99004E9E0C433338B
:1051300054C04404F5D978E7790488828983A3A30D
:10514000A3E0F5D988828983A3A882A983E864EDC6
:105150007003E9640470E3900519E0601F78E77953
:1051600004FAE82433F582E93400F583E0F5D988C0
:10517000828983A3A882A9831AEA70E675E19590D3
:105180000A8A74D2F0A3742EF0A37428F0A37430AA
:10519000F0A37428F0A37430F0A37428F0A3743043
:1051A000F0A374CCF0A3742EF0A37428F0A3743091
:1051B000F0A374E4F0A3742EF0900A987428F0A37E
:1051C0007430F0A37428F0A37430F0A37428F0A313
:1051D0007430F0A37428F0A37430F0A37428F0A303
:1051E0007430F0A37428F0A37430F09004E7E0F872
:1051F000A3E0C8240EF582E83400F58374FFF0A321
:10520000F0A3F0A3F09004E7E0F8A3E0C82414F5BD
:1052100082E83400F5837412F09003A17401F0FF6A
:1052200002173574F71216639004F9E02407F5D9D4
:105230009004E9E0C4333354C04402F5D978E779E7
:105240000488828983A3A3A3E0F5D988828983A3F4
:10525000A882A983E864ED7003E9640470E3900414
:10526000F9E0601F78E77904FAE82413F582E9345D
:1052700000F583E0F5D988828983A3A882A9831ADF
:10528000EA70E675E195900A8A74DEF0A3742EF058
:10529000A374DEF0A3742EF0A374DEF0A3742EF0DA
:1052A000A374DEF0A3742EF0A374DEF0A3742EF0CA
:1052B000A374DEF0A3742EF0A374E4F0A3742EF0B4
:1052C000900A987428F0A37430F0A37428F0A374A3
