:020000040000FA
:0600000002010A022207C2
:03002B0002266149
:03003B0002268218
:030043000226157D
:0300530002227A0C
:03006B0002263B2F
:10008300022073E5C754F84401F5C7790122000043
:100093000080FB120086B900030200F4E4792178A2
:1000A30008B800028004F709D8FCE479297802B87B
:1000B30000028004F709D8FCE4900281783E790AB3
:1000C3008002F0A3D8FCD9FA900BBEAA82AB83902E
:1000D300013A783F79048015E493A3AC82AD838A17
:1000E300828B83F0A3AA82AB838C828D83D8E9D9D8
:1000F300E775828C7583B0740312011C7582917548
:100103008300740012011C75D00075813F7518813E
:10011300751902759F00020096C09FF59FE473D086
:100123009F22D083D082C09FE493C0E0740193C028
:10013300E0740293F59F22FF0000B400002800281A
:1001430000283075A000A000A000A000000800084F
:10015300E001F0001000100010001000100010006B
:1001630050005000500010001000D00700000000A5
:1001730000000F00010005003075070010000100AA
:1001830081FF00000000FF760694067C06FF020252
:100193000208025000A0000000E803028F83010060
:1001A300003783027B83010000150C027583010075
:1001B30000B302027B83010000160C02738301006B
:1001C30000C902027B83010000170C027183010046
:1001D30000CB02027B83010000180C02638308003A
:1001E30000CC02027B83010000190C026183010031
:1001F300001A0CFF0100FF20028F830100003483EB
:10020300027B830100007E0C025983000000000082
:100213000277830300001903460C460C460C460C78
:10022300460C460C460C460C460C460C460C460C3B
:10023300460CC80EE00EC20EFFFF49020003041273
:1002430064028F830100004383027B83010000C6A5
:100253000C025B83010000C70C0277830300006775
:1002630007020202020202020202010D0000001054
:1002730001028F830100004083027B83010000E8B9
:100283000C0255830100006D07027B83010000E926
:100293000C0251830100004782027B83010000EAC4
:1002A3000C024F830100001082027B83010000EBEC
:1002B3000C024D830100006D81027B83010000EC81
:1002C3000C024B830100004981027B83010000ED96
:1002D3000C027F830100002581027B83010000EE75
:1002E3000C0285830100005B81027B83010000EF28
:1002F3000C0287830100001E82027B83010000F051
:100303000C025F83010000F10C01E803053F100AB2
:10031300FF0012028F830100004683027B830100EA
:1003230000990D0249830100002A0A027783030022
:10033300002B0A01307503020106000000000000D3
:1003430000000000000000000000000000000000AA
:10035300000000000000FFFF0600800CE80309090D
:100363005465704865617441051214001400020A53
:10037300000201050302F0FF546570486561744192
:1003830000000000000000000000000000901300C7
:100393000096130A436861726163746572697374CA
:1003A3006963203100024368617261637465726935
:1003B300737469632032001A436861726163746500
:1003C30072697374696320330010436861726163F7
:1003D30074657269737469632034000243686172DF
:1003E30061637465726973746963203500028F8376
:1003F3000100003D83027B830100001A0E028B8300
:10040300030000890B0279830100001B0E027B832A
:100413000100002C0E028D830100009D0B027983E5
:100423000100002D0E027B830100003E0E026F834C
:100433000300009E0B0279830100003F0E027B83C1
:10044300010000500E026D83000000B20B0277839F
:10045300030000B30B027983010000510E027B837A
:10046300010000620E026B83040000B90B02798362
:10047300010000630E120125E39F03120125FA9F79
:10048300031201252BA00312012566A003120125E7
:1004930090A003120125BAA003120125D1A00312D3
:1004A3000125E8A003120125FFA00312012528A1BD
:1004B300031201253BA10312012551A103120125BA
:1004C30064A1031201258BA103120125A3F50112D7
:1004D3000125A7F601120125DFF60112012502F716
:1004E300011201250DF70112012530F70112012533
:1004F3003FF80112012514F9011201258FF90112A8
:10050300012517FA0112012552FA0112012589FA70
:100513000112012517FB01120125F0FB0112012530
:1005230050FC011201255BFC01120125DAFC0112CA
:100533000125DDFC01120125E0FC011201256FFDFF
:100543000112012572FD01120125A2FD01120125EF
:10055300CCFD01120125BAFE011201256CFF011227
:1005630001253CE80212012564E80212012592E804
:1005730002120125C9E80212012527E90212012509
:1005830072E902120125BDE902120125FDE90212F9
:10059300012543EA0212012571EA021201252EEB1D
:1005A3000212012538EB0212012545EB0212012547
:1005B30078EB0212012544EC0212012550EC0212E1
:1005C300012568EC0212012572EC021201251BAB16
:1005D3000312012529AB0312012541AB03120125A7
:1005E30059AB0312012518BC01120125C4BC011229
:1005F30001253FBD0112012560BE011201259CBEEC
:100603000112012545BF011201252CC0011201254C
:1006130090C101120125E7C10112012568C201122F
:10062300012558C301120125A5C3011201252BC4BD
:10063300011201255DC40112012571C601120125B4
:10064300B3C601120125D1C60112012554C70112F7
:10065300012528C801120125F0C801120125F2DB8A
:1006630002120125C5DC021201256EDD02120125ED
:10067300C1DD0212012571DE02120125FDDE021227
:100683000125E9DF0212012518E0021201252BE101
:100693000212012573E10212012548E2021201252B
:1006A30084E202120125A0E2021201258FAE031299
:1006B3000125CF8303120125E583031201250B8452
:1006C3000312012527850312012531850312012514
:1006D3006686031201255E870312012515E30212C4
:1006E300012545E40212012578E402120125C2E442
:1006F3000212012589E602120125C66E00120125A8
:10070300306F001201258F70001201259F700012B7
:100713000125CC7000120125237100120125CC7133
:1007230000120125D372001201259D7300120125C9
:10073300FD7400120125407500120125E5750012B4
:1007430001253276001201255876001201256678BC
:10075300001201256B7800120125707A0012012521
:10076300BD7A00120125307B00120125637B001244
:100773000125057C00120125AE7C00120125E67CD3
:1007830000120125E97C00120125317D00120125AB
:10079300717D00120125C87D00120125FF9303120C
:1007A30001251794031201255F9403120125759403
:1007B30003120125BC9403120125D09503120125D0
:1007C3005D9603120125A89603120125F426001253
:1007D30001250027001201253B2700120125802750
:1007E30000120125402800120125C6280012012508
:1007F3002B290012012557290012012590290012E7
:100803000125CE2B00120125B22D00120125982FB0
:1008130000120125DB3000120125293300120125C6
:100823003B3400120125863500120125963600124D
:100833000125B33600120125EE36001201251037CB
:1008430000120125733700120125343C00120125E3
:10085300C93C001201251A3D00120125413D001239
:100863000125933D00120125B13D001201250B3EE8
:1008730000120125F43E001201256A4000120125F1
:10088300EE4000120125F9EC0212012503ED0212DC
:10089300012546ED0212012561ED02120125F1ED5C
:1008A3000212012519EE0212012556EE021201254C
:1008B3008DEE02120125B6EE021201252BEF021274
:1008C300012540EF0212012555EF0212012586EFA3
:1008D300021201259AEF02120125BFEF0212012530
:1008E300F9EF0212012525F0021201255DF0021233
:1008F3000125DCF00212012525F1021201254FF139
:10090300021201257AF1021201253FA603120125E5
:10091300E99A02120125179B02120125659C021216
:100923000125459D02120125649D02120125E19DC9
:1009330002120125249E021201257A9F021201252B
:100943003BA002120125C2A20212012563A30212D7
:10095300012559A40212012556A502120125B0A6AC
:10096300021201253BA702120125E4A4031201256B
:100973004DA503120125A1A503120125C8A5031244
:100983000125F9A503120125A2F1021201250FF297
:100993000212012556F2021201256EF302120125FD
:1009A3006AF4021201254DF50212012574BB0212ED
:1009B3000125B6BB0212012588BC0212012561BDC7
:1009C300021201255BBE021201253DBF0212012561
:1009D300A6BF021201255CC002120125D0C002127B
:1009E30001253CC10212012565C102120125DFC1A7
:1009F3000212012578C202120125DDC2021201256D
:100A0300F2C20212012538C30212012551C3021298
:100A13000125B6C302120125B9C3021201251B8E9B
:100A230003120125438E03120125818E0312012532
:100A33003F8F03120125A68F03120125C28F0312D4
:100A43000125EA8F031201251A900312012529902B
:100A530003120125A69003120125CC900312012550
:100A6300B6AC0112012594AE01120125C6B00112E4
:100A7300012502B1011201252FB10112012519B27D
:100A83000112012564B201120125AFB20112012541
:100A9300C1B20112012501B30112012536B30112BE
:100AA300012584B301120125B3B301120125D6B385
:100AB3000112012523B401120125A8B40112012555
:100AC300C2B60112012501B90112012542B9011271
:100AD3000125E4BA0112012525BB0112012598BBAA
:100AE30001120125EEBB01120125D48D021201254D
:100AF300D28E021201256B95021201258C970212E8
:100B03000125579902120125BF9A02120125554169
:100B1300001201250442001201254A420012012558
:100B23008A43001201252045001201259A4500122F
:100B33000125B545001201253046001201258A47DB
:100B430000120125EA4800120125F049001201258F
:100B5300514B001201256A4B00120125C84B0012AC
:100B63000125B64C00120125E94C00120125594D0F
:100B730000120125D34D001201251D4E001201253F
:100B8300E74E00120125BC4F001201259B500012B5
:100B93000125265100120125945100120125085206
:100BA30000120125335200120125F25200120125D1
:100BB3005754001201257454001201259354001256
:100BC3000125845500120125A95500120125D3558D
:100BD300001201254E5600120125A85600120125C8
:100BE300115800120125BF580012012500590012A7
:100BF30001250080021201254E80021201255A8030
:100C03000212012538810212012569810212012590
:100C13009A81021201251A820212012552820212BE
:100C23000125A48202120125E18202120125FE841C
:100C3300021201252487021201250F8902120125C0
:100C4300F98A02120125F87F00120125A3980112E7
:100C53000125D39801120125AC9F0112012531A171
:100C6300011201252EA70112012516A80112012543
:100C730053A80112012576A801120125A7A8011284
:100C83000125B0A801120125BAA801120125A8A9BE
:100C9300011201259EAA0112012594830112012547
:100CA300938701120125998701120125D48E011220
:100CB3000125ED9301120125D48A03120125CE8B60
:100CC30003120125428C03120125808C0312012596
:100CD300F48C031201256D8D03120125768D031209
:100CE3000125828D03120125978D03120125D58DD0
:100CF30003120125EB8D031201250FF602120125C4
:100D03001CF60212012536F60212012575F60212AF
:100D13000125B3F60212012518F7021201252DF75A
:100D23000212012538F70212012545F702120125A7
:100D33005CF7021201256AF70212012575F7021208
:100D4300012581F70212012590F7021201259BF775
:100D530002120125BEF70212012565F802120125D0
:100D630075F8021201258FF802120125ACF8021260
:100D73000125C8F802120125EDF802120125F8F841
:100D8300021201250DF90212012521F90212012592
:100D930082F90212012588F9021201258EF9021245
:100DA300012594F902120125ACF902120125DFF99C
:100DB300021201257AD901120125FED9011201255A
:100DC300ADDA011201250CDC011201252DDE011221
:100DD300012519DF011201254EDF0112012570DF04
:100DE300011201251FE00112012517E2011201255D
:100DF30040E201120125D2E20112012504E30112AE
:100E0300012511E30112012568E3011201258EE397
:100E130001120125FBE501120125FEE60112012560
:100E230056E70112012509CB0112012513CC01124A
:100E33000125FACC0112012504CD0112012526CD8D
:100E43000112012532CD01120125CBCE011201255C
:100E5300FACE0112012516D0011201256FD001121D
:100E63000125D5D101120125B4D20112012510D3D8
:100E7300011201257DD301120125B8D301120125E9
:100E8300F7D301120125B0D601120125CAD60112EA
:100E9300012556D70112012564D701120125BDD7BB
:100EA30001120125CBD7011201253ED801120125DC
:100EB300A2D801120125ECD801120125BCA7021208
:100EC3000125DEA70212012504AA0212012519AD8C
:100ED3000212012531AE02120125E4AE02120125F0
:100EE300C6AF021201259DA103120125C2A103125F
:100EF300012534A20312012578D40212012581D4DD
:100F0300021201258AD40212012561D5021201259C
:100F130012D70212012548D70212012582D70212E5
:100F23000125B8D702120125F2D70212012526D8CE
:100F33000212012552D8021201259BD80212012563
:100F4300D5D8021201251ED90212012576D9021223
:100F53000125ABD90212012506DA0212012540DA76
:100F63000212012591DA02120125C7DA02120125C4
:100F730001DB021201252FDB0212012552DB0212D3
:100F83000125B3AC03120125DFAC031201253AADF1
:100F93000312012544AD0312012554AD03120125AB
:100FA300DDC302120125E7C30212012525C4021283
:100FB30001256EC402120125A8C40212012502C52F
:100FC3000212012523C502120125FBC702120125C6
:100FD30004C80212012551C8021201257AC802125F
:100FE300012584C802120125F0C80212012582C915
:100FF30002120125CCC90212012502CA02120125DF
:101003008ECA02120125CFCA0212012506CB021293
:10101300012518CB0212012537CB0212012540CB43
:101023000212012508CC021201255CA80312012536
:10103300F29D03120125289E031201255E9E0312D1
:101043000125A99F0312012513AF0312012529AF1F
:101053000312012533AF031201257DAF03120125CE
:101063005CFA0212012571FA0212012524FB021215
:10107300012564FB021201257DFB02120125B8FB49
:101083000212012505FC0212012537FC021201257B
:1010930079FC0212012584FE02120125ADFE021223
:1010A3000125DCFE0212012574FF02120125B6FFA1
:1010B3000212012514910312012522910312012525
:1010C300939103120125579303120125759303127C
:1010D3000125E39B03120125139C03120125839C25
:1010E30003120125239D03120125D2960312012524
:1010F300F7960312012521970312012536B0031237
:101103000125305900120125955B00120125365D3A
:1011130000120125EA5D001201257D5E0012012502
:10112300025F00120125275F001201257D62001274
:101133000125036300120125366400120125706442
:1011430000120125A5640012012565660012012520
:10115300C266001201250B67001201257667001293
:101163000125E7670012012519680012012531687E
:10117300001201257A69001201258A6900120125EE
:10118300A56A00120125C76A00120125FD6A001233
:101193000125B16C001201253E6D001201257D6D04
:1011A30000120125A16E00120125F2AB03120125E5
:1011B30003AC03120125A8AC03120125DFB003120F
:1011C30001251EB103120125B2B103120125FAADA7
:1011D300031201250AAE031201251FAE03120125D6
:1011E30085AE0312012558A703120125DDA70312BB
:1011F300012543A803120125B57E00120125E97ECE
:1012030000120125127F00120125897F001201259A
:1012130053A90312012574A903120125C8A90312B6
:10122300012512AA03120125C5B103120125DCAF62
:1012330003120125EBAF0312012568870312012571
:10124300F887031201258488031201251D890312DF
:101253000125AE8903120125B78903120125358AB9
:1012630003120125488A031201255E8A0312012510
:10127300BE8A03120125D18A031201253DAA031256
:1012830001254CAA031201255BAA031201256AAAB0
:101293000312012593AA03120125B8AA03120125FB
:1012A300E6AA0312012542A30312012594A3031204
:1012B30001251EA40312012585A4031201259E996D
:1012C30003120125C89903120125969A03120125D9
:1012D300719B0312012536CC02120125FDCC0212AB
:1012E300012534CD021201255ECD02120125BECDAA
:1012F3000212012514CE0212012579CE0212012514
:1013030011CF0212012520D002120125B7D10212FA
:10131300012544D202120125ABD202120125C2D209
:1013230002120125DCD3021201251AD4021201256F
:101333005EAD031201258EAD0312012593AD031299
:101343000125A4E70112012525EB01120125ADECCE
:101353000112012504ED0112012523ED01120125DE
:10136300A1ED0112012537EF011201251CF0011235
:1013730001252AF40112012500F501120125EAB223
:10138300021201250CB60212012543B602120125F1
:1013930069B90212012563BA021201250080031202
:1013A300012545800312012562800312012527814F
:1013B300031201259081031201255D820312012589
:1013C3009683031201255EB10312012528B103128E
:1013D30001258AB103120125DDFF01E066701008C3
:1013E300A3E066700A08A3E066700408A3E066221F
:1013F300C3E7960809E7960809E7960809E79622DE
:10140300C3E09608A3E09608A3E09608A3E096221B
:10141300C008C3E096F50808A3E096420808A3E0D5
:1014230096420808A3E09645087001D3D008220825
:101433000808EAC0E0EBC0E086F0E7A4FA180986E2
:10144300F0E7A42AFA180986F0E7A42AFA1809860D
:10145300F0E7A42AFA1986F0E7A4FBE5F02AFA19C3
:101463000886F0E7A42BFBE5F03AFA190886F0E7C3
:10147300A42BFBE5F03AFA18180986F0E7A4C5F0A7
:101483002BFBE43AFA1908E7C5F0C6A426F6E5F003
:101493003BFBE43AFA1886F0E7A4F6E5F00826F6F3
:1014A300E43B08F6E43A08F6D0E0FBD0E0FA22E4A5
:1014B300CFC0E0E4CEC0E0E4CDC0E0E4CCC0E07552
:1014C300F020C3E633F608E633F608E633F608E61B
:1014D30033F6181818EC33FCED33FDEE33FEEF331F
:1014E300FFC3EC9709ED9709EE9709EF97191919BF
:1014F300400FFFEC97FC09ED97FD09EE97FE1919D4
:1015030006D5F0BEECF709EDF709EEF709EFF71989
:101513001919D0E0FCD0E0FDD0E0FED0E0FF22605E
:1015230016080808C6C313C618C613C618C613C6BA
:1015330018C613C6D5E0EA22700908080822601607
:10154300181818C6C333C608C633C608C633C60838
:10155300C633C6D5E0EA22E627F60809E637F608D9
:1015630009E637F60809E637F622E026F608A3E08F
:1015730036F608A3E036F608A3E036F622E026F0B6
:1015830008A3E036F008A3E036F008A3E036F02223
:10159300C3E697F60809E697F60809E697F60809F9
:1015A300E697F622C3E096F008A3E096F008A3E0DE
:1015B30096F008A3E096F022E657F60809E657F6F8
:1015C3000809E657F60809E657F622E056F608A397
:1015D300E056F608A3E056F608A3E056F622E056D6
:1015E300F008A3E056F008A3E056F008A3E056F095
:1015F30022E0F608A3E0F608A3E0F608A3E0F6224B
:10160300E6F008A3E6F008A3E6F008A3E6F022E07C
:10161300FAA3E0FBA3E0FCA3E0FD22EAF0A3EBF0D6
:10162300A3ECF0A3EDF022CAC0E0E6F0A308DAFAD7
:10163300D0E0FA22CAC0E0E0A3C582CCC582C5834C
:10164300CDC583F0A3C582CCC582C583CDC583DA5E
:10165300E6D0E0CA22C3E498F8E499F91216998017
:1016630026C3E49AFAE49BFBE920E7E9121699E41E
:1016730098F8E499F922C3E498F8E499F9121699D1
:10168300E498F8E499F9C3E49AFAE49BFB22EB208B
:10169300E7CFE920E7E0B90010BB0008E88AF0844F
:1016A300F8AAF022E4FBC8FA22EB70227B10C833BD
:1016B300C8C933C9335007C39AC3DBF280069A50B3
:1016C300012ADBEAC833F4C8C933F4C9FA2275F036
:1016D30008E4C833C8C933C933C99AC99B5004C97C
:1016E3002AC93BD5F0ECFBC833F4C8E4C9FA22603D
:1016F3000D08C6A2E713C618C613C6D5E0F32260C9
:101703000C08C6C313C618C613C6D5E0F42270046A
:1017130022600D18C6C333C608C633C6D5E0F41815
:1017230022251810AF08F518400215198008F5187E
:1017330040021519D2AF22C0D0251810AF08F518F2
:10174300500205198008F51850020519D2AFD0D000
:10175300222518F58210AF08F518400215198008E4
:10176300F51840021519D2AF85198322C5822518B1
:10177300C582C583351910AF07F51985821880070F
:10178300F519858218D2AFC583222518F582E43571
:1017930019F58322E4732518C582C0E0E51934FFE7
:1017A300C583C0E0E518C3958224F810AF0885838C
:1017B300198582188008858319858218D2AFCEF0E7
:1017C300A3E520F0A37808E608F0A3DEFAEFF0A380
:1017D300E58124FAF8E608F0A3E608F0A3E608F0AA
:1017E300A30808E608F0A3E608F0A315811581D045
:1017F300E0FED0E0F8158115811581E8C0E0EEC068
:10180300E0222518C582C0E0E51934FFC583C0E096
:10181300E518C3958224F910AF08858319858218CA
:101823008008858319858218D2AFCEF0A3E520F016
:10183300A37808E608F0A3DEFAEFF0A3E58124FB22
:10184300F8E608F0A3E608F0A30808E608F0A3E624
:1018530008F0A315811581D0E0FED0E0F8158115BD
:1018630081E8C0E0EEC0E022851983851882E0A3F9
:10187300FEE0A3F5207808E0A3F608DFFAE0A3FF73
:10188300E0A3C0E0E0A3C0E0E0A3C0E0E0A3C0E0C9
:10189300E0A3C0E010AF088582188583198008850E
:1018A3008218858319D2AFD083D082020122851991
:1018B30083851882E0A3FEE0A3F5207808E0A3F671
:1018C30008DFFAE0A3FFE0A3C0E0E0A3C0E0E0A3E9
:1018D300C0E0E0A3C0E010AF0885821885831980BB
:1018E30008858218858319D2AFD083D08222C0D0D5
:1018F3002518C582C0E0E51934FFC583C0E0E518AB
:10190300C3958224F310AF08858319858218800854
:10191300858319858218D2AFC8F0A3E9F0A3EAF052
:10192300A3EBF0A37908E709F0A3D8FAECF0A3ED51
:10193300F0A3EEF0A3EFF0A3D0E0F0A3D0E0F0A388
:10194300D0E0F0A3E520F0A3E5F0F0A3228519830E
:10195300851882E0C0E0A3E0F9A3E0FAA3E0FBA3CB
:101963007808E0F608A3DFFAE0FCA3E0FDA3E0FEBD
:10197300A3E0FFA3E0C0E0A3E0C0E0A3E0F5D0A3B1
:10198300E0F520A3E0A3F5F010AF08858319858265
:10199300188008858319858218D2AFD082D083D06E
:1019A300E0F8D0E03274048006740280027401C04F
:1019B300E0F404121754D0E012162A2274048004AF
:1019C30074028000CCC0E0EDC0E0E518C39CCCAD50
:1019D3001950011D10AF068C188D1980068C188DB7
:1019E30019D2AF121637D0E0FDD0E0FC22D083D05D
:1019F30082E9C0E0E493A3C386F0C5F095F0F9084B
:101A0300E493A386F0C5F095F0700BE493A3C39918
:101A13004005E9048002A3E475F002A42582F5825F
:101A2300E5F03583F583D0E0F9E493A3C0E0E493D4
:101A3300C0E022D083D082ECC0E0EDC0E0E493A309
:101A4300FCE493A3FDED4C600D121A82EC24FFFC21
:101A5300ED34FFFD80EFE493A3FCE493A3FDED4C91
:101A6300600D121AC1EC24FFFCED34FFFD80EFD0B2
:101A7300E0FDD0E0FCE493A3C0E0E493C0E022C027
:101A8300E0C3E49396087401939618400FE49366B9
:101A9300700808740193661870007019A3A3C3E457
:101AA3009396087401939618A3A3400DD0E0D0E059
:101AB300D0E0021A72A3A3A3A3A3A3D0E022C0E0A1
:101AC300C0F088F0E4936670080874019366187098
:101AD30000A8F0A3A3700BD0F0D0E0D0E0D0E002D8
:101AE3001A72A3A3D0F0D0E02274F5121805EAFE0F
:101AF300EBFFEE2434F8EF3400F988088909EE246B
:101B030035F582EF3400F583E0F8EE2437F582EF04
:101B13003400F583E0F50AEC850AF0A4FCAAF0850D
:101B23000AF0EDA42AFDE82CF8E43DF97A257B00C0
:101B3300121699EA850882850983F0F8740758F923
:101B43007401B900028004C333D9FCFAE8131313F8
:101B5300541FF8EE28F8EF3400F9E8245DF582E924
:101B63003400F583E05A6008EE2434F582EF802CCC
:101B7300EE2434F582EF3400F583E0C0E0EE243642
:101B8300F582EF3400F583E0F5F0D0E084A8F0EEC1
:101B930028F8EF3400F9E82438F582E93400F583B6
:101BA300E0F97F040218B174F5121805EAFEEBFFA1
:101BB300EE2434F582EF3400F583E0C0E0EE243503
:101BC300F582EF3400F583D0E0F08E828F83A3A3F8
:101BD300A3A3A3A3A3C082C0838E828F83A3A3A343
:101BE300A3A3E0F8A3E0F9D083D082E0C398F5087B
:101BF300A3E099F509EE247FF582EF3400F583E045
:101C030064017069EE2480F582EF3400F583E0F817
:101C1300A3E0F98E828F83A3A3A3A3A3A3A3E0FCD2
:101C2300A3E0FD8E828F83A3A3A3A3A3E0FAA3E083
:101C3300FBC3EA9CEB9D5010C3EC98ED99402EC377
:101C4300EA98EB995027800EC3EA98EB994007C3B3
:101C5300EC98ED9940177CDC7D04EEFAEFFB120B58
:101C6300A4EE247FF582EF3400F583E4F0EE243410
:101C7300F8EF3400F9E8FCE9FDEE2435F582EF34A2
:101C830000F583E0F8EE2437F582EF3400F583E0C6
:101C9300F50AE508850AF0A4F508AAF0850AF0E537
:101CA30009A42AF509E82508F8E43509F97A257B1A
:101CB30000121699EA8C828D83F0F8740758F97430
:101CC30001B900028004C333D9FCFAE81313135497
:101CD3001FF8EE28F8EF3400F9E8245DF582E934C3
:101CE30000F583E05A6008EE2434F582EF802CEE91
:101CF3002434F582EF3400F583E0C0E0EE2436F5BA
:101D030082EF3400F583E0F5F0D0E084A8F0EE280C
:101D1300F8EF3400F9E82438F582E93400F583E07C
:101D2300F9122601021BA5C082C08385188285197A
:101D330083E0F8A3E0F9C3EA9CEB9D5010C3EC9851
:101D4300ED99401BC3EA98EB995014800EC3EA98AF
:101D5300EB994007C3EC98ED99400479018002792F
:101D630000D083D08222EAC39CFAEB9DFB2274EF5E
:101D73001218059003A2E064086005E06407702A66
:101D83009061C8E060249003D0E0F4601DE0F87532
:101D9300F003A4C8AAF02AF974D228FE740339FF09
:101DA3008E828F83A3A3A3E07003021EA1906060C1
:101DB300E0C0E0EE2468F582EF3400F583D0E0F074
:101DC300750C45750D05750800750900E5D914F501
:101DD3000AE5D95403F50E60177403650E605CE5DC
:101DE3000A6010EE2467F582EF3400F583E0700398
:101DF300021E86900540E06401602AEE2482F5828B
:101E0300EF3400F583E06004780480027800850AEB
:101E130008E508C398FA95E0FB120A728A088B0951
:101E2300EA45097005120D968074EE2482F582EF5F
:101E33003400F583E070048A0C8B0DE50A6012858B
:101E43000C82850D83F50BE5D9F0A3150BE50B701B
:101E5300F6EE2482F582EF3400F583E0604474FCEF
:101E6300250AF50A780C1219ACAC0AA90EEEFAEFA2
:101E7300FB120C40740212173AE97026AA08AB0948
:101E83001212AC793D8E828F83A3A3A3A3E0FA7BC6
:101E930000120946EEFAEFFB120BBC120C5279004A
:101EA30080747403650E6056850A107511007810EE
:101EB3001219ACAC0CAD0DAA08AB09120C1C7402C0
:101EC30012173AEE2468F582EF3400F583E064805C
:101ED3007004747F8001E0F50C780C1219B0E50EE4
:101EE300F50C780C1219B0A90AAC08AD099003D00F
:101EF300E0FA7B0012090A740212173A8013900366
:101F0300A2E06408600BAC0CAD0DEEFAEFFB120C13
:101F1300AC120DA279017F0A0218B174F5121805EB
:101F230074FC121724EAFEEBFF8908A2AFE433F531
:101F330009C2AF806AEE2463F8EF3400F97A007BBC
:101F430000A2AFE433F50AC2AF88828983E0FCA321
:101F5300E0FDEC4D603A88828983E0FAA3E0FB8AD6
:101F6300828B83E0FCA3E0FD88828983ECF0A3ED00
:101F7300F08A828B83E4F0A3F088828983E0FCA358
:101F8300E0FDEC4D700A88828983A3A3E4F0A3F0FB
:101F9300E50AA2E092AF1212AC9004E3E004F0EE83
:101FA3002463F582EF3400F583E0F8A3E0F9E84910
:101FB300603DEE2463F582EF3400F583E02402FAFA
:101FC300A3E03400FBEA2402F50AEB3400F50B78B6
:101FD3000A1219AC8A828B83E0FCA3E0F9EEFAEFD4
:101FE300FB120BE0740212173AE97003021F3890D8
:101FF30004E3E060639004E4E0F89004E3E0C39852
:10200300500C7402650870509004E5E0604A8E82BB
:102013008F83A3A3A3A3E0851882851983F0A3E488
:10202300F09004E3E0F8740212178DE8F0A3E4F0F3
:102033009004E3E0F89004E2E028F0740212178DB4
:10204300AC82AD83851882851983AA82AB8379011B
:102053001209169004E3E4F0E509A2E092AF7404D8
:1020630012173A021BA50000008521878522C6228C
:10207300C0E0C0D0E8C0E0E9C0E0EAC0E0EBC0E007
:10208300ECC0E0EDC0E0EEC0E0C008C009C00AC08B
:102093000BC082C083C0F0A2AFE433FEC2AF759B16
:1020A30000906182E0A2E05012E591A2E0500C752D
:1020B30091FE740165217003121D71E0A2E5505178
:1020C300E591A2E5504B7591DF9003A2E0640760B0
:1020D30005E064087023740165217035790190036C
:1020E300D0E0FA75F003A4CAA8F028FB74D22AFA48
:1020F30074033BFB121F1E8018E0640D70139003E2
:10210300C4E004F064287002E4F07A00E0F9120DF0
:10211300A8906182E0A2E640030221BAE591A2E61B
:1021230040030221BA7591BF9003A2E064057008D1
:10213300120CD6120CE28003120CDC752100120D76
:1021430036E99003A3F07900120D2A120B1A7A01D3
:102153007B009003A1E0F9121000907803E0644241
:102163007055900544E014F0704DC2AF1221720017
:10217300782AD0E0F618D0E0F6E59F54077005758D
:1021830009FF800375097FC4C0E07829E6F50808D4
:10219300E65509F509740B7808121702D0E02508F3
:1021A300F8906270E0A2E740F8E8C333906272F0FF
:1021B300906270E0D2E0F0906181E0A2E35009E523
:1021C300E9A2E3500375E9F7A3E0A2E75009E5911B
:1021D300A2E7500375917FEEA2E092AFD0F0D083D7
:1021E300D082D00BD00AD009D008D0E0FED0E0FDD9
:1021F300D0E0FCD0E0FBD0E0FAD0E0F9D0E0F8D0BA
:10220300D0D0E032C0E0C0D0C082C083906183E010
:10221300A2E05009E5BFA2E0500375BFFEE0A2E1D2
:102223005009E5BFA2E1500375BFFDE0A2E25009EA
:10223300E5BFA2E2500375BFFBE0A2E35009E5BF8F
:10224300A2E3500375BFF7E0A2E45009E5BFA2E49F
:10225300500375BFEFE0A2E55009E5BFA2E55003C7
:1022630075BFDFE0A2E65009E5BFA2E6500375BFE4
:10227300BFD083D0828088C0E0C0D0E8C0E0E9C08E
:10228300E0EAC0E0EBC0E0ECC0E0EDC0E0C0F0E5A8
:10229300A7A2E6500FE5A1A2E6500953A7BF75A177
:1022A300BF1222DFE5A7A2E5500CE5A1A2E5500687
:1022B30053A7DF75A1DFE5A7A2E15009E5A1A2E1DC
:1022C300500375A1FDE5A7A2E2500CE5A1A2E250DF
:1022D3000653A7FB75A1FBD0F00221F074F8121886
:1022E300057521019003A2E064067015120C708A33
:1022F300828B83A3A3A3A3A3A3E0FAA3E0FB120C03
:10230300C4A2AFE433FED2AF9003A8E06401701817
:102313007A207B009003A1E0F91210847A207B00DD
:102323009003A1E0F9121006906182E0D2E6F090EA
:102333000541E0602185C62280169003A7E0640171
:102343007008E5C654F84405F5C653BEFC12206C6C
:102353007401652160E4EEA2E092AF7F010218B13F
:10236300008E238F248582288583278518828519EB
:1023730083E0CEA3E0CF852882852783EBC9EAC813
:10238300EDCBECCA75F010C3E833C8E933C9EA33BF
:10239300CAEB33CBC3EA9EF526EB9FF525B3500476
:1023A300AB25AA26EC33CCED33CDD5F0DAAE23AF93
:1023B300242274ED1218058A088B098C0A8D0B747C
:1023C3001312178D780C1215F47808790C1213F385
:1023D3007510017511C87512007513005012780835
:1023E300790C121593781079081213F35016801094
:1023F300780C79081215937810790C1213F34004B2
:102403007901800279007F0C0218B174ED1218056E
:102413008A088B098C0A8D0B741312178D780C1292
:1024230015F4780C79081213F340117808790C121B
:102433001593AA08AB09AC0AAD0B80227510007581
:1024430011007512007513017810790C1215937829
:1024530010790812155AAA10AB11AC12AD1380A64D
:102463008A828B837508FF7509FF750AFF750B0058
:1024730078081215E17F040218B174F51218058C5F
:10248300828D8378081215F48A828B83780812155B
:10249300A7EA2404F8EB3400F98C828D83A3A3A369
:1024A300A3E0FCA3E0FD88828983C3E09CF0A3E062
:1024B3009DF088828983C3E09420A3E0944E402654
:1024C3008A828B837508FF7509FF750AFF750BFFF9
:1024D30078081215808A828B83A3A3A3A3E0242008
:1024E300F0A3E0344EF002246374F5121805E9FEFC
:1024F3009004F7E0FAA3E0FBEEC333F8E433F97496
:10250300D128F582748139F583E02AF508A3E03BED
:10251300F50978081219AC7A407B427C0F7D0012D2
:102523002364740212173A8A088B098C0A8D0B7480
:10253300107808121522AA08AB097F040218B17497
:10254300F11218058A0C8B0D8C0E8D0F740F121758
:102553008DE0FAA3E0FB741112178DE0F508A3E0F8
:10256300F50978081219ACEA2401F508EB3400F5F3
:1025730009E4F50AF50B780C790812143275087121
:10258300750902780C7908121432AA0CAB0DAC0E43
:10259300AD0F122364740212173A8B09EA450960DE
:1025A300047A0180027A00EC2AFCED3400FD7413F6
:1025B30012178DE0F8A3E0F9E8FEE9FFECF8EDF976
:1025C3007A717B02121699880889098E828F837823
:1025D30008121603ECF8EDF97A717B021216998A48
:1025E300088B09740578081217118E828F83A3A3B1
:1025F300A3A3E508F0A3E509F07F080218B1C082A0
:10260300C083E9906000F0D083D08222C2AF020081
:102613000022C0E074F21218F1A2AFE433FED2AF8D
:10262300C2C0E5D1A2E4500653D1EF121276EEA256
:10263300E092AF7F01021950C0E074F21218F1A2C8
:10264300AFE433FED2AFE589A2E050031212227544
:102653008900C2C5EEA2E092AF7F01021950C0E02B
:10266300C0D0E8C0E0E9C0E0E5A8D2AFC2C7A2E7A6
:10267300A2E792AFD0E0F9D0E0F8D0D0D0E032C0FA
:10268300E0C0D0E8C0E0E9C0E0C008C009C082C033
:1026930083A2AFE433F9D2AF9009E2E0F8A3E06894
:1026A3007008539AFBA374018026C2E99009E2E003
:1026B300F50874012508F074622508F5827409345D
:1026C30000F583E0F5C19009E2E0C394804002E4A1
:1026D300F0E9A2E092AFD083D082D009D008D0E055
:1026E300F9D0E0F8D0D0D0E032FFFFFFFFFFFFFFCB
:1026F300FFC082C083E9900C7DF002298374F71236
:102703001799E99002E1F07C197D037AFF7BFF12B0
:10271300085C9002E274FFF0A3F0A3E4F0A3F07965
:10272300051207E49002E1E0F91207067A7A7B08C2
:10273300120A247F0102186B74F41217998A088B0A
:1027430009EB548060309002E1E0F9120FE88A0A45
:102753008B0BAE0AAF0BEE4F60138E828F83E06458
:10276300B070031207FCEEFAEFFB120FD6AA08E5CE
:10277300096480FB80047A007B0002295274F21200
:10278300179974FC121724EAFEEBFFEE4F603874BE
:102793000212178DEEF0A3EF122BB7ECF0A3ED129C
:1027A3002BB7AA82AB83120700E9F5087073741282
:1027B30012178D12376BE50A450B60658E828F8386
:1027C30012282EEE4F700575080280557A067B009D
:1027D30012103C8A0C8B0DA80CA90DE849700575E5
:1027E3000813803D88828983E4122838A3A3EEF07E
:1027F300A3EF123C04E50AF0A3E50BF09002E71205
:1028030028C09002E76017E0FCA3E08003EAFCEB3A
:10281300FD8C828D831228C070F38C828D831236D7
:1028230090A908740412173A023E06A3A3A3A3E0D7
:10283300FEA3E0FF22F0A3F0888289832274F212C0
:102843001799890AE975F017A4FEAFF09002E6E440
:10285300F09002E41228C0600A1210429002E4E4ED
:10286300F0A3F0EEFAEFFB12103C8A088B09EA455D
:1028730009602FEEFCEFFD7900120FBE9002E4E534
:1028830008F0A3E509F07B0080081228AAE4F0A36E
:10289300F00BEBC3950A40F2E50A9002E6F07900EB
:1028A30080027913023E06EB75F017A4F8A9F090A5
:1028B30002E4E028FAA3E0398A82F583221234265F
:1028C300EA4B2274F4121799750800750900740C09
:1028D30012178D123BD8FEE9FF800CE5082401F5A1
:1028E30008E5093400F509C3E5089CE5099D503264
:1028F30085080A85090B7403780A121711EA250A59
:10290300F8EB350BF988828983A3A3A3A3A3A312AE
:10291300376BEE650A7003EF650B70BFE8FAE9FBEE
:1029230080047A007B00802774F41217997900EAF7
:10293300A2E0501B7508C575098278081219AC7C92
:10294300047D007A7F7B0C1207DE740212173A7F34
:102953000402186BC082C0839002E712298A601CAC
:1029630088828983A3A3E06A7003A3E06B888289CA
:102973008370E8A3A3A3A312342280047A007B000C
:10298300D083D082020122123ED9E8492274EE128A
:10299300179974FC121724EAFEEBFF851882851938
:1029A30083E4F0A3F0EE2402123674EE2405122B16
:1029B300A5EE2404F50EEF122F8AE024FE603924DD
:1029C300FC604624FE605224FE605E24FE70030217
:1029D3002AAA24FE7003022B2224FE7003022B3149
:1029E30024FE7003022B4024FC7003022B4F24FEB1
:1029F3007003022B5E022B9B9003007417F0A3E479
:102A0300122BBF12047E022B9B851882851983AC7F
:102A130082AD83120802022B6B851882851983AC61
:102A230082AD83120808022B6B850C08850D09748F
:102A33000212178DAC82AD83850882850983123417
:102A4300221207248A0C8B0DAC0CAD0DEC4D6042A9
:102A5300E4F50CF50D780C1219AC750C00750D032B
:102A6300780C1219AC750C01750D03780C1219ACA6
:102A7300740812178D1219C3791612341C120844E4
:102A8300740812173AE9F50C700B123418120496F5
:102A9300800F750C01850882850983122BAD1236D0
:102AA30090850C08022B6E740212178DAC82AD83D5
:102AB300850C82850D831234221207248A108B1110
:102AC300AC10AD11EC4D6043850C82850D83A3A33F
:102AD3001219C375100075110378101219AC751013
:102AE3000175110378101219AC740812178D12199D
:102AF300C3791612341C120844740812173AE9F504
:102B030009700B12341812049C800F750901850C8F
:102B130082850D83122BAD123690850908804C8572
:102B23001882851983AC82AD8312080E803A85180A
:102B330082851983AC82AD83120814802B85188299
:102B4300851983AC82AD8312081A801C851882858F
:102B53001983AC82AD83120820800D8518828519F4
:102B630083AC82AD83120826E9F508E50860298E57
:102B7300828F83A3E06414601F850E82850F83E038
:102B8300900300122BB7123ED5900301123690E545
:102B930008A3122BBF120478EEFAEFFB1207A2026E
:102BA300357CF50CEF3400F50D22123ED9851882E1
:102BB30085198322F085188285198322F07C007D94
:102BC30003850A82850B831234262274EE12179929
:102BD30074FC1217248A0A8B0B8C0E8D0FEA2405C2
:102BE300F508EB3400F5097C157D0079007A007B4C
:102BF30003120FBEE5082402F50CE509122BA88584
:102C0300188285198385821085831178101219AC77
:102C1300850882850983A3A3A3A31230D21219AC1A
:102C2300E5082405F510E5093400F51178101219AB
:102C3300AC850C82850D8312342C12071E74061288
:102C4300173A8A108B11AE10AF11E50A2402F50A68
:102C5300E50B123677EE4F7003022D948017740242
:102C630012178D12342288828983EAF0A3EBF09045
:102C73000300E004F0900300E0C394054003022D39
:102C830094E4F510F51178101219AC7510E975116B
:102C93000278101219AC7510EA7511027810121926
:102CA300AC740612178D1219C37910EEFCEFFD12E6
:102CB300341C120844740812173AE9705E850882BE
:102CC300850983A3A3A3A3A3A3A3E0F89002E9E048
:102CD3006870481230D21219AC7CEA7D02E50824F0
:102CE30008FAE5093400FB120FB8740212173AE927
:102CF30060298E828F83A3A3A3A31234229003009F
:102D0300E0F5107402781012171174012510F58282
:102D130074033511F583EAF0A3EBF0740212178DF7
:102D230085821085831178101219AC740212178DE5
:102D33001219C3850C82850D83123EEA12072A7489
:102D43000412173A8A108B11AE10AF11900300E0F2
:102D5300F510751100740278101217117400251004
:102D6300F874033511F988828983A31228C070038C
:102D7300022C58E82403F8E93400F9EE4F6003020B
:102D83002C618882898374FFF0A3F0900300E00430
:102D9300F0900300E0600A12341812048A7900806C
:102DA3000B850882850983123687790A02357C747C
:102DB300EA12179974FE1217248C128D13EA240554
:102DC300F50CEB124054122832750800750900EA1D
:102DD3002402F510EB3400F51185188285198385DB
:102DE300820A85830B780A1219AC850C82850D83C0
:102DF300A3A3A3A3122F941219ACE50C2405F50A7F
:102E0300E50D123677780A1219AC850C82850D838D
:102E1300123EE812071E740612173A8A0A8B0BEA4F
:102E2300450B7003022F45EA2404F50EEB122F8A9B
:102E33001228328A828B83A3A3A3E0F985108285AB
:102E4300118312342212070CE9F5096003022F459E
:102E5300E4F514F51578141219AC7514E975150217
:102E630078141219AC7514EA75150278141219AC9A
:102E7300740612178D1219C37913AC0AAD0B8510A2
:102E830082851183123422120844740812173AE916
:102E9300F5096003022F459002E9E0F8E50870099F
:102EA300E02402900301F08017900301E0FCE82482
:102EB30002FAE43400FBEA6C7001EB6003022F4971
:102EC300850882AA821230C994141230C1507385C6
:102ED3000E82850F83E0C0E074022A122F81D0E0B6
:102EE300F00508850E82850F83A3E0C0E085080AFC
:102EF3007402250A122F81D0E0F005089002E9122E
:102F03002F941219AC7CEA7D0285080A7402250A03
:102F1300FA74033400FB120FA6740212173A9002DC
:102F2300E9E02508F50874FF6E700374FF6F601203
:102F3300EE24010EEF3400FFE508C394145003029E
:102F43002DDCE508601312330D8510828511831281
:102F5300342212049079008014E509700375090A7C
:102F6300851282851383EEF0A3EFF0A90974021290
:102F7300173A7F0E02186B85080C7402250CF58234
:102F830074033400F583223400F50F850E82F58334
:102F930022123C172274EE12179974FE1217248C16
:102FA3000E8D0FEA2405F50CEB122BA8750B009080
:102FB3000300E4F0F50AEA2402F508EB3400F5090E
:102FC3008049900300E0FA9002E9E0F81230C994D6
:102FD300171230C1400D900300E0F87416C39890A7
:102FE30002E9F01230D21219AC7CEA7D0274012A94
:102FF300FA74033400FB120FA6740212173A9002FC
:10300300E9E0F8900300E028F0050AE50C2416F542
:1030130082E50D122F85E0F8E50AC39840030230DC
:10302300AA900300E0C39416507DE50AC333F8E485
:1030330033F9E50C28FEE50D39FF851882851983E0
:10304300AC82AD838E828F831234221207248A10BE
:103053008B11AC10AD11EC4D7005750B018043E481
:10306300F510F51178101219AC7510E97511027885
:10307300101219AC7510EA75110278101219AC749C
:103083000612178D1219C3791685088285098312D2
:103093003422120844740812173AE9F50B7003023C
:1030A3002FC512368380107C007D03850882850935
:1030B300831234221204A2A90B740202357EE9940E
:1030C30000C365D03322EA28F8E43400F9E822E0AB
:1030D300F51075110078102274EA12179974FC1216
:1030E30017248A0C8B0D8C128D13EA2405F50AEB39
:1030F300123677750800750900E50A2402F510E514
:103103000B3400F511740212178D85820E85830F1F
:10311300780E1219AC850A82850B83A3A3A3A3128D
:103123003BC31219ACE50A2405F50EE50B3400F593
:103133000F780E1219AC85108285118312367D1219
:10314300341C12071E740612173A8A0E8B0FAE0E2A
:10315300AF0FE50C2402F50EE50D3400F50F8040AA
:103163008882898374FFF00508122F7A74FFF005B3
:10317300089002E9E0F50C750D00780C1219AC7C8F
:10318300EA7D0285080C7402250CFA74033400FBF3
:10319300120FA6740212173A9002E9E02508F50807
:1031A300EE4F60718E828F83A3A3A3E0F9850E8215
:1031B300850F8312342212070CE9F509EE24041259
:1031C3002BA5E97044E4F514F51578141219AC75C0
:1031D30014E975150278141219AC7514EA75150201
:1031E30078141219AC740812178D1219C37911EEE1
:1031F300FCEFFD850E82850F83123422120844747E
:103203000812173AE9F5096027850C82850D8312A8
:103213003303123690E50870030232E912330D8549
:103223000E82850F831234221204A879000232FE23
:10323300850882AA82EA9002E97009E024049003D7
:1032430001F08022E0F8900301E0F514E82404FC87
:10325300E43400FDEC65147001ED70C01230C994C4
:10326300121230C150B6850C82850D83E0C0E07424
:10327300022A122F81D0E0F00508850C82850D8388
:10328300A3E0C0E0122F7AD0E012331F85820C85B1
:10329300830D780C1219AC740412178D1219C3859F
:1032A3001082851183123EEA12072A740412173A18
:1032B3008A0C8B0DAE0CAF0D85080C7402250CF82F
:1032C30074033400F9EE4F7003023163851882856D
:1032D3001983E08882898312331FA3E0C0E0122F91
:1032E3007AD0E0023171E509700375090A850A8213
:1032F300850B83123303123690A9097404022F72CB
:10330300123ED985128285138322900301E0F5F0E2
:10331300E50884900300F07C007D0322F005088516
:1033230018828519832274EC12179974FE121724DC
:103333008A088B098C0E8D0FEA2405FEEB3400FFFF
:10334300851882851983AC82AD838E828F83123474
:10335300221207248A0A8B0BEE2418122BA5EA45A6
:103363000B70030233F312356550328518828519C9
:10337300831234221208388A108B11EA4511606BCC
:103383007912AC0AAD0B8508828509831234228534
:103393001082851183121797E9F50A7058E4F50A2C
:1033A300F50B780A1219AC8E828F83A3A3E0F50A7A
:1033B300780A1219ACEE2403123674780A1219AC87
:1033C3008E828F8312342C12084A740612173AE93C
:1033D300F50A7021850C82850D83E0701F850882B4
:1033E3008509831234221204AE8011750A0E8009F6
:1033F300750A018004E50A6003123683850C828511
:103403000D83E0600479008002A90A740212173A5E
:103413007F0C02186B7C007D03850A82850B831267
:10342300342622E0FAA3E0FB22E0FCA3E0FD8508BA
:10343300828509831234262274EE12179974FE12C0
:1034430017248A088B098C0C8D0DEA2405FEEB34B6
:1034530000FF750E00851882851983AC82AD838EBB
:10346300828F831234221207248A0A8B0BEA450BBC
:1034730070030235511235655035851882851983DD
:103483001234221208388A0E8B0FEA450F605E79D8
:1034930012AC0AAD0B850882850983123422850E8E
:1034A30082850F83121797E9F50E60030235548561
:1034B300088285098312376BAA0AFB12082C8A102B
:1034C3008B11A810A911E849701E7AFF7BFF12081F
:1034D3002C8A108B11A810A911E849606C88828985
:1034E30083E50AF0A3E50BF0750A008007750E0E5D
:1034F300805F050A9002E6E0FAE50AC39A504AE5BE
:103503000A75F017A4FAABF088828983A3A3E02A93
:10351300FAA3E03BFB8A828B8312367DEC4D70D29B
:10352300750A17750B00780A1219ACEEFCEFFD1241
:103533000FA6740212173AEEFCEFFD850882850987
:10354300831234221204B48014750E098003750E9D
:1035530001123ED1850C82850D83123690A90E028D
:1035630030BCE5082402F508E5093400F5098A8230
:103573008B83A3A3A3E0A2E522740412173A7F0A64
:1035830002186B74EC1217998C108D11EA2405F54F
:103593000CEB122BA8750F00EA2402F50AEB123686
:1035A30077850A82F58312342212082C8A088B0944
:1035B300EA45097003023669750E008071850C8235
:1035C300850D83E06401704F8E828F83A3A312194C
:1035D300C38E828F83A3A3A3A3E0F5127513007890
:1035E300121219ACEE2405F512EF3400F51378121C
:1035F3001219AC12341C12084A740612173AE9F570
:103603000F6014850C82850D83E4F0123ED1851082
:10361300828511831236907C177D007900EEFAEFD4
:10362300FB120FBE8E828F83E4F0A3F0050E90028F
:10363300E6E0F8E50EC398501EE50E75F017A4F802
:10364300A9F0850882850983A3A312405E12367D03
:10365300EC4D60030235C085088285098374FFF051
:10366300A3F0E50F700612341C1204BAA90F02343A
:1036730013F50AEF3400F50B22A3E0FCA3E0FD22CF
:103683008E828F83123ED9850E82850F83E8F0A345
:10369300E9F022C082C0839002E2E06A7003A3E0F3
:1036A3006B70067AE27B0280047A007B0002298336
:1036B300C082C08378008C828D83E06A7003A3E0AC
:1036C3006B7010E875F003A4F8A9F0EC28FAED3953
:1036D300FB8015088C828D83A3A3A3E06A7003A3E8
:1036E300E06B60DF7A007B0002298374F61217997E
:1036F3001207F68A828B83E582458370067A007B04
:10370300008007A3A3A3A3123422023D8274F21202
:103713001799E9FE740E12178D12376B7410121776
:103723008D123BE38C828D83E064027036A3123EDC
:10373300DFF50CA3E0F9A80C74026870037429691F
:103743007021750C02750D00780C1219AC780812F3
:1037530019AC780A1219ACEEF912086E7406121736
:103763003A80027901023E06E0F50AA3E0F50B2256
:1037730074E812179974FB121724E98518828519C6
:1037830083F08A168B17ECFEEDFF751000741D1283
:10379300178D123ED5741D12178D1236908E828F9F
:1037A30083A3A3A3E0A2E4502D741D12178D12343A
:1037B300221208388A828B83E58245837003023B99
:1037C300B4790AEEFCEFFDAA16AB17121797E9F5C9
:1037D300106003023BB7741F12178D123BE3742171
:1037E30012178D12376B742312178DE0F50EA3E0B9
:1037F300F50F8E828F83E064026003023B62A312A3
:103803003ED5850882850983A3858212858313EEBD
:103813002406122BA588828983E0FAA3E0F9EA241F
:1038230000F514E439F5157814121A36010000284E
:1038330001285738070002281C3903288938002932
:10384300533A01297E3A02291F3A0329533A04299C
:10385300FD3A623BE50E450F6003023B5D850C823A
:10386300850D83123BD8FAE9FB8A828B83E0850AB4
:1038730082850B83123C0E1219AC8A828B83A3E0E0
:10388300FCA3E0023AE7E50E450F6003023B5D85CA
:103893000A82850B837401F0123BEB85088285094C
:1038A30083F07C007D008E828F83A3A3A3A3E024F7
:1038B30001FAA3E03400FB120724EA4B60418A8239
:1038C3008B83E02402F8850A82850B83E028F0EAE3
:1038D3002404F8EB3400F988828983E08512828519
:1038E3001383123C20123C0E1219AC8A828B831272
:1038F300367CE5082403FAE5093400FB023AEC853B
:103903000A82850B83E02404F07C047D007900AAFD
:1039130012AB13120FBE023BB7E50E450F60030255
:103923003B5D123BEBFEA3E0FF850A82850B8374AC
:1039330004F0EE850882850983F0EF8512828513F2
:1039430083F0740312178DAC82AD83EEFAEFFB1292
:1039530007248A0C8B0DEA450D7003023A008A8214
:103963008B83A3A312282E740112178D85820E85D3
:10397300830F780E1219AC740512178D1219C37CBC
:10398300FF7DFF12072A740412173A8B0FEA450FC3
:103993007033850C82850D83123BC31219AC850CE1
:1039A30082850D83A31219C37C027D007A7D7B83FC
:1039B300120556740412173AE9700A740112178D2E
:1039C30074FFF0A3F08E828F83E064027039750C6C
:1039D30002750D00780C1219AC8E828F8312367C1F
:1039E300E5082404FAE5093400FB120FA674021259
:1039F300173A850A82850B83E02402800974011239
:103A0300178DEEF0A3EFF0740112178D123BD4F073
:103A1300740112178DA3123BCC023B57E50E450FE1
:103A23006003023B5D850C82850D8312367DAA16E9
:103A3300AB17120862850A82850B837402F0EA854C
:103A43000882850983F0851282851383EB023B5A32
:103A5300E50E450F6003023B5D123BEBF8A3E0F973
:103A6300850A82850B837402F0E8850882850983C1
:103A7300F0E9851282851383023B5A850C82850DFA
:103A830083123422120FA0EAFC8C82A882C3950E03
:103A9300E4950F405FE8650E7002E50F70047C004B
:103AA3008022851882851983E0FAE50E2AFAE50F4C
:103AB3003400FBC3EA98EB94005003E08005E50E65
:103AC300CCC39CFCEC850A82850B83F08C0A750BB6
:103AD30000780A1219AC850C82850D83E0250EFC53
:103AE300A3E0350FFDAA08AB09120FA67402121743
:103AF3003A023BB7751007023BB7E50E450F705A04
:103B0300850C82850D83123ED5850A82850B8374CD
:103B13000712283A123BCC12283AA3E08512828579
:103B23001383F0E82402FAE93400FB8A828B8312C0
:103B33003BCC123BFB123BD4A3123C04123BDDF003
:103B4300E82405F8E93400F988828983123BDDA370
:103B5300123C20A3A3A3A3F0805A75100B805574C5
:103B63001D12178D1234221207F68A828B83E58287
:103B73004583603D123ED5880C890DE8450D6031C3
:103B8300780E1219AC780A1219AC78081219AC74B1
:103B93000612178DE0F9EEFCEFFDAA16AB17850CA4
:103BA30082850D83121797740612173AE9F5108070
:103BB3000375100EA910740512173A7F1002186BC3
:103BC300E0F50E750F00780E22E0850882850983E3
:103BD30022123C2A22123ED9E822123C2AA3A32213
:103BE300E0F508A3E0F50922850C82850D83E0F852
:103BF300A3E0F5838882E022A3A3F08A828B83A3C8
:103C030022F088828983A3A3A3A322F08A828B83D1
:103C1300123C1722E0F50A750B00780A22F088821D
:103C23008983A3123C2A22E0850882850983A3A302
:103C33002274EE12179974FE1217248A0A8B0BEC66
:103C4300FAEDFB741412178DE0F510A3E0F511746F
:103C53001612178DE0FE741812178DE0F50EA3E00F
:103C6300F50F851882851983AC82AD831207248AE8
:103C73000C8B0DEA450D6049851882851983123432
:103C8300221207F68A828B83E5824583602FA3A3E2
:103C9300123BE3E50845096024780E1219AC78104D
:103CA3001219ACEEF9AC0CAD0DAA0AAB0B85088268
:103CB300850983121797740412173A8006790E80C8
:103CC3000279010230BC74F612179974FE1217249C
:103CD300740C12178D123BD8851882851983F074E2
:103CE3000112178DE9F0E4F508F50978081219AC0B
:103CF30075080278081219AC740412178D858208AE
:103D030085830978081219AC12084A740612173A07
:103D1300740212173A806874F7121799EAFEEBFFE0
:103D230089087C197D03120862EA5402600BA90812
:103D3300EEFAEFFB1207188002790102273674F6B8
:103D430012179974FF6A700374FF6B70168C828D5F
:103D530083123D87E4F08C828D83A3A3A3123D8756
:103D6300A380181208328A088B09A808A909E84910
:103D7300600D8882898374FF122838A3A3E4F07F3F
:103D83000202186B74FFF0A3F08C828D83A3A3222D
:103D930074F61217991208328A828B83E58245835F
:103DA3006006A3A3E0FA80027A007B0080D174F25C
:103DB3001217998A088B09ECFEEDFF740E12178D0A
:103DC300E0F50A1208328A0C8B0DA80CA90DE849FC
:103DD3007026EEFCEFFD7AFF7BFF1208328A0C8B14
:103DE3000DA80CA90DE84970047911801688828901
:103DF30083E508F0A3E509F088828983A3A3E50A94
:103E0300F079007F0602186B74EE121799EAFEEB45
:103E1300FF8C088D09890C741412178D123ED5740A
:103E23001612178D123422750D00E8496003023E05
:103E3300C97402650C6003023EC4741212178D121A
:103E43003EDFFCA3E0F9EC2400F50EE439F50FEABC
:103E5300F4F8EBF4F9EC58F8E50F59F9E849705C1C
:103E6300E5082406F8ED3400F9880A890B8882F501
:103E730083123EEA1208628A108B11E50E651070F8
:103E830004E50F65116042780E1219AC850A82852C
:103E93000B83123EEA120868740212173AE9F50D11
:103EA3007027780E1219AC850882850983A3A312A3
:103EB3003EE8120880740212173A800D750D808057
:103EC30008750D0D8003750D0BA90D0235818E82CA
:103ED3008F83123ED922E0F8A3E0F922123ED9885B
:103EE300828983E022A3A3E0FCA3E0FDEEFAEFFBCB
:103EF3002274E812179974E712172485188285191A
:103F030083EAF0A3EBF08C168D17890E7508007504
:103F13000900743112178DE0F512A3E0F513743321
:103F230012178DE0F514A3E0F515743512178DE023
:103F3300F50FE50975F003A4F8A9F0851882851932
:103F43008312405EE0F47003A3E0F4700302404187
:103F5300EE2402F50CEF124054E070030240418559
:103F6300160A85170B780A1219ACAC14AD15AA12F0
:103F7300AB131207EA740212173A8A0A8B0BEA454B
:103F83000B7003024041E4F510F51178101219ACDF
:103F9300740612178D85821085831178101219AC5F
:103FA300740912178D85821085831178101219AC4C
:103FB300851282851383A3A3A3A31219C37914AC17
:103FC3000AAD0B8E828F83123422120844740812B6
:103FD300173AE97069850A82850B83A3A3A3A31209
:103FE3003ED5740212178D123690850C82850D838F
:103FF300E0A2E05018A90E740212178DAC82AD83B3
:104003008E828F8312342212073CE94208850C8288
:10401300850D83E0A2E15026E50FF50A780A12190F
:10402300B0A90E740312178DAC82AD838E828F8379
:10403300123422120736740112173AE942080509AD
:10404300E509C394025003023F35A9087419023BE2
:10405300BB3400F50D850C82F58322E028FEA3E036
:1040630039FF8E828F832274F2121799EAFEEBFFD7
:10407300890B7401650B600E7402650B706A79011C
:10408300120A42E97062EEFAEFFB12082C8A088BDF
:1040930009EA45096047750A00800B7C177D0079A2
:1040A30000120FBE050A9002E6E0F8E50AC3985035
:1040B30021E50A75F017A4F8A9F08508828509831C
:1040C300A3A3E028FAA3E039FB8A828B8312298A0F
:1040D30070C985088285098374FFF0A3F07C197D7C
:1040E30003EEFAEFFB12085C023E0674F212179914
:1040F3008A088B09ECFEEDFF740E12178D12376BD5
:10410300900C7DE0F4603D7A097B00120FD0EA4BFE
:1041130060328A828B8374B1F0A3E4123BFDA31255
:104123003BFBA3E508F0A3E50912414AEEF0A3EF38
:1041330012414AA3A3E50AF0A3E50BF0900C7DE03E
:10414300F9120FDC023E06F08A828B83A3A3A3A39A
:10415300A322C082C0839061907404F0A37448F0DA
:10416300A37402F09061807440F09061BC7403F01A
:104173009061877419F0906265741BF0906249E056
:10418300C3941390619C400A7409F09060667401B3
:104193008007740DF0906066E4F090619A7433F0D8
:1041A300A37455F09061A0743AF090053FE0640168
:1041B3007009C2919003A6746780059003A6746189
:1041C300F09026F2E493906186F09026ECE493F469
:1041D3006027E493540FF8906185E0686012E5C6A8
:1041E30054804449F5C6E59E547F644970F8E8F06D
:1041F30053C680E59E547F70FA7905120D8A0243F7
:1042030083C082C083E5A8F853A87E906181E4F05F
:10421300A3F0A3F0C2BA539AFEC289759B00C2C22F
:1042230075E90075910075BF0075A91175B9059001
:104233006181F0A374C0F0A3E4F0D2BA439A01748D
:10424300805842A8024383C082C08374F8121724A3
:104253009003A4E0F8A3E0F9E849700302437890DF
:1042630003A4E0544060237908851882851983AA42
:1042730082AB83120BFE851882851983AA82AB83D6
:104283001208F29003A4E054BFF0E0548060107968
:104293000C7A657B05120BFE9003A4E0547FF0E0DB
:1042A300A2E0503190619A7433F0A37455F0906199
:1042B300A0743AF090053FE064017009C291900345
:1042C300A6746780059003A67461F01208F8900342
:1042D300A4E054FEF0E05402603190619A743FF020
:1042E300A3745AF09061A0747FF090053FE06401DD
:1042F3007009D2919003A6747180059003A6746A25
:10430300F01208F89003A4E054FDF0E054046013A5
:104313009026F0E493906186F01208FE9003A4E0E7
:1043230054FBF0E0540860139026F1E49390618607
:10433300F01208FE9003A4E054F7F0E05410601369
:104343009026F2E493906186F01208FE9003A4E0B5
:1043530054EFF0E05420600A1208FE9003A4E054E6
:10436300DFF0A3E05401600D120B26120904900341
:10437300A5E054FEF0740812173A024383F0A3F049
:10438300D083D08202012274EC12179974F41217AD
:1043930024851882851983AC82AD837583837582E6
:1043A3002874041216379026F093F460030245161E
:1043B300907808E0C3940250030244F67404121781
:1043C3008DAC82AD8375838275829774081216371C
:1043D30085188285198385821285831374041217C5
:1043E3008DAC82AD83750EFF750FFF7FFF7E007569
:1043F3000C48750D78801574086E700302448A7436
:10440300096E700302448A740A6E607B850C828590
:104413000D8378081215F48C828D83A909E50AC9E6
:10442300F8881074187808121522E5104508F8C3A7
:10443300E098A3E099850C82850D8378081215F422
:1044430040188C828D8374187808121522E5104564
:1044530008F8E0C398F8A3E0801C741878081215D4
:1044630022E5104508FAE9FB8C828D83E0F8A3E08E
:10447300F9EAC398F8EB99F9C3E8950EE9950F505B
:1044830006880E890FEEFF0EE50C2404F50CE50DEE
:104493003400F50DEEC3941350030243FA74FF6521
:1044A3000E700474FF650F60238F0874027808127E
:1044B300171174482508F58274783509F58378084F
:1044C3001215F4851282851383E508F0EC2402FCAF
:1044D300ED3400FD851282851383A38582128583C3
:1044E30013740C12178DE5826C7003E5836D600302
:1044F3000243E875080175090078081219AC7402C3
:1045030012178DAC82AD837ABC7B091211EC740255
:1045130012173A740C12173A7F0C02186BC082C040
:10452300839061AE7468F0A3746AF090624574FB83
:10453300F0A304F053F4FD43FE0290053F7401F031
:104543009061A0E0643A90619A70237433F0A3748D
:1045530055F09061A0743AF0740164017009C2913E
:104563009003A6746780289003A674618021743F2A
:10457300F0A3745AF09061A0747FF0740164017029
:1045830009D2919003A6747180059003A6746A0200
:1045930043827F0802186BC082C0839004F1E064F9
:1045A30001700A9004F6E06004790C80027900023D
:1045B3004383C082C08375E1F19004F4E0605B142F
:1045C300600914605F14605714705E120B38900416
:1045D300EAE0F97AEB7B04120D0C7AD67BBE7C8978
:1045E3007D8E120D427A557B557C557D00120D1838
:1045F3009004F5E0F9120D247901120D7E9004E880
:10460300E0F8A3E0C82416F582E83400F58374507B
:10461300F0A3740BF07900024383120B3E80AF12B8
:104623000B4480AA120B4A80A5791280EA74F01217
:10463300179975D90D9004D5E0A2E0E4331313F86C
:104643009004EAE0C4333354C0484401F5D978E810
:10465300790488828983A3A3A3E0F5D98882898317
:10466300A3A882A983E864EE7003E9640470E37885
:10467300D5790488828983A3E0F5D988828983A3C5
:10468300A882A983E864DB7003E9640470E575E13B
:10469300959004D5E0F97AD67B04120D12900C9F05
:1046A30074EAF0A3740AF0A37446F0A3740CF0A3A5
:1046B3007446F0A3740CF0A37446F0A3740CF0A337
:1046C30074F0F0A3740AF0A37446F0A3740CF0A37F
:1046D3007408F0A3740BF0900CAD7446F0A3740C43
:1046E300F0A37446F0A3740CF0A37446F0A3740C07
:1046F300F0A37446F0A3740CF0A37446F0A3740CF7
:10470300F0A37446F0A3740CF09004F4E0640190F9
:1047130004E87012E0F8A3E0F5838882A3A3750888
:10472300007509088010E0F8A3E0F5838882A3A34D
:10473300750804750900750A00750B0078081215D1
:104743006D750CFF750DFF750EFF750F00780879F9
:104753000C1215BB9004E8E0F8A3E0C8240EF58220
:10476300E83400F58378081216039004E8E0F8A310
:10477300E0C82414F582E83400F5837413F0900341
:10478300A27402F002459574F71217999004FAE0A7
:104793002407F5D99004EAE0C4333354C0F5D9783B
:1047A300E8790488828983A3A3A3E0F5D988828961
:1047B30083A3A882A983E864EE7003E9640470E329
:1047C3009004FAE0601F78E87904FAE82413F5828C
:1047D300E93400F583E0F5D988828983A3A882A907
:1047E300831AEA70E690051AE02407F5D99004EAE3
:1047F300E0C4333354C04404F5D978E8790488829B
:104803008983A3A3A3E0F5D988828983A3A882A976
:1048130083E864EE7003E9640470E390051AE060D2
:104823001F78E87904FAE82433F582E93400F58344
:10483300E0F5D988828983A3A882A9831AEA70E65E
:1048430075E195900C9F74F6F0A3740AF0A3744677
:10485300F0A3740CF0A37446F0A3740CF0A3744695
:10486300F0A3740CF0A374F0F0A3740AF0A37446DD
:10487300F0A3740CF0A37408F0A3740BF0900CADC8
:104883007446F0A3740CF0A37446F0A3740CF0A365
:104893007446F0A3740CF0A37446F0A3740CF0A355
:1048A3007446F0A3740CF0A37446F0A3740CF09058
:1048B30004E8E0F8A3E0C8240EF582E83400F583A9
:1048C30074FFF0A3F0A3F0A3F09004E8E0F8A3E0F2
:1048D300C82414F582E83400F5837412F09003A21F
:1048E3007401F0FF02186B74F71217999004FAE041
:1048F3002407F5D99004EAE0C4333354C04402F5E5
:10490300D978E8790488828983A3A3A3E0F5D988B9
:10491300828983A3A882A983E864EE7003E964040F
:1049230070E39004FAE0601F78E87904FAE824134E
:10493300F582E93400F583E0F5D988828983A3A859
:1049430082A9831AEA70E675E195900C9F7402F0D0
:10495300A3740BF0A37402F0A3740BF0A37402F01E
:10496300A3740BF0A37402F0A3740BF0A37402F00E
:10497300A3740BF0A37402F0A3740BF0A37408F0F8
:10498300A3740BF0900CAD7446F0A3740CF0A374F5
:1049930046F0A3740CF0A37446F0A3740CF0A37454
:1049A30046F0A3740CF0A37446F0A3740CF0A37444
:1049B30046F0A3740CF09004E8E0F8A3E0C8240EDA
:1049C300F582E83400F58374FFF0A3F0A3F0A3F0BD
:1049D3009004E8E0F8A3E0C82414F582E83400F575
:1049E300837414F09003A27404F0024CB174F712B0
:1049F30017999004FAE02407F5D99004EAE0C43348
:104A03003354C04406F5D978E8790488828983A3AE
:104A1300A3A3E0F5D988828983A3A882A983E86444
:104A2300EE7003E9640470E39004FAE0601F78E831
:104A33007904FAE82413F582E93400F583E0F5D923
:104A430088828983A3A882A9831AEA70E690051A4B
:104A5300E02407F5D99004EAE0C4333354C0440496
:104A6300F5D978E8790488828983A3A3A3E0F5D9EB
:104A730088828983A3A882A983E864EE7003E9642A
:104A83000470E390051AE0601F78E87904FAE824DB
:104A930033F582E93400F583E0F5D988828983A36D
:104AA300A882A9831AEA70E675E195900C9F74FCBD
:104AB300F0A3740AF0A37446F0A3740CF0A3744635
:104AC300F0A3740CF0A37446F0A3740CF0A3744623
:104AD300F0A3740CF0A37446F0A3740CF0A3740851
:104AE300F0A3740BF0900CAD7446F0A3740CF0A318
:104AF3007446F0A3740CF0A37446F0A3740CF0A3F3
:104B03007446F0A3740CF0A37446F0A3740CF0A3E2
:104B13007446F0A3740CF09004E8E0F8A3E0C82412
:104B23000EF582E83400F58374FFF0A3F0A3F0A33D
:104B3300F09004E8E0F8A3E0C82414F582E8340018
:104B4300F5837415F09003A27403F0024CB1C08294
:104B5300C0839004E8E0F8A3E0C82406F582E834B3
:104B630000F583E402438074F71217999003D0E0B1
:104B7300F875F003A4C8AAF02AF974D228F87403CC
:104B830039F9E82405FAE93400FB8A828B83E0FCD7
:104B9300A3E0FD88828983A3A3A3A3A3A3A3A3A3C1
:104BA300ECF0A3EDF088828983A3A3A3A3A3A3A31B
:104BB300E024FFF8A3E034FFF98A828B83E8F0A3B3
:104BC300E9F0024CB174F7121799EAFEEBFF90611A
:104BD300D0E06003024CA575D90E75D90375D904CD
:104BE300EE248BF582EF3400F583E5822408F8E5A3
:104BF300833400F9E0F5D9A3E865827003E965839E
:104C030070F2EE2483F582EF3400F583E582240409
:104C1300F8E5833400F9E0F5D9A3E865827003E988
:104C2300658370F275E1957908EE248BFAEF340011
:104C3300FB120BF27904EE2483FAEF3400FB120B20
:104C4300F27C00EEF8EFF9ECFAC3E49AFA95E0FB94
:104C5300EE2AFAEF3BFBEA248AF582EB3400F58374
:104C6300E0C0E0E824AAF582E93400F583D0E0F05F
:104C73000C88828983A3A882A983ECC3940840C7C4
:104C8300EE246FF582EF3400F583E0F8A3E0F9EE4C
:104C93002471F582EF3400F583E8F0A3E9F079019C
:104CA300800279008008F0EEA2E092AF79007F01E4
:104CB30002186BC082C08375D90275D90375D905F3
:104CC30075E195EA246FF582EB3400F583E0F8A3F0
:104CD300E0F9EA2471F582EB3400F583E8F0A3E907
:104CE300F0790102438374F6121799EAFEEBFF9001
:104CF30005457406F075084575090578081219AC61
:104D03007C017903120C3A740212173A75D90675AD
:104D1300D903758245758305E0F5D9A3E582644A15
:104D23007004E583640570F075E1959003A2E06477
:104D330008701EEE246FF582EF3400F583E0F8A3CC
:104D4300E0F9EE2471F582EF3400F583E8F0A3E98E
:104D5300F07901024FB774F6121799EAFEEBFF9050
:104D630061D0E070667801900545740BF09003A262
:104D7300E06407701975084575090578081219ACC0
:104D83007C017903120C3A740212173A7805740104
:104D930028F5D975D903758245758305E8FAE0F5D9
:104DA300D9A31AEA70F875E195EE246FF582EF3412
:104DB30000F583E0F8A3E0F9EE2471F582EF340007
:104DC300F583E8F0A3E9F0790180027900024FB797
:104DD30074F7121799EAFEEBFF75D90375D90375BA
:104DE300D90DEE24DDF582EF3400F583E0F5D975B6
:104DF300E1957904120D48EE246FF582EF3400F546
:104E030083E0F8A3E0F9EE2471F582EF3400F58333
:104E1300E8F0A3E9F07901024CB174F6121799EAAC
:104E2300FEEBFF9061D0E0F87480C398FAEE248221
:104E3300F582EF3400F583E06004780480027800A3
:104E4300E8240BF8EAC3985003024EE27D0990056B
:104E530045EDF0EE24E2F8EF3400F97A467B057C69
:104E63000888828983E08A828B83F088828983A37E
:104E7300A882A9838A828B83A3AA82AB831CEC704A
:104E8300E0EE2482F582EF3400F583E0601D7508BF
:104E93004575090578081219AC7C097903EEFAEF18
:104EA300FB120C3A740212173A7D0D74012DF5D9D9
:104EB30075D9037582457583058D08E0F5D9A3156A
:104EC30008E50870F675E1957904120D48EE241D86
:104ED300F582EF3400F583E4F0A3F07901800279E1
:104EE30000024FB774F6121799EAFEEBFF9061D0F8
:104EF300E0F87480C398FAEE2482F582EF3400F56B
:104F030083E06004780480027800E82408F8EAC3A8
:104F1300985003024FB57806900545740CF0900342
:104F2300BFE0900546F09003C0E0900547F0900382
:104F3300C1E0900548F09003C2E0900549F090036A
:104F4300C3E090054AF0EE2482F582EF3400F58346
:104F5300E0601B75084575090578081219AC7C06D5
:104F63007903EEFA120C3A740212173A780A7401B2
:104F730028F5D975D9037582457583058808E0F549
:104F8300D9A31508E50870F675E1957904120D4863
:104F9300EE246FF582EF3400F583E0F8A3E0F9EE39
:104FA3002471F582EF3400F583E8F0A3E9F0790189
:104FB300800279007F0202186B74F6121799EAFED9
:104FC300EBFF9061D0E0F87480C398FAEE2482F589
:104FD30082EF3400F583E06004780480027800E80F
:104FE3002404F8EAC39850030250967802900545CA
:104FF300E8F0EE24F4F582EF3400F583E090054603
:10500300F0EE2482F582EF3400F583E0601B75082F
:105013004575090578081219AC7C027903EEFA127A
:105023000C3A740212173A7806740128F5D975D927
:10503300037582457583058808E0F5D9A31508E54E
:105043000870F675E195EE2473F582EF3400F5836D
:10505300E4F0EE247FF582EF3400F583E4F0EE24F0
:105063001DF582EF3400F583E4F0A3F07904120D0B
:1050730048EE240DF582EF3400F583E0F8A3E0F960
:10508300EE2471F582EF3400F583E8F0A3E9F079BB
:105093000180027900024FB774F61217999061D01C
:1050A300E0F87480C398FCEA2482F582EB3400F5BF
:1050B30083E06004780480027800E82404F8ECC3F9
:1050C30098405B79029005457407F0EA24F5F58270
:1050D300EB3400F583E0900546F0EA2482F582EB99
:1050E3003400F583E06018750845750905780812E2
:1050F30019AC7C0209120C3A740212173A7906743D
:105103000129F5D975D903758245758305E9F8E059
:10511300F5D9A318E870F875E19579018002790053
:10512300024FB774F5121799E9FCA2AFE433F50AFD
:10513300C2AF7D0080010DEA246EF582EB3400F5E9
:1051430083E0F8EDC398501A8D08EA2508F8EB348C
:1051530000F9E8246AF582E93400F583E06C70D63F
:105163008024EA246EF8EB3400F9E0FEEA2EFAEB31
:105173003400FBEA246AF582EB3400F583ECF08813
:10518300828983E004F0E50AA2E092AF7F0302186C
:105193006B74F6121799A2AFE433FDC2AFEA246E23
:1051A300F582EB3400F583E014F07C0060368C0864
:1051B300EA2508F8EB3400F9E8246BF582E93400BA
:1051C300F583E0C0E0E8246AF582E93400F583D092
:1051D300E0F00CEA246EF582EB3400F583E0F8ECA2
:1051E300C39840CAEA246DF582EB3400F58374FF5B
:1051F300F0EA2469F582EB3400F583E4F0EDA2E0F4
:1052030092AF024FB7C082C083E5A8F8C2AFEA24C9
:105213006AF582EB3400F583E9F0EA2469F582EB61
:105223003400F583E4F0E8A2E7A2E792AF024383F8
:1052330074F3121799EAFEEBFFECFAEDFB8A828B0B
:1052430083A3A3A3A3E0541FF0EE2436F582EF3427
:1052530000F583E4F0F50AEEFCEFFD8A828B83E030
:10526300C0E0EC245DF582ED3400F583D0E0F07509
:105273000B00E50A33333354F8F50C8A828B83E051
:10528300F508750900E50B78081216F2E508A2E0A7
:10529300502FEE2436F8EF3400F988828983E0F545
:1052A30008EE2508F508EF3400F509E5082438F57C
:1052B30082E5093400F583E50CF088828983E004F4
:1052C300F0050B050CE50BC3940840AF050A8A8271
:1052D3008B83A3AA82AB838C828D83A3AC82AD83A1
:1052E300E50AC39405500302525E7F0502186B74EE
:1052F300F71217999003CEE0640170030254507AB9
:10530300009003D4E060030254507401F0A3E4F06E
:10531300A3F090043404F0900439F09003D7E4F040
:10532300A3F0A3F0A3F09003E104F0900407E4F0EA
:105333009003EAF0A3F0A3F0A3F0A3F0A3F0A3F08B
:10534300900451F0900445F090043A7480F0A3E483
:10535300F0900440F09004BCF0A3F0A3F0A3F0A3FA
:10536300F0A3F0A3F0A3F09004C5F0900454F090E0
:1053730004A4F0A3F0A3F0A3F0A3F0A3F0A3F0A37D
:10538300F0A3F0A3F09004B0F09004B2F09004AE58
:10539300F09004C8F0A3F0A3F0A3F0A3F0A3F0A34C
:1053A300F0A3F078CE7903E8246EF582E93400F5B2
:1053B3008374FFF00A88828983A3A882A983EAC33E
:1053C300940440E37ACE7B0378DC79048882898372
:1053D300E0C0E0EA2461F582EB3400F583D0E0F02D
:1053E30088828983A3A882A9838A828B83A3AA82C2
:1053F300AB83E864E17003E9640470D07ACE7B0385
:1054030078B5790388828983A3E0C0E0EA24E6F5CE
:1054130082EB3400F583D0E0F088828983A3A882ED
:10542300A9838A828B83A3AA82AB83E864BD7003BA
:10543300E9640370CF9003CEE004F0640170089038
:1054430003D6E09003D0F07AD27B0380047A007B0A
:1054530000024CB1C082C0839003D5E4F09003D422
:10546300F09003CEF0A3F0A374FFF075E1F10243D3
:1054730083C082C083780079009003D5E06004780C
:10548300D2790388828983A3A3A3A3E0F902438388
:1054930074F6121799EAFEEBFFEE2463F582EF34FC
:1054A30000F583E0F8A3E0F9E8497003025538EE0C
:1054B3002463F8EF3400F97A007B00A2AFE433F5FC
:1054C30008C2AF88828983E0FCA3E0FDEC4D603A1B
:1054D30088828983E0FAA3E0FB8A828B83E0FCA3C2
:1054E300E0FD88828983ECF0A3EDF08A828B83E46C
:1054F300F0A3F088828983E0FCA3E0FDEC4D700A01
:1055030088828983A3A3E4F0A3F0E508A2E092AF25
:105513001212AC9004E2E004F09004E3E004F0EE35
:105523002463F582EF3400F583E0F8A3E0F9E8495A
:1055330060030254B28E828F83A3A3A3E0600F8E15
:10554300828F83A3A3A3E4F09003CFE014F090032E
:10555300CEE014F070069003D074FFF08E828F8338
:10556300A3A3E4F09004E1E0700D9003CFE06401A5
:1055730070057900120D2AEEFAEFFB120C6A024F46
:10558300B774F7121799EAFEEBFF8E828F83A3A3FA
:10559300A3A3E0FA7B00120946EEFAEFFB120BBC61
:1055A300120C52024CB1C082C08378B57903888251
:1055B3008983A3E4F088828983A3A882A983E8640A
:1055C300BD7003E9640370E69003B674010243827D
:1055D30074F6121799EAFEEBFFEC2403F8ED34009E
:1055E300F988088909EC2407F8ED3400F9E8FCE9A7
:1055F300FD8C828D83E0F8A3E0F985088285098319
:10560300E0FAA3E0FB121699EE240DF582EF3400C5
:10561300F583E8F0A3E9F08C828D83E0F8A3E0F949
:10562300850882850983E0FAA3E0FB1216998B09AA
:10563300EA45096013EE240DF582EF3400F583E0AB
:105643002401F0A3E03400F0024FB774F612179967
:10565300EAFEEBFFEE242EF582EF3400F583E0FC47
:10566300A3E0FD780079FAECFAEDFB121699EE242B
:105673006FF582EF3400F583E8F0A3E9F078007961
:10568300FAECFAEDFB1216998B09EA45096013EE61
:10569300246FF582EF3400F583E02401F0A3E034B6
:1056A30000F0024FB774EC121799EAFEEBFF741483
:1056B30012178D78081215F4120CEE8A0C8B0D8CD0
:1056C3000E8D0F7510027511007512007513007899
:1056D3000C791012155A7510FF7511FF7512FF78AA
:1056E3000C79101215BB780C1219A88E828F83E0E7
:1056F300F8A3E0F5838882A3A31216121223B574CC
:105703000412173AE9600302580C8E828F83E02457
:1057130002F8A3E03400F9E8FAE9FB8A828B837884
:10572300081215808A828B837508FF7509FF750A35
:10573300FF750B0078081215E1EE240BF582EF34A8
:1057430000F583C082C0838E828F83A3A3A3A3A308
:10575300E02401F8A3E03400F9D083D082E068703C
:1057630003A3E0697005790102580E8E828F83A32B
:10577300A3A3A3A3A3A3E02401F0A3E03400F0EECA
:105783002473F582EF3400F583E064017036EE2470
:1057930074F582EF3400F583E0F8A3E0F98E828F8D
:1057A30083A3A3A3A3A3A3A3E0687003A3E06970E7
:1057B30013EE2474F582EF3400F583E02401F0A3A3
:1057C300E03400F0EE247FF582EF3400F583E064EB
:1057D300017036EE2480F582EF3400F583E0F8A300
:1057E300E0F98E828F83A3A3A3A3A3A3A3E068708E
:1057F30003A3E0697013EE2480F582EF3400F58390
:10580300E02401F0A3E03400F0790002451B74F6B4
:10581300121799E9FEECFFEA2462F582EB3400F5F6
:1058230083E0640160030258BA9061D0E0F508EAAE
:105833002482F582EB3400F583E06004780480026F
:1058430078007480C39508FC95E0FDEF28F8E434F4
:1058530000F9E82402F8E93400F9EC98ED99A2D2B2
:1058630065D033404E740A12178DE0F508A3E0F5B6
:1058730009EA2482F582EB3400F583E060157808A9
:105883001219ACEFFCEEF9120C3A740212173A74C7
:10589300042FFF74012FF5D98ED9EF600F8508828D
:1058A300850983F8E0F5D9A318E870F875E19579CF
:1058B3000080067907800279FF024FB774F7121749
:1058C30099A2AFE433FEC2AF8A828B83E0F8A3E0F0
:1058D300F9E8498A828B83600AA3A3E0F8A3E0F581
:1058E300838882ECF0A3EDF08A828B83A3A3ECF090
:1058F300A3EDF08C828D83E4F0A3024CA974F7121C
:105903001799E96021F88C828D83E08A828B83F07A
:105913008C828D83A3AC82AD838A828B83A3AA827C
:10592300AB8318E870E0ECFAEDFB024CB174F012B3
:10593300179974FA121724890BECFEEDFF750A0010
:105943008A088B0978081219F0000410635B7359F5
:105953009159AB59C359E159F9591C5A345A485A08
:10596300725AFA5A0B5B225B3D5B635B635B885A3B
:105973007401650B6003025B5E8E828F83E0F8C364
:1059830094034003025B5EE8900D90025B3A74025D
:10599300650B6003025B5E8E828F83126260900DE3
:1059A30091E8F0A3E9025B3A7401650B6003025BC3
:1059B3005E125B8B4003025B5EE8900776025B3A04
:1059C3007401650B6003025B5E8E828F83E0F8C314
:1059D30094054003025B5EE8900777025B3A74012B
:1059E300650B6003025B5E125B8B4003025B5EE848
:1059F300900778025B3A7410650B6003025B5E7577
:105A0300081075090078081219AC7A797B07120F10
:105A1300A6740212173A025B847401650B600302D9
:105A23005B5E125B8B4003025B5EE8900789025B5F
:105A33003A7401650B6003025B5E8E828F83E09094
:105A43000D94025B3A7404650B6003025B5E8E8205
:105A53008F83780C1215F4908300780C1214135072
:105A630003025B5E90078B780C121603025B84E9DA
:105A73006003025B5E1206C4E97005121168806060
:105A830090081E806E7407650B6003025B5E7508E9
:105A93000675090078081219AC8E828F83A3AC8235
:105AA300AD83740212178DAA82AB83120FAC7402FA
:105AB30012173A7C007D00851882851983AA82AB70
:105AC300838E828F83E0F912110EE9F508C3940ADD
:105AD3004003025B811206C4E9700CA90812116E1F
:105AE300795012132A806F741F2508F582740834C5
:105AF30000F583740180407401650B705E125B8B4B
:105B03005059E890078A802F7401650B704D8E827F
:105B13008F83E0F8C3940A5042E8900D9380187481
:105B230001650B70368E828F83E0F874F928C39475
