:020000040000FA
:0600000002010A0221E7E3
:03002B0002264169
:03003B0002266238
:030043000225F59E
:0300530002225A2C
:03006B0002261B4F
:10008300022053E5C754F84401F5C7790122000063
:100093000080FB120086B900030200F4E4792178A2
:1000A30008B800028004F709D8FCE479297802B87B
:1000B30000028004F709D8FCE49002817856790A9B
:1000C3008002F0A3D8FCD9FA900BD6AA82AB839016
:1000D300013A784079048015E493A3AC82AD838A16
:1000E300828B83F0A3AA82AB838C828D83D8E9D9D8
:1000F300E775828B7583B2740312011C7582917547
:100103008300740012011C75D00075813F7518813E
:10011300751902759F00020096C09FF59FE473D086
:100123009F22D083D082C09FE493C0E0740193C028
:10013300E0740293F59F22FF0000B400002800281A
:1001430000283075A000A000A000A000000800084F
:10015300E001F0001000100010001000100010006B
:1001630050005000500010001000D00700000000A5
:1001730000000F00010005003075070010000100AA
:1001830081FF00000000FF770695067D06FF02024F
:100193000208025000A0000000E80302758301007A
:1001A3000030830271830100002D0C026B83010078
:1001B30000B3020271830100002E0C026983010067
:1001C30000C9020271830100002F0C026783010042
:1001D30000CB02027183010000300C025983080036
:1001E30000CC02027183010000310C02578301002D
:1001F30000320CFF0100FF200275830100003983E8
:10020300027183010000960C025583000000000078
:10021300026D830300001903470C470C470C470C7E
:10022300470C470C470C470C470C470C470C470C33
:10023300470CC90EE10EC30EFFFF4902000304126F
:10024300640275830100003683027183010000DEBE
:100253000C025183010000DF0C026D830300006771
:1002630007020202020202020202010D0000001054
:1002730001027583010000428302718301000000C3
:100283000D0283830100006D0702718301000001E9
:100293000D024783010000388202718301000002CE
:1002A3000D024583010000018202718301000003F6
:1002B3000D0249830100004981027183010000049A
:1002C3000D02738301000025810271830100000583
:1002D3000D027B8301000037810271830100000658
:1002E3000D027D830100005B810271830100000721
:1002F3000D027F830100000F820271830100000859
:100303000D028183010000090D01E803053F100A76
:10031300FF00120275830100003F83027183010015
:1003230000B10D024B83010000420A026D830300FA
:1003330000430A01307503020106000000000000BB
:1003430000000000000000000000000000000000AA
:10035300000000000000FFFF0600800CE8035509C1
:100363000954657048656174410512140014000254
:100373000A000201050302F0FF54657048656174C9
:1003830041000000000000000000000000006D13A9
:10039300000073130A436861726163746572697361
:1003A300746963203100024368617261637465722A
:1003B30069737469632032001A43686172616374FC
:1003C30065726973746963203300104368617261F5
:1003D30063746572697374696320340002436861EE
:1003E30072616374657269737469632035000275A1
:1003F300830100003C83027183010000330E0287F6
:1004030083030000A10B026F83010000340E02710D
:1004130083010000450E028983010000B50B026FC2
:1004230083010000460E027183010000570E02652E
:1004330083030000B60B026F83010000580E0271A4
:1004430083010000690E026383000000CA0B026D82
:1004530083030000CB0B026F830100006A0E02715D
:10046300830100007B0E026183040000D10B026F45
:10047300830100007C0E12012512A103120125291C
:10048300A1031201255AA10312012595A10312010B
:1004930025BFA103120125E9A10312012500A2032F
:1004A30012012517A2031201252EA20312012557BB
:1004B300A2031201256AA20312012580A2031201DD
:1004C3002593A203120125BAA203120125A0F50167
:1004D300120125A4F601120125DCF601120125FF04
:1004E300F6011201250AF7011201252DF701120168
:1004F300253CF80112012511F9011201258CF9019E
:1005030012012514FA011201254FFA011201258661
:10051300FA0112012514FB01120125EDFB01120161
:10052300254DFC0112012558FC01120125D7FC01C0
:10053300120125DAFC01120125DDFC011201256CF3
:10054300FD011201256FFD011201259FFD0112011D
:1005530025C9FD01120125B7FE0112012569FF011D
:10056300120125A1EA02120125C9EA02120125F7A7
:10057300EA021201252EEB021201258CEB02120175
:1005830025D7EB0212012522EC0212012562EC02AF
:10059300120125A8EC02120125D6EC0212012593C3
:1005A300ED021201259DED02120125AAED021201B1
:1005B30025DDED02120125A9EE02120125B5EE0299
:1005C300120125CDEE02120125D7EE02120125CB31
:1005D300AC03120125D9AC03120125F1AC031201BE
:1005E3002509AD0312012515BC01120125C1BC016A
:1005F3001201253CBD011201255DBE0112012599A1
:10060300BE0112012542BF0112012529C0011201B9
:10061300258DC101120125E4C10112012565C20125
:1006230012012555C301120125A2C3011201252878
:10063300C4011201255AC4011201256EC60112011B
:1006430025B0C601120125CEC60112012551C701ED
:1006530012012525C801120125EDC80112012557F4
:10066300DE021201252ADF02120125D3DF02120165
:100673002526E002120125D6E00212012562E102DD
:100683001201254EE2021201257DE202120125909C
:10069300E302120125D8E302120125ADE40212019F
:1006A30025E9E40212012505E502120125E8B0035C
:1006B300120125F787031201250D88031201253343
:1006C30088031201254F8903120125598903120159
:1006D300258E8A03120125868B031201257AE502F2
:1006E300120125AAE602120125DDE60212012527E1
:1006F300E702120125EEE802120125A66E0012019F
:1007030025106F001201256F70001201257F700004
:10071300120125AC7000120125037100120125ACF2
:100723007100120125B372001201257D73001201BD
:1007330025DD7400120125207500120125C5750001
:100743001201251276001201253876001201254682
:1007530078001201254B7800120125507A0012010E
:10076300259D7A00120125107B00120125437B0091
:10077300120125E57B001201258E7C00120125C69E
:100783007C00120125C97C00120125117D00120194
:1007930025517D00120125A87D001201252E950308
:1007A3001201254695031201258E9503120125A4F6
:1007B3009503120125EB9503120125FF9603120100
:1007C300258C9703120125D79703120125D4260000
:1007D300120125E026001201251B270012012560C6
:1007E3002700120125202800120125A62800120146
:1007F300250B290012012537290012012570290034
:10080300120125AE2B00120125922D00120125782D
:100813002F00120125BB30001201250933001201FC
:10082300251B34001201256635001201257636009A
:10083300120125933600120125CE3600120125F050
:100843003600120125533700120125143C00120112
:1008530025A93C00120125FA3C00120125213D0087
:10086300120125733D00120125913D00120125EB74
:100873003D00120125D43E001201254A4000120119
:1008830025CE40001201255EEF0212012568EF021A
:10089300120125ABEF02120125C6EF021201255604
:1008A300F0021201257EF002120125BBF0021201B3
:1008B30025F2F0021201251BF10212012590F1022B
:1008C300120125A5F102120125BAF102120125EB4D
:1008D300F102120125FFF10212012524F202120195
:1008E300255EF2021201258AF202120125C2F202EA
:1008F30012012541F3021201258AF302120125B4E4
:10090300F302120125DFF302120125CDA803120120
:1009130025E99A02120125179B02120125659C0203
:10092300120125459D02120125649D02120125E154
:100933009D02120125249E021201257A9F021201B3
:10094300253BA002120125C2A20212012563A302C4
:1009530012012559A40212012556A502120125B040
:10096300A6021201253BA702120125957E00120162
:1009730025FE7E00120125527F00120125797F009A
:10098300120125AA7F0012012507F4021201257422
:10099300F402120125BBF402120125D3F502120160
:1009A30025CFF602120125B2F702120125D9BD02A5
:1009B3001201251BBE02120125EDBE02120125C63E
:1009C300BF02120125C0C002120125A2C1021201F9
:1009D300250BC202120125C1C20212012535C30231
:1009E300120125A1C302120125CAC3021201254423
:1009F300C402120125DDC40212012542C5021201FF
:100A03002557C5021201259DC502120125B6C5024F
:100A13001201251BC6021201251EC602120125C1A1
:100A2300FC02120125E9FC0212012527FD02120135
:100A330025E5FD021201254CFE0212012568FE0286
:100A430012012590FE02120125C0FE02120125CFDC
:100A5300FE021201254CFF0212012572FF02120150
:100A630025B3AC0112012591AE01120125C3B001DA
:100A7300120125FFB0011201252CB1011201251627
:100A8300B20112012561B201120125ACB2011201BA
:100A930025BEB201120125FEB20112012533B301B5
:100AA30012012581B301120125B0B301120125D32F
:100AB300B30112012520B401120125A5B4011201CD
:100AC30025BFB601120125FEB8011201253FB90168
:100AD300120125E1BA0112012522BB01120125955C
:100AE300BB01120125EBBB01120125D48D021201BA
:100AF30025D28E021201256B95021201258C9702D5
:100B0300120125579902120125BF9A0212012535B8
:100B13004100120125E441001201252A420012017D
:100B2300256A43001201250045001201257A45007C
:100B33001201259545001201251046001201256A70
:100B43004700120125CA4800120125D049001201AD
:100B530025314B001201254A4B00120125A84B00F9
:100B6300120125964C00120125C94C0012012539AA
:100B73004D00120125B34D00120125FD4D00120158
:100B830025C74E001201259C4F001201257B500002
:100B9300120125065100120125745100120125E8A6
:100BA3005100120125135200120125D252001201E5
:100BB30025375400120125545400120125735400A3
:100BC300120125645500120125895500120125B330
:100BD30055001201252E56001201258856001201D8
:100BE30025F157001201259F5800120125E05800F6
:100BF3001201250080021201254E80021201255A9E
:100C03008002120125388102120125698102120135
:100C1300259A81021201251A8202120125528202AB
:100C2300120125A48202120125E18202120125FE8E
:100C330084021201252487021201250F8902120161
:100C430025F98A02120125F8FF01120125A0980156
:100C5300120125D09801120125A99F011201252E09
:100C6300A1011201252BA70112012513A8011201CD
:100C73002550A80112012573A801120125A4A8017A
:100C8300120125ADA801120125B7A801120125A55E
:100C9300A9011201259BAA011201259183011201C9
:100CA30025908701120125968701120125D18E0116
:100CB300120125EA9301120125FC8E03120125F688
:100CC3008F031201256A9003120125A890031201D4
:100CD300251C91031201259591031201259E910371
:100CE300120125AA9103120125BF9103120125FDCB
:100CF300910312012513920312012574F8021201C4
:100D03002581F8021201259BF802120125DAF80267
:100D130012012518F9021201257DF902120125920B
:100D2300F9021201259DF902120125AAF902120105
:100D330025C1F902120125CFF902120125DAF902C0
:100D4300120125E6F902120125F5F9021201250027
:100D5300FA0212012523FA02120125CAFA0212012C
:100D630025DAFA02120125F4FA0212012511FB0217
:100D73001201252DFB0212012552FB021201255DF2
:100D8300FB0212012572FB0212012586FB021201EE
:100D930025E7FB02120125EDFB02120125F3FB02FD
:100DA300120125F9FB0212012511FC02120125444F
:100DB300FC0212012577D901120125FBD901120189
:100DC30025AADA0112012509DC011201252ADE0117
:100DD30012012516DF011201254BDF011201256DDA
:100DE300DF011201251CE00112012514E2011201A9
:100DF300253DE201120125CFE20112012501E301A4
:100E03001201250EE30112012565E3011201258B71
:100E1300E301120125F8E501120125FBE6011201A8
:100E23002553E70112012506CB0112012510CC0140
:100E3300120125F7CC0112012501CD011201252351
:100E4300CD011201252FCD01120125C8CE011201BA
:100E530025F7CE0112012513D0011201256CD00113
:100E6300120125D2D101120125B1D2011201250DA2
:100E7300D3011201257AD301120125B5D301120141
:100E830025F4D301120125ADD601120125C7D601E0
:100E930012012553D70112012561D701120125BA89
:100EA300D701120125C8D7011201253BD801120130
:100EB300259FD801120125E9D801120125BCA702FB
:100EC300120125DEA70212012504AA021201251927
:100ED300AD0212012531AE02120125E4AE02120168
:100EE30025C6AF02120125CCA203120125F1A203EC
:100EF30012012563A303120125DDD602120125E6A3
:100F0300D602120125EFD602120125C6D70212011D
:100F13002577D902120125ADD902120125E7D9029D
:100F23001201251DDA0212012557DA021201258B5F
:100F3300DA02120125B7DA0212012500DB021201DF
:100F4300253ADB0212012583DB02120125DBDB02DA
:100F530012012510DC021201256BDC02120125A50A
:100F6300DC02120125F6DC021201252CDD0212013E
:100F73002566DD0212012594DD02120125B7DD028B
:100F830012012563AE031201258FAE03120125EA78
:100F9300AE03120125F4AE0312012504AF031201BF
:100FA3002542C6021201254CC6021201258AC60239
:100FB300120125D3C6021201250DC70212012567AE
:100FC300C70212012588C70212012560CA02120155
:100FD3002569CA02120125B6CA02120125DFCA0217
:100FE300120125E9CA0212012555CB02120125E798
:100FF300CB0212012531CC0212012567CC0212016A
:1010030025F3CC0212012534CD021201256BCD024A
:101013001201257DCD021201259CCD02120125A5C9
:10102300CD021201256DCE02120125EAAA03120197
:1010330025219F03120125579F031201258D9F032D
:10104300120125D8A0031201256CB10312012582D8
:10105300B1031201258CB103120125D6B10312018C
:1010630025008003120125158003120125C8800382
:101073001201250881031201252181031201255C38
:101083008103120125A98103120125DB81031201CA
:10109300251D820312012513A6031201253CA60375
:1010A3001201256BA60312012503A703120125458F
:1010B300A703120125439203120125519203120142
:1010C30025C29203120125869403120125A49403D9
:1010D300120125129D03120125429D03120125B21F
:1010E3009D03120125529E0312012501980312014B
:1010F3002526980312012550980312012535B203C2
:10110300120125105900120125755B0012012516E5
:101113005D00120125CA5D001201255D5E0012010A
:1011230025E25E00120125075F001201255D6200C2
:10113300120125E3620012012516640012012550F5
:101143006400120125856400120125456600120121
:1011530025A26600120125EB6600120125566700E1
:10116300120125C76700120125F967001201251135
:1011730068001201255A69001201256A69001201EB
:1011830025856A00120125A76A00120125DD6A0080
:10119300120125916C001201251E6D001201255DBF
:1011A3006D00120125816E00120125A2AD0312010B
:1011B30025B3AD0312012558AE03120125DEB20398
:1011C3001201251DB3031201257BB303120125531D
:1011D300B00312012563B00312012578B003120195
:1011E30025DEB003120125E6A9031201256BAA032C
:1011F300120125D1AA031201258AA703120125BED4
:10120300A703120125E7A7031201255EA803120114
:1012130025E1AB0312012502AC0312012556AC03F1
:10122300120125A0AC03120125F07F001201250E47
:10123300AF031201251DAF0312012568AF0312018D
:1012430025908B03120125208C03120125AC8C03FE
:10125300120125458D03120125D68D03120125DFC9
:101263008D031201255D8E03120125708E03120179
:1012730025868E03120125E68E03120125F98E03BE
:1012830012012571A403120125C3A4031201254DE4
:10129300A503120125B4A503120125CD9A0312015A
:1012A30025F79A03120125C59B03120125A09C0370
:1012B3001201259BCE0212012562CF02120125994C
:1012C300CF02120125C3CF0212012523D00212013E
:1012D3002579D002120125DED00212012576D10232
:1012E30012012585D2021201251CD402120125A95F
:1012F300D40212012510D50212012527D5021201AD
:101303002541D6021201257FD602120125B7AF036C
:10131300120125E7AF03120125ECAF03120125A14A
:10132300E70112012522EB01120125AAEC011201AA
:101333002501ED0112012520ED011201259EED018C
:1013430012012534EF0112012519F001120125279D
:10135300F401120125FDF401120125EAB202120182
:10136300250AB60212012541B602120125DCBB0291
:10137300120125CDBC021201252884031201256D1B
:1013830084031201258A84031201254F8503120168
:1013930025B88503120125858603120125BE87031F
:1013A30012012527B303120125BAFF0212012553A7
:1013B300B303120125DAFF01E066701008A3E066AB
:1013C300700A08A3E066700408A3E06622C3E796E8
:1013D3000809E7960809E7960809E79622C3E09605
:1013E30008A3E09608A3E09608A3E09622C008C3EA
:1013F300E096F50808A3E096420808A3E0964208A1
:1014030008A3E09645087001D3D00822080808EA2B
:10141300C0E0EBC0E086F0E7A4FA180986F0E7A481
:101423002AFA180986F0E7A42AFA180986F0E7A42D
:101433002AFA1986F0E7A4FBE5F02AFA190886F0E0
:10144300E7A42BFBE5F03AFA190886F0E7A42BFB97
:10145300E5F03AFA18180986F0E7A4C5F02BFBE487
:101463003AFA1908E7C5F0C6A426F6E5F03BFBE413
:101473003AFA1886F0E7A4F6E5F00826F6E43B0806
:10148300F6E43A08F6D0E0FBD0E0FA22E4CFC0E07D
:10149300E4CEC0E0E4CDC0E0E4CCC0E075F020C30E
:1014A300E633F608E633F608E633F608E633F618CD
:1014B3001818EC33FCED33FDEE33FEEF33FFC3ECD2
:1014C3009709ED9709EE9709EF97191919400FFF3F
:1014D300EC97FC09ED97FD09EE97FE191906D5F077
:1014E300BEECF709EDF709EEF709EFF7191919D073
:1014F300E0FCD0E0FDD0E0FED0E0FF22601608085B
:1015030008C6C313C618C613C618C613C618C6130F
:10151300C6D5E0EA227009080808226016181818D0
:10152300C6C333C608C633C608C633C608C633C6E1
:10153300D5E0EA22E627F60809E637F60809E63792
:10154300F60809E637F622E026F608A3E036F608A1
:10155300A3E036F608A3E036F622E026F008A3E07F
:1015630036F008A3E036F008A3E036F022C3E6978E
:10157300F60809E697F60809E697F60809E697F6E6
:1015830022C3E096F008A3E096F008A3E096F008E3
:10159300A3E096F022E657F60809E657F60809E6AF
:1015A30057F60809E657F622E056F608A3E056F682
:1015B30008A3E056F608A3E056F622E056F008A387
:1015C300E056F008A3E056F008A3E056F022E0F658
:1015D30008A3E0F608A3E0F608A3E0F622E6F00885
:1015E300A3E6F008A3E6F008A3E6F022E0FAA3E0FE
:1015F300FBA3E0FCA3E0FD22EAF0A3EBF0A3ECF0F5
:10160300A3EDF022CAC0E0E6F0A308DAFAD0E0FACC
:1016130022CAC0E0E0A3C582CCC582C583CDC58301
:10162300F0A3C582CCC582C583CDC583DAE6D0E0FD
:10163300CA22C3E498F8E499F91216768026C3E423
:101643009AFAE49BFBE920E7E9121676E498F8E4BA
:1016530099F922C3E498F8E499F9121676E498F814
:10166300E499F9C3E49AFAE49BFB22EB20E7CFE980
:1016730020E7E0B90010BB0008E88AF084F8AAF07C
:1016830022E4FBC8FA22EB70227B10C833C8C933AB
:10169300C9335007C39AC3DBF280069A50012ADB91
:1016A300EAC833F4C8C933F4C9FA2275F008E4C8A8
:1016B30033C8C933C933C99AC99B5004C92AC93B22
:1016C300D5F0ECFBC833F4C8E4C9FA22600D08C6B0
:1016D300A2E713C618C613C6D5E0F322600C08C6EA
:1016E300C313C618C613C6D5E0F422700422600DD6
:1016F30018C6C333C608C633C6D5E0F41822251866
:1017030010AF08F518400215198008F518400215A6
:1017130019D2AF22C0D0251810AF08F51850020512
:10172300198008F51850020519D2AFD0D022251818
:10173300F58210AF08F518400215198008F5184016
:10174300021519D2AF85198322C5822518C582C512
:1017530083351910AF07F5198582188007F51985A8
:101763008218D2AFC583222518F582E43519F58393
:1017730022E4732518C582C0E0E51934FFC583C090
:10178300E0E518C3958224F810AF08858319858294
:10179300188008858319858218D2AFCEF0A3E5207F
:1017A300F0A37808E608F0A3DEFAEFF0A3E58124BE
:1017B300FAF8E608F0A3E608F0A3E608F0A30808A1
:1017C300E608F0A3E608F0A315811581D0E0FED06A
:1017D300E0F8158115811581E8C0E0EEC0E022250F
:1017E30018C582C0E0E51934FFC583C0E0E518C31E
:1017F300958224F910AF088583198582188008859E
:101803008319858218D2AFCEF0A3E520F0A3780820
:10181300E608F0A3DEFAEFF0A3E58124FBF8E6087F
:10182300F0A3E608F0A30808E608F0A3E608F0A38F
:1018330015811581D0E0FED0E0F815811581E8C04F
:10184300E0EEC0E022851983851882E0A3FEE0A3C1
:10185300F5207808E0A3F608DFFAE0A3FFE0A3C0D1
:10186300E0E0A3C0E0E0A3C0E0E0A3C0E0E0A3C0E9
:10187300E010AF0885821885831980088582188552
:101883008319D2AFD083D0820201228519838518B0
:1018930082E0A3FEE0A3F5207808E0A3F608DFFAD0
:1018A300E0A3FFE0A3C0E0E0A3C0E0E0A3C0E0E06A
:1018B300A3C0E010AF08858218858319800885824C
:1018C30018858319D2AFD083D08222C0D02518C502
:1018D30082C0E0E51934FFC583C0E0E518C39582F3
:1018E30024F310AF0885831985821880088583192E
:1018F300858218D2AFC8F0A3E9F0A3EAF0A3EBF016
:10190300A37908E709F0A3D8FAECF0A3EDF0A3EE6E
:10191300F0A3EFF0A3D0E0F0A3D0E0F0A3D0E0F089
:10192300A3E520F0A3E5F0F0A322851983851882AF
:10193300E0C0E0A3E0F9A3E0FAA3E0FBA37808E0AA
:10194300F608A3DFFAE0FCA3E0FDA3E0FEA3E0FFBB
:10195300A3E0C0E0A3E0C0E0A3E0F5D0A3E0F5205E
:10196300A3E0A3F5F010AF088583198582188008DA
:10197300858319858218D2AFD082D083D0E0F8D086
:10198300E03274048006740280027401C0E0F4043F
:10199300121731D0E01216072274048004740280F7
:1019A30000CCC0E0EDC0E0E518C39CCCAD195001FC
:1019B3001D10AF068C188D1980068C188D19D2AFA7
:1019C300121614D0E0FDD0E0FC22D083D082E9C00F
:1019D300E0E493A3C386F0C5F095F0F908E493A37C
:1019E30086F0C5F095F0700BE493A3C3994005E925
:1019F300048002A3E475F002A42582F582E5F035A4
:101A030083F583D0E0F9E493A3C0E0E493C0E0223C
:101A1300D083D082ECC0E0EDC0E0E493A3FCE49378
:101A2300A3FDED4C600D121A5FEC24FFFCED34FFB7
:101A3300FD80EFE493A3FCE493A3FDED4C600D1252
:101A43001A9EEC24FFFCED34FFFD80EFD0E0FDD0C7
:101A5300E0FCE493A3C0E0E493C0E022C0E0C3E46D
:101A63009396087401939618400FE49366700808E0
:101A7300740193661870007019A3A3C3E4939608C6
:101A83007401939618A3A3400DD0E0D0E0D0E002F8
:101A93001A4FA3A3A3A3A3A3D0E022C0E0C0F0885E
:101AA300F0E4936670080874019366187000A8F058
:101AB300A3A3700BD0F0D0E0D0E0D0E0021A4FA384
:061AC300A3D0F0D0E022E8
:101ACC0074F51217E2EAFEEBFFEE2434F8EF340063
:101ADC00F988088909EE2435F582EF3400F583E0A6
:101AEC00F8EE2437F582EF3400F583E0F50AEC8547
:101AFC000AF0A4FCAAF0850AF0EDA42AFDE82CF863
:101B0C00E43DF97A257B00121676EA850882850970
:101B1C0083F0F8740758F97401B900028004C333D8
:101B2C00D9FCFAE8131313541FF8EE28F8EF34001D
:101B3C00F9E8245DF582E93400F583E05A6008EE9B
:101B4C002434F582EF802CEE2434F582EF3400F54A
:101B5C0083E0C0E0EE2436F582EF3400F583E0F547
:101B6C00F0D0E084A8F0EE28F8EF3400F9E824383F
:101B7C00F582E93400F583E0F97F0402188E74F5E0
:101B8C001217E2EAFEEBFFEE2434F582EF3400F597
:101B9C0083E0C0E0EE2435F582EF3400F583D0E02D
:101BAC00F08E828F83A3A3A3A3A3A3A3C082C0831D
:101BBC008E828F83A3A3A3A3A3E0F8A3E0F9D08321
:101BCC00D082E0C398F508A3E099F509EE247FF5DF
:101BDC0082EF3400F583E064017069EE2480F582B5
:101BEC00EF3400F583E0F8A3E0F98E828F83A3A392
:101BFC00A3A3A3A3A3E0FCA3E0FD8E828F83A3A3E6
:101C0C00A3A3A3E0FAA3E0FBC3EA9CEB9D5010C393
:101C1C00EC98ED99402EC3EA98EB995027800EC3AF
:101C2C00EA98EB994007C3EC98ED9940177CDC7D62
:101C3C0004EEFAEFFB120BA5EE247FF582EF3400D5
:101C4C00F583E4F0EE2434F8EF3400F9E8FCE9FD18
:101C5C00EE2435F582EF3400F583E0F8EE2437F509
:101C6C0082EF3400F583E0F50AE508850AF0A4F567
:101C7C0008AAF0850AF0E509A42AF509E82508F870
:101C8C00E43509F97A257B00121676EA8C828D836D
:101C9C00F0F8740758F97401B900028004C333D901
:101CAC00FCFAE8131313541FF8EE28F8EF3400F97C
:101CBC00E8245DF582E93400F583E05A6008EE24EF
:101CCC0034F582EF802CEE2434F582EF3400F5836A
:101CDC00E0C0E0EE2436F582EF3400F583E0F5F059
:101CEC00D0E084A8F0EE28F8EF3400F9E82438F5B9
:101CFC0082E93400F583E0F91225E1021B85C082EC
:101D0C00C083851882851983E0F8A3E0F9C3EA9CA7
:101D1C00EB9D5010C3EC98ED99401BC3EA98EB99DE
:101D2C005014800EC3EA98EB994007C3EC98ED99D8
:101D3C004004790180027900D083D08222EAC39CCE
:101D4C00FAEB9DFB2274EF1217E29003A2E06408F9
:101D5C006005E06407702A9061C8E060249003D0AD
:101D6C00E0F4601DE0F875F003A4C8AAF02AF97439
:101D7C00D228FE740339FF8E828F83A3A3A3E07055
:101D8C0003021E81906060E0C0E0EE2468F582EFF3
:101D9C003400F583D0E0F0750C45750D0575080021
:101DAC00750900E5D914F50AE5D95403F50E601749
:101DBC007403650E605CE50A6010EE2467F582EF33
:101DCC003400F583E07003021E66900540E0640168
:101DDC00602AEE2482F582EF3400F583E06004780B
:101DEC000480027800850A08E508C398FA95E0FBA0
:101DFC00120A738A088B09EA45097005120D97803F
:101E0C0074EE2482F582EF3400F583E070048A0CC2
:101E1C008B0DE50A6012850C82850D83F50BE5D9D7
:101E2C00F0A3150BE50B70F6EE2482F582EF34006F
:101E3C00F583E0604474FC250AF50A780C121989C4
:101E4C00AC0AA90EEEFAEFFB120C41740212171732
:101E5C00E97026AA08AB09121289793D8E828F830C
:101E6C00A3A3A3A3E0FA7B00120947EEFAEFFB123F
:101E7C000BBD120C53790080747403650E6056858B
:101E8C000A107511007810121989AC0CAD0DAA0846
:101E9C00AB09120C1D7402121717EE2468F582EFB1
:101EAC003400F583E064807004747F8001E0F50CED
:101EBC00780C12198DE50EF50C780C12198DA90AF7
:101ECC00AC08AD099003D0E0FA7B0012090B740248
:101EDC0012171780139003A2E06408600BAC0CADD2
:101EEC000DEEFAEFFB120CAD120DA379017F0A0275
:101EFC00188E74F51217E274FC121701EAFEEBFF50
:101F0C008908A2AFE433F509C2AF806AEE2463F806
:101F1C00EF3400F97A007B00A2AFE433F50AC2AFCC
:101F2C0088828983E0FCA3E0FDEC4D603A888289CD
:101F3C0083E0FAA3E0FB8A828B83E0FCA3E0FD88BC
:101F4C00828983ECF0A3EDF08A828B83E4F0A3F01A
:101F5C0088828983E0FCA3E0FDEC4D700A888289BD
:101F6C0083A3A3E4F0A3F0E50AA2E092AF121289D6
:101F7C009004E3E004F0EE2463F582EF3400F58383
:101F8C00E0F8A3E0F9E849603DEE2463F582EF3414
:101F9C0000F583E02402FAA3E03400FBEA2402F506
:101FAC000AEB3400F50B780A1219898A828B83E0CC
:101FBC00FCA3E0F9EEFAEFFB120BE1740212171717
:101FCC00E97003021F189004E3E060639004E4E0FE
:101FDC00F89004E3E0C398500C74026508705090BC
:101FEC0004E5E0604A8E828F83A3A3A3A3E0851847
:101FFC0082851983F0A3E4F09004E3E0F8740212F4
:10200C00176AE8F0A3E4F09004E3E0F89004E2E04F
:10201C0028F0740212176AAC82AD83851882851978
:10202C0083AA82AB8379011209179004E3E4F0E5EB
:10203C0009A2E092AF7404121717021B850000006E
:10204C008521878522C622C0E0C0D0E8C0E0E9C067
:10205C00E0EAC0E0EBC0E0ECC0E0EDC0E0EEC0E0D8
:10206C00C008C009C00AC00BC082C083C0F0A2AFB8
:10207C00E433FEC2AF759B00906182E0A2E0501287
:10208C00E591A2E0500C7591FE740165217003126C
:10209C001D51E0A2E55051E591A2E5504B7591DF41
:1020AC009003A2E064076005E06408702374016586
:1020BC0021703579019003D0E0FA75F003A4CAA819
:1020CC00F028FB74D22AFA74033BFB121EFE801814
:1020DC00E0640D70139003C4E004F064287002E413
:1020EC00F07A00E0F9120DA9906182E0A2E64003BB
:1020FC0002219AE591A2E6400302219A7591BF90C4
:10210C0003A2E064057008120CD7120CE3800312D2
:10211C000CDD752100120D37E99003A3F079001244
:10212C000D2B120B1B7A017B009003A1E0F912100E
:10213C0001907803E064427055900544E014F0700F
:10214C004DC2AF12215200782AD0E0F618D0E0F63A
:10215C00E59F540770057509FF800375097FC4C09E
:10216C00E07829E6F50808E65509F509740B7808B6
:10217C001216DFD0E02508F8906270E0A2E740F874
:10218C00E8C333906272F0906270E0D2E0F090613C
:10219C0081E0A2E35009E5E9A2E3500375E9F7A356
:1021AC00E0A2E75009E591A2E7500375917FEEA2FA
:1021BC00E092AFD0F0D083D082D00BD00AD009D02F
:1021CC0008D0E0FED0E0FDD0E0FCD0E0FBD0E0FA9F
:1021DC00D0E0F9D0E0F8D0D0D0E032C0E0C0D0C030
:1021EC0082C083906183E0A2E05009E5BFA2E05079
:1021FC000375BFFEE0A2E15009E5BFA2E1500375F3
:10220C00BFFDE0A2E25009E5BFA2E2500375BFFB9F
:10221C00E0A2E35009E5BFA2E3500375BFF7E0A2CB
:10222C00E45009E5BFA2E4500375BFEFE0A2E5500E
:10223C0009E5BFA2E5500375BFDFE0A2E65009E552
:10224C00BFA2E6500375BFBFD083D0828088C0E0A8
:10225C00C0D0E8C0E0E9C0E0EAC0E0EBC0E0ECC010
:10226C00E0EDC0E0C0F0E5A7A2E6500FE5A1A2E6C4
:10227C00500953A7BF75A1BF1222BFE5A7A2E55015
:10228C000CE5A1A2E5500653A7DF75A1DFE5A7A2D7
:10229C00E15009E5A1A2E1500375A1FDE5A7A2E279
:1022AC00500CE5A1A2E2500653A7FB75A1FBD0F0A0
:1022BC000221D074F81217E27521019003A2E06498
:1022CC00067015120C718A828B83A3A3A3A3A3A3FC
:1022DC00E0FAA3E0FB120CC5A2AFE433FED2AF9040
:1022EC0003A8E0640170187A207B009003A1E0F948
:1022FC001210857A207B009003A1E0F91210079050
:10230C006182E0D2E6F0900541E0602185C6228032
:10231C00169003A7E064017008E5C654F84405F56F
:10232C00C653BEFC12204C7401652160E4EEA2E0A1
:10233C0092AF7F0102188E008E238F248582288510
:10234C008327851882851983E0CEA3E0CF85288268
:10235C00852783EBC9EAC8EDCBECCA75F010C3E84E
:10236C0033C8E933C9EA33CAEB33CBC3EA9EF5264B
:10237C00EB9FF525B35004AB25AA26EC33CCED33FB
:10238C00CDD5F0DAAE23AF242274ED1217E28A0811
:10239C008B098C0A8D0B741312176A780C1215D1D9
:1023AC007808790C1213D07510017511C8751200CC
:1023BC0075130050127808790C1215707810790882
:1023CC001213D050168010780C79081215707810F2
:1023DC00790C1213D040047901800279007F0C0231
:1023EC00188E74ED1217E28A088B098C0A8D0B7407
:1023FC001312176A780C1215D1780C79081213D0B5
:10240C0040117808790C121570AA08AB09AC0AAD0A
:10241C000B80227510007511007512007513017870
:10242C0010790C12157078107908121537AA10ABA8
:10243C0011AC12AD1380A68A828B837508FF7509C7
:10244C00FF750AFF750B0078081215BE7F04021881
:10245C008E74F51217E28C828D8378081215D18A4E
:10246C00828B837808121584EA2404F8EB3400F983
:10247C008C828D83A3A3A3A3E0FCA3E0FD888289B7
:10248C0083C3E09CF0A3E09DF088828983C3E09431
:10249C0020A3E0944E40268A828B837508FF750931
:1024AC00FF750AFF750BFF780812155D8A828B8306
:1024BC00A3A3A3A3E02420F0A3E0344EF002244312
:1024CC0074F51217E2E9FE9004F7E0FAA3E0FBEED4
:1024DC00C333F8E433F974E128F582748139F58358
:1024EC00E02AF508A3E03BF50978081219897A402F
:1024FC007B427C0F7D0012234474021217178A084A
:10250C008B098C0A8D0B741078081214FFAA08AB77
:10251C00097F0402188E74F11217E28A0C8B0D8C51
:10252C000E8D0F740F12176AE0FAA3E0FB741112F0
:10253C00176AE0F508A3E0F5097808121989EA246E
:10254C0001F508EB3400F509E4F50AF50B780C7984
:10255C000812140F750871750902780C7908121499
:10256C000FAA0CAB0DAC0EAD0F1223447402121754
:10257C00178B09EA450960047A0180027A00EC2A7B
:10258C00FCED3400FD741312176AE0F8A3E0F9E8CF
:10259C00FEE9FFECF8EDF97A717B021216768808E9
:1025AC0089098E828F8378081215E0ECF8EDF97AA0
:1025BC00717B021216768A088B097405780812163C
:1025CC00EE8E828F83A3A3A3A3E508F0A3E509F005
:1025DC007F0802188EC082C083E9906000F0D0831F
:1025EC00D08222C2AF02000022C0E074F21218CED8
:1025FC00A2AFE433FED2AFC2C0E5D1A2E450065381
:10260C00D1EF12127DEEA2E092AF7F0102192DC024
:10261C00E074F21218CEA2AFE433FED2AFE589A279
:10262C00E05003121223758900C2C5EEA2E092AFEE
:10263C007F0102192DC0E0C0D0E8C0E0E9C0E0E5A0
:10264C00A8D2AFC2C7A2E7A2E792AFD0E0F9D0E020
:10265C00F8D0D0D0E032C0E0C0D0E8C0E0E9C0E0B3
:10266C00C008C009C082C083A2AFE433F9D2AF90D6
:10267C0009FAE0F8A3E0687008539AFBA374018090
:10268C0026C2E99009FAE0F50874012508F0747A7D
:10269C002508F58274093400F583E0F5C19009FA38
:1026AC00E0C394804002E4F0E9A2E092AFD083D082
:1026BC0082D009D008D0E0F9D0E0F8D0D0D0E03208
:1026CC00FFFFFFFFFFFFFFFFC082C083E9900C9567
:1026DC00F002296374F7121776E99002E1F07C1985
:1026EC007D037AFF7BFF12085D9002E274FFF0A37A
:1026FC00F0A3E4F0A3F079051207E59002E1E0F90C
:10270C001207077A7B7B08120A257F01021848748E
:10271C00F41217768A088B09EB548060309002E132
:10272C00E0F9120FE98A0A8B0BAE0AAF0BEE4F6081
:10273C00138E828F83E064B070031207FDEEFAEF04
:10274C00FB120FD7AA08E5096480FB80047A007B92
:10275C000002293274F212177674FC121701EAFE89
:10276C00EBFFEE4F6038740212176AEEF0A3EF1213
:10277C002B97ECF0A3ED122B97AA82AB83120701D7
:10278C00E9F5087073741212176A12374BE50A4593
:10279C000B60658E828F8312280EEE4F70057508C4
:1027AC000280557A067B0012103D8A0C8B0DA80C0A
:1027BC00A90DE8497005750813803D88828983E46A
:1027CC00122818A3A3EEF0A3EF123BE4E50AF0A342
:1027DC00E50BF09002E71228A09002E76017E0FCEE
:1027EC00A3E08003EAFCEBFD8C828D831228A070A1
:1027FC00F38C828D83123670A90874041217170299
:10280C003DE6A3A3A3A3E0FEA3E0FF22F0A3F08880
:10281C008289832274F2121776890AE975F017A45B
:10282C00FEAFF09002E6E4F09002E41228A0600AF9
:10283C001210439002E4E4F0A3F0EEFAEFFB121056
:10284C003D8A088B09EA4509602FEEFCEFFD790003
:10285C00120FBF9002E4E508F0A3E509F07B0080BD
:10286C000812288AE4F0A3F00BEBC3950A40F2E5BA
:10287C000A9002E6F0790080027913023DE6EB75CE
:10288C00F017A4F8A9F09002E4E028FAA3E0398A42
:10289C0082F58322123406EA4B2274F412177675F1
:1028AC000800750900740C12176A123BB8FEE9FF98
:1028BC00800CE5082401F508E5093400F509C3E5A9
:1028CC00089CE5099D503285080A85090B7403782C
:1028DC000A1216EEEA250AF8EB350BF98882898381
:1028EC00A3A3A3A3A3A312374BEE650A7003EF6552
:1028FC000B70BFE8FAE9FB80047A007B0080277438
:10290C00F41217767900EAA2E0501B7508B5750928
:10291C008278081219897C047D007A977B0C120747
:10292C00DF74021217177F04021848C082C083900C
:10293C0002E712296A601C88828983A3A3E06A706B
:10294C0003A3E06B8882898370E8A3A3A3A312344A
:10295C000280047A007B00D083D082020122123ED6
:10296C00B9E8492274EE12177674FC121701EAFECC
:10297C00EBFF851882851983E4F0A3F0EE24021294
:10298C003654EE2405122B85EE2404F50EEF122F8F
:10299C006AE024FE603924FC604624FE605224FE6A
:1029AC00605E24FE7003022A8A24FE7003022B024E
:1029BC0024FE7003022B1124FE7003022B2024FC36
:1029CC007003022B2F24FE7003022B3E022B7B90F4
:1029DC0003007417F0A3E4122B9F12047F022B7BCD
:1029EC00851882851983AC82AD83120803022B4BA8
:1029FC00851882851983AC82AD83120809022B4B92
:102A0C00850C08850D09740212176AAC82AD83859A
:102A1C0008828509831234021207258A0C8B0DACAF
:102A2C000CAD0DEC4D6042E4F50CF50D780C121963
:102A3C0089750C00750D03780C121989750C0175CC
:102A4C000D03780C121989740812176A1219A079DF
:102A5C00161233FC1208457408121717E9F50C709E
:102A6C000B1233F8120497800F750C0185088285C0
:102A7C000983122B8D123670850C08022B4E7402B2
:102A8C0012176AAC82AD83850C82850D83123402D9
:102A9C001207258A108B11AC10AD11EC4D604385DB
:102AAC000C82850D83A3A31219A075100075110358
:102ABC007810121989751001751103781012198983
:102ACC00740812176A1219A079161233FC120845F1
:102ADC007408121717E9F509700B1233F812049DDC
:102AEC00800F750901850C82850D83122B8D123692
:102AFC0070850908804C851882851983AC82AD835A
:102B0C0012080F803A851882851983AC82AD831226
:102B1C000815802B851882851983AC82AD83120829
:102B2C001B801C851882851983AC82AD8312082109
:102B3C00800D851882851983AC82AD83120827E934
:102B4C00F508E50860298E828F83A3E06414601F6A
:102B5C00850E82850F83E0900300122B97123EB5F1
:102B6C00900301123670E508A3122B9F120479EE24
:102B7C00FAEFFB1207A302355CF50CEF3400F50DF0
:102B8C0022123EB985188285198322F08518828518
:102B9C00198322F07C007D03850A82850B83123415
:102BAC00062274EE12177674FC1217018A0A8B0B2C
:102BBC008C0E8D0FEA2405F508EB3400F5097C1515
:102BCC007D0079007A007B03120FBFE5082402F523
:102BDC000CE509122B88851882851983858210854E
:102BEC0083117810121989850882850983A3A3A300
:102BFC00A31230B2121989E5082405F510E5093441
:102C0C0000F5117810121989850C82850D83123408
:102C1C000C12071F74061217178A108B11AE10AF07
:102C2C0011E50A2402F50AE50B123657EE4F700334
:102C3C00022D748017740212176A1234028882896A
:102C4C0083EAF0A3EBF0900300E004F0900300E0C3
:102C5C00C394054003022D74E4F510F5117810129D
:102C6C0019897510E975110278101219897510EA15
:102C7C007511027810121989740612176A1219A0AC
:102C8C007910EEFCEFFD1233FC1208457408121794
:102C9C0017E9705E850882850983A3A3A3A3A3A368
:102CAC00A3E0F89002E9E06870481230B21219897A
:102CBC007CEA7D02E5082408FAE5093400FB120FD2
:102CCC00B97402121717E960298E828F83A3A3A30C
:102CDC00A3123402900300E0F5107402781012165F
:102CEC00EE74012510F58274033511F583EAF0A317
:102CFC00EBF0740212176A8582108583117810121A
:102D0C001989740212176A1219A0850C82850D8319
:102D1C00123ECA12072B74041217178A108B11AEAD
:102D2C0010AF11900300E0F51075110074027810CB
:102D3C001216EE74002510F874033511F988828987
:102D4C0083A31228A07003022C38E82403F8E9347A
:102D5C0000F9EE4F6003022C418882898374FFF0E6
:102D6C00A3F0900300E004F0900300E0600A12333B
:102D7C00F812048B7900800B850882850983123642
:102D8C0067790A02355C74EA12177674FE12170121
:102D9C008C128D13EA2405F50CEB12403412281218
:102DAC00750800750900EA2402F510EB3400F511E2
:102DBC0085188285198385820A85830B780A1219F6
:102DCC0089850C82850D83A3A3A3A3122F741219DA
:102DDC0089E50C2405F50AE50D123657780A121907
:102DEC0089850C82850D83123EC812071F7406124A
:102DFC0017178A0A8B0BEA450B7003022F25EA245E
:102E0C0004F50EEB122F6A1228128A828B83A3A36D
:102E1C00A3E0F985108285118312340212070DE9A3
:102E2C00F5096003022F25E4F514F5157814121931
:102E3C00897514E975150278141219897514EA75D7
:102E4C0015027814121989740612176A1219A079CE
:102E5C0013AC0AAD0B851082851183123402120853
:102E6C00457408121717E9F5096003022F25900223
:102E7C00E9E0F8E5087009E02402900301F08017FE
:102E8C00900301E0FCE82402FAE43400FBEA6C70E5
:102E9C0001EB6003022F29850882AA821230A994C3
:102EAC00141230A15073850E82850F83E0C0E0743C
:102EBC00022A122F61D0E0F00508850E82850F835F
:102ECC00A3E0C0E085080A7402250A122F61D0E045
:102EDC00F005089002E9122F741219897CEA7D0220
:102EEC0085080A7402250AFA74033400FB120FA732
:102EFC0074021217179002E9E02508F50874FF6EAA
:102F0C00700374FF6F6012EE24010EEF3400FFE5C6
:102F1C0008C394145003022DBCE50860131232ED63
:102F2C008510828511831234021204917900801469
:102F3C00E509700375090A851282851383EEF0A3E7
:102F4C00EFF0A90974021217177F0E0218488508B2
:102F5C000C7402250CF58274033400F583223400C2
:102F6C00F50F850E82F58322123BF72274EE1217B1
:102F7C007674FE1217018C0E8D0FEA2405F50CEBFE
:102F8C00122B88750B00900300E4F0F50AEA24027A
:102F9C00F508EB3400F5098049900300E0FA900243
:102FAC00E9E0F81230A994171230A1400D900300FB
:102FBC00E0F87416C3989002E9F01230B212198935
:102FCC007CEA7D0274012AFA74033400FB120FA709
:102FDC0074021217179002E9E0F8900300E028F051
:102FEC00050AE50C2416F582E50D122F65E0F8E5CF
:102FFC000AC398400302308A900300E0C394165031
:10300C007DE50AC333F8E433F9E50C28FEE50D3908
:10301C00FF851882851983AC82AD838E828F8312D3
:10302C0034021207258A108B11AC10AD11EC4D70C7
:10303C0005750B018043E4F510F511781012198910
:10304C007510E975110278101219897510EA75114D
:10305C00027810121989740612176A1219A07916BF
:10306C0085088285098312340212084574081217E8
:10307C0017E9F50B7003022FA512366380107C0044
:10308C007D038508828509831234021204A3A90BDF
:10309C00740202355EE99400C365D03322EA28F845
:1030AC00E43400F9E822E0F5107511007810227470
:1030BC00EA12177674FC1217018A0C8B0D8C128D88
:1030CC0013EA2405F50AEB1236577508007509004A
:1030DC00E50A2402F510E50B3400F5117402121701
:1030EC006A85820E85830F780E121989850A82856E
:1030FC000B83A3A3A3A3123BA3121989E50A2405EE
:10310C00F50EE50B3400F50F780E12198985108237
:10311C0085118312365D1233FC12071F74061217C9
:10312C00178A0E8B0FAE0EAF0FE50C2402F50EE5D1
:10313C000D3400F50F80408882898374FFF00508F8
:10314C00122F5A74FFF005089002E9E0F50C750D8A
:10315C0000780C1219897CEA7D0285080C74022512
:10316C000CFA74033400FB120FA774021217179099
:10317C0002E9E02508F508EE4F60718E828F83A37B
:10318C00A3A3E0F9850E82850F8312340212070D7A
:10319C00E9F509EE2404122B85E97044E4F514F5E5
:1031AC001578141219897514E97515027814121909
:1031BC00897514EA75150278141219897408121796
:1031CC006A1219A07911EEFCEFFD850E82850F8332
:1031DC001234021208457408121717E9F509602712
:1031EC00850C82850D831232E3123670E50870036C
:1031FC000232C91232ED850E82850F83123402120F
:10320C0004A979000232DE850882AA82EA9002E9DA
:10321C007009E02404900301F08022E0F89003018F
:10322C00E0F514E82404FCE43400FDEC65147001B2
:10323C00ED70C01230A994121230A150B6850C82D8
:10324C00850D83E0C0E074022A122F61D0E0F005F6
:10325C0008850C82850D83A3E0C0E0122F5AD0E0C4
:10326C001232FF85820C85830D780C121989740437
:10327C0012176A1219A0851082851183123ECA1288
:10328C00072B74041217178A0C8B0DAE0CAF0D851F
:10329C00080C7402250CF874033400F9EE4F70031B
:1032AC00023143851882851983E088828983123222
:1032BC00FFA3E0C0E0122F5AD0E0023151E50970B3
:1032CC000375090A850A82850B831232E312367064
:1032DC00A9097404022F52123EB9851282851383F8
:1032EC0022900301E0F5F0E50884900300F07C00E7
:1032FC007D0322F005088518828519832274EC124F
:10330C00177674FE1217018A088B098C0E8D0FEA42
:10331C002405FEEB3400FF851882851983AC82AD41
:10332C00838E828F831234021207258A0A8B0BEE4E
:10333C002418122B85EA450B70030233D312354542
:10334C0050328518828519831234021208398A107A
:10335C008B11EA4511606B7912AC0AAD0B850882B2
:10336C00850983123402851082851183121774E942
:10337C00F50A7058E4F50AF50B780A1219898E8251
:10338C008F83A3A3E0F50A780A121989EE2403129D
:10339C003654780A1219898E828F8312340C1208D3
:1033AC004B7406121717E9F50A7021850C82850DEE
:1033BC0083E0701F8508828509831234021204AFE2
:1033CC008011750A0E8009750A018004E50A6003F4
:1033DC00123663850C82850D83E0600479008002CF
:1033EC00A90A74021217177F0C0218487C007D037F
:1033FC00850A82850B8312340622E0FAA3E0FB22B5
:10340C00E0FCA3E0FD850882850983123406227452
:10341C00EE12177674FE1217018A088B098C0C8D2C
:10342C000DEA2405FEEB3400FF750E00851882852D
:10343C001983AC82AD838E828F83123402120725DE
:10344C008A0A8B0BEA450B70030235311235455055
:10345C00358518828519831234021208398A0E8B2D
:10346C000FEA450F605E7912AC0AAD0B85088285B8
:10347C000983123402850E82850F83121774E9F5C5
:10348C000E600302353485088285098312374BAAF6
:10349C000AFB12082D8A108B11A810A911E849708B
:1034AC001E7AFF7BFF12082D8A108B11A810A91110
:1034BC00E849606C88828983E50AF0A3E50BF07516
:1034CC000A008007750E0E805F050A9002E6E0FA8E
:1034DC00E50AC39A504AE50A75F017A4FAABF088CE
:1034EC00828983A3A3E02AFAA3E03BFB8A828B8325
:1034FC0012365DEC4D70D2750A17750B00780A12F6
:10350C001989EEFCEFFD120FA77402121717EEFCCF
:10351C00EFFD8508828509831234021204B58014EC
:10352C00750E098003750E01123EB1850C82850D56
:10353C0083123670A90E02309CE5082402F508E5CA
:10354C00093400F5098A828B83A3A3A3E0A2E522A8
:10355C0074041217177F0A02184874EC1217768C31
:10356C00108D11EA2405F50CEB122B88750F00EA6F
:10357C002402F50AEB123657850A82F583123402BF
:10358C0012082D8A088B09EA450970030236497521
:10359C000E008071850C82850D83E06401704F8E66
:1035AC00828F83A3A31219A08E828F83A3A3A3A3BC
:1035BC00E0F5127513007812121989EE2405F51234
:1035CC00EF3400F51378121219891233FC12084BE0
:1035DC007406121717E9F50F6014850C82850D839C
:1035EC00E4F0123EB18510828511831236707C177F
:1035FC007D007900EEFAEFFB120FBF8E828F83E411
:10360C00F0A3F0050E9002E6E0F8E50EC398501E0C
:10361C00E50E75F017A4F8A9F0850882850983A337
:10362C00A312403E12365DEC4D60030235A08508B6
:10363C008285098374FFF0A3F0E50F70061233FC4A
:10364C001204BBA90F0233F3F50AEF3400F50B2279
:10365C00A3E0FCA3E0FD228E828F83123EB9850E7F
:10366C0082850F83E8F0A3E9F022C082C083900228
:10367C00E2E06A7003A3E06B70067AE27B028004DE
:10368C007A007B00022963C082C08378008C828D13
:10369C0083E06A7003A3E06B7010E875F003A4F884
:1036AC00A9F0EC28FAED39FB8015088C828D83A3E8
:1036BC00A3A3E06A7003A3E06B60DF7A007B0002D7
:1036CC00296374F61217761207F78A828B83E582C8
:1036DC00458370067A007B008007A3A3A3A3123452
:1036EC0002023D6274F2121776E9FE740E12176A2A
:1036FC0012374B741012176A123BC38C828D83E005
:10370C0064027036A3123EBFF50CA3E0F9A80C744A
:10371C00026870037429697021750C02750D0078AC
:10372C000C1219897808121989780A121989EEF97C
:10373C0012086F740612171780027901023DE6E039
:10374C00F50AA3E0F50B2274E812177674FB121736
:10375C0001E9851882851983F08A168B17ECFEED2A
:10376C00FF751000741D12176A123EB5741D1217E6
:10377C006A1236708E828F83A3A3A3E0A2E4502D2D
:10378C00741D12176A1234021208398A828B83E56F
:10379C008245837003023B94790AEEFCEFFDAA1676
:1037AC00AB17121774E9F5106003023B97741F12E4
:1037BC00176A123BC3742112176A12374B74231207
:1037CC00176AE0F50EA3E0F50F8E828F83E064029A
:1037DC006003023B42A3123EB5850882850983A390
:1037EC00858212858313EE2406122B8588828983A9
:1037FC00E0FAA3E0F9EA2400F514E439F51578149D
:10380C00121A13010000280128373807000228FC7F
:10381C0038032869380029333A01295E3A0229FF16
:10382C00390329333A0429DD3A423BE50E450F6052
:10383C0003023B3D850C82850D83123BB8FAE9FBF4
:10384C008A828B83E0850A82850B83123BEE1219E8
:10385C00898A828B83A3E0FCA3E0023AC7E50E457C
:10386C000F6003023B3D850A82850B837401F012C5
:10387C003BCB850882850983F07C007D008E828F8E
:10388C0083A3A3A3A3E02401FAA3E03400FB120753
:10389C0025EA4B60418A828B83E02402F8850A82F8
:1038AC00850B83E028F0EA2404F8EB3400F98882D5
:1038BC008983E0851282851383123C00123BEE1241
:1038CC0019898A828B8312365CE5082403FAE50990
:1038DC003400FB023ACC850A82850B83E02404F089
:1038EC007C047D007900AA12AB13120FBF023B9728
:1038FC00E50E450F6003023B3D123BCBFEA3E0FF00
:10390C00850A82850B837404F0EE85088285098311
:10391C00F0EF851282851383F0740312176AAC8260
:10392C00AD83EEFAEFFB1207258A0C8B0DEA450DE1
:10393C0070030239E08A828B83A3A312280E7401D0
:10394C0012176A85820E85830F780E1219897405F9
:10395C0012176A1219A07CFF7DFF12072B74041238
:10396C0017178B0FEA450F7033850C82850D831268
:10397C003BA3121989850C82850D83A31219A07C97
:10398C00027D007A8B7B831205577404121717E99A
:10399C00700A740112176A74FFF0A3F08E828F8381
:1039AC00E064027039750C02750D00780C121989DF
:1039BC008E828F8312365CE5082404FAE509340004
:1039CC00FB120FA77402121717850A82850B83E06E
:1039DC0024028009740112176AEEF0A3EFF074014F
:1039EC0012176A123BB4F0740112176AA3123BACA3
:1039FC00023B37E50E450F6003023B3D850C82858B
:103A0C000D8312365DAA16AB17120863850A8285E0
:103A1C000B837402F0EA850882850983F085128293
:103A2C00851383EB023B3AE50E450F6003023B3DE9
:103A3C00123BCBF8A3E0F9850A82850B837402F064
:103A4C00E8850882850983F0E98512828513830253
:103A5C003B3A850C82850D83123402120FA1EAFCCD
:103A6C008C82A882C3950EE4950F405FE8650E70BA
:103A7C0002E50F70047C008022851882851983E092
:103A8C00FAE50E2AFAE50F3400FBC3EA98EB940032
:103A9C005003E08005E50ECCC39CFCEC850A8285C6
:103AAC000B83F08C0A750B00780A121989850C822D
:103ABC00850D83E0250EFCA3E0350FFDAA08AB09AC
:103ACC00120FA77402121717023B97751007023BCF
:103ADC0097E50E450F705A850C82850D83123EB505
:103AEC00850A82850B83740712281A123BAC1228A4
:103AFC001AA3E0851282851383F0E82402FAE934D4
:103B0C0000FB8A828B83123BAC123BDB123BB4A3CF
:103B1C00123BE4123BBDF0E82405F8E93400F988C7
:103B2C00828983123BBDA3123C00A3A3A3A3F08004
:103B3C005A75100B8055741D12176A123402120735
:103B4C00F78A828B83E5824583603D123EB5880CF3
:103B5C00890DE8450D6031780E121989780A121911
:103B6C00897808121989740612176AE0F9EEFCEFCD
:103B7C00FDAA16AB17850C82850D8312177474067B
:103B8C00121717E9F510800375100EA910740512A1
:103B9C0017177F10021848E0F50E750F00780E22EB
:103BAC00E085088285098322123C0A22123EB9E87C
:103BBC0022123C0AA3A322E0F508A3E0F509228512
:103BCC000C82850D83E0F8A3E0F5838882E022A3C4
:103BDC00A3F08A828B83A322F088828983A3A3A378
:103BEC00A322F08A828B83123BF722E0F50A750B35
:103BFC0000780A22F088828983A3123C0A22E0858D
:103C0C000882850983A3A32274EE12177674FE1220
:103C1C0017018A0A8B0BECFAEDFB741412176AE08D
:103C2C00F510A3E0F511741612176AE0FE74181261
:103C3C00176AE0F50EA3E0F50F851882851983ACA1
:103C4C0082AD831207258A0C8B0DEA450D604985E0
:103C5C0018828519831234021207F78A828B83E546
:103C6C00824583602FA3A3123BC3E508450960245A
:103C7C00780E1219897810121989EEF9AC0CAD0D69
:103C8C00AA0AAB0B85088285098312177474041277
:103C9C0017178006790E8002790102309C74F61297
:103CAC00177674FE121701740C12176A123BB88542
:103CBC001882851983F0740112176AE9F0E4F5088B
:103CCC00F50978081219897508027808121989748F
:103CDC000412176A858208858309780812198912DB
:103CEC00084B74061217177402121717806874F7B2
:103CFC00121776EAFEEBFF89087C197D0312086324
:103D0C00EA5402600BA908EEFAEFFB1207198002C5
:103D1C00790102271674F612177674FF6A70037411
:103D2C00FF6B70168C828D83123D67E4F08C828D54
:103D3C0083A3A3A3123D67A380181208338A088BB0
:103D4C0009A808A909E849600D8882898374FF12C3
:103D5C002818A3A3E4F07F0202184874FFF0A3F024
:103D6C008C828D83A3A32274F61217761208338AE1
:103D7C00828B83E58245836006A3A3E0FA80027AF6
:103D8C00007B0080D174F21217768A088B09ECFE46
:103D9C00EDFF740E12176AE0F50A1208338A0C8BC9
:103DAC000DA80CA90DE8497026EEFCEFFD7AFF7BFF
:103DBC00FF1208338A0C8B0DA80CA90DE84970046E
:103DCC007911801688828983E508F0A3E509F088CB
:103DDC00828983A3A3E50AF079007F060218487450
:103DEC00EE121776EAFEEBFF8C088D09890C741421
:103DFC0012176A123EB5741612176A123402750D38
:103E0C0000E8496003023EA97402650C6003023E9F
:103E1C00A4741212176A123EBFFCA3E0F9EC240042
:103E2C00F50EE439F50FEAF4F8EBF4F9EC58F8E593
:103E3C000F59F9E849705CE5082406F8ED3400F9EF
:103E4C00880A890B8882F583123ECA1208638A108D
:103E5C008B11E50E65107004E50F65116042780E4C
:103E6C00121989850A82850B83123ECA120869745D
:103E7C0002121717E9F50D7027780E1219898508AB
:103E8C0082850983A3A3123EC812088174021217FB
:103E9C0017800D750D808008750D0D8003750D0B49
:103EAC00A90D0235618E828F83123EB922E0F8A3F0
:103EBC00E0F922123EB988828983E022A3A3E0FCB8
:103ECC00A3E0FDEEFAEFFB2274E812177674E7120A
:103EDC001701851882851983EAF0A3EBF08C168DF7
:103EEC0017890E750800750900743112176AE0F510
:103EFC0012A3E0F513743312176AE0F514A3E0F57E
:103F0C0015743512176AE0F50FE50975F003A4F87E
:103F1C00A9F085188285198312403EE0F47003A342
:103F2C00E0F47003024021EE2402F50CEF12403451
:103F3C00E0700302402185160A85170B780A1219C6
:103F4C0089AC14AD15AA12AB131207EB740212173D
:103F5C00178A0A8B0BEA450B7003024021E4F5101B
:103F6C00F5117810121989740612176A858210855A
:103F7C0083117810121989740912176A85821085B9
:103F8C0083117810121989851282851383A3A3A338
:103F9C00A31219A07914AC0AAD0B8E828F83123444
:103FAC00021208457408121717E97069850A828590
:103FBC000B83A3A3A3A3123EB5740212176A123685
:103FCC0070850C82850D83E0A2E05018A90E740256
:103FDC0012176AAC82AD838E828F83123402120761
:103FEC003DE94208850C82850D83E0A2E15026E56F
:103FFC000FF50A780A12198DA90E740312176AAC00
:10400C0082AD838E828F83123402120737740112B1
:10401C001717E942080509E509C394025003023F4A
:10402C0015A9087419023B9B3400F50D850C82F51B
:10403C008322E028FEA3E039FF8E828F832274F264
:10404C00121776EAFEEBFF890B7401650B600E7498
:10405C0002650B706A7901120A43E97062EEFAEF9D
:10406C00FB12082D8A088B09EA45096047750A007E
:10407C00800B7C177D007900120FBF050A9002E6B9
:10408C00E0F8E50AC3985021E50A75F017A4F8A9E1
:10409C00F0850882850983A3A3E028FAA3E039FB05
:1040AC008A828B8312296A70C98508828509837478
:1040BC00FFF0A3F07C197D03EEFAEFFB12085D0212
:1040CC003DE674F21217768A088B09ECFEEDFF744C
:1040DC000E12176A12374B900C95E0F4603D7A097A
:1040EC007B00120FD1EA4B60328A828B8374B1F061
:1040FC00A3E4123BDDA3123BDBA3E508F0A3E50927
:10410C0012412AEEF0A3EF12412AA3A3E50AF0A371
:10411C00E50BF0900C95E0F9120FDD023DE6F08A0C
:10412C00828B83A3A3A3A3A322C082C0839061909C
:10413C007404F0A37448F0A37402F090618074408E
:10414C00F09061BC7403F09061877419F090626513
:10415C00741BF0906249E0C3941390619C400A7404
:10416C0009F090606674018007740DF0906066E44D
:10417C00F090619A7433F0A37455F09061A0743A86
:10418C00F090053FE064017009C2919003A674673A
:10419C0080059003A67461F09026D2E4939061861A
:1041AC00F09026CCE493F46027E493540FF89061DC
:1041BC0085E0686012E5C654804449F5C6E59E5416
:1041CC007F644970F8E8F053C680E59E547F70FA1E
:1041DC007905120D8B024363C082C083E5A8F853A6
:1041EC00A87E906181E4F0A3F0A3F0C2BA539AFECA
:1041FC00C289759B00C2C275E90075910075BF003C
:10420C0075A91175B905906181F0A374C0F0A3E490
:10421C00F0D2BA439A0174805842A8024363C08218
:10422C00C08374F81217019003A4E0F8A3E0F9E836
:10423C004970030243589003A4E05440602379086A
:10424C00851882851983AA82AB83120BFF8518828D
:10425C00851983AA82AB831208F39003A4E054BFA0
:10426C00F0E054806010790C7A657B05120BFF909E
:10427C0003A4E0547FF0E0A2E0503190619A7433D3
:10428C00F0A37455F09061A0743AF090053FE0648F
:10429C00017009C2919003A6746780059003A674FF
:1042AC0061F01208F99003A4E054FEF0E0540260AF
:1042BC003190619A743FF0A3745AF09061A0747FAE
:1042CC00F090053FE064017009D2919003A67471DF
:1042DC0080059003A6746AF01208F99003A4E054C8
:1042EC00FDF0E0540460139026D0E493906186F0C6
:1042FC001208FF9003A4E054FBF0E0540860139004
:10430C0026D1E493906186F01208FF9003A4E05448
:10431C00F7F0E0541060139026D2E493906186F08D
:10432C001208FF9003A4E054EFF0E05420600A124E
:10433C0008FF9003A4E054DFF0A3E05401600D12D9
:10434C000B271209059003A5E054FEF07408121710
:10435C0017024363F0A3F0D083D08202012274ECE5
:10436C0012177674F4121701851882851983AC82A2
:10437C00AD8375838375821C74041216149026D039
:10438C0093F460030244F6907808E0C3940250035F
:10439C000244D6740412176AAC82AD83758382759D
:1043AC0082887408121614851882851983858212E6
:1043BC00858313740412176AAC82AD83750EFF7576
:1043CC000FFF7FFF7E00750C48750D788015740803
:1043DC006E700302446A74096E700302446A740AB4
:1043EC006E607B850C82850D8378081215D18C82CA
:1043FC008D83A909E50AC9F8881074187808121475
:10440C00FFE5104508F8C3E098A3E099850C828578
:10441C000D8378081215D140188C828D837418780E
:10442C00081214FFE5104508F8E0C398F8A3E080E3
:10443C001C741878081214FFE5104508FAE9FB8C77
:10444C00828D83E0F8A3E0F9EAC398F8EB99F9C3FD
:10445C00E8950EE9950F5006880E890FEEFF0EE5D4
:10446C000C2404F50CE50D3400F50DEEC39413503B
:10447C00030243DA74FF650E700474FF650F60234A
:10448C008F08740278081216EE74482508F58274A9
:10449C00783509F58378081215D185128285138336
:1044AC00E508F0EC2402FCED3400FD851282851346
:1044BC0083A3858212858313740C12176AE5826CB0
:1044CC007003E5836D60030243C87508017509002C
:1044DC007808121989740212176AAC82AD837AB407
:1044EC007B091211ED7402121717740C1217177F37
:1044FC000C021848C082C0839061AE7468F0A3743B
:10450C006AF090624574FBF0A304F053F4FD43FE93
:10451C000290053F7401F09061A0E0643A90619ABA
:10452C0070237433F0A37455F09061A0743AF07456
:10453C000164017009C2919003A6746780289003EE
:10454C00A674618021743FF0A3745AF09061A0743A
:10455C007FF0740164017009D2919003A67471808C
:10456C00059003A6746A0243627F08021848C08251
:10457C00C0839004F1E06401700A9004F6E06004DA
:10458C00790C80027900024363C082C08375E1F12B
:10459C009004F4E0605B14600914605F14605714BD
:1045AC00705E120B399004EAE0F97AEB7B04120D81
:1045BC000D7AD67BBE7C897D8E120D437A557B5548
:1045CC007C557D00120D199004F5E0F9120D25793A
:1045DC0001120D7F9004E8E0F8A3E0C82416F582E0
:1045EC00E83400F5837451F0A3740BF079000243A6
:1045FC0063120B3F80AF120B4580AA120B4B80A5A8
:10460C00791280EA74F012177675D90D9004D5E002
:10461C00A2E0E4331313F89004EAE0C4333354C03B
:10462C00484401F5D978E8790488828983A3A3A347
:10463C00E0F5D988828983A3A882A983E864EE7007
:10464C0003E9640470E378D5790488828983A3E054
:10465C00F5D988828983A3A882A983E864DB7003D7
:10466C00E9640470E575E1959004D5E0F97AD67BA0
:10467C0004120D13900CB774EBF0A3740AF0A3742E
:10468C0047F0A3740CF0A37447F0A3740CF0A3745C
:10469C0047F0A3740CF0A374F1F0A3740AF0A374A4
:1046AC0047F0A3740CF0A37409F0A3740BF0900CF6
:1046BC00C57447F0A3740CF0A37447F0A3740CF00A
:1046CC00A37447F0A3740CF0A37447F0A3740CF01C
:1046DC00A37447F0A3740CF0A37447F0A3740CF00C
:1046EC009004F4E064019004E87012E0F8A3E0F5A3
:1046FC00838882A3A37508007509088010E0F8A3CD
:10470C00E0F5838882A3A3750804750900750A0077
:10471C00750B00780812154A750CFF750DFF750E98
:10472C00FF750F007808790C1215989004E8E0F8E2
:10473C00A3E0C8240EF582E83400F583780812153E
:10474C00E09004E8E0F8A3E0C82414F582E8340013
:10475C00F5837413F09003A27402F002457574F79C
:10476C001217769004FAE02407F5D99004EAE0C415
:10477C00333354C0F5D978E8790488828983A3A3AC
:10478C00A3E0F5D988828983A3A882A983E864EE83
:10479C007003E9640470E39004FAE0601F78E87930
:1047AC0004FAE82413F582E93400F583E0F5D9889E
:1047BC00828983A3A882A9831AEA70E690051AE07D
:1047CC002407F5D99004EAE0C4333354C04404F50B
:1047DC00D978E8790488828983A3A3A3E0F5D988E2
:1047EC00828983A3A882A983E864EE7003E9640438
:1047FC0070E390051AE0601F78E87904FAE8243336
:10480C00F582E93400F583E0F5D988828983A3A881
:10481C0082A9831AEA70E675E195900CB774F7F0EB
:10482C00A3740AF0A37447F0A3740CF0A37447F0BC
:10483C00A3740CF0A37447F0A3740CF0A374F1F000
:10484C00A3740AF0A37447F0A3740CF0A37409F0DA
:10485C00A3740BF0900CC57447F0A3740CF0A37404
:10486C0047F0A3740CF0A37447F0A3740CF0A3747A
:10487C0047F0A3740CF0A37447F0A3740CF0A3746A
:10488C0047F0A3740CF09004E8E0F8A3E0C8240E01
:10489C00F582E83400F58374FFF0A3F0A3F0A3F0E5
:1048AC009004E8E0F8A3E0C82414F582E83400F59D
:1048BC00837412F09003A27401F0FF02184874F78D
:1048CC001217769004FAE02407F5D99004EAE0C4B4
:1048DC00333354C04402F5D978E87904888289834B
:1048EC00A3A3A3E0F5D988828983A3A882A983E82E
:1048FC0064EE7003E9640470E39004FAE0601F78DE
:10490C00E87904FAE82413F582E93400F583E0F53C
:10491C00D988828983A3A882A9831AEA70E675E1F3
:10492C0095900CB77403F0A3740BF0A37403F0A36D
:10493C00740BF0A37403F0A3740BF0A37403F0A333
:10494C00740BF0A37403F0A3740BF0A37403F0A323
:10495C00740BF0A37409F0A3740BF0900CC574479E
:10496C00F0A3740CF0A37447F0A3740CF0A3744779
:10497C00F0A3740CF0A37447F0A3740CF0A3744769
:10498C00F0A3740CF0A37447F0A3740CF09004E83B
:10499C00E0F8A3E0C8240EF582E83400F58374FF38
:1049AC00F0A3F0A3F0A3F09004E8E0F8A3E0C8248F
:1049BC0014F582E83400F5837414F09003A27404A7
:1049CC00F0024C9174F71217769004FAE02407F574
:1049DC00D99004EAE0C4333354C04406F5D978E8DE
:1049EC00790488828983A3A3A3E0F5D9888289837B
:1049FC00A3A882A983E864EE7003E9640470E390D1
:104A0C0004FAE0601F78E87904FAE82413F582E9E7
:104A1C003400F583E0F5D988828983A3A882A98321
:104A2C001AEA70E690051AE02407F5D99004EAE03A
:104A3C00C4333354C04404F5D978E87904888289A6
:104A4C0083A3A3A3E0F5D988828983A3A882A98331
:104A5C00E864EE7003E9640470E390051AE0601FEB
:104A6C0078E87904FAE82433F582E93400F583E038
:104A7C00F5D988828983A3A882A9831AEA70E6757E
:104A8C00E195900CB774FDF0A3740AF0A37447F091
:104A9C00A3740CF0A37447F0A3740CF0A37447F048
:104AAC00A3740CF0A37447F0A3740CF0A37447F038
:104ABC00A3740CF0A37409F0A3740BF0900CC574E0
:104ACC0047F0A3740CF0A37447F0A3740CF0A37418
:104ADC0047F0A3740CF0A37447F0A3740CF0A37408
:104AEC0047F0A3740CF0A37447F0A3740CF090047B
:104AFC00E8E0F8A3E0C8240EF582E83400F58374EE
:104B0C00FFF0A3F0A3F0A3F09004E8E0F8A3E0C852
:104B1C002414F582E83400F5837415F09003A27424
:104B2C0003F0024C91C082C0839004E8E0F8A3E04B
:104B3C00C82406F582E83400F583E402436074F778
:104B4C001217769003D0E0F875F003A4C8AAF02AE7
:104B5C00F974D228F8740339F9E82405FAE9340019
:104B6C00FB8A828B83E0FCA3E0FD88828983A3A36C
:104B7C00A3A3A3A3A3A3A3ECF0A3EDF08882898342
:104B8C00A3A3A3A3A3A3A3E024FFF8A3E034FFF9FA
:104B9C008A828B83E8F0A3E9F0024C9174F7121728
:104BAC0076EAFEEBFF9061D0E06003024C8575D98C
:104BBC000E75D90375D904EE248BF582EF3400F50C
:104BCC0083E5822408F8E5833400F9E0F5D9A3E8FD
:104BDC0065827003E9658370F2EE2483F582EF340D
:104BEC0000F583E5822404F8E5833400F9E0F5D977
:104BFC00A3E865827003E9658370F275E195790825
:104C0C00EE248BFAEF3400FB120BF37904EE2483C1
:104C1C00FAEF3400FB120BF37C00EEF8EFF9ECFA30
:104C2C00C3E49AFA95E0FBEE2AFAEF3BFBEA248AFE
:104C3C00F582EB3400F583E0C0E0E824AAF582E9C4
:104C4C003400F583D0E0F00C88828983A3A882A974
:104C5C0083ECC3940840C7EE246FF582EF3400F563
:104C6C0083E0F8A3E0F9EE2471F582EF3400F583CC
:104C7C00E8F0A3E9F07901800279008008F0EEA257
:104C8C00E092AF79007F01021848C082C08375D9C9
:104C9C000275D90375D90575E195EA246FF582EB98
:104CAC003400F583E0F8A3E0F9EA2471F582EB34E3
:104CBC0000F583E8F0A3E9F0790102436374F6127E
:104CCC001776EAFEEBFF9005457406F075084575FE
:104CDC00090578081219897C017903120C3B7402BE
:104CEC0012171775D90675D903758245758305E0BA
:104CFC00F5D9A3E582644A7004E583640570F07508
:104D0C00E1959003A2E06408701EEE246FF582EF2B
:104D1C003400F583E0F8A3E0F9EE2471F582EF346A
:104D2C0000F583E8F0A3E9F07901024F9774F612CD
:104D3C001776EAFEEBFF9061D0E070667801900583
:104D4C0045740BF09003A2E0640770197508457563
:104D5C00090578081219897C017903120C3B74023D
:104D6C001217177805740128F5D975D90375824582
:104D7C00758305E8FAE0F5D9A31AEA70F875E195A0
:104D8C00EE246FF582EF3400F583E0F8A3E0F9EE42
:104D9C002471F582EF3400F583E8F0A3E9F0790192
:104DAC0080027900024F9774F7121776EAFEEBFF38
:104DBC0075D90375D90375D90DEE24DDF582EF3461
:104DCC0000F583E0F5D975E1957904120D49EE24CF
:104DDC006FF582EF3400F583E0F8A3E0F9EE24716F
:104DEC00F582EF3400F583E8F0A3E9F07901024C89
:104DFC009174F6121776EAFEEBFF9061D0E0F8742E
:104E0C0080C398FAEE2482F582EF3400F583E060DB
:104E1C0004780480027800E8240BF8EAC398500365
:104E2C00024EC27D09900545EDF0EE24E2F8EF3418
:104E3C0000F97A467B057C0888828983E08A828B1C
:104E4C0083F088828983A3A882A9838A828B83A317
:104E5C00AA82AB831CEC70E0EE2482F582EF340066
:104E6C00F583E0601D7508457509057808121989E8
:104E7C007C097903EEFAEFFB120C3B740212171744
:104E8C007D0D74012DF5D975D90375824575830592
:104E9C008D08E0F5D9A31508E50870F675E195794C
:104EAC0004120D49EE241DF582EF3400F583E4F075
:104EBC00A3F0790180027900024F9774F6121776ED
:104ECC00EAFEEBFF9061D0E0F87480C398FAEE2410
:104EDC0082F582EF3400F583E06004780480027878
:104EEC0000E82408F8EAC3985003024F957806901E
:104EFC000545740CF09003BFE0900546F09003C09C
:104F0C00E0900547F09003C1E0900548F09003C293
:104F1C00E0900549F09003C3E090054AF0EE24823E
:104F2C00F582EF3400F583E0601B750845750905C3
:104F3C0078081219897C067903EEFA120C3B74027C
:104F4C00121717780A740128F5D975D9037582459B
:104F5C007583058808E0F5D9A31508E50870F67582
:104F6C00E1957904120D49EE246FF582EF3400F5CA
:104F7C0083E0F8A3E0F9EE2471F582EF3400F583B9
:104F8C00E8F0A3E9F07901800279007F0202184869
:104F9C0074F6121776EAFEEBFF9061D0E0F874809D
:104FAC00C398FAEE2482F582EF3400F583E06004B6
:104FBC00780480027800E82404F8EAC398500302CD
:104FCC0050767802900545E8F0EE24F4F582EF3443
:104FDC0000F583E0900546F0EE2482F582EF340074
:104FEC00F583E0601B750845750905780812198969
:104FFC007C027903EEFA120C3B7402121717780636
:10500C00740128F5D975D90375824575830588080F
:10501C00E0F5D9A31508E50870F675E195EE247353
:10502C00F582EF3400F583E4F0EE247FF582EF3463
:10503C0000F583E4F0EE241DF582EF3400F583E4F3
:10504C00F0A3F07904120D49EE240DF582EF340033
:10505C00F583E0F8A3E0F9EE2471F582EF3400F566
:10506C0083E8F0A3E9F0790180027900024F97748C
:10507C00F61217769061D0E0F87480C398FCEA249D
:10508C0082F582EB3400F583E060047804800278CA
:10509C0000E82404F8ECC398405B79029005457451
:1050AC0007F0EA24F5F582EB3400F583E090054631
:1050BC00F0EA2482F582EB3400F583E06018750881
:1050CC004575090578081219897C0209120C3B7484
:1050DC00021217177906740129F5D975D90375824F
:1050EC0045758305E9F8E0F5D9A318E870F875E182
:1050FC0095790180027900024F9774F5121776E9C1
:10510C00FCA2AFE433F50AC2AF7D0080010DEA24A6
:10511C006EF582EB3400F583E0F8EDC398501A8DF0
:10512C0008EA2508F8EB3400F9E8246AF582E9343A
:10513C0000F583E06C70D68024EA246EF8EB340022
:10514C00F9E0FEEA2EFAEB3400FBEA246AF582EB76
:10515C003400F583ECF088828983E004F0E50AA240
:10516C00E092AF7F0302184874F6121776A2AFE4F0
:10517C0033FDC2AFEA246EF582EB3400F583E01404
:10518C00F07C0060368C08EA2508F8EB3400F9E86E
:10519C00246BF582E93400F583E0C0E0E8246AF57D
:1051AC0082E93400F583D0E0F00CEA246EF582EB52
:1051BC003400F583E0F8ECC39840CAEA246DF5821C
:1051CC00EB3400F58374FFF0EA2469F582EB3400CC
:1051DC00F583E4F0EDA2E092AF024F97C082C0835A
:1051EC00E5A8F8C2AFEA246AF582EB3400F583E94E
:1051FC00F0EA2469F582EB3400F583E4F0E8A2E7E9
:10520C00A2E792AF02436374F3121776EAFEEBFF48
:10521C00ECFAEDFB8A828B83A3A3A3A3E0541FF0CB
:10522C00EE2436F582EF3400F583E4F0F50AEEFC5B
:10523C00EFFD8A828B83E0C0E0EC245DF582ED34D7
:10524C0000F583D0E0F0750B00E50A33333354F8E6
:10525C00F50C8A828B83E0F508750900E50B78085C
:10526C001216CFE508A2E0502FEE2436F8EF3400EA
:10527C00F988828983E0F508EE2508F508EF3400FB
:10528C00F509E5082438F582E5093400F583E50CC9
:10529C00F088828983E004F0050B050CE50BC394C0
:1052AC000840AF050A8A828B83A3AA82AB838C82C7
:1052BC008D83A3AC82AD83E50AC3940550030252DF
:1052CC003E7F0502184874F71217769003CEE064FF
:1052DC000170030254307A009003D4E0600302544E
:1052EC00307401F0A3E4F0A3F090043404F09004C3
:1052FC0039F09003D7E4F0A3F0A3F0A3F09003E10E
:10530C0004F0900407E4F09003EAF0A3F0A3F0A3F8
:10531C00F0A3F0A3F0A3F0900451F0900445F090AA
:10532C00043A7480F0A3E4F0900440F09004BCF0D4
:10533C00A3F0A3F0A3F0A3F0A3F0A3F0A3F09004C8
:10534C00C5F0900454F09004A4F0A3F0A3F0A3F0E3
:10535C00A3F0A3F0A3F0A3F0A3F0A3F09004B0F09B
:10536C009004B2F09004AEF09004C8F0A3F0A3F057
:10537C00A3F0A3F0A3F0A3F0A3F078CE7903E82474
:10538C006EF582E93400F58374FFF00A8882898314
:10539C00A3A882A983EAC3940440E37ACE7B037862
:1053AC00DC790488828983E0C0E0EA2461F582EB31
:1053BC003400F583D0E0F088828983A3A882A98386
:1053CC008A828B83A3AA82AB83E864E17003E964CD
:1053DC000470D07ACE7B0378B5790388828983A355
:1053EC00E0C0E0EA24E6F582EB3400F583D0E0F08F
:1053FC0088828983A3A882A9838A828B83A3AA82A9
:10540C00AB83E864BD7003E9640370CF9003CEE016
:10541C0004F0640170089003D6E09003D0F07AD2C7
:10542C007B0380047A007B00024C91C082C0839085
:10543C0003D5E4F09003D4F09003CEF0A3F0A37462
:10544C00FFF075E1F1024363C082C08378007900FC
:10545C009003D5E0600478D2790388828983A3A372
:10546C00A3A3E0F902436374F6121776EAFEEBFF8E
:10547C00EE2463F582EF3400F583E0F8A3E0F9E85D
:10548C00497003025518EE2463F8EF3400F97A00E2
:10549C007B00A2AFE433F508C2AF88828983E0FCBD
:1054AC00A3E0FDEC4D603A88828983E0FAA3E0FB2F
:1054BC008A828B83E0FCA3E0FD88828983ECF0A3D5
:1054CC00EDF08A828B83E4F0A3F088828983E0FC80
:1054DC00A3E0FDEC4D700A88828983A3A3E4F0A3BA
:1054EC00F0E508A2E092AF1212899004E2E004F019
:1054FC009004E3E004F0EE2463F582EF3400F583CE
:10550C00E0F8A3E0F9E84960030254928E828F839D
:10551C00A3A3A3E0600F8E828F83A3A3A3E4F090D8
:10552C0003CFE014F09003CEE014F070069003D09B
:10553C0074FFF08E828F83A3A3E4F09004E1E070FB
:10554C000D9003CFE0640170057900120D2BEEFA7B
:10555C00EFFB120C6B024F9774F7121776EAFEEB07
:10556C00FF8E828F83A3A3A3A3E0FA7B00120947CB
:10557C00EEFAEFFB120BBD120C53024C91C082C021
:10558C008378B5790388828983A3E4F08882898340
:10559C00A3A882A983E864BD7003E9640370E69054
:1055AC0003B6740102436274F6121776EAFEEBFF3F
:1055BC00EC2403F8ED3400F988088909EC2407F889
:1055CC00ED3400F9E8FCE9FD8C828D83E0F8A3E072
:1055DC00F9850882850983E0FAA3E0FB121676EEC2
:1055EC00240DF582EF3400F583E8F0A3E9F08C820A
:1055FC008D83E0F8A3E0F9850882850983E0FAA39E
:10560C00E0FB1216768B09EA45096013EE240DF5C2
:10561C0082EF3400F583E02401F0A3E03400F002C3
:10562C004F9774F6121776EAFEEBFFEE242EF582F6
:10563C00EF3400F583E0FCA3E0FD780079FAECFA96
:10564C00EDFB121676EE246FF582EF3400F583E84D
:10565C00F0A3E9F0780079FAECFAEDFB1216768BF0
:10566C0009EA45096013EE246FF582EF3400F583E7
:10567C00E02401F0A3E03400F0024F9774EC121711
:10568C0076EAFEEBFF741412176A78081215D11221
:10569C000CEF8A0C8B0D8C0E8D0F75100275110092
:1056AC00751200751300780C79101215377510FFF0
:1056BC007511FF7512FF780C7910121598780C1271
:1056CC0019858E828F83E0F8A3E0F5838882A3A3EB
:1056DC001215EF1223957404121717E96003025781
:1056EC00EC8E828F83E02402F8A3E03400F9E8FA10
:1056FC00E9FB8A828B83780812155D8A828B83750D
:10570C0008FF7509FF750AFF750B0078081215BEA6
:10571C00EE240BF582EF3400F583C082C0838E82B9
:10572C008F83A3A3A3A3A3E02401F8A3E03400F97F
:10573C00D083D082E0687003A3E069700579010220
:10574C0057EE8E828F83A3A3A3A3A3A3A3E024016C
:10575C00F0A3E03400F0EE2473F582EF3400F5830F
:10576C00E064017036EE2474F582EF3400F583E0CA
:10577C00F8A3E0F98E828F83A3A3A3A3A3A3A3E032
:10578C00687003A3E0697013EE2474F582EF3400A3
:10579C00F583E02401F0A3E03400F0EE247FF582E1
:1057AC00EF3400F583E064017036EE2480F582EF6F
:1057BC003400F583E0F8A3E0F98E828F83A3A3A3D2
:1057CC00A3A3A3A3E0687003A3E0697013EE248085
:1057DC00F582EF3400F583E02401F0A3E03400F00F
:1057EC0079000244FB74F6121776E9FEECFFEA240A
:1057FC0062F582EB3400F583E06401600302589A91
:10580C009061D0E0F508EA2482F582EB3400F58350
:10581C00E060047804800278007480C39508FC95DD
:10582C00E0FDEF28F8E43400F9E82402F8E934004C
:10583C00F9EC98ED99A2D265D033404E740A121748
:10584C006AE0F508A3E0F509EA2482F582EB34005E
:10585C00F583E060157808121989EFFCEEF9120C4B
:10586C003B740212171774042FFF74012FF5D98E95
:10587C00D9EF600F850882850983F8E0F5D9A31864
:10588C00E870F875E195790080067907800279FF58
:10589C00024F9774F7121776A2AFE433FEC2AF8AA9
:1058AC00828B83E0F8A3E0F9E8498A828B83600A53
:1058BC00A3A3E0F8A3E0F5838882ECF0A3EDF08AD3
:1058CC00828B83A3A3ECF0A3EDF08C828D83E4F0A8
:1058DC00A3024C8974F7121776E96021F88C828D3B
:1058EC0083E08A828B83F08C828D83A3AC82AD8320
:1058FC008A828B83A3AA82AB8318E870E0ECFAED62
:10590C00FB024C9174F012177674FA121701890B82
:10591C00ECFEEDFF750A008A088B0978081219CD88
:10592C00000410435B535971598B59A359C159D970
:10593C0059FC59145A285A525ADA5AEB5A025B1D1E
:10594C005B435B435B685A7401650B6003025B3E0F
:10595C008E828F83E0F8C394034003025B3EE89091
:10596C000DA8025B1A7402650B6003025B3E8E820B
:10597C008F83126240900DA9E8F0A3E9025B1A74C0
:10598C0001650B6003025B3E125B6B4003025B3EE6
:10599C00E8900776025B1A7401650B6003025B3EAC
:1059AC008E828F83E0F8C394054003025B3EE8903F
:1059BC000777025B1A7401650B6003025B3E125B96
:1059CC006B4003025B3EE8900778025B1A7410652B
:1059DC000B6003025B3E75081075090078081219FC
:1059EC00897A797B07120FA77402121717025B646E
:1059FC007401650B6003025B3E125B6B4003025B40
:105A0C003EE8900789025B1A7401650B6003025B28
:105A1C003E8E828F83E0900DAC025B1A7404650B92
:105A2C006003025B3E8E828F83780C1215D19082BC
:105A3C00F4780C1213F05003025B3E90078B780C39
:105A4C001215E0025B64E96003025B3E1206C5E9D5
:105A5C007005121169806090081E806E7407650BCA
:105A6C006003025B3E7508067509007808121989F7
:105A7C008E828F83A3AC82AD83740212176AAA82C2
:105A8C00AB83120FAD74021217177C007D008518C2
:105A9C0082851983AA82AB838E828F83E0F91211DF
:105AAC000FE9F508C3940A4003025B611206C5E9CD
:105ABC00700CA90812116F7950121307806F741FA4
:105ACC002508F58274083400F58374018040740154
:105ADC00650B705E125B6B5059E890078A802F74CF
:105AEC0001650B704D8E828F83E0F8C3940A50428F
:105AFC00E8900DAB80187401650B70368E828F8325
:105B0C00E0F874F928C3940A5028E8900DADF080A1
:105B1C00477401650B701B90081DE0F88E828F8313
:105B2C00E090081DF0E87030E06401702B12115DFC
