:020000040000FA
:0600000002010A02233791
:03002B0002279118
:03003B000227B2E7
:030043000227454C
:030053000223AADB
:03006B0002276BFE
:100083000221A3E5C754F84401F5C7790122000012
:100093000080FB120086B900030200F4E4792178A2
:1000A30008B800028004F709D8FCE479297802B87B
:1000B30000028004F709D8FCE4900281789479095E
:1000C3008002F0A3D8FCD9FA900B14AA82AB8390D8
:1000D300013A789379058015E493A3AC82AD838AC2
:1000E300828B83F0A3AA82AB838C828D83D8E9D9D8
:1000F300E775829C7583B2740312011C7582917536
:100103008300740012011C75D00075813F7518813E
:10011300751902759F00020096C09FF59FE473D086
:100123009F22D083D082C09FE493C0E0740193C028
:10013300E0740293F59F22FF0000B400002800281A
:1001430000283075A000A000A000A000000800084F
:10015300E001F0001000100010001000100010006B
:1001630050005000500010001000D00700000000A5
:1001730000000F00010005003075070010000100AA
:1001830081FF00000000FFCA07E807D007FF020253
:100193000208025000A0000000E80302738201007D
:1001A300005282027D820100006B0B026F8201000C
:1001B30000B302027D820100006C0B025B8201002E
:1001C30000C902027D820100006D0B025D82010005
:1001D30000CB02027D820100006E0B025F820800E9
:1001E30000CC02027D820100006F0B0261820100DC
:1001F30000700BFF0100FF200273820100004C829C
:10020300027D82010000D40B0297820000000000EF
:1002130002718203000019039A0D9A0D9A0D9A0D2B
:100223009A0D9A0D9A0D9A0D9A0D9A0D9A0D9A0D93
:100233009A0D1C1034101610FFFF4902000304121C
:10024300640273820100004982027D820100001C66
:100253000C0277820100001D0C027182030000670B
:1002630007020202020202020202010D0000001054
:10027300010273820100005882027D820100003E68
:100283000C0267820100006D07027D820100003FBE
:100293000C0269820100002A81027D820100004074
:1002A3000C027F820100001C81027D82010000415B
:1002B3000C028382010000CC80027D820100004297
:1002C3000C028D820100009680027D8201000043B2
:1002D3000C026B82010000A880027D8201000044B1
:1002E3000C029582010000BA80027D820100004564
:1002F3000C0293820100000E81027D820100004600
:100303000C029182010000470C01E803053F100A2B
:10031300FF00120273820100005582027D820100F8
:1003230000EF0C028F82010000420A027182030077
:1003330000430A01307503020106000000000000BB
:1003430000000000000000000000000000000000AA
:10035300000000000000FFFF0600800CE80300001F
:10036300000000000000000000000000000010007A
:10037300000000000000000000000000000000007A
:10038300100000000000000000000000000000005A
:10039300000010000000000000000000000000004A
:1003A300000000000000000000100000000000003A
:1003B300000000000000000000000000000000003A
:1003C3000000000800000000000000000000000022
:1003D3000000000000000000000000000400000016
:1003E3000000000000000000000000000000000406
:1003F30000000000000000000000000000000000FA
:1004030000020000000000000000000000000000E7
:1004130000000000000001000000000000000000D8
:1004230000000000000000000000000000000000C9
:1004330001000000000000000000000000000000B8
:1004430000000000000000000000010000000000A8
:10045300000000000000110011121B00110C150018
:100463001100000000000000040004000E00001250
:1004730011001100110000120A00040C0000040412
:1004830006100C0206080404040406080C020610F5
:100493000404000004040404040404040404040421
:1004A30004040000040400001A80080809363530EB
:1004B3004C697465051214001400020A0002010558
:1004C3000302F0FF3635304C69746500000000000C
:1004D300000000000000000000C0140000C614402B
:1004E300010102420B01020A436861726163746590
:1004F30072697374696320310002436861726163D6
:1005030074657269737469632032001A4368617297
:10051300616374657269737469632033001043689F
:100523006172616374657269737469632034000274
:1005330043686172616374657269737469632035BA
:10054300000273820100004F82027D82010000C419
:100553000E029B82030000DF0A027582010000C5C0
:100563000E027D82010000D60E029D82010000F37F
:100573000A027582010000D70E027D82010000E8A5
:100583000E028B82030000F40A027582010000E967
:100593000E027D82010000FA0E028982000000082B
:1005A3000B027182030000090B027582010000FB3C
:1005B3000E027D820100000C0F0287820400000FEF
:1005C3000B0275820100000D0F12012572A00312A8
:1005D300012589A003120125BAA003120125F5A064
:1005E300031201251FA10312012549A103120125AD
:1005F30060A10312012577A1031201258EA1031225
:100603000125B7A103120125CAA103120125E0A107
:1006130003120125F3A1031201251AA203120125D6
:1006230045B30212012549B40212012581B4021215
:100633000125A4B402120125AFB402120125D2B4DC
:1006430002120125E1B502120125B6B602120125F7
:1006530031B702120125B9B702120125F4B702120C
:1006630001252BB802120125B9B80212012592B94E
:1006730002120125F2B902120125FDB90212012568
:100683007CBA021201257FBA0212012582BA021234
:10069300012511BB0212012514BB0212012544BB23
:1006A300021201256EBB021201255CBC0212012558
:1006B3000EBD0212012547EA021201256FEA02125A
:1006C30001259DEA02120125D4EA0212012532EB2B
:1006D300021201257DEB02120125C8EB021201254E
:1006E30008EC021201254EEC021201257CEC0212E9
:1006F300012539ED0212012543ED0212012550EDCA
:100703000212012583ED021201254FEE021201258B
:100713005BEE0212012573EE021201257DEE021239
:1007230001255BAC0312012569AC0312012581ACE1
:100733000312012599AC0312012528BB01120125DF
:10074300D4BB011201254FBC0112012570BD01125A
:100753000125ACBD0112012555BE011201253CBF87
:1007630001120125A0C001120125F7C001120125C4
:1007730078C10112012568C201120125B5C2011217
:1007830001253BC3011201256DC30112012581C55A
:1007930001120125C3C501120125E1C5011201257D
:1007A30064C60112012538C70112012500C80112D0
:1007B3000125FDDD02120125D0DE0212012579DFBC
:1007C30002120125CCDF021201257CE00212012571
:1007D30008E102120125F4E10212012523E20212CB
:1007E300012536E3021201257EE30212012553E4BB
:1007F300021201258FE402120125ABE40212012546
:100803009BB00312012567FC021201257DFC021235
:100813000125A3FC02120125BFFD02120125C9FD1A
:1008230002120125FEFE02120125F6FF0212012526
:1008330020E50212012550E60212012583E6021289
:100843000125CDE60212012594E802120125F66F77
:1008530000120125607000120125BF7100120125ED
:10086300CF7100120125FC71001201255372001291
:100873000125FC7200120125037400120125CD74B9
:10088300001201252D760012012570760012012534
:10089300157700120125627700120125887700126F
:1008A30001259679001201259B7900120125A07B71
:1008B30000120125ED7B00120125607C0012012549
:1008C300937C00120125357D00120125DE7D001287
:1008D3000125167E00120125197E00120125617E75
:1008E30000120125A17E00120125F87E00120125C8
:1008F3008E9403120125A69403120125EE9403128C
:1009030001250495031201254B95031201255F96DA
:1009130003120125EC9603120125379703120125D3
:100923002428001201253028001201256B2800120B
:100933000125B02800120125702900120125F6298E
:10094300001201255B2A00120125872A00120125C6
:10095300C02A00120125FE2C00120125E22E0012EE
:100963000125C830001201250B320012012559342C
:10097300001201256B3500120125B6360012012540
:10098300C63700120125E337001201251E38001275
:100993000125403800120125A33800120125643DCA
:1009A30000120125F93D001201254A3E00120125DE
:1009B300713E00120125C33E00120125E13E0012E3
:1009C30001253B3F001201252440001201259A41D5
:1009D300001201251E420012012504EF0212012517
:1009E3000EEF0212012551EF021201256CEF0212E4
:1009F3000125FCEF0212012524F00212012561F00A
:100A03000212012598F002120125C1F002120125FC
:100A130036F1021201254BF10212012560F1021297
:100A2300012591F102120125A5F102120125CAF156
:100A33000212012504F20212012530F202120125ED
:100A430068F202120125E7F20212012530F30212C5
:100A530001255AF30212012585F3021201255DA82F
:100A630003120125E99A02120125179B021201259F
:100A7300659C02120125459D02120125649D021207
:100A83000125E19D02120125249E021201257A9F70
:100A9300021201253BA002120125C2A20212012566
:100AA30063A30212012559A40212012556A50212BD
:100AB3000125B0A6021201253BA70212012502A7B8
:100AC300031201256BA703120125BFA703120125FA
:100AD300E6A70312012517A803120125ADF302129D
:100AE30001251AF40212012561F40212012579F598
:100AF3000212012575F60212012558F7021201258B
:100B03007FBD02120125C1BD0212012593BE02124F
:100B130001256CBF0212012566C00212012548C1DE
:100B230002120125B1C10212012567C20212012579
:100B3300DBC20212012547C30212012570C3021250
:100B43000125EAC30212012583C402120125E8C468
:100B530002120125FDC40212012543C5021201251B
:100B63005CC502120125C1C502120125C4C50212CA
:100B73000125AA8E03120125D28E03120125108F9F
:100B830003120125CE8F031201253590031201258F
:100B9300519003120125799003120125A9900312A4
:100BA3000125B890031201253591031201255B91AC
:100BB30003120125C6AB01120125A4AD01120125C3
:100BC300D6AF0112012512B0011201253FB0011267
:100BD300012529B10112012574B101120125BFB10B
:100BE30001120125D1B10112012511B20112012512
:100BF30046B20112012594B201120125C3B20112BA
:100C03000125E6B20112012533B301120125B8B360
:100C130001120125D2B50112012511B801120125D6
:100C230052B801120125F4B90112012535BA011296
:100C33000125A8BA01120125FEBA01120125D48D9E
:100C430002120125D28E021201256B950212012593
:100C53008C9702120125579902120125BF9A02129D
:100C630001258542001201253443001201257A43F0
:100C730000120125BA440012012550460012012535
:100C8300CA4600120125E5460012012560470012FD
:100C93000125BA48001201251A4A00120125204BEA
:100CA30000120125814C001201259A4C00120125E6
:100CB300F84C00120125E64D00120125194E0012D1
:100CC3000125894E00120125034F001201254D4FC6
:100CD30000120125175000120125EC5000120125C6
:100CE300CB5100120125565200120125C4520012A5
:100CF30001253853001201256353001201252254A4
:100D030000120125875500120125A4550012012563
:100D1300C35500120125B45600120125D9560012FD
:100D230001250357001201257E5700120125D857CC
:100D330000120125415900120125EF590012012526
:100D4300305A001201250080021201254E80021242
:100D530001255A8002120125388102120125698179
:100D6300021201259A81021201251A82021201251B
:100D7300528202120125A48202120125E18202128B
:100D83000125FE84021201252487021201250F8901
:100D930002120125F98A02120125F87F00120125AA
:100DA300B39701120125E39701120125BC9E01129D
:100DB300012541A0011201253EA60112012526A706
:100DC3000112012563A70112012586A7011201253E
:100DD300B7A701120125C0A701120125CAA7011255
:100DE3000125B8A801120125AEA901120125A4828B
:100DF30001120125A38601120125A98601120125ED
:100E0300E48D01120125FD9201120125638B03126A
:100E130001255D8C03120125D18C031201250F8D51
:100E230003120125838D03120125FC8D0312012575
:100E3300058E03120125118E03120125268E03123E
:100E43000125648E031201257A8E031201251AF8F7
:100E53000212012527F80212012541F80212012589
:100E630080F802120125BEF80212012523F90212AD
:100E7300012538F90212012543F90212012550F91F
:100E83000212012567F90212012575F902120125E3
:100E930080F9021201258CF9021201259BF9021235
:100EA3000125A6F902120125C9F90212012570FADA
:100EB3000212012580FA021201259AFA0212012573
:100EC300B7FA02120125D3FA02120125F8FA021227
:100ED300012503FB0212012518FB021201252CFB3D
:100EE300021201258DFB0212012593FB021201253B
:100EF30099FB021201259FFB02120125B7FB021287
:100F03000125EAFB021201258AD8011201250ED917
:100F130001120125BDD9011201251CDB0112012596
:100F23003DDD0112012529DE011201255EDE0112DC
:100F3300012580DE011201252FDF0112012527E1A2
:100F43000112012550E101120125E2E101120125FF
:100F530014E20112012521E20112012578E20112B6
:100F630001259EE2011201250BE5011201250EE682
:100F73000112012566E60112012519CA0112012594
:100F830023CB011201250ACC0112012514CC011235
:100F9300012536CC0112012542CC01120125DBCDFE
:100FA300011201250ACE0112012526CF01120125C6
:100FB3007FCF01120125E5D001120125C4D1011211
:100FC300012520D2011201258DD201120125C8D29B
:100FD3000112012507D301120125C0D501120125F4
:100FE300DAD50112012566D60112012574D6011244
:100FF3000125CDD601120125DBD6011201254ED7DD
:1010030001120125B2D701120125FCD701120125D6
:10101300B3F401120125D5F401120125FBF60112E7
:10102300012510FA0112012528FB01120125DBFB22
:1010330001120125BDFC011201252CA20312012579
:1010430051A203120125C3A20312012583D6021262
:1010530001258CD60212012595D6021201256CD7E3
:10106300021201251DD90212012553D902120125AD
:101073008DD902120125C3D902120125FDD902120D
:10108300012531DA021201255DDA02120125A6DA01
:1010930002120125E0DA0212012529DB02120125E1
:1010A30081DB02120125B6DB0212012511DC0212DB
:1010B30001254BDC021201259CDC02120125D2DC46
:1010C300021201250CDD021201253ADD021201256F
:1010D3005DDD02120125BFAE03120125EBAE031243
:1010E300012546AF0312012550AF0312012560AF5E
:1010F30003120125E8C502120125F2C502120125DA
:1011030030C60212012579C602120125B3C60212A6
:1011130001250DC7021201252EC70212012506CA99
:10112300021201250FCA021201255CCA021201250F
:1011330085CA021201258FCA02120125FBCA0212B7
:1011430001258DCB02120125D7CB021201250DCC2F
:101153000212012599CC02120125DACC02120125D3
:1011630011CD0212012523CD0212012542CD021217
:1011730001254BCD0212012513CE021201257AAAB5
:1011830003120125819E03120125B79E0312012537
:10119300ED9E0312012538A0031201251FB103128E
:1011A300012535B1031201253FB10312012589B190
:1011B3000312012500800312012515800312012566
:1011C300C88003120125088103120125218103121E
:1011D30001255C8103120125A98103120125DB810D
:1011E300031201251D820312012573A50312012594
:1011F3009CA503120125CBA50312012563A60312A7
:1012030001257BA603120125BDA603120125A39187
:1012130003120125B1910312012522920312012524
:10122300E69303120125049403120125729C031211
:101233000125A29C03120125129D03120125B29DD3
:1012430003120125619703120125869703120125D5
:10125300B0970312012546B203120125605A00120A
:101263000125C55C00120125665E001201251A5F87
:1012730000120125AD5F0012012532600012012525
:10128300576000120125AD6300120125336400127B
:101293000125666500120125A06500120125D565AB
:1012A30000120125956700120125F267001201253E
:1012B3003B6800120125A668001201251769001278
:1012C3000125496900120125616900120125AA6AF5
:1012D30000120125BA6A00120125D56B00120125FF
:1012E300F76B001201252D6C00120125E16D001230
:1012F30001256E6E00120125AD6E00120125D16F1E
:1013030000120125FEAD031201250FAE03120125C4
:10131300B4AE03120125EFB2031201252EB303125B
:101323000125E57F0012012506B00312012516B041
:10133300031201252BB00312012591B003120125DD
:1013430076A903120125FBA90312012561AA031241
:10135300012532AD0312012566AD031201258FADC0
:101363000312012571AB0312012592AB0312012570
:10137300E6AB0312012530AC03120125C2B30312FD
:101383000125E8B103120125F7B103120125F787FF
:1013930003120125878803120125138903120125EE
:1013A300AC89031201253D8A03120125468A0312E3
:1013B3000125C48A03120125D78A03120125ED8A68
:1013C300031201254D8B03120125608B03120125A6
:1013D300D1A30312012523A403120125ADA40312F3
:1013E300012514A5031201252D9A03120125579AED
:1013F30003120125259B03120125009C03120125DD
:1014030041CE0212012508CF021201253FCF02125D
:10141300012569CF02120125C9CF021201251FD070
:101423000212012584D0021201251CD102120125CA
:101433002BD202120125C2D3021201254FD402126C
:101443000125B6D402120125CDD402120125E7D518
:101453000212012525D6021201256AAF03120125C6
:101463009AAF031201259FAF03120125B4E60112BF
:10147300012535EA01120125BDEB0112012514EC0A
:101483000112012533EC01120125B1EC01120125F2
:1014930047EE011201252CEF011201253AF3011247
:1014A300012510F401120125BCA70212012569AA26
:1014B3000212012584AA0212012582B1021201251A
:1014C300F1B102120125DCB20212012528840312B4
:1014D30001256D84031201258A84031201254F859A
:1014E30003120125B8850312012585860312012500
:1014F300BE87031201256EB30312012538B303120D
:1015030001259AB303120125E1FF01E0667010087B
:10151300A3E066700A08A3E066700408A3E06622ED
:10152300C3E7960809E7960809E7960809E79622AC
:10153300C3E09608A3E09608A3E09608A3E09622EA
:10154300C008C3E096F50808A3E096420808A3E0A4
:1015530096420808A3E09645087001D3D0082208F4
:101563000808EAC0E0EBC0E086F0E7A4FA180986B1
:10157300F0E7A42AFA180986F0E7A42AFA180986DC
:10158300F0E7A42AFA1986F0E7A4FBE5F02AFA1992
:101593000886F0E7A42BFBE5F03AFA190886F0E792
:1015A300A42BFBE5F03AFA18180986F0E7A4C5F076
:1015B3002BFBE43AFA1908E7C5F0C6A426F6E5F0D2
:1015C3003BFBE43AFA1886F0E7A4F6E5F00826F6C2
:1015D300E43B08F6E43A08F6D0E0FBD0E0FA22E474
:1015E300CFC0E0E4CEC0E0E4CDC0E0E4CCC0E07521
:1015F300F020C3E633F608E633F608E633F608E6EA
:1016030033F6181818EC33FCED33FDEE33FEEF33ED
:10161300FFC3EC9709ED9709EE9709EF971919198D
:10162300400FFFEC97FC09ED97FD09EE97FE1919A2
:1016330006D5F0BEECF709EDF709EEF709EFF71958
:101643001919D0E0FCD0E0FDD0E0FED0E0FF22602D
:1016530016080808C6C313C618C613C618C613C689
:1016630018C613C6D5E0EA227009080808226016D6
:10167300181818C6C333C608C633C608C633C60807
:10168300C633C6D5E0EA22E627F60809E637F608A8
:1016930009E637F60809E637F622E026F608A3E05E
:1016A30036F608A3E036F608A3E036F622E026F085
:1016B30008A3E036F008A3E036F008A3E036F022F2
:1016C300C3E697F60809E697F60809E697F60809C8
:1016D300E697F622C3E096F008A3E096F008A3E0AD
:1016E30096F008A3E096F022E657F60809E657F6C7
:1016F3000809E657F60809E657F622E056F608A366
:10170300E056F608A3E056F608A3E056F622E056A4
:10171300F008A3E056F008A3E056F008A3E056F063
:1017230022E0F608A3E0F608A3E0F608A3E0F62219
:10173300E6F008A3E6F008A3E6F008A3E6F022E04B
:10174300FAA3E0FBA3E0FCA3E0FD22EAF0A3EBF0A5
:10175300A3ECF0A3EDF022CAC0E0E6F0A308DAFAA6
:10176300D0E0FA22CAC0E0E0A3C582CCC582C5831B
:10177300CDC583F0A3C582CCC582C583CDC583DA2D
:10178300E6D0E0CA22C3E498F8E499F91217C980B5
:1017930026C3E49AFAE49BFBE920E7E91217C9E4BC
:1017A30098F8E499F922C3E498F8E499F91217C96F
:1017B300E498F8E499F9C3E49AFAE49BFB22EB205A
:1017C300E7CFE920E7E0B90010BB0008E88AF0841E
:1017D300F8AAF022E4FBC8FA22EB70227B10C8338C
:1017E300C8C933C9335007C39AC3DBF280069A5082
:1017F300012ADBEAC833F4C8C933F4C9FA2275F005
:1018030008E4C833C8C933C933C99AC99B5004C94A
:101813002AC93BD5F0ECFBC833F4C8E4C9FA22600B
:101823000D08C6A2E713C618C613C6D5E0F3226097
:101833000C08C6C313C618C613C6D5E0F422700439
:1018430022600D18C6C333C608C633C6D5E0F418E4
:1018530022251810AF08F518400215198008F5184D
:1018630040021519D2AF22C0D0251810AF08F518C1
:10187300500205198008F51850020519D2AFD0D0CF
:10188300222518F58210AF08F518400215198008B3
:10189300F51840021519D2AF85198322C582251880
:1018A300C582C583351910AF07F5198582188007DE
:1018B300F519858218D2AFC583222518F582E43540
:1018C30019F58322E4732518C582C0E0E51934FFB6
:1018D300C583C0E0E518C3958224F810AF0885835B
:1018E300198582188008858319858218D2AFCEF0B6
:1018F300A3E520F0A37808E608F0A3DEFAEFF0A34F
:10190300E58124FAF8E608F0A3E608F0A3E608F078
:10191300A30808E608F0A3E608F0A315811581D013
:10192300E0FED0E0F8158115811581E8C0E0EEC036
:10193300E0222518C582C0E0E51934FFC583C0E065
:10194300E518C3958224F910AF0885831985821899
:101953008008858319858218D2AFCEF0A3E520F0E5
:10196300A37808E608F0A3DEFAEFF0A3E58124FBF1
:10197300F8E608F0A3E608F0A30808E608F0A3E6F3
:1019830008F0A315811581D0E0FED0E0F81581158C
:1019930081E8C0E0EEC0E022851983851882E0A3C8
:1019A300FEE0A3F5207808E0A3F608DFFAE0A3FF42
:1019B300E0A3C0E0E0A3C0E0E0A3C0E0E0A3C0E098
:1019C300E0A3C0E010AF08858218858319800885DD
:1019D3008218858319D2AFD083D082020122851960
:1019E30083851882E0A3FEE0A3F5207808E0A3F640
:1019F30008DFFAE0A3FFE0A3C0E0E0A3C0E0E0A3B8
:101A0300C0E0E0A3C0E010AF088582188583198089
:101A130008858218858319D2AFD083D08222C0D0A3
:101A23002518C582C0E0E51934FFC583C0E0E51879
:101A3300C3958224F310AF08858319858218800823
:101A4300858319858218D2AFC8F0A3E9F0A3EAF021
:101A5300A3EBF0A37908E709F0A3D8FAECF0A3ED20
:101A6300F0A3EEF0A3EFF0A3D0E0F0A3D0E0F0A357
:101A7300D0E0F0A3E520F0A3E5F0F0A322851983DD
:101A8300851882E0C0E0A3E0F9A3E0FAA3E0FBA39A
:101A93007808E0F608A3DFFAE0FCA3E0FDA3E0FE8C
:101AA300A3E0FFA3E0C0E0A3E0C0E0A3E0F5D0A380
:101AB300E0F520A3E0A3F5F010AF08858319858234
:101AC300188008858319858218D2AFD082D083D03D
:101AD300E0F8D0E03274048006740280027401C01E
:101AE300E0F404121884D0E012175A22740480041C
:101AF30074028000CCC0E0EDC0E0E518C39CCCAD1F
:101B03001950011D10AF068C188D1980068C188D85
:101B130019D2AF121767D0E0FDD0E0FC22D083D0FA
:101B230082E9C0E0E493A3C386F0C5F095F0F90819
:101B3300E493A386F0C5F095F0700BE493A3C399E7
:101B43004005E9048002A3E475F002A42582F5822E
:101B5300E5F03583F583D0E0F9E493A3C0E0E493A3
:101B6300C0E022D083D082ECC0E0EDC0E0E493A3D8
:101B7300FCE493A3FDED4C600D121BB2EC24FFFCBF
:101B8300ED34FFFD80EFE493A3FCE493A3FDED4C60
:101B9300600D121BF1EC24FFFCED34FFFD80EFD050
:101BA300E0FDD0E0FCE493A3C0E0E493C0E022C0F6
:101BB300E0C3E49396087401939618400FE4936688
:101BC300700808740193661870007019A3A3C3E426
:101BD3009396087401939618A3A3400DD0E0D0E028
:101BE300D0E0021BA2A3A3A3A3A3A3D0E022C0E03F
:101BF300C0F088F0E4936670080874019366187067
:101C030000A8F0A3A3700BD0F0D0E0D0E0D0E002A6
:101C13001BA2A3A3D0F0D0E02274F5121935EAFE7B
:101C2300EBFFEE2434F8EF3400F988088909EE2439
:101C330035F582EF3400F583E0F8EE2437F582EFD3
:101C43003400F583E0F50AEC850AF0A4FCAAF085DC
:101C53000AF0EDA42AFDE82CF8E43DF97A257B008F
:101C63001217C9EA850882850983F0F8740758F9C1
:101C73007401B900028004C333D9FCFAE8131313C7
:101C8300541FF8EE28F8EF3400F9E8245DF582E9F3
:101C93003400F583E05A6008EE2434F582EF802C9B
:101CA300EE2434F582EF3400F583E0C0E0EE243611
:101CB300F582EF3400F583E0F5F0D0E084A8F0EE90
:101CC30028F8EF3400F9E82438F582E93400F58385
:101CD300E0F97F040219E174F5121935EAFEEBFF0E
:101CE300EE2434F582EF3400F583E0C0E0EE2435D2
:101CF300F582EF3400F583D0E0F08E828F83A3A3C7
:101D0300A3A3A3A3A3C082C0838E828F83A3A3A311
:101D1300A3A3E0F8A3E0F9D083D082E0C398F50849
:101D2300A3E099F509EE247FF582EF3400F583E013
:101D330064017069EE2480F582EF3400F583E0F8E6
:101D4300A3E0F98E828F83A3A3A3A3A3A3A3E0FCA1
:101D5300A3E0FD8E828F83A3A3A3A3A3E0FAA3E052
:101D6300FBC3EA9CEB9D5010C3EC98ED99402EC346
:101D7300EA98EB995027800EC3EA98EB994007C382
:101D8300EC98ED9940177CDC7D04EEFAEFFB120C26
:101D9300F8EE247FF582EF3400F583E4F0EE24348B
:101DA300F8EF3400F9E8FCE9FDEE2435F582EF3471
:101DB30000F583E0F8EE2437F582EF3400F583E095
:101DC300F50AE508850AF0A4F508AAF0850AF0E506
:101DD30009A42AF509E82508F8E43509F97A257BE9
:101DE300001217C9EA8C828D83F0F8740758F974CE
:101DF30001B900028004C333D9FCFAE81313135466
:101E03001FF8EE28F8EF3400F9E8245DF582E93491
:101E130000F583E05A6008EE2434F582EF802CEE5F
:101E23002434F582EF3400F583E0C0E0EE2436F588
:101E330082EF3400F583E0F5F0D0E084A8F0EE28DB
:101E4300F8EF3400F9E82438F582E93400F583E04B
:101E5300F9122731021CD5C082C0838518828519E7
:101E630083E0F8A3E0F9C3EA9CEB9D5010C3EC9820
:101E7300ED99401BC3EA98EB995014800EC3EA987E
:101E8300EB994007C3EC98ED9940047901800279FE
:101E930000D083D08222EAC39CFAEB9DFB2274EF2D
:101EA3001219359003A2E064086005E06407702A04
:101EB3009061C8E060249003D0E0F4601DE0F87501
:101EC300F003A4C8AAF02AF974D228FE740339FFD8
:101ED3008E828F83A3A3A3E07003021FD19060605F
:101EE300E0C0E0EE2468F582EF3400F583D0E0F043
:101EF300750C45750D05750800750900E5D914F5D0
:101F03000AE5D95403F50E60177403650E605CE5AA
:101F13000A6010EE2467F582EF3400F583E0700366
:101F2300021FB6900540E06401602AEE2482F58228
:101F3300EF3400F583E06004780480027800850ABA
:101F430008E508C398FA95E0FB120BC68A088B09CB
:101F5300EA45097005120EEA8074EE2482F582EFD9
:101F63003400F583E070048A0C8B0DE50A6012855A
:101F73000C82850D83F50BE5D9F0A3150BE50B70EA
:101F8300F6EE2482F582EF3400F583E0604474FCBE
:101F9300250AF50A780C121ADCAC0AA90EEEFAEF40
:101FA300FB120D94740212186AE97026AA08AB0991
:101FB3001213D6793D8E828F83A3A3A3A3E0FA7B6A
:101FC30000120A9AEEFAEFFB120D10120DA6790019
:101FD30080747403650E6056850A107511007810BD
:101FE300121ADCAC0CAD0DAA08AB09120D70740209
:101FF30012186AEE2468F582EF3400F583E06480FA
:102003007004747F8001E0F50C780C121AE0E50E81
:10201300F50C780C121AE0A90AAC08AD099003D0AC
:10202300E0FA7B00120A5E740212186A80139003AE
:10203300A2E06408600BAC0CAD0DEEFAEFFB120EE0
:1020430000120EF679017F0A0219E174F5121935AF
:1020530074FC121854EAFEEBFF8908A2AFE433F5CF
:1020630009C2AF806AEE2463F8EF3400F97A007B8B
:1020730000A2AFE433F50AC2AF88828983E0FCA3F0
:10208300E0FDEC4D603A88828983E0FAA3E0FB8AA5
:10209300828B83E0FCA3E0FD88828983ECF0A3EDCF
:1020A300F08A828B83E4F0A3F088828983E0FCA327
:1020B300E0FDEC4D700A88828983A3A3E4F0A3F0CA
:1020C300E50AA2E092AF1213D69004E3E004F0EE27
:1020D3002463F582EF3400F583E0F8A3E0F9E849DF
:1020E300603DEE2463F582EF3400F583E02402FAC9
:1020F300A3E03400FBEA2402F50AEB3400F50B7885
:102103000A121ADC8A828B83E0FCA3E0F9EEFAEF71
:10211300FB120D34740212186AE9700302206890EE
:1021230004E3E060639004E4E0F89004E3E0C39820
:10213300500C7402650870509004E5E0604A8E828A
:102143008F83A3A3A3A3E0851882851983F0A3E457
:10215300F09004E3E0F874021218BDE8F0A3E4F091
:102163009004E3E0F89004E2E028F074021218BD52
:10217300AC82AD83851882851983AA82AB837901EA
:10218300120A6A9004E3E4F0E509A2E092AF740452
:1021930012186A021CD50000008521878522C622F9
:1021A300C0E0C0D0E8C0E0E9C0E0EAC0E0EBC0E0D6
:1021B300ECC0E0EDC0E0EEC0E0C008C009C00AC05A
:1021C3000BC082C083C0F0A2AFE433FEC2AF759BE5
:1021D30000906182E0A2E05012E591A2E0500C75FC
:1021E30091FE740165217003121EA1E0A2E5505116
:1021F300E591A2E5504B7591DF9003A2E06407607F
:1022030005E064087023740165217035790190033A
:10221300D0E0FA75F003A4CAA8F028FB74D22AFA16
:1022230074033BFB12204E8018E0640D701390037F
:10223300C4E004F064287002E4F07A00E0F9120EBE
:10224300FC906182E0A2E640030222EAE591A2E665
:1022530040030222EA7591BF9003A2E0640570086F
:10226300120E2A120E368003120E30752100120E42
:102273008AE99003A3F07900120E7E120C6E7A01A4
:102283007B009003A1E0F9121154907803E06442BB
:102293007055900544E014F0704DC2AF1222A200B5
:1022A300782AD0E0F618D0E0F6E59F54077005755C
:1022B30009FF800375097FC4C0E07829E6F50808A3
:1022C300E65509F509740B7808121832D0E0250891
:1022D300F8906270E0A2E740F8E8C333906272F0CE
:1022E300906270E0D2E0F0906181E0A2E35009E5F2
:1022F300E9A2E3500375E9F7A3E0A2E75009E591EA
:10230300A2E7500375917FEEA2E092AFD0F0D083A5
:10231300D082D00BD00AD009D008D0E0FED0E0FDA7
:10232300D0E0FCD0E0FBD0E0FAD0E0F9D0E0F8D088
:10233300D0D0E032C0E0C0D0C082C083906183E0DF
:10234300A2E05009E5BFA2E0500375BFFEE0A2E1A1
:102353005009E5BFA2E1500375BFFDE0A2E25009B9
:10236300E5BFA2E2500375BFFBE0A2E35009E5BF5E
:10237300A2E3500375BFF7E0A2E45009E5BFA2E46E
:10238300500375BFEFE0A2E55009E5BFA2E5500396
:1023930075BFDFE0A2E65009E5BFA2E6500375BFB3
:1023A300BFD083D0828088C0E0C0D0E8C0E0E9C05D
:1023B300E0EAC0E0EBC0E0ECC0E0EDC0E0C0F0E577
:1023C300A7A2E6500FE5A1A2E6500953A7BF75A146
:1023D300BF12240FE5A7A2E5500CE5A1A2E5500624
:1023E30053A7DF75A1DFE5A7A2E15009E5A1A2E1AB
:1023F300500375A1FDE5A7A2E2500CE5A1A2E250AE
:102403000653A7FB75A1FBD0F002232074F8121921
:10241300357521019003A2E064067015120DC48A7C
:10242300828B83A3A3A3A3A3A3E0FAA3E0FB120ECF
:1024330018A2AFE433FED2AF9003A8E06401701892
:102443007A207B009003A1E0F91211D87A207B0057
:102453009003A1E0F912115A906182E0D2E6F09064
:102463000541E0602185C62280169003A7E0640140
:102473007008E5C654F84405F5C653BEFC12219C0A
:102483007401652160E4EEA2E092AF7F010219E1DD
:10249300008E238F248582288583278518828519BA
:1024A30083E0CEA3E0CF852882852783EBC9EAC8E2
:1024B300EDCBECCA75F010C3E833C8E933C9EA338E
:1024C300CAEB33CBC3EA9EF526EB9FF525B3500445
:1024D300AB25AA26EC33CCED33CDD5F0DAAE23AF62
:1024E300242274ED1219358A088B098C0A8D0B741A
:1024F300131218BD780C1217247808790C121523BF
:102503007510017511C87512007513005012780803
:10251300790C1216C37810790812152350168010FF
:10252300780C79081216C37810790C12152340041D
:102533007901800279007F0C0219E174ED121935DB
:102543008A088B098C0A8D0B74131218BD780C1230
:102553001724780C790812152340117808790C1286
:1025630016C3AA08AB09AC0AAD0B8022751000751F
:1025730011007512007513017810790C1216C378C7
:1025830010790812168AAA10AB11AC12AD1380A6EB
:102593008A828B837508FF7509FF750AFF750B0027
:1025A30078081217117F040219E174F51219358C9A
:1025B300828D8378081217248A828B8378081216F7
:1025C300D7EA2404F8EB3400F98C828D83A3A3A308
:1025D300A3E0FCA3E0FD88828983C3E09CF0A3E031
:1025E3009DF088828983C3E09420A3E0944E402623
:1025F3008A828B837508FF7509FF750AFF750BFFC8
:1026030078081216B08A828B83A3A3A3A3E02420A5
:10261300F0A3E0344EF002259374F5121935E9FE68
:102623009004F7E0FAA3E0FBEEC333F8E433F97464
:10263300DE28F582748039F583E02AF508A3E03BB0
:10264300F5097808121ADC7A407B427C0F7D001270
:102653002494740212186A8A088B098C0A8D0B74ED
:10266300107808121652AA08AB097F040219E17404
:10267300F11219358A0C8B0D8C0E8D0F740F1218F5
:10268300BDE0FAA3E0FB74111218BDE0F508A3E066
:10269300F5097808121ADCEA2401F508EB3400F591
:1026A30009E4F50AF50B780C7908121562750871BF
:1026B300750902780C7908121562AA0CAB0DAC0EE1
:1026C300AD0F122494740212186A8B09EA4509604B
:1026D300047A0180027A00EC2AFCED3400FD7413C5
:1026E3001218BDE0F8A3E0F9E8FEE9FFECF8EDF914
:1026F3007A717B021217C9880889098E828F8378C1
:1027030008121733ECF8EDF97A717B021217C98AB4
:10271300088B09740578081218418E828F83A3A34E
:10272300A3A3E508F0A3E509F07F080219E1C0823D
:10273300C083E9906000F0D083D08222C2AF020050
:102743000022C0E074F2121A21A2AFE433FED2AF2A
:10275300C2C0E5D1A2E4500653D1EF1213CAEEA2D0
:10276300E092AF7F01021A80C0E074F2121A21A234
:10277300AFE433FED2AFE589A2E0500312137675BE
:102783008900C2C5EEA2E092AF7F01021A80C0E0C9
:10279300C0D0E8C0E0E9C0E0E5A8D2AFC2C7A2E775
:1027A300A2E792AFD0E0F9D0E0F8D0D0D0E032C0C9
:1027B300E0C0D0E8C0E0E9C0E0C008C009C082C002
:1027C30083A2AFE433F9D2AF9009FAE0F8A3E0684B
:1027D3007008539AFBA374018026C2E99009FAE0BA
:1027E300F50874012508F0747A2508F58274093414
:1027F30000F583E0F5C19009FAE0C394804002E458
:10280300F0E9A2E092AFD083D082D009D008D0E023
:10281300F9D0E0F8D0D0D0E032FFFFFFFFFFFFFF99
:10282300FFC082C083E9900BD3F0022AB374F7127E
:1028330018C9E99002E1F07C197D037AFF7BFF124E
:1028430009B09002E274FFF0A3F0A3E4F0A3F079DF
:10285300051209389002E1E0F912085A7ACE7B0991
:10286300120B787F0102199B74F41218C98A088B22
:1028730009EB548060309002E1E0F912113C8A0ABE
:102883008B0BAE0AAF0BEE4F60138E828F83E06427
:10289300B07003120950EEFAEFFB12112AAA08E5F1
:1028A300096480FB80047A007B00022A8274F2129E
:1028B30018C974FC121854EAFEEBFFEE4F6038742B
:1028C300021218BDEEF0A3EF122CE7ECF0A3ED1209
:1028D3002CE7AA82AB83120854E9F50870737412CB
:1028E3001218BD12389BE50A450B60658E828F83F3
:1028F30012295EEE4F700575080280557A067B003B
:102903001211908A0C8B0DA80CA90DE8497005755E
:102913000813803D88828983E4122968A3A3EEF01B
:10292300A3EF123D34E50AF0A3E50BF09002E712A2
:1029330029F09002E76017E0FCA3E08003EAFCEBD8
:10294300FD8C828D831229F070F38C828D83123774
:10295300C0A908740412186A023F36A3A3A3A3E014
:10296300FEA3E0FF22F0A3F0888289832274F2128F
:1029730018C9890AE975F017A4FEAFF09002E6E4DE
:10298300F09002E41229F0600A1211969002E4E436
:10299300F0A3F0EEFAEFFB1211908A088B09EA45D7
:1029A30009602FEEFCEFFD79001211129002E4E5AD
:1029B30008F0A3E509F07B0080081229DAE4F0A30C
:1029C300F00BEBC3950A40F2E50A9002E6F07900BA
:1029D30080027913023F36EB75F017A4F8A9F09043
:1029E30002E4E028FAA3E0398A82F58322123556FD
:1029F300EA4B2274F41218C9750800750900740CA7
:102A03001218BD123D08FEE9FF800CE5082401F50C
:102A130008E5093400F509C3E5089CE5099D503232
:102A230085080A85090B7403780A121841EA250AF6
:102A3300F8EB350BF988828983A3A3A3A3A3A3127D
:102A4300389BEE650A7003EF650B70BFE8FAE9FB8C
:102A530080047A007B00802774F41218C97900EA95
:102A6300A2E0501B7508F27509817808121ADC7C04
:102A7300047D007AD57B0B120932740212186A7F27
:102A83000402199BC082C0839002E7122ABA601C19
:102A930088828983A3A3E06A7003A3E06B88828999
:102AA3008370E8A3A3A3A312355280047A007B00AA
:102AB300D083D082020122124009E8492274EE1227
:102AC30018C974FC121854EAFEEBFF8518828519A5
:102AD30083E4F0A3F0EE24021237A4EE2405122CB3
:102AE300D5EE2404F50EEF1230BAE024FE6039244B
:102AF300FC604624FE605224FE605E24FE700302E6
:102B03002BDA24FE7003022C5224FE7003022C6184
:102B130024FE7003022C7024FC7003022C7F24FE1D
:102B23007003022C8E022CCB9003007417F0A3E4E5
:102B3300122CEF1205D2022CCB851882851983AC97
:102B430082AD83120956022C9B851882851983ACAA
:102B530082AD8312095C022C9B850C08850D0974D8
:102B6300021218BDAC82AD838508828509831235B4
:102B7300521208788A0C8B0DAC0CAD0DEC4D6042F3
:102B8300E4F50CF50D780C121ADC750C00750D03C9
:102B9300780C121ADC750C01750D03780C121ADC13
:102BA30074081218BD121AF3791612354C120998CB
:102BB300740812186AE9F50C700B1235481205EA0D
:102BC300800F750C01850882850983122CDD12376D
:102BD300C0850C08022C9E74021218BDAC82AD8312
:102BE300850C82850D831235521208788A108B1159
:102BF300AC10AD11EC4D6043850C82850D83A3A30E
:102C0300121AF37510007511037810121ADC75107F
:102C1300017511037810121ADC74081218BD121A08
:102C2300F3791612354C120998740812186AE9F5EB
:102C330009700B1235481205F0800F750901850CD8
:102C430082850D83122CDD1237C0850908804C85DF
:102C53001882851983AC82AD83120962803A851884
:102C630082851983AC82AD83120968802B85188213
:102C7300851983AC82AD8312096E801C8518828509
:102C83001983AC82AD83120974800D85188285196E
:102C930083AC82AD8312097AE9F508E50860298ED1
:102CA300828F83A3E06414601F850E82850F83E007
:102CB300900300122CE71240059003011237C0E580
:102CC30008A3122CEF1205CCEEFAEFFB1208F60262
:102CD30036ACF50CEF3400F50D221240098518824D
:102CE30085198322F085188285198322F07C007D63
:102CF30003850A82850B831235562274EE1218C996
:102D030074FC1218548A0A8B0B8C0E8D0FEA24055F
:102D1300F508EB3400F5097C157D0079007A007B1A
:102D230003121112E5082402F50CE509122CD885CB
:102D330018828519838582108583117810121ADC15
:102D4300850882850983A3A3A3A3123202121ADC86
:102D5300E5082405F510E5093400F5117810121A79
:102D6300DC850C82850D8312355C120872740612A1
:102D7300186A8A108B11AE10AF11E50A2402F50A06
:102D8300E50B1237A7EE4F7003022EC480177402AF
:102D93001218BD12355288828983EAF0A3EBF090B2
:102DA3000300E004F0900300E0C394054003022E07
:102DB300C4E4F510F5117810121ADC7510E97511D9
:102DC300027810121ADC7510EA7511027810121AC3
:102DD300DC74061218BD121AF37910EEFCEFFD1223
:102DE300354C120998740812186AE9705E850882D6
:102DF300850983A3A3A3A3A3A3A3E0F89002E9E017
:102E0300687048123202121ADC7CEA7D02E508245B
:102E130008FAE5093400FB12110C740212186AE96E
:102E230060298E828F83A3A3A3A31235529003003C
:102E3300E0F5107402781012184174012510F58220
:102E430074033511F583EAF0A3EBF074021218BD95
:102E53008582108583117810121ADC74021218BD52
:102E6300121AF3850C82850D8312401A12087E74A0
:102E73000412186A8A108B11AE10AF11900300E090
:102E8300F5107511007402781012184174002510A2
:102E9300F874033511F988828983A31229F070032A
:102EA300022D88E82403F8E93400F9EE4F600302A9
:102EB3002D918882898374FFF0A3F0900300E004CE
:102EC300F0900300E0600A1235481205DE790080B5
:102ED3000B8508828509831237B7790A0236AC74E9
:102EE300EA1218C974FE1218548C128D13EA2405C1
:102EF300F50CEB124184122962750800750900EA8A
:102F03002402F510EB3400F51185188285198385A9
:102F1300820A85830B780A121ADC850C82850D835D
:102F2300A3A3A3A31230C4121ADCE50C2405F50AEB
:102F3300E50D1237A7780A121ADC850C82850D83FA
:102F4300124018120872740612186A8A0A8B0BEA66
:102F5300450B7003023075EA2404F50EEB1230BA08
:102F63001229628A828B83A3A3A3E0F98510828549
:102F73001183123552120860E9F5096003023075B6
:102F8300E4F514F5157814121ADC7514E9751502B5
:102F93007814121ADC7514EA7515027814121ADC07
:102FA30074061218BD121AF37913AC0AAD0B85100F
:102FB30082851183123552120998740812186AE92E
:102FC300F50960030230759002E9E0F8E50870093D
:102FD300E02402900301F08017900301E0FCE82451
:102FE30002FAE43400FBEA6C7001EB60030230790F
:102FF300850882AA821231F994141231F150738533
:103003000E82850F83E0C0E074022A1230B1D0E053
:10301300F00508850E82850F83A3E0C0E085080ACA
:103023007402250A1230B1D0E0F005089002E912CB
:1030330030C4121ADC7CEA7D0285080A7402250A70
:10304300FA74033400FB1210FA740212186A900225
:10305300E9E02508F50874FF6E700374FF6F6012D2
:10306300EE24010EEF3400FFE508C394145003026D
:103073002F0CE508601312343D85108285118312ED
:1030830035521205E479008014E509700375090AC5
:10309300851282851383EEF0A3EFF0A9097402125F
:1030A300186A7F0E02199B85080C7402250CF582A1
:1030B30074033400F583223400F50F850E82F58303
:1030C30022123D472274EE1218C974FE1218548C52
:1030D3000E8D0FEA2405F50CEB122CD8750B00901E
:1030E3000300E4F0F50AEA2402F508EB3400F509DD
:1030F3008049900300E0FA9002E9E0F81231F99474
:10310300171231F1400D900300E0F87416C3989044
:1031130002E9F0123202121ADC7CEA7D0274012AFF
:10312300FA74033400FB1210FA740212186A900244
:10313300E9E0F8900300E028F0050AE50C2416F511
:1031430082E50D1230B5E0F8E50AC3984003023179
:10315300DA900300E0C39416507DE50AC333F8E424
:1031630033F9E50C28FEE50D39FF851882851983AF
:10317300AC82AD838E828F831235521208788A1007
:103183008B11AC10AD11EC4D7005750B018043E450
:10319300F510F5117810121ADC7510E97511027823
:1031A30010121ADC7510EA7511027810121ADC7409
:1031B300061218BD121AF37916850882850983123F
:1031C3003552120998740812186AE9F50B70030254
:1031D30030F51237B380107C007D038508828509A2
:1031E300831235521205F6A90B74020236AEE99426
:1031F30000C365D03322EA28F8E43400F9E822E07A
:10320300F51075110078102274EA1218C974FC12B3
:1032130018548A0C8B0D8C128D13EA2405F50AEBD6
:103223001237A7750800750900E50A2402F510E5B1
:103233000B3400F51174021218BD85820E85830FBD
:10324300780E121ADC850A82850B83A3A3A3A3122B
:103253003CF3121ADCE50A2405F50EE50B3400F500
:103263000F780E121ADC8510828511831237AD1286
:10327300354C120872740612186A8A0E8B0FAE0E42
:10328300AF0FE50C2402F50EE50D3400F50F804079
:103293008882898374FFF005081230AA74FFF00551
:1032A300089002E9E0F50C750D00780C121ADC7C2D
:1032B300EA7D0285080C7402250CFA74033400FBC2
:1032C3001210FA740212186A9002E9E02508F50850
:1032D300EE4F60718E828F83A3A3A3E0F9850E82E4
:1032E300850F83123552120860E9F509EE240412A2
:1032F3002CD5E97044E4F514F5157814121ADC752D
:1033030014E97515027814121ADC7514EA7515029E
:103313007814121ADC74081218BD121AF37911EE1C
:10332300FCEFFD850E82850F8312355212099874C6
:103333000812186AE9F5096027850C82850D831246
:1033430034331237C0E508700302341912343D8553
:103353000E82850F831235521205FC790002342E3A
:10336300850882AA82EA9002E97009E024049003A6
:1033730001F08022E0F8900301E0F514E82404FC56
:10338300E43400FDEC65147001ED70C01231F99462
:10339300121231F150B6850C82850D83E0C0E074C2
:1033A300022A1230B1D0E0F00508850C82850D8326
:1033B300A3E0C0E01230AAD0E012344F85820C851E
:1033C300830D780C121ADC74041218BD121AF385DB
:1033D300108285118312401A12087E740412186A2F
:1033E3008A0C8B0DAE0CAF0D85080C7402250CF8FE
:1033F30074033400F9EE4F7003023293851882850B
:103403001983E08882898312344FA3E0C0E012302D
:10341300AAD0E00232A1E509700375090A850A8280
:10342300850B831234331237C0A90974040230A206
:1034330012400985128285138322900301E0F5F07F
:10344300E50884900300F07C007D0322F0050885E5
:1034530018828519832274EC1218C974FE12185449
:103463008A088B098C0E8D0FEA2405FEEB3400FFCE
:10347300851882851983AC82AD838E828F83123542
:10348300521208788A0A8B0BEE2418122CD5EA45BF
:103493000B70030235231236955032851882851935
:1034A3008312355212098C8A108B11EA4511606B15
:1034B3007912AC0AAD0B85088285098312355285D2
:1034C30010828511831218C7E9F50A7058E4F50ACA
:1034D300F50B780A121ADC8E828F83A3A3E0F50A18
:1034E300780A121ADCEE24031237A4780A121ADCC3
:1034F3008E828F8312355C12099E740612186AE954
:10350300F50A7021850C82850D83E0701F85088282
:103513008509831235521206028011750A0E80093D
:10352300750A018004E50A60031237B3850C8285AE
:103533000D83E0600479008002A90A740212186AFC
:103543007F0C02199B7C007D03850A82850B831205
:10355300355622E0FAA3E0FB22E0FCA3E0FD850858
:10356300828509831235562274EE1218C974FE122D
:1035730018548A088B098C0C8D0DEA2405FEEB3454
:1035830000FF750E00851882851983AC82AD838E8A
:10359300828F831235521208788A0A8B0BEA450B05
:1035A300700302368112369550358518828519834A
:1035B30012355212098C8A0E8B0FEA450F605E7921
:1035C30012AC0AAD0B850882850983123552850E2C
:1035D30082850F831218C7E9F50E600302368485CE
:1035E300088285098312389BAA0AFB1209808A1074
:1035F3008B11A810A911E849701E7AFF7BFF1209ED
:10360300808A108B11A810A911E849606C888289FF
:1036130083E50AF0A3E50BF0750A008007750E0E2B
:10362300805F050A9002E6E0FAE50AC39A504AE58C
:103633000A75F017A4FAABF088828983A3A3E02A62
:10364300FAA3E03BFB8A828B831237ADEC4D70D239
:10365300750A17750B00780A121ADCEEFCEFFD12DF
:1036630010FA740212186AEEFCEFFD8508828509D0
:10367300831235521206088014750E098003750EE5
:1036830001124001850C82850D831237C0A90E02F9
:1036930031ECE5082402F508E5093400F5098A82CE
:1036A3008B83A3A3A3E0A2E522740412186A7F0A02
:1036B30002199B74EC1218C98C108D11EA2405F5BC
:1036C3000CEB122CD8750F00EA2402F50AEB123723
:1036D300A7850A82F5831235521209808A088B095D
:1036E300EA45097003023799750E008071850C82D3
:1036F300850D83E06401704F8E828F83A3A3121A1A
:10370300F38E828F83A3A3A3A3E0F512751300782E
:1037130012121ADCEE2405F512EF3400F5137812B9
:10372300121ADC12354C12099E740612186AE9F556
:103733000F6014850C82850D83E4F012400185101F
:10374300828511831237C07C177D007900EEFAEF72
:10375300FB1211128E828F83E4F0A3F0050E900208
:10376300E6E0F8E50EC398501EE50E75F017A4F8D1
:10377300A9F0850882850983A3A312418E1237AD70
:10378300EC4D60030236F085088285098374FFF0EF
:10379300A3F0E50F700612354C12060EA90F023581
:1037A30043F50AEF3400F50B22A3E0FCA3E0FD226E
:1037B3008E828F83124009850E82850F83E8F0A3E2
:1037C300E9F022C082C0839002E2E06A7003A3E0C2
:1037D3006B70067AE27B0280047A007B00022AB3D4
:1037E300C082C08378008C828D83E06A7003A3E07B
:1037F3006B7010E875F003A4F8A9F0EC28FAED3922
:10380300FB8015088C828D83A3A3A3E06A7003A3B6
:10381300E06B60DF7A007B00022AB374F61218C9EA
:1038230012094A8A828B83E582458370067A007B7C
:10383300008007A3A3A3A3123552023EB274F2126F
:1038430018C9E9FE740E1218BD12389B74101218B1
:10385300BD123D138C828D83E064027036A3124047
:103863000FF50CA3E0F9A80C7402687003742969BE
:103873007021750C02750D00780C121ADC78081291
:103883001ADC780A121ADCEEF91209C2740612184D
:103893006A80027901023F36E0F50AA3E0F50B22C4
:1038A30074E81218C974FB121854E9851882851933
:1038B30083F08A168B17ECFEEDFF751000741D1252
:1038C30018BD124005741D1218BD1237C08E828FA9
:1038D30083A3A3A3E0A2E4502D741D1218BD1235D7
:1038E3005212098C8A828B83E58245837003023CE2
:1038F300E4790AEEFCEFFDAA16AB171218C7E9F537
:10390300106003023CE7741F1218BD123D137421AB
:103913001218BD12389B74231218BDE0F50EA3E0F4
:10392300F50F8E828F83E064026003023C92A31240
:103933004005850882850983A3858212858313EE5A
:103943002406122CD588828983E0FAA3E0F9EA24BD
:1039530000F514E439F5157814121B6601000028EC
:1039630001288739070002284C3A0328B93900296E
:10397300833B0129AE3B02294F3B0329833B0429A7
:103983002D3C923CE50E450F6003023C8D850C8275
:10399300850D83123D08FAE9FB8A828B83E0850A51
:1039A30082850B83123D3E121ADC8A828B83A3E04D
:1039B300FCA3E0023C17E50E450F6003023C8D8536
:1039C3000A82850B837401F0123D1B8508828509E9
:1039D30083F07C007D008E828F83A3A3A3A3E024C6
:1039E30001FAA3E03400FB120878EA4B60418A82B3
:1039F3008B83E02402F8850A82850B83E028F0EAB2
:103A03002404F8EB3400F988828983E085128285E7
:103A13001383123D50123D3E121ADC8A828B8312AD
:103A230037ACE5082403FAE5093400FB023C1C85A6
:103A33000A82850B83E02404F07C047D007900AACC
:103A430012AB13121112023CE7E50E450F6003029D
:103A53003C8D123D1BFEA3E0FF850A82850B837418
:103A630004F0EE850882850983F0EF8512828513C1
:103A730083F074031218BDAC82AD83EEFAEFFB1230
:103A830008788A0C8B0DEA450D7003023B308A825D
:103A93008B83A3A312295E74011218BD85820E8540
:103AA300830F780E121ADC74051218BD121AF37CF8
:103AB300FF7DFF12087E740412186A8B0FEA450F0C
:103AC3007033850C82850D83123CF3121ADC850C4E
:103AD30082850D83A3121AF37C027D007A9F7B8279
:103AE3001206AA740412186AE9700A74011218BD46
:103AF30074FFF0A3F08E828F83E064027039750C3B
:103B030002750D00780C121ADC8E828F831237AC8B
:103B1300E5082404FAE5093400FB1210FA740212D2
:103B2300186A850A82850B83E024028009740112D6
:103B330018BDEEF0A3EFF074011218BD123D04F0AE
:103B430074011218BDA3123CFC023C87E50E450F1D
:103B53006003023C8D850C82850D831237ADAA1656
:103B6300AB171209B6850A82850B837402F0EA85C6
:103B73000882850983F0851282851383EB023C8AD0
:103B8300E50E450F6003023C8D123D1BF8A3E0F9DF
:103B9300850A82850B837402F0E885088285098390
:103BA300F0E9851282851383023C8A850C82850D98
:103BB300831235521210F4EAFC8C82A882C3950E4C
:103BC300E4950F405FE8650E7002E50F70047C001A
:103BD3008022851882851983E0FAE50E2AFAE50F1B
:103BE3003400FBC3EA98EB94005003E08005E50E34
:103BF300CCC39CFCEC850A82850B83F08C0A750B85
:103C030000780A121ADC850C82850D83E0250EFCF0
:103C1300A3E0350FFDAA08AB091210FA74021218BB
:103C23006A023CE7751007023CE7E50E450F705A40
:103C3300850C82850D83124005850A82850B83746A
:103C43000712296A123CFC12296AA3E085128285B5
:103C53001383F0E82402FAE93400FB8A828B83128F
:103C63003CFC123D2B123D04A3123D34123D0DF0DA
:103C7300E82405F8E93400F988828983123D0DA30D
:103C8300123D50A3A3A3A3F0805A75100B80557463
:103C93001D1218BD12355212094A8A828B83E5829E
:103CA3004583603D124005880C890DE8450D603160
:103CB300780E121ADC780A121ADC7808121ADC74ED
:103CC300061218BDE0F9EEFCEFFDAA16AB17850C42
:103CD30082850D831218C7740612186AE9F51080DD
:103CE3000375100EA910740512186A7F1002199B30
:103CF300E0F50E750F00780E22E0850882850983B2
:103D030022123D5A22124009E822123D5AA3A3224D
:103D1300E0F508A3E0F50922850C82850D83E0F820
:103D2300A3E0F5838882E022A3A3F08A828B83A396
:103D330022F088828983A3A3A3A322F08A828B83A0
:103D4300123D4722E0F50A750B00780A22F08882BB
:103D53008983A3123D5A22E0850882850983A3A3A0
:103D63002274EE1218C974FE1218548A0A8B0BECD3
:103D7300FAEDFB74141218BDE0F510A3E0F511740D
:103D8300161218BDE0FE74181218BDE0F50EA3E07C
:103D9300F50F851882851983AC82AD831208788A62
:103DA3000C8B0DEA450D6049851882851983123500
:103DB3005212094A8A828B83E5824583602FA3A32B
:103DC300123D13E50845096024780E121ADC7810B9
:103DD300121ADCEEF9AC0CAD0DAA0AAB0B85088206
:103DE3008509831218C7740412186A8006790E8035
:103DF3000279010231EC74F61218C974FE121854D8
:103E0300740C1218BD123D08851882851983F0744D
:103E1300011218BDE9F0E4F508F5097808121ADC77
:103E23007508027808121ADC74041218BD8582081A
:103E33008583097808121ADC12099E740612186A1F
:103E4300740212186A806874F71218C9EAFEEBFF4D
:103E530089087C197D031209B6EA5402600BA9088C
:103E6300EEFAEFFB12086C8002790102286674F601
:103E73001218C974FF6A700374FF6B70168C828DFD
:103E830083123EB7E4F08C828D83A3A3A3123EB7C3
:103E9300A380181209868A088B09A808A909E8498A
:103EA300600D8882898374FF122968A3A3E4F07FDD
:103EB3000202199B74FFF0A3F08C828D83A3A322CB
:103EC30074F61218C91209868A828B83E5824583A8
:103ED3006006A3A3E0FA80027A007B0080D174F22B
:103EE3001218C98A088B09ECFEEDFF740E1218BD77
:103EF300E0F50A1209868A0C8B0DA80CA90DE84976
:103F03007026EEFCEFFD7AFF7BFF1209868A0C8B8D
:103F13000DA80CA90DE849700479118016888289CF
:103F230083E508F0A3E509F088828983A3A3E50A62
:103F3300F079007F0602199B74EE1218C9EAFEEBB2
:103F4300FF8C088D09890C74141218BD1240057476
:103F5300161218BD123552750D00E8496003023F71
:103F6300F97402650C6003023FF474121218BD1257
:103F7300400FFCA3E0F9EC2400F50EE439F50FEA59
:103F8300F4F8EBF4F9EC58F8E50F59F9E849705CEB
:103F9300E5082406F8ED3400F9880A890B8882F5D0
:103FA3008312401A1209B68A108B11E50E65107040
:103FB30004E50F65116042780E121ADC850A8285CA
:103FC3000B8312401A1209BC740212186AE9F50D28
:103FD3007027780E121ADC850882850983A3A31241
:103FE30040181209D4740212186A800D750D80806E
:103FF30008750D0D8003750D0BA90D0236B18E8268
:104003008F8312400922E0F8A3E0F92212400988C5
:10401300828983E022A3A3E0FCA3E0FDEEFAEFFB99
:104023002274E81218C974E7121854851882851986
:1040330083EAF0A3EBF08C168D17890E75080075D3
:10404300090074311218BDE0F512A3E0F5137433BF
:104053001218BDE0F514A3E0F51574351218BDE090
:10406300F50FE50975F003A4F8A9F0851882851901
:104073008312418EE0F47003A3E0F47003024171F4
:10408300EE2402F50CEF124184E0700302417185C6
:10409300160A85170B780A121ADCAC14AD15AA128E
:1040A300AB1312093E740212186A8A0A8B0BEA4593
:1040B3000B7003024171E4F510F5117810121ADC4C
:1040C30074061218BD8582108583117810121ADCCC
:1040D30074091218BD8582108583117810121ADCB9
:1040E300851282851383A3A3A3A3121AF37914ACB5
:1040F3000AAD0B8E828F83123552120998740812FF
:10410300186AE97069850A82850B83A3A3A3A312A6
:10411300400574021218BD1237C0850C82850D83C9
:10412300E0A2E05018A90E74021218BDAC82AD8350
:104133008E828F83123552120890E94208850C82D1
:10414300850D83E0A2E15026E50FF50A780A121ADD
:10415300E0A90E74031218BDAC82AD838E828F83E7
:1041630012355212088A740112186AE942080509C5
:10417300E509C394025003024065A9087419023C7F
:10418300EB3400F50D850C82F58322E028FEA3E0D5
:1041930039FF8E828F832274F21218C9EAFEEBFF75
:1041A300890B7401650B600E7402650B706A7901EB
:1041B300120B96E97062EEFAEFFB1209808A088B04
:1041C30009EA45096047750A00800B7C177D007971
:1041D30000121112050A9002E6E0F8E50AC39850AE
:1041E30021E50A75F017A4F8A9F0850882850983EB
:1041F300A3A3E028FAA3E039FB8A828B83122ABAAD
:1042030070C985088285098374FFF0A3F07C197D4A
:1042130003EEFAEFFB1209B0023F3674F21218C92B
:104223008A088B09ECFEEDFF740E1218BD12389B41
:10423300900BD3E0F4603D7A097B00121124EA4B22
:1042430060328A828B8374B1F0A3E4123D2DA312F2
:104253003D2BA3E508F0A3E50912427AEEF0A3EFA4
:1042630012427AA3A3E50AF0A3E50BF0900BD3E087
:10427300F9121130023F36F08A828B83A3A3A3A3E2
:10428300A322C082C0839061907404F0A37448F0A9
:10429300A37402F09061807440F09061BC7403F0E9
:1042A3009061877419F0906265741BF0906249E025
:1042B300C3941390619C400A7409F0906066740182
:1042C3008007740DF0906066E4F090619A7433F0A7
:1042D300A37455F09061A0743AF090053FE0640137
:1042E3007009C2919003A6746780059003A6746158
:1042F300F0902822E493906186F090281CE493F4D4
:104303006027E493540FF8906185E0686012E5C676
:1043130054804449F5C6E59E547F644970F8E8F03B
:1043230053C680E59E547F70FA7905120EDE02446F
:10433300B3C082C083E5A8F853A87E906181E4F0FE
:10434300A3F0A3F0C2BA539AFEC289759B00C2C2FE
:1043530075E90075910075BF0075A91175B90590D0
:104363006181F0A374C0F0A3E4F0D2BA439A01745C
:10437300805842A80244B3C082C08374F812185410
:104383009003A4E0F8A3E0F9E84970030244A8907D
:1043930003A4E0544060237908851882851983AA11
:1043A30082AB83120D52851882851983AA82AB834F
:1043B300120A469003A4E054BFF0E05480601079E1
:1043C3000C7A657B05120D529003A4E0547FF0E054
:1043D300A2E0503190619A7433F0A37455F0906168
:1043E300A0743AF090053FE064017009C291900314
:1043F300A6746780059003A67461F0120A4C9003BB
:10440300A4E054FEF0E05402603190619A743FF0EE
:10441300A3745AF09061A0747FF090053FE06401AB
:104423007009D2919003A6747180059003A6746AF3
:10443300F0120A4C9003A4E054FDF0E0540460131E
:10444300902820E493906186F0120A529003A4E02E
:1044530054FBF0E054086013902821E493906186A4
:10446300F0120A529003A4E054F7F0E054106013E2
:10447300902822E493906186F0120A529003A4E0FC
:1044830054EFF0E05420600A120A529003A4E0545F
:10449300DFF0A3E05401600D120C7A120A58900366
:1044A300A5E054FEF0740812186A0244B3F0A3F0B6
:1044B300D083D08202012274EC1218C974F412184A
:1044C30054851882851983AC82AD83758382758286
:1044D30025740412176790282093F460030246465C
:1044E300907808E0C394025003024626740412181D
:1044F300BDAC82AD837583817582BB740812176767
:104503008518828519838582128583137404121892
:10451300BDAC82AD83750EFF750FFF7FFF7E007507
:104523000C48750D78801574086E70030245BA74D3
:10453300096E70030245BA740A6E607B850C82852E
:104543000D8378081217248C828D83A909E50AC983
:10455300F8881074187808121652E5104508F8C345
:10456300E098A3E099850C82850D837808121724BF
:1045730040188C828D8374187808121652E5104502
:1045830008F8E0C398F8A3E0801C741878081216A2
:1045930052E5104508FAE9FB8C828D83E0F8A3E02D
:1045A300F9EAC398F8EB99F9C3E8950EE9950F502A
:1045B30006880E890FEEFF0EE50C2404F50CE50DBD
:1045C3003400F50DEEC39413500302452A74FF65BE
:1045D3000E700474FF650F60238F0874027808124D
:1045E300184174482508F58274783509F5837808ED
:1045F300121724851282851383E508F0EC2402FC4C
:10460300ED3400FD851282851383A3858212858391
:1046130013740C1218BDE5826C7003E5836D60039F
:104623000245187508017509007808121ADC74022E
:104633001218BDAC82AD837A087B0A12134674024A
:1046430012186A740C12186A7F0C02199BC082C07C
:10465300839061AE7468F0A3746AF090624574FB52
:10466300F0A304F053F4FD43FE0290053F7401F000
:104673009061A0E0643A90619A70237433F0A3745C
:1046830055F09061A0743AF0740164017009C2910D
:104693009003A6746780289003A674618021743FF9
:1046A300F0A3745AF09061A0747FF07401640170F8
:1046B30009D2919003A6747180059003A6746A02CF
:1046C30044B27F0802199BC082C0839004F1E06466
:1046D30001700A9004F6E06004790C80027900020C
:1046E30044B3C082C08375E1F19004F4E0605B14CD
:1046F300600914605F14605714705E120C8C900490
:10470300EAE0F97AEB7B04120E607AD67BBE7C89F1
:104713007D8E120E967A557B557C557D00120E6C5C
:104723009004F5E0F9120E787901120ED29004E8A4
:10473300E0F8A3E0C82416F582E83400F58374A4F6
:10474300F0A3740CF079000244B3120C9280AF1200
:104753000C9880AA120C9E80A5791280EA74F0123C
:1047630018C975D90D9004D5E0A2E0E4331313F80A
:104773009004EAE0C4333354C0484401F5D978E8DF
:10478300790488828983A3A3A3E0F5D988828983E6
:10479300A3A882A983E864EE7003E9640470E37854
:1047A300D5790488828983A3E0F5D988828983A394
:1047B300A882A983E864DB7003E9640470E575E10A
:1047C300959004D5E0F97AD67B04120E66900BF52A
:1047D300743EF0A3740CF0A3749AF0A3740DF0A3C9
:1047E300749AF0A3740DF0A3749AF0A3740DF0A35C
:1047F3007444F0A3740CF0A3749AF0A3740DF0A3A3
:10480300745CF0A3740CF0900C03749AF0A3740D11
:10481300F0A3749AF0A3740DF0A3749AF0A3740D2B
:10482300F0A3749AF0A3740DF0A3749AF0A3740D1B
:10483300F0A3749AF0A3740DF09004F4E064019073
:1048430004E87012E0F8A3E0F5838882A3A3750857
:10485300007509088010E0F8A3E0F5838882A3A31C
:10486300750804750900750A00750B00780812169F
:104873009D750CFF750DFF750EFF750F0078087998
:104883000C1216EB9004E8E0F8A3E0C8240EF582BE
:10489300E83400F58378081217339004E8E0F8A3AE
:1048A300E0C82414F582E83400F5837413F0900310
:1048B300A27402F00246C574F71218C99004FAE014
:1048C3002407F5D99004EAE0C4333354C0F5D9780A
:1048D300E8790488828983A3A3A3E0F5D988828930
:1048E30083A3A882A983E864EE7003E9640470E3F8
:1048F3009004FAE0601F78E87904FAE82413F5825B
:10490300E93400F583E0F5D988828983A3A882A9D5
:10491300831AEA70E690051AE02407F5D99004EAB1
:10492300E0C4333354C04404F5D978E87904888269
:104933008983A3A3A3E0F5D988828983A3A882A945
:1049430083E864EE7003E9640470E390051AE060A1
:104953001F78E87904FAE82433F582E93400F58313
:10496300E0F5D988828983A3A882A9831AEA70E62D
:1049730075E195900BF5744AF0A3740CF0A3749A47
:10498300F0A3740DF0A3749AF0A3740DF0A3749ABA
:10499300F0A3740DF0A37444F0A3740CF0A3749A01
:1049A300F0A3740DF0A3745CF0A3740CF0900C03EB
:1049B300749AF0A3740DF0A3749AF0A3740DF0A38A
:1049C300749AF0A3740DF0A3749AF0A3740DF0A37A
:1049D300749AF0A3740DF0A3749AF0A3740DF0907D
:1049E30004E8E0F8A3E0C8240EF582E83400F58378
:1049F30074FFF0A3F0A3F0A3F09004E8E0F8A3E0C1
:104A0300C82414F582E83400F5837412F09003A2ED
:104A13007401F0FF02199B74F71218C99004FAE0AD
:104A23002407F5D99004EAE0C4333354C04402F5B3
:104A3300D978E8790488828983A3A3A3E0F5D98888
:104A4300828983A3A882A983E864EE7003E96404DE
:104A530070E39004FAE0601F78E87904FAE824131D
:104A6300F582E93400F583E0F5D988828983A3A828
:104A730082A9831AEA70E675E195900BF57456F0F6
:104A8300A3740CF0A37456F0A3740CF0A37456F043
:104A9300A3740CF0A37456F0A3740CF0A37456F033
:104AA300A3740CF0A37456F0A3740CF0A3745CF01D
:104AB300A3740CF0900C03749AF0A3740DF0A37418
:104AC3009AF0A3740DF0A3749AF0A3740DF0A37479
:104AD3009AF0A3740DF0A3749AF0A3740DF0A37469
:104AE3009AF0A3740DF09004E8E0F8A3E0C8240E54
:104AF300F582E83400F58374FFF0A3F0A3F0A3F08C
:104B03009004E8E0F8A3E0C82414F582E83400F543
:104B1300837414F09003A27404F0024DE174F7124D
:104B230018C99004FAE02407F5D99004EAE0C433E5
:104B33003354C04406F5D978E8790488828983A37D
:104B4300A3A3E0F5D988828983A3A882A983E86413
:104B5300EE7003E9640470E39004FAE0601F78E800
:104B63007904FAE82413F582E93400F583E0F5D9F2
:104B730088828983A3A882A9831AEA70E690051A1A
:104B8300E02407F5D99004EAE0C4333354C0440465
:104B9300F5D978E8790488828983A3A3A3E0F5D9BA
:104BA30088828983A3A882A983E864EE7003E964F9
:104BB3000470E390051AE0601F78E87904FAE824AA
:104BC30033F582E93400F583E0F5D988828983A33C
:104BD300A882A9831AEA70E675E195900BF57450E3
:104BE300F0A3740CF0A3749AF0A3740DF0A3749A59
:104BF300F0A3740DF0A3749AF0A3740DF0A3749A48
:104C0300F0A3740DF0A3749AF0A3740DF0A3745C75
:104C1300F0A3740CF0900C03749AF0A3740DF0A33A
:104C2300749AF0A3740DF0A3749AF0A3740DF0A317
:104C3300749AF0A3740DF0A3749AF0A3740DF0A307
:104C4300749AF0A3740DF09004E8E0F8A3E0C8248C
:104C53000EF582E83400F58374FFF0A3F0A3F0A30C
:104C6300F09004E8E0F8A3E0C82414F582E83400E7
:104C7300F5837415F09003A27403F0024DE1C08232
:104C8300C0839004E8E0F8A3E0C82406F582E83482
:104C930000F583E40244B074F71218C99003D0E01E
:104CA300F875F003A4C8AAF02AF974D228F874039B
:104CB30039F9E82405FAE93400FB8A828B83E0FCA6
:104CC300A3E0FD88828983A3A3A3A3A3A3A3A3A390
:104CD300ECF0A3EDF088828983A3A3A3A3A3A3A3EA
:104CE300E024FFF8A3E034FFF98A828B83E8F0A382
:104CF300E9F0024DE174F71218C9EAFEEBFF906187
:104D0300D0E06003024DD575D90E75D90375D9046A
:104D1300EE248BF582EF3400F583E5822408F8E571
:104D2300833400F9E0F5D9A3E865827003E965836C
:104D330070F2EE2483F582EF3400F583E5822404D8
:104D4300F8E5833400F9E0F5D9A3E865827003E957
:104D5300658370F275E1957908EE248BFAEF3400E0
:104D6300FB120D467904EE2483FAEF3400FB120D97
:104D7300467C00EEF8EFF9ECFAC3E49AFA95E0FB0F
:104D8300EE2AFAEF3BFBEA248AF582EB3400F58343
:104D9300E0C0E0E824AAF582E93400F583D0E0F02E
:104DA3000C88828983A3A882A983ECC3940840C793
:104DB300EE246FF582EF3400F583E0F8A3E0F9EE1B
:104DC3002471F582EF3400F583E8F0A3E9F079016B
:104DD300800279008008F0EEA2E092AF79007F01B3
:104DE30002199BC082C08375D90275D90375D90591
:104DF30075E195EA246FF582EB3400F583E0F8A3BF
:104E0300E0F9EA2471F582EB3400F583E8F0A3E9D5
:104E1300F079010244B374F61218C9EAFEEBFF906D
:104E230005457406F07508457509057808121ADCFE
:104E33007C017903120D8E740212186A75D90675F6
:104E4300D903758245758305E0F5D9A3E582644AE4
:104E53007004E583640570F075E1959003A2E06446
:104E630008701EEE246FF582EF3400F583E0F8A39B
:104E7300E0F9EE2471F582EF3400F583E8F0A3E95D
:104E8300F079010250E774F61218C9EAFEEBFF90BD
:104E930061D0E070667801900545740BF09003A231
:104EA300E0640770197508457509057808121ADC5E
:104EB3007C017903120D8E740212186A780574014D
:104EC30028F5D975D903758245758305E8FAE0F5A8
:104ED300D9A31AEA70F875E195EE246FF582EF34E1
:104EE30000F583E0F8A3E0F9EE2471F582EF3400D6
:104EF300F583E8F0A3E9F07901800279000250E735
:104F030074F71218C9EAFEEBFF75D90375D9037557
:104F1300D90DEE24DDF582EF3400F583E0F5D97584
:104F2300E1957904120E9CEE246FF582EF3400F5BF
:104F330083E0F8A3E0F9EE2471F582EF3400F58302
:104F4300E8F0A3E9F07901024DE174F61218C9EA19
:104F5300FEEBFF9061D0E0F87480C398FAEE2482F0
:104F6300F582EF3400F583E0600478048002780072
:104F7300E8240BF8EAC39850030250127D09900508
:104F830045EDF0EE24E2F8EF3400F97A467B057C38
:104F93000888828983E08A828B83F088828983A34D
:104FA300A882A9838A828B83A3AA82AB831CEC7019
:104FB300E0EE2482F582EF3400F583E0601D75088E
:104FC300457509057808121ADC7C097903EEFAEFB6
:104FD300FB120D8E740212186A7D0D74012DF5D922
:104FE30075D9037582457583058D08E0F5D9A31539
:104FF30008E50870F675E1957904120E9CEE241D00
:10500300F582EF3400F583E4F0A3F07901800279AF
:10501300000250E774F61218C9EAFEEBFF9061D064
:10502300E0F87480C398FAEE2482F582EF3400F539
:1050330083E06004780480027800E82408F8EAC377
:105043009850030250E57806900545740CF09003E0
:10505300BFE0900546F09003C0E0900547F0900351
:10506300C1E0900548F09003C2E0900549F0900339
:10507300C3E090054AF0EE2482F582EF3400F58315
:10508300E0601B7508457509057808121ADC7C0673
:105093007903EEFA120D8E740212186A780A7401FB
:1050A30028F5D975D9037582457583058808E0F518
:1050B300D9A31508E50870F675E1957904120E9CDD
:1050C300EE246FF582EF3400F583E0F8A3E0F9EE08
:1050D3002471F582EF3400F583E8F0A3E9F0790158
:1050E300800279007F0202199B74F61218C9EAFE46
:1050F300EBFF9061D0E0F87480C398FAEE2482F558
:1051030082EF3400F583E06004780480027800E8DD
:105113002404F8EAC39850030251C6780290054567
:10512300E8F0EE24F4F582EF3400F583E0900546D1
:10513300F0EE2482F582EF3400F583E0601B7508FE
:10514300457509057808121ADC7C027903EEFA1218
:105153000D8E740212186A7806740128F5D975D970
:10516300037582457583058808E0F5D9A31508E51D
:105173000870F675E195EE2473F582EF3400F5833C
:10518300E4F0EE247FF582EF3400F583E4F0EE24BF
:105193001DF582EF3400F583E4F0A3F07904120ED9
:1051A3009CEE240DF582EF3400F583E0F8A3E0F9DB
:1051B300EE2471F582EF3400F583E8F0A3E9F0798A
:1051C30001800279000250E774F61218C99061D089
:1051D300E0F87480C398FCEA2482F582EB3400F58E
:1051E30083E06004780480027800E82404F8ECC3C8
:1051F30098405B79029005457407F0EA24F5F5823F
:10520300EB3400F583E0900546F0EA2482F582EB67
:105213003400F583E06018750845750905780812B0
:105223001ADC7C0209120D8E740212186A79067454
:105233000129F5D975D903758245758305E9F8E028
:10524300F5D9A318E870F875E19579018002790022
:105253000250E774F51218C9E9FCA2AFE433F50A6A
:10526300C2AF7D0080010DEA246EF582EB3400F5B8
:1052730083E0F8EDC398501A8D08EA2508F8EB345B
:1052830000F9E8246AF582E93400F583E06C70D60E
:105293008024EA246EF8EB3400F9E0FEEA2EFAEB00
:1052A3003400FBEA246AF582EB3400F583ECF088E2
:1052B300828983E004F0E50AA2E092AF7F0302193A
:1052C3009B74F61218C9A2AFE433FDC2AFEA246E91
:1052D300F582EB3400F583E014F07C0060368C0833
:1052E300EA2508F8EB3400F9E8246BF582E9340089
:1052F300F583E0C0E0E8246AF582E93400F583D061
:10530300E0F00CEA246EF582EB3400F583E0F8EC70
:10531300C39840CAEA246DF582EB3400F58374FF29
:10532300F0EA2469F582EB3400F583E4F0EDA2E0C2
:1053330092AF0250E7C082C083E5A8F8C2AFEA2467
:105343006AF582EB3400F583E9F0EA2469F582EB30
:105353003400F583E4F0E8A2E7A2E792AF0244B396
:1053630074F31218C9EAFEEBFFECFAEDFB8A828BA9
:1053730083A3A3A3A3E0541FF0EE2436F582EF34F6
:1053830000F583E4F0F50AEEFCEFFD8A828B83E0FF
:10539300C0E0EC245DF582ED3400F583D0E0F075D8
:1053A3000B00E50A33333354F8F50C8A828B83E020
:1053B300F508750900E50B7808121822E508A2E044
:1053C300502FEE2436F8EF3400F988828983E0F514
:1053D30008EE2508F508EF3400F509E5082438F54B
:1053E30082E5093400F583E50CF088828983E004C3
:1053F300F0050B050CE50BC3940840AF050A8A8240
:105403008B83A3AA82AB838C828D83A3AC82AD836F
:10541300E50AC39405500302538E7F0502199B745A
:10542300F71218C99003CEE0640170030255807A25
:10543300009003D4E060030255807401F0A3E4F00C
:10544300A3F090043404F0900439F09003D7E4F00F
:10545300A3F0A3F0A3F09003E104F0900407E4F0B9
:105463009003EAF0A3F0A3F0A3F0A3F0A3F0A3F05A
:10547300900451F0900445F090043A7480F0A3E452
:10548300F0900440F09004BCF0A3F0A3F0A3F0A3C9
:10549300F0A3F0A3F0A3F09004C5F0900454F090AF
:1054A30004A4F0A3F0A3F0A3F0A3F0A3F0A3F0A34C
:1054B300F0A3F0A3F09004B0F09004B2F09004AE27
:1054C300F09004C8F0A3F0A3F0A3F0A3F0A3F0A31B
:1054D300F0A3F078CE7903E8246EF582E93400F581
:1054E3008374FFF00A88828983A3A882A983EAC30D
:1054F300940440E37ACE7B0378DC79048882898341
:10550300E0C0E0EA2461F582EB3400F583D0E0F0FB
:1055130088828983A3A882A9838A828B83A3AA8290
:10552300AB83E864E17003E9640470D07ACE7B0353
:1055330078B5790388828983A3E0C0E0EA24E6F59D
:1055430082EB3400F583D0E0F088828983A3A882BC
:10555300A9838A828B83A3AA82AB83E864BD700389
:10556300E9640370CF9003CEE004F0640170089007
:1055730003D6E09003D0F07AD27B0380047A007BD9
:1055830000024DE1C082C0839003D5E4F09003D4C0
:10559300F09003CEF0A3F0A374FFF075E1F10244A1
:1055A300B3C082C083780079009003D5E0600478AB
:1055B300D2790388828983A3A3A3A3E0F90244B326
:1055C30074F61218C9EAFEEBFFEE2463F582EF349A
:1055D30000F583E0F8A3E0F9E8497003025668EEAA
:1055E3002463F8EF3400F97A007B00A2AFE433F5CB
:1055F30008C2AF88828983E0FCA3E0FDEC4D603AEA
:1056030088828983E0FAA3E0FB8A828B83E0FCA390
:10561300E0FD88828983ECF0A3EDF08A828B83E43A
:10562300F0A3F088828983E0FCA3E0FDEC4D700ACF
:1056330088828983A3A3E4F0A3F0E508A2E092AFF4
:105643001213D69004E2E004F09004E3E004F0EED9
:105653002463F582EF3400F583E0F8A3E0F9E84929
:1056630060030255E28E828F83A3A3A3E0600F8EB3
:10567300828F83A3A3A3E4F09003CFE014F09003FD
:10568300CEE014F070069003D074FFF08E828F8307
:10569300A3A3E4F09004E1E0700D9003CFE0640174
:1056A30070057900120E7EEEFAEFFB120DBE02506A
:1056B300E774F71218C9EAFEEBFF8E828F83A3A368
:1056C300A3A3E0FA7B00120A9AEEFAEFFB120D1085
:1056D300120DA6024DE1C082C08378B5790388829A
:1056E3008983A3E4F088828983A3A882A983E864D9
:1056F300BD7003E9640370E69003B674010244B21B
:1057030074F61218C9EAFEEBFFEC2403F8ED34003B
:10571300F988088909EC2407F8ED3400F9E8FCE975
:10572300FD8C828D83E0F8A3E0F9850882850983E7
:10573300E0FAA3E0FB1217C9EE240DF582EF340063
:10574300F583E8F0A3E9F08C828D83E0F8A3E0F918
:10575300850882850983E0FAA3E0FB1217C98B0948
:10576300EA45096013EE240DF582EF3400F583E07A
:105773002401F0A3E03400F00250E774F61218C9D4
:10578300EAFEEBFFEE242EF582EF3400F583E0FC16
:10579300A3E0FD780079FAECFAEDFB1217C9EE24C9
:1057A3006FF582EF3400F583E8F0A3E9F078007930
:1057B300FAECFAEDFB1217C98B09EA45096013EEFF
:1057C300246FF582EF3400F583E02401F0A3E03485
:1057D30000F00250E774EC1218C9EAFEEBFF7414F0
:1057E3001218BD7808121724120E428A0C8B0D8CE6
:1057F3000E8D0F7510027511007512007513007868
:105803000C791012168A7510FF7511FF7512FF7847
:105813000C79101216EB780C121AD88E828F83E053
:10582300F8A3E0F5838882A3A31217421224E57438
:105833000412186AE9600302593C8E828F83E024C4
:1058430002F8A3E03400F9E8FAE9FB8A828B837853
:10585300081216B08A828B837508FF7509FF750AD3
:10586300FF750B007808121711EE240BF582EF3445
:1058730000F583C082C0838E828F83A3A3A3A3A3D7
:10588300E02401F8A3E03400F9D083D082E068700B
:1058930003A3E0697005790102593E8E828F83A3C9
:1058A300A3A3A3A3A3A3E02401F0A3E03400F0EE99
:1058B3002473F582EF3400F583E064017036EE243F
:1058C30074F582EF3400F583E0F8A3E0F98E828F5C
:1058D30083A3A3A3A3A3A3A3E0687003A3E06970B6
:1058E30013EE2474F582EF3400F583E02401F0A372
:1058F300E03400F0EE247FF582EF3400F583E064BA
:10590300017036EE2480F582EF3400F583E0F8A3CE
:10591300E0F98E828F83A3A3A3A3A3A3A3E068705C
:1059230003A3E0697013EE2480F582EF3400F5835E
:10593300E02401F0A3E03400F0790002464B74F652
:105943001218C9E9FEECFFEA2462F582EB3400F594
:1059530083E0640160030259EA9061D0E0F508EA4C
:105963002482F582EB3400F583E06004780480023E
:1059730078007480C39508FC95E0FDEF28F8E434C3
:1059830000F9E82402F8E93400F9EC98ED99A2D281
:1059930065D033404E740A1218BDE0F508A3E0F554
:1059A30009EA2482F582EB3400F583E06015780878
:1059B300121ADCEFFCEEF9120D8E740212186A74DF
:1059C300042FFF74012FF5D98ED9EF600F8508825C
:1059D300850983F8E0F5D9A318E870F875E195799E
:1059E3000080067907800279FF0250E774F71218E6
:1059F300C9A2AFE433FEC2AF8A828B83E0F8A3E08F
:105A0300F9E8498A828B83600AA3A3E0F8A3E0F54F
:105A1300838882ECF0A3EDF08A828B83A3A3ECF05E
:105A2300A3EDF08C828D83E4F0A3024DD974F712B9
:105A330018C9E96021F88C828D83E08A828B83F018
:105A43008C828D83A3AC82AD838A828B83A3AA824B
:105A5300AB8318E870E0ECFAEDFB024DE174F01251
:105A630018C974FA121854890BECFEEDFF750A007D
:105A73008A088B097808121B20000410935CA35A30
:105A8300C15ADB5AF35A115B295B4C5B645B785B4D
:105A9300A25B2A5C3B5C525C6D5C935C935CB85B81
:105AA3007401650B6003025C8E8E828F83E0F8C302
:105AB30094034003025C8EE8900CE6025C6A740275
:105AC300650B6003025C8E8E828F83126390900C51
:105AD300E7E8F0A3E9025C6A7401650B6003025C0A
:105AE3008E125CBB4003025C8EE8900776025C6A10
:105AF3007401650B6003025C8E8E828F83E0F8C3B2
:105B030094054003025C8EE8900777025C6A740197
:105B1300650B6003025C8E125CBB4003025C8EE883
:105B2300900778025C6A7410650B6003025C8E75E3
