:020000040000FA
:0600000002010A0221EFDB
:03002B0002264961
:03003B0002266A30
:030043000225FD96
:0300530002226224
:03006B0002262347
:1000830002205BE5C754F84401F5C779012200005B
:100093000080FB120086B900030200F4E4792178A2
:1000A30008B800028004F709D8FCE479297802B87B
:1000B30000028004F709D8FCE49002817867791282
:1000C3008002F0A3D8FCD9FA9013E7AA82AB8390FD
:1000D300013A783F79048015E493A3AC82AD838A17
:1000E300828B83F0A3AA82AB838C828D83D8E9D9D8
:1000F300E77582DC7583B4740312011C75829175F4
:100103008300740012011C75D00075813F7518813E
:10011300751902759F00020096C09FF59FE473D086
:100123009F22D083D082C09FE493C0E0740193C028
:10013300E0740293F59F22FF0000B400002800281A
:1001430000283075A000A000A000A000000800084F
:10015300E001F0001000100010001000100010006B
:1001630050005000500010001000D00700000000A5
:1001730000000F00010005003075070010000100AA
:1001830081FF00000000FF760694067C06FF020252
:100193000208025000A0000000E80302E983010006
:1001A30000998302E5830100003E1402DD83010010
:1001B30000B30202E5830100003F1402D78301006C
:1001C30000C90202E583010000401402CB83010051
:1001D30000CB0202E583010000411402C983080039
:1001E30000CC0202E583010000421402BD8301003A
:1001F300004314FF0100FF2002E9830100009F83F5
:1002030002E583010000A71402B38300000000008D
:1002130002F3830300001903460C460C460C460CFC
:10022300460C460C460C460C460C460C460C460C3B
:10023300460CC80EE00EC20EFFFF49020003041273
:100243006402E983010000A58302E583010000EF56
:100253001402C383010000F01402F3830300006758
:1002630007020202020202020202010D0000001054
:100273000102E9830100009C8302E5830100001170
:100283001502B9830100006D0702E5830100001226
:100293001502EB83010000828202E5830100001353
:1002A3001502B183010000598202E58301000014A5
:1002B3001502AF83010000C58102E583010000152B
:1002C3001502AD830100007D8102E5830100001664
:1002D3001502AB83010000A18102E5830100001731
:1002E3001502BF83010000B38102E58301000018FA
:1002F3001502C183010000678202E5830100001932
:100303001502C7830100001A1501E803053F100A0F
:10031300FF001202E9830100000D8302E58301005F
:1003230000C21502DB83010000290A02F3830300E4
:10033300002A0A01307503020106000000000000D4
:1003430000000000000000000000000000000000AA
:10035300000000000000FFFF0600800CE80309090D
:100363005465704865617443051214001400020A51
:10037300000201050302F0FF546570486561744390
:1003830000000000000000000000000000781300DF
:10039300007E130A436861726163746572697374E2
:1003A3006963203100024368617261637465726935
:1003B300737469632032001A436861726163746500
:1003C30072697374696320330010436861726163F7
:1003D30074657269737469632034000243686172DF
:1003E3006163746572697374696320350002E9831C
:1003F300010000A28302E583010000431602EF839C
:10040300030000B21302E383010000441602E583F4
:10041300010000551602F183010000C61302E383B5
:10042300010000561602E583010000671602D3831C
:10043300030000C71302E383010000681602E5838B
:10044300010000791602D183000000DB1302F3835D
:10045300030000DC1302E3830100007A1602E58344
:100463000100008B1602CF83040000E21302E38332
:100473000100008C161201255FA50312012576A544
:1004830003120125A7A503120125E2A503120125E5
:100493000CA60312012536A6031201254DA603124D
:1004A300012564A6031201257BA603120125A4A638
:1004B30003120125B7A603120125CDA603120125B8
:1004C300E0A60312012507A7031201257CC002122F
:1004D300012580C102120125B8C102120125DBC129
:1004E30002120125E6C10212012509C202120125E9
:1004F30018C302120125EDC30212012568C40212BA
:100503000125F0C4021201252BC50212012562C583
:1005130002120125F0C502120125C9C602120125E6
:1005230029C70212012534C702120125B3C70212DB
:100533000125B6C702120125B9C70212012548C811
:10054300021201254BC8021201257BC802120125A4
:10055300A5C80212012593C90212012545CA021238
:10056300012515EF021201253DEF021201256BEF64
:1005730002120125A2EF0212012500F00212012549
:100583004BF00212012596F002120125D6F0021259
:1005930001251CF1021201254AF10212012507F27D
:1005A3000212012511F2021201251EF20212012587
:1005B30051F2021201251DF30212012529F3021241
:1005C300012541F3021201254BF302120125C5AFA8
:1005D30003120125D3AF03120125EBAF031201254B
:1005E30003B0031201257DBC0112012529BD0112AF
:1005F3000125A4BD01120125C5BE0112012501BFBC
:1006030001120125AABF0112012591C00112012582
:10061300F5C1011201254CC201120125CDC20112FF
:100623000125BDC3011201250AC40112012590C48D
:1006330001120125C2C401120125D6C601120125EA
:1006430018C70112012536C701120125B9C70112C6
:1006530001258DC80112012555C901120125CBE2DF
:10066300021201259EE30212012547E4021201252D
:100673009AE4021201254AE502120125D6E5021287
:100683000125C2E602120125F1E60212012504E862
:10069300021201254CE80212012521E9021201256B
:1006A3005DE90212012579E90212012539B303122A
:1006B3000125448C031201255A8C03120125808CD9
:1006C300031201259C8D03120125A68D031201251A
:1006D300DB8E03120125D38F03120125EEE90212EB
:1006E30001251EEB0212012551EB021201259BEBA2
:1006F3000212012562ED02120125AE6E00120125E0
:10070300186F0012012577700012012587700012FF
:100713000125B470001201250B7100120125B4717B
:1007230000120125BB7200120125857300120125F9
:10073300E57400120125287500120125CD750012FC
:1007430001251A76001201254076001201254E7804
:1007530000120125537800120125587A0012012551
:10076300A57A00120125187B001201254B7B00128C
:100773000125ED7B00120125967C00120125CE7C1C
:1007830000120125D17C00120125197D00120125DB
:10079300597D00120125B07D001201257B990312BA
:1007A3000125939903120125DB9903120125F19980
:1007B30003120125389A031201254C9B03120125CC
:1007C300D99B03120125249C03120125DC26001268
:1007D3000125E82600120125232700120125682799
:1007E30000120125282800120125AE280012012538
:1007F3001329001201253F2900120125782900122F
:100803000125B62B001201259A2D00120125802FF8
:1008130000120125C33000120125113300120125F6
:100823002334001201256E35001201257E36001295
:1008330001259B3600120125D63600120125F83614
:10084300001201255B37001201251C3C0012012513
:10085300B13C00120125023D00120125293D001281
:1008630001257B3D00120125993D00120125F33D31
:1008730000120125DC3E0012012552400012012521
:10088300D64000120125D2F302120125DCF3021235
:1008930001251FF4021201253AF402120125CAF4BC
:1008A30002120125F2F4021201252FF5021201258D
:1008B30066F5021201258FF50212012504F60212D4
:1008C300012519F6021201252EF6021201255FF603
:1008D3000212012573F60212012598F60212012570
:1008E300D2F602120125FEF60212012536F7021294
:1008F3000125B5F702120125FEF70212012528F89A
:100903000212012553F802120125C7AB0312012578
:100913007BA802120125A9A802120125F7A9021238
:100923000125D7AA02120125F6AA0212012573ABEB
:1009330002120125B6AB021201250CAD02120125EC
:10094300CDAD0212012554B002120125F5B00212F9
:100953000125EBB102120125E8B20212012542B4CE
:1009630002120125CDB4021201259D7E001201253C
:10097300067F001201255A7F00120125817F001294
:100983000125B27F001201257BF802120125E8F848
:10099300021201252FF90212012547FA021201253D
:1009A30043FB0212012526FC0212012508F601125F
:1009B30001254AF6011201251CF701120125F5F75D
:1009C30001120125EFF801120125D1F901120125C8
:1009D3003AFA01120125F0FA0112012564FB011212
:1009E3000125D0FB01120125F9FB0112012573FC3E
:1009F300011201250CFD0112012571FD01120125D2
:100A030086FD01120125CCFD01120125E5FD011230
:100A130001254AFE011201254DFE01120125E8FCC4
:100A23000212012510FD021201254EFD02120125BD
:100A33000CFE0212012573FE021201258FFE021223
:100A43000125B7FE02120125E7FE02120125F6FE7B
:100A53000212012573FF0212012599FF02120125DB
:100A63001BAD01120125F9AE011201252BB10112B3
:100A7300012567B10112012594B1011201257EB24E
:100A830001120125C9B20112012514B30112012576
:100A930026B30112012566B3011201259BB301128E
:100AA3000125E9B30112012518B4011201253BB454
:100AB3000112012588B4011201250DB5011201258A
:100AC30027B70112012566B901120125A7B9011241
:100AD300012549BB011201258ABB01120125FDBB7A
:100AE3000112012553BC01120125669B0212012547
:100AF300649C02120125FDA2021201251EA5021209
:100B03000125E9A60212012551A8021201253D4142
:100B130000120125EC410012012532420012012589
:100B23007243001201250845001201258245001277
:100B330001259D4500120125184600120125724723
:100B430000120125D24800120125D84900120125BF
:100B5300394B00120125524B00120125B04B0012F4
:100B630001259E4C00120125D14C00120125414D57
:100B730000120125BB4D00120125054E001201256F
:100B8300CF4E00120125A44F0012012583500012FD
:100B930001250E51001201257C5100120125F0514F
:100BA300001201251B5200120125DA520012012501
:100BB3003F54001201255C54001201257B5400129E
:100BC30001256C5500120125915500120125BB55D5
:100BD30000120125365600120125905600120125F8
:100BE300F95700120125A75800120125E8580012F1
:100BF30001250080021201254E80021201255A8030
:100C03000212012538810212012569810212012590
:100C13009A81021201251A820212012552820212BE
:100C23000125A48202120125E18202120125FE841C
:100C3300021201252487021201250F8902120125C0
:100C4300F98A02120125F87F001201250899011281
:100C5300012538990112012511A00112012596A140
:100C63000112012593A7011201257BA80112012579
:100C7300B8A801120125DBA8011201250CA9011254
:100C8300012515A9011201251FA9011201250DAA8C
:100C93000112012503AB01120125F983011201257C
:100CA300F88701120125FE8701120125398F0112F0
:100CB30001255294011201254993031201254394FE
:100CC30003120125B79403120125F594031201259C
:100CD300699503120125E29503120125EB95031291
:100CE3000125F795031201250C96031201254A9657
:100CF30003120125609603120125008003120125CA
:100D03000D8003120125278003120125668003123B
:100D13000125A480031201250981031201251E81E7
:100D230003120125298103120125368103120125AE
:100D33004D81031201255B81031201256681031294
:100D430001257281031201258181031201258C8102
:100D530003120125AF8103120125568203120125D7
:100D63006682031201258082031201259D820312EC
:100D73000125B98203120125DE8203120125E982CE
:100D830003120125FE82031201251283031201259A
:100D93007383031201257983031201257F830312D1
:100DA30001258583031201259D8303120125D08329
:100DB30003120125DFD90112012563DA011201258E
:100DC30012DB0112012571DC0112012592DE0112F1
:100DD30001257EDF01120125B3DF01120125D5DFD5
:100DE3000112012584E0011201257CE20112012593
:100DF300A5E20112012537E30112012569E301127E
:100E0300012576E301120125CDE301120125F3E368
:100E13000112012560E60112012563E70112012594
:100E2300BBE7011201256ECB0112012578CC01121B
:100E330001255FCD0112012569CD011201258BCD5D
:100E43000112012597CD0112012530CF0112012591
:100E53005FCF011201257BD001120125D4D00112ED
:100E630001253AD20112012519D30112012575D3A7
:100E730001120125E2D3011201251DD4011201251E
:100E83005CD40112012515D7011201252FD70112B8
:100E93000125BBD701120125C9D70112012522D88B
:100EA3000112012530D801120125A3D80112012511
:100EB30007D90112012551D9011201254EB502129C
:100EC300012570B50212012596B702120125ABBAAE
:100ED30002120125C3BB0212012576BC02120125B1
:100EE30058BD0212012519A7031201253EA70312BB
:100EF3000125B0A70312012551DB021201255ADB9C
:100F03000212012563DB021201253ADC02120125DC
:100F1300EBDD0212012521DE021201255BDE021246
:100F2300012591DE02120125CBDE02120125FFDE2F
:100F3300021201252BDF0212012574DF02120125A3
:100F4300AEDF02120125F7DF021201254FE0021284
:100F5300012584E002120125DFE00212012519E1D7
:100F6300021201256AE102120125A0E10212012504
:100F7300DAE10212012508E2021201252BE2021234
:100F830001255DB10312012589B103120125E4B1E5
:100F930003120125EEB103120125FEB1031201254F
:100FA300B6CA02120125C0CA02120125FECA0212E4
:100FB300012547CB0212012581CB02120125DBCB90
:100FC30002120125FCCB02120125D4CE0212012507
:100FD300DDCE021201252ACF0212012553CF0212C0
:100FE30001255DCF02120125C9CF021201255BD075
:100FF30002120125A5D002120125DBD00212012520
:1010030067D102120125A8D102120125DFD10212F4
:101013000125F1D10212012510D20212012519D2A4
:1010230002120125E1D202120125E4AD03120125CA
:101033006EA303120125A4A303120125DAA303124D
:10104300012525A503120125BDB303120125D3B341
:1010530003120125DDB30312012527B40312012571
:101063004D840312012562840312012515850312A1
:1010730001255585031201256E8503120125A985D6
:1010830003120125F6850312012528860312012583
:101093006A860312012571FE011201259AFE0112CF
:1010A3000125C9FE0112012561FF01120125A3FFDC
:1010B300011201259096031201259E960312012524
:1010C3000F9703120125D39803120125F1980312F8
:1010D30001255FA1031201258FA103120125FFA1A1
:1010E300031201259FA2031201254E9C0312012521
:1010F300739C031201259D9C0312012586B40312E0
:1011030001251859001201257D5B001201251E5D82
:1011130000120125D25D00120125655E0012012532
:10112300EA5E001201250F5F0012012565620012BD
:101133000125EB62001201251E640012012558648B
:10114300001201258D64001201254D660012012550
:10115300AA6600120125F366001201255E670012DC
:101163000125CF67001201250168001201251968C6
:10117300001201256269001201257269001201251E
:101183008D6A00120125AF6A00120125E56A00127B
:101193000125996C00120125266D00120125656D4C
:1011A30000120125896E001201259CB0031201254E
:1011B300ADB00312012552B1031201252FB503125D
:1011C30001256EB503120125E8FF01120125A4B222
:1011D30003120125B4B203120125C9B2031201257A
:1011E3002FB303120125E0AC0312012565AD0312F1
:1011F3000125CBAD03120125DBAE03120125FCAEA5
:101203000312012550AF031201259AAF03120125E2
:1012130002B603120125DD8F031201256D9003121F
:101223000125F990031201259291031201252392BE
:10123300031201252C9203120125AA920312012500
:10124300BD9203120125D392031201253393031296
:10125300012546930312012574AA0312012589AAC5
:10126300031201259EAA03120125A7AA0312012531
:10127300B9AA03120125F9AA0312012527AB031208
:10128300012572AB03120125C4AB03120125BEA8CD
:101293000312012510A9031201259AA9031201259E
:1012A30001AA031201251A9F03120125449F031269
:1012B300012512A003120125EDA0031201250FD36E
:1012C30002120125D6D3021201250DD402120125E3
:1012D30037D40212012597D402120125EDD402124C
:1012E300012552D502120125EAD502120125F9D6AC
:1012F3000212012590D8021201251DD902120125DF
:1013030084D9021201259BD902120125B5DA0212F2
:101313000125F3DA0212012508B20312012538B2BE
:10132300031201253DB20312012509E8011201252B
:101333008AEB0112012512ED0112012569ED01125B
:10134300012588ED0112012506EE011201259CEF0E
:101353000112012581F0011201258FF401120125EB
:1013630065F501120125D48D021201258E9002121A
:101373000125DA9002120125E09802120125F19964
:1013830002120125758803120125BA88031201256B
:10139300D788031201259C8903120125058A0312AC
:1013A3000125D28A031201250B8C03120125AEB548
:1013B3000312012578B503120125DAB503120125BD
:1013C300E1FF02E066701008A3E066700A08A3E07C
:1013D30066700408A3E06622C3E7960809E7960847
:1013E30009E7960809E79622C3E09608A3E0960862
:1013F300A3E09608A3E09622C008C3E096F5080888
:10140300A3E096420808A3E096420808A3E09645A5
:10141300087001D3D00822080808EAC0E0EBC0E056
:1014230086F0E7A4FA180986F0E7A42AFA180986D1
:10143300F0E7A42AFA180986F0E7A42AFA1986F035
:10144300E7A4FBE5F02AFA190886F0E7A42BFBE5ED
:10145300F03AFA190886F0E7A42BFBE5F03AFA18FC
:10146300180986F0E7A4C5F02BFBE43AFA1908E75C
:10147300C5F0C6A426F6E5F03BFBE43AFA1886F07D
:10148300E7A4F6E5F00826F6E43B08F6E43A08F6A6
:10149300D0E0FBD0E0FA22E4CFC0E0E4CEC0E0E449
:1014A300CDC0E0E4CCC0E075F020C3E633F608E637
:1014B30033F608E633F608E633F6181818EC33FC6F
:1014C300ED33FDEE33FEEF33FFC3EC9709ED9709E0
:1014D300EE9709EF97191919400FFFEC97FC09EDE7
:1014E30097FD09EE97FE191906D5F0BEECF709ED45
:1014F300F709EEF709EFF7191919D0E0FCD0E0FD71
:10150300D0E0FED0E0FF226016080808C6C313C669
:1015130018C613C618C613C618C613C6D5E0EA22E2
:101523007009080808226016181818C6C333C608BD
:10153300C633C608C633C608C633C6D5E0EA22E6B4
:1015430027F60809E637F60809E637F60809E63705
:10155300F622E026F608A3E036F608A3E036F608FE
:10156300A3E036F622E026F008A3E036F008A3E075
:1015730036F008A3E036F022C3E697F60809E697AB
:10158300F60809E697F60809E697F622C3E096F00F
:1015930008A3E096F008A3E096F008A3E096F022F3
:1015A300E657F60809E657F60809E657F60809E686
:1015B30057F622E056F608A3E056F608A3E056F6DF
:1015C30008A3E056F622E056F008A3E056F008A37D
:1015D300E056F008A3E056F022E0F608A3E0F60890
:1015E300A3E0F608A3E0F622E6F008A3E6F008A3DA
:1015F300E6F008A3E6F022E0FAA3E0FBA3E0FCA3F5
:10160300E0FD22EAF0A3EBF0A3ECF0A3EDF022CA95
:10161300C0E0E6F0A308DAFAD0E0FA22CAC0E0E0BC
:10162300A3C582CCC582C583CDC583F0A3C582CCB7
:10163300C582C583CDC583DAE6D0E0CA22C3E49868
:10164300F8E499F91216818026C3E49AFAE49BFB25
:10165300E920E7E9121681E498F8E499F922C3E452
:1016630098F8E499F9121681E498F8E499F9C3E437
:101673009AFAE49BFB22EB20E7CFE920E7E0B900ED
:1016830010BB0008E88AF084F8AAF022E4FBC8FA49
:1016930022EB70227B10C833C8C933C9335007C348
:1016A3009AC3DBF280069A50012ADBEAC833F4C8F6
:1016B300C933F4C9FA2275F008E4C833C8C933C979
:1016C30033C99AC99B5004C92AC93BD5F0ECFBC85E
:1016D30033F4C8E4C9FA22600D08C6A2E713C6189A
:1016E300C613C6D5E0F322600C08C6C313C618C6DA
:1016F30013C6D5E0F422700422600D18C6C333C6A6
:1017030008C633C6D5E0F41822251810AF08F5181B
:10171300400215198008F51840021519D2AF22C0EE
:10172300D0251810AF08F518500205198008F518D0
:1017330050020519D2AFD0D0222518F58210AF0878
:10174300F518400215198008F51840021519D2AF93
:1017530085198322C5822518C582C583351910AF23
:1017630007F5198582188007F519858218D2AFC548
:1017730083222518F582E43519F58322E4732518AD
:10178300C582C0E0E51934FFC583C0E0E518C39501
:101793008224F810AF088583198582188008858311
:1017A30019858218D2AFCEF0A3E520F0A37808E61E
:1017B30008F0A3DEFAEFF0A3E58124FAF8E608F0D7
:1017C300A3E608F0A3E608F0A30808E608F0A3E6FA
:1017D30008F0A315811581D0E0FED0E0F81581153E
:1017E300811581E8C0E0EEC0E0222518C582C0E083
:1017F300E51934FFC583C0E0E518C3958224F910C9
:10180300AF08858319858218800885831985821816
:10181300D2AFCEF0A3E520F0A37808E608F0A3DE6C
:10182300FAEFF0A3E58124FBF8E608F0A3E608F05D
:10183300A30808E608F0A3E608F0A315811581D0F4
:10184300E0FED0E0F815811581E8C0E0EEC0E022AB
:10185300851983851882E0A3FEE0A3F5207808E0CC
:10186300A3F608DFFAE0A3FFE0A3C0E0E0A3C0E033
:10187300E0A3C0E0E0A3C0E0E0A3C0E010AF0885B0
:1018830082188583198008858218858319D2AFD081
:1018930083D082020122851983851882E0A3FEE0AA
:1018A300A3F5207808E0A3F608DFFAE0A3FFE0A39E
:1018B300C0E0E0A3C0E0E0A3C0E0E0A3C0E010AF5D
:1018C300088582188583198008858218858319D233
:1018D300AFD083D08222C0D02518C582C0E0E519DD
:1018E30034FFC583C0E0E518C3958224F310AF0825
:1018F3008583198582188008858319858218D2AF5C
:10190300C8F0A3E9F0A3EAF0A3EBF0A37908E70991
:10191300F0A3D8FAECF0A3EDF0A3EEF0A3EFF0A35D
:10192300D0E0F0A3D0E0F0A3D0E0F0A3E520F0A353
:10193300E5F0F0A322851983851882E0C0E0A3E0D7
:10194300F9A3E0FAA3E0FBA37808E0F608A3DFFA23
:10195300E0FCA3E0FDA3E0FEA3E0FFA3E0C0E0A35F
:10196300E0C0E0A3E0F5D0A3E0F520A3E0A3F5F009
:1019730010AF0885831985821880088583198582AD
:1019830018D2AFD082D083D0E0F8D0E03274048094
:1019930006740280027401C0E0F40412173CD0E024
:1019A300121612227404800474028000CCC0E0ED8D
:1019B300C0E0E518C39CCCAD1950011D10AF068CD7
:1019C300188D1980068C188D19D2AF12161FD0E00E
:1019D300FDD0E0FC22D083D082E9C0E0E493A3C32E
:1019E30086F0C5F095F0F908E493A386F0C5F09569
:1019F300F0700BE493A3C3994005E9048002A3E4C8
:101A030075F002A42582F582E5F03583F583D0E0F5
:101A1300F9E493A3C0E0E493C0E022D083D082EC46
:101A2300C0E0EDC0E0E493A3FCE493A3FDED4C60C0
:101A33000D121A6AEC24FFFCED34FFFD80EFE493F2
:101A4300A3FCE493A3FDED4C600D121AA9EC24FF53
:101A5300FCED34FFFD80EFD0E0FDD0E0FCE493A388
:101A6300C0E0E493C0E022C0E0C3E49396087401AD
:101A7300939618400FE493667008087401936618F0
:101A830070007019A3A3C3E4939608740193961886
:101A9300A3A3400DD0E0D0E0D0E0021A5AA3A3A341
:101AA300A3A3A3D0E022C0E0C0F088F0E493667063
:101AB300080874019366187000A8F0A3A3700BD0F4
:101AC300F0D0E0D0E0D0E0021A5AA3A3D0F0D0E0E7
:101AD3002274F51217EDEAFEEBFFEE2434F8EF342F
:101AE30000F988088909EE2435F582EF3400F5837F
:101AF300E0F8EE2437F582EF3400F583E0F50AECE5
:101B0300850AF0A4FCAAF0850AF0EDA42AFDE82CCE
:101B1300F8E43DF97A257B00121681EA850882856F
:101B23000983F0F8740758F97401B900028004C3FB
:101B330033D9FCFAE8131313541FF8EE28F8EF34E3
:101B430000F9E8245DF582E93400F583E05A600882
:101B5300EE2434F582EF802CEE2434F582EF34004A
:101B6300F583E0C0E0EE2436F582EF3400F583E040
:101B7300F5F0D0E084A8F0EE28F8EF3400F9E8247B
:101B830038F582E93400F583E0F97F04021899748B
:101B9300F51217EDEAFEEBFFEE2434F582EF340085
:101BA300F583E0C0E0EE2435F582EF3400F583D011
:101BB300E0F08E828F83A3A3A3A3A3A3A3C082C0B9
:101BC300838E828F83A3A3A3A3A3E0F8A3E0F9D01A
:101BD30083D082E0C398F508A3E099F509EE247F4A
:101BE300F582EF3400F583E064017069EE2480F53B
:101BF30082EF3400F583E0F8A3E0F98E828F83A3AC
:101C0300A3A3A3A3A3A3E0FCA3E0FD8E828F83A3DE
:101C1300A3A3A3A3E0FAA3E0FBC3EA9CEB9D5010AC
:101C2300C3EC98ED99402EC3EA98EB995027800EA8
:101C3300C3EA98EB994007C3EC98ED9940177CDC15
:101C43007D04EEFAEFFB120BA4EE247FF582EF3452
:101C530000F583E4F0EE2434F8EF3400F9E8FCE90E
:101C6300FDEE2435F582EF3400F583E0F8EE2437FA
:101C7300F582EF3400F583E0F50AE508850AF0A460
:101C8300F508AAF0850AF0E509A42AF509E825086C
:101C9300F8E43509F97A257B00121681EA8C828DE6
:101CA30083F0F8740758F97401B900028004C33350
:101CB300D9FCFAE8131313541FF8EE28F8EF340095
:101CC300F9E8245DF582E93400F583E05A6008EE13
:101CD3002434F582EF802CEE2434F582EF3400F5C2
:101CE30083E0C0E0EE2436F582EF3400F583E0F5BF
:101CF300F0D0E084A8F0EE28F8EF3400F9E82438B7
:101D0300F582E93400F583E0F91225E9021B8DC061
:101D130082C083851882851983E0F8A3E0F9C3EABA
:101D23009CEB9D5010C3EC98ED99401BC3EA98EBD4
:101D3300995014800EC3EA98EB994007C3EC98EDD1
:101D4300994004790180027900D083D08222EAC3CA
:101D53009CFAEB9DFB2274EF1217ED9003A2E06453
:101D6300086005E06407702A9061C8E0602490036E
:101D7300D0E0F4601DE0F875F003A4C8AAF02AF9D6
:101D830074D228FE740339FF8E828F83A3A3A3E04A
:101D93007003021E89906060E0C0E0EE2468F58263
:101DA300EF3400F583D0E0F0750C45750D0575082B
:101DB30000750900E5D914F50AE5D95403F50E6059
:101DC300177403650E605CE50A6010EE2467F58204
:101DD300EF3400F583E07003021E6E900540E0646B
:101DE30001602AEE2482F582EF3400F583E060047B
:101DF300780480027800850A08E508C398FA95E01C
:101E0300FB120A728A088B09EA45097005120D96BE
:101E13008074EE2482F582EF3400F583E070048A47
:101E23000C8B0DE50A6012850C82850D83F50BE59D
:101E3300D9F0A3150BE50B70F6EE2482F582EF348F
:101E430000F583E0604474FC250AF50A780C121946
:101E530094AC0AA90EEEFAEFFB120C4074021217AF
:101E630022E97026AA08AB09121294793D8E828F5B
:101E730083A3A3A3A3E0FA7B00120946EEFAEFFBC8
:101E8300120BBC120C52790080747403650E6056F9
:101E9300850A107511007810121994AC0CAD0DAAB7
:101EA30008AB09120C1C7402121722EE2468F58287
:101EB300EF3400F583E064807004747F8001E0F503
:101EC3000C780C121998E50EF50C780C121998A9D8
:101ED3000AAC08AD099003D0E0FA7B0012090A743A
:101EE3000212172280139003A2E06408600BAC0C6B
:101EF300AD0DEEFAEFFB120CAC120DA279017F0AC5
:101F030002189974F51217ED74FC12170CEAFEEB24
:101F1300FF8908A2AFE433F509C2AF806AEE2463F8
:101F2300F8EF3400F97A007B00A2AFE433F50AC27C
:101F3300AF88828983E0FCA3E0FDEC4D603A8882A0
:101F43008983E0FAA3E0FB8A828B83E0FCA3E0FDB4
:101F530088828983ECF0A3EDF08A828B83E4F0A37B
:101F6300F088828983E0FCA3E0FDEC4D700A88824F
:101F73008983A3A3E4F0A3F0E50AA2E092AF1212CF
:101F8300949004E3E004F0EE2463F582EF3400F56B
:101F930083E0F8A3E0F9E849603DEE2463F582EFBE
:101FA3003400F583E02402FAA3E03400FBEA2402C0
:101FB300F50AEB3400F50B780A1219948A828B83A5
:101FC300E0FCA3E0F9EEFAEFFB120BE07402121748
:101FD30022E97003021F209004E3E060639004E4AD
:101FE300E0F89004E3E0C398500C74026508705065
:101FF3009004E5E0604A8E828F83A3A3A3A3E085C8
:102003001882851983F0A3E4F09004E3E0F87402E6
:10201300121775E8F0A3E4F09004E3E0F89004E20B
:10202300E028F07402121775AC82AD83851882859F
:102033001983AA82AB8379011209169004E3E4F0B1
:10204300E509A2E092AF7404121722021B8D00006F
:10205300008521878522C622C0E0C0D0E8C0E0E920
:10206300C0E0EAC0E0EBC0E0ECC0E0EDC0E0EEC0F1
:10207300E0C008C009C00AC00BC082C083C0F0A280
:10208300AFE433FEC2AF759B00906182E0A2E050E3
:1020930012E591A2E0500C7591FE74016521700365
:1020A300121D59E0A2E55051E591A2E5504B7591FF
:1020B300DF9003A2E064076005E064087023740105
:1020C3006521703579019003D0E0FA75F003A4CA55
:1020D300A8F028FB74D22AFA74033BFB121F068074
:1020E30018E0640D70139003C4E004F064287002D8
:1020F300E4F07A00E0F9120DA8906182E0A2E640D4
:10210300030221A2E591A2E640030221A27591BF39
:102113009003A2E064057008120CD6120CE280034F
:10212300120CDC752100120D36E99003A3F079003F
:10213300120D2A120B1A7A017B009003A1E0F91207
:102143001000907803E064427055900544E014F069
:10215300704DC2AF12215A00782AD0E0F618D0E0B1
:10216300F6E59F540770057509FF800375097FC461
:10217300C0E07829E6F50808E65509F509740B78F7
:10218300081216EAD0E02508F8906270E0A2E74052
:10219300F8E8C333906272F0906270E0D2E0F0909E
:1021A3006181E0A2E35009E5E9A2E3500375E9F791
:1021B300A3E0A2E75009E591A2E7500375917FEEF2
:1021C300A2E092AFD0F0D083D082D00BD00AD00956
:1021D300D008D0E0FED0E0FDD0E0FCD0E0FBD0E0C2
:1021E300FAD0E0F9D0E0F8D0D0D0E032C0E0C0D0EF
:1021F300C082C083906183E0A2E05009E5BFA2E002
:10220300500375BFFEE0A2E15009E5BFA2E1500310
:1022130075BFFDE0A2E25009E5BFA2E2500375BF1E
:10222300FBE0A2E35009E5BFA2E3500375BFF7E06B
:10223300A2E45009E5BFA2E4500375BFEFE0A2E5B5
:102243005009E5BFA2E5500375BFDFE0A2E65009E0
:10225300E5BFA2E6500375BFBFD083D0828088C09C
:10226300E0C0D0E8C0E0E9C0E0EAC0E0EBC0E0ECE9
:10227300C0E0EDC0E0C0F0E5A7A2E6500FE5A1A2E3
:10228300E6500953A7BF75A1BF1222C7E5A7A2E570
:10229300500CE5A1A2E5500653A7DF75A1DFE5A722
:1022A300A2E15009E5A1A2E1500375A1FDE5A7A2B2
:1022B300E2500CE5A1A2E2500653A7FB75A1FBD0A7
:1022C300F00221D874F81217ED7521019003A2E0F2
:1022D30064067015120C708A828B83A3A3A3A3A335
:1022E300A3E0FAA3E0FB120CC4A2AFE433FED2AF27
:1022F3009003A8E0640170187A207B009003A1E0AA
:10230300F91210847A207B009003A1E0F9121006E1
:10231300906182E0D2E6F0900541E0602185C6221B
:1023230080169003A7E064017008E5C654F84405DD
:10233300F5C653BEFC1220547401652160E4EEA27D
:10234300E092AF7F01021899008E238F24858228A3
:10235300858327851882851983E0CEA3E0CF85285E
:1023630082852783EBC9EAC8EDCBECCA75F010C3AD
:10237300E833C8E933C9EA33CAEB33CBC3EA9EF582
:1023830026EB9FF525B35004AB25AA26EC33CCED01
:1023930033CDD5F0DAAE23AF242274ED1217ED8AD4
:1023A300088B098C0A8D0B7413121775780C121590
:1023B300DC7808790C1213DB7510017511C87512DE
:1023C3000075130050127808790C12157B78107978
:1023D300081213DB50168010780C790812157B78DD
:1023E30010790C1213DB40047901800279007F0C11
:1023F30002189974ED1217ED8A088B098C0A8D0B5C
:102403007413121775780C1215DC780C79081213F3
:10241300DB40117808790C12157BAA08AB09AC0ACA
:10242300AD0B802275100075110075120075130134
:102433007810790C12157B78107908121542AA10BE
:10244300AB11AC12AD1380A68A828B837508FF751E
:1024530009FF750AFF750B0078081215C97F04027E
:10246300189974F51217ED8C828D8378081215DC98
:102473008A828B83780812158FEA2404F8EB3400E0
:10248300F98C828D83A3A3A3A3E0FCA3E0FD888240
:102493008983C3E09CF0A3E09DF088828983C3E035
:1024A3009420A3E0944E40268A828B837508FF759F
:1024B30009FF750AFF750BFF78081215688A828B6E
:1024C30083A3A3A3A3E02420F0A3E0344EF00224CB
:1024D3004B74F51217EDE9FE9004F7E0FAA3E0FB65
:1024E300EEC333F8E433F9743928F582748239F58D
:1024F30083E02AF508A3E03BF50978081219947ADA
:10250300407B427C0F7D0012234C74021217228AF7
:10251300088B098C0A8D0B7410780812150AAA0807
:10252300AB097F0402189974F11217ED8A0C8B0D15
:102533008C0E8D0F740F121775E0FAA3E0FB741164
:10254300121775E0F508A3E0F5097808121994EA63
:102553002401F508EB3400F509E4F50AF50B780CD2
:10256300790812141A750871750902780C79081222
:10257300141AAA0CAB0DAC0EAD0F12234C7402123D
:1025830017228B09EA450960047A0180027A00EC7C
:102593002AFCED3400FD7413121775E0F8A3E0F97B
:1025A300E8FEE9FFECF8EDF97A717B0212168188F7
:1025B3000889098E828F8378081215EBECF8EDF900
:1025C3007A717B021216818A088B097405780812C6
:1025D30016F98E828F83A3A3A3A3E508F0A3E509CD
:1025E300F07F08021899C082C083E9906000F0D0A0
:1025F30083D08222C2AF02000022C0E074F212181C
:10260300D9A2AFE433FED2AFC2C0E5D1A2E45006F3
:1026130053D1EF121252EEA2E092AF7F01021938AA
:10262300C0E074F21218D9A2AFE433FED2AFE58949
:10263300A2E0500312120A758900C2C5EEA2E0920D
:10264300AF7F01021938C0E0C0D0E8C0E0E9C0E0C4
:10265300E5A8D2AFC2C7A2E7A2E792AFD0E0F9D014
:10266300E0F8D0D0D0E032C0E0C0D0E8C0E0E9C0AC
:10267300E0C008C009C082C083A2AFE433F9D2AF7F
:102683009009E1E0F8A3E0687008539AFBA3740192
:102693008026C2E99009E1E0F50874012508F07489
:1026A300612508F58274093400F583E0F5C19009CA
:1026B300E1E0C394804002E4F0E9A2E092AFD0836A
:1026C300D082D009D008D0E0F9D0E0F8D0D0D0E063
:1026D30032FFFFFFFFFFFFFFFFC082C083E99014BB
:1026E300A6F002296B74F7121781E99002E1F07CDE
:1026F300197D037AFF7BFF12085C9002E274FFF0FE
:10270300A3F0A3E4F0A3F079051207E49002E1E05B
:10271300F91207067A7A7B08120A247F01021853FA
:1027230074F41217818A088B09EB5480603090028D
:10273300E1E0F9120FE88A0A8B0BAE0AAF0BEE4FFA
:1027430060138E828F83E064B070031207FCEEFA8D
:10275300EFFB120FD6AA08E5096480FB80047A0018
:102763007B0002293A74F212178174FC12170CEAE7
:10277300FEEBFFEE4F60387402121775EEF0A3EF15
:10278300122B9FECF0A3ED122B9FAA82AB831207AF
:1027930000E9F50870737412121775123753E50ABE
:1027A300450B60658E828F83122816EE4F70057578
:1027B300080280557A067B0012103C8A0C8B0DA808
:1027C3000CA90DE8497005750813803D888289833B
:1027D300E4122820A3A3EEF0A3EF123BECE50AF0EA
:1027E300A3E50BF09002E71228A89002E76017E038
:1027F300FCA3E08003EAFCEBFD8C828D831228A806
:1028030070F38C828D83123678A908740412172210
:10281300023DEEA3A3A3A3E0FEA3E0FF22F0A3F0F7
:10282300888289832274F2121781890AE975F01765
:10283300A4FEAFF09002E6E4F09002E41228A86050
:102843000A1210429002E4E4F0A3F0EEFAEFFB1256
:10285300103C8A088B09EA4509602FEEFCEFFD79ED
:1028630000120FBE9002E4E508F0A3E509F07B0037
:102873008008122892E4F0A3F00BEBC3950A40F210
:10288300E50A9002E6F0790080027913023DEEEB4F
:1028930075F017A4F8A9F09002E4E028FAA3E03950
:1028A3008A82F5832212340EEA4B2274F4121781C2
:1028B300750800750900740C121775123BC0FEE908
:1028C300FF800CE5082401F508E5093400F509C388
:1028D300E5089CE5099D503285080A85090B7403B8
:1028E300780A1216F9EA250AF8EB350BF98882897A
:1028F30083A3A3A3A3A3A3123753EE650A7003EF25
:10290300650B70BFE8FAE9FB80047A007B0080273F
:1029130074F41217817900EAA2E0501B750831752F
:10292300098378081219947C047D007AA87B141219
:1029330007DE74021217227F04021853C082C08379
:102943009002E7122972601C88828983A3A3E06A3C
:102953007003A3E06B8882898370E8A3A3A3A31207
:10296300340A80047A007B00D083D08202012212D1
:102973003EC1E8492274EE12178174FC12170CEA67
:10298300FEEBFF851882851983E4F0A3F0EE2402A1
:1029930012365CEE2405122B8DEE2404F50EEF1295
:1029A3002F72E024FE603924FC604624FE6052242A
:1029B300FE605E24FE7003022A9224FE7003022B43
:1029C3000A24FE7003022B1924FE7003022B282411
:1029D300FC7003022B3724FE7003022B46022B8369
:1029E3009003007417F0A3E4122BA712047E022BAA
:1029F30083851882851983AC82AD83120802022B6A
:102A030053851882851983AC82AD83120808022B83
:102A130053850C08850D097402121775AC82AD83BA
:102A230085088285098312340A1207248A0C8B0DC8
:102A3300AC0CAD0DEC4D6042E4F50CF50D780C12C9
:102A43001994750C00750D03780C121994750C010B
:102A5300750D03780C12199474081217751219ABBB
:102A630079161234041208447408121722E9F50C7B
:102A7300700B123400120496800F750C01850882C6
:102A8300850983122B95123678850C08022B567410
:102A930002121775AC82AD83850C82850D831234C7
:102AA3000A1207248A108B11AC10AD11EC4D604350
:102AB300850C82850D83A3A31219AB7510007511C4
:102AC30003781012199475100175110378101219F7
:102AD3009474081217751219AB791612340412087C
:102AE300447408121722E9F509700B12340012041A
:102AF3009C800F750901850C82850D83122B95121D
:102B03003678850908804C851882851983AC82AD97
:102B13008312080E803A851882851983AC82AD83AF
:102B2300120814802B851882851983AC82AD831219
:102B3300081A801C851882851983AC82AD8312081C
:102B430020800D851882851983AC82AD83120826F7
:102B5300E9F508E50860298E828F83A3E064146099
:102B63001F850E82850F83E0900300122B9F123E78
:102B7300BD900301123678E508A3122BA71204783F
:102B8300EEFAEFFB1207A2023564F50CEF3400F501
:102B93000D22123EC185188285198322F085188281
:102BA30085198322F07C007D03850A82850B8312BD
:102BB300340E2274EE12178174FC12170C8A0A8BDE
:102BC3000B8C0E8D0FEA2405F508EB3400F5097C18
:102BD300157D0079007A007B03120FBEE5082402FD
:102BE300F50CE509122B90851882851983858210CF
:102BF3008583117810121994850882850983A3A30C
:102C0300A3A31230BA121994E5082405F510E509B7
:102C13003400F5117810121994850C82850D8312F6
:102C2300341412071E74061217228A108B11AE1069
:102C3300AF11E50A2402F50AE50B12365FEE4F7079
:102C430003022D7C8017740212177512340A8882CE
:102C53008983EAF0A3EBF0900300E004F090030013
:102C6300E0C394054003022D7CE4F510F5117810C0
:102C73001219947510E975110278101219947510D0
:102C8300EA75110278101219947406121775121945
:102C9300AB7910EEFCEFFD123404120844740812F1
:102CA3001722E9705E850882850983A3A3A3A3A3E2
:102CB300A3A3E0F89002E9E06870481230BA121951
:102CC300947CEA7D02E5082408FAE5093400FB1246
:102CD3000FB87402121722E960298E828F83A3A38F
:102CE300A3A312340A900300E0F5107402781012C3
:102CF30016F974012510F58274033511F583EAF092
:102D0300A3EBF07402121775858210858311781076
:102D130012199474021217751219AB850C82850D62
:102D230083123ED212072A74041217228A108B11BF
:102D3300AE10AF11900300E0F51075110074027826
:102D4300101216F974002510F874033511F98882EE
:102D53008983A31228A87003022C40E82403F8E90E
:102D63003400F9EE4F6003022C498882898374FF93
:102D7300F0A3F0900300E004F0900300E0600A1277
:102D8300340012048A7900800B8508828509831236
:102D9300366F790A02356474EA12178174FE1217CA
:102DA3000C8C128D13EA2405F50CEB12403C12280F
:102DB3001A750800750900EA2402F510EB3400F5D2
:102DC3001185188285198385820A85830B780A12F7
:102DD3001994850C82850D83A3A3A3A3122F7C12C0
:102DE3001994E50C2405F50AE50D12365F780A12ED
:102DF3001994850C82850D83123ED012071E74062A
:102E03001217228A0A8B0BEA450B7003022F2DEA55
:102E13002404F50EEB122F7212281A8A828B83A3D5
:102E2300A3A3E0F985108285118312340A12070CDB
:102E3300E9F5096003022F2DE4F514F51578141252
:102E430019947514E975150278141219947514EA16
:102E5300751502781412199474061217751219ABAA
:102E63007913AC0AAD0B85108285118312340A12D3
:102E730008447408121722E9F5096003022F2D9004
:102E830002E9E0F8E5087009E02402900301F0800C
:102E930017900301E0FCE82402FAE43400FBEA6C37
:102EA3007001EB6003022F31850882AA821230B1D0
:102EB30094141230A95073850E82850F83E0C0E00D
:102EC30074022A122F69D0E0F00508850E82850F5F
:102ED30083A3E0C0E085080A7402250A122F69D093
:102EE300E0F005089002E9122F7C1219947CEA7D28
:102EF3000285080A7402250AFA74033400FB120FD0
:102F0300A674021217229002E9E02508F50874FF5F
:102F13006E700374FF6F6012EE24010EEF3400FF36
:102F2300E508C394145003022DC4E508601312325C
:102F3300F585108285118312340A1204907900807A
:102F430014E509700375090A851282851383EEF06F
:102F5300A3EFF0A90974021217227F0E02185385FA
:102F6300080C7402250CF58274033400F5832234B3
:102F730000F50F850E82F58322123BFF2274EE12B9
:102F8300178174FE12170C8C0E8D0FEA2405F50CB5
:102F9300EB122B90750B00900300E4F0F50AEA2482
:102FA30002F508EB3400F5098049900300E0FA903C
:102FB30002E9E0F81230B194171230A9400D9003E2
:102FC30000E0F87416C3989002E9F01230BA1219AF
:102FD300947CEA7D0274012AFA74033400FB120F15
:102FE300A674021217229002E9E0F8900300E02889
:102FF300F0050AE50C2416F582E50D122F6DE0F8B5
:10300300E50AC3984003023092900300E0C394168C
:10301300507DE50AC333F8E433F9E50C28FEE50DEA
:1030230039FF851882851983AC82AD838E828F83A5
:1030330012340A1207248A108B11AC10AD11EC4D17
:103043007005750B018043E4F510F5117810121922
:10305300947510E975110278101219947510EA75B8
:103063001102781012199474061217751219AB799C
:103073001685088285098312340A120844740812DB
:103083001722E9F50B7003022FAD12366B80107C0B
:10309300007D0385088285098312340A1204A2A9DC
:1030A3000B7402023566E99400C365D03322EA2823
:1030B300F8E43400F9E822E0F510751100781022E5
:1030C30074EA12178174FC12170C8A0C8B0D8C1284
:1030D3008D13EA2405F50AEB12365F7508007509AE
:1030E30000E50A2402F510E50B3400F51174021211
:1030F300177585820E85830F780E121994850A82BF
:10310300850B83A3A3A3A3123BAB121994E50A2453
:1031130005F50EE50B3400F50F780E1219948510A2
:103123008285118312366512340412071E74061247
:1031330017228A0E8B0FAE0EAF0FE50C2402F50E8D
:10314300E50D3400F50F80408882898374FFF00514
:1031530008122F6274FFF005089002E9E0F50C7580
:103163000D00780C1219947CEA7D0285080C740218
:10317300250CFA74033400FB120FA67402121722F3
:103183009002E9E02508F508EE4F60718E828F8387
:10319300A3A3A3E0F9850E82850F8312340A1207D5
:1031A3000CE9F509EE2404122B8DE97044E4F514BF
:1031B300F51578141219947514E97515027814121B
:1031C30019947514EA751502781412199474081277
:1031D30017751219AB7911EEFCEFFD850E82850F81
:1031E3008312340A1208447408121722E9F509609D
:1031F30027850C82850D831232EB123678E5087031
:10320300030232D11232F5850E82850F8312340AFE
:103213001204A879000232E6850882AA82EA9002A3
:10322300E97009E02404900301F08022E0F89003A0
:1032330001E0F514E82404FCE43400FDEC651470AB
:1032430001ED70C01230B194121230A950B6850C42
:1032530082850D83E0C0E074022A122F69D0E0F06A
:103263000508850C82850D83A3E0C0E0122F62D090
:10327300E012330785820C85830D780C1219947440
:10328300041217751219AB851082851183123ED271
:1032930012072A74041217228A0C8B0DAE0CAF0D81
:1032A30085080C7402250CF874033400F9EE4F7092
:1032B3000302314B851882851983E0888289831242
:1032C3003307A3E0C0E0122F62D0E0023159E509D1
:1032D300700375090A850A82850B831232EB123655
:1032E30078A9097404022F5A123EC18512828513EC
:1032F3008322900301E0F5F0E50884900300F07C5D
:10330300007D0322F005088518828519832274EC59
:1033130012178174FE12170C8A088B098C0E8D0FFD
:10332300EA2405FEEB3400FF851882851983AC82FD
:10333300AD838E828F8312340A1207248A0A8B0B81
:10334300EE2418122B8DEA450B70030233DB123582
:103353004D503285188285198312340A1208388A2F
:10336300108B11EA4511606B7912AC0AAD0B85081D
:103373008285098312340A85108285118312177F8F
:10338300E9F50A7058E4F50AF50B780A1219948ED8
:10339300828F83A3A3E0F50A780A121994EE24031B
:1033A30012365C780A1219948E828F8312341412A7
:1033B300084A7406121722E9F50A7021850C8285E2
:1033C3000D83E0701F85088285098312340A120475
:1033D300AE8011750A0E8009750A018004E50A6042
:1033E3000312366B850C82850D83E06004790080BF
:1033F30002A90A74021217227F0C0218537C007D63
:1034030003850A82850B8312340E22E0FAA3E0FBC4
:1034130022E0FCA3E0FD85088285098312340E2295
:1034230074EE12178174FE12170C8A088B098C0C28
:103433008D0DEA2405FEEB3400FF750E008518821E
:10344300851983AC82AD838E828F8312340A12076F
:10345300248A0A8B0BEA450B700302353912354D6A
:10346300503585188285198312340A1208388A0E5A
:103473008B0FEA450F605E7912AC0AAD0B850882AB
:1034830085098312340A850E82850F8312177FE91B
:10349300F50E600302353C85088285098312375394
:1034A300AA0AFB12082C8A108B11A810A911E8494B
:1034B300701E7AFF7BFF12082C8A108B11A810A9AB
:1034C30011E849606C88828983E50AF0A3E50BF073
:1034D300750A008007750E0E805F050A9002E6E00C
:1034E300FAE50AC39A504AE50A75F017A4FAABF055
:1034F30088828983A3A3E02AFAA3E03BFB8A828B19
:1035030083123665EC4D70D2750A17750B00780A75
:10351300121994EEFCEFFD120FA67402121722EE9D
:10352300FCEFFD85088285098312340A1204B480F6
:1035330014750E098003750E01123EB9850C828540
:103543000D83123678A90E0230A4E5082402F5088B
:10355300E5093400F5098A828B83A3A3A3E0A2E5DE
:103563002274041217227F0A02185374EC12178173
:103573008C108D11EA2405F50CEB122B90750F00BE
:10358300EA2402F50AEB12365F850A82F5831234C8
:103593000A12082C8A088B09EA450970030236517E
:1035A300750E008071850C82850D83E06401704F78
:1035B3008E828F83A3A31219AB8E828F83A3A3A3BF
:1035C300A3E0F5127513007812121994EE2405F591
:1035D30012EF3400F51378121219941234041208FE
:1035E3004A7406121722E9F50F6014850C82850DC3
:1035F30083E4F0123EB98510828511831236787CFC
:10360300177D007900EEFAEFFB120FBE8E828F83D7
:10361300E4F0A3F0050E9002E6E0F8E50EC398503F
:103623001EE50E75F017A4F8A9F0850882850983B5
:10363300A3A3124046123665EC4D60030235A885FC
:10364300088285098374FFF0A3F0E50F7006123436
:10365300041204BAA90F0233FBF50AEF3400F50B89
:1036630022A3E0FCA3E0FD228E828F83123EC1855C
:103673000E82850F83E8F0A3E9F022C082C0839015
:1036830002E2E06A7003A3E06B70067AE27B0280D9
:10369300047A007B0002296BC082C08378008C828D
:1036A3008D83E06A7003A3E06B7010E875F003A4E8
:1036B300F8A9F0EC28FAED39FB8015088C828D838C
:1036C300A3A3A3E06A7003A3E06B60DF7A007B002F
:1036D30002296B74F61217811207F68A828B83E52F
:1036E30082458370067A007B008007A3A3A3A312FD
:1036F300340A023D6A74F2121781E9FE740E12173E
:10370300751237537410121775123BCB8C828D834D
:10371300E064027036A3123EC7F50CA3E0F9A80CCF
:1037230074026870037429697021750C02750D00A9
:10373300780C1219947808121994780A121994EED5
:10374300F912086E740612172280027901023DEE07
:10375300E0F50AA3E0F50B2274E812178174FB125B
:10376300170CE9851882851983F08A168B17ECFEEE
:10377300EDFF751000741D121775123EBD741D12F6
:1037830017751236788E828F83A3A3A3E0A2E45029
:103793002D741D12177512340A1208388A828B830E
:1037A300E58245837003023B9C790AEEFCEFFDAA98
:1037B30016AB1712177FE9F5106003023B9F741FC6
:1037C300121775123BCB74211217751237537423DA
:1037D300121775E0F50EA3E0F50F8E828F83E06478
:1037E300026003023B4AA3123EBD8508828509831A
:1037F300A3858212858313EE2406122B8D8882897A
:1038030083E0FAA3E0F9EA2400F514E439F5157826
:1038130014121A1E0100002801283F38070002284D
:1038230004390328713800293B3A0129663A0229F1
:10383300073A03293B3A0429E53A4A3BE50E450F8B
:103843006003023B45850C82850D83123BC0FAE978
:10385300FB8A828B83E0850A82850B83123BF612F7
:1038630019948A828B83A3E0FCA3E0023ACFE50E8E
:10387300450F6003023B45850A82850B837401F083
:10388300123BD3850882850983F07C007D008E82FC
:103893008F83A3A3A3A3E02401FAA3E03400FB12C4
:1038A3000724EA4B60418A828B83E02402F8850A6D
:1038B30082850B83E028F0EA2404F8EB3400F988CE
:1038C300828983E0851282851383123C08123BF6BA
:1038D3001219948A828B83123664E5082403FAE56D
:1038E300093400FB023AD4850A82850B83E0240461
:1038F300F07C047D007900AA12AB13120FBE023BC9
:103903009FE50E450F6003023B45123BD3FEA3E048
:10391300FF850A82850B837404F0EE85088285098E
:1039230083F0EF851282851383F07403121775AC4D
:1039330082AD83EEFAEFFB1207248A0C8B0DEA4566
:103943000D70030239E88A828B83A3A312281674AD
:103953000112177585820E85830F780E12199474E0
:10396300051217751219AB7CFF7DFF12072A740429
:103973001217228B0FEA450F7033850C82850D8356
:10398300123BAB121994850C82850D83A31219ABDC
:103993007C027D007AE77B8312055674041217229A
:1039A300E9700A740112177574FFF0A3F08E828F09
:1039B30083E064027039750C02750D00780C1219DE
:1039C300948E828F83123664E5082404FAE5093461
:1039D30000FB120FA67402121722850A82850B833D
:1039E300E0240280097401121775EEF0A3EFF0745E
:1039F30001121775123BBCF07401121775A3123B29
:103A0300B4023B3FE50E450F6003023B45850C8244
:103A1300850D83123665AA16AB17120862850A82D2
:103A2300850B837402F0EA850882850983F0851289
:103A330082851383EB023B42E50E450F6003023B95
:103A430045123BD3F8A3E0F9850A82850B83740200
:103A5300F0E8850882850983F0E98512828513835E
:103A6300023B42850C82850D8312340A120FA0EAB1
:103A7300FC8C82A882C3950EE4950F405FE8650E27
:103A83007002E50F70047C008022851882851983FB
:103A9300E0FAE50E2AFAE50F3400FBC3EA98EB944B
:103AA300005003E08005E50ECCC39CFCEC850A8244
:103AB300850B83F08C0A750B00780A121994850C18
:103AC30082850D83E0250EFCA3E0350FFDAA08AB2C
:103AD30009120FA67402121722023B9F75100702E8
:103AE3003B9FE50E450F705A850C82850D83123E70
:103AF300BD850A82850B837407122822123BB412F8
:103B03002822A3E0851282851383F0E82402FAE9D0
:103B13003400FB8A828B83123BB4123BE3123BBC1F
:103B2300A3123BEC123BC5F0E82405F8E93400F995
:103B330088828983123BC5A3123C08A3A3A3A3F0E5
:103B4300805A75100B8055741D12177512340A12A2
:103B530007F68A828B83E5824583603D123EBD88EA
:103B63000C890DE8450D6031780E121994780A120C
:103B7300199478081219947406121775E0F9EEFC7B
:103B8300EFFDAA16AB17850C82850D8312177F7480
:103B930006121722E9F510800375100EA91074059B
:103BA3001217227F10021853E0F50E750F00780EDE
:103BB30022E085088285098322123C1222123EC12B
:103BC300E822123C12A3A322E0F508A3E0F50922A0
:103BD300850C82850D83E0F8A3E0F5838882E022DB
:103BE300A3A3F08A828B83A322F088828983A3A371
:103BF300A3A322F08A828B83123BFF22E0F50A758E
:103C03000B00780A22F088828983A3123C1222E0F7
:103C1300850882850983A3A32274EE12178174FE9B
:103C230012170C8A0A8B0BECFAEDFB74141217753E
:103C3300E0F510A3E0F5117416121775E0FE741881
:103C4300121775E0F50EA3E0F50F85188285198329
:103C5300AC82AD831207248A0C8B0DEA450D6049B3
:103C630085188285198312340A1207F68A828B8398
:103C7300E5824583602FA3A3123BCBE5084509608A
:103C830024780E1219947810121994EEF9AC0CAD35
:103C93000DAA0AAB0B85088285098312177F74046A
:103CA3001217228006790E800279010230A474F67D
:103CB30012178174FE12170C740C121775123BC085
:103CC300851882851983F07401121775E9F0E4F5FC
:103CD30008F50978081219947508027808121994DE
:103CE300740412177585820885830978081219945C
:103CF30012084A740612172274021217228068747B
:103D0300F7121781EAFEEBFF89087C197D0312087D
:103D130062EA5402600BA908EEFAEFFB120718805F
:103D230002790102271E74F612178174FF6A700369
:103D330074FF6B70168C828D83123D6FE4F08C825E
:103D43008D83A3A3A3123D6FA380181208328A08A0
:103D53008B09A808A909E849600D8882898374FF43
:103D6300122820A3A3E4F07F0202185374FFF0A3E8
:103D7300F08C828D83A3A32274F61217811208326A
:103D83008A828B83E58245836006A3A3E0FA8002DF
:103D93007A007B0080D174F21217818A088B09ECB8
:103DA300FEEDFF740E121775E0F50A1208328A0C45
:103DB3008B0DA80CA90DE8497026EEFCEFFD7AFFE8
:103DC3007BFF1208328A0C8B0DA80CA90DE84970F1
:103DD300047911801688828983E508F0A3E509F048
:103DE30088828983A3A3E50AF079007F060218532A
:103DF30074EE121781EAFEEBFF8C088D09890C74AF
:103E030014121775123EBD741612177512340A7503
:103E13000D00E8496003023EB17402650C600302C1
:103E23003EAC7412121775123EC7FCA3E0F9EC24E2
:103E330000F50EE439F50FEAF4F8EBF4F9EC58F871
:103E4300E50F59F9E849705CE5082406F8ED3400FC
:103E5300F9880A890B8882F583123ED21208628A96
:103E6300108B11E50E65107004E50F651160427843
:103E73000E121994850A82850B83123ED2120868AA
:103E83007402121722E9F50D7027780E1219948522
:103E93000882850983A3A3123ED0120880740212FC
:103EA3001722800D750D808008750D0D8003750D2B
:103EB3000BA90D0235698E828F83123EC122E0F871
:103EC300A3E0F922123EC188828983E022A3A3E002
:103ED300FCA3E0FDEEFAEFFB2274E812178174E70E
:103EE30012170C851882851983EAF0A3EBF08C1660
:103EF3008D17890E7508007509007431121775E066
:103F0300F512A3E0F5137433121775E0F514A3E06B
:103F1300F5157435121775E0F50FE50975F003A46F
:103F2300F8A9F0851882851983124046E0F47003DE
:103F3300A3E0F47003024029EE2402F50CEF1240D3
:103F43003CE0700302402985160A85170B780A1294
:103F53001994AC14AD15AA12AB131207EA7402122A
:103F630017228A0A8B0BEA450B7003024029E4F5FA
:103F730010F51178101219947406121775858210B2
:103F8300858311781012199474091217758582109C
:103F93008583117810121994851282851383A3A344
:103FA300A3A31219AB7914AC0AAD0B8E828F8312C3
:103FB300340A1208447408121722E97069850A82C8
:103FC300850B83A3A3A3A3123EBD7402121775121C
:103FD3003678850C82850D83E0A2E05018A90E7413
:103FE30002121775AC82AD838E828F8312340A124C
:103FF300073CE94208850C82850D83E0A2E1502647
:10400300E50FF50A780A121998A90E7403121775A9
:10401300AC82AD838E828F8312340A120736740109
:10402300121722E942080509E509C3940250030265
:104033003F1DA9087419023BA33400F50D850C82BA
:10404300F58322E028FEA3E039FF8E828F8322745A
:10405300F2121781EAFEEBFF890B7401650B600E08
:104063007402650B706A7901120A42E97062EEFA12
:10407300EFFB12082C8A088B09EA45096047750A89
:1040830000800B7C177D007900120FBE050A900299
:10409300E6E0F8E50AC3985021E50A75F017A4F89D
:1040A300A9F0850882850983A3A3E028FAA3E03950
:1040B300FB8A828B8312297270C9850882850983E2
:1040C30074FFF0A3F07C197D03EEFAEFFB12085C9A
:1040D300023DEE74F21217818A088B09ECFEEDFFA4
:1040E300740E1217751237539014A6E0F4603D7ADC
:1040F300097B00120FD0EA4B60328A828B8374B142
:10410300F0A3E4123BE5A3123BE3A3E508F0A3E528
:1041130009124132EEF0A3EF124132A3A3E50AF0F4
:10412300A3E50BF09014A6E0F9120FDC023DEEF0CC
:104133008A828B83A3A3A3A3A322C082C08390619B
:10414300907404F0A37448F0A37402F09061807437
:1041530040F09061BC7403F09061877419F0906231
:1041630065741BF0906249E0C3941390619C400A0C
:104173007409F090606674018007740DF0906066B6
:10418300E4F090619A7433F0A37455F09061A074D5
:104193003AF090053FE064017009C2919003A67460
:1041A3006780059003A67461F09026DAE49390612A
:1041B30086F09026D4E493F46027E493540FF890A8
:1041C3006185E0686012E5C654804449F5C6E59E02
:1041D300547F644970F8E8F053C680E59E547F70BD
:1041E300FA7905120D8A02436BC082C083E5A8F8F1
:1041F30053A87E906181E4F0A3F0A3F0C2BA539A6E
:10420300FEC289759B00C2C275E90075910075BF36
:104213000075A91175B905906181F0A374C0F0A36D
:10422300E4F0D2BA439A0174805842A802436BC0A7
:1042330082C08374F812170C9003A4E0F8A3E0F98A
:10424300E84970030243609003A4E054406023797B
:1042530008851882851983AA82AB83120BFE851801
:1042630082851983AA82AB831208F29003A4E054D7
:10427300BFF0E054806010790C7A657B05120BFE69
:104283009003A4E0547FF0E0A2E0503190619A746F
:1042930033F0A37455F09061A0743AF090053FE0B9
:1042A30064017009C2919003A6746780059003A608
:1042B3007461F01208F89003A4E054FEF0E0540295
:1042C300603190619A743FF0A3745AF09061A074C6
:1042D3007FF090053FE064017009D2919003A674CA
:1042E3007180059003A6746AF01208F89003A4E0A5
:1042F30054FDF0E0540460139026D8E49390618653
:10430300F01208FE9003A4E054FBF0E0540860139D
:104313009026D9E493906186F01208FE9003A4E0FE
:1043230054F7F0E0541060139026DAE4939061861A
:10433300F01208FE9003A4E054EFF0E05420600A6A
:104343001208FE9003A4E054DFF0A3E05401600DD3
:10435300120B261209049003A5E054FEF074081210
:10436300172202436BF0A3F0D083D08202012274A0
:10437300EC12178174F412170C851882851983AC1B
:1043830082AD8375838375826D740412161F902624
:10439300D893F460030244FE907808E0C39402507B
:1043A300030244DE7404121775AC82AD83758383F4
:1043B300758216740812161F8518828519838582E3
:1043C300128583137404121775AC82AD83750EFFC7
:1043D300750FFF7FFF7E00750C48750D788015748F
:1043E300086E700302447274096E7003024472749F
:1043F3000A6E607B850C82850D8378081215DC8C30
:10440300828D83A909E50AC9F888107418780812FF
:10441300150AE5104508F8C3E098A3E099850C82D6
:10442300850D8378081215DC40188C828D837418EF
:10443300780812150AE5104508F8E0C398F8A3E0D8
:10444300801C7418780812150AE5104508FAE9FB70
:104453008C828D83E0F8A3E0F9EAC398F8EB99F92D
:10446300C3E8950EE9950F5006880E890FEEFF0EEF
:10447300E50C2404F50CE50D3400F50DEEC394139F
:1044830050030243E274FF650E700474FF650F600E
:10449300238F08740278081216F974482508F582E8
:1044A30074783509F58378081215DC851282851333
:1044B30083E508F0EC2402FCED3400FD85128285CF
:1044C3001383A3858212858313740C121775E582F7
:1044D3006C7003E5836D60030243D07508017509B1
:1044E3000078081219947402121775AC82AD837A9E
:1044F300B67B091211EC7402121722740C121722E4
:104503007F0C021853C082C0839061AE7468F0A31D
:10451300746AF090624574FBF0A304F053F4FD4316
:10452300FE0290053F7401F09061A0E0643A90614F
:104533009A70237433F0A37455F09061A0743AF029
:10454300740164017009C2919003A6746780289076
:1045530003A674618021743FF0A3745AF09061A0A4
:10456300747FF0740164017009D2919003A6747191
:1045730080059003A6746A02436A7F08021853C039
:1045830082C0839004F1E06401700A9004F6E06055
:1045930004790C8002790002436BC082C08375E109
:1045A300F19004F4E0605B14600914605F146057D9
:1045B30014705E120B389004EAE0F97AEB7B041274
:1045C3000D0C7AD67BBE7C897D8E120D427A557B8B
:1045D300557C557D00120D189004F5E0F9120D2459
:1045E3007901120D7E9004E8E0F8A3E0C82416F5E3
:1045F30082E83400F5837450F0A3740BF079000261
:10460300436B120B3E80AF120B4480AA120B4A80FD
:10461300A5791280EA74F012178175D90D9004D52B
:10462300E0A2E0E4331313F89004EAE0C433335414
:10463300C0484401F5D978E8790488828983A3A323
:10464300A3E0F5D988828983A3A882A983E864EECD
:104653007003E9640470E378D5790488828983A3BD
:10466300E0F5D988828983A3A882A983E864DB70F3
:1046730003E9640470E575E1959004D5E0F97AD611
:104683007B04120D129014C874EAF0A3740AF0A309
:104693007446F0A3740CF0A37446F0A3740CF0A357
:1046A3007446F0A3740CF0A374F0F0A3740AF0A39F
:1046B3007446F0A3740CF0A37408F0A3740BF09089
:1046C30014D67446F0A3740CF0A37446F0A3740CD0
:1046D300F0A37446F0A3740CF0A37446F0A3740C17
:1046E300F0A37446F0A3740CF0A37446F0A3740C07
:1046F300F09004F4E064019004E87012E0F8A3E0A1
:10470300F5838882A3A37508007509088010E0F873
:10471300A3E0F5838882A3A3750804750900750ACD
:1047230000750B007808121555750CFF750DFF7594
:104733000EFF750F007808790C1215A39004E8E0BA
:10474300F8A3E0C8240EF582E83400F58378081254
:1047530015EB9004E8E0F8A3E0C82414F582E834EC
:1047630000F5837413F09003A27402F002457D7484
:10477300F71217819004FAE02407F5D99004EAE0D0
:10478300C4333354C0F5D978E8790488828983A384
:10479300A3A3E0F5D988828983A3A882A983E864C7
:1047A300EE7003E9640470E39004FAE0601F78E8B4
:1047B3007904FAE82413F582E93400F583E0F5D9A6
:1047C30088828983A3A882A9831AEA70E690051ACE
:1047D300E02407F5D99004EAE0C4333354C0440419
:1047E300F5D978E8790488828983A3A3A3E0F5D96E
:1047F30088828983A3A882A983E864EE7003E964AD
:104803000470E390051AE0601F78E87904FAE8245D
:1048130033F582E93400F583E0F5D988828983A3EF
:10482300A882A9831AEA70E675E1959014C874F614
:10483300F0A3740AF0A37446F0A3740CF0A37446B7
:10484300F0A3740CF0A37446F0A3740CF0A374F0FB
:10485300F0A3740AF0A37446F0A3740CF0A37408D5
:10486300F0A3740BF09014D67446F0A3740CF0A369
:104873007446F0A3740CF0A37446F0A3740CF0A375
:104883007446F0A3740CF0A37446F0A3740CF0A365
:104893007446F0A3740CF09004E8E0F8A3E0C82495
:1048A3000EF582E83400F58374FFF0A3F0A3F0A3C0
:1048B300F09004E8E0F8A3E0C82414F582E834009B
:1048C300F5837412F09003A27401F0FF021853747D
:1048D300F71217819004FAE02407F5D99004EAE06F
:1048E300C4333354C04402F5D978E8790488828903
:1048F30083A3A3A3E0F5D988828983A3A882A9838C
:10490300E864EE7003E9640470E39004FAE0601F66
:1049130078E87904FAE82413F582E93400F583E0B2
:10492300F5D988828983A3A882A9831AEA70E675D8
:10493300E1959014C87402F0A3740BF0A37402F011
:10494300A3740BF0A37402F0A3740BF0A37402F02E
:10495300A3740BF0A37402F0A3740BF0A37402F01E
:10496300A3740BF0A37408F0A3740BF09014D67423
:1049730046F0A3740CF0A37446F0A3740CF0A37474
:1049830046F0A3740CF0A37446F0A3740CF0A37464
:1049930046F0A3740CF0A37446F0A3740CF09004D7
:1049A300E8E0F8A3E0C8240EF582E83400F5837448
:1049B300FFF0A3F0A3F0A3F09004E8E0F8A3E0C8AD
:1049C3002414F582E83400F5837414F09003A27480
:1049D30004F0024C9974F71217819004FAE024074B
:1049E300F5D99004EAE0C4333354C04406F5D978CA
:1049F300E8790488828983A3A3A3E0F5D98882890F
:104A030083A3A882A983E864EE7003E9640470E3D6
:104A13009004FAE0601F78E87904FAE82413F58239
:104A2300E93400F583E0F5D988828983A3A882A9B4
:104A3300831AEA70E690051AE02407F5D99004EA90
:104A4300E0C4333354C04404F5D978E87904888248
:104A53008983A3A3A3E0F5D988828983A3A882A924
:104A630083E864EE7003E9640470E390051AE06080
:104A73001F78E87904FAE82433F582E93400F583F2
:104A8300E0F5D988828983A3A882A9831AEA70E60C
:104A930075E1959014C874FCF0A3740AF0A37446EE
:104AA300F0A3740CF0A37446F0A3740CF0A3744643
:104AB300F0A3740CF0A37446F0A3740CF0A3744633
:104AC300F0A3740CF0A37408F0A3740BF09014D645
:104AD3007446F0A3740CF0A37446F0A3740CF0A313
:104AE3007446F0A3740CF0A37446F0A3740CF0A303
:104AF3007446F0A3740CF0A37446F0A3740CF09006
:104B030004E8E0F8A3E0C8240EF582E83400F58356
:104B130074FFF0A3F0A3F0A3F09004E8E0F8A3E09F
:104B2300C82414F582E83400F5837415F09003A2C9
:104B33007403F0024C99C082C0839004E8E0F8A3A8
:104B4300E0C82406F582E83400F583E40243687480
:104B5300F71217819003D0E0F875F003A4C8AAF008
:104B63002AF974D228F8740339F9E82405FAE934E8
:104B730000FB8A828B83E0FCA3E0FD88828983A308
:104B8300A3A3A3A3A3A3A3A3ECF0A3EDF08882891B
:104B930083A3A3A3A3A3A3A3E024FFF8A3E034FF69
:104BA300F98A828B83E8F0A3E9F0024C9974F71237
:104BB3001781EAFEEBFF9061D0E06003024C8D7534
:104BC300D90E75D90375D904EE248BF582EF340021
:104BD300F583E5822408F8E5833400F9E0F5D9A3E9
:104BE300E865827003E9658370F2EE2483F582EF52
:104BF3003400F583E5822404F8E5833400F9E0F515
:104C0300D9A3E865827003E9658370F275E195794C
:104C130008EE248BFAEF3400FB120BF27904EE2436
:104C230083FAEF3400FB120BF27C00EEF8EFF9ECA1
:104C3300FAC3E49AFA95E0FBEE2AFAEF3BFBEA2487
:104C43008AF582EB3400F583E0C0E0E824AAF5821C
:104C5300E93400F583D0E0F00C88828983A3A8822D
:104C6300A983ECC3940840C7EE246FF582EF3400A8
:104C7300F583E0F8A3E0F9EE2471F582EF3400F553
:104C830083E8F0A3E9F07901800279008008F0EE6F
:104C9300A2E092AF79007F01021853C082C08375EE
:104CA300D90275D90375D90575E195EA246FF582A3
:104CB300EB3400F583E0F8A3E0F9EA2471F582EB25
:104CC3003400F583E8F0A3E9F0790102436B74F64D
:104CD300121781EAFEEBFF9005457406F07508454F
:104CE30075090578081219947C017903120C3A743A
:104CF3000212172275D90675D90375824575830586
:104D0300E0F5D9A3E582644A7004E583640570F095
:104D130075E1959003A2E06408701EEE246FF5829E
:104D2300EF3400F583E0F8A3E0F9EE2471F582EFA8
:104D33003400F583E8F0A3E9F07901024F9F74F69C
:104D4300121781EAFEEBFF9061D0E0706678019064
:104D53000545740BF09003A2E064077019750845CC
:104D630075090578081219947C017903120C3A74B9
:104D7300021217227805740128F5D975D9037582B3
:104D830045758305E8FAE0F5D9A31AEA70F875E1E9
:104D930095EE246FF582EF3400F583E0F8A3E0F994
:104DA300EE2471F582EF3400F583E8F0A3E9F0799E
:104DB3000180027900024F9F74F7121781EAFEEB1C
:104DC300FF75D90375D90375D90DEE24DDF582EF8F
:104DD3003400F583E0F5D975E1957904120D48EEB9
:104DE300246FF582EF3400F583E0F8A3E0F9EE24B5
:104DF30071F582EF3400F583E8F0A3E9F07901025D
:104E03004C9974F6121781EAFEEBFF9061D0E0F83B
:104E13007480C398FAEE2482F582EF3400F583E0C0
:104E23006004780480027800E8240BF8EAC3985001
:104E330003024ECA7D09900545EDF0EE24E2F8EF3A
:104E43003400F97A467B057C0888828983E08A826C
:104E53008B83F088828983A3A882A9838A828B8328
:104E6300A3AA82AB831CEC70E0EE2482F582EF34BC
:104E730000F583E0601D750845750905780812196A
:104E8300947C097903EEFAEFFB120C3A74021217C1
:104E9300227D0D74012DF5D975D90375824575836E
:104EA300058D08E0F5D9A31508E50870F675E195B9
:104EB3007904120D48EE241DF582EF3400F583E4E6
:104EC300F0A3F0790180027900024F9F74F6121764
:104ED30081EAFEEBFF9061D0E0F87480C398FAEEAC
:104EE3002482F582EF3400F583E0600478048002C5
:104EF3007800E82408F8EAC3985003024F9D780627
:104F0300900545740CF09003BFE0900546F09003C4
:104F1300C0E0900547F09003C1E0900548F090038E
:104F2300C2E0900549F09003C3E090054AF0EE24F7
:104F330082F582EF3400F583E0601B75084575093F
:104F43000578081219947C067903EEFA120C3A7468
:104F530002121722780A740128F5D975D9037582CC
:104F6300457583058808E0F5D9A31508E50870F6AB
:104F730075E1957904120D48EE246FF582EF340044
:104F8300F583E0F8A3E0F9EE2471F582EF3400F540
:104F930083E8F0A3E9F07901800279007F02021827
:104FA3005374F6121781EAFEEBFF9061D0E0F874B8
:104FB30080C398FAEE2482F582EF3400F583E06033
:104FC30004780480027800E82404F8EAC3985003C4
:104FD30002507E7802900545E8F0EE24F4F582EF66
:104FE3003400F583E0900546F0EE2482F582EF3439
:104FF30000F583E0601B75084575090578081219EB
:10500300947C027903EEFA120C3A74021217227896
:1050130006740128F5D975D903758245758305880A
:1050230008E0F5D9A31508E50870F675E195EE24B7
:1050330073F582EF3400F583E4F0EE247FF582EF1D
:105043003400F583E4F0EE241DF582EF3400F5839C
:10505300E4F0A3F07904120D48EE240DF582EF3449
:1050630000F583E0F8A3E0F9EE2471F582EF340054
:10507300F583E8F0A3E9F0790180027900024F9FFC
:1050830074F61217819061D0E0F87480C398FCEA3B
:105093002482F582EB3400F583E060047804800217
:1050A3007800E82404F8ECC398405B790290054546
:1050B3007407F0EA24F5F582EB3400F583E09005FC
:1050C30046F0EA2482F582EB3400F583E06018753C
:1050D300084575090578081219947C0209120C3ADF
:1050E30074021217227906740129F5D975D903754B
:1050F3008245758305E9F8E0F5D9A318E870F875DA
:10510300E195790180027900024F9F74F5121781AE
:10511300E9FCA2AFE433F50AC2AF7D0080010DEADA
:10512300246EF582EB3400F583E0F8EDC398501A52
:105133008D08EA2508F8EB3400F9E8246AF582E9DA
:105143003400F583E06C70D68024EA246EF8EB34E7
:1051530000F9E0FEEA2EFAEB3400FBEA246AF5825A
:10516300EB3400F583ECF088828983E004F0E50AF0
:10517300A2E092AF7F0302185374F6121781A2AF15
:10518300E433FDC2AFEA246EF582EB3400F583E02D
:1051930014F07C0060368C08EA2508F8EB3400F93B
:1051A300E8246BF582E93400F583E0C0E0E8246A83
:1051B300F582E93400F583D0E0F00CEA246EF58241
:1051C300EB3400F583E0F8ECC39840CAEA246DF5AC
:1051D30082EB3400F58374FFF0EA2469F582EB3443
:1051E30000F583E4F0EDA2E092AF024F9FC082C0CE
:1051F30083E5A8F8C2AFEA246AF582EB3400F583AD
:10520300E9F0EA2469F582EB3400F583E4F0E8A2DF
:10521300E7A2E792AF02436B74F3121781EAFEEB46
:10522300FFECFAEDFB8A828B83A3A3A3A3E0541FB5
:10523300F0EE2436F582EF3400F583E4F0F50AEE60
:10524300FCEFFD8A828B83E0C0E0EC245DF582ED08
:105253003400F583D0E0F0750B00E50A33333354A3
:10526300F8F50C8A828B83E0F508750900E50B7865
:10527300081216DAE508A2E0502FEE2436F8EF34D0
:1052830000F988828983E0F508EE2508F508EF34F4
:1052930000F509E5082438F582E5093400F583E5CE
:1052A3000CF088828983E004F0050B050CE50BC341
:1052B300940840AF050A8A828B83A3AA82AB838CAE
:1052C300828D83A3AC82AD83E50AC39405500302A8
:1052D30052467F0502185374F71217819003CEE0EC
:1052E300640170030254387A009003D4E06003022F
:1052F30054387401F0A3E4F0A3F090043404F09064
:105303000439F09003D7E4F0A3F0A3F0A3F09003E3
:10531300E104F0900407E4F09003EAF0A3F0A3F0B3
:10532300A3F0A3F0A3F0A3F0900451F0900445F090
:1053330090043A7480F0A3E4F0900440F09004BC2D
:10534300F0A3F0A3F0A3F0A3F0A3F0A3F0A3F090D5
:1053530004C5F0900454F09004A4F0A3F0A3F0A3C8
:10536300F0A3F0A3F0A3F0A3F0A3F0A3F09004B094
:10537300F09004B2F09004AEF09004C8F0A3F0A350
:10538300F0A3F0A3F0A3F0A3F0A3F078CE7903E8A1
:10539300246EF582E93400F58374FFF00A8882896C
:1053A30083A3A882A983EAC3940440E37ACE7B0350
:1053B30078DC790488828983E0C0E0EA2461F5829D
:1053C300EB3400F583D0E0F088828983A3A882A917
:1053D300838A828B83A3AA82AB83E864E17003E9A7
:1053E300640470D07ACE7B0378B57903888289838D
:1053F300A3E0C0E0EA24E6F582EB3400F583D0E0D5
:10540300F088828983A3A882A9838A828B83A3AA33
:1054130082AB83E864BD7003E9640370CF9003CE6D
:10542300E004F0640170089003D6E09003D0F07AB2
:10543300D27B0380047A007B00024C99C082C08334
:105443009003D5E4F09003D4F09003CEF0A3F0A33F
:1054530074FFF075E1F102436BC082C08378007979
:10546300009003D5E0600478D2790388828983A30E
:10547300A3A3A3E0F902436B74F6121781EAFEEBD0
:10548300FFEE2463F582EF3400F583E0F8A3E0F93F
:10549300E8497003025520EE2463F8EF3400F97AEB
:1054A300007B00A2AFE433F508C2AF88828983E0B2
:1054B300FCA3E0FDEC4D603A88828983E0FAA3E027
:1054C300FB8A828B83E0FCA3E0FD88828983ECF076
:1054D300A3EDF08A828B83E4F0A3F088828983E0D2
:1054E300FCA3E0FDEC4D700A88828983A3A3E4F05A
:1054F300A3F0E508A2E092AF1212949004E2E00454
:10550300F09004E3E004F0EE2463F582EF3400F559
:1055130083E0F8A3E0F9E849600302549A8E828F8E
:1055230083A3A3A3E0600F8E828F83A3A3A3E4F0DE
:105533009003CFE014F09003CEE014F070069003D4
:10554300D074FFF08E828F83A3A3E4F09004E1E094
:10555300700D9003CFE0640170057900120D2AEEFF
:10556300FAEFFB120C6A024F9F74F7121781EAFEDF
:10557300EBFF8E828F83A3A3A3A3E0FA7B00120920
:1055830046EEFAEFFB120BBC120C52024C99C0828E
:10559300C08378B5790388828983A3E4F0888289FC
:1055A30083A3A882A983E864BD7003E9640370E65A
:1055B3009003B6740102436A74F6121781EAFEEB94
:1055C300FFEC2403F8ED3400F988088909EC24077B
:1055D300F8ED3400F9E8FCE9FD8C828D83E0F8A353
:1055E300E0F9850882850983E0FAA3E0FB121681BE
:1055F300EE240DF582EF3400F583E8F0A3E9F08C97
:10560300828D83E0F8A3E0F9850882850983E0FAB7
:10561300A3E0FB1216818B09EA45096013EE240D02
:10562300F582EF3400F583E02401F0A3E03400F0C9
:10563300024F9F74F6121781EAFEEBFFEE242EF55C
:1056430082EF3400F583E0FCA3E0FD780079FAEC07
:10565300FAEDFB121681EE246FF582EF3400F58329
:10566300E8F0A3E9F0780079FAECFAEDFB12168181
:105673008B09EA45096013EE246FF582EF3400F5D8
:1056830083E02401F0A3E03400F0024F9F74EC1296
:105693001781EAFEEBFF741412177578081215DCF4
:1056A300120CEE8A0C8B0D8C0E8D0F75100275117A
:1056B30000751200751300780C79101215427510DD
:1056C300FF7511FF7512FF780C79101215A3780C72
:1056D3001219908E828F83E0F8A3E0F5838882A36A
:1056E300A31215FA12239D7404121722E960030210
:1056F30057F48E828F83E02402F8A3E03400F9E8A4
:10570300FAE9FB8A828B8378081215688A828B8375
:105713007508FF7509FF750AFF750B0078081215E8
:10572300C9EE240BF582EF3400F583C082C0838E6B
:10573300828F83A3A3A3A3A3E02401F8A3E03400EF
:10574300F9D083D082E0687003A3E0697005790122
:105753000257F68E828F83A3A3A3A3A3A3A3E0245C
:1057630001F0A3E03400F0EE2473F582EF3400F58A
:1057730083E064017036EE2474F582EF3400F58320
:10578300E0F8A3E0F98E828F83A3A3A3A3A3A3A32B
:10579300E0687003A3E0697013EE2474F582EF34BC
:1057A30000F583E02401F0A3E03400F0EE247FF55C
:1057B30082EF3400F583E064017036EE2480F582D5
:1057C300EF3400F583E0F8A3E0F98E828F83A3A37F
:1057D300A3A3A3A3A3E0687003A3E0697013EE245B
:1057E30080F582EF3400F583E02401F0A3E0340078
:1057F300F0790002450374F6121781E9FEECFFEA23
:105803002462F582EB3400F583E0640160030258FF
:10581300A29061D0E0F508EA2482F582EB3400F52A
:1058230083E060047804800278007480C39508FCE8
:1058330095E0FDEF28F8E43400F9E82402F8E934B0
:1058430000F9EC98ED99A2D265D033404E740A1258
:105853001775E0F508A3E0F509EA2482F582EB3435
:1058630000F583E060157808121994EFFCEEF91245
:105873000C3A740212172274042FFF74012FF5D906
:105883008ED9EF600F850882850983F8E0F5D9A3E7
:1058930018E870F875E19579008006790780027938
:1058A300FF024F9F74F7121781A2AFE433FEC2AF1A
:1058B3008A828B83E0F8A3E0F9E8498A828B8360CC
:1058C3000AA3A3E0F8A3E0F5838882ECF0A3EDF04C
:1058D3008A828B83A3A3ECF0A3EDF08C828D83E407
:1058E300F0A3024C9174F7121781E96021F88C82BE
:1058F3008D83E08A828B83F08C828D83A3AC82AD0F
:10590300838A828B83A3AA82AB8318E870E0ECFAC4
:10591300EDFB024C9974F012178174FA12170C897B
:105923000BECFEEDFF750A008A088B097808121943
:10593300D80004104B5B5B5979599359AB59C9593A
:10594300E159045A1C5A305A5A5AE25AF35A0A5B1A
:10595300255B4B5B4B5B705A7401650B6003025B09
:10596300468E828F83E0F8C394034003025B46E8CC
:105973009015B9025B227402650B6003025B468ECD
:10598300828F831262489015BAE8F0A3E9025B2282
:105993007401650B6003025B46125B734003025B99
:1059A30046E8900776025B227401650B6003025B95
:1059B300468E828F83E0F8C394054003025B46E87A
:1059C300900777025B227401650B6003025B46124A
:1059D3005B734003025B46E8900778025B22741016
:1059E300650B6003025B46750810750900780812A1
:1059F30019947A797B07120FA67402121722025B9D
:105A03006C7401650B6003025B46125B7340030217
:105A13005B46E8900789025B227401650B60030211
:105A23005B468E828F83E09015BD025B2274046512
:105A33000B6003025B468E828F83780C1215DC9019
:105A43008395780C1213FB5003025B4690078B7807
:105A53000C1215EB025B6CE96003025B461206C491
:105A6300E97005121168806090081E806E740765E6
:105A73000B6003025B467508067509007808121966
:105A8300948E828F83A3AC82AD837402121775AA9E
:105A930082AB83120FAC74021217227C007D008547
:105AA3001882851983AA82AB838E828F83E0F912D1
:105AB300110EE9F508C3940A4003025B691206C498
:105AC300E9700CA90812116E7950121312806F74C9
:105AD3001F2508F58274083400F58374018040742F
:105AE30001650B705E125B735059E890078A802F33
:105AF3007401650B704D8E828F83E0F8C3940A5056
:105B030042E89015BC80187401650B70368E828F45
:105B130083E0F874F928C3940A5028E89015BEF07E
:105B230080477401650B701B90081DE0F88E828F0F
