:020000040000FA
:0600000002010A022203C6
:03002B0002265D4D
:03003B0002267E1C
:0300430002261181
:0300530002227610
:03006B0002263733
:1000830002206FE5C754F84401F5C7790122000047
:100093000080FB120086B900030200F4E4792178A2
:1000A30008B800028004F709D8FCE479297802B87B
:1000B30000028004F709D8FCE4900281782F790BC1
:1000C3008002F0A3D8FCD9FA900CAFAA82AB83903C
:1000D300013A784479048015E493A3AC82AD838A12
:1000E300828B83F0A3AA82AB838C828D83D8E9D9D8
:1000F300E77582F07583BA740312011C75829175DA
:100103008300740012011C75D00075813F7518813E
:10011300751902759F00020096C09FF59FE473D086
:100123009F22D083D082C09FE493C0E0740193C028
:10013300E0740293F59F22FF0000B400002800281A
:1001430000283075A000A000A000A000000800084F
:10015300E001F0001000100010001000100010006B
:1001630050005000500010001000D00700000000A5
:1001730000000F00010005003075070010000100AA
:1001830081FF00000000FF7B0699068106FF020243
:100193000208025000A0000000E8030201850100EC
:1001A30000DC84021985010000060D02238501008D
:1001B30000B302021985010000070D022585010025
:1001C30000C902021985010000080D022B850100F8
:1001D30000CB02021985010000090D022D850800DC
:1001E30000CC020219850100000A0D022F850100CF
:1001F300000B0DFF0100FF20020185010000EE84CA
:100203000219850100006F0D023185000000000016
:1002130002218503000019034B0C4B0C4B0C4B0CB8
:100223004B0C4B0C4B0C4B0C4B0C4B0C4B0C4B0C13
:100233004B0CCD0EE50EC70EFFFF4902000304125F
:1002430064020185010000E284021985010000B700
:100253000D020B85010000B80D0221850300006724
:1002630007020202020202020202010D0000001054
:1002730001020185010000E884021985010000D90B
:100283000D0205850100006D07021985010000DAE2
:100293000D0203850100004083021985010000DB84
:1002A3000D021B850100001783021985010000DC84
:1002B3000D02FF840100002382021985010000DD85
:1002C3000D02FD840100001182021985010000DE88
:1002D3000D02FB840100003582021985010000DF55
:1002E3000D02F984010000FF81021985010000E07D
:1002F3000D02F7840100002583021985010000E146
:100303000D02F584010000E20D01E803053F100A28
:10031300FF0012020185010000E584021985010036
:10032300008A0E020F85010000290A0221850300BD
:10033300002A0A01307503020106000000000000D4
:1003430000000000000000000000000000000000AA
:10035300000000000000FFFF0600800CE80300011E
:100363000000010909546570486561744105121460
:10037300001400020A000201050302F0FF54657035
:1003830048656174410000000000000000000000A7
:100393000000891300008F130A436861726163745C
:1003A3006572697374696320310002436861726125
:1003B3006374657269737469632032001A436861F8
:1003C30072616374657269737469632033001043E7
:1003D3006861726163746572697374696320340060
:1003E300024368617261637465726973746963203F
:1003F3003500020185010000DF8402198501000038
:10040300100F0237850300007A0C021F85010000DC
:10041300110F021985010000220F02398501000026
:100423008E0C021F85010000230F021985010000B5
:10043300340F023B850300008F0C021F850100006F
:10044300350F021985010000460F021D85000000CB
:10045300A30C022185030000A40C021F85010000E8
:10046300470F021985010000580F02178504000089
:10047300AA0C021F85010000590F120125BAA90316
:10048300120125D1A90312012502AA031201253D58
:10049300AA0312012567AA0312012591AA031201D7
:1004A30025A8AA03120125BFAA03120125D6AA0370
:1004B300120125FFAA0312012512AB0312012528FD
:1004C300AB031201253BAB0312012562AB031201FF
:1004D30025E9C002120125EDC10212012525C20240
:1004E30012012548C20212012553C20212012576C8
:1004F300C20212012585C3021201255AC402120148
:1005030025D5C4021201255DC50212012598C50235
:10051300120125CFC5021201255DC602120125363F
:10052300C70212012596C702120125A1C7021201B3
:100533002520C80212012523C80212012526C8025C
:10054300120125B5C802120125B8C802120125E817
:10055300C80212012512C90212012500CA021201A2
:1005630025B2CA02120125EBF70212012513F80284
:1005730012012541F80212012578F802120125D64D
:10058300F80212012521F9021201256CF902120168
:1005930025ACF902120125F2F90212012520FA0213
:1005A300120125DDFA02120125E7FA02120125F4F0
:1005B300FA0212012527FB02120125F3FB021201A5
:1005C30025FFFB0212012517FC0212012521FC0263
:1005D300120125D9B503120125E7B503120125FF41
:1005E300B50312012517B603120125D7CF01120156
:1005F3002583D001120125FED0011201251FD2014E
:100603001201255BD20112012504D301120125EB4E
:10061300D3011201254FD501120125A6D5011201DF
:100623002527D60112012517D70112012564D70109
:10063300120125EAD7011201251CD8011201253028
:10064300DA0112012572DA0112012590DA01120191
:100653002513DB01120125E7DB01120125AFDC01C4
:10066300120125A1EB0212012574EC021201251DD2
:10067300ED0212012570ED0212012520EE02120196
:1006830025ACEE0212012598EF02120125C7EF02F5
:10069300120125DAF00212012522F102120125F7D7
:1006A300F10212012533F2021201254FF202120167
:1006B300254DB903120125ED900312012503910382
:1006C3001201252991031201254592031201254F99
:1006D30092031201258493031201257C94031201D2
:1006E30025C4F202120125F4F30212012527F402B4
:1006F30012012571F40212012538F602120125C2F6
:100703006E001201252C6F001201258B700012015F
:10071300259B7000120125C870001201251F71006E
:10072300120125C87100120125CF7200120125990B
:100733007300120125F974001201253C75001201A2
:1007430025E175001201252E76001201255476004D
:100753001201256278001201256778001201256CC9
:100763007A00120125B97A001201252C7B001201AF
:10077300255F7B00120125017C00120125AA7C0064
:10078300120125E27C00120125E57C001201252DD2
:100793007D001201256D7D00120125C47D0012012B
:1007A30025D69D03120125EE9D03120125369E03D6
:1007B3001201254C9E03120125939E03120125A7C6
:1007C3009F0312012534A0031201257FA003120108
:1007D30025F02600120125FC2600120125372700EB
:1007E3001201257C27001201253C2800120125C295
:1007F300280012012527290012012553290012017F
:10080300258C2900120125CA2B00120125AE2D00CB
:10081300120125942F00120125D73000120125253E
:1008230033001201253734001201258235001201ED
:1008330025923600120125AF3600120125EA360053
:100843001201250C37001201256F370012012530E4
:100853003C00120125C53C00120125163D00120182
:10086300253D3D001201258F3D00120125AD3D00C0
:10087300120125073E00120125F03E0012012566F4
:100883004000120125EA40001201250080031201F5
:10089300250A80031201254D800312012568800378
:1008A300120125F880031201252081031201255D21
:1008B3008103120125948103120125BD81031201D5
:1008C300253282031201254782031201255C82032C
:1008D3001201258D8203120125A18203120125C66F
:1008E30082031201250083031201252C83031201C5
:1008F30025648303120125E383031201252C84035A
:10090300120125568403120125818403120125B1A6
:100913007E00120125E8A80212012516A902120180
:100923002564AA0212012544AB0212012563AB021E
:10093300120125E0AB0212012523AC021201257935
:10094300AD021201253AAE02120125C1B002120115
:100953002562B10212012558B20212012555B302D4
:10096300120125AFB4021201253AB50212012599ED
:10097300B10312012502B20312012556B20312017B
:10098300257DB203120125AEB20312012563FB01DB
:10099300120125D0FB0112012517FC011201252F9D
:1009A300FD011201252BFE011201250EFF0112018B
:1009B3002523CB0212012565CB0212012537CC0278
:1009C30012012510CD021201250ACE02120125ECD7
:1009D300CE0212012555CF021201250BD0021201BE
:1009E300257FD002120125EBD00212012514D1027A
:1009F3001201258ED10212012527D2021201258C64
:100A0300D202120125A1D202120125E7D20212015C
:100A13002500D30212012565D30212012568D302F2
:100A2300120125F297031201251A98031201255882
:100A330098031201251699031201257D99031201CA
:100A430025999903120125C19903120125F19903EF
:100A5300120125009A031201257D9A03120125A391
:100A63009A0312012575C00112012553C201120117
:100A73002585C401120125C1C401120125EEC4015B
:100A8300120125D8C50112012523C6011201256EC5
:100A9300C60112012580C601120125C0C60112013B
:100AA30025F5C60112012543C70112012572C701AD
:100AB30012012595C701120125E2C701120125671D
:100AC300C80112012581CA01120125C0CC011201FE
:100AD3002501CD01120125A3CE01120125E4CE018A
:100AE30012012557CF01120125ADCF01120125D3E4
:100AF3009B02120125D19C021201256AA302120155
:100B0300258BA50212012556A702120125BEA802B4
:100B13001201255141001201250042001201254610
:100B230042001201258643001201251C45001201D3
:100B330025964500120125B145001201252C4600DA
:100B4300120125864700120125E64800120125EC13
:100B530049001201254D4B00120125664B0012017D
:100B630025C44B00120125B24C00120125E54C00AF
:100B7300120125554D00120125CF4D0012012519F3
:100B83004E00120125E34E00120125B84F00120159
:100B93002597500012012522510012012590510082
:100BA3001201250452001201252F5200120125EED5
:100BB30052001201255354001201257054001201F2
:100BC300258F5400120125805500120125A55500DB
:100BD300120125CF55001201254A5600120125A402
:100BE30056001201250D5800120125BB58001201B1
:100BF30025FC5800120125FF8D021201254D8E029E
:100C0300120125598E02120125378F021201256820
:100C13008F02120125998F021201251990021201E8
:100C230025519002120125A39002120125E09002A2
:100C3300120125FD92021201252395021201250EB0
:100C43009702120125F89802120125FCFF011201F7
:100C530025509A01120125809A0112012559A101FB
:100C6300120125DEA201120125DBA801120125C311
:100C7300A90112012500AA0112012523AA011201CB
:100C83002554AA011201255DAA0112012567AA01B3
:100C930012012555AB011201254BAC01120125416F
:100CA300850112012540890112012546890112019E
:100CB300258190011201259A9501120125A8FC02B4
:100CC300120125A2FD0212012516FE02120125546E
:100CD300FE02120125C8FE0212012541FF02120184
:100CE300254AFF0212012556FF021201256BFF025E
:100CF300120125A9FF02120125BFFF02120125A936
:100D03008403120125B68403120125D08403120142
:100D1300250F85031201254D8503120125B2850395
:100D2300120125C78503120125D28503120125DF90
:100D33008503120125F6850312012504860312019A
:100D4300250F86031201251B86031201252A86031C
:100D5300120125358603120125588603120125FF4A
:100D630086031201250F8703120125298703120128
:100D7300254687031201256287031201258787030E
:100D8300120125928703120125A78703120125BBB0
:100D930087031201251C88031201252288031201EF
:100DA300252888031201252E88031201254688036E
:100DB30012012579880312012539ED01120125BDA0
:100DC300ED011201256CEE01120125CBEF01120199
:100DD30025ECF101120125D8F2011201250DF301D1
:100DE3001201252FF301120125DEF301120125D68D
:100DF300F501120125FFF50112012591F6011201FA
:100E030025C3F601120125D0F60112012527F701AA
:100E13001201254DF701120125BAF901120125BD71
:100E2300FA0112012515FB01120125C8DE01120189
:100E330025D2DF01120125B9E001120125C3E0012A
:100E4300120125E5E001120125F1E0011201258AD5
:100E5300E201120125B9E201120125D5E3011201D4
:100E6300252EE40112012594E50112012573E60103
:100E7300120125CFE6011201253CE7011201257776
:100E8300E701120125B6E7011201256FEA011201FC
:100E93002589EA0112012515EB0112012523EB0136
:100EA3001201257CEB011201258AEB01120125FDBC
:100EB300EB0112012561EC01120125ABEC011201DA
:100EC30025BBB502120125DDB50212012503B802C7
:100ED30012012518BB0212012530BC02120125E3C1
:100EE300BC02120125C5BD0212012574AB03120118
:100EF3002599AB031201250BAC0312012527E4024C
:100F030012012530E40212012539E40212012510F1
:100F1300E502120125C1E602120125F7E6021201DC
:100F23002531E70212012567E702120125A1E70235
:100F3300120125D5E70212012501E8021201254A13
:100F4300E80212012584E802120125CDE80212010C
:100F53002525E9021201255AE902120125B5E90204
:100F6300120125EFE90212012540EA02120125765A
:100F7300EA02120125B0EA02120125DEEA02120199
:100F83002501EB0212012571B7031201259DB70359
:100F9300120125F8B70312012502B8031201251225
:100FA300B8031201258CD30212012596D302120134
:100FB30025D4D3021201251DD40212012557D402D0
:100FC300120125B1D402120125D2D402120125AA9D
:100FD300D702120125B3D70212012500D80212014C
:100FE3002529D80212012533D8021201259FD802E0
:100FF30012012531D9021201257BD902120125B133
:10100300D9021201253DDA021201257EDA0212010C
:1010130025B5DA02120125C7DA02120125E6DA0242
:10102300120125EFDA02120125B7DB02120125F8BE
:10103300B303120125C9A703120125FFA703120158
:101043002535A80312012580A903120125D1B9036F
:10105300120125E7B903120125F1B9031201253B5A
:10106300BA03120125F688031201250B8903120125
:1010730025BE8903120125FE8903120125178A0360
:10108300120125528A031201259F8A03120125D1D9
:101093008A03120125138B03120125BBAE03120130
:1010A30025E4AE0312012513AF03120125ABAF03F1
:1010B300120125EDAF03120125EB9A03120125F965
:1010C3009A031201256A9B031201252E9D03120127
:1010D300254C9D03120125BAA503120125EAA50398
:1010E3001201255AA603120125FAA603120125A906
:1010F300A003120125CEA003120125F8A0031201BB
:10110300259ABA031201252C5900120125915B007F
:10111300120125325D00120125E65D0012012579D9
:101123005E00120125FE5E00120125235F001201FD
:1011330025796200120125FF620012012532640045
:101143001201256C6400120125A1640012012561BE
:101153006600120125BE6600120125076700120111
:1011630025726700120125E3670012012515680047
:101173001201252D680012012576690012012586CA
:101183006900120125A16A00120125C36A00120138
:1011930025F96A00120125AD6C001201253A6D0094
:1011A300120125796D001201259D6E00120125B0F3
:1011B300B603120125C1B60312012566B703120156
:1011C3002543BB0312012582BB03120125D2BB03B6
:1011D300120125B8B803120125C8B803120125DD91
:1011E300B80312012543B903120125F4B203120116
:1011F3002579B303120125DFB303120125EFB403ED
:1012030012012510B50312012564B503120125AEA1
:10121300B503120125EFFF02120125869403120183
:1012230025169503120125A295031201253B96036A
:10123300120125CC9603120125D5960312012553DD
:1012430097031201256697031201257C9703120168
:1012530025DC9703120125EF970312012546B003FE
:101263001201255BB00312012570B0031201257929
:10127300B0031201258BB003120125CBB003120179
:1012830025F9B00312012544B10312012596B103D8
:1012930012012519AD031201256BAD03120125F5CA
:1012A300AD031201255CAE0312012575A3031201E0
:1012B300259FA3031201256DA40312012548A5034D
:1012C300120125E5DB02120125ACDC02120125E344
:1012D300DC021201250DDD021201256DDD02120172
:1012E30025C3DD0212012528DE02120125C0DE021C
:1012F300120125CFDF0212012566E102120125F357
:10130300E1021201255AE20212012571E2021201E1
:10131300258BE302120125C9E3021201251CB80340
:101323001201254CB80312012551B80312012500FF
:10133300800212012581830212012509850212010F
:10134300256085021201257F8502120125FD850294
:10135300120125938702120125788802120125863E
:101363008C021201255C8D0212012563AE0112016C
:101373002578AE0112012582AE011201254CB1017F
:10138300120125A7B101120125BFBD01120125E6F6
:10139300BE011201251E8D03120125638D03120167
:1013A30025808D03120125458E03120125AE8E0380
:1013B3001201257B8F03120125B49003120125D05E
:1013C300FF01120125CA7F001201258CBB03120104
:1013D30025B4BB03E066701008A3E066700A08A397
:1013E300E066700408A3E06622C3E7960809E7965F
:1013F3000809E7960809E79622C3E09608A3E09652
:1014030008A3E09608A3E09622C008C3E096F50877
:1014130008A3E096420808A3E096420808A3E096D2
:1014230045087001D3D00822080808EAC0E0EBC0E1
:10143300E086F0E7A4FA180986F0E7A42AFA180967
:1014430086F0E7A42AFA180986F0E7A42AFA19868F
:10145300F0E7A4FBE5F02AFA190886F0E7A42BFBD2
:10146300E5F03AFA190886F0E7A42BFBE5F03AFA1F
:1014730018180986F0E7A4C5F02BFBE43AFA19081B
:10148300E7C5F0C6A426F6E5F03BFBE43AFA188676
:10149300F0E7A4F6E5F00826F6E43B08F6E43A089C
:1014A300F6D0E0FBD0E0FA22E4CFC0E0E4CEC0E027
:1014B300E4CDC0E0E4CCC0E075F020C3E633F60829
:1014C300E633F608E633F608E633F6181818EC3375
:1014D300FCED33FDEE33FEEF33FFC3EC9709ED97DD
:1014E30009EE9709EF97191919400FFFEC97FC09BB
:1014F300ED97FD09EE97FE191906D5F0BEECF70935
:10150300EDF709EEF709EFF7191919D0E0FCD0E070
:10151300FDD0E0FED0E0FF226016080808C6C31322
:10152300C618C613C618C613C618C613C6D5E0EA2E
:10153300227009080808226016181818C6C333C693
:1015430008C633C608C633C608C633C6D5E0EA2282
:10155300E627F60809E637F60809E637F60809E646
:1015630037F622E026F608A3E036F608A3E036F6BF
:1015730008A3E036F622E026F008A3E036F008A33D
:10158300E036F008A3E036F022C3E697F60809E652
:1015930097F60809E697F60809E697F622C3E09658
:1015A300F008A3E096F008A3E096F008A3E096F015
:1015B30022E657F60809E657F60809E657F608093A
:1015C300E657F622E056F608A3E056F608A3E056DF
:1015D300F608A3E056F622E056F008A3E056F0081A
:1015E300A3E056F008A3E056F022E0F608A3E0F6E5
:1015F30008A3E0F608A3E0F622E6F008A3E6F00865
:10160300A3E6F008A3E6F022E0FAA3E0FBA3E0FCE4
:10161300A3E0FD22EAF0A3EBF0A3ECF0A3EDF022AC
:10162300CAC0E0E6F0A308DAFAD0E0FA22CAC0E0C2
:10163300E0A3C582CCC582C583CDC583F0A3C58293
:10164300CCC582C583CDC583DAE6D0E0CA22C3E424
:1016530098F8E499F91216928026C3E49AFAE49B67
:10166300FBE920E7E9121692E498F8E499F922C31A
:10167300E498F8E499F9121692E498F8E499F9C316
:10168300E49AFAE49BFB22EB20E7CFE920E7E0B9F9
:101693000010BB0008E88AF084F8AAF022E4FBC833
:1016A300FA22EB70227B10C833C8C933C933500701
:1016B300C39AC3DBF280069A50012ADBEAC833F4EB
:1016C300C8C933F4C9FA2275F008E4C833C8C9336A
:1016D300C933C99AC99B5004C92AC93BD5F0ECFB4D
:1016E300C833F4C8E4C9FA22600D08C6A2E713C6DA
:1016F30018C613C6D5E0F322600C08C6C313C61878
:10170300C613C6D5E0F422700422600D18C6C33395
:10171300C608C633C6D5E0F41822251810AF08F55D
:1017230018400215198008F51840021519D2AF2286
:10173300C0D0251810AF08F518500205198008F518
:101743001850020519D2AFD0D0222518F58210AF58
:1017530008F518400215198008F51840021519D22A
:10176300AF85198322C5822518C582C58335191013
:10177300AF07F5198582188007F519858218D2AF4E
:10178300C583222518F582E43519F58322E47325F0
:1017930018C582C0E0E51934FFC583C0E0E518C36E
:1017A300958224F810AF08858319858218800885EF
:1017B3008319858218D2AFCEF0A3E520F0A3780871
:1017C300E608F0A3DEFAEFF0A3E58124FAF8E608D1
:1017D300F0A3E608F0A3E608F0A30808E608F0A3E0
:1017E300E608F0A315811581D0E0FED0E0F815815D
:1017F30015811581E8C0E0EEC0E0222518C582C03E
:10180300E0E51934FFC583C0E0E518C3958224F9E8
:1018130010AF08858319858218800885831985820E
:1018230018D2AFCEF0A3E520F0A37808E608F0A322
:10183300DEFAEFF0A3E58124FBF8E608F0A3E6085F
:10184300F0A30808E608F0A3E608F0A315811581C4
:10185300D0E0FED0E0F815811581E8C0E0EEC0E0ED
:1018630022851983851882E0A3FEE0A3F52078087A
:10187300E0A3F608DFFAE0A3FFE0A3C0E0E0A3C023
:10188300E0E0A3C0E0E0A3C0E0E0A3C0E010AF0845
:101893008582188583198008858218858319D2AFBC
:1018A300D083D082020122851983851882E0A3FEAA
:1018B300E0A3F5207808E0A3F608DFFAE0A3FFE051
:1018C300A3C0E0E0A3C0E0E0A3C0E0E0A3C0E01059
:1018D300AF08858218858319800885821885831946
:1018E300D2AFD083D08222C0D02518C582C0E0E514
:1018F3001934FFC583C0E0E518C3958224F310AF04
:10190300088583198582188008858319858218D2F2
:10191300AFC8F0A3E9F0A3EAF0A3EBF0A37908E7DB
:1019230009F0A3D8FAECF0A3EDF0A3EEF0A3EFF0E7
:10193300A3D0E0F0A3D0E0F0A3D0E0F0A3E520F043
:10194300A3E5F0F0A322851983851882E0C0E0A304
:10195300E0F9A3E0FAA3E0FBA37808E0F608A3DF2D
:10196300FAE0FCA3E0FDA3E0FEA3E0FFA3E0C0E0F8
:10197300A3E0C0E0A3E0F5D0A3E0F520A3E0A3F546
:10198300F010AF088583198582188008858319852F
:101993008218D2AFD082D083D0E0F8D0E032740482
:1019A3008006740280027401C0E0F40412174DD063
:1019B300E0121623227404800474028000CCC0E079
:1019C300EDC0E0E518C39CCCAD1950011D10AF0666
:1019D3008C188D1980068C188D19D2AF121630D041
:1019E300E0FDD0E0FC22D083D082E9C0E0E493A301
:1019F300C386F0C5F095F0F908E493A386F0C5F02B
:101A030095F0700BE493A3C3994005E9048002A306
:101A1300E475F002A42582F582E5F03583F583D0E1
:101A2300E0F9E493A3C0E0E493C0E022D083D08242
:101A3300ECC0E0EDC0E0E493A3FCE493A3FDED4C24
:101A4300600D121A7BEC24FFFCED34FFFD80EFE404
:101A530093A3FCE493A3FDED4C600D121ABAEC249E
:101A6300FFFCED34FFFD80EFD0E0FDD0E0FCE4931C
:101A7300A3C0E0E493C0E022C0E0C3E493960874FB
:101A830001939618400FE4936670080874019366F7
:101A93001870007019A3A3C3E49396087401939676
:101AA30018A3A3400DD0E0D0E0D0E0021A6BA3A3AB
:101AB300A3A3A3A3D0E022C0E0C0F088F0E4936620
:101AC30070080874019366187000A8F0A3A3700B44
:101AD300D0F0D0E0D0E0D0E0021A6BA3A3D0F0D0D6
:021AE300E022FF
:101AE80074F51217FEEAFEEBFFEE2434F8EF34002B
:101AF800F988088909EE2435F582EF3400F583E08A
:101B0800F8EE2437F582EF3400F583E0F50AEC852A
:101B18000AF0A4FCAAF0850AF0EDA42AFDE82CF846
:101B2800E43DF97A257B00121692EA850882850938
:101B380083F0F8740758F97401B900028004C333BC
:101B4800D9FCFAE8131313541FF8EE28F8EF340001
:101B5800F9E8245DF582E93400F583E05A6008EE7F
:101B68002434F582EF802CEE2434F582EF3400F52E
:101B780083E0C0E0EE2436F582EF3400F583E0F52B
:101B8800F0D0E084A8F0EE28F8EF3400F9E8243823
:101B9800F582E93400F583E0F97F040218AA74F5A8
:101BA8001217FEEAFEEBFFEE2434F582EF3400F55F
:101BB80083E0C0E0EE2435F582EF3400F583D0E011
:101BC800F08E828F83A3A3A3A3A3A3A3C082C08301
:101BD8008E828F83A3A3A3A3A3E0F8A3E0F9D08305
:101BE800D082E0C398F508A3E099F509EE247FF5C3
:101BF80082EF3400F583E064017069EE2480F58299
:101C0800EF3400F583E0F8A3E0F98E828F83A3A375
:101C1800A3A3A3A3A3E0FCA3E0FD8E828F83A3A3C9
:101C2800A3A3A3E0FAA3E0FBC3EA9CEB9D5010C377
:101C3800EC98ED99402EC3EA98EB995027800EC393
:101C4800EA98EB994007C3EC98ED9940177CDC7D46
:101C580004EEFAEFFB120BA9EE247FF582EF3400B5
:101C6800F583E4F0EE2434F8EF3400F9E8FCE9FDFC
:101C7800EE2435F582EF3400F583E0F8EE2437F5ED
:101C880082EF3400F583E0F50AE508850AF0A4F54B
:101C980008AAF0850AF0E509A42AF509E82508F854
:101CA800E43509F97A257B00121692EA8C828D8335
:101CB800F0F8740758F97401B900028004C333D9E5
:101CC800FCFAE8131313541FF8EE28F8EF3400F960
:101CD800E8245DF582E93400F583E05A6008EE24D3
:101CE80034F582EF802CEE2434F582EF3400F5834E
:101CF800E0C0E0EE2436F582EF3400F583E0F5F03D
:101D0800D0E084A8F0EE28F8EF3400F9E82438F59C
:101D180082E93400F583E0F91225FD021BA1C08297
:101D2800C083851882851983E0F8A3E0F9C3EA9C8B
:101D3800EB9D5010C3EC98ED99401BC3EA98EB99C2
:101D48005014800EC3EA98EB994007C3EC98ED99BC
:101D58004004790180027900D083D08222EAC39CB2
:101D6800FAEB9DFB2274EF1217FE9003A2E06408C1
:101D78006005E06407702A9061C8E060249003D091
:101D8800E0F4601DE0F875F003A4C8AAF02AF9741D
:101D9800D228FE740339FF8E828F83A3A3A3E07039
:101DA80003021E9D906060E0C0E0EE2468F582EFBB
:101DB8003400F583D0E0F0750C45750D0575080005
:101DC800750900E5D914F50AE5D95403F50E60172D
:101DD8007403650E605CE50A6010EE2467F582EF17
:101DE8003400F583E07003021E82900540E0640130
:101DF800602AEE2482F582EF3400F583E0600478EF
:101E08000480027800850A08E508C398FA95E0FB83
:101E1800120A778A088B09EA45097005120D9B801A
:101E280074EE2482F582EF3400F583E070048A0CA6
:101E38008B0DE50A6012850C82850D83F50BE5D9BB
:101E4800F0A3150BE50B70F6EE2482F582EF340053
:101E5800F583E0604474FC250AF50A780C1219A58C
:101E6800AC0AA90EEEFAEFFB120C457402121733F6
:101E7800E97026AA08AB09121299793D8E828F83E0
:101E8800A3A3A3A3E0FA7B0012094BEEFAEFFB121F
:101E98000BC1120C57790080747403650E60568567
:101EA8000A1075110078101219A5AC0CAD0DAA080E
:101EB800AB09120C217402121733EE2468F582EF75
:101EC8003400F583E064807004747F8001E0F50CD1
:101ED800780C1219A9E50EF50C780C1219A9A90AA3
:101EE800AC08AD099003D0E0FA7B0012090F740228
:101EF80012173380139003A2E06408600BAC0CAD9A
:101F08000DEEFAEFFB120CB1120DA779017F0A0250
:101F180018AA74F51217FE74FC12171DEAFEEBFFDF
:101F28008908A2AFE433F509C2AF806AEE2463F8EA
:101F3800EF3400F97A007B00A2AFE433F50AC2AFB0
:101F480088828983E0FCA3E0FDEC4D603A888289B1
:101F580083E0FAA3E0FB8A828B83E0FCA3E0FD88A0
:101F6800828983ECF0A3EDF08A828B83E4F0A3F0FE
:101F780088828983E0FCA3E0FDEC4D700A888289A1
:101F880083A3A3E4F0A3F0E50AA2E092AF121299AA
:101F98009004E3E004F0EE2463F582EF3400F58367
:101FA800E0F8A3E0F9E849603DEE2463F582EF34F8
:101FB80000F583E02402FAA3E03400FBEA2402F5EA
:101FC8000AEB3400F50B780A1219A58A828B83E094
:101FD800FCA3E0F9EEFAEFFB120BE57402121733DB
:101FE800E97003021F349004E3E060639004E4E0C6
:101FF800F89004E3E0C398500C74026508705090A0
:1020080004E5E0604A8E828F83A3A3A3A3E085182A
:1020180082851983F0A3E4F09004E3E0F8740212D7
:102028001786E8F0A3E4F09004E3E0F89004E2E017
:1020380028F07402121786AC82AD83851882851940
:1020480083AA82AB83790112091B9004E3E4F0E5CB
:1020580009A2E092AF7404121733021BA10000001A
:102068008521878522C622C0E0C0D0E8C0E0E9C04B
:10207800E0EAC0E0EBC0E0ECC0E0EDC0E0EEC0E0BC
:10208800C008C009C00AC00BC082C083C0F0A2AF9C
:10209800E433FEC2AF759B00906182E0A2E050126B
:1020A800E591A2E0500C7591FE7401652170031250
:1020B8001D6DE0A2E55051E591A2E5504B7591DF09
:1020C8009003A2E064076005E0640870237401656A
:1020D80021703579019003D0E0FA75F003A4CAA8FD
:1020E800F028FB74D22AFA74033BFB121F1A8018DB
:1020F800E0640D70139003C4E004F064287002E4F7
:10210800F07A00E0F9120DAD906182E0A2E640039A
:102118000221B6E591A2E640030221B67591BF906F
:1021280003A2E064057008120CDB120CE7800312AE
:102138000CE1752100120D3BE99003A3F079001220
:102148000D2F120B1F7A017B009003A1E0F91210EA
:1021580005907803E064427055900544E014F070EF
:102168004DC2AF12216E00782AD0E0F618D0E0F602
:10217800E59F540770057509FF800375097FC4C082
:10218800E07829E6F50808E65509F509740B78089A
:102198001216FBD0E02508F8906270E0A2E740F83C
:1021A800E8C333906272F0906270E0D2E0F0906120
:1021B80081E0A2E35009E5E9A2E3500375E9F7A33A
:1021C800E0A2E75009E591A2E7500375917FEEA2DE
:1021D800E092AFD0F0D083D082D00BD00AD009D013
:1021E80008D0E0FED0E0FDD0E0FCD0E0FBD0E0FA83
:1021F800D0E0F9D0E0F8D0D0D0E032C0E0C0D0C014
:1022080082C083906183E0A2E05009E5BFA2E0505C
:102218000375BFFEE0A2E15009E5BFA2E1500375D6
:10222800BFFDE0A2E25009E5BFA2E2500375BFFB83
:10223800E0A2E35009E5BFA2E3500375BFF7E0A2AF
:10224800E45009E5BFA2E4500375BFEFE0A2E550F2
:1022580009E5BFA2E5500375BFDFE0A2E65009E536
:10226800BFA2E6500375BFBFD083D0828088C0E08C
:10227800C0D0E8C0E0E9C0E0EAC0E0EBC0E0ECC0F4
:10228800E0EDC0E0C0F0E5A7A2E6500FE5A1A2E6A8
:10229800500953A7BF75A1BF1222DBE5A7A2E550DD
:1022A8000CE5A1A2E5500653A7DF75A1DFE5A7A2BB
:1022B800E15009E5A1A2E1500375A1FDE5A7A2E25D
:1022C800500CE5A1A2E2500653A7FB75A1FBD0F084
:1022D8000221EC74F81217FE7521019003A2E06444
:1022E800067015120C758A828B83A3A3A3A3A3A3DC
:1022F800E0FAA3E0FB120CC9A2AFE433FED2AF9020
:1023080003A8E0640170187A207B009003A1E0F92B
:102318001210897A207B009003A1E0F912100B902B
:102328006182E0D2E6F0900541E0602185C6228016
:10233800169003A7E064017008E5C654F84405F553
:10234800C653BEFC1220687401652160E4EEA2E069
:1023580092AF7F010218AA008E238F2485822885D8
:102368008327851882851983E0CEA3E0CF8528824C
:10237800852783EBC9EAC8EDCBECCA75F010C3E832
:1023880033C8E933C9EA33CAEB33CBC3EA9EF5262F
:10239800EB9FF525B35004AB25AA26EC33CCED33DF
:1023A800CDD5F0DAAE23AF242274ED1217FE8A08D9
:1023B8008B098C0A8D0B7413121786780C1215ED85
:1023C8007808790C1213EC7510017511C875120094
:1023D80075130050127808790C12158C781079084A
:1023E8001213EC50168010780C790812158C78109E
:1023F800790C1213EC40047901800279007F0C02F9
:1024080018AA74ED1217FE8A088B098C0A8D0B74B2
:1024180013121786780C1215ED780C79081213EC44
:1024280040117808790C12158CAA08AB09AC0AADD2
:102438000B80227510007511007512007513017854
:1024480010790C12158C78107908121553AA10AB54
:1024580011AC12AD1380A68A828B837508FF7509AB
:10246800FF750AFF750B0078081215DA7F04021849
:10247800AA74F51217FE8C828D8378081215ED8ADE
:10248800828B8378081215A0EA2404F8EB3400F94B
:102498008C828D83A3A3A3A3E0FCA3E0FD8882899B
:1024A80083C3E09CF0A3E09DF088828983C3E09415
:1024B80020A3E0944E40268A828B837508FF750915
:1024C800FF750AFF750BFF78081215798A828B83CE
:1024D800A3A3A3A3E02420F0A3E0344EF002245FDA
:1024E80074F51217FEE9FE9004F7E0FAA3E0FBEE9C
:1024F800C333F8E433F974AB28F582748239F58371
:10250800E02AF508A3E03BF50978081219A57A40F6
:102518007B427C0F7D0012236074021217338A08F5
:102528008B098C0A8D0B7410780812151BAA08AB3E
:10253800097F040218AA74F11217FE8A0C8B0D8CFD
:102548000E8D0F740F121786E0FAA3E0FB741112B8
:102558001786E0F508A3E0F50978081219A5EA241A
:1025680001F508EB3400F509E4F50AF50B780C7968
:102578000812142B750871750902780C7908121461
:102588002BAA0CAB0DAC0EAD0F1223607402121700
:10259800338B09EA450960047A0180027A00EC2A43
:1025A800FCED3400FD7413121786E0F8A3E0F9E897
:1025B800FEE9FFECF8EDF97A717B021216928808B1
:1025C80089098E828F8378081215FCECF8EDF97A68
:1025D800717B021216928A088B0974057808121703
:1025E8000A8E828F83A3A3A3A3E508F0A3E509F0CD
:1025F8007F080218AAC082C083E9906000F0D083E7
:10260800D08222C2AF02000022C0E074F21218EA9F
:10261800A2AFE433FED2AFC2C0E5D1A2E450065364
:10262800D1EF121257EEA2E092AF7F01021949C012
:10263800E074F21218EAA2AFE433FED2AFE589A241
:10264800E0500312120F758900C2C5EEA2E092AFE6
:102658007F01021949C0E0C0D0E8C0E0E9C0E0E568
:10266800A8D2AFC2C7A2E7A2E792AFD0E0F9D0E004
:10267800F8D0D0D0E032C0E0C0D0E8C0E0E9C0E097
:10268800C008C009C082C083A2AFE433F9D2AF90BA
:1026980009E1E0F8A3E0687008539AFBA37401808D
:1026A80026C2E99009E1E0F50874012508F0746193
:1026B8002508F58274093400F583E0F5C19009E135
:1026C800E0C394804002E4F0E9A2E092AFD083D066
:1026D80082D009D008D0E0F9D0E0F8D0D0D0E032EC
:1026E800FFFFFFFFFFFFFFFFC082C083E9900D6E71
:1026F800F002297F74F7121792E99002E1F07C1931
:102708007D037AFF7BFF1208619002E274FFF0A359
:10271800F0A3E4F0A3F079051207E99002E1E0F9EB
:1027280012070B7A7F7B08120A297F01021864744A
:10273800F41217928A088B09EB548060309002E1FA
:10274800E0F9120FED8A0A8B0BAE0AAF0BEE4F6061
:10275800138E828F83E064B07003120801EEFAEFE3
:10276800FB120FDBAA08E5096480FB80047A007B72
:102778000002294E74F212179274FC12171DEAFE19
:10278800EBFFEE4F60387402121786EEF0A3EF12DB
:102798002BB3ECF0A3ED122BB3AA82AB831207057F
:1027A800E9F50870737412121786123767E50A453F
:1027B8000B60658E828F8312282AEE4F700575088C
:1027C8000280557A067B001210418A0C8B0DA80CEA
:1027D800A90DE8497005750813803D88828983E44E
:1027E800122834A3A3EEF0A3EF123C00E50AF0A3ED
:1027F800E50BF09002E71228BC9002E76017E0FCB6
:10280800A3E08003EAFCEBFD8C828D831228BC7068
:10281800F38C828D8312368CA90874041217330244
:102828003E02A3A3A3A3E0FEA3E0FF22F0A3F08847
:102838008289832274F2121792890AE975F017A423
:10284800FEAFF09002E6E4F09002E41228BC600AC1
:102858001210479002E4E4F0A3F0EEFAEFFB121036
:10286800418A088B09EA4509602FEEFCEFFD7900E3
:10287800120FC39002E4E508F0A3E509F07B00809D
:10288800081228A6E4F0A3F00BEBC3950A40F2E582
:102898000A9002E6F0790080027913023E02EB7595
:1028A800F017A4F8A9F09002E4E028FAA3E0398A26
:1028B80082F58322123422EA4B2274F4121792759D
:1028C8000800750900740C121786123BD4FEE9FF44
:1028D800800CE5082401F508E5093400F509C3E58D
:1028E800089CE5099D503285080A85090B74037810
:1028F8000A12170AEA250AF8EB350BF98882898348
:10290800A3A3A3A3A3A3123767EE650A7003EF6519
:102918000B70BFE8FAE9FB80047A007B008027741B
:10292800F41217927900EAA2E0501B75088775091E
:102938008478081219A57C047D007A707B0D120733
:10294800E374021217337F04021864C082C08390B4
:1029580002E7122986601C88828983A3A3E06A7033
:1029680003A3E06B8882898370E8A3A3A3A312342E
:102978001E80047A007B00D083D082020122123E9E
:10298800D5E8492274EE12179274FC12171DEAFE5C
:10299800EBFF851882851983E4F0A3F0EE24021278
:1029A8003670EE2405122BA1EE2404F50EEF122F3B
:1029B80086E024FE603924FC604624FE605224FE32
:1029C800605E24FE7003022AA624FE7003022B1EFA
:1029D80024FE7003022B2D24FE7003022B3C24FCE2
:1029E8007003022B4B24FE7003022B5A022B979084
:1029F80003007417F0A3E4122BBB120483022B9775
:102A0800851882851983AC82AD83120807022B676B
:102A1800851882851983AC82AD8312080D022B6755
:102A2800850C08850D097402121786AC82AD838562
:102A3800088285098312341E1207298A0C8B0DAC73
:102A48000CAD0DEC4D6042E4F50CF50D780C121947
:102A5800A5750C00750D03780C1219A5750C017578
:102A68000D03780C1219A574081217861219BC796F
:102A7800161234181208497408121733E9F50C7045
:102A88000B12341412049B800F750C018508828583
:102A98000983122BA912368C850C08022B6A740242
:102AA800121786AC82AD83850C82850D8312341E85
:102AB8001207298A108B11AC10AD11EC4D604385BB
:102AC8000C82850D83A3A31219BC75100075110320
:102AD80078101219A575100175110378101219A52F
:102AE80074081217861219BC79161234181208497C
:102AF8007408121733E9F509700B1234141204A183
:102B0800800F750901850C82850D83122BA9123659
:102B18008C850908804C851882851983AC82AD8321
:102B2800120813803A851882851983AC82AD831206
:102B38000819802B851882851983AC82AD83120809
:102B48001F801C851882851983AC82AD83120825E5
:102B5800800D851882851983AC82AD8312082BE914
:102B6800F508E50860298E828F83A3E06414601F4E
:102B7800850E82850F83E0900300122BB3123ED19D
:102B880090030112368CE508A3122BBB12047DEECC
:102B9800FAEFFB1207A7023578F50CEF3400F50DB4
:102BA80022123ED585188285198322F085188285E0
:102BB800198322F07C007D03850A82850B831234F9
:102BC800222274EE12179274FC12171D8A0A8B0BBC
:102BD8008C0E8D0FEA2405F508EB3400F5097C15F9
:102BE8007D0079007A007B03120FC3E5082402F503
:102BF8000CE509122BA48518828519838582108516
:102C0800831178101219A5850882850983A3A3A3C7
:102C1800A31230CE1219A5E5082405F510E50934EC
:102C280000F51178101219A5850C82850D831234D0
:102C38002812072374061217338A108B11AE10AFAF
:102C480011E50A2402F50AE50B123673EE4F7003FC
:102C5800022D908017740212178612341E888289FA
:102C680083EAF0A3EBF0900300E004F0900300E0A7
:102C7800C394054003022D90E4F510F51178101265
:102C880019A57510E975110278101219A57510EAC1
:102C980075110278101219A574061217861219BC3C
:102CA8007910EEFCEFFD1234181208497408121757
:102CB80033E9705E850882850983A3A3A3A3A3A330
:102CC800A3E0F89002E9E06870481230CE1219A526
:102CD8007CEA7D02E5082408FAE5093400FB120FB6
:102CE800BD7402121733E960298E828F83A3A3A3D0
:102CF800A312341E900300E0F51074027810121726
:102D08000A74012510F58274033511F583EAF0A3DE
:102D1800EBF07402121786858210858311781012E1
:102D280019A574021217861219BC850C82850D83A9
:102D3800123EE612072F74041217338A108B11AE55
:102D480010AF11900300E0F51075110074027810AF
:102D580012170A74002510F874033511F98882894E
:102D680083A31228BC7003022C54E82403F8E93426
:102D780000F9EE4F6003022C5D8882898374FFF0AE
:102D8800A3F0900300E004F0900300E0600A12341E
:102D98001412048F7900800B850882850983123606
:102DA80083790A02357874EA12179274FE12171D95
:102DB8008C128D13EA2405F50CEB12405012282EC4
:102DC800750800750900EA2402F510EB3400F511C6
:102DD80085188285198385820A85830B780A1219DA
:102DE800A5850C82850D83A3A3A3A3122F90121986
:102DF800A5E50C2405F50AE50D123673780A1219B3
:102E0800A5850C82850D83123EE4120723740612F1
:102E180017338A0A8B0BEA450B7003022F41EA2409
:102E280004F50EEB122F8612282E8A828B83A3A319
:102E3800A3E0F985108285118312341E120711E967
:102E4800F5096003022F41E4F514F51578141219F9
:102E5800A57514E975150278141219A57514EA7583
:102E6800150278141219A574061217861219BC795E
:102E780013AC0AAD0B85108285118312341E12081B
:102E8800497408121733E9F5096003022F419002CB
:102E9800E9E0F8E5087009E02402900301F08017E2
:102EA800900301E0FCE82402FAE43400FBEA6C70C9
:102EB80001EB6003022F45850882AA821230C5946F
:102EC800141230BD5073850E82850F83E0C0E07404
:102ED800022A122F7DD0E0F00508850E82850F8327
:102EE800A3E0C0E085080A7402250A122F7DD0E00D
:102EF800F005089002E9122F901219A57CEA7D02CC
:102F080085080A7402250AFA74033400FB120FAB11
:102F180074021217339002E9E02508F50874FF6E71
:102F2800700374FF6F6012EE24010EEF3400FFE5AA
:102F380008C394145003022DD8E50860131233090E
:102F480085108285118312341E120495790080142D
:102F5800E509700375090A851282851383EEF0A3CB
:102F6800EFF0A90974021217337F0E02186485085E
:102F78000C7402250CF58274033400F583223400A6
:102F8800F50F850E82F58322123C132274EE121778
:102F98009274FE12171D8C0E8D0FEA2405F50CEBAA
:102FA800122BA4750B00900300E4F0F50AEA240242
:102FB800F508EB3400F5098049900300E0FA900227
:102FC800E9E0F81230C594171230BD400D900300A7
:102FD800E0F87416C3989002E9F01230CE1219A5E1
:102FE8007CEA7D0274012AFA74033400FB120FABE9
:102FF80074021217339002E9E0F8900300E028F019
:10300800050AE50C2416F582E50D122F81E0F8E596
:103018000AC39840030230A6900300E0C3941650F8
:103028007DE50AC333F8E433F9E50C28FEE50D39EC
:10303800FF851882851983AC82AD838E828F8312B7
:10304800341E1207298A108B11AC10AD11EC4D708B
:1030580005750B018043E4F510F51178101219A5D8
:103068007510E975110278101219A57510EA751115
:103078000278101219A574061217861219BC79164F
:1030880085088285098312341E12084974081217AC
:1030980033E9F50B7003022FC112367F80107C00D4
:1030A8007D0385088285098312341E1204A7A90BA3
:1030B800740202357AE99400C365D03322EA28F80D
:1030C800E43400F9E822E0F5107511007810227454
:1030D800EA12179274FC12171D8A0C8B0D8C128D34
:1030E80013EA2405F50AEB12367375080075090012
:1030F800E50A2402F510E50B3400F51174021217E5
:103108008685820E85830F780E1219A5850A828519
:103118000B83A3A3A3A3123BBF1219A5E50A240599
:10312800F50EE50B3400F50F780E1219A5851082FF
:103138008511831236791234181207237406121770
:10314800338A0E8B0FAE0EAF0FE50C2402F50EE599
:103158000D3400F50F80408882898374FFF00508DC
:10316800122F7674FFF005089002E9E0F50C750D52
:1031780000780C1219A57CEA7D0285080C740225DA
:103188000CFA74033400FB120FAB7402121733905D
:1031980002E9E02508F508EE4F60718E828F83A35F
:1031A800A3A3E0F9850E82850F8312341E1207113E
:1031B800E9F509EE2404122BA1E97044E4F514F5AD
:1031C8001578141219A57514E975150278141219D1
:1031D800A57514EA75150278141219A57408121742
:1031E800861219BC7911EEFCEFFD850E82850F83DE
:1031F80012341E1208497408121733E9F5096027BA
:10320800850C82850D831232FF12368CE508700317
:103218000232E5123309850E82850F8312341E129D
:1032280004AD79000232FA850882AA82EA9002E99E
:103238007009E02404900301F08022E0F890030173
:10324800E0F514E82404FCE43400FDEC6514700196
:10325800ED70C01230C594121230BD50B6850C8284
:10326800850D83E0C0E074022A122F7DD0E0F005BE
:1032780008850C82850D83A3E0C0E0122F76D0E08C
:1032880012331B85820C85830D780C1219A57404E2
:103298001217861219BC851082851183123EE61218
:1032A800072F74041217338A0C8B0DAE0CAF0D85E3
:1032B800080C7402250CF874033400F9EE4F7003FF
:1032C80002315F851882851983E0888289831233E9
:1032D8001BA3E0C0E0122F76D0E002316DE5097043
:1032E8000375090A850A82850B831232FF12368C10
:1032F800A9097404022F6E123ED5851282851383A4
:1033080022900301E0F5F0E50884900300F07C00CA
:103318007D0322F005088518828519832274EC1232
:10332800179274FE12171D8A088B098C0E8D0FEAEE
:103338002405FEEB3400FF851882851983AC82AD25
:10334800838E828F8312341E1207298A0A8B0BEE12
:103358002418122BA1EA450B70030233EF123561D2
:10336800503285188285198312341E12083D8A103E
:103378008B11EA4511606B7912AC0AAD0B85088296
:1033880085098312341E851082851183121790E9EE
:10339800F50A7058E4F50AF50B780A1219A58E8219
:1033A8008F83A3A3E0F50A780A1219A5EE24031265
:1033B8003670780A1219A58E828F83123428120863
:1033C8004F7406121733E9F50A7021850C82850DB2
:1033D80083E0701F85088285098312341E1204B3A6
:1033E8008011750A0E8009750A018004E50A6003D8
:1033F80012367F850C82850D83E060047900800297
:10340800A90A74021217337F0C0218647C007D032A
:10341800850A82850B8312342222E0FAA3E0FB227C
:10342800E0FCA3E0FD85088285098312342222741A
:10343800EE12179274FE12171D8A088B098C0C8DD8
:103448000DEA2405FEEB3400FF750E008518828511
:103458001983AC82AD838E828F8312341E120729A2
:103468008A0A8B0BEA450B700302354D1235615001
:103478003585188285198312341E12083D8A0E8BF1
:103488000FEA450F605E7912AC0AAD0B850882859C
:10349800098312341E850E82850F83121790E9F571
:1034A8000E6003023550850882850983123767AAA2
:1034B8000AFB1208318A108B11A810A911E849706B
:1034C8001E7AFF7BFF1208318A108B11A810A911F0
:1034D800E849606C88828983E50AF0A3E50BF075FA
:1034E8000A008007750E0E805F050A9002E6E0FA72
:1034F800E50AC39A504AE50A75F017A4FAABF088B2
:10350800828983A3A3E02AFAA3E03BFB8A828B8308
:10351800123679EC4D70D2750A17750B00780A12BD
:1035280019A5EEFCEFFD120FAB7402121733EEFC77
:10353800EFFD85088285098312341E1204B98014B0
:10354800750E098003750E01123ECD850C82850D1E
:103558008312368CA90E0230B8E5082402F508E576
:10356800093400F5098A828B83A3A3A3E0A2E5228C
:1035780074041217337F0A02186474EC1217928CC1
:10358800108D11EA2405F50CEB122BA4750F00EA37
:103598002402F50AEB123673850A82F58312341E6B
:1035A8001208318A088B09EA4509700302366575E5
:1035B8000E008071850C82850D83E06401704F8E4A
:1035C800828F83A3A31219BC8E828F83A3A3A3A384
:1035D800E0F51275130078121219A5EE2405F512FC
:1035E800EF3400F51378121219A512341812084F87
:1035F8007406121733E9F50F6014850C82850D8364
:10360800E4F0123ECD85108285118312368C7C172A
:103618007D007900EEFAEFFB120FC38E828F83E4F0
:10362800F0A3F0050E9002E6E0F8E50EC398501EF0
:10363800E50E75F017A4F8A9F0850882850983A31B
:10364800A312405A123679EC4D60030235BC850846
:103658008285098374FFF0A3F0E50F700612341811
:103668001204BFA90F02340FF50AEF3400F50B223C
:10367800A3E0FCA3E0FD228E828F83123ED5850E47
:1036880082850F83E8F0A3E9F022C082C08390020C
:10369800E2E06A7003A3E06B70067AE27B028004C2
:1036A8007A007B0002297FC082C08378008C828DDB
:1036B80083E06A7003A3E06B7010E875F003A4F868
:1036C800A9F0EC28FAED39FB8015088C828D83A3CC
:1036D800A3A3E06A7003A3E06B60DF7A007B0002BB
:1036E800297F74F61217921207FB8A828B83E58270
:1036F800458370067A007B008007A3A3A3A3123436
:103708001E023D7E74F2121792E9FE740E1217869D
:103718001237677410121786123BDF8C828D83E094
:1037280064027036A3123EDBF50CA3E0F9A80C7412
:10373800026870037429697021750C02750D007890
:103748000C1219A578081219A5780A1219A5EEF90C
:10375800120873740612173380027901023E02E0E0
:10376800F50AA3E0F50B2274E812179274FB1217FE
:103778001DE9851882851983F08A168B17ECFEEDF2
:10378800FF751000741D121786123ED1741D121792
:103798008612368C8E828F83A3A3A3E0A2E4502DD9
:1037A800741D12178612341E12083D8A828B83E517
:1037B8008245837003023BB0790AEEFCEFFDAA163E
:1037C800AB17121790E9F5106003023BB3741F1290
:1037D8001786123BDF74211217861237677423127B
:1037E8001786E0F50EA3E0F50F8E828F83E0640262
:1037F8006003023B5EA3123ED1850882850983A33C
:10380800858212858313EE2406122BA18882898370
:10381800E0FAA3E0F9EA2400F514E439F515781480
:10382800121A2F010000280128533807000228180F
:10383800390328853800294F3A01297A3A02291B89
:103848003A03294F3A0429F93A5E3BE50E450F60E1
:1038580003023B59850C82850D83123BD4FAE9FBA0
:103868008A828B83E0850A82850B83123C0A1219AF
:10387800A58A828B83A3E0FCA3E0023AE3E50E4528
:103888000F6003023B59850A82850B837401F0128D
:103898003BE7850882850983F07C007D008E828F56
:1038A80083A3A3A3A3E02401FAA3E03400FB120737
:1038B80029EA4B60418A828B83E02402F8850A82D8
:1038C800850B83E028F0EA2404F8EB3400F98882B9
:1038D8008983E0851282851383123C1C123C0A12EC
:1038E80019A58A828B83123678E5082403FAE5093C
:1038F8003400FB023AE8850A82850B83E02404F051
:103908007C047D007900AA12AB13120FC3023BB3EB
:10391800E50E450F6003023B59123BE7FEA3E0FFAB
:10392800850A82850B837404F0EE850882850983F5
:10393800F0EF851282851383F07403121786AC8228
:10394800AD83EEFAEFFB1207298A0C8B0DEA450DC1
:1039580070030239FC8A828B83A3A312282A74017C
:1039680012178685820E85830F780E1219A57405A5
:103978001217861219BC7CFF7DFF12072F740412E0
:1039880017338B0FEA450F7033850C82850D831230
:103998003BBF1219A5850C82850D83A31219BC7C27
:1039A800027D007A137B8512055B7404121733E9D4
:1039B800700A740112178674FFF0A3F08E828F8349
:1039C800E064027039750C02750D00780C1219A5A7
:1039D8008E828F83123678E5082404FAE5093400CC
:1039E800FB120FAB7402121733850A82850B83E032
:1039F800240280097401121786EEF0A3EFF0740117
:103A0800121786123BD0F07401121786A3123BC816
:103A1800023B53E50E450F6003023B59850C828536
:103A28000D83123679AA16AB17120867850A8285A4
:103A38000B837402F0EA850882850983F085128277
:103A4800851383EB023B56E50E450F6003023B5995
:103A5800123BE7F8A3E0F9850A82850B837402F02C
:103A6800E8850882850983F0E98512828513830237
:103A78003B56850C82850D8312341E120FA5EAFC75
:103A88008C82A882C3950EE4950F405FE8650E709E
:103A980002E50F70047C008022851882851983E076
:103AA800FAE50E2AFAE50F3400FBC3EA98EB940016
:103AB8005003E08005E50ECCC39CFCEC850A8285AA
:103AC8000B83F08C0A750B00780A1219A5850C82F5
:103AD800850D83E0250EFCA3E0350FFDAA08AB0990
:103AE800120FAB7402121733023BB3751007023B77
:103AF800B3E50E450F705A850C82850D83123ED1B1
:103B0800850A82850B837407122836123BC812284F
:103B180036A3E0851282851383F0E82402FAE9349B
:103B280000FB8A828B83123BC8123BF7123BD0A35F
:103B3800123C00123BD9F0E82405F8E93400F98872
:103B4800828983123BD9A3123C1CA3A3A3A3F080B0
:103B58005A75100B8055741D12178612341E1207E1
:103B6800FB8A828B83E5824583603D123ED1880CB7
:103B7800890DE8450D6031780E1219A5780A1219D9
:103B8800A578081219A57406121786E0F9EEFCEF5D
:103B9800FDAA16AB17850C82850D83121790740643
:103BA800121733E9F510800375100EA91074051269
:103BB80017337F10021864E0F50E750F00780E2297
:103BC800E085088285098322123C2622123ED5E828
:103BD80022123C26A3A322E0F508A3E0F5092285DA
:103BE8000C82850D83E0F8A3E0F5838882E022A3A8
:103BF800A3F08A828B83A322F088828983A3A3A35C
:103C0800A322F08A828B83123C1322E0F50A750BFB
:103C180000780A22F088828983A3123C2622E08554
:103C28000882850983A3A32274EE12179274FE12E8
:103C3800171D8A0A8B0BECFAEDFB7414121786E039
:103C4800F510A3E0F5117416121786E0FE74181229
:103C58001786E0F50EA3E0F50F851882851983AC69
:103C680082AD831207298A0C8B0DEA450D604985C0
:103C7800188285198312341E1207FB8A828B83E50A
:103C8800824583602FA3A3123BDFE5084509602422
:103C9800780E1219A578101219A5EEF9AC0CAD0D15
:103CA800AA0AAB0B8508828509831217907404123F
:103CB80017338006790E800279010230B874F61243
:103CC800179274FE12171D740C121786123BD485B6
:103CD8001882851983F07401121786E9F0E4F50853
:103CE800F50978081219A575080278081219A5743B
:103CF8000412178685820885830978081219A51287
:103D0800084F74061217337402121733806874F759
:103D1800121792EAFEEBFF89087C197D03120867E7
:103D2800EA5402600BA908EEFAEFFB12071D8002A5
:103D3800790102273274F612179274FF6A700374BD
:103D4800FF6B70168C828D83123D83E4F08C828D1C
:103D580083A3A3A3123D83A380181208378A088B74
:103D680009A808A909E849600D8882898374FF12A7
:103D78002834A3A3E4F07F0202186474FFF0A3F0D0
:103D88008C828D83A3A32274F61217921208378AA5
:103D9800828B83E58245836006A3A3E0FA80027ADA
:103DA800007B0080D174F21217928A088B09ECFE0E
:103DB800EDFF740E121786E0F50A1208378A0C8B8D
:103DC8000DA80CA90DE8497026EEFCEFFD7AFF7BE3
:103DD800FF1208378A0C8B0DA80CA90DE84970044E
:103DE8007911801688828983E508F0A3E509F088AF
:103DF800828983A3A3E50AF079007F060218647418
:103E0800EE121792EAFEEBFF8C088D09890C7414E8
:103E1800121786123ED1741612178612341E750DAB
:103E280000E8496003023EC57402650C6003023E67
:103E3800C07412121786123EDBFCA3E0F9EC2400D2
:103E4800F50EE439F50FEAF4F8EBF4F9EC58F8E577
:103E58000F59F9E849705CE5082406F8ED3400F9D3
:103E6800880A890B8882F583123EE61208678A1051
:103E78008B11E50E65107004E50F65116042780E30
:103E88001219A5850A82850B83123EE612086D7405
:103E980002121733E9F50D7027780E1219A5850857
:103EA80082850983A3A3123EE412088574021217BF
:103EB80033800D750D808008750D0D8003750D0B11
:103EC800A90D02357D8E828F83123ED522E0F8A39C
:103ED800E0F922123ED588828983E022A3A3E0FC80
:103EE800A3E0FDEEFAEFFB2274E812179274E712D2
:103EF800171D851882851983EAF0A3EBF08C168DBF
:103F080017890E7508007509007431121786E0F5D7
:103F180012A3E0F5137433121786E0F514A3E0F545
:103F2800157435121786E0F50FE50975F003A4F846
:103F3800A9F085188285198312405AE0F47003A30A
:103F4800E0F4700302403DEE2402F50CEF124050FD
:103F5800E0700302403D85160A85170B780A12198E
:103F6800A5AC14AD15AA12AB131207EF7402121701
:103F7800338A0A8B0BEA450B700302403DE4F510C7
:103F8800F51178101219A574061217868582108506
:103F9800831178101219A574091217868582108565
:103FA800831178101219A5851282851383A3A3A300
:103FB800A31219BC7914AC0AAD0B8E828F8312340C
:103FC8001E1208497408121733E97069850A828538
:103FD8000B83A3A3A3A3123ED17402121786123631
:103FE8008C850C82850D83E0A2E05018A90E74021E
:103FF800121786AC82AD838E828F8312341E12070D
:1040080041E94208850C82850D83E0A2E15026E54E
:104018000FF50A780A1219A9A90E7403121786ACAB
:1040280082AD838E828F8312341E12073B74011275
:104038001733E942080509E509C394025003023F12
:1040480031A9087419023BB73400F50D850C82F5C7
:104058008322E028FEA3E039FF8E828F832274F248
:10406800121792EAFEEBFF890B7401650B600E7460
:1040780002650B706A7901120A47E97062EEFAEF7D
:10408800FB1208318A088B09EA45096047750A005E
:10409800800B7C177D007900120FC3050A9002E699
:1040A800E0F8E50AC3985021E50A75F017A4F8A9C5
:1040B800F0850882850983A3A3E028FAA3E039FBE9
:1040C8008A828B8312298670C98508828509837440
:1040D800FFF0A3F07C197D03EEFAEFFB12086102F2
:1040E8003E0274F21217928A088B09ECFEEDFF74F7
:1040F8000E121786123767900D6EE0F4603D7A094C
:104108007B00120FD5EA4B60328A828B8374B1F040
:10411800A3E4123BF9A3123BF7A3E508F0A3E509D2
:10412800124146EEF0A3EF124146A3A3E50AF0A31D
:10413800E50BF0900D6EE0F9120FE1023E02F08AF5
:10414800828B83A3A3A3A3A322C082C08390619080
:104158007404F0A37448F0A37402F0906180744072
:10416800F09061BC7403F09061877419F0906265F7
:10417800741BF0906249E0C3941390619C400A74E8
:1041880009F090606674018007740DF0906066E431
:10419800F090619A7433F0A37455F09061A0743A6A
:1041A800F090053FE064017009C2919003A674671E
:1041B80080059003A67461F09026EEE493906186E2
:1041C800F09026E8E493F46027E493540FF89061A4
:1041D80085E0686012E5C654804449F5C6E59E54FA
:1041E8007F644970F8E8F053C680E59E547F70FA02
:1041F8007905120D8F02437FC082C083E5A8F8536A
:10420800A87E906181E4F0A3F0A3F0C2BA539AFEAD
:10421800C289759B00C2C275E90075910075BF001F
:1042280075A91175B905906181F0A374C0F0A3E474
:10423800F0D2BA439A0174805842A802437FC082E0
:10424800C08374F812171D9003A4E0F8A3E0F9E8FE
:104258004970030243749003A4E054406023790832
:10426800851882851983AA82AB83120C038518826C
:10427800851983AA82AB831208F79003A4E054BF80
:10428800F0E054806010790C7A657B05120C03907D
:1042980003A4E0547FF0E0A2E0503190619A7433B7
:1042A800F0A37455F09061A0743AF090053FE06473
:1042B800017009C2919003A6746780059003A674E3
:1042C80061F01208FD9003A4E054FEF0E05402608F
:1042D8003190619A743FF0A3745AF09061A0747F92
:1042E800F090053FE064017009D2919003A67471C3
:1042F80080059003A6746AF01208FD9003A4E054A8
:10430800FDF0E0540460139026ECE493906186F08D
:104318001209039003A4E054FBF0E05408601390E2
:1043280026EDE493906186F01209039003A4E0540B
:10433800F7F0E0541060139026EEE493906186F055
:104348001209039003A4E054EFF0E05420600A122D
:1043580009039003A4E054DFF0A3E05401600D12B8
:104368000B2B1209099003A5E054FEF074081217EC
:104378003302437FF0A3F0D083D08202012274EC91
:1043880012179274F412171D851882851983AC824E
:10439800AD837583847582D874041216309026EC28
:1043A80093F46003024512907808E0C39402500326
:1043B8000244F27404121786AC82AD837583847547
:1043C80082527408121630851882851983858212E4
:1043D8008583137404121786AC82AD83750EFF753E
:1043E8000FFF7FFF7E00750C48750D7880157408E7
:1043F8006E700302448674096E7003024486740A60
:104408006E607B850C82850D8378081215ED8C8291
:104418008D83A909E50AC9F8881074187808121557
:104428001BE5104508F8C3E098A3E099850C828540
:104438000D8378081215ED40188C828D83741878D6
:104448000812151BE5104508F8E0C398F8A3E080AA
:104458001C7418780812151BE5104508FAE9FB8C3E
:10446800828D83E0F8A3E0F9EAC398F8EB99F9C3E1
:10447800E8950EE9950F5006880E890FEEFF0EE5B8
:104488000C2404F50CE50D3400F50DEEC39413501F
:10449800030243F674FF650E700474FF650F602312
:1044A8008F087402780812170A74482508F5827470
:1044B800783509F58378081215ED851282851383FE
:1044C800E508F0EC2402FCED3400FD85128285132A
:1044D80083A3858212858313740C121786E5826C78
:1044E8007003E5836D60030243E4750801750900F4
:1044F80078081219A57402121786AC82AD837ABBAC
:104508007B091211F17402121733740C1217337FDE
:104518000C021864C082C0839061AE7468F0A37402
:104528006AF090624574FBF0A304F053F4FD43FE77
:104538000290053F7401F09061A0E0643A90619A9E
:1045480070237433F0A37455F09061A0743AF0743A
:104558000164017009C2919003A6746780289003D2
:10456800A674618021743FF0A3745AF09061A0741E
:104578007FF0740164017009D2919003A674718070
:10458800059003A6746A02437E7F08021864C082FD
:10459800C0839004F1E06401700A9004F6E06004BE
:1045A800790C8002790002437FC082C08375E1F1F3
:1045B8009004F4E0605B14600914605F14605714A1
:1045C800705E120B3D9004EAE0F97AEB7B04120D61
:1045D800117AD67BBE7C897D8E120D477A557B5524
:1045E8007C557D00120D1D9004F5E0F9120D297916
:1045F80001120D839004E8E0F8A3E0C82416F582C0
:10460800E83400F5837455F0A3740BF07900024385
:104618007F120B4380AF120B4980AA120B4F80A563
:10462800791280EA74F012179275D90D9004D5E0CA
:10463800A2E0E4331313F89004EAE0C4333354C01F
:10464800484401F5D978E8790488828983A3A3A32B
:10465800E0F5D988828983A3A882A983E864EE70EB
:1046680003E9640470E378D5790488828983A3E038
:10467800F5D988828983A3A882A983E864DB7003BB
:10468800E9640470E575E1959004D5E0F97AD67B84
:1046980004120D17900D9074EFF0A3740AF0A37430
:1046A8004BF0A3740CF0A3744BF0A3740CF0A37438
:1046B8004BF0A3740CF0A374F5F0A3740AF0A37480
:1046C8004BF0A3740CF0A3740DF0A3740BF0900DD1
:1046D8009E744BF0A3740CF0A3744BF0A3740CF00D
:1046E800A3744BF0A3740CF0A3744BF0A3740CF0F8
:1046F800A3744BF0A3740CF0A3744BF0A3740CF0E8
:104708009004F4E064019004E87012E0F8A3E0F586
:10471800838882A3A37508007509088010E0F8A3B0
:10472800E0F5838882A3A3750804750900750A005B
:10473800750B007808121566750CFF750DFF750E60
:10474800FF750F007808790C1215B49004E8E0F8AA
:10475800A3E0C8240EF582E83400F5837808121522
:10476800FC9004E8E0F8A3E0C82414F582E83400DB
:10477800F5837413F09003A27402F002459174F764
:104788001217929004FAE02407F5D99004EAE0C4DD
:10479800333354C0F5D978E8790488828983A3A390
:1047A800A3E0F5D988828983A3A882A983E864EE67
:1047B8007003E9640470E39004FAE0601F78E87914
:1047C80004FAE82413F582E93400F583E0F5D98882
:1047D800828983A3A882A9831AEA70E690051AE061
:1047E8002407F5D99004EAE0C4333354C04404F5EF
:1047F800D978E8790488828983A3A3A3E0F5D988C6
:10480800828983A3A882A983E864EE7003E964041B
:1048180070E390051AE0601F78E87904FAE8243319
:10482800F582E93400F583E0F5D988828983A3A865
:1048380082A9831AEA70E675E195900D9074FBF0F1
:10484800A3740AF0A3744BF0A3740CF0A3744BF098
:10485800A3740CF0A3744BF0A3740CF0A374F5F0DC
:10486800A3740AF0A3744BF0A3740CF0A3740DF0B6
:10487800A3740BF0900D9E744BF0A3740CF0A3740A
:104888004BF0A3740CF0A3744BF0A3740CF0A37456
:104898004BF0A3740CF0A3744BF0A3740CF0A37446
:1048A8004BF0A3740CF09004E8E0F8A3E0C8240EE1
:1048B800F582E83400F58374FFF0A3F0A3F0A3F0C9
:1048C8009004E8E0F8A3E0C82414F582E83400F581
:1048D800837412F09003A27401F0FF02186474F755
:1048E8001217929004FAE02407F5D99004EAE0C47C
:1048F800333354C04402F5D978E87904888289832F
:10490800A3A3A3E0F5D988828983A3A882A983E811
:1049180064EE7003E9640470E39004FAE0601F78C1
:10492800E87904FAE82413F582E93400F583E0F520
:10493800D988828983A3A882A9831AEA70E675E1D7
:1049480095900D907407F0A3740BF0A37407F0A36F
:10495800740BF0A37407F0A3740BF0A37407F0A30F
:10496800740BF0A37407F0A3740BF0A37407F0A3FF
:10497800740BF0A3740DF0A3740BF0900D9E744BA0
:10498800F0A3740CF0A3744BF0A3740CF0A3744B55
:10499800F0A3740CF0A3744BF0A3740CF0A3744B45
:1049A800F0A3740CF0A3744BF0A3740CF09004E81B
:1049B800E0F8A3E0C8240EF582E83400F58374FF1C
:1049C800F0A3F0A3F0A3F09004E8E0F8A3E0C82473
:1049D80014F582E83400F5837414F09003A274048B
:1049E800F0024CAD74F71217929004FAE02407F520
:1049F800D99004EAE0C4333354C04406F5D978E8C2
:104A0800790488828983A3A3A3E0F5D9888289835E
:104A1800A3A882A983E864EE7003E9640470E390B4
:104A280004FAE0601F78E87904FAE82413F582E9CB
:104A38003400F583E0F5D988828983A3A882A98305
:104A48001AEA70E690051AE02407F5D99004EAE01E
:104A5800C4333354C04404F5D978E879048882898A
:104A680083A3A3A3E0F5D988828983A3A882A98315
:104A7800E864EE7003E9640470E390051AE0601FCF
:104A880078E87904FAE82433F582E93400F583E01C
:104A9800F5D988828983A3A882A9831AEA70E67562
:104AA800E195900D907401F0A3740BF0A3744BF092
:104AB800A3740CF0A3744BF0A3740CF0A3744BF024
:104AC800A3740CF0A3744BF0A3740CF0A3744BF014
:104AD800A3740CF0A3740DF0A3740BF0900D9E74E6
:104AE8004BF0A3740CF0A3744BF0A3740CF0A374F4
:104AF8004BF0A3740CF0A3744BF0A3740CF0A374E4
:104B08004BF0A3740CF0A3744BF0A3740CF0900456
:104B1800E8E0F8A3E0C8240EF582E83400F58374D1
:104B2800FFF0A3F0A3F0A3F09004E8E0F8A3E0C836
:104B38002414F582E83400F5837415F09003A27408
:104B480003F0024CADC082C0839004E8E0F8A3E013
:104B5800C82406F582E83400F583E402437C74F740
:104B68001217929003D0E0F875F003A4C8AAF02AAF
:104B7800F974D228F8740339F9E82405FAE93400FD
:104B8800FB8A828B83E0FCA3E0FD88828983A3A350
:104B9800A3A3A3A3A3A3A3ECF0A3EDF08882898326
:104BA800A3A3A3A3A3A3A3E024FFF8A3E034FFF9DE
:104BB8008A828B83E8F0A3E9F0024CAD74F71217F0
:104BC80092EAFEEBFF9061D0E06003024CA175D938
:104BD8000E75D90375D904EE248BF582EF3400F5F0
:104BE80083E5822408F8E5833400F9E0F5D9A3E8E1
:104BF80065827003E9658370F2EE2483F582EF34F1
:104C080000F583E5822404F8E5833400F9E0F5D95A
:104C1800A3E865827003E9658370F275E195790808
:104C2800EE248BFAEF3400FB120BF77904EE2483A1
:104C3800FAEF3400FB120BF77C00EEF8EFF9ECFA10
:104C4800C3E49AFA95E0FBEE2AFAEF3BFBEA248AE2
:104C5800F582EB3400F583E0C0E0E824AAF582E9A8
:104C68003400F583D0E0F00C88828983A3A882A958
:104C780083ECC3940840C7EE246FF582EF3400F547
:104C880083E0F8A3E0F9EE2471F582EF3400F583B0
:104C9800E8F0A3E9F07901800279008008F0EEA23B
:104CA800E092AF79007F01021864C082C08375D991
:104CB8000275D90375D90575E195EA246FF582EB7C
:104CC8003400F583E0F8A3E0F9EA2471F582EB34C7
:104CD80000F583E8F0A3E9F0790102437F74F61246
:104CE8001792EAFEEBFF9005457406F075084575C6
:104CF800090578081219A57C017903120C3F740282
:104D080012173375D90675D903758245758305E081
:104D1800F5D9A3E582644A7004E583640570F075EB
:104D2800E1959003A2E06408701EEE246FF582EF0F
:104D38003400F583E0F8A3E0F9EE2471F582EF344E
:104D480000F583E8F0A3E9F07901024FB374F61295
:104D58001792EAFEEBFF9061D0E07066780190054B
:104D680045740BF09003A2E0640770197508457547
:104D7800090578081219A57C017903120C3F740201
:104D88001217337805740128F5D975D9037582454A
:104D9800758305E8FAE0F5D9A31AEA70F875E19584
:104DA800EE246FF582EF3400F583E0F8A3E0F9EE26
:104DB8002471F582EF3400F583E8F0A3E9F0790176
:104DC80080027900024FB374F7121792EAFEEBFFE4
:104DD80075D90375D90375D90DEE24DDF582EF3445
:104DE80000F583E0F5D975E1957904120D4DEE24AF
:104DF8006FF582EF3400F583E0F8A3E0F9EE247153
:104E0800F582EF3400F583E8F0A3E9F07901024C6C
:104E1800AD74F6121792EAFEEBFF9061D0E0F874D9
:104E280080C398FAEE2482F582EF3400F583E060BF
:104E380004780480027800E8240BF8EAC398500349
:104E4800024EDE7D09900545EDF0EE24E2F8EF34E0
:104E580000F97A467B057C0888828983E08A828B00
:104E680083F088828983A3A882A9838A828B83A3FB
:104E7800AA82AB831CEC70E0EE2482F582EF34004A
:104E8800F583E0601D75084575090578081219A5B0
:104E98007C097903EEFAEFFB120C3F740212173308
:104EA8007D0D74012DF5D975D90375824575830576
:104EB8008D08E0F5D9A31508E50870F675E1957930
:104EC80004120D4DEE241DF582EF3400F583E4F055
:104ED800A3F0790180027900024FB374F612179299
:104EE800EAFEEBFF9061D0E0F87480C398FAEE24F4
:104EF80082F582EF3400F583E0600478048002785C
:104F080000E82408F8EAC3985003024FB1780690E5
:104F18000545740CF09003BFE0900546F09003C07F
:104F2800E0900547F09003C1E0900548F09003C277
:104F3800E0900549F09003C3E090054AF0EE248222
:104F4800F582EF3400F583E0601B750845750905A7
:104F580078081219A57C067903EEFA120C3F740240
:104F6800121733780A740128F5D975D90375824563
:104F78007583058808E0F5D9A31508E50870F67566
:104F8800E1957904120D4DEE246FF582EF3400F5AA
:104F980083E0F8A3E0F9EE2471F582EF3400F5839D
:104FA800E8F0A3E9F07901800279007F0202186431
:104FB80074F6121792EAFEEBFF9061D0E0F8748065
:104FC800C398FAEE2482F582EF3400F583E060049A
:104FD800780480027800E82404F8EAC398500302B1
:104FE80050927802900545E8F0EE24F4F582EF340B
:104FF80000F583E0900546F0EE2482F582EF340058
:10500800F583E0601B75084575090578081219A530
:105018007C027903EEFA120C3F74021217337806F9
:10502800740128F5D975D9037582457583058808F3
:10503800E0F5D9A31508E50870F675E195EE247337
:10504800F582EF3400F583E4F0EE247FF582EF3447
:1050580000F583E4F0EE241DF582EF3400F583E4D7
:10506800F0A3F07904120D4DEE240DF582EF340013
:10507800F583E0F8A3E0F9EE2471F582EF3400F54A
:1050880083E8F0A3E9F0790180027900024FB37454
:10509800F61217929061D0E0F87480C398FCEA2465
:1050A80082F582EB3400F583E060047804800278AE
:1050B80000E82404F8ECC398405B79029005457435
:1050C80007F0EA24F5F582EB3400F583E090054615
:1050D800F0EA2482F582EB3400F583E06018750865
:1050E8004575090578081219A57C0209120C3F7448
:1050F800021217337906740129F5D975D903758217
:1051080045758305E9F8E0F5D9A318E870F875E165
:1051180095790180027900024FB374F5121792E96C
:10512800FCA2AFE433F50AC2AF7D0080010DEA248A
:105138006EF582EB3400F583E0F8EDC398501A8DD4
:1051480008EA2508F8EB3400F9E8246AF582E9341E
:1051580000F583E06C70D68024EA246EF8EB340006
:10516800F9E0FEEA2EFAEB3400FBEA246AF582EB5A
:105178003400F583ECF088828983E004F0E50AA224
:10518800E092AF7F0302186474F6121792A2AFE49C
:1051980033FDC2AFEA246EF582EB3400F583E014E8
:1051A800F07C0060368C08EA2508F8EB3400F9E852
:1051B800246BF582E93400F583E0C0E0E8246AF561
:1051C80082E93400F583D0E0F00CEA246EF582EB36
:1051D8003400F583E0F8ECC39840CAEA246DF58200
:1051E800EB3400F58374FFF0EA2469F582EB3400B0
:1051F800F583E4F0EDA2E092AF024FB3C082C08322
:10520800E5A8F8C2AFEA246AF582EB3400F583E931
:10521800F0EA2469F582EB3400F583E4F0E8A2E7CC
:10522800A2E792AF02437F74F3121792EAFEEBFFF4
:10523800ECFAEDFB8A828B83A3A3A3A3E0541FF0AF
:10524800EE2436F582EF3400F583E4F0F50AEEFC3F
:10525800EFFD8A828B83E0C0E0EC245DF582ED34BB
:1052680000F583D0E0F0750B00E50A33333354F8CA
:10527800F50C8A828B83E0F508750900E50B780840
:105288001216EBE508A2E0502FEE2436F8EF3400B2
:10529800F988828983E0F508EE2508F508EF3400DF
:1052A800F509E5082438F582E5093400F583E50CAD
:1052B800F088828983E004F0050B050CE50BC394A4
:1052C8000840AF050A8A828B83A3AA82AB838C82AB
:1052D8008D83A3AC82AD83E50AC3940550030252C3
:1052E8005A7F0502186474F71217929003CEE0648F
:1052F80001700302544C7A009003D4E06003025416
:105308004C7401F0A3E4F0A3F090043404F090048A
:1053180039F09003D7E4F0A3F0A3F0A3F09003E1F1
:1053280004F0900407E4F09003EAF0A3F0A3F0A3DC
:10533800F0A3F0A3F0A3F0900451F0900445F0908E
:10534800043A7480F0A3E4F0900440F09004BCF0B8
:10535800A3F0A3F0A3F0A3F0A3F0A3F0A3F09004AC
:10536800C5F0900454F09004A4F0A3F0A3F0A3F0C7
:10537800A3F0A3F0A3F0A3F0A3F0A3F09004B0F07F
:105388009004B2F09004AEF09004C8F0A3F0A3F03B
:10539800A3F0A3F0A3F0A3F0A3F078CE7903E82458
:1053A8006EF582E93400F58374FFF00A88828983F8
:1053B800A3A882A983EAC3940440E37ACE7B037846
:1053C800DC790488828983E0C0E0EA2461F582EB15
:1053D8003400F583D0E0F088828983A3A882A9836A
:1053E8008A828B83A3AA82AB83E864E17003E964B1
:1053F8000470D07ACE7B0378B5790388828983A339
:10540800E0C0E0EA24E6F582EB3400F583D0E0F072
:1054180088828983A3A882A9838A828B83A3AA828C
:10542800AB83E864BD7003E9640370CF9003CEE0FA
:1054380004F0640170089003D6E09003D0F07AD2AB
:105448007B0380047A007B00024CADC082C083904D
:1054580003D5E4F09003D4F09003CEF0A3F0A37446
:10546800FFF075E1F102437FC082C08378007900C4
:105478009003D5E0600478D2790388828983A3A356
:10548800A3A3E0F902437F74F6121792EAFEEBFF3A
:10549800EE2463F582EF3400F583E0F8A3E0F9E841
:1054A800497003025534EE2463F8EF3400F97A00AA
:1054B8007B00A2AFE433F508C2AF88828983E0FCA1
:1054C800A3E0FDEC4D603A88828983E0FAA3E0FB13
:1054D8008A828B83E0FCA3E0FD88828983ECF0A3B9
:1054E800EDF08A828B83E4F0A3F088828983E0FC64
:1054F800A3E0FDEC4D700A88828983A3A3E4F0A39E
:10550800F0E508A2E092AF1212999004E2E004F0EC
:105518009004E3E004F0EE2463F582EF3400F583B1
:10552800E0F8A3E0F9E84960030254AE8E828F8365
:10553800A3A3A3E0600F8E828F83A3A3A3E4F090BC
:1055480003CFE014F09003CEE014F070069003D07F
:1055580074FFF08E828F83A3A3E4F09004E1E070DF
:105568000D9003CFE0640170057900120D2FEEFA5B
:10557800EFFB120C6F024FB374F7121792EAFEEBAF
:10558800FF8E828F83A3A3A3A3E0FA7B0012094BAB
:10559800EEFAEFFB120BC1120C57024CADC082C0E1
:1055A8008378B5790388828983A3E4F08882898324
:1055B800A3A882A983E864BD7003E9640370E69038
:1055C80003B6740102437E74F6121792EAFEEBFFEB
:1055D800EC2403F8ED3400F988088909EC2407F86D
:1055E800ED3400F9E8FCE9FD8C828D83E0F8A3E056
:1055F800F9850882850983E0FAA3E0FB121692EE8A
:10560800240DF582EF3400F583E8F0A3E9F08C82ED
:105618008D83E0F8A3E0F9850882850983E0FAA381
:10562800E0FB1216928B09EA45096013EE240DF58A
:1056380082EF3400F583E02401F0A3E03400F002A7
:105648004FB374F6121792EAFEEBFFEE242EF582A2
:10565800EF3400F583E0FCA3E0FD780079FAECFA7A
:10566800EDFB121692EE246FF582EF3400F583E815
:10567800F0A3E9F0780079FAECFAEDFB1216928BB8
:1056880009EA45096013EE246FF582EF3400F583CB
:10569800E02401F0A3E03400F0024FB374EC1217D9
:1056A80092EAFEEBFF741412178678081215ED12B1
:1056B8000CF38A0C8B0D8C0E8D0F75100275110072
:1056C800751200751300780C79101215537510FFB8
:1056D8007511FF7512FF780C79101215B4780C1239
:1056E80019A18E828F83E0F8A3E0F5838882A3A3B3
:1056F80012160B1223B17404121733E9600302580F
:10570800088E828F83E02402F8A3E03400F9E8FAD7
:10571800E9FB8A828B8378081215798A828B8375D4
:1057280008FF7509FF750AFF750B0078081215DA6E
:10573800EE240BF582EF3400F583C082C0838E829D
:105748008F83A3A3A3A3A3E02401F8A3E03400F963
:10575800D083D082E0687003A3E069700579010204
:10576800580A8E828F83A3A3A3A3A3A3A3E0240133
:10577800F0A3E03400F0EE2473F582EF3400F583F3
:10578800E064017036EE2474F582EF3400F583E0AE
:10579800F8A3E0F98E828F83A3A3A3A3A3A3A3E016
:1057A800687003A3E0697013EE2474F582EF340087
:1057B800F583E02401F0A3E03400F0EE247FF582C5
:1057C800EF3400F583E064017036EE2480F582EF53
:1057D8003400F583E0F8A3E0F98E828F83A3A3A3B6
:1057E800A3A3A3A3E0687003A3E0697013EE248069
:1057F800F582EF3400F583E02401F0A3E03400F0F3
:10580800790002451774F6121792E9FEECFFEA24B4
:1058180062F582EB3400F583E0640160030258B658
:105828009061D0E0F508EA2482F582EB3400F58334
:10583800E060047804800278007480C39508FC95C1
:10584800E0FDEF28F8E43400F9E82402F8E9340030
:10585800F9EC98ED99A2D265D033404E740A12172C
:1058680086E0F508A3E0F509EA2482F582EB340026
:10587800F583E0601578081219A5EFFCEEF9120C13
:105888003F740212173374042FFF74012FF5D98E59
:10589800D9EF600F850882850983F8E0F5D9A31848
:1058A800E870F875E195790080067907800279FF3C
:1058B800024FB374F7121792A2AFE433FEC2AF8A55
:1058C800828B83E0F8A3E0F9E8498A828B83600A37
:1058D800A3A3E0F8A3E0F5838882ECF0A3EDF08AB7
:1058E800828B83A3A3ECF0A3EDF08C828D83E4F08C
:1058F800A3024CA574F7121792E96021F88C828DE7
:1059080083E08A828B83F08C828D83A3AC82AD8303
:105918008A828B83A3AA82AB8318E870E0ECFAED45
:10592800FB024CAD74F012179274FA12171D890B12
:10593800ECFEEDFF750A008A088B0978081219E950
:105948000004105F5B6F598D59A759BF59DD59F590
:1059580059185A305A445A6E5AF65A075B1E5B3920
:105968005B5F5B5F5B845A7401650B6003025B5A83
:105978008E828F83E0F8C394034003025B5AE89059
:105988000E81025B367402650B6003025B5A8E82DD
:105998008F8312625C900E82E8F0A3E9025B367492
:1059A80001650B6003025B5A125B874003025B5A76
:1059B800E8900776025B367401650B6003025B5A58
:1059C8008E828F83E0F8C394054003025B5AE89007
:1059D8000777025B367401650B6003025B5A125B42
:1059E800874003025B5AE8900778025B36741065BB
:1059F8000B6003025B5A75081075090078081219C4
:105A0800A57A797B07120FAB7402121733025B80F9
:105A18007401650B6003025B5A125B874003025BEB
:105A28005AE8900789025B367401650B6003025BD4
:105A38005A8E828F83E0900E85025B367404650B64
:105A48006003025B5A8E828F83780C1215ED908466
:105A5800C4780C12140C5003025B5A90078B780C14
:105A68001215FC025B80E96003025B5A1206C9E961
:105A7800700512116D806090081E806E7407650BAA
:105A88006003025B5A75080675090078081219A5A3
:105A98008E828F83A3AC82AD837402121786AA828A
:105AA800AB83120FB174021217337C007D00851886
:105AB80082851983AA82AB838E828F83E0F91211C3
:105AC80013E9F508C3940A4003025B7D1206C9E98D
:105AD800700CA9081211737950121317806F741F74
:105AE8002508F58274083400F58374018040740138
:105AF800650B705E125B875059E890078A802F7497
:105B080001650B704D8E828F83E0F8C3940A504272
:105B1800E8900E8480187401650B70368E828F832E
:105B2800E0F874F928C3940A5028E8900E86F080AB
