:020000040000FA
:0600000002011D02224B6B
:03002B000229A8FF
:030053000222BEC8
:03006B0002297FE8
:100083000220B7E5C754F84401F5C77901220000FF
:100093000080FB120086B90003020107E47921788E
:1000A30008B800028004F709D8FCE479297802B87B
:1000B30000028004F709D8FCE490028178A9790949
:1000C3008002F0A3D8FCD9FA781A90014D7A01BACC
:1000D30000028007E493A3F608DAF9900B29AA82B9
:1000E300AB8390014E784479048015E493A3AC82EA
:1000F300AD838A828B83F0A3AA82AB838C828D83A8
:10010300D8E9D9E77582777583BE740312012F7519
:100113008291758300740012012F75D00075813FA1
:10012300751881751902759F00020096C09FF59F8F
:10013300E473D09F22D083D082C09FE493C0E07445
:100143000193C0E0740293F59F2201FF0000B40005
:100153000028002800283075A000A000A000A000FF
:1001630000080008E001F00010001000100010006B
:100173001000100050005000500010001000D00775
:100183000000000000000F000100050030750700AB
:100193001000010081FF00000000FF8F06AD0695EF
:1001A30006FF02020208025000A0000000E803025A
:1001B300CB840100009F8402BE83010000800B02F8
:1001C300CF84010000B30202BE83010000810B0251
:1001D300D584010000C90202BE83010000820B0224
:1001E300E584010000CB0202BE83010000830B0201
:1001F300E784080000CC0202BE83010000840B02E6
:10020300E984010000850BFF0100FF2002CB84017C
:100213000000A28402BE83010000E90B02EB84000C
:100223000000000002CD840300001903650C650C77
:10023300650C650C650C650C650C650C650C650C33
:10024300650C650C650CF90E110FF30EFFFF4902E7
:10025300000304126402CB84010000A88402BE835D
:10026300010000310C02C784010000320C02CD846E
:100273000300006707020202020202020202010DEA
:10028300000000100102CB84010000AE8402BE8393
:10029300010000530C02C1840100006D0702BE83FC
:1002A300010000540C02BF84010000FC8202BE83E3
:1002B300010000550C02BD84010000B98202BE8317
:1002C300010000560C02BB84010000C58102BE83FD
:1002D300010000570C02F984010000D78102BE839C
:1002E300010000580C02B784010000B38102BE83F1
:1002F300010000590C02B584010000A18102BE83F4
:100303000100005A0C02B384010000C78202BE83BD
:100313000100005B0C02B1840100005C0C01E803E6
:10032300053F100AFF001202CB840100009C8402E7
:10033300BE83010000040D02EF84010000A3080244
:10034300CD84030000A408013075030201060000F8
:10035300000000000000000000000000000000009A
:1003630000000000000000000000FFFF0600800CFA
:10037300E8030001000001090954657048656174D0
:1003830042051214001400020A000201050302F0E0
:10039300FF5465704865617442000000000000006E
:1003A300000000000000D3130000D9130A43686162
:1003B3007261637465726973746963203100024307
:1003C3006861726163746572697374696320320072
:1003D3001A43686172616374657269737469632037
:1003E3003300104368617261637465726973746981
:1003F30063203400024368617261637465726973D8
:1004030074696320350002CB84010000A58402BE19
:10041300830100008A0D02F584030000F40A02B987
:10042300840100008B0D02BE830100009C0D02F7C6
:1004330084010000080B02B9840100009D0D02BE77
:1004430083010000AE0D02D984030000090B02B939
:1004530084010000AF0D02BE83010000C00D02D76E
:10046300840000001D0B02CD840300001E0B02B9A3
:1004730084010000C10D02BE83010000D20D02D32E
:1004830084040000240B02B984010000D30D12017F
:1004930038F5AB031201380CAC031201383DAC0341
:1004A30012013878AC03120138A2AC03120138CC24
:1004B300AC03120138E3AC03120138FAAC031201A6
:1004C3003811AD031201383AAD031201384DAD03B3
:1004D30012013863AD0312013876AD031201389D62
:1004E300AD0312013819C1021201381DC2021201F3
:1004F3003855C20212013878C20212013883C2028F
:10050300120138A6C202120138B5C3021201388A99
:10051300C40212013805C5021201388DC502120149
:1005230038C8C502120138FFC5021201388DC60250
:1005330012013866C702120138C6C702120138D148
:10054300C70212013850C80212013853C8021201FF
:100553003856C802120138E5C802120138E8C80249
:1005630012013818C90212013842C9021201383087
:10057300CA02120138E2CA0212013826F802120135
:10058300384EF8021201387CF802120138B3F8022F
:1005930012013811F9021201385CF902120138A76D
:1005A300F902120138E7F9021201382DFA02120199
:1005B300385BFA0212013818FB0212013822FB02DF
:1005C3001201382FFB0212013862FB021201382E8E
:1005D300FC021201383AFC0212013852FC021201E9
:1005E300385CFC021201381DBA031201382BBA031E
:1005F30012013843BA031201385BBA0312013808F7
:10060300E001120138B4E0011201382FE1011201B7
:100613003850E2011201388CE20112013835E3014E
:100623001201381CE40112013880E501120138D7A8
:10063300E50112013858E60112013848E7011201B9
:100643003895E7011201381BE8011201384DE80122
:1006530012013861EA01120138A3EA01120138C11B
:10066300EA0112013844EB0112013818EC011201BE
:1006730038E0EC01120138DCEB02120138AFEC0276
:1006830012013858ED02120138ABED021201385B4A
:10069300EE02120138E7EE02120138D3EF02120123
:1006A3003802F00212013815F1021201385DF1022D
:1006B30012013832F2021201386EF2021201388A44
:1006C300F20212013894BD031201388D990312010D
:1006D30038A39903120138C99903120138E59A0323
:1006E300120138EF9A03120138249C031201381CBB
:1006F3009D03120138FFF2021201382FF402120196
:100703003862F402120138ACF40212013873F602B3
:10071300120138B7C00112013821C101120138801A
:10072300C20112013890C201120138BDC201120187
:100733003814C301120138BDC301120138C4C40106
:100743001201388EC501120138EEC601120138318B
:10075300C701120138D6C70112013823C80112019B
:100763003849C80112013857CA011201385CCA015D
:1007730012013861CC01120138AECC0112013821CB
:10078300CD0112013854CD01120138F6CD01120109
:10079300389FCE01120138D7CE01120138DACE01CB
:1007A30012013822CF0112013862CF01120138B988
:1007B300CF0112013811A00312013829A00312013D
:1007C3003871A00312013887A003120138CEA003A9
:1007D300120138E2A1031201386FA203120138BAE1
:1007E300A203120138D42900120138E029001201B2
:1007F300381B2A00120138602A00120138202B000E
:10080300120138A62B001201380B2C0012013837C5
:100813002C00120138702C00120138AE2E00120188
:1008230038923000120138783200120138BB33009D
:100833001201380936001201381B370012013866DD
:100843003800120138763900120138933900120149
:1008530038CE3900120138F03900120138533A000A
:10086300120138143F00120138A93F00120138FA6F
:100873003F00120138214000120138734000120179
:1008830038914000120138EB4000120138D4410086
:100893001201384A4300120138CE430012013800D6
:1008A30080031201380A80031201384D80031201BC
:1008B30038688003120138F880031201382081035D
:1008C3001201385D8103120138948103120138BD8E
:1008D3008103120138328203120138478203120165
:1008E300385C82031201388D8203120138A182031E
:1008F300120138C682031201380083031201382C17
:100903008303120138648303120138E38303120162
:10091300382C84031201385684031201388184036E
:100923001201382FB50312013818A90212013846F3
:10093300A90212013894AA0212013874AB021201FF
:100943003893AB0212013810AC0212013853AC02D7
:10095300120138A9AD021201386AAE02120138F150
:10096300B00212013892B10212013888B2021201A8
:100973003885B302120138DFB4021201386AB502B6
:10098300120138D4B3031201383DB4031201389174
:10099300B403120138B8B403120138E9B4031201E5
:1009A30038368903120138A38903120138EA89030F
:1009B300120138028B03120138FE8B03120138E156
:1009C3008C0312013853CB0212013895CB0212016A
:1009D3003867CC0212013840CD021201383ACE02F8
:1009E3001201381CCF0212013885CF021201383BA5
:1009F300D002120138AFD0021201381BD10212010A
:100A03003844D102120138BED10212013857D20242
:100A1300120138BCD202120138D1D20212013817A6
:100A2300D30212013830D30212013895D3021201D6
:100A33003898D302120138E3FC021201380BFD028D
:100A430012013849FD0212013807FE021201386E05
:100A5300FE021201388AFE02120138B2FE021201AE
:100A630038E2FE02120138F1FE021201386EFF0273
:100A730012013894FF02120138A6D0011201388402
:100A8300D201120138B6D401120138F2D401120195
:100A9300381FD50112013809D60112013854D60185
:100AA3001201389FD601120138B1D601120138F173
:100AB300D60112013826D70112013874D701120169
:100AC30038A3D701120138C6D70112013813D80150
:100AD30012013898D801120138B2DA01120138F143
:100AE300DC0112013832DD01120138D4DE011201BA
:100AF3003815DF0112013888DF01120138DEDF010A
:100B0300120138039C02120138019D021201389A26
:100B1300A302120138BBA50212013886A7021201F3
:100B230038EEA802120138354400120138E44400BB
:100B33001201381145001201385745001201389748
:100B430046001201382D4800120138A7480012014F
:100B530038C248001201383D4900120138974A0053
:100B6300120138F74B00120138FD4C001201385EB8
:100B73004E00120138774E00120138D54E00120193
:100B830038C34F00120138F64F0012013866500087
:100B9300120138E050001201382A5100120138F4D2
:100BA3005100120138C95200120138A85300120132
:100BB30038335400120138A154001201381555007E
:100BC300120138405500120138FF550012013864F4
:100BD3005700120138815700120138A05700120143
:100BE30038915800120138B65800120138E0580005
:100BF3001201385B5900120138B559001201381E31
:100C03005B00120138CC5B001201380D5C0012014D
:100C1300382F8E021201387D8E02120138898E021E
:100C2300120138678F02120138988F02120138C9F6
:100C33008F02120138499002120138819002120189
:100C430038D390021201381091021201382D930209
:100C53001201385395021201383E970212013828C7
:100C63009902120138F07F001201380E9A01120125
:100C7300383E9A0112013817A1011201389CA201D2
:100C830012013899A80112013881A901120138BE55
:100C9300A901120138E1A90112013812AA011201B6
:100CA300381BAA0112013825AA0112013813AB011E
:100CB30012013809AC01120138FF8401120138FE18
:100CC30088011201380489011201383F9001120191
:100CD30038589501120138BF950312013855960310
:100CE3001201386B9603120138E19603120138554D
:100CF30097031201389397031201380798031201DF
:100D030038809803120138899803120138959803A3
:100D1300120138AA9803120138E89803120138FE29
:100D230098031201385D9903120138A38D03120150
:100D330038B08D03120138CA8D03120138098E03AE
:100D4300120138478E03120138AC8E03120138C1E9
:100D53008E03120138CC8E03120138D98E0312018F
:100D630038F08E03120138FE8E03120138098F0307
:100D7300120138158F03120138248F031201382F03
:100D83008F03120138528F03120138F98F031201B6
:100D9300380990031201382390031201384090035D
:100DA3001201385C90031201388190031201388CD0
:100DB3009003120138A19003120138B59003120178
:100DC300381691031201381C910312013822910342
:100DD300120138289103120138409103120138732C
:100DE3009103120138058002120138898002120131
:100DF30038388102120138978202120138B884020E
:100E0300120138A48502120138D98502120138FB78
:100E13008502120138AA8602120138A28802120141
:100E230038CB88021201385D89021201388F89029A
:100E33001201389C8902120138F389021201381910
:100E43008A02120138868C02120138898D0212013E
:100E530038E18D02120138F9EE0112013803F00175
:100E6300120138EAF001120138F4F00112013816C8
:100E7300F10112013822F101120138BBF201120112
:100E830038EAF20112013806F4011201385FF40165
:100E9300120138C5F501120138A4F6011201380018
:100EA300F7011201386DF701120138A8F701120199
:100EB30038E7F701120138A0FA01120138BAFA0132
:100EC30012013846FB0112013854FB01120138ADFF
:100ED300FB01120138BBFB011201382EFC01120188
:100EE3003892FC01120138DCFC01120138EBB50227
:100EF3001201380DB60212013833B8021201384814
:100F0300BB0212013860BC0212013813BD02120188
:100F130038F5BD02120138AFAD03120138D4AD0369
:100F230012013846AE0312013862E4021201386B33
:100F3300E40212013874E4021201384BE502120193
:100F430038FCE60212013832E7021201386CE7027C
:100F5300120138A2E702120138DCE702120138104D
:100F6300E8021201383CE80212013885E802120156
:100F730038BFE80212013808E90212013860E902B9
:100F830012013895E902120138F0E9021201382AF8
:100F9300EA021201387BEA02120138B1EA021201B5
:100FA30038EBEA0212013819EB021201383CEB026A
:100FB300120138B5BB03120138E1BB031201383CFF
:100FC300BC0312013846BC0312013856BC0312019C
:100FD30038BCD302120138C6D30212013804D4023A
:100FE3001201384DD40212013887D402120138E1BC
:100FF300D40212013802D502120138DAD7021201E3
:1010030038E3D70212013830D80212013859D80216
:1010130012013863D802120138CFD80212013861A5
:10102300D902120138ABD902120138E1D9021201F7
:10103300386DDA02120138AEDA02120138E5DA024B
:10104300120138F7DA0212013816DB021201381FD7
:10105300DB02120138F2DB021201384CB803120131
:101063003804AA031201383AAA0312013870AA03FA
:10107300120138BBAB03120138FCBC031201381256
:10108300BD031201381CBD0312013866BD031201F2
:101093003818BE03120138A98403120138BE840331
:1010A3001201386E8503120138AE8503120138C769
:1010B30085031201380286031201384F8603120199
:1010C30038818603120138C38603120138C48803AA
:1010D300120138F6B0031201381FB1031201384E62
:1010E300B103120138E6B10312013828B203120129
:1010F30038269D03120138349D03120138A59D0340
:10110300120138699F03120138879F03120138F5D2
:10111300A70312013825A80312013895A803120169
:101123003835A903120138E4A20312013809A303D5
:1011330012013833A303120138AAFF011201383D0B
:101143005C00120138A25E001201384360001201F4
:1011530038F760001201388A61001201380F62000B
:101163001201383462001201388A65001201381006
:1011730066001201384367001201387D67001201CF
:1011830038B26700120138726900120138CF690062
:10119300120138186A00120138836A00120138F408
:1011A3006A00120138266B001201383E6B001201EF
:1011B30038876C00120138976C00120138B26D0049
:1011C300120138D46D001201380A6E00120138BEC4
:1011D3006F001201384B70001201388A700012013F
:1011E30038AE7100120138F4BA0312013805BB039B
:1011F300120138AABB03120138CFBE031201380E05
:10120300BF03120138A2BF0312013843B90312010D
:101213003853B90312013865B90312013817BA03F9
:1012230012013848B603120138CDB6031201383320
:10123300B7031201384CB7031201386DB70312011B
:1012430038C1B703120138CBB70312013815B803FD
:1012530012013840B80312013843B803120138DCD5
:10126300FF02120138ECFF02120138EFFF021201F4
:1012730038F87F0012013865FD0112013800FF01C3
:1012830012013861FF01120138A7FF01120138B3BF
:10129300BF03120138B8BF03120138BFBF031201E5
:1012A30038C1BF0312013881B20312013896B20369
:1012B300120138ABB203120138B4B203120138C6BB
:1012C300B20312013806B30312013834B303120117
:1012D300387FB303120138D1B30312013854AF037B
:1012E300120138A6AF0312013830B0031201389748
:1012F300B003120138B0A503120138DAA5031201B5
:1013030038A8A60312013883A70312013820DC0290
:10131300120138E7DC021201381EDD0212013848DF
:10132300DD02120138A8DD02120138FEDD021201CE
:101333003863DE02120138FBDE021201380AE002D2
:10134300120138A1E1021201382EE202120138958E
:10135300E202120138ACE202120138C6E3021201C2
:101363003804E40212013860BC0312013890BC0354
:1013730012013895BC03120138D37100120138549D
:101383007500120138DC7600120138337700120140
:1013930038527700120138D077001201386679008D
:1013A3001201384B7A00120138597E001201382F8E
:1013B3007F0012013821AE0112013836AE0112014D
:1013C3003840AE011201380AB10112013865B1018A
:1013D30012013801BE0112013828BF01120138F091
:1013E300910312013835920312013852920312010C
:1013F300381793031201388093031201384D940375
:101403001201388695031201384EBF0312013818B2
:10141300BF031201387ABF03120138D27F00E0669E
:10142300701008A3E066700A08A3E066700408A3BE
:10143300E06622C3E7960809E7960809E7960809D4
:10144300E79622C3E09608A3E09608A3E09608A3D4
:10145300E09622C008C3E096F50808A3E096420888
:1014630008A3E096420808A3E09645087001D3D08C
:101473000822080808EAC0E0EBC0E086F0E7A4FA17
:10148300180986F0E7A42AFA180986F0E7A42AFACD
:10149300180986F0E7A42AFA1986F0E7A4FBE5F019
:1014A3002AFA190886F0E7A42BFBE5F03AFA1908A3
:1014B30086F0E7A42BFBE5F03AFA18180986F0E763
:1014C300A4C5F02BFBE43AFA1908E7C5F0C6A42635
:1014D300F6E5F03BFBE43AFA1886F0E7A4F6E5F00C
:1014E3000826F6E43B08F6E43A08F6D0E0FBD0E041
:1014F300FA22E4CFC0E0E4CEC0E0E4CDC0E0E4CC27
:10150300C0E075F020C3E633F608E633F608E633A9
:10151300F608E633F6181818EC33FCED33FDEE331A
:10152300FEEF33FFC3EC9709ED9709EE9709EF97A9
:10153300191919400FFFEC97FC09ED97FD09EE9778
:10154300FE191906D5F0BEECF709EDF709EEF70918
:10155300EFF7191919D0E0FCD0E0FDD0E0FED0E0A0
:10156300FF226016080808C6C313C618C613C61898
:10157300C613C618C613C6D5E0EA227009080808C0
:10158300226016181818C6C333C608C633C608C661
:1015930033C608C633C6D5E0EA22E627F60809E6CD
:1015A30037F60809E637F60809E637F622E026F6A5
:1015B30008A3E036F608A3E036F608A3E036F622E1
:1015C300E026F008A3E036F008A3E036F008A3E035
:1015D30036F022C3E697F60809E697F60809E69778
:1015E300F60809E697F622C3E096F008A3E096F022
:1015F30008A3E096F008A3E096F022E657F6080960
:10160300E657F60809E657F60809E657F622E056C4
:10161300F608A3E056F608A3E056F608A3E056F64C
:1016230022E056F008A3E056F008A3E056F008A322
:10163300E056F022E0F608A3E0F608A3E0F608A3DC
:10164300E0F622E6F008A3E6F008A3E6F008A3E636
:10165300F022E0FAA3E0FBA3E0FCA3E0FD22EAF022
:10166300A3EBF0A3ECF0A3EDF022CAC0E0E6F0A3F5
:1016730008DAFAD0E0FA22CAC0E0E0A3C582CCC5FA
:1016830082C583CDC583F0A3C582CCC582C583CD76
:10169300C583DAE6D0E0CA22C3E498F8E499F912E4
:1016A30016DC8026C3E49AFAE49BFBE920E7E912FF
:1016B30016DCE498F8E499F922C3E498F8E499F97C
:1016C3001216DCE498F8E499F9C3E49AFAE49BFB74
:1016D30022EB20E7CFE920E7E0B90010BB0008E8E0
:1016E3008AF084F8AAF022E4FBC8FA22EB70227B8A
:1016F30010C833C8C933C9335007C39AC3DBF28058
:10170300069A50012ADBEAC833F4C8C933F4C9FA8C
:101713002275F008E4C833C8C933C933C99AC99BD1
:101723005004C92AC93BD5F0ECFBC833F4C8E4C95B
:10173300FA22600D08C6A2E713C618C613C6D5E081
:10174300F322600C08C6C313C618C613C6D5E0F44B
:1017530022700422600D18C6C333C608C633C6D52B
:10176300E0F41822251810AF08F518400215198067
:1017730008F51840021519D2AF22C0D0251810AFB2
:1017830008F518500205198008F51850020519D2FA
:10179300AFD0D0222518F58210AF08F518400215F6
:1017A300198008F51840021519D2AF85198322C58F
:1017B300822518C582C583351910AF07F5198582AF
:1017C300188007F519858218D2AFC583222518F52D
:1017D30082E43519F58322E4732518C582C0E0E558
:1017E3001934FFC583C0E0E518C3958224F810AF10
:1017F300088583198582188008858319858218D204
:10180300AFCEF0A3E520F0A37808E608F0A3DEFA54
:10181300EFF0A3E58124FAF8E608F0A3E608F0A3C5
:10182300E608F0A30808E608F0A3E608F0A315818C
:101833001581D0E0FED0E0F8158115811581E8C04F
:10184300E0EEC0E0222518C582C0E0E51934FFC5EB
:1018530083C0E0E518C3958224F910AF0885831986
:101863008582188008858319858218D2AFCEF0A3AC
:10187300E520F0A37808E608F0A3DEFAEFF0A3E58D
:101883008124FBF8E608F0A3E608F0A30808E608BD
:10189300F0A3E608F0A315811581D0E0FED0E0F8AF
:1018A30015811581E8C0E0EEC0E022851983851813
:1018B30082E0A3FEE0A3F5207808E0A3F608DFFAB0
:1018C300E0A3FFE0A3C0E0E0A3C0E0E0A3C0E0E04A
:1018D300A3C0E0E0A3C0E010AF0885821885831998
:1018E3008008858218858319D2AFD083D082020104
:1018F30035851983851882E0A3FEE0A3F5207808D7
:10190300E0A3F608DFFAE0A3FFE0A3C0E0E0A3C092
:10191300E0E0A3C0E0E0A3C0E010AF088582188533
:1019230083198008858218858319D2AFD083D0822A
:1019330022C0D02518C582C0E0E51934FFC583C095
:10194300E0E518C3958224F310AF088583198582D7
:10195300188008858319858218D2AFC8F0A3E9F0EF
:10196300A3EAF0A3EBF0A37908E709F0A3D8FAEC14
:10197300F0A3EDF0A3EEF0A3EFF0A3D0E0F0A3D03B
:10198300E0F0A3D0E0F0A3E520F0A3E5F0F0A3227C
:10199300851983851882E0C0E0A3E0F9A3E0FAA3E8
:1019A300E0FBA37808E0F608A3DFFAE0FCA3E0FD80
:1019B300A3E0FEA3E0FFA3E0C0E0A3E0C0E0A3E058
:1019C300F5D0A3E0F520A3E0A3F5F010AF088583DD
:1019D300198582188008858319858218D2AFD08231
:1019E300D083D0E0F8D0E032740480067402800221
:1019F3007401C0E0F404121797D0E012166D22743C
:101A030004800474028000CCC0E0EDC0E0E518C39C
:101A13009CCCAD1950011D10AF068C188D19800692
:101A23008C188D19D2AF12167AD0E0FDD0E0FC22CB
:101A3300D083D082E9C0E0E493A3C386F0C5F095D8
:101A4300F0F908E493A386F0C5F095F0700BE493E6
:101A5300A3C3994005E9048002A3E475F002A42519
:101A630082F582E5F03583F583D0E0F9E493A3C0F2
:101A7300E0E493C0E022D083D082ECC0E0EDC0E08C
:101A8300E493A3FCE493A3FDED4C600D121AC5ECA3
:101A930024FFFCED34FFFD80EFE493A3FCE493A368
:101AA300FDED4C600D121B04EC24FFFCED34FFFD37
:101AB30080EFD0E0FDD0E0FCE493A3C0E0E493C06A
:101AC300E022C0E0C3E49396087401939618400F94
:101AD300E49366700808740193661870007019A384
:101AE300A3C3E49396087401939618A3A3400DD05F
:101AF300E0D0E0D0E0021AB5A3A3A3A3A3A3D0E050
:101B030022C0E0C0F088F0E4936670080874019383
:101B130066187000A8F0A3A3700BD0F0D0E0D0E05B
:0C1B2300D0E0021AB5A3A3D0F0D0E0225D
:101B300074F5121848EAFEEBFFEE2434F8EF340097
:101B4000F988088909EE2435F582EF3400F583E041
:101B5000F8EE2437F582EF3400F583E0F50AEC85E2
:101B60000AF0A4FCAAF0850AF0EDA42AFDE82CF8FE
:101B7000E43DF97A257B001216DCEA8508828509A6
:101B800083F0F8740758F97401B900028004C33374
:101B9000D9FCFAE8131313541FF8EE28F8EF3400B9
:101BA000F9E8245DF582E93400F583E05A6008EE37
:101BB0002434F582EF802CEE2434F582EF3400F5E6
:101BC00083E0C0E0EE2436F582EF3400F583E0F5E3
:101BD000F0D0E084A8F0EE28F8EF3400F9E82438DB
:101BE000F582E93400F583E0F97F040218F474F516
:101BF000121848EAFEEBFFEE2434F582EF3400F5CC
:101C000083E0C0E0EE2435F582EF3400F583D0E0C8
:101C1000F08E828F83A3A3A3A3A3A3A3C082C083B8
:101C20008E828F83A3A3A3A3A3E0F8A3E0F9D083BC
:101C3000D082E0C398F508A3E099F509EE247FF57A
:101C400082EF3400F583E064017069EE2480F58250
:101C5000EF3400F583E0F8A3E0F98E828F83A3A32D
:101C6000A3A3A3A3A3E0FCA3E0FD8E828F83A3A381
:101C7000A3A3A3E0FAA3E0FBC3EA9CEB9D5010C32F
:101C8000EC98ED99402EC3EA98EB995027800EC34B
:101C9000EA98EB994007C3EC98ED9940177CDC7DFE
:101CA00004EEFAEFFB120BC3EE247FF582EF340053
:101CB000F583E4F0EE2434F8EF3400F9E8FCE9FDB4
:101CC000EE2435F582EF3400F583E0F8EE2437F5A5
:101CD00082EF3400F583E0F50AE508850AF0A4F503
:101CE00008AAF0850AF0E509A42AF509E82508F80C
:101CF000E43509F97A257B001216DCEA8C828D83A3
:101D0000F0F8740758F97401B900028004C333D99C
:101D1000FCFAE8131313541FF8EE28F8EF3400F917
:101D2000E8245DF582E93400F583E05A6008EE248A
:101D300034F582EF802CEE2434F582EF3400F58305
:101D4000E0C0E0EE2436F582EF3400F583E0F5F0F4
:101D5000D0E084A8F0EE28F8EF3400F9E82438F554
:101D600082E93400F583E0F912296B021BE9C08295
:101D7000C083851882851983E0F8A3E0F9C3EA9C43
:101D8000EB9D5010C3EC98ED99401BC3EA98EB997A
:101D90005014800EC3EA98EB994007C3EC98ED9974
:101DA0004004790180027900D083D08222EAC39C6A
:101DB000FAEB9DFB2274EF1218489003A2E064082E
:101DC0006005E06407702A9061C8E060249003D049
:101DD000E0F4601DE0F875F003A4C8AAF02AF974D5
:101DE000D228FE740339FF8E828F83A3A3A3E070F1
:101DF00003021EE5906060E0C0E0EE2468F582EF2B
:101E00003400F583D0E0F0750C45750D05750800BC
:101E1000750900E5D914F50AE5D95403F50E6017E4
:101E20007403650E605CE50A6010EE2467F582EFCE
:101E30003400F583E07003021ECA900540E064019F
:101E4000602AEE2482F582EF3400F583E0600478A6
:101E50000480027800850A08E508C398FA95E0FB3B
:101E6000120A8B8A088B09EA45097005120DC78092
:101E700074EE2482F582EF3400F583E070048A0C5E
:101E80008B0DE50A6012850C82850D83F50BE5D973
:101E9000F0A3150BE50B70F6EE2482F582EF34000B
:101EA000F583E0604474FC250AF50A780C1219EFFA
:101EB000AC0AA90EEEFAEFFB120C5F740212177D4A
:101EC000E97026AA08AB091212E3793D8E828F834E
:101ED000A3A3A3A3E0FA7B0012095FEEFAEFFB12C3
:101EE0000BDB120C71790080747403650E605685EB
:101EF0000A1075110078101219EFAC0CAD0DAA087C
:101F0000AB09120C3B740212177DEE2468F582EFC8
:101F10003400F583E064807004747F8001E0F50C88
:101F2000780C1219F3E50EF50C780C1219F3A90AC6
:101F3000AC08AD099003D0E0FA7B001209237402CB
:101F400012177D80139003A2E06408600BAC0CAD07
:101F50000DEEFAEFFB120CCB120DD379017F0A02C2
:101F600018F474F512184874FC121767EAFEEBFFB8
:101F70008908A2AFE433F509C2AF806AEE2463F8A2
:101F8000EF3400F97A007B00A2AFE433F50AC2AF68
:101F900088828983E0FCA3E0FDEC4D603A88828969
:101FA00083E0FAA3E0FB8A828B83E0FCA3E0FD8858
:101FB000828983ECF0A3EDF08A828B83E4F0A3F0B6
:101FC00088828983E0FCA3E0FDEC4D700A88828959
:101FD00083A3A3E4F0A3F0E50AA2E092AF1212E318
:101FE0009004E3E004F0EE2463F582EF3400F5831F
:101FF000E0F8A3E0F9E849603DEE2463F582EF34B0
:1020000000F583E02402FAA3E03400FBEA2402F5A1
:102010000AEB3400F50B780A1219EF8A828B83E001
:10202000FCA3E0F9EEFAEFFB120BFF740212177D2E
:10203000E97003021F7C9004E3E060639004E4E035
:10204000F89004E3E0C398500C7402650870509057
:1020500004E5E0604A8E828F83A3A3A3A3E08518E2
:1020600082851983F0A3E4F09004E3E0F87402128F
:1020700017D0E8F0A3E4F09004E3E0F89004E2E085
:1020800028F074021217D0AC82AD838518828519AE
:1020900083AA82AB83790112092F9004E3E4F0E56F
:1020A00009A2E092AF740412177D021BE900000040
:1020B0008521878522C622C0E0C0D0E8C0E0E9C003
:1020C000E0EAC0E0EBC0E0ECC0E0EDC0E0EEC0E074
:1020D000C008C009C00AC00BC082C083C0F0A2AF54
:1020E000E433FEC2AF759B00906182E0A2E0501223
:1020F000E591A2E0500C7591FE7401652170031208
:102100001DB5E0A2E55051E591A2E5504B7591DF78
:102110009003A2E064076005E06408702374016521
:1021200021703579019003D0E0FA75F003A4CAA8B4
:10213000F028FB74D22AFA74033BFB121F6280184A
:10214000E0640D70139003C4E004F064287002E4AE
:10215000F07A00E0F9120DD9906182E0A2E6400326
:102160000221FEE591A2E640030221FE7591BF9097
:1021700003A2E064057008120D01120D0D80031218
:102180000D07752100120D67E99003A3F079001285
:102190000D5B120B397A017B009003A1E0F912105C
:1021A00031907803E064427055900544E014F0707B
:1021B0004DC2AF1221B600782AD0E0F618D0E0F672
:1021C000E59F540770057509FF800375097FC4C03A
:1021D000E07829E6F50808E65509F509740B780852
:1021E000121745D0E02508F8906270E0A2E740F8A9
:1021F000E8C333906272F0906270E0D2E0F09061D8
:1022000081E0A2E35009E5E9A2E3500375E9F7A3F1
:10221000E0A2E75009E591A2E7500375917FEEA295
:10222000E092AFD0F0D083D082D00BD00AD009D0CA
:1022300008D0E0FED0E0FDD0E0FCD0E0FBD0E0FA3A
:10224000D0E0F9D0E0F8D0D0D0E032C0E0C0D0C0CB
:1022500082C083906183E0A2E05009E5BFA2E05014
:102260000375BFFEE0A2E15009E5BFA2E15003758E
:10227000BFFDE0A2E25009E5BFA2E2500375BFFB3B
:10228000E0A2E35009E5BFA2E3500375BFF7E0A267
:10229000E45009E5BFA2E4500375BFEFE0A2E550AA
:1022A00009E5BFA2E5500375BFDFE0A2E65009E5EE
:1022B000BFA2E6500375BFBFD083D0828088C0E044
:1022C000C0D0E8C0E0E9C0E0EAC0E0EBC0E0ECC0AC
:1022D000E0EDC0E0C0F0E5A7A2E6500FE5A1A2E660
:1022E000500953A7BF75A1BF122323E5A7A2E5504C
:1022F0000CE5A1A2E5500653A7DF75A1DFE5A7A273
:10230000E15009E5A1A2E1500375A1FDE5A7A2E214
:10231000500CE5A1A2E2500653A7FB75A1FBD0F03B
:1023200002223474F81218487521019003A2E06467
:10233000067015120C8F8A828B83A3A3A3A3A3A379
:10234000E0FAA3E0FB120CEFA2AFE433FED2AF90B1
:1023500003A8E0640170187A207B009003A1E0F9E3
:102360001210BB7A207B009003A1E0F91210379085
:102370006182E0D2E6F0900541E0602185C62280CE
:10238000169003A7E064017008E5C654F84405F50B
:10239000C653BEFC1220B07401652160E4EEA2E0D9
:1023A00092AF7F010218F4008E238F248582288546
:1023B0008327851882851983E0CEA3E0CF85288204
:1023C000852783EBC9EAC8EDCBECCA75F010C3E8EA
:1023D00033C8E933C9EA33CAEB33CBC3EA9EF526E7
:1023E000EB9FF525B35004AB25AA26EC33CCED3397
:1023F000CDD5F0DAAE23AF242274E912184874F870
:10240000121767851882851983ECF0A3EDF08A080E
:102410008B099003A2E024F7C394055006750801C8
:10242000022590120C8F8A0A8B0BAE0AAF0BEE4F6F
:10243000700302258DAC08AD0974021217D0AA8270
:10244000AB83120D1F8E828F83A3A3750CFF750DB6
:10245000FF750EFF750F00780C121611740212171B
:10246000D07510FF7511FF7512FF751300781012EB
:102470001611780C7910121436502A780C79101233
:1024800015D67508017509C8750A00750B0078081E
:10249000790C1214365052850C08850D09850E0AE8
:1024A000850F0B80507514017515C87516007517CA
:1024B0000085100885110985120A85130B780879A3
:1024C0000C1215D678147908121436401C750800C1
:1024D000750900750A00750B01780879101215D678
:1024E0007808790C12159D800C7508017509007526
:1024F0000A00750B007409780812157E750C19F521
:102500000DF50EF50F7808790C1214F58E828F8375
:10251000A3A3A3A3A3A3E0F8A3E0F97AD07B0312BB
:1025200016DC880C890DE4F50EF50F7808790C128D
:10253000159D74061217D0E0F8A3E0F97AD07B035A
:102540001216DCE8FA8A0CE4F50D7808790C1214FE
:102550003650077808790C1215D69003A2E064086B
:10256000600AE064066005E06405702D750C0D7866
:102570000C79081214364021750CF4750DFF750E98
:10258000FF750FFF7808790C12159D800C750800F7
:10259000750900750A00750B00851882851983E09E
:1025A000F8A3E0F58388827808121646740812179B
:1025B0007D7F100218F474F7121848120D3190053F
:1025C0003FE064017010906245E4F0A3F053F4F32F
:1025D00043FE0C5390F3120CDDE5C654804449F5DC
:1025E000C6E59E547F644970F8906185740FF09041
:1025F000053DE0F47002A3E0604E90053EE0600807
:1026000014601B14602E8040750801750900900548
:102610003DE07808121754E508F45280802A7508C6
:102620000175090090053DE07808121754E508F49B
:102630005290801475080175090090053DE07808F6
:10264000121754E508F452A079007F020218F474BE
:10265000F7121848E9FEEAFF74016E700C7A807B6D
:10266000009003A1E0F91210319029CCE493F460BA
:1026700008E493F9120B2D800953C680E59E547F20
:1026800070FA120CE390053FE064017003120B45F1
:1026900090053DE0F47002A3E0604B90053EE060E1
:1026A0000814601A14602C803D75080175090090AB
:1026B000053DE07808121754E50842808028750827
:1026C0000175090090053DE07808121754E50842AD
:1026D00090801375080175090090053DE078081297
:1026E0001754E50842A0120D31120C8F8A088B098D
:1026F000A808A909E8496015E5E170FCE82414F58B
:1027000082E93400F583E0F46003E0F5E174016FE1
:10271000700A7A019003A1E0F912108502264A742A
:10272000ED1218488A088B098C0A8D0B7413121746
:10273000D0780C1216377808790C121436751001FF
:102740007511C875120075130050127808790C12B3
:1027500015D67810790812143650168010780C7936
:10276000081215D67810790C1214364004790180BD
:102770000279007F0C0218F474ED1218488A088B55
:10278000098C0A8D0B74131217D0780C1216377837
:102790000C790812143640117808790C1215D6AA53
:1027A00008AB09AC0AAD0B802275100075110075DD
:1027B00012007513017810790C1215D6781079086B
:1027C00012159DAA10AB11AC12AD1380A68A828B94
:1027D000837508FF7509FF750AFF750B00780812ED
:1027E00016247F040218F474F51218488C828D8325
:1027F00078081216378A828B8378081215EAEA2441
:1028000004F8EB3400F98C828D83A3A3A3A3E0FC2E
:10281000A3E0FD88828983C3E09CF0A3E09DF0885B
:10282000828983C3E09420A3E0944E40268A828B61
:10283000837508FF7509FF750AFF750BFF7808128D
:1028400015C38A828B83A3A3A3A3E02420F0A3E073
:10285000344EF00227CD74F5121848E9FE9004F7C3
:10286000E0FAA3E0FBEEC333F8E433F9743D28F556
:1028700082748239F583E02AF508A3E03BF50978F4
:10288000081219EF7A407B427C0F7D001223A87456
:102890000212177D8A088B098C0A8D0B7410780838
:1028A000121565AA08AB097F040218F474F1121816
:1028B000488A0C8B0D8C0E8D0F740F1217D0E0FA16
:1028C000A3E0FB74111217D0E0F508A3E0F5097836
:1028D000081219EFEA2401F508EB3400F509E4F5D4
:1028E0000AF50B780C7908121475750871750902D0
:1028F000780C7908121475AA0CAB0DAC0EAD0F1242
:1029000023A8740212177D8B09EA450960047A0135
:1029100080027A00EC2AFCED3400FD74131217D00B
:10292000E0F8A3E0F9E8FEE9FFECF8EDF97A717B55
:10293000021216DC880889098E828F8378081216A5
:1029400046ECF8EDF97A717B021216DC8A088B09E5
:10295000740578081217548E828F83A3A3A3A3E56E
:1029600008F0A3E509F07F080218F4C082C083E9EB
:10297000906000F0D083D08222C2AF02000022C05B
:10298000E074F2121934A2AFE433FED2AFE589A2AB
:10299000E0500312124D758900C2C5751A00EEA2EF
:1029A000E092AF7F01021993C0E0C0D0E8C0E0E937
:1029B000C0E0E5A8D2AFC2C7751A00A2E7A2E792AD
:1029C000AFD0E0F9D0E0F8D0D0D0E032FFFFFFFF89
:1029D000FFFFFFFFC082C083E9900BE8F0022C6389
:1029E00074F71217DCE99002E1F07C197D037AFF9D
:1029F0007BFF1208759002E274FFF0A3F0A3E4F0ED
:102A0000A3F079051207FD9002E1E0F912071F7AA1
:102A1000937B08120A3D7F010218AE74F41217DC92
:102A20008A088B09EB548060309002E1E0F91210C3
:102A3000198A0A8B0BAE0AAF0BEE4F60138E828F92
:102A400083E064B07003120815EEFAEFFB12100772
:102A5000AA08E5096480FB80047A007B00022C321E
:102A600074F21217DC74FC121767EAFEEBFFEE4FEC
:102A7000603874021217D0EEF0A3EF122E97ECF02C
:102A8000A3ED122E97AA82AB83120719E9F50870FD
:102A90007374121217D0123A4BE50A450B60658E1B
:102AA000828F83122B0EEE4F700575080280557AC7
:102AB000067B0012106D8A0C8B0DA80CA90DE8493D
:102AC0007005750813803D88828983E4122B18A352
:102AD000A3EEF0A3EF123EE4E50AF0A3E50BF090BD
:102AE00002E7122BA09002E76017E0FCA3E080034E
:102AF000EAFCEBFD8C828D83122BA070F38C828D0F
:102B000083123970A908740412177D0240E6A3A34A
:102B1000A3A3E0FEA3E0FF22F0A3F0888289832232
:102B200074F21217DC890AE975F017A4FEAFF09071
:102B300002E6E4F09002E4122BA0600A12107390F7
:102B400002E4E4F0A3F0EEFAEFFB12106D8A088BBA
:102B500009EA4509602FEEFCEFFD7900120FEF90B6
:102B600002E4E508F0A3E509F07B008008122B8A57
:102B7000E4F0A3F00BEBC3950A40F2E50A9002E6FD
:102B8000F07900800279130240E6EB75F017A4F8A3
:102B9000A9F09002E4E028FAA3E0398A82F58322C2
:102BA000123706EA4B2274F41217DC750800750917
:102BB00000740C1217D0123EB8FEE9FF800CE50835
:102BC0002401F508E5093400F509C3E5089CE50989
:102BD0009D503285080A85090B7403780A12175430
:102BE000EA250AF8EB350BF988828983A3A3A3A30E
:102BF000A3A3123A4BEE650A7003EF650B70BFE8B2
:102C0000FAE9FB80047A007B00802774F41217DC59
:102C10007900EAA2E0501B75081375098478081240
:102C200019EF7C047D007AEA7B0B1207F77402121D
:102C3000177D7F040218AEC082C0839002E7122C79
:102C40006A601C88828983A3A3E06A7003A3E06B97
:102C50008882898370E8A3A3A3A312370280047A31
:102C6000007B00D083D0820201351241B9E84922AD
:102C700074EE1217DC74FC121767EAFEEBFF85187E
:102C800082851983E4F0A3F0EE2402123954EE2475
:102C900005122E85EE2404F50EEF12326AE024FEB2
:102CA000603924FC604624FE605224FE605E24FEEF
:102CB0007003022D8A24FE7003022E0224FE70038C
:102CC000022E1124FE7003022E2024FC7003022E1B
:102CD0002F24FE7003022E3E022E7B9003007417F9
:102CE000F0A3E4122E9F120497022E7B8518828592
:102CF0001983AC82AD8312081B022E4B8518828586
:102D00001983AC82AD83120821022E4B850C0885F5
:102D10000D0974021217D0AC82AD83850882850933
:102D20008312370212073D8A0C8B0DAC0CAD0DECF3
:102D30004D6042E4F50CF50D780C1219EF750C009E
:102D4000750D03780C1219EF750C01750D03780CD5
:102D50001219EF74081217D0121A0679161236FCDF
:102D600012085D740812177DE9F50C700B1236F825
:102D70001204AF800F750C01850882850983122E1D
:102D80008D123970850C08022E4E74021217D0ACC9
:102D900082AD83850C82850D8312370212073D8A2E
:102DA000108B11AC10AD11EC4D6043850C82850D7C
:102DB00083A3A3121A067510007511037810121957
:102DC000EF75100175110378101219EF74081217BE
:102DD000D0121A0679161236FC12085D7408121702
:102DE0007DE9F509700B1236F81204B5800F7509EC
:102DF00001850C82850D83122E8D1239708509088C
:102E0000804C851882851983AC82AD831208278097
:102E10003A851882851983AC82AD8312082D802BE8
:102E2000851882851983AC82AD83120833801C8596
:102E30001882851983AC82AD83120839800D8518FC
:102E400082851983AC82AD8312083FE9F508E50855
:102E500060298E828F83A3E06414601F850E8285B3
:102E60000F83E0900300122E971241B590030112D8
:102E70003970E508A3122E9F120491EEFAEFFB12AF
:102E800007BB02385CF50CEF3400F50D221241B996
:102E900085188285198322F085188285198322F08E
:102EA0007C007D03850A82850B831237062274EE2F
:102EB0001217DC74FC1217678A0A8B0B8C0E8D0FAD
:102EC000EA2405F508EB3400F5097C157D0079004E
:102ED0007A007B03120FEFE5082402F50CE50912D6
:102EE0002E88851882851983858210858311781034
:102EF0001219EF850882850983A3A3A3A31233B215
:102F00001219EFE5082405F510E5093400F51178EC
:102F1000101219EF850C82850D8312370C120737BA
:102F2000740612177D8A108B11AE10AF11E50A24BA
:102F300002F50AE50B123957EE4F70030230748028
:102F40001774021217D012370288828983EAF0A31D
:102F5000EBF0900300E004F0900300E0C394054020
:102F600003023074E4F510F51178101219EF7510A2
:102F7000E975110278101219EF7510EA75110278CF
:102F8000101219EF74061217D0121A067910EEFCFF
:102F9000EFFD1236FC12085D740812177DE9705EB1
:102FA000850882850983A3A3A3A3A3A3A3E0F89024
:102FB00002E9E06870481233B21219EF7CEA7D0230
:102FC000E5082408FAE5093400FB120FE97402123F
:102FD000177DE960298E828F83A3A3A3A3123702F2
:102FE000900300E0F5107402781012175474012554
:102FF00010F58274033511F583EAF0A3EBF0740247
:103000001217D085821085831178101219EF74027F
:103010001217D0121A06850C82850D831241CA122E
:103020000743740412177D8A108B11AE10AF1190F4
:103030000300E0F510751100740278101217547433
:10304000002510F874033511F988828983A3122BA7
:10305000A07003022F38E82403F8E93400F9EE4F9A
:103060006003022F418882898374FFF0A3F09003EC
:1030700000E004F0900300E0600A1236F81204A3A6
:103080007900800B850882850983123967790A02E5
:10309000385C74EA1217DC74FE1217678C128D13F9
:1030A000EA2405F50CEB124334122B127508007557
:1030B0000900EA2402F510EB3400F5118518828529
:1030C000198385820A85830B780A1219EF850C8291
:1030D000850D83A3A3A3A31232741219EFE50C2468
:1030E00005F50AE50D123957780A1219EF850C8299
:1030F000850D831241C8120737740612177D8A0A9C
:103100008B0BEA450B7003023225EA2404F50EEB23
:1031100012326A122B128A828B83A3A3A3E0F98551
:103120001082851183123702120725E9F509600321
:10313000023225E4F514F51578141219EF7514E927
:1031400075150278141219EF7514EA7515027814C2
:103150001219EF74061217D0121A067913AC0AADC1
:103160000B85108285118312370212085D740812D4
:10317000177DE9F50960030232259002E9E0F8E5E0
:10318000087009E02402900301F08017900301E029
:10319000FCE82402FAE43400FBEA6C7001EB600303
:1031A000023229850882AA821233A994141233A10B
:1031B0005073850E82850F83E0C0E074022A1232BC
:1031C00061D0E0F00508850E82850F83A3E0C0E0A2
:1031D00085080A7402250A123261D0E0F0050890D1
:1031E00002E91232741219EF7CEA7D0285080A7432
:1031F00002250AFA74033400FB120FD77402121767
:103200007D9002E9E02508F50874FF6E700374FFF5
:103210006F6012EE24010EEF3400FFE508C3941432
:1032200050030230BCE50860131235ED851082852D
:1032300011831237021204A979008014E509700382
:1032400075090A851282851383EEF0A3EFF0A909B0
:10325000740212177D7F0E0218AE85080C740225C9
:103260000CF58274033400F583223400F50F850ECB
:1032700082F58322123EF72274EE1217DC74FE12DE
:1032800017678C0E8D0FEA2405F50CEB122E88754E
:103290000B00900300E4F0F50AEA2402F508EB3491
:1032A00000F5098049900300E0FA9002E9E0F81285
:1032B00033A994171233A1400D900300E0F874165F
:1032C000C3989002E9F01233B21219EF7CEA7D0242
:1032D00074012AFA74033400FB120FD77402121718
:1032E0007D9002E9E0F8900300E028F0050AE50C83
:1032F0002416F582E50D123265E0F8E50AC3984020
:103300000302338A900300E0C39416507DE50AC39C
:1033100033F8E433F9E50C28FEE50D39FF85188212
:10332000851983AC82AD838E828F83123702120798
:103330003D8A108B11AC10AD11EC4D7005750B0171
:103340008043E4F510F51178101219EF7510E97546
:10335000110278101219EF7510EA75110278101227
:1033600019EF74061217D0121A067916850882858D
:10337000098312370212085D740812177DE9F50BF4
:1033800070030232A512396380107C007D0385082A
:10339000828509831237021204BBA90B740202381A
:1033A0005EE99400C365D03322EA28F8E43400F9DA
:1033B000E822E0F51075110078102274EA1217DC8B
:1033C00074FC1217678A0C8B0D8C128D13EA24057E
:1033D000F50AEB123957750800750900E50A240251
:1033E000F510E50B3400F51174021217D085820E2A
:1033F00085830F780E1219EF850A82850B83A3A3AC
:10340000A3A3123EA31219EFE50A2405F50EE50B5E
:103410003400F50F780E1219EF8510828511831292
:10342000395D1236FC120737740612177D8A0E8B2F
:103430000FAE0EAF0FE50C2402F50EE50D3400F5CE
:103440000F80408882898374FFF0050812325A7415
:10345000FFF005089002E9E0F50C750D00780C12FC
:1034600019EF7CEA7D0285080C7402250CFA7403BE
:103470003400FB120FD7740212177D9002E9E02589
:1034800008F508EE4F60718E828F83A3A3A3E0F945
:10349000850E82850F83123702120725E9F509EEA2
:1034A0002404122E85E97044E4F514F515781412FD
:1034B00019EF7514E975150278141219EF7514EAED
:1034C00075150278141219EF74081217D0121A0623
:1034D0007911EEFCEFFD850E82850F831237021203
:1034E000085D740812177DE9F5096027850C82854F
:1034F0000D831235E3123970E50870030235C912E5
:1035000035ED850E82850F831237021204C17900D2
:103510000235DE850882AA82EA9002E97009E02479
:1035200004900301F08022E0F8900301E0F514E834
:103530002404FCE43400FDEC65147001ED70C0124D
:1035400033A994121233A150B6850C82850D83E005
:10355000C0E074022A123261D0E0F00508850C82C6
:10356000850D83A3E0C0E012325AD0E01235FF850A
:10357000820C85830D780C1219EF74041217D01287
:103580001A068510828511831241CA1207437404FA
:1035900012177D8A0C8B0DAE0CAF0D85080C7402D2
:1035A000250CF874033400F9EE4F700302344385A0
:1035B0001882851983E0888289831235FFA3E0C0D1
:1035C000E012325AD0E0023451E509700375090A5D
:1035D000850A82850B831235E3123970A9097404B8
:1035E0000232521241B9851282851383229003015F
:1035F000E0F5F0E50884900300F07C007D0322F004
:1036000005088518828519832274EC1217DC74FE74
:103610001217678A088B098C0E8D0FEA2405FEEBC2
:103620003400FF851882851983AC82AD838E828F2A
:103630008312370212073D8A0A8B0BEE2418122ED2
:1036400085EA450B70030236D3123845503285188F
:10365000828519831237021208518A108B11EA45AC
:1036600011606B7912AC0AAD0B8508828509831253
:1036700037028510828511831217DAE9F50A70582E
:10368000E4F50AF50B780A1219EF8E828F83A3A353
:10369000E0F50A780A1219EFEE2403123954780A79
:1036A0001219EF8E828F8312370C12086374061280
:1036B000177DE9F50A7021850C82850D83E0701F66
:1036C0008508828509831237021204C78011750AA2
:1036D0000E8009750A018004E50A600312396385CA
:1036E0000C82850D83E0600479008002A90A7402CF
:1036F00012177D7F0C0218AE7C007D03850A82853F
:103700000B8312370622E0FAA3E0FB22E0FCA3E0E1
:10371000FD8508828509831237062274EE1217DCB4
:1037200074FE1217678A088B098C0C8D0DEA24052C
:10373000FEEB3400FF750E00851882851983AC827C
:10374000AD838E828F8312370212073D8A0A8B0B5C
:10375000EA450B700302383112384550358518821E
:103760008519831237021208518A0E8B0FEA450F12
:10377000605E7912AC0AAD0B850882850983123729
:1037800002850E82850F831217DAE9F50E600302B7
:103790003834850882850983123A4BAA0AFB12083D
:1037A000458A108B11A810A911E849701E7AFF7B79
:1037B000FF1208458A108B11A810A911E849606C06
:1037C00088828983E50AF0A3E50BF0750A0080077B
:1037D000750E0E805F050A9002E6E0FAE50AC39ACC
:1037E000504AE50A75F017A4FAABF088828983A3E2
:1037F000A3E02AFAA3E03BFB8A828B8312395DECBB
:103800004D70D2750A17750B00780A1219EFEEFC8D
:10381000EFFD120FD7740212177DEEFCEFFD850845
:10382000828509831237021204CD8014750E098037
:1038300003750E011241B1850C82850D831239701A
:10384000A90E02339CE5082402F508E5093400F5C9
:10385000098A828B83A3A3A3E0A2E5227404121732
:103860007D7F0A0218AE74EC1217DC8C108D11EA01
:103870002405F50CEB122E88750F00EA2402F50AD8
:10388000EB123957850A82F5831237021208458AEE
:10389000088B09EA45097003023949750E008071E9
:1038A000850C82850D83E06401704F8E828F83A327
:1038B000A3121A068E828F83A3A3A3A3E0F5127529
:1038C000130078121219EFEE2405F512EF3400F50B
:1038D0001378121219EF1236FC12086374061217CD
:1038E0007DE9F50F6014850C82850D83E4F01241AB
:1038F000B18510828511831239707C177D007900A3
:10390000EEFAEFFB120FEF8E828F83E4F0A3F00547
:103910000E9002E6E0F8E50EC398501EE50E75F035
:1039200017A4F8A9F0850882850983A3A312433E52
:1039300012395DEC4D60030238A085088285098349
:1039400074FFF0A3F0E50F70061236FC1204D3A941
:103950000F0236F3F50AEF3400F50B22A3E0FCA3C7
:10396000E0FD228E828F831241B9850E82850F83FE
:10397000E8F0A3E9F022C082C0839002E2E06A701E
:1039800003A3E06B70067AE27B0280047A007B007E
:10399000022C63C082C08378008C828D83E06A70C1
:1039A00003A3E06B7010E875F003A4F8A9F0EC280D
:1039B000FAED39FB8015088C828D83A3A3A3E06AFE
:1039C0007003A3E06B60DF7A007B00022C6374F667
:1039D0001217DC12080F8A828B83E58245837006FA
:1039E0007A007B008007A3A3A3A3123702024062E0
:1039F00074F21217DCE9FE740E1217D0123A4B74EF
:103A0000101217D0123EC38C828D83E06402703690
:103A1000A31241BFF50CA3E0F9A80C74026870036F
:103A20007429697021750C02750D00780C1219EF5C
:103A300078081219EF780A1219EFEEF91208877454
:103A40000612177D800279010240E6E0F50AA3E044
:103A5000F50B2274E81217DC74FB121767E985185E
:103A600082851983F08A168B17ECFEEDFF75100026
:103A7000741D1217D01241B5741D1217D01239706F
:103A80008E828F83A3A3A3E0A2E4502D741D12178E
:103A9000D01237021208518A828B83E582458370E7
:103AA00003023E94790AEEFCEFFDAA16AB1712173B
:103AB000DAE9F5106003023E97741F1217D0123E28
:103AC000C374211217D0123A4B74231217D0E0F5A9
:103AD0000EA3E0F50F8E828F83E064026003023E46
:103AE00042A31241B5850882850983A38582128588
:103AF0008313EE2406122E8588828983E0FAA3E0E0
:103B0000F9EA2400F514E439F5157814121A79014C
:103B10000000280128373B07000228FC3B032869E6
:103B20003B0029333D01295E3D0229FF3C03293337
:103B30003D0429DD3D423EE50E450F6003023E3D5A
:103B4000850C82850D83123EB8FAE9FB8A828B834D
:103B5000E0850A82850B83123EEE1219EF8A828B72
:103B600083A3E0FCA3E0023DC7E50E450F6003021E
:103B70003E3D850A82850B837401F0123ECB850899
:103B800082850983F07C007D008E828F83A3A3A3AE
:103B9000A3E02401FAA3E03400FB12073DEA4B60E6
:103BA000418A828B83E02402F8850A82850B83E0B8
:103BB00028F0EA2404F8EB3400F988828983E08550
:103BC0001282851383123F00123EEE1219EF8A8291
:103BD0008B8312395CE5082403FAE5093400FB0203
:103BE0003DCC850A82850B83E02404F07C047D00B3
:103BF0007900AA12AB13120FEF023E97E50E450FA4
:103C00006003023E3D123ECBFEA3E0FF850A8285A3
:103C10000B837404F0EE850882850983F0EF85122A
:103C200082851383F074031217D0AC82AD83EEFA51
:103C3000EFFB12073D8A0C8B0DEA450D7003023C29
:103C4000E08A828B83A3A3122B0E74011217D085F6
:103C5000820E85830F780E1219EF74051217D01299
:103C60001A067CFF7DFF120743740412177D8B0F29
:103C7000EA450F7033850C82850D83123EA312191D
:103C8000EF850C82850D83A3121A067C027D007AD3
:103C9000ED7B8412056F740412177DE9700A7401BC
:103CA0001217D074FFF0A3F08E828F83E06402704D
:103CB00039750C02750D00780C1219EF8E828F8306
:103CC00012395CE5082404FAE5093400FB120FD729
:103CD000740212177D850A82850B83E02402800915
:103CE00074011217D0EEF0A3EFF074011217D01286
:103CF0003EB4F074011217D0A3123EAC023E37E579
:103D00000E450F6003023E3D850C82850D831239FE
:103D10005DAA16AB1712087B850A82850B83740295
:103D2000F0EA850882850983F0851282851383EB8A
:103D3000023E3AE50E450F6003023E3D123ECBF8CF
:103D4000A3E0F9850A82850B837402F0E885088276
:103D5000850983F0E9851282851383023E3A850C3A
:103D600082850D83123702120FD1EAFC8C82A88261
:103D7000C3950EE4950F405FE8650E7002E50F7085
:103D8000047C008022851882851983E0FAE50E2ADA
:103D9000FAE50F3400FBC3EA98EB94005003E0808F
:103DA00005E50ECCC39CFCEC850A82850B83F08C68
:103DB0000A750B00780A1219EF850C82850D83E0D5
:103DC000250EFCA3E0350FFDAA08AB09120FD7742E
:103DD0000212177D023E97751007023E97E50E45C9
:103DE0000F705A850C82850D831241B5850A828534
:103DF0000B837407122B1A123EAC122B1AA3E08508
:103E00001282851383F0E82402FAE93400FB8A82E7
:103E10008B83123EAC123EDB123EB4A3123EE41280
:103E20003EBDF0E82405F8E93400F9888289831260
:103E30003EBDA3123F00A3A3A3A3F0805A75100BAD
:103E40008055741D1217D012370212080F8A828B08
:103E500083E5824583603D1241B5880C890DE845B4
:103E60000D6031780E1219EF780A1219EF780812E6
:103E700019EF74061217D0E0F9EEFCEFFDAA16ABAD
:103E800017850C82850D831217DA740612177DE9E7
:103E9000F510800375100EA910740512177D7F10A0
:103EA0000218AEE0F50E750F00780E22E08508824C
:103EB00085098322123F0A221241B9E822123F0AE1
:103EC000A3A322E0F508A3E0F50922850C82850D65
:103ED00083E0F8A3E0F5838882E022A3A3F08A823E
:103EE0008B83A322F088828983A3A3A3A322F08AD1
:103EF000828B83123EF722E0F50A750B00780A22C6
:103F0000F088828983A3123F0A22E085088285090E
:103F100083A3A32274EE1217DC74FE1217678A0AB9
:103F20008B0BECFAEDFB74141217D0E0F510A3E044
:103F3000F51174161217D0E0FE74181217D0E0F5C0
:103F40000EA3E0F50F851882851983AC82AD83122C
:103F5000073D8A0C8B0DEA450D604985188285194D
:103F60008312370212080F8A828B83E582458360B1
:103F70002FA3A3123EC3E50845096024780E121949
:103F8000EF78101219EFEEF9AC0CAD0DAA0AAB0BDD
:103F90008508828509831217DA740412177D80065A
:103FA000790E8002790102339C74F61217DC74FEDC
:103FB000121767740C1217D0123EB8851882851933
:103FC00083F074011217D0E9F0E4F508F5097808D8
:103FD0001219EF75080278081219EF74041217D03D
:103FE00085820885830978081219EF120863740620
:103FF00012177D740212177D806874F71217DCEABD
:10400000FEEBFF89087C197D0312087BEA540260ED
:104010000BA908EEFAEFFB12073180027901022AA0
:104020001674F61217DC74FF6A700374FF6B701657
:104030008C828D83124067E4F08C828D83A3A3A3CE
:10404000124067A3801812084B8A088B09A808A998
:1040500009E849600D8882898374FF122B18A3A395
:10406000E4F07F020218AE74FFF0A3F08C828D831F
:10407000A3A32274F61217DC12084B8A828B83E505
:104080008245836006A3A3E0FA80027A007B008069
:10409000D174F21217DC8A088B09ECFEEDFF740E66
:1040A0001217D0E0F50A12084B8A0C8B0DA80CA948
:1040B0000DE8497026EEFCEFFD7AFF7BFF12084BFE
:1040C0008A0C8B0DA80CA90DE84970047911801693
:1040D00088828983E508F0A3E509F088828983A3B3
:1040E000A3E50AF079007F060218AE74EE1217DC21
:1040F000EAFEEBFF8C088D09890C74141217D0129C
:1041000041B574161217D0123702750D00E84960D8
:10411000030241A97402650C60030241A4741212E7
:1041200017D01241BFFCA3E0F9EC2400F50EE439EE
:10413000F50FEAF4F8EBF4F9EC58F8E50F59F9E863
:1041400049705CE5082406F8ED3400F9880A890B0B
:104150008882F5831241CA12087B8A108B11E50E02
:1041600065107004E50F65116042780E1219EF8535
:104170000A82850B831241CA120881740212177DCC
:10418000E9F50D7027780E1219EF850882850983ED
:10419000A3A31241C8120899740212177D800D75ED
:1041A0000D808008750D0D8003750D0BA90D02386B
:1041B000618E828F831241B922E0F8A3E0F92212C6
:1041C00041B988828983E022A3A3E0FCA3E0FDEE4D
:1041D000FAEFFB2274E81217DC74E71217678518F0
:1041E00082851983EAF0A3EBF08C168D17890E7582
:1041F000080075090074311217D0E0F512A3E0F53C
:104200001374331217D0E0F514A3E0F515743512CA
:1042100017D0E0F50FE50975F003A4F8A9F08518AB
:104220008285198312433EE0F47003A3E0F4700327
:10423000024321EE2402F50CEF124334E070030236
:10424000432185160A85170B780A1219EFAC14ADB5
:1042500015AA12AB13120803740212177D8A0A8B77
:104260000BEA450B7003024321E4F510F5117810B9
:104270001219EF74061217D08582108583117810F9
:104280001219EF74091217D08582108583117810E6
:104290001219EF851282851383A3A3A3A3121A0612
:1042A0007914AC0AAD0B8E828F8312370212085D2F
:1042B000740812177DE97069850A82850B83A3A3B0
:1042C000A3A31241B574021217D0123970850C8263
:1042D000850D83E0A2E05018A90E74021217D0AC2D
:1042E00082AD838E828F83123702120755E942080E
:1042F000850C82850D83E0A2E15026E50FF50A7852
:104300000A1219F3A90E74031217D0AC82AD838E72
:10431000828F8312370212074F740112177DE94210
:10432000080509E509C394025003024215A908745F
:1043300019023E9B3400F50D850C82F58322E0289E
:10434000FEA3E039FF8E828F832274F21217DCEA1B
:10435000FEEBFF890B7401650B600E7402650B7038
:104360006A7901120A5BE97062EEFAEFFB12084506
:104370008A088B09EA45096047750A00800B7C179B
:104380007D007900120FEF050A9002E6E0F8E50AD9
:10439000C3985021E50A75F017A4F8A9F0850882A2
:1043A000850983A3A3E028FAA3E039FB8A828B83E3
:1043B000122C6A70C985088285098374FFF0A3F006
:1043C0007C197D03EEFAEFFB1208750240E674F2E9
:1043D0001217DC8A088B09ECFEEDFF740E1217D061
:1043E000123A4B900BE8E0F4603D7A097B00121022
:1043F00001EA4B60328A828B8374B1F0A3E4123EEF
:10440000DDA3123EDBA3E508F0A3E50912442AEE82
:10441000F0A3EF12442AA3A3E50AF0A3E50BF09062
:104420000BE8E0F912100D0240E6F08A828B83A3BC
:10443000A3A3A3A322C082C0839061907404F0A3BD
:104440007448F0A37402F09061807440F09061BCF5
:104450007403F09061877419F0906265741BF0909A
:104460006249E0C3941390619C400A7409F0906023
:104470006674018007740DF0906066E4F090619AB4
:104480007433F0A37455F09061A0743AF090053F36
:10449000E064017009C2919003A6746780059003DF
:1044A000A67461F09029D2E493906186F09029CCB3
:1044B000E493F46027E493540FF8906185E068601A
:1044C00012E5C654804449F5C6E59E547F644970A0
:1044D000F8E8F053C680E59E547F70FA7905120D16
:1044E000BB024690C082C083E9540FF9906185E019
:1044F000696012E5C654804449F5C6E59E547F6460
:104500004970F8E9F053C680E59E547F70FA024680
:1045100090C082C083E5A8F853A87E906181E4F042
:10452000A3F0A3F0C2BA539AFEC289759B00C2C21F
:1045300075E90075910075BF0075A91175B90590F1
:104540006181F0A374C0F0A3E4F0D2BA439A01747D
:10455000805842A8024690C082C08374F812176740
:104560009003A4E0F8A3E0F9E849700302468590BF
:1045700003A4E0544060237908851882851983AA32
:1045800082AB83120C1D851882851983AA82AB83A6
:1045900012090B9003A4E054BFF0E054806010793E
:1045A0000C7A657B05120C1D9003A4E0547FF0E0AB
:1045B000A2E0503190619A7433F0A37455F0906189
:1045C000A0743AF090053FE064017009C291900335
:1045D000A6746780059003A67461F0120911900318
:1045E000A4E054FEF0E05402603190619A743FF010
:1045F000A3745AF09061A0747FF090053FE06401CD
:104600007009D2919003A6747180059003A6746A14
:10461000F01209119003A4E054FDF0E0540460137B
:104620009029D0E493906186F01209179003A4E0DA
:1046300054FBF0E0540860139029D1E49390618614
:10464000F01209179003A4E054F7F0E0541060133F
:104650009029D2E493906186F01209179003A4E0A8
:1046600054EFF0E05420600A1209179003A4E054BC
:10467000DFF0A3E05401600D120B4512091D9003F9
:10468000A5E054FEF0740812177D024690F0A3F0E6
:10469000D083D08202013574EC1217DC74F4121747
:1046A00067851882851983AC82AD83758384758292
:1046B00080740412167A9029D093F4600302482380
:1046C000907808E0C3940250030248037404121760
:1046D000D0AC82AD837583837582D6740812167A46
:1046E00085188285198385821285831374041217B5
:1046F000D0AC82AD83750EFF750FFF7FFF7E007516
:104700000C48750D78801574086E70030247977415
:10471000096E7003024797740A6E607B850C828570
:104720000D8378081216378C828D83A909E50AC992
:10473000F8881074187808121565E5104508F8C354
:10474000E098A3E099850C82850D837808121637CE
:1047500040188C828D8374187808121565E5104511
:1047600008F8E0C398F8A3E0801C741878081215C4
:1047700065E5104508FAE9FB8C828D83E0F8A3E03B
:10478000F9EAC398F8EB99F9C3E8950EE9950F504B
:1047900006880E890FEEFF0EE50C2404F50CE50DDE
:1047A0003400F50DEEC39413500302470774FF6500
:1047B0000E700474FF650F60238F0874027808126E
:1047C000175474482508F58274783509F5837808FC
:1047D000121637851282851383E508F0EC2402FC5B
:1047E000ED3400FD851282851383A38582128583B3
:1047F00013740C1217D0E5826C7003E5836D6003AF
:104800000246F575080175090078081219EF74025F
:104810001217D0AC82AD837A747B0A12122974020B
:1048200012177D740C12177D7F0C0218AEC082C067
:10483000839061AE7468F0A3746AF090624574FB73
:10484000F0A304F053F4FD43FE0290053F7401F021
:104850009061A0E0643A90619A70237433F0A3747D
:1048600055F09061A0743AF0740164017009C2912E
:104870009003A6746780289003A674618021743F1A
:10488000F0A3745AF09061A0747FF0740164017019
:1048900009D2919003A6747180059003A6746A02F0
:1048A000468F7F080218AEC082C0839004F1E06496
:1048B00001700A9004F6E06004790C80027900022D
:1048C0004690C082C08375E1F19004F4E0605B140F
:1048D000600914605F14605714705E120B579004E7
:1048E000EAE0F97AEB7B04120D3D7AD67BBE7C8937
:1048F0007D8E120D737A557B557C557D00120D49C6
:104900009004F5E0F9120D557901120DAF9004E80D
:10491000E0F8A3E0C82416F582E83400F583746F4C
:10492000F0A3740BF07900024690120B5D80AF1279
:104930000B6380AA120B6980A5791280EA74F012C9
:1049400017DC75D90D9004D5E0A2E0E4331313F819
:104950009004EAE0C4333354C0484401F5D978E800
:10496000790488828983A3A3A3E0F5D98882898307
:10497000A3A882A983E864EE7003E9640470E37875
:10498000D5790488828983A3E0F5D988828983A3B5
:10499000A882A983E864DB7003E9640470E575E12B
:1049A000959004D5E0F97AD67B04120D43900C0A59
:1049B0007403F0A3740BF0A37465F0A3740CF0A35C
:1049C0007465F0A3740CF0A37465F0A3740CF0A3E9
:1049D0007409F0A3740BF0A37465F0A3740CF0A336
:1049E0007421F0A3740BF0900C187465F0A3740C90
:1049F000F0A37465F0A3740CF0A37465F0A3740CB9
:104A0000F0A37465F0A3740CF0A37465F0A3740CA8
:104A1000F0A37465F0A3740CF09004F4E0640190CA
:104A200004E87012E0F8A3E0F5838882A3A3750878
:104A3000007509088010E0F8A3E0F5838882A3A33D
:104A4000750804750900750A00750B0078081215C1
:104A5000B0750CFF750DFF750EFF750F00780879A6
:104A60000C1215FE9004E8E0F8A3E0C8240EF582CD
:104A7000E83400F58378081216469004E8E0F8A3BD
:104A8000E0C82414F582E83400F5837413F0900331
:104A9000A27402F00248A274F71217DC9004FAE044
:104AA0002407F5D99004EAE0C4333354C0F5D9782B
:104AB000E8790488828983A3A3A3E0F5D988828951
:104AC00083A3A882A983E864EE7003E9640470E319
:104AD0009004FAE0601F78E87904FAE82413F5827C
:104AE000E93400F583E0F5D988828983A3A882A9F7
:104AF000831AEA70E690051AE02407F5D99004EAD3
:104B0000E0C4333354C04404F5D978E8790488828A
:104B10008983A3A3A3E0F5D988828983A3A882A966
:104B200083E864EE7003E9640470E390051AE060C2
:104B30001F78E87904FAE82433F582E93400F58334
:104B4000E0F5D988828983A3A882A9831AEA70E64E
:104B500075E195900C0A740FF0A3740BF0A37465C3
:104B6000F0A3740CF0A37465F0A3740CF0A3746547
:104B7000F0A3740CF0A37409F0A3740BF0A3746594
:104B8000F0A3740CF0A37421F0A3740BF0900C1834
:104B90007465F0A3740CF0A37465F0A3740CF0A317
:104BA0007465F0A3740CF0A37465F0A3740CF0A307
:104BB0007465F0A3740CF0A37465F0A3740CF0900A
:104BC00004E8E0F8A3E0C8240EF582E83400F58399
:104BD00074FFF0A3F0A3F0A3F09004E8E0F8A3E0E2
:104BE000C82414F582E83400F5837412F09003A20F
:104BF0007401F0FF0218AE74F71217DC9004FAE0AB
:104C00002407F5D99004EAE0C4333354C04402F5D4
:104C1000D978E8790488828983A3A3A3E0F5D988A9
:104C2000828983A3A882A983E864EE7003E96404FF
:104C300070E39004FAE0601F78E87904FAE824133E
:104C4000F582E93400F583E0F5D988828983A3A849
:104C500082A9831AEA70E675E195900C0A741BF03C
:104C6000A3740BF0A3741BF0A3740BF0A3741BF0DC
:104C7000A3740BF0A3741BF0A3740BF0A3741BF0CC
:104C8000A3740BF0A3741BF0A3740BF0A37421F0B6
:104C9000A3740BF0900C187465F0A3740CF0A3745B
:104CA00065F0A3740CF0A37465F0A3740CF0A37406
:104CB00065F0A3740CF0A37465F0A3740CF0A374F6
:104CC00065F0A3740CF09004E8E0F8A3E0C8240EAB
:104CD000F582E83400F58374FFF0A3F0A3F0A3F0AD
:104CE0009004E8E0F8A3E0C82414F582E83400F565
:104CF000837414F09003A27404F0024FBE74F71290
:104D000017DC9004FAE02407F5D99004EAE0C433F4
:104D10003354C04406F5D978E8790488828983A39E
:104D2000A3A3E0F5D988828983A3A882A983E86434
:104D3000EE7003E9640470E39004FAE0601F78E821
:104D40007904FAE82413F582E93400F583E0F5D913
:104D500088828983A3A882A9831AEA70E690051A3B
:104D6000E02407F5D99004EAE0C4333354C0440486
:104D7000F5D978E8790488828983A3A3A3E0F5D9DB
:104D800088828983A3A882A983E864EE7003E9641A
:104D90000470E390051AE0601F78E87904FAE824CB
:104DA00033F582E93400F583E0F5D988828983A35D
:104DB000A882A9831AEA70E675E195900C0A741529
:104DC000F0A3740BF0A37465F0A3740CF0A37465E6
:104DD000F0A3740CF0A37465F0A3740CF0A37465D5
:104DE000F0A3740CF0A37465F0A3740CF0A3742109
:104DF000F0A3740BF0900C187465F0A3740CF0A37E
:104E00007465F0A3740CF0A37465F0A3740CF0A3A4
:104E10007465F0A3740CF0A37465F0A3740CF0A394
:104E20007465F0A3740CF09004E8E0F8A3E0C824E3
:104E30000EF582E83400F58374FFF0A3F0A3F0A32D
:104E4000F09004E8E0F8A3E0C82414F582E8340008
:104E5000F5837415F09003A27403F0024FBEC08274
:104E6000C0839004E8E0F8A3E0C82406F582E834A3
:104E700000F583E402468D74F71217DC9003D0E04E
:104E8000F875F003A4C8AAF02AF974D228F87403BC
:104E900039F9E82405FAE93400FB8A828B83E0FCC7
:104EA000A3E0FD88828983A3A3A3A3A3A3A3A3A3B1
:104EB000ECF0A3EDF088828983A3A3A3A3A3A3A30B
:104EC000E024FFF8A3E034FFF98A828B83E8F0A3A3
:104ED000E9F0024FBE74F71217DCEAFEEBFF9061B7
:104EE000D0E06003024FB275D90E75D90375D904AD
:104EF000EE248BF582EF3400F583E5822408F8E593
:104F0000833400F9E0F5D9A3E865827003E965838D
:104F100070F2EE2483F582EF3400F583E5822404F9
:104F2000F8E5833400F9E0F5D9A3E865827003E978
:104F3000658370F275E1957908EE248BFAEF340001
:104F4000FB120C117904EE2483FAEF3400FB120CEF
:104F5000117C00EEF8EFF9ECFAC3E49AFA95E0FB65
:104F6000EE2AFAEF3BFBEA248AF582EB3400F58364
:104F7000E0C0E0E824AAF582E93400F583D0E0F04F
:104F80000C88828983A3A882A983ECC3940840C7B4
:104F9000EE246FF582EF3400F583E0F8A3E0F9EE3C
:104FA0002471F582EF3400F583E8F0A3E9F079018C
:104FB000800279008008F0EEA2E092AF79007F01D4
:104FC0000218AEC082C08375D90275D90375D905A0
:104FD00075E195EA246FF582EB3400F583E0F8A3E0
:104FE000E0F9EA2471F582EB3400F583E8F0A3E9F7
:104FF000F0790102469074F61217DCEAFEEBFF909E
:1050000005457406F075084575090578081219EF0D
:105010007C017903120C59740212177D75D906753B
:10502000D903758245758305E0F5D9A3E582644A05
:105030007004E583640570F075E1959003A2E06467
:1050400008701EEE246FF582EF3400F583E0F8A3BC
:10505000E0F9EE2471F582EF3400F583E8F0A3E97E
:10506000F079010252C474F61217DCEAFEEBFF90ED
:1050700061D0E070667801900545740BF09003A252
:10508000E06407701975084575090578081219EF6D
:105090007C017903120C59740212177D7805740192
:1050A00028F5D975D903758245758305E8FAE0F5C9
:1050B000D9A31AEA70F875E195EE246FF582EF3402
:1050C00000F583E0F8A3E0F9EE2471F582EF3400F7
:1050D000F583E8F0A3E9F07901800279000252C477
:1050E00074F71217DCEAFEEBFF75D90375D9037567
:1050F000D90DEE24DDF582EF3400F583E0F5D975A6
:10510000E1957904120D79EE246FF582EF3400F504
:1051100083E0F8A3E0F9EE2471F582EF3400F58323
:10512000E8F0A3E9F07901024FBE74F61217DCEA49
:10513000FEEBFF9061D0E0F87480C398FAEE248211
:10514000F582EF3400F583E0600478048002780093
:10515000E8240BF8EAC39850030251EF7D0990054B
:1051600045EDF0EE24E2F8EF3400F97A467B057C59
:105170000888828983E08A828B83F088828983A36E
:10518000A882A9838A828B83A3AA82AB831CEC703A
:10519000E0EE2482F582EF3400F583E0601D7508AF
:1051A0004575090578081219EF7C097903EEFAEFC5
:1051B000FB120C59740212177D7D0D74012DF5D967
:1051C00075D9037582457583058D08E0F5D9A3155A
:1051D00008E50870F675E1957904120D79EE241D45
:1051E000F582EF3400F583E4F0A3F07901800279D1
:1051F000000252C474F61217DCEAFEEBFF9061D095
:10520000E0F87480C398FAEE2482F582EF3400F55A
:1052100083E06004780480027800E82408F8EAC398
:105220009850030252C27806900545740CF0900322
:10523000BFE0900546F09003C0E0900547F0900372
:10524000C1E0900548F09003C2E0900549F090035A
:10525000C3E090054AF0EE2482F582EF3400F58336
:10526000E0601B75084575090578081219EF7C0682
:105270007903EEFA120C59740212177D780A740140
:1052800028F5D975D9037582457583058808E0F539
:10529000D9A31508E50870F675E1957904120D7922
:1052A000EE246FF582EF3400F583E0F8A3E0F9EE29
:1052B0002471F582EF3400F583E8F0A3E9F0790179
:1052C000800279007F020218AE74F61217DCEAFE43
:1052D000EBFF9061D0E0F87480C398FAEE2482F579
:1052E00082EF3400F583E06004780480027800E8FF
:1052F0002404F8EAC39850030253A37802900545AA
:10530000E8F0EE24F4F582EF3400F583E0900546F2
:10531000F0EE2482F582EF3400F583E0601B75081F
:105320004575090578081219EF7C027903EEFA1227
:105330000C59740212177D7806740128F5D975D9B5
:10534000037582457583058808E0F5D9A31508E53E
:105350000870F675E195EE2473F582EF3400F5835D
:10536000E4F0EE247FF582EF3400F583E4F0EE24E0
:105370001DF582EF3400F583E4F0A3F07904120DFB
:1053800079EE240DF582EF3400F583E0F8A3E0F91F
:10539000EE2471F582EF3400F583E8F0A3E9F079AB
:1053A00001800279000252C474F61217DC9061D0B9
:1053B000E0F87480C398FCEA2482F582EB3400F5AF
:1053C00083E06004780480027800E82404F8ECC3E9
:1053D00098405B79029005457407F0EA24F5F58260
:1053E000EB3400F583E0900546F0EA2482F582EB89
:1053F0003400F583E06018750845750905780812D2
:1054000019EF7C0209120C59740212177D79067487
:105410000129F5D975D903758245758305E9F8E049
:10542000F5D9A318E870F875E19579018002790043
:105430000252C474F51217DCE9FCA2AFE433F50A9A
:10544000C2AF7D0080010DEA246EF582EB3400F5D9
:1054500083E0F8EDC398501A8D08EA2508F8EB347C
:1054600000F9E8246AF582E93400F583E06C70D62F
:105470008024EA246EF8EB3400F9E0FEEA2EFAEB21
:105480003400FBEA246AF582EB3400F583ECF08803
:10549000828983E004F0E50AA2E092AF7F0302185C
:1054A000AE74F61217DCA2AFE433FDC2AFEA246E8D
:1054B000F582EB3400F583E014F07C0060368C0854
:1054C000EA2508F8EB3400F9E8246BF582E93400AA
:1054D000F583E0C0E0E8246AF582E93400F583D082
:1054E000E0F00CEA246EF582EB3400F583E0F8EC92
:1054F000C39840CAEA246DF582EB3400F58374FF4B
:10550000F0EA2469F582EB3400F583E4F0EDA2E0E3
:1055100092AF0252C4C082C083E5A8F8C2AFEA24A9
:105520006AF582EB3400F583E9F0EA2469F582EB51
:105530003400F583E4F0E8A2E7A2E792AF024690D8
:1055400074F31217DCEAFEEBFFECFAEDFB8A828BB8
:1055500083A3A3A3A3E0541FF0EE2436F582EF3417
:1055600000F583E4F0F50AEEFCEFFD8A828B83E020
:10557000C0E0EC245DF582ED3400F583D0E0F075F9
:105580000B00E50A33333354F8F50C8A828B83E041
:10559000F508750900E50B7808121735E508A2E053
:1055A000502FEE2436F8EF3400F988828983E0F535
:1055B00008EE2508F508EF3400F509E5082438F56C
:1055C00082E5093400F583E50CF088828983E004E4
:1055D000F0050B050CE50BC3940840AF050A8A8261
:1055E0008B83A3AA82AB838C828D83A3AC82AD8391
:1055F000E50AC39405500302556B7F050218AE748B
:10560000F71217DC9003CEE06401700302575D7A55
:10561000009003D4E0600302575D7401F0A3E4F04E
:10562000A3F090043404F0900439F09003D7E4F030
:10563000A3F0A3F0A3F09003E104F0900407E4F0DA
:105640009003EAF0A3F0A3F0A3F0A3F0A3F0A3F07B
:10565000900451F0900445F090043A7480F0A3E473
:10566000F0900440F09004BCF0A3F0A3F0A3F0A3EA
:10567000F0A3F0A3F0A3F09004C5F0900454F090D0
:1056800004A4F0A3F0A3F0A3F0A3F0A3F0A3F0A36D
:10569000F0A3F0A3F09004B0F09004B2F09004AE48
:1056A000F09004C8F0A3F0A3F0A3F0A3F0A3F0A33C
:1056B000F0A3F078CE7903E8246EF582E93400F5A2
:1056C0008374FFF00A88828983A3A882A983EAC32E
:1056D000940440E37ACE7B0378DC79048882898362
:1056E000E0C0E0EA2461F582EB3400F583D0E0F01D
:1056F00088828983A3A882A9838A828B83A3AA82B2
:10570000AB83E864E17003E9640470D07ACE7B0374
:1057100078B5790388828983A3E0C0E0EA24E6F5BE
:1057200082EB3400F583D0E0F088828983A3A882DD
:10573000A9838A828B83A3AA82AB83E864BD7003AA
:10574000E9640370CF9003CEE004F0640170089028
:1057500003D6E09003D0F07AD27B0380047A007BFA
:1057600000024FBEC082C0839003D5E4F09003D402
:10577000F09003CEF0A3F0A374FFF075E1F10246C0
:1057800090C082C083780079009003D5E0600478EF
:10579000D2790388828983A3A3A3A3E0F902469068
:1057A00074F61217DCEAFEEBFFEE2463F582EF34A9
:1057B00000F583E0F8A3E0F9E8497003025845EEEC
:1057C0002463F8EF3400F97A007B00A2AFE433F5EC
:1057D00008C2AF88828983E0FCA3E0FDEC4D603A0B
:1057E00088828983E0FAA3E0FB8A828B83E0FCA3B2
:1057F000E0FD88828983ECF0A3EDF08A828B83E45C
:10580000F0A3F088828983E0FCA3E0FDEC4D700AF0
:1058100088828983A3A3E4F0A3F0E508A2E092AF15
:105820001212E39004E2E004F09004E3E004F0EEEE
:105830002463F582EF3400F583E0F8A3E0F9E8494A
:1058400060030257BF8E828F83A3A3A3E0600F8EF5
:10585000828F83A3A3A3E4F09003CFE014F090031E
:10586000CEE014F070069003D074FFF08E828F8328
:10587000A3A3E4F09004E1E0700D9003CFE0640195
:1058800070057900120D5BEEFAEFFB120C890252E3
:10589000C474F71217DCEAFEEBFF8E828F83A3A39A
:1058A000A3A3E0FA7B0012095FEEFAEFFB120BDB19
:1058B000120C71024FBEC082C08378B57903888212
:1058C0008983A3E4F088828983A3A882A983E864FA
:1058D000BD7003E9640370E69003B6740102468F5D
:1058E00074F61217DCEAFEEBFFEC2403F8ED34004B
:1058F000F988088909EC2407F8ED3400F9E8FCE997
:10590000FD8C828D83E0F8A3E0F985088285098308
:10591000E0FAA3E0FB1216DCEE240DF582EF340072
:10592000F583E8F0A3E9F08C828D83E0F8A3E0F939
:10593000850882850983E0FAA3E0FB1216DC8B0957
:10594000EA45096013EE240DF582EF3400F583E09B
:105950002401F0A3E03400F00252C474F61217DC04
:10596000EAFEEBFFEE242EF582EF3400F583E0FC37
:10597000A3E0FD780079FAECFAEDFB1216DCEE24D8
:105980006FF582EF3400F583E8F0A3E9F078007951
:10599000FAECFAEDFB1216DC8B09EA45096013EE0E
:1059A000246FF582EF3400F583E02401F0A3E034A6
:1059B00000F00252C474EC1217DCEAFEEBFF741420
:1059C0001217D07808121637120D198A0C8B0D8C0D
:1059D0000E8D0F7510027511007512007513007889
:1059E0000C791012159D7510FF7511FF7512FF7857
:1059F0000C79101215FE780C1219EB8E828F83E051
:105A0000F8A3E0F5838882A3A312165512271F740A
:105A10000412177DE96003025B198E828F83E024F4
:105A200002F8A3E03400F9E8FAE9FB8A828B837874
:105A3000081215C38A828B837508FF7509FF750AE2
:105A4000FF750B007808121624EE240BF582EF3454
:105A500000F583C082C0838E828F83A3A3A3A3A3F8
:105A6000E02401F8A3E03400F9D083D082E068702C
:105A700003A3E06970057901025B1B8E828F83A30B
:105A8000A3A3A3A3A3A3E02401F0A3E03400F0EEBA
:105A90002473F582EF3400F583E064017036EE2460
:105AA00074F582EF3400F583E0F8A3E0F98E828F7D
:105AB00083A3A3A3A3A3A3A3E0687003A3E06970D7
:105AC00013EE2474F582EF3400F583E02401F0A393
:105AD000E03400F0EE247FF582EF3400F583E064DB
:105AE000017036EE2480F582EF3400F583E0F8A3F0
:105AF000E0F98E828F83A3A3A3A3A3A3A3E068707E
:105B000003A3E0697013EE2480F582EF3400F5837F
:105B1000E02401F0A3E03400F0790002482874F694
:105B20001217DCE9FEECFFEA2462F582EB3400F5A3
:105B300083E064016003025BC79061D0E0F508EA8E
